:100000000C949A0E0C94B70E0C94B70E0C94BA3054
:100010000C94B70E0C94B70E0C94B70E0C94B70E4C
:100020000C94B70E0C94B70E0C94D61D0C949A1D1C
:100030000C94E5280C94B70E0C94B70E0C94B70EE4
:100040000C94B70E0C94B70E0C94B70E0C94B70E1C
:100050000C94B70E0C94D1190C94B70E0C94B70EE7
:100060000C94B70E0C94B70E0C94B70E0C94B70EFC
:100070000C94B70E0C94B70E0C94B70E0C94B70EEC
:100080000C94B70E0C94B70E0C94B70E0C94B70EDC
:100090000C94B70E0C94B70E0C94B70E0C94B70ECC
:1000A0000C94B70E0C94B70E0C94B70E0000000021
:1000B0000000000000000000000000000000000040
:1000C0000000000000000000000000000000000030
:1000D0000000000000000000000000000000000020
:1000E0000000000000000000000000000000808010
:1000F00080404020201008040204081010202040F6
:1001000040808000000000000000000000000000AF
:1001100000000000000000000000000000000000DF
:1001200000000000000000000000000000000000CF
:1001300000000000000000000000000000000000BF
:1001400000000000000000000000000000000000AF
:100150000000000000000000000000000000003F60
:10016000C1010102020404040402020101010000B1
:10017000000000008000004080804000003030001F
:10018000000000010264180412C2CA2488F08080B2
:10019000404040402020202010101010080808087F
:1001A0000404040402020202010101010000000033
:1001B000000000000000000000000000000000003F
:1001C000000000000000000000000000000000002F
:1001D0000000000000000000000000000000E01827
:1001E0000601000000000000000000000080838382
:1001F000404040402021212010101010080808081D
:1002000004040404020202020101010100000000D2
:1002100000000000000000000000000000000000DE
:1002200000000000000000000000000000000000CE
:1002300000000000000000000000000000000000BE
:1002400000000000000000000000000080808080AE
:10025000404040402020202010101010080F0808B7
:1002600004040404020408101020204040414224E9
:1002700098C088888C9C1C1E0E06000000000000A0
:10028000000000000000000000000000000000006E
:10029000000000000000000000000000000000005E
:1002A000000000000000000000000000000000004E
:1002B000000000000000000000000000000000003E
:1002C000000000000000000000000000000000002E
:1002D000000000000000000000000000000000001E
:1002E000000000000000000000000000000000000E
:1002F00000000000000000000000000000000000FE
:1003000000000000000000000000000000000000ED
:1003100000000000000000000000000000000000DD
:1003200000000000000000000000000000000000CD
:1003300000000000000000000000000000000000BD
:1003400000000000000000000000000000000000AD
:10035000000000000000000000000000000000009D
:10036000000000000000000000008080804040206D
:100370002010080402040810102020404080800053
:10038000000000000000000000000000000000006D
:10039000000000000000000000000000000000005D
:1003A000000000000000000000000000000000004D
:1003B000000000000000000000000000000000003D
:1003C000000000000000000000000000000000002D
:1003D00000000000000000000000003FC101010219
:1003E0000204844444428201010100000000000034
:1003F000800000408080400000303000000000019C
:100400000204040808102040808080804040404062
:1004100020202020101010100808080804040404EC
:1004200002020202010101010000000000000000C0
:1004300000000000000000000000000000000000BC
:1004400000000000000000000000000000000000AC
:1004500000000000000000000000E018060100009D
:100460000C03000218190005FE80838340404040C1
:10047000202121201010101008080808040404048A
:100480000408304080800000018698600000000071
:10049000000000000000000000000000000000005C
:1004A000000000000000000000000000000000004C
:1004B000000000000000000000000000000000003C
:1004C000000000000000000080808080404040402C
:1004D0002020202010101010080F08080404040425
:1004E0000202020201010101000000000000000000
:1004F0000000000000000000000000060F0F0703CE
:100500000361F0F8FC600101013C78F8F070000034
:1005100000000000000000000000000000000000DB
:1005200000000000000000000000000000000000CB
:1005300000000000000000000000000000000000BB
:1005400000000000000000000000000000000000AB
:10055000000000000000000000000000000000009B
:10056000000000000000000000000000000000008B
:10057000000000000000000000000000000000007B
:10058000000000000000000000000000000000006B
:10059000000000000000000000000000000000005B
:1005A000000000000000000000000000000000004B
:1005B000000000000000000000000000000000003B
:1005C000000000000000000000000000000000002B
:1005D000000000000000000000000000000000001B
:1005E00000000000000080808040402020100804AF
:1005F000020408101020204040808000000000000D
:1006000000000000000000000000000000000000EA
:1006100000000000000000000000000000000000DA
:1006200000000000000000000000000000000000CA
:1006300000000000000000000000000000000000BA
:1006400000000000000000000000000000000000AA
:10065000000000000000003FC101010202048444C8
:1006600044428201010100000000000080000040BF
:100670008080400000303000000000010264180457
:1006800012C2CA2488F080804040404020202020B0
:1006900010101010080808080404040402020202E2
:1006A0000101010100000000000000000000000046
:1006B000000000000000000000000000000000003A
:1006C000000000000000000000000000000000002A
:1006D000000000000000E018060100000C0300020A
:1006E00018190005FE8083834040404020212120CE
:1006F0001010101008080808040404040202020282
:1007000001010101000000000000000000000000E5
:1007100000000000000000000000000000000000D9
:1007200000000000000000000000000000000000C9
:1007300000000000000000000000000000000000B9
:100740000000000080808080404040402020202029
:1007500010101010080F080804040404020202021A
:100760000101010100000000000000000000000085
:100770000000000000000000000000000000000079
:100780000000000000000000000000000000000069
:100790000000000000000000000000000000000059
:1007A0000000000000000000000000000000000049
:1007B0000000000000000000000000000000000039
:1007C0000000000000000000000000000000000029
:1007D0000000000000000000000000000000000019
:1007E0000000000000000000000000000000000009
:1007F00000000000000000000000000000000000F9
:1008000000000000000000000000000000000000E8
:1008100000000000000000000000000000000000D8
:1008200000000000000000000000000000000000C8
:1008300000000000000000000000000000000000B8
:1008400000000000000000000000000000000000A8
:100850000000000000000000000000000000008018
:10086000804040402020202020180402010204087B
:1008700010202040408080000000000000000000A8
:100880000000000000000000000000000000000068
:100890000000000000000000000000000000000058
:1008A0000000000000000000000000000000000048
:1008B0000000000000000000000000000000000038
:1008C0000000000000000000000000000000000028
:1008D0000000003FC10101020204040404020201FD
:1008E0000000000000000000800000408080400008
:1008F000003030000000000102040408081020400D
:100900008080808040404040202020201010101027
:10091000080808080404040402020202010101019B
:1009200000000000000000000000000000000000C7
:1009300000000000000000000000000000000000B7
:1009400000000000000000000000000000000000A7
:100950000000E01806010000000000000000000098
:10096000008083834040404020212120101010103F
:1009700008080808040404040408304080800000CB
:1009800001869860000000000000000000000000E8
:100990000000000000000000000000000000000057
:1009A0000000000000000000000000000000000047
:1009B0000000000000000000000000000000000037
:1009C0008080808040404040202020201010101067
:1009D000080F080804040404020408101020204032
:1009E0004041422418000000000000000000000008
:1009F00000000000000000000000000000000101F5
:100A000001000000000000000000000000000000E5
:100A100000000000000000000000000000000000D6
:100A200000000000000000000000000000000000C6
:100A300000000000000000000000000000000000B6
:100A400000000000000000000000000000000000A6
:100A50000000000000000000000000000000000096
:100A60000000000000000000000000000000000086
:100A70000000000000000000000000000000000076
:100A80000000000000000000000000000000000066
:100A90000000000000000000000000000000000056
:100AA0000000000000000000000000000000000046
:100AB0000000000000000000000000000000000036
:100AC0000000000000000000000000000000000026
:100AD0000000000000000000000000000000808016
:100AE0004040402010080402010204081020408009
:100AF0008000000000000000000000000000000076
:100B000000000000000000000000000000000000E5
:100B100000000000000000000000000000000000D5
:100B200000000000000000000000000000000000C5
:100B300000000000000000000000000000000000B5
:100B40000000000000000000000000000000003F66
:100B5000C1010102020404040402020101010000B7
:100B600000000000000000800000800000606000C5
:100B700000010204040808101020204080808080BA
:100B80004040404020202020101010100808080885
:100B90000404040402020202010101010000000039
:100BA0000000000000000000000000000000000045
:100BB0000000000000000000000000000000000035
:100BC0000000000000000000000000000000C03035
:100BD0000C0300000000000000000000008086867A
:100BE000404040402122222011111010080808081E
:100BF00004040404040830408080000001869860EA
:100C000000000000000000000000000000000000E4
:100C100000000000000000000000000000000000D4
:100C200000000000000000000000000000000000C4
:100C300000000000000000000000000080808080B4
:100C4000404040402020202010101010080F0808BD
:100C500004040404020408101020204040414224EF
:100C6000180000000000000000000000000000006C
:100C70000000000000000000000001010100000071
:100C80000000000000000000000000000000000064
:100C90000000000000000000000000000000000054
:100CA0000000000000000000000000000000000044
:100CB0000000000000000000000000000000000034
:100CC0000000000000000000000000000000000024
:100CD0000000000000000000000000000000000014
:100CE0000000000000000000000000000000000004
:100CF00000000000000000000000000000000000F4
:100D000000000000000000000000000000000000E3
:100D100000000000000000000000000000000000D3
:100D200000000000000000000000000000000000C3
:100D300000000000000000000000000000000000B3
:100D400000000000000000000000000000000000A3
:100D50000000000000000000000080808080404013
:100D600020100804020408102040808000000000C9
:100D70000000000000000000000000000000000073
:100D80000000000000000000000000000000000063
:100D90000000000000000000000000000000000053
:100DA0000000000000000000000000000000000043
:100DB0000000000000000000000000000000000033
:100DC00000000000000000000000007E820202041B
:100DD00004080808080404020101000000000000E3
:100DE000000000800000800000606000010102043B
:100DF000040808101020204080808080404040403F
:100E000020202020101010100808080804040404F2
:100E100002020202010101010000000000000000C6
:100E200000000000000000000000000000000000C2
:100E300000000000000000000000000000000000B2
:100E400000000000000000000000C0300C030000A3
:100E50000000000000000000008086864040404006
:100E6000212222201111101008080808040404048B
:100E70000408304080800000018698600000000077
:100E80000000000000000000000000000000000062
:100E90000000000000000000000000000000000052
:100EA0000000000000000000000000000000000042
:100EB0000000000000000000808080804040404032
:100EC0002020202010101010080F0808040404042B
:100ED0000204081010202040404142241800000065
:100EE0000000000000000000000000000000000002
:100EF00000000000000001010100000000000000EF
:100F000000000000000000000000000000000000E1
:100F100000000000000000000000000000000000D1
:100F200000000000000000000000000000000000C1
:100F300000000000000000000000000000000000B1
:100F400000000000000000000000000000000000A1
:100F50000000000000000000000000000000000091
:100F60000000000000000000000000000000000081
:100F70000000000000000000000000000000000071
:100F80000000000000000000000000000000000061
:100F90000000000000000000000000000000000051
:100FA0000000000000000000000000000000000041
:100FB0000000000000000000000000000000000031
:100FC0000000000000000000000000000000000021
:100FD0000000000000008080808040402010080455
:100FE0000204081020408080000000000000000083
:100FF00000000000000000000000000000000000F1
:1010000000000000000000000000000000000000E0
:1010100000000000000000000000000000000000D0
:1010200000000000000000000000000000000000C0
:1010300000000000000000000000000000000000B0
:101040000000000000001C34C40404040808080860
:1010500008040402010100000000000080000040BC
:1010600080804000003030000101020204040408C6
:101070000810204080808080404040402020202078
:1010800010101010080808080404040402020202E8
:10109000010101010000000000000000000000004C
:1010A0000000000000000000000000000000000040
:1010B0000000000000000000000000000000000030
:1010C000000000000000E018060100000000000021
:1010D0000000000000808383404040402021212008
:1010E0001010101008080808040404040408304014
:1010F0008080000001869860000000000000000071
:1011000000000000000000000000000000000000DF
:1011100000000000000000000000000000000000CF
:1011200000000000000000000000000000000000BF
:10113000000000008080808040404040202020202F
:1011400010101010080F080804040404020408100A
:101150001020204040414224180000000000000000
:10116000000000000000000000000000000000007F
:10117000000001010100000000000000000000006C
:10118000000000000000000000000000000000005F
:10119000000000000000000000000000000000004F
:1011A000000000000000000000000000000000003F
:1011B000000000000000000000000000000000002F
:1011C000000000000000000000000000000000001F
:1011D000000000000000000000000000000000000F
:1011E00000000000000000000000000000000000FF
:1011F00000000000000000000000000000000000EF
:1012000000000000000000000000000000000000DE
:1012100000000000000000000000000000000000CE
:1012200000000000000000000000000000000000BE
:1012300000000000000000000000000000000000AE
:10124000000000000000000000000000000000801E
:101250008040404020202020201804020102040881
:1012600010202040408080000000000000000000AE
:10127000000000000000000000000000000000006E
:10128000000000000000000000000000000000005E
:10129000000000000000000000000000000000004E
:1012A000000000000000000000000000000000003E
:1012B000000000000000000000000000000000002E
:1012C00000060D31C1010101020202040402020103
:1012D000000000000000000080000040808040000E
:1012E0000030300000000001020404080810204013
:1012F000808080804040404020202020101010102E
:1013000008080808040404040202020201010101A1
:1013100000000000000000000000000000000000CD
:1013200000000000000000000000000000000000BD
:1013300000000000000000000000000000000000AD
:101340000000E0180601000000000000000000009E
:101350000080838340404040202121201010101045
:1013600008080808040404040408304080800000D1
:1013700001869860000000000000000000000000EE
:10138000000000000000000000000000000000005D
:10139000000000000000000000000000000000004D
:1013A000000000000000000000000000000000003D
:1013B000808080804040404020202020101010106D
:1013C000080F080804040404020408101020204038
:1013D000404142241800000000000000000000000E
:1013E00000000000000000000000000000000101FB
:1013F00001000000000000000000000000000000EC
:1014000000000000000000000000000000000000DC
:1014100000000000000000000000000000000000CC
:1014200000000000000000000000000000000000BC
:1014300000000000000000000000000000000000AC
:10144000000000000000000000000000000000009C
:10145000000000000000000000000000000000008C
:10146000000000000000000000000000000000007C
:10147000000000000000000000000000000000006C
:101480000000000000000000000000004A001E00F4
:101490001F00200021002200350014001A0008005F
:1014A00015001700292204221628072409210A43BF
:1014B00031001D001B00060019000500000052004D
:1014C000510021522B42AA004D0027002600250082
:1014D000240023002D00130012000C0018001C0033
:1014E000340033320F380E340D310B002E02380029
:1014F000370036001000110000004F00500022524B
:101500002C41A900000000000000000000000000C5
:1015100000000000000000000000000000001E02AB
:101520001F02200221022202000000000000000031
:101530000000000000000100010001002A004C0032
:101540000000000000000000000000000000300269
:101550002F020000000000003502270226022502AB
:1015600024022302000030022F02000000000000CD
:101570000000010001000100010001000000000066
:10158000000000000000000000000000000000005B
:101590000000000000001E001F00200021002200AB
:1015A000000000000000000000000000000001003A
:1015B0000100010001000100000000000000000027
:1015C000000000000000000000000000000000001B
:1015D0000000270026002500240023000000000052
:1015E00000000000000000000000010001000100F8
:1015F0002800A8000000000000000000000000001B
:101600000000000000000000000000000100E100F8
:10161000E300E200E0000100000000000000000024
:1016200000000000000001000100010001000100B5
:1016300000000000000000000000000000000000AA
:101640004E0052004B00000000004D004F005100C2
:1016500050004A00000000000000000000000000F0
:10166000000001000100010001007B7C000000007F
:101670000000000000000000000000001C700000DE
:10168000000000000000000000000000000000005A
:101690000000000000000000000000000000010049
:1016A0000100010001000000000000000000000037
:1016B000000000000000000000000000000000002A
:1016C000000000000000000000000000000000001A
:1016D000000000001B70000000000100010001007C
:1016E0000100000000DA0281FFD9F1DB20A4A62E60
:1016F000AF00A0C0D30000A1C8D30000AED580A821
:101700001F408D14200000AF00AE05010980A1012B
:10171000850319012AB700150126B7009501751038
:101720008100C0050C0901A101850419012AA0024C
:10173000150126A002950175108100C0050109065A
:10174000A101050719E029E7150025019508750194
:1017500081029501750881010507190029FF15000F
:1017600026FF009506750881000508190129051551
:10177000002501950575019102950175039101C040
:1017800009023B00020100A0FA0904000001030164
:10179000010009211101000122440007058103080D
:1017A00000010904010001030000000921110100EA
:1017B000012232000705820320000112010002000D
:1017C000000008D8042DEB0001010200010E034CBB
:1017D0000069006C00790035003800000010036CCF
:1017E0000069006C00690075006D00730000000462
:1017F0000309040000000000003E5B4F5B3E003E1A
:101800006B4F6B3E001C3E7C3E1C00183C7E3C181F
:10181000001C577D571C001C5E7F5E1C0000183C9E
:10182000180000FFE7C3E7FF00001824180000FFBE
:10183000E7DBE7FF0030483A060E00262979292623
:1018400000407F05050700407F05253F005A3CE723
:101850003C5A007F3E1C1C0800081C1C3E7F0014E4
:10186000227F2214005F5F005F5F0006097F017F17
:1018700000006689956A0060606060600094A2FF65
:10188000A2940008047E04080010207E20100008A6
:10189000082A1C0800081C2A0808001E1010101036
:1018A000000C1E0C1E0C0030383E383000060E3E78
:1018B0000E060000000000000000005F00000000B5
:1018C0000700070000147F147F1400242A7F2A12C7
:1018D00000231308646200364956205000000807B0
:1018E000030000001C224100000041221C00002ACD
:1018F0001C7F1C2A0008083E080800008070300089
:1019000000080808080800000060600000201008B7
:101910000402003E5149453E0000427F40000072F3
:1019200049494946002141494D33001814127F109E
:10193000002745454539003C4A49493100412111BC
:10194000090700364949493600464949291E000021
:101950000014000000004034000000000814224180
:101960000014141414140000412214080002015938
:101970000906003E415D594E007C1211127C007F29
:1019800049494936003E41414122007F4141413EA3
:10199000007F49494941007F09090901003E414151
:1019A0005173007F0808087F0000417F410000203C
:1019B00040413F01007F08142241007F40404040E9
:1019C000007F021C027F007F0408107F003E41411F
:1019D000413E007F09090906003E4151215E007F1A
:1019E000091929460026494949320003017F0103AC
:1019F000003F4040403F001F2040201F003F403834
:101A0000403F00631408146300030478040300617A
:101A100059494D4300007F41414100020408102014
:101A200000004141417F00040201020400404040A7
:101A30004040000003070800002054547840007F15
:101A40002844443800384444442800384444287F1B
:101A50000038545454180000087E09020018242449
:101A60001C78007F080404780000447D40000020BA
:101A700040403D00007F102844000000417F4000AE
:101A8000007C04780478007C08040478003844441E
:101A90004438007C1824241800182424187C007C66
:101AA000080404080048545454240004043F442407
:101AB000003C4040207C001C2040201C003C40306A
:101AC000403C004428102844004C9090907C0044F6
:101AD00064544C44000008364100000000770000C8
:101AE000000041360800000201020402003C2623E7
:101AF000263C000000000000808080800000000084
:101B00000080E070180C1830E080000010F8901091
:101B100030783010B8FC3810000000000000F8FCED
:101B2000F8000000000000000000000000001C9C05
:101B30001C00000000F8FCF80000000000001CFC85
:101B4000F8C000000000000080E0F87C1C000000ED
:101B5000F0FCFCFC1C1C1C1C1C1C1C1C00000000C1
:101B60000000C0F0F8381C1C1C1C1C1C3CF8F0E0E9
:101B700000E0F0F0F0E0ECEEF7F37020007C7C7C0D
:101B80007E007E7E7E7F7F7F000080C0E07E5B4F98
:101B90005BFEC00000C000DCD7DEDEDED7DC00C0AC
:101BA0000000000000000000000000000000000035
:101BB00000000000000000000FBCE08181818383F1
:101BC00082870C183060C000001FFE90B9FFBB91E7
:101BD000983C1811133F1100000000000000FFFFA7
:101BE000FF00000000000000000000000000FFFFF8
:101BF000FF00000000FFFFFF0000000000000000E9
:101C0000030F7FF8E080F0FC3F0F010000000000B0
:101C10003F3F3F1C1C1C1C1C3C78F8F0E08000007F
:101C20000000C3E7FF7E3C3878787070F8FFDF87EC
:101C3000000F1F3F7F7F7F7F7F3F1E0C001F1F1FF6
:101C40003F003F3F3F7F7F7F00307B7F7830202009
:101C500030787F3B0003000F7F0F0F0F7F0F0003D3
:101C60000000000000000000000000000000000074
:101C7000000000183C24666341C181808080808020
:101C80008081C14162386C4CC681818080808080B7
:101C900081C14362361C1800000000000000FFFFF5
:101CA000FFC0C0C0C0C0C0C0C0C0800000007FFF77
:101CB0007F000000007FFFFFC080000000E0E0C068
:101CC000C0C0E0F97F1F0700000000000000000016
:101CD00070F0E0E0C0C0C0C0E0F0F87F3F0F00004F
:101CE000000F3F7FF9E0E0C0C0C0C0C0E0F97F3F17
:101CF0001F000000000000000000000000000000C5
:101D000000000000000000000000000000000000D3
:101D100000000000000000000000000000000000C3
:101D200000000000000000000000000000000000B3
:101D30000000000011241FBECFEFDAE0DEBFCDBFF0
:101D400011E0A0E0B1E0ECEEFBE602C005900D92E0
:101D5000AE3FB107D9F725E0AEEFB1E001C01D926B
:101D6000A63CB207E1F70E9418290C94F4350C94B4
:101D70000000FF920F931F93CF93DF932091C40530
:101D80003091C505245C3340A90144585D4F413072
:101D90005240E8F040E052E0421B530B6091C20316
:101DA0007091C303D901AC53BC4F420F531F821B28
:101DB000930BC1E0D0E02417350760F07093C303A4
:101DC0006093C203CDB7DEB7E5E00C9414324CE764
:101DD00052E0E4CFFC01E20FF31FF490FD91FF16F7
:101DE000A1F08D0101501109F801F082F90115E00F
:101DF000F695E7951A95E1F78E0102C0000F111FC5
:101E0000EA95E2F7F801602B7F2B2F5F3F4FD3CF8E
:101E10008F929F92AF92BF92CF92DF92EF92FF92FA
:101E200090914401981305C09091BA03903309F43E
:101E300048C08093440190E39093BA03C82ED12CFC
:101E4000F12CE12C1092B903C701B6012AE030E071
:101E500040E050E00E949D32605D603331F0C1147B
:101E6000D104E104F10409F460E36093B8038AE06B
:101E7000882E912CA12CB12CC701B601A50194018B
:101E80000E949D3260E3211531054105510539F06D
:101E9000CA01B901A50194010E949D32605D609361
:101EA000B703C701B60124E630E040E050E00E94ED
:101EB0009D32211531054105510571F0205D2093BA
:101EC000B60386EB93E0FF90EF90DF90CF90BF904A
:101ED000AF909F908F90089520E3F1CF482F2091ED
:101EE000B50390917C0357E0291302C080E0089568
:101EF00030E0529FF001539FF00D1124E358FC4F46
:101F00008181681306C08081481303C085818111D7
:101F1000EECF2F5F3F4F2770E7CFFC01AC014B5F47
:101F20005F4F8FEF91E32191822728E030E087FF18
:101F300009C0880F892721503109C9F7E417F5072F
:101F400091F70895880FF7CFE8EDF0E080818E7F5C
:101F500080831092E2001092DA001092E100A0EE6D
:101F6000B0E08C9181608C9380818F77808319BCE5
:101F7000A7EDB0E08C918E7F8C9380818F7E8083E3
:101F800010925D0308952091E4003091E50085E60C
:101F90009091EC0090FF06C09091E80090FF06C081
:101FA00080E008959091E80092FDFACF909172033D
:101FB000992391F0953091F09091EB0095FD10C030
:101FC0004091E4005091E5002417350709F3815052
:101FD0009A01F1F684E0089582E0089583E008957F
:101FE00081E008958091740387FF13C08091E80019
:101FF00082FF06C08091E8008B778093E80004C0E0
:10200000809172038111F2CF089580917203882329
:10201000D9F38091E80080FFF8CF8091E8008E77B7
:10202000ECCF982F9093E900242F762F50E089175A
:1020300031F07091EC002091ED005091F00021FD05
:1020400007C09F5F973071F78093E90081E00895A2
:102050003091EB003E7F3093EB003091ED003D7FFF
:102060003093ED003091EB0031603093EB007093D2
:10207000EC002093ED005093F0002091EE0027FD3E
:10208000E0CF80E00895B0E0A0E0E9E4F0E10C9456
:10209000F531C8EDD0E088818F7E8883E7EDF0E0F0
:1020A00080818160808384E082BF81E080935D03D2
:1020B00088818E7F888302EE10E0F80110821092F2
:1020C000DA0081EEC82ED12CF601108288818F773C
:1020D000888388818068888388818F7D888319BC04
:1020E00010927203109273031092670310926603AA
:1020F00090EEE92EF12CF70180818B7F808388811F
:102100008160888342E060E080E00E941110F60167
:1021100080818E7F8083F8018081816080838081CF
:1021200088608083F70180818E7F808388818061D1
:102130008883CDB7DEB7E8E00C941132FC018091C2
:102140007A0390917B0386179707A0F061157105BC
:1021500029F49091E8009E779093E80090E0611553
:10216000710551F4911108C08091E80082FF35C0DB
:1021700080E00895BC01F2CF809172038823C9F1F9
:102180008530C9F18091E80083FD31C08091E8007D
:1021900082FDEACF8091E80080FFE1CF2091F3003B
:1021A0008091F200322F282F6115710519F0283027
:1021B000310558F091E02830310509F090E0209188
:1021C000E8002E772093E800CACF81918093F10038
:1021D000615071092F5F3F4FE7CF809172038823D1
:1021E00041F0853041F08091E80083FFBDCF81E070
:1021F000089582E0089583E00895089508952FB723
:10220000F8946091590370915A0380915B03909107
:102210005C032FBF08958091410108959C01FC014A
:1022200032969FEF80E04191461751F09F3F19F49D
:10223000411101C0982F8F5F8630A9F79F3F09F4A5
:102240000895290F311D97FD3A95F901628308958C
:10225000A3E0B0E0EEE2F1E10C94FB3120914E03FB
:1022600030914F0328173907A1F090934F038093C3
:102270004E03E0914C03F0914D03309751F024E070
:1022800029839B838A830084F185E02DCE0101960A
:1022900009952396E2E00C941732A3E0B0E0E3E561
:1022A000F1E10C94FB3120914A0330914B03281744
:1022B0003907A1F090934B0380934A03E0914C03BC
:1022C000F0914D03309751F023E029839B838A835B
:1022D0000084F185E02DCE01019609952396E2E078
:1022E0000C94173280914803882359F0E0914C03F5
:1022F000F0914D03309729F00190F081E02D099580
:10230000089580E0089580E00895F894E82FE2951C
:10231000EF70F0E031A1282F2F7081E090E001C034
:10232000880F2A95EAF7982F9095932391A392A16D
:10233000892B82A3789408950F931F93809148036B
:10234000882329F00E94FF101F910F9108950E9489
:10235000FF1000916702109168022091690230918C
:102360006A02600F711F821F931FEECF90911003BE
:1023700092FF10C041E0282F2471243009F040E082
:1023800031E0282F2871283009F030E0431711F090
:102390002CE0822793FF10C041E0282F24712431C4
:1023A00009F040E031E0282F2871283109F030E0B1
:1023B000431711F02CE082273091110330FF10C039
:1023C00051E0282F2171213009F050E041E0282F01
:1023D0002871283009F040E0541711F029E08227D5
:1023E00031FF10C041E0282F2171213109F040E078
:1023F00031E0282F2871283109F030E0431711F01F
:1024000029E0822794FD877E089582389105B9F1ED
:10241000B0F48133910509F47DC048F48932910507
:1024200009F46DC08A32910509F479C008958533A5
:10243000910509F45FC08933910509F10895833E40
:102440009105D9F138F4803E910529F1823E91053C
:1024500079F10895863E9105D9F1873E910509F4F9
:102460003EC0843E910541F52091110321FF24C017
:102470008091100384FD19C087EE90E008952091AB
:102480001003237009F056C02091110323FF14C0DC
:1024900089E290E008952091100320FD38C030912A
:1024A000110330FF09C024FF3FC090E080E0089591
:1024B0002091100322FDF7CF08952091100322FDF3
:1024C00036C03091110330FD35C024FDEECFF4CF7E
:1024D0002091100323FFF0CF24FDE7CFCDCF209133
:1024E000100323FD2AC03091110331FFEECF84EE9B
:1024F00090E008952091100325FDCACF0895209102
:10250000100325FD1DC02091110323FFD5CF89E3C2
:1025100090E008952091100326FD15C008952091A4
:10252000100326FD13C0089583EE90E0089582EE17
:1025300090E0089580EE90E0089586EE90E0089592
:1025400085E390E008958AE290E0089581E390E0C9
:10255000B3CF7A30B8F46630A8F48530B0F4E62F03
:10256000F0E096E0799FE00DF11D11249CE3899F36
:10257000E00DF11D1124EE0FFF1FE457FB4E859176
:102580009491089580E090E0089581E0FCCF1F933E
:10259000CF93DF930E940512EC01C11580E5D807A7
:1025A000E8F5C11580E4D80708F09BC0C03ED1050E
:1025B00018F5CD3CD10508F081C0C83AD10570F4BA
:1025C000C53AD10508F072C0C130D10511F118F03B
:1025D000C430D105F0F4D0E0C0E01BC0C33CD1054D
:1025E000D0F7C85AD0E0CC0FDD1FCD54DE4F099094
:1025F000D881C02DD4640DC0C11580E2D80708F081
:10260000CBC0C11581E0D80708F05AC0C83ED1053B
:1026100010F7CE01DF91CF911F910895C03682E56A
:10262000D80718F5C03482E5D80708F069C0C03271
:1026300082E5D80708F05DC0C11582E5D80708F427
:1026400093C02C2F2695269580E2289F9001112477
:102650008C2F8370C1E0D0E002C0CC0FDD1F8A95C3
:10266000E2F7C22BD32BDD68D4CFC03A82E5D8077E
:1026700060F4C03882E5D80708F457C0CF71D0E0C5
:10268000DC2FCC27C46FD06AC4CFC03C82E5D8070A
:1026900008F45EC0C03E82E5D80708F09CCFDC2F6E
:1026A000CC27CC27DF71C06FD06AB3CFC55AD0E03A
:1026B000C055DE4FC881D0E0D064ABCFD065A9CF84
:1026C0008D2F0E94B611182FCE0199270E94051256
:1026D000C12FD0E0DC2FCC27CC27DF71C82BD92B22
:1026E00098CFCE0199270E940512CC27DF70D06ABF
:1026F000F5CFCF71D0E0DC2FCC27C16FD06A89CF66
:102700002C2F26952695277080E2289F9001112472
:102710008C2F8370C1E0D0E002C0CC0FDD1F8A9502
:10272000E2F7DC68C22BD32B74CF2C2F269526958D
:10273000277080E2289F900111248C2F8370C1E0C4
:10274000D0E002C0CC0FDD1F8A95E2F7DA68EACF4D
:102750008C2F8F710E94B611C82FD0E0DC2FCC27B0
:10276000CC27DF71D06255CF8C2F8F710E94B611AC
:1027700055E0D695C7955A95E1F7CF70D0E0DC2F9C
:10278000CC27282F30E084FF05C044E0220F331F00
:102790004A95E1F7D069C6CF8D2F8F710E94B6118F
:1027A000182FCE0199270E940512C12FD0E0DC2FEF
:1027B000CC27CC27DF71906291CF982F9095809194
:1027C0003D02892380933D0208958091B503909145
:1027D0007C03981301C008958F5F8770FACFB0E033
:1027E000A0E0E5EFF3E10C94F4317C010091E30209
:1027F0001091E4028091770290917802082B192BB6
:10280000CFE0D0E0CC24C394D12CBC2EC6010C2E3A
:1028100002C0880F991F0A94E2F780239123892B25
:1028200049F4219790F7B12C8B2DCDB7DEB7E9E0B5
:102830000C941032B7018C2F0E94A9120E94C7126B
:10284000019779F3F1CFCF93DF93EC010E94EF135F
:10285000BE010E94A9120E94C712DF91CF91089574
:102860009A3078F5863068F5E82FF0E086E0989F9A
:10287000E00DF11D11249E2F977083E0F695E795EA
:102880008A95E1F7EE0FFF1FEE0FFF1FE45FFD4F8C
:1028900050E040E080E0219130E0092E02C0369502
:1028A00027950A94E2F721703327042E01C0220FE6
:1028B0000A94EAF7822B4F5F5F4F4430510559F776
:1028C000089580E008959A3098F5863088F5E82FCD
:1028D000F0E086E0989FE00DF11D11248E2F8770A7
:1028E00041E001C0440F8A95EAF783E0F695E79549
:1028F0008A95E1F7EE0FFF1FEE0FFF1FE45FFD4F1C
:1029000030E020E070E05191DF011197CB01022E01
:1029100002C0969587950A94E2F781708195852784
:10292000842385278C932F5F3F4F2430310559F73F
:1029300008959C01267033272630310531F48061DB
:102940009093E4028093E30208958F7EF9CFE091A3
:10295000E302F091E40221E030E0D90102C0AA0FC5
:10296000BB1F8A95E2F7CD01D90102C0AA0FBB1F98
:102970006A95E2F7BD018A2B972B02C0220F331F05
:102980004A95E2F7AF01482359238417950731F49C
:102990002E2B3F2BC9010E94991408952095309544
:1029A0002E233F23F7CF21E030E002C0220F331F58
:1029B0008A95E2F7209530958091E3029091E402A8
:1029C000822393230E949914089590913E03809549
:1029D000892380933E03282F277069F4891759F0C3
:1029E0009091110392FF07C08695869586950E9467
:1029F000D31410923E03089521E030E002C0220F6C
:102A0000331F8A95E2F78091E3029091E402822BD2
:102A1000932B0E94991408950F931F93CF93DF93E4
:102A200001E010E0082E02C0000F111F0A94E2F727
:102A3000C0914303D09144039E0120233123232BD3
:102A400001F590913E03969596959695891302C04F
:102A500010923E030E94FC140E94FF1060933F03FB
:102A6000709340038093410390934203C027D12782
:102A7000D0934403C0934303DF91CF911F910F91F3
:102A800008950E94D314F2CF909378028093770236
:102A90000895FC0124812223B9F0808191810E9454
:102AA000231492959F70963089F050F49250923092
:102AB00058F4803F19F030F4883E30F481E00895F6
:102AC0009A50F5CF843FD1F380E00895883EB0F36B
:102AD000813FD1F7F3CFA6E0B0E0E1E7F5E10C9458
:102AE000FA3126E0FC01DE01119601900D922A9543
:102AF000E1F7FC01258189819A81222399F06623DF
:102B000089F00E94EF13182F682F89819A810E9403
:102B1000631469817A81812F0E94A9122696E3E0CD
:102B20000C9416320E943014182FF3CF80910503B5
:102B30008531F8F48091090290E0019665E070E03B
:102B40000E9489328093090224E030E0281B390B6F
:102B50004CE752E0249FC001259F900D349F900DBB
:102B60001124805E974F0E94B90E089584EA95E083
:102B7000FACF8832D8F38091080290E001968170F4
:102B800099278093080221E030E0281B390B4CE79D
:102B900052E0249FC001259F900D349F900D112479
:102BA00084559F4FE0CFCF93DF93682F81E06A3049
:102BB00019F06D3031F480E00E945416DF91CF910E
:102BC00008958091C4059091C50526E0FC01ACEB09
:102BD000B3E001900D922A95E1F7603E08F459C0E8
:102BE00026E0FC0111922A95E9F7C091C405D09125
:102BF000C50546E050E0BE018CEB93E00E94063331
:102C0000892B59F1CE01845C93409C0145E03695B7
:102C100027954A95E1F741E050E0BA0102C0660FFE
:102C2000771F2A95E2F79B016091C2037091C3035D
:102C3000262B372B059665E0969587956A95E1F7E3
:102C4000FA0102C0EE0FFF1F8A95E2F7CF01822B37
:102C5000932B9093C3038093C2039E012E5B33405A
:102C60004091BB03642F70E0C9010E94D731481B1B
:102C7000463010F4240F311D2115F2E03F0710F00B
:102C800030E020E02C533C4F3093C5052093C40521
:102C900095CFF6E06F9FB00111246D50784E46E05D
:102CA00050E00E942232A1CFCF93382FE091C4058B
:102CB000F091C505E45CF3402091BB03622F70E006
:102CC000CF010E94D731281B822F332361F066E0A9
:102CD0000E947D32C82FC15010F4CF91089580E238
:102CE0000E94D315F8CF9F01280F311D21153240C6
:102CF00018F080E0F0E0E0E08E0F9F2F911D8C53E4
:102D00009C4F9093C5058093C405E7CF80913D0209
:102D100090913402892B90913302992351F0892BA1
:102D2000E2E0F2E027E090E0215029F591111092C5
:102D300033028093000248E050E065E372E080E0F7
:102D400092E00E940633892BA9F088E0E0E0F2E0EF
:102D5000A5E3B2E001900D928A95E1F7E0914C0372
:102D6000F0914D03309731F00280F381E02D80E047
:102D700092E00995089531913323B1F29F5FD4CF4A
:102D800010923D02E2E0F2E086E0DF011D928A95BA
:102D9000E9F790E080E00E944D1190E080E00E9411
:102DA0002811109234020E9486160895882321F07B
:102DB0000E94DD130E9486160895882339F09091B1
:102DC0003D02892B80933D020E9486160895882338
:102DD00081F19CEF980F913A70F4E0E0F2E092817B
:102DE000891301C01282319692E0E630F907B9F7F3
:102DF0000E948616089590E2980F983050F48770DC
:102E000091E001C0990F8A95EAF7892F0E94DD139E
:102E1000EFCF9BE5980F933028F490E080E00E947C
:102E20004D110895885A8B3120F490E080E00E9483
:102E300028110895CF938823C1F0C82F8CEF8C0FF1
:102E4000813A10F5A2E0B2E0E0E0F2E088E092E042
:102E50002D91C21761F08A179B07D1F76C2F80E084
:102E600092E00E940E110E948616CF91089586E08E
:102E700092E02281C21301C0128231968E179F0701
:102E8000C1F70E948616EACF80E28C0F883068F482
:102E9000C77021E030E001C0220FCA95EAF78091A7
:102EA0003D02822B80933D02DECFEBE5EC0FE33059
:102EB00040F4F0E0E055FE4F808190E00E944D111B
:102EC000D4CFC85ACB3188F6EC2FF0E0EE0FFF1FBD
:102ED000ED54FE4F808191810E942811C6CF0F933F
:102EE0001F93CF93DF93EC01FC0101900020E9F7E1
:102EF0008F0101501109C017D10728F0DF91CF9140
:102F00001F910F91089589910E94D315F4CF0F93CB
:102F10001F93CF93DF938B01EA019091720394305A
:102F200061F58093E9008FEF9091E800815095FD65
:102F300006C095ED9A95F1F700008111F5CF8091CB
:102F4000E80085FF1AC00E94C30F811111C0809153
:102F5000E80085FD06C08091E8008E778093E80048
:102F6000F2CFF80181918F018093F100219779F7D9
:102F70008091E8008E778093E800DF91CF911F91D8
:102F80000F91089543E050E0BC0182E00E94871752
:102F90000895CF93DF93EC0148E050E0BC0181E05D
:102FA0000E94871788E0FE01AEE5B3E001900D9224
:102FB0008A95E1F7DF91CF910895B0E0A0E0E3EECC
:102FC000F7E10C94F3317C015B016A0180916602A8
:102FD00001E010E08A3010F40AE010E0C1E0D0E037
:102FE000B501C701F6010995811104C021960C179E
:102FF0001D072CF4CDB7DEB7EAE00C940F32CC9F5E
:103000009001CD9F300D300D112490E080E045E31C
:103010004A95F1F70000019682179307C1F7E0CFB8
:103020000E94C0162FEF84E39CE021508040904026
:10303000E1F700C0000088E19AE00FB6F894A89587
:10304000809360000FBE90936000FFCFAB0124E639
:1030500030E0BC0188E70E948A2F21E0892B09F02B
:1030600020E0822F089580913C0390913D039111BF
:1030700003C091E089270895882369F062E070E039
:1030800088E097E10E942618811103C080913C03DB
:10309000089510923C0380913C03EBCFCF93C091F5
:1030A0003C0380913D038823D1F00E94FF10605AB9
:1030B00075418F4F9F4F609338037093390380930E
:1030C0003A0390933B03C11108C062E070E086E0D0
:1030D00097E10E942618811105C0C0913C038C2FF6
:1030E000CF91089581E080933C03F7CF9091110335
:1030F00092FB222720F9281779F080FB92F9909310
:103100001103609110037091110384E090E00E941C
:10311000673282E00E94E5140895CF92DF92EF9229
:10312000FF921F93CF93DF9300D000D0CDB7DEB7CF
:10313000C0905302D0905402E0905502F090560295
:103140000E94FF106C197D098E099F0911E06436F9
:1031500071058105910570F10E949C116E5F7F4F92
:103160008F4F9F4F69837A838B839C83809111015A
:1031700090911201895A9D4F4091100150E04530C5
:10318000510510F044E050E0BE016F5F7F4F0E9498
:10319000133382E090E00E946031182F882351F0B1
:1031A0000E94FF1060935302709354028093550263
:1031B00090935602812F0F900F900F900F90DF91F8
:1031C000CF911F91FF90EF90DF90CF900895A1E0F5
:1031D000B0E0EDEEF8E10C94F531109105031983A0
:1031E00000916102C0906202D0906302E09064029C
:1031F000F09065020E94FF106C197D098E099F09ED
:10320000643671058105910510F4011749F180912B
:10321000190190911A01895A9D4F4091180150E06F
:103220004115510511F041E050E0BE016F5F7F4F45
:103230000E94133383E090E00E946031182F8823AE
:1032400051F00E94FF1060936202709363028093BA
:10325000640290936502812F2196E8E00C9411326C
:1032600011E0F9CF8F929F92AF92BF92EF92FF92AF
:103270001F93CF93DF9300D000D000D0CDB7DEB73F
:103280007B0190E080E00E946031182F882309F4D0
:1032900064C04091030150E04115510511F041E037
:1032A00050E06091040170910501695A7D4FCE0193
:1032B00006960E94133380904F0290905002A09087
:1032C0005102B09052020E94FF10681979098A09D0
:1032D0009B09643671058105910538F488E592E013
:1032E0000E948D0F9E818917C1F181E090E00E94BC
:1032F0006031182F882391F040910B0150E0463047
:10330000510510F045E050E060910C0170910D0105
:10331000695A7D4FCE0101960E94133388E592E0F1
:103320000E948D0F91E02E81281390E0192301F166
:103330000E94FF1060934F027093500280935102DD
:103340009093520285E0FE013196AAE4B2E001902A
:103350000D928A95E1F711E00BC085E0E8E5F2E017
:10336000DE01119601900D928A95E1F71111EACFD5
:1033700085E0EAE4F2E0D70101900D928A95E1F749
:10338000812F26960FB6F894DEBF0FBECDBFDF911A
:10339000CF911F91FF90EF90BF90AF909F908F9033
:1033A000089578941F920F920FB60F9211248F9365
:1033B0009F93AF93BF938091590390915A03A0912B
:1033C0005B03B0915C030196A11DB11D809359036D
:1033D00090935A03A0935B03B0935C03BF91AF91AA
:1033E0009F918F910F900FBE0F901F9018952FB740
:1033F000F8948091590390915A03A0915B03B09186
:103400005C032FBF08953091570320915303321767
:1034100020F420915303209357036093500370933B
:10342000510380935203909353030E94F719909392
:103430006A038093690381E0809368030895AAE298
:10344000B0E0E5E2FAE10C94F731E4E7F3E08091D3
:10345000F100819323E0EC37F207C9F780917503FF
:10346000833009F487C008F5813009F45EC08230EA
:1034700009F4E0C08091E80083FF1AC180917403D1
:10348000909175039A3008F013C1E92FF0E0E55BE5
:10349000F54E0C94DE322B1B511B581B511B581B35
:1034A000A91BCB1B581B541D611D8A3009F4A7C0F2
:1034B0008B3009F47CC08930E9F680917403813245
:1034C000C9F68091780390917903029798F68091DC
:1034D000E800877F8093E8008091E80082FF45C084
:1034E0008091F3009091F20089279827892702970D
:1034F00031F48091F100813011F0863071F48091C7
:10350000F1008093410160914001709141018091EF
:103510004201909143010E94031A8091E8008B7749
:103520008093E8000E94F20FA5CF80917403813A46
:1035300009F0A0CF8091E800877F8093E800809118
:10354000780390917903892B61F060E090E080E04E
:1035500070E00E949E108091E8008B778093E800D5
:1035600089CF68E08EE593E0F3CF809172038111FB
:10357000B3CF80CF80917403813A09F07BCF8091E3
:10358000780390917903892B09F074CF8091E8003A
:10359000877F8093E8008091E80080FFFCCF8091D6
:1035A00042018093F1008091E8008E77B9CF80913D
:1035B0007403813209F05ECF809178039091790392
:1035C000892B09F057CF8091E800877F8093E8002E
:1035D0000E94F20F81E090917603911101C080E08A
:1035E00080934201609140017091410180914201BC
:1035F000909143010E94031A0E94C0163BCF809114
:103600007403813209F036CF8091E800877F809380
:10361000E8000E94F20F809177038093400160914F
:1036200040017091410180914201909143010E94BB
:10363000031A20CF80917403813A09F01BCF809147
:10364000E800877F8093E8008091E80080FFFCCF4E
:1036500080914001A6CF803889F0823849F5809169
:1036600078038F70873020F58093E9008091EB001C
:1036700085FB882780F91092E90006C080916603D7
:1036800090916703911182609091E800977F9093E9
:10369000E8008093F1001092F1008091E8008E77AD
:1036A00027C0282F2D7F21F48823A1F0823029F113
:1036B0008091E80083FF0AC08091E800877F8093B3
:1036C000E8008091EB0080628093EB00AA96E6E030
:1036D0000C94133280917603813051F7933009F0C6
:1036E00080E0809367031092E9008091E800877F73
:1036F0008093E8000E94F20FDBCF80917603811166
:10370000F2CF809178038F702FEF280F263080F64C
:103710008093E9002091EB0020FFE5CF933031F456
:103720008091EB0080628093EB00DDCF9091EB0005
:1037300090619093EB0021E030E001C0220F8A9568
:10374000EAF72093EA001092EA008091EB0088608B
:10375000EACF8111ADCF109176031F778091E300FE
:103760008078812B8093E3008091E800877F8093AD
:10377000E8000E94F20F8091E80080FFFCCF80916A
:10378000E30080688093E30083E0111101C082E0D0
:10379000809372038DCF8058823008F089CF80915A
:1037A0007603909177038C3D43E09407A1F583E085
:1037B0008A838AE289834FB7F894DE01139620E06A
:1037C0003EE051E2E32FF0E050935700E49120FFF8
:1037D00003C0E295EF703F5FEF708E2F90E0EA300C
:1037E000C0F0C7968D939D932F5F243159F74FBF3B
:1037F0008091E800877F8093E8006AE270E0CE0164
:1038000001960E949E108091E8008B778093E800DB
:103810004FCFC096E7CF4091780350917903292F7D
:1038200033272330310509F448C080F521303105B4
:1038300009F4EFC02230310509F03ACF0BE310E074
:10384000E0E8EE2EE7E1FE2E8091E800877F80938E
:10385000E80080917A0390917B030817190708F418
:10386000C80140E0009709F0E9C04111E7C080912C
:10387000E80082FDC8CF80917203882321F2853051
:1038800011F28091E80083FFF2CFBDCF21323105E4
:1038900009F4B1C02232310509F00ACF41155105B2
:1038A00009F4C5C04130510509F002CF02E310E030
:1038B0003AE0E32E37E1F32EC7CF99278130910507
:1038C00009F45AC040F0029709F460C010E000E02B
:1038D000F12CE12C09C0EFEEF7E1E4910E2F10E09E
:1038E0007FEEE72E77E1F72E20917A0330917B036C
:1038F00080916C038F5F80936C03309371032093EE
:1039000070032230310509F04BC090916D039F5F29
:1039100090936D03833010F190916F03923038F0E3
:1039200040916E03411163C0891709F45EC0409154
:103930006D03853008F447C02F3F310509F04BC0B7
:10394000992309F44AC083E0423008F051C0411184
:1039500005C080916E03882309F447C00E94F719BF
:1039600090936A038093690381E080936803011553
:10397000110509F49DCE68CFEDEDF7E1E4910E2F2E
:1039800010E06DEDE62E67E1F62EAECFEDECF7E13F
:10399000E4910E2F10E05DECE52E57E1F52EA4CF5B
:1039A0002430310531F490916E039F5F90936E0344
:1039B000B1CF2F3F310509F0ADCF90916F039F5FDD
:1039C00090936F03A7CF843031F49111C0CF423070
:1039D00021F484E00DC09111BACF433009F0BECF7D
:1039E00080916E03813009F0B9CF81E001C082E09F
:1039F00080936B03B3CF4115510591F041305105D0
:103A000009F056CE09E010E04BEAE42E47E1F42E2F
:103A10001BCF02E110E02BEBE22E27E1F22E14CFB8
:103A200009E010E092E9E92E97E1F92E0DCF04E4C8
:103A300010E08CE3E82E87E1F82E06CF2091720388
:103A4000222309F4E0CE253009F4DDCE2091E800F0
:103A500023FDD9CE2091E80022FD09CF2091E80076
:103A600020FF00CF2091F3003091F200232732276E
:103A70002327009719F02830310558F041E028300D
:103A8000310509F040E02091E8002E772093E8000E
:103A9000E9CEF70144914093F100FFEFEF1AFF0ADE
:103AA00001972F5F3F4FE5CF803809F001CE80911D
:103AB000E800877F8093E800809173038093F10092
:103AC000ECCD8111F5CD10917603123008F0F0CDD8
:103AD0008091E800877F8093E800109373030E9431
:103AE000F20F1123F9F084E08093720342E061EC5D
:103AF00081E00E94111042E261EC82E00E9411100C
:103B0000809172038430A1F482E08093430160913C
:103B100040017091410180914201909143010E94C6
:103B2000031AC6CD8091E30087FDDDCF81E0DCCFB5
:103B300081E0EBCF1F920F920FB60F9211242F93BB
:103B40003F934F935F936F937F938F939F93AF9325
:103B5000BF93CF93EF93FF93C091E900CF70809113
:103B6000EC001092E9008091F000877F8093F000D4
:103B700078940E941F1A1092E9008091F0008860EA
:103B80008093F000C093E900FF91EF91CF91BF9136
:103B9000AF919F918F917F916F915F914F913F91E5
:103BA0002F910F900FBE0F901F9018951F920F929C
:103BB0000FB60F9211242F933F934F935F936F9300
:103BC0007F938F939F93AF93BF93CF93EF93FF9385
:103BD0008091E10082FF09C08091E20082FF05C070
:103BE0008091E1008B7F8093E1008091DA0080FF7B
:103BF00024C08091D80080FF20C08091DA008E7FA1
:103C00008093DA008091D90080FFD2C080E189BD25
:103C100082E189BD09B400FEFDCF81E0809372038B
:103C200080915D03811109C00E94A40F0E9443107E
:103C30008091E20084608093E2008091E10080FF47
:103C400024C08091E20080FF20C08091E2008E7F3E
:103C50008093E2008091E20080618093E200809195
:103C6000D80080628093D80019BC85E080937203ED
:103C700083E0809343016091400170914101809104
:103C80004201909143010E94031A8091E10084FF58
:103C900039C08091E20084FF35C080E189BD82E1B6
:103CA00089BD09B400FEFDCF8091D8008F7D80933F
:103CB000D8008091E1008F7E8093E1008091E20046
:103CC0008F7E8093E2008091E20081608093E20029
:103CD00080917303882309F471C084E08093720398
:103CE00080917203843009F471C081E080934301B4
:103CF0006091400170914101809142019091430196
:103D00000E94031A8091E10083FF40C08091E2008D
:103D100083FF3CC08091E100877F8093E10082E0D7
:103D200080937203109273038091E1008E7F8093E1
:103D3000E1008091E2008E7F8093E2008091E200BA
:103D400080618093E20042E060E080E00E94111018
:103D50008091F00088608093F000C1E0C09343013F
:103D60006091400170914101809142019091430125
:103D70000E94031AC0934201609140017091410179
:103D800080914201909143010E94031AFF91EF91AB
:103D9000CF91BF91AF919F918F917F916F915F91E3
:103DA0004F913F912F910F900FBE0F901F9018953C
:103DB00019BC1092720310925D033FCF8091E30013
:103DC00087FD02C081E08ACF83E088CF82E08ECF7A
:103DD000EF92FF920F931F93CF93DF93C42FD22FB5
:103DE000FC0185818823A9F0409347030E94F719BD
:103DF0009093460380934503C77081E001C0880F0C
:103E0000CA95EAF70E94DD16CDB7DEB7E6E00C945E
:103E1000133210914703141338C0E0904503F0901B
:103E200046030E94F7198E199F09883C910568F591
:103E3000C0E2CD0F1D17C1F080E2810F883048F439
:103E4000177081E0012E01C0880F0A94EAF70E94E2
:103E5000D616C83008F581E09D2F977001C0880FF5
:103E60009A95EAF70E94DD16802F0E941A17802F7C
:103E70000E94E716C83040F6D77081E001C0880F75
:103E8000DA95EAF70E94D616BFCFC77081E001C06D
:103E9000880FCA95EAF7F6CF802F0E941A17802F55
:103EA0000E94E716B1CFB0E0A0E0E9E5FFE10C9495
:103EB000F431FC012481222309F45BC07C0161E020
:103EC0000E946B15EC01F7012581FC01E851FC47CC
:103ED000222309F405C59A9581159F4458F5CE0112
:103EE0009927AC01445051094432510518F08B9781
:103EF0000E9788F4A0919402B0E0AA0FBB1FA756BA
:103F0000BD4F8D919C9111978F3F3FE7930719F01B
:103F100001968D939C93E730F10508F053C0ED5660
:103F2000F04E0C94DE32C41FCA1FA21FBE1FD01F4A
:103F3000D61FDC1FCE01CF3FD10599F290F290E061
:103F400080E0CFCF06E221EE41EE6AE17CE7C701D7
:103F50000E94E81E80913E03877059F0F701858129
:103F6000882339F08091110382FF03C082E00E9410
:103F7000E514CDB7DEB7E9E00C94103207E225EE88
:103F800045EE6BE17CE7E3CF06E221EE40EE68E12F
:103F90007CE7DDCF07E225EE44EE69E17CE7D7CF91
:103FA00006E221EE42EE6CE17CE7D1CF07E225EE9E
:103FB00046EE6DE17CE7CBCF08E221E045EE6EE115
:103FC0007CE7C5CF10924703CE019057839708F046
:103FD00097C484E090E00E94333290931103809361
:103FE0001003FE01E150F047E232F10508F026C06F
:103FF000E450F04E0C94DE325820CD2060202A2070
:104000002E2064203220682074203E20C6204220CA
:10401000782046207C20A4204A208020AB205020FD
:1040200086208E2036206C203A20702054208A2052
:104030009A20B420C42024205C20D4208091100336
:1040400081608093100395C08091110388608093F4
:1040500011038FC0809110038260F3CF8091100311
:104060008460EFCF809110038860EBCF80911103C3
:104070008160EDCF809111038260E9CF80911003C0
:104080008061DFCF809110038062DBCF80911003CD
:104090008064D7CF0E94C016809110038068D1CF72
:1040A000809110038860DCCF809111038260E0CFA3
:1040B000809110038E7FC5CF80911103877FC7CF7A
:1040C000809110038D7FBDCF809110038B7FB9CF7E
:1040D00080911003877FB5CF809111038E7FB7CF7A
:1040E000809111038D7FB3CF809110038F7EA9CF74
:1040F000809110038F7DA5CF809110038F7BA1CF7E
:104100000E94C016809110038F779BCF809110037F
:10411000877FDCCF809111038D7FE0CF80911003EA
:1041200082FB992790F921E0922790FB82F990FB7E
:1041300083F987CF80911103982F909591708E7F8E
:10414000892B90FB81F983CF90911003892F8F7B6E
:1041500096FF806476CF0E94C01690911003892F3D
:1041600097FB87F980586DCF61E08EE090E00E9468
:104170004932609110037091110384E090E00E9435
:1041800067320E94C016E6CE60E0EFCF9091100338
:10419000892F8F7E94FF806154CF90911003892FD7
:1041A0008E7F90FF81604DCF90911103892F877F83
:1041B00093FF88604CCF89E2E0E0F2E026E032E055
:1041C0009281891301C0128231962E173F07C1F7E1
:1041D000ABC381E00E94FC1443E062E081E00E94F6
:1041E000A714B8CE81E00E94D314F6CF222309F49D
:1041F000CCC382E0EFCF0E94FF1060933F03709327
:10420000400380934103909342038091E302909195
:10421000E4022091430330914403AC014095509552
:1042200042235323452B31F0282339233093440371
:1042300020934303F7014581CB37FCE7DF0749F5BE
:10424000442309F487CE292F332721153105F9F4AA
:104250009C0180E0A90174E0569547957A95E1F7B5
:104260004115510511F08C5F9A01A90156954795AA
:10427000569547954115510511F08E5F9A01369577
:104280002795232B09F08F5F0E940C1563CE88E0E1
:10429000E1CFC11522E5D207F0F4C11530E5D3070F
:1042A000E8F5C11580E4D80708F055C0442309F4A7
:1042B0006BC0C330FCE7DF0709F4EBC008F0BFC0F8
:1042C000C1153CE7D30709F4C8C0C130DC4709F089
:1042D0005BC00E941018C03292E5D90738F3C03491
:1042E000E2E5DE0728F0CE01805C92458097F0F68B
:1042F0008C2F8F7121E030E0082E02C0220F331F77
:104300000A94E2F760914303709144032623372314
:10431000232B61F2442309F41DCEB6CFCE0125E054
:10432000969587952A95E1F78F7021E030E0082E69
:1043300002C0220F331F0A94E2F760914303709189
:10434000440326233723232B09F4B0CF41119CCFFC
:1043500010923D02E9C2F7018681807F09F0A6CF65
:10436000411112C02D2F2F7081E090E002C0880F04
:10437000991F2A95E2F72091430330914403822349
:104380009323892B09F0E6CDF7018581C081D18186
:10439000882309F491C0CE010E94EF13182F682FD3
:1043A000CE010E946314BE01812F0E94A9120E94B7
:1043B000C712D82FC92FB82EF701D580C680C29456
:1043C0008FE0C82280913E03877001F10D2DDD2022
:1043D000F1F0892F807F803469F080E28D0F883082
:1043E000A8F0892F807E803229F4F1E0FD1770F467
:1043F000CC2061F08091110382FF08C082E00E940E
:10440000E51480913E03877001E009F000E01C2F65
:1044100012951F701C3008F0AFC0E12FF0E0ED5E88
:10442000FD4D0C94DE3261226122972297222A23CD
:10443000BC22BC22BC224A23D723E823E823CB3565
:104440009CE7D907B9F1CC35ECE7DE0749F1CA356D
:10445000DC4709F099CF81E02AC00E94C0162FEFF7
:1044600034E38CE0215030408040E1F700C0000090
:1044700087E797E7909301088093000888E19AE026
:104480000FB6F894A895809360000FBE90936000DB
:10449000FFCF6FEF7FEF90E080E00E94673219CF8F
:1044A0008091110382FB882780F991E089270E947F
:1044B00076186ACF80E0FBCFCE010E943014182F0F
:1044C00072CF1C2F1F70C07F11F01295107F8D2F9F
:1044D000DD20B9F0112369F090E29D0F983010F0C3
:1044E000D11109C080913D02182B10933D020E940A
:1044F00086168D2F3FC080913402182B1093340202
:10450000F6CF0E94E7161123B9F1D05ED83010F033
:10451000B11004C0812F0E94DD1306C01095809158
:1045200034021823109334020E94861625C01C2FD3
:104530001F70C07FC03211F01295107FBB2051F068
:1045400021E0B21609F466C0DD2009F472C0CC2067
:10455000B1F1CFCF8091110382FD2DC0DD2029F173
:10456000112339F080913D02182B10933D020E94D7
:10457000861680E00E941A17002309F4C1C08091BA
:104580003E0380FDBDC0F701158286958695869510
:104590000E94FC14C7010E94531F80913E03869520
:1045A000869586950E94D314ABC080E00E94E716E2
:1045B000112311F3AFCFDD2099F0C11004C0812F7A
:1045C0000E94DD16D9CF31E0C312D6CF80913302DD
:1045D000912F9823191781F2182B10933302CCCF07
:1045E000C110CACF812F0E94D61690913302812F1D
:1045F000892329F0812F809589238093330280912C
:104600000B02912F982309F4B7CF1095182310931C
:104610000B02B2CFDD2029F085E08C1508F4ACCF79
:10462000CECF94E09C1508F4A7CF812F0E94D61618
:10463000A3CFCC20D1F3D93349F4EFEFF7EE23E049
:10464000E150F0402040E1F700C000008D2F0E94B3
:10465000E71692CF8C2F86958695837039F081303E
:1046600079F01850143008F087CF48C08D2F9C2F58
:104670009370D11002C080E090E00E944D117CCF79
:104680008D2F9C2F9370D11002C080E090E00E948B
:10469000281172CF8C2F837009F045C0D1102EC025
:1046A0004D2F429546954770440F440F2D2F2F7084
:1046B00030E0042E02C0220F331F0A94E2F790E08C
:1046C00080E0D4FF09C08FE090E002C0880F991FFE
:1046D0004A95E2F780959095C695C695C370C2300D
:1046E000C9F0A8F44091770250917802C13069F086
:1046F000822B932B842395230E9444150E947211D0
:1047000060E0C7010E946B1534CC242B352B822B23
:10471000932BF2CF822B932B20917702309178024A
:1047200082279327E9CF8695DD2011F08C2F8170A9
:10473000882321F34D2F429546954770440F440F2F
:104740002D2F2F7030E0042E02C0220F331F0A9449
:10475000E2F790E080E0D4FF09C08FE090E002C073
:10476000880F991F4A95E2F780959095C695C69552
:10477000C370C23099F078F44091E3025091E402A2
:10478000C13039F0822B932B842395230E949914F6
:10479000B5CF242B352B822B932BF8CF822B932B49
:1047A0002091E3023091E40282279327EFCFCF706C
:1047B000DD2039F08C2F0E94FC148D2F0E94DD1615
:1047C0009DCF8D2F0E94D6168C2F0E94D31496CF8A
:1047D0008D2F32EFB31609F43FC03B1580F090EFF8
:1047E000B916F1F0E1EFBE16A1F0DD2009F464C0C6
:1047F000CC2009F45EC08D2F0E941A1732CFF3EF40
:10480000BF1689F124EFB212F0CF9091110392FDFF
:1048100037C08C2F8F71DD2019F10E94FC1421CF3D
:10482000DD20A9F034E03C1508F41BCFCF7181E006
:1048300090E002C0880F991FCA95E2F72091E30229
:104840003091E402822793270E9499140ACF85E0D1
:104850008C1508F406CFEACF8C2F8F71DD20E9F29A
:104860000E94D314FECE90E080E0DD2069F3CF718A
:1048700081E090E002C0880F991FCA95E2F7E4CF6B
:10488000DD2061F08C2F8F7192FFC7CF98E0899F58
:1048900090011124236020933E03BFCF81E00E944A
:1048A000E514E1E0EC1508F0DCCE82E00E94E514AE
:1048B000D8CE8C2F8F71B1CFCC2079F0893349F4C9
:1048C000FFEF27EE33E0F15020403040E1F700C029
:1048D00000008D2F0E94E716C4CE8C2F8F71C0CFA1
:1048E000E730F10508F41BCBC6318CE7D80709F097
:1048F00043C080910A02882309F45DCC85E35CCC37
:10490000C631FCE7DF0799F480913D028A7A91E095
:1049100009F490E090930A0265E3811101C069E215
:1049200080E092E00E940E110E94861613CBC737DA
:104930003CE7D30709F44DCCC8378CE7D80709F416
:1049400055CCCE01805E9245809708F054CC211161
:1049500052CCCF7181E090E0FC0102C0EE0FFF1F4E
:10496000CA95E2F7EF016E2F83E090E00E94493292
:10497000CE010E944415EECAC7379CE7D90709F457
:1049800031CCC837ECE7DE07E1F682E02CCCB0E0B2
:10499000A0E0EDECF4E20C94F63180913202807FDD
:1049A00009F050C080913102882309F44BC0E09196
:1049B000B50387E0D82E80917C038E1709F442C09E
:1049C0000E2F10E0ED9DF0011124E358FC4F84817F
:1049D0008823E9F1D09EE001D19ED00D1124FE0183
:1049E000E358FC4F918180912D02981330C0908143
:1049F00080912C0298132BC08581811128C0E28000
:104A0000F38080912E0290912F02E81AF90A60E05B
:104A10008CE292E00E946B1588ECE816F104B8F481
:104A2000809132028F70806180933202CD57DC4FCB
:104A300088818F70806188838CE292E00E94531F8E
:104A40000E94E513CDB7DEB7E7E00C941232F8010F
:104A50003196E770B0CFA4E1B0E0E1E3F5E20C9469
:104A6000EE318C0186E0F801DE011F9601900D9277
:104A70008A95E1F7F801F480E5808CE2882E82E0E7
:104A8000982E8091300281112AC0F11003C0FF24BA
:104A9000F3941CC0EE20F9F0C8010E944915F82ECD
:104AA0008823C9F087E0F801ACE2B2E001900D92F2
:104AB0008A95E1F780913002813031F480912C02A7
:104AC00090912D020E9423140E94C7248F2D64967A
:104AD000EFE00C940A32C8010E94531FD8CFC28065
:104AE000D380B090310280912E0290912F02360136
:104AF000681A790ABB2009F4F7C05080A18060E0F1
:104B00008CE292E00E946B15F8EC6F16710408F0CD
:104B1000A4C0FF2009F4BBCF80913202382F307F30
:104B200020912D02F8019181311157C0FE2C2913DB
:104B300014C020912C02908129130FC0E11046C0AF
:104B40008F708061809332028CE292E00E94531F4A
:104B500080913202F8018683B9CFE11037C06A2D07
:104B6000852D0E946E0F6A2D852D0E946E0FE82EF6
:104B70008111ACCF5F86A88A8F8598890E94231403
:104B8000292F22952F70243058F49F70223080F006
:104B9000992391F0F8019681907F71F4FE2C96CFC5
:104BA0002A50223068F0C8010E94531FEB2CF6CF28
:104BB000992311F0882391F3805E8830A0F7EECF1F
:104BC000803F60F3815F833070F7E8CF80913202DD
:104BD000816080933202F12C79CF291315C0209186
:104BE0002C029081291310C0E1100EC08683C801E9
:104BF0000E94531F87E0F801ACE2B2E001900D92F1
:104C00008A95E1F7FB2C62CFC8010E9449158823E1
:104C100009F461CFEE2009F45ECF80913202803238
:104C200088F020912C0230912D0239872887DB866D
:104C3000CA86909130029C871D868E87CE01089689
:104C40000E94531F87E0F801ACE2B2E001900D92A0
:104C50008A95E1F70E94C7241ACF80913202982FDB
:104C6000907F51F48CE292E00E94531F87E0F401A0
:104C700011928A95E9F7AFCFFF2009F408CF209170
:104C80002D02F8019181291311C020912C029081ED
:104C900029130CC0E1100AC08683C8010E94531F6B
:104CA00087E0F40111928A95E9F7ACCFC8010E9420
:104CB0004915882309F40FCFEE2009F40CCF809119
:104CC0003202803208F4BECF20912C0230912D02A6
:104CD0003A832983DC82CB82909130029D831E82AD
:104CE0008F83CE010196ACCF60E08CE292E00E940F
:104CF0006B15F8EC6F16710408F0B8CFFF2009F4BB
:104D0000C6CEFE2CEE2009F4E6CE90912D02F801DD
:104D1000818198132DC090912C028081981328C016
:104D200080912E0290912F02C81AD90AF8ECCF1662
:104D3000D104A8F49091320290FD11C0907F79F0D7
:104D400080913202F8018683903F31F0982F907F56
:104D5000905F8F70892B8683C8010E94531F87E064
:104D6000F801ACE2B2E001900D928A95E1F7AECE87
:104D7000C8010E944915811165CF8091320281607E
:104D800080933202C8010E94531FA0CEABE1B0E075
:104D9000ECECF6E20C94FA314E8B5F8B688F798FD6
:104DA0008A8F9B8F9111109234021D8A86E0FE013A
:104DB0007696DE011F9601900D928A95E1F78B8918
:104DC000882351F061E0CE010F960E946B1561E0DF
:104DD000CE010F960E946B1587E0FE013F96DE0123
:104DE000189601900D928A95E1F7CE0108960E94DF
:104DF0002B2581112AC087E0FE013896DE0111962D
:104E000001900D928A95E1F78C858823F1F020912D
:104E10007C0330E0C9010196877099274091B50362
:104E20004817190659F197E0929FD001939FB00D52
:104E30001124A358BC4FFE01319601900D929A9512
:104E4000E1F780937C030E94E51317E08091B5039E
:104E500090917C038917F9F0819FC0011124835838
:104E60009C4F0E942B258823B1F08091B50390E0E0
:104E70000196877099278093B503E8CF0E94C016EA
:104E800010927C031092B50387E0ECE2F2E0DF01C0
:104E90001D928A95E9F76B96E3E00C941632AFE029
:104EA000B0E0E5E5F7E20C94EE318E010F5F1F4FA5
:104EB0008AE0F80111928A95E9F78BEEE82E81E0FD
:104EC000F82E680190EF692E91E0792EAA24A39420
:104ED000B12C36EF832E31E0932EF70181917F01C3
:104EE0008F3F09F440C0F894E82FE295EF70F0E0AE
:104EF00021A18F70A50102C0440F551F8A95E2F7CA
:104F0000CA01922F982B91A392A18095892382A305
:104F1000789400C0E0EFF1E0512C31E021912F3F77
:104F200009F492C0A22FA295AF70B0E090968C9138
:104F300090E02F7002C0959587952A95E2F780FD45
:104F400083C0832F582A330F8E169F0639F7F70137
:104F5000319780818F3F11F00E94851150EA5A9558
:104F6000F1F7F6015082FFEFCF1ADF0A6E147F04CB
:104F700009F0B3CF4AE050E0B8018BE692E00E941E
:104F80000633009741F02AE0F801ABE6B2E0019069
:104F90000D922A95E1F70091760210E007581D4F17
:104FA000892B09F453C081E0809342020E94F719D3
:104FB0009093410280934002D12CC0904803CC20B2
:104FC00009F4A1C07E012BE0E20EF11C85E0F7019F
:104FD00011928A95E9F7809166028A3008F05CC0E8
:104FE00042E359E1B701C8010E94DD17882309F4A3
:104FF00077C04DE858E1B701C8010E94DD1788234A
:1050000009F46EC047EE58E1B701C8010E94DD17F0
:10501000882309F465C0109266028091750290E0C1
:1050200045E050E0B70187589D4F0E94063321E0CC
:1050300020934902892B09F046C0C12C8C2D8D2963
:105040002F96EFE00C940A3280E07CCFD0904202A1
:10505000DD2009F4B1CFE0904002F09041020E94BF
:10506000F7198E199F09059708F4A6CF45E050E07F
:105070006BE672E0C8010E940633892B59F085E087
:10508000EBE6F2E0D80101900D928A95E1F71092DB
:10509000420293CFD12CFBCFA0904302B0904402A8
:1050A0000E94F7198A199B09843F914008F098CF14
:1050B00080914902882309F285E0F70111928A95CF
:1050C000E9F710924902A0917502B0E0A758BD4FD0
:1050D00085E0FE013B9601900D928A95E1F7AECFF7
:1050E000809166028F3F19F08F5F809366028091F6
:1050F00066028A3008F491CF0E94F7199093440217
:1051000080934302D5CF85E0F801A8E5B2E0019095
:105110000D928A95E1F788E592E00E948D0F8093C9
:10512000570280905D0290905E02A0905F02B09066
:1051300060028091450290914602A0914702B09191
:10514000480288169906AA06BB06B1F0809245026D
:1051500090924602A0924702B09248020E94FF102D
:10516000861A970AA80AB90A809267029092680282
:10517000A0926902B0926A02809161028093050355
:105180005DCFA6E0B0E0E7ECF8E20C94F9310E94C4
:10519000F7198C0180913E0290913F028017910790
:1051A00081F019821A820E94F719682F49815A8169
:1051B000792F80E090E00E94C62610933F02009372
:1051C0003E022696E4E00C9415321F920F920FB621
:1051D0000F9211248F939F93AF93BF9380915803A5
:1051E000811113C08091590390915A03A0915B03E0
:1051F000B0915C034196A11DB11D8093590390931A
:105200005A03A0935B03B0935C03BF91AF919F914E
:105210008F910F900FBE0F901F901895CF93DF9333
:10522000EC010E94F7198C1B9D0BDF91CF91089523
:10523000ADE0B0E0EEE1F9E20C94EB3185B78068C7
:1052400085BF85B7806885BF84B7877F84BF0FB669
:10525000F894A89580916000886180936000109216
:1052600060000FBE80E890E00FB6F8948093610074
:10527000909361000FBE81E08093430160914001F3
:105280007091410180914201909143010E94031A63
:1052900083E891E19093FF018093FE010E94A40FA7
:1052A0000E9443108091E20084608093E200789431
:1052B00080917203882399F01091E9001F7080910A
:1052C000EC0080FFA2C180E8182B1092E9008091C9
:1052D000E80083FD0E941F1A1F701093E90082E00E
:1052E00084BD93E095BD9AEF97BD80936E001092B8
:1052F0006702109268021092690210926A0280910D
:10530000D80080618093D8002AE12A95F1F700C087
:105310008091D900182F117080FD04C00E94A40F45
:1053200010927203109348031093490310932001C5
:1053300011110E947430809120018091200190E031
:10534000811101C095E09093760285E0891B8093DE
:1053500075020BEE11E0D8018D918D018F3F11F098
:105360000E948511B1E0003F1B07A9F700EF11E093
:10537000F80181918F018F3F11F00E948511F1E0BA
:10538000063F1F07A9F78AE0E9E7F2E0DF01282FCF
:105390001D922A95E9F7EBE6F2E0DF011D928A956E
:1053A000E9F790E080E00E943332853E9E4F09F499
:1053B00061C065EE7EEF90E080E00E94673260E0C1
:1053C00082E090E00E94493281E090E09093780280
:1053D0008093770261E083E090E00E94493260E0D0
:1053E00074E184E090E00E94673260E086E090E043
:1053F0000E94493260E087E090E00E94493240E03C
:1054000050E0BA0188E090E00E945B3260E083E205
:1054100090E00E94493260E08CE090E00E944932C6
:1054200060E08DE090E00E94493219821A821B826E
:105430001C821D821E821F82188648E050E067E1B0
:1054400070E0CE0101960E94393240E050E0BA018E
:105450008FE190E00E945B3240E050E0BA018FE0C3
:1054600090E00E945B3240E050E0BA0183E190E0BE
:105470000E945B3282E090E00E942B328093830294
:1054800084E090E00E9433329093110380931003E4
:1054900083E090E00E942B3290E00E9444158091BE
:1054A00048038111B4C082E08093320380E8809386
:1054B000BB030E94122F6BE070E08BEF96E10E941D
:1054C00026188823E9F18091320365E070E081FDC0
:1054D000A0C086EF96E10E942618882389F16DE02E
:1054E00070E084EE96E10E942618882349F10E941C
:1054F000FF10605A75418F4F9F4F60933803709330
:10550000390380933A0390933B03E4ECF3E080E0AB
:1055100092E0DF019C011D9221503040E1F7F093B1
:10552000C505E093C4058FEF9FEF9093C30380936D
:10553000C20381E080933D0380933C0310923303C8
:1055400080914803811102C00E94773081E291E08E
:1055500090934D0380934C0344E6842E912CA12C10
:10556000B12C8091720310E4853009F489C00E9447
:105570004F2704E812E039E7E32E32E0F32ED7019B
:10558000F80191918D912EE832E02E173F0709F432
:1055900081C09817B1F340904803D12CD701CD902A
:1055A0007D01F80151908F015C1431F1712C66245A
:1055B00063945C24852D8621B9F04420A9F079827A
:1055C000DA820E94F7199C838B83F1E0FD8391E0DE
:1055D0008C2D862109F490E09E8349815A816B814C
:1055E0007C818D810E94C6267394660C26E072121F
:1055F000E1CFF8013197C082D3943AE0D312CECFF5
:105600000E949C1141E049874AC080E05DCE80E065
:105610004BCF81EF96E15FCF80917203843029F107
:105620000E9433181092580348E150E00FB6F894E6
:10563000A895409360000FBE1093600083B7817FF0
:10564000846083BF83B7816083BF7894889583B774
:105650008E7F83BF0FB6F894A89580916000886113
:1056600080936000109260000FBE0E944F27E9E710
:10567000F2E0819181116EC352E0E338F507C9F77A
:1056800080917203853009F4C7CF0E94C0160E9432
:1056900072116DCF98137FCF0E94C1281986009197
:1056A0004803002309F4EEC0C0909902D0909A02FA
:1056B0000D2C000CEE08FF0810912B01212F30E07B
:1056C000E9E9F2E081E090E03296281739070CF022
:1056D0001DC1409095025090960260909702709084
:1056E00098020E94FF109B01AC012419350946095C
:1056F000570929013A0139EC431651046104710438
:1057000014F18091940290E0019669E170E00E94AA
:10571000893280939402880F991FFC01E756FD4F50
:1057200011821082812F183108F087E18F5F8093FA
:105730002B010E94FF106093950270939602809354
:1057400097029093980242E0C416D104E104F10458
:105750005CF1A0E6BAEEA70196010E94E4326B016B
:105760007C0158EC159F90011124032E000C440B72
:10577000550B240D351D461D571DA5E0B0E00E94B8
:10578000E4329B01AC01C701B6010E949D32213F6A
:1057900031054105510524F020EF30E040E050E0B4
:1057A00029013A0177FE03C0412C512C3201C090EF
:1057B0009002D0909102E0909202F09093020E94A9
:1057C000FF109B01AC012C193D094E095F096901CD
:1057D0007A0135E6C316D104E104F10484F00E9495
:1057E000FF106093900270939102809392029093C5
:1057F00093028091050380938F0240928E02109154
:105800008F02A0918E02A11BBB0BA70196010E94E3
:10581000EF32A50194010E94BF32120F10930503CD
:10582000C0904303D0904403C114D10459F1409077
:105830003F035090400360904103709042030E94E8
:10584000FF10641975098609970961367A4E81053A
:105850009105C0F0C094D0948091E3029091E4024D
:105860008C219D210E9499141092440310924303AD
:105870000E94FF1060933F037093400380934103A5
:105880009093420380913D03882309F40AC2C0909B
:105890003403D09035030E94F7198C199D09C297E3
:1058A00008F486C00E94F71990933503809334035F
:1058B00084EC93E09093C5058093C405002309F41C
:1058C000B2C08091E3029091E4028430910509F422
:1058D0009DC040F50097A1F163E571E0823091052C
:1058E00089F19F938F9381E991E09F938F931F920A
:1058F00088E18F938BEC92E09F938F930E942333E8
:105900000FB6F894DEBF0FBECDBF20C040815181DD
:10591000052E000C660B770BC40ED51EE61EF71E77
:105920000196D2CE8031910509F473C0863191057C
:1059300009F46FC088309105A1F661E771E002C0FB
:1059400065E471E08BEC92E00E941C338BEC92E0FA
:105950000E946F1781E00E9454168091110380FF0E
:105960005BC08FE291E09F938F938CE291E09F93D5
:105970008F9381EA91E09F938F931F9288E18F9399
:1059800085EE92E09F938F930E9423330FB6F89495
:10599000DEBF0FBECDBF85EE92E00E946F1781E0A3
:1059A0000E945416809105030E94080F0E946F17F1
:1059B0008091C2039091C303892B09F459C180914E
:1059C0003D03882309F454C180913303811150C1F0
:1059D0000E944E182091C2033091C3032115310556
:1059E00009F446C180E041E050E0082F10E02A01B0
:1059F000082E02C0440C551C0A94E2F7B20162233F
:105A00007323672B09F097C08F5FEFCF62E671E0D9
:105A100099CF63E871E096CF85E391E09F938F93F0
:105A200082E391E0A4CF80910503882309F44CC060
:105A30000E944E18409001035090020360900303AF
:105A4000709004030E94FF10641975098609970974
:105A5000693C71058105910560F00E94FF1060931B
:105A600001037093020380930303909304030E9445
:105A700096150E94FF106093FD027093FE028093C2
:105A8000FF029093000384EC93E09093C50580930C
:105A9000C405809105031F928F9387EA91E09F933D
:105AA0008F9386E093E09F938F930E94533380916E
:105AB00005030E94080F0E946F170F900F900F9020
:105AC0000F900F900F9074CF4090FD025090FE0207
:105AD0006090FF02709000030E94FF106419750926
