:100000000C947A0C0C94970C0C94970C0C946A3109
:100010000C94970C0C94970C0C94970C0C94970CD4
:100020000C94970C0C94970C0C94801D0C94441D0C
:100030000C9483290C94970C0C94970C0C94970CAB
:100040000C94970C0C94970C0C94970C0C94970CA4
:100050000C94970C0C947B190C94970C0C94970CA3
:100060000C94970C0C94970C0C94970C0C94970C84
:100070000C94970C0C94970C0C94970C0C94970C74
:100080000C94970C0C94970C0C94970C0C94970C64
:100090000C94970C0C94970C0C94970C0C94970C54
:1000A0000C94970C0C94970C0C94970C0000000087
:1000B0000000000000000000000000000000000040
:1000C0000000000000000000000000000000000030
:1000D0000000000000000000000000000000000020
:1000E0000000000000000000000000000000808010
:1000F00080404020201008040204081010202040F6
:1001000040808000000000000000000000000000AF
:1001100000000000000000000000000000000000DF
:1001200000000000000000000000000000000000CF
:1001300000000000000000000000000000000000BF
:1001400000000000000000000000000000000000AF
:100150000000000000000000000000000000003F60
:10016000C1010102020404040402020101010000B1
:10017000000000008000004080804000003030001F
:10018000000000010264180412C2CA2488F08080B2
:10019000404040402020202010101010080808087F
:1001A0000404040402020202010101010000000033
:1001B000000000000000000000000000000000003F
:1001C000000000000000000000000000000000002F
:1001D0000000000000000000000000000000E01827
:1001E0000601000000000000000000000080838382
:1001F000404040402021212010101010080808081D
:1002000004040404020202020101010100000000D2
:1002100000000000000000000000000000000000DE
:1002200000000000000000000000000000000000CE
:1002300000000000000000000000000000000000BE
:1002400000000000000000000000000080808080AE
:10025000404040402020202010101010080F0808B7
:1002600004040404020408101020204040414224E9
:1002700098C088888C9C1C1E0E06000000000000A0
:10028000000000000000000000000000000000006E
:10029000000000000000000000000000000000005E
:1002A000000000000000000000000000000000004E
:1002B000000000000000000000000000000000003E
:1002C000000000000000000000000000000000002E
:1002D000000000000000000000000000000000001E
:1002E000000000000000000000000000000000000E
:1002F00000000000000000000000000000000000FE
:1003000000000000000000000000000000000000ED
:1003100000000000000000000000000000000000DD
:1003200000000000000000000000000000000000CD
:1003300000000000000000000000000000000000BD
:1003400000000000000000000000000000000000AD
:10035000000000000000000000000000000000009D
:10036000000000000000000000008080804040206D
:100370002010080402040810102020404080800053
:10038000000000000000000000000000000000006D
:10039000000000000000000000000000000000005D
:1003A000000000000000000000000000000000004D
:1003B000000000000000000000000000000000003D
:1003C000000000000000000000000000000000002D
:1003D00000000000000000000000003FC101010219
:1003E0000204844444428201010100000000000034
:1003F000800000408080400000303000000000019C
:100400000204040808102040808080804040404062
:1004100020202020101010100808080804040404EC
:1004200002020202010101010000000000000000C0
:1004300000000000000000000000000000000000BC
:1004400000000000000000000000000000000000AC
:1004500000000000000000000000E018060100009D
:100460000C03000218190005FE80838340404040C1
:10047000202121201010101008080808040404048A
:100480000408304080800000018698600000000071
:10049000000000000000000000000000000000005C
:1004A000000000000000000000000000000000004C
:1004B000000000000000000000000000000000003C
:1004C000000000000000000080808080404040402C
:1004D0002020202010101010080F08080404040425
:1004E0000202020201010101000000000000000000
:1004F0000000000000000000000000060F0F0703CE
:100500000361F0F8FC600101013C78F8F070000034
:1005100000000000000000000000000000000000DB
:1005200000000000000000000000000000000000CB
:1005300000000000000000000000000000000000BB
:1005400000000000000000000000000000000000AB
:10055000000000000000000000000000000000009B
:10056000000000000000000000000000000000008B
:10057000000000000000000000000000000000007B
:10058000000000000000000000000000000000006B
:10059000000000000000000000000000000000005B
:1005A000000000000000000000000000000000004B
:1005B000000000000000000000000000000000003B
:1005C000000000000000000000000000000000002B
:1005D000000000000000000000000000000000001B
:1005E00000000000000080808040402020100804AF
:1005F000020408101020204040808000000000000D
:1006000000000000000000000000000000000000EA
:1006100000000000000000000000000000000000DA
:1006200000000000000000000000000000000000CA
:1006300000000000000000000000000000000000BA
:1006400000000000000000000000000000000000AA
:10065000000000000000003FC101010202048444C8
:1006600044428201010100000000000080000040BF
:100670008080400000303000000000010264180457
:1006800012C2CA2488F080804040404020202020B0
:1006900010101010080808080404040402020202E2
:1006A0000101010100000000000000000000000046
:1006B000000000000000000000000000000000003A
:1006C000000000000000000000000000000000002A
:1006D000000000000000E018060100000C0300020A
:1006E00018190005FE8083834040404020212120CE
:1006F0001010101008080808040404040202020282
:1007000001010101000000000000000000000000E5
:1007100000000000000000000000000000000000D9
:1007200000000000000000000000000000000000C9
:1007300000000000000000000000000000000000B9
:100740000000000080808080404040402020202029
:1007500010101010080F080804040404020202021A
:100760000101010100000000000000000000000085
:100770000000000000000000000000000000000079
:100780000000000000000000000000000000000069
:100790000000000000000000000000000000000059
:1007A0000000000000000000000000000000000049
:1007B0000000000000000000000000000000000039
:1007C0000000000000000000000000000000000029
:1007D0000000000000000000000000000000000019
:1007E0000000000000000000000000000000000009
:1007F00000000000000000000000000000000000F9
:1008000000000000000000000000000000000000E8
:1008100000000000000000000000000000000000D8
:1008200000000000000000000000000000000000C8
:1008300000000000000000000000000000000000B8
:1008400000000000000000000000000000000000A8
:100850000000000000000000000000000000008018
:10086000804040402020202020180402010204087B
:1008700010202040408080000000000000000000A8
:100880000000000000000000000000000000000068
:100890000000000000000000000000000000000058
:1008A0000000000000000000000000000000000048
:1008B0000000000000000000000000000000000038
:1008C0000000000000000000000000000000000028
:1008D0000000003FC10101020204040404020201FD
:1008E0000000000000000000800000408080400008
:1008F000003030000000000102040408081020400D
:100900008080808040404040202020201010101027
:10091000080808080404040402020202010101019B
:1009200000000000000000000000000000000000C7
:1009300000000000000000000000000000000000B7
:1009400000000000000000000000000000000000A7
:100950000000E01806010000000000000000000098
:10096000008083834040404020212120101010103F
:1009700008080808040404040408304080800000CB
:1009800001869860000000000000000000000000E8
:100990000000000000000000000000000000000057
:1009A0000000000000000000000000000000000047
:1009B0000000000000000000000000000000000037
:1009C0008080808040404040202020201010101067
:1009D000080F080804040404020408101020204032
:1009E0004041422418000000000000000000000008
:1009F00000000000000000000000000000000101F5
:100A000001000000000000000000000000000000E5
:100A100000000000000000000000000000000000D6
:100A200000000000000000000000000000000000C6
:100A300000000000000000000000000000000000B6
:100A400000000000000000000000000000000000A6
:100A50000000000000000000000000000000000096
:100A60000000000000000000000000000000000086
:100A70000000000000000000000000000000000076
:100A80000000000000000000000000000000000066
:100A90000000000000000000000000000000000056
:100AA0000000000000000000000000000000000046
:100AB0000000000000000000000000000000000036
:100AC0000000000000000000000000000000000026
:100AD0000000000000000000000000000000808016
:100AE0004040402010080402010204081020408009
:100AF0008000000000000000000000000000000076
:100B000000000000000000000000000000000000E5
:100B100000000000000000000000000000000000D5
:100B200000000000000000000000000000000000C5
:100B300000000000000000000000000000000000B5
:100B40000000000000000000000000000000003F66
:100B5000C1010102020404040402020101010000B7
:100B600000000000000000800000800000606000C5
:100B700000010204040808101020204080808080BA
:100B80004040404020202020101010100808080885
:100B90000404040402020202010101010000000039
:100BA0000000000000000000000000000000000045
:100BB0000000000000000000000000000000000035
:100BC0000000000000000000000000000000C03035
:100BD0000C0300000000000000000000008086867A
:100BE000404040402122222011111010080808081E
:100BF00004040404040830408080000001869860EA
:100C000000000000000000000000000000000000E4
:100C100000000000000000000000000000000000D4
:100C200000000000000000000000000000000000C4
:100C300000000000000000000000000080808080B4
:100C4000404040402020202010101010080F0808BD
:100C500004040404020408101020204040414224EF
:100C6000180000000000000000000000000000006C
:100C70000000000000000000000001010100000071
:100C80000000000000000000000000000000000064
:100C90000000000000000000000000000000000054
:100CA0000000000000000000000000000000000044
:100CB0000000000000000000000000000000000034
:100CC0000000000000000000000000000000000024
:100CD0000000000000000000000000000000000014
:100CE0000000000000000000000000000000000004
:100CF00000000000000000000000000000000000F4
:100D000000000000000000000000000000000000E3
:100D100000000000000000000000000000000000D3
:100D200000000000000000000000000000000000C3
:100D300000000000000000000000000000000000B3
:100D400000000000000000000000000000000000A3
:100D50000000000000000000000080808080404013
:100D600020100804020408102040808000000000C9
:100D70000000000000000000000000000000000073
:100D80000000000000000000000000000000000063
:100D90000000000000000000000000000000000053
:100DA0000000000000000000000000000000000043
:100DB0000000000000000000000000000000000033
:100DC00000000000000000000000007E820202041B
:100DD00004080808080404020101000000000000E3
:100DE000000000800000800000606000010102043B
:100DF000040808101020204080808080404040403F
:100E000020202020101010100808080804040404F2
:100E100002020202010101010000000000000000C6
:100E200000000000000000000000000000000000C2
:100E300000000000000000000000000000000000B2
:100E400000000000000000000000C0300C030000A3
:100E50000000000000000000008086864040404006
:100E6000212222201111101008080808040404048B
:100E70000408304080800000018698600000000077
:100E80000000000000000000000000000000000062
:100E90000000000000000000000000000000000052
:100EA0000000000000000000000000000000000042
:100EB0000000000000000000808080804040404032
:100EC0002020202010101010080F0808040404042B
:100ED0000204081010202040404142241800000065
:100EE0000000000000000000000000000000000002
:100EF00000000000000001010100000000000000EF
:100F000000000000000000000000000000000000E1
:100F100000000000000000000000000000000000D1
:100F200000000000000000000000000000000000C1
:100F300000000000000000000000000000000000B1
:100F400000000000000000000000000000000000A1
:100F50000000000000000000000000000000000091
:100F60000000000000000000000000000000000081
:100F70000000000000000000000000000000000071
:100F80000000000000000000000000000000000061
:100F9000000000005C007C005B005D004A001E0059
:100FA0001F00200021002200350014001A00080054
:100FB00015001700292104221628072409210A43B5
:100FC000E1001D001B000600190005000000520092
:100FD000510021522B4201574D00270026002500C9
:100FE000240023002D00130012000C0018001C0028
:100FF000340033320F380E340D310B002E00380020
:10100000370036001000110000004F00500022523F
:101010002C4100570000000000000000000000000C
:1010200000000000000000000000000000001E02A0
:101030001F02200221022202437E00000000000065
:101040000000000000000100010001002A004C0027
:101050000000000000000000000000000000407ED2
:10106000417E000000000000350227022602250212
:1010700024022302000030022F02000000000000C2
:1010800000000100010001000100AE0000000000AE
:10109000000000000000000000001E001F002000F3
:1010A00021002200000000000000000000000000FD
:1010B000427E00000000000000000000000001006F
:1010C000010001000100010000000000000000001C
:1010D0000000000000002700260025002400230057
:1010E000000000004F0052005100500000000000BE
:1010F00000000000000000000000010001000100ED
:101100002800A8000000000000000000000000000F
:101110000000000000000000000000000100E100ED
:10112000E300E200E0000100E10000000000000038
:1011300000000000000001000100010001000100AA
:10114000000000000000000000000000000000009F
:101150004D004B004E004A00000000004F005200BE
:1011600051005000000000000000000000000000DE
:10117000000001000100010001007B7C0000000074
:101180000000000000000000000000001C700000D3
:10119000000000000000000000000000000000004F
:1011A000000000000000000000000000000001003E
:1011B000010001000100000000000000000000002C
:1011C000000000000000000000000000000000001F
:1011D000000000000000000000000000000000000F
:1011E000000000001B700000000001000100010071
:1011F0000100000000DA0281FFD9F1DB20A4A62E55
:10120000AF00A0C0D30000A1C8D30000AED580A815
:101210001F408D14200000AF00AE05010980A10120
:10122000850319012AB700150126B700950175102D
:101230008100C0050C0901A101850419012AA00241
:10124000150126A002950175108100C0050109064F
:10125000A101050719E029E7150025019508750189
:1012600081029501750881010507190029FF150004
:1012700026FF009506750881000508190129051546
:10128000002501950575019102950175039101C035
:1012900009023B00020100A0FA0904000001030159
:1012A0000100092111010001224400070581030802
:1012B00000010904010001030000000921110100DF
:1012C0000122320007058203200001120100020002
:1012D000000008D8042DEB0001010200010E034CB0
:1012E0000069006C00790035003800000010036CC4
:1012F0000069006C00690075006D00730000000457
:101300000309040000000000003E5B4F5B3E003E0E
:101310006B4F6B3E001C3E7C3E1C00183C7E3C1814
:10132000001C577D571C001C5E7F5E1C0000183C93
:10133000180000FFE7C3E7FF00001824180000FFB3
:10134000E7DBE7FF0030483A060E00262979292618
:1013500000407F05050700407F05253F005A3CE718
:101360003C5A007F3E1C1C0800081C1C3E7F0014D9
:10137000227F2214005F5F005F5F0006097F017F0C
:1013800000006689956A0060606060600094A2FF5A
:10139000A2940008047E04080010207E201000089B
:1013A000082A1C0800081C2A0808001E101010102B
:1013B000000C1E0C1E0C0030383E383000060E3E6D
:1013C0000E060000000000000000005F00000000AA
:1013D0000700070000147F147F1400242A7F2A12BC
:1013E00000231308646200364956205000000807A5
:1013F000030000001C224100000041221C00002AC2
:101400001C7F1C2A0008083E08080000807030007D
:1014100000080808080800000060600000201008AC
:101420000402003E5149453E0000427F40000072E8
:1014300049494946002141494D33001814127F1093
:10144000002745454539003C4A49493100412111B1
:10145000090700364949493600464949291E000016
:101460000014000000004034000000000814224175
:10147000001414141414000041221408000201592D
:101480000906003E415D594E007C1211127C007F1E
:1014900049494936003E41414122007F4141413E98
:1014A000007F49494941007F09090901003E414146
:1014B0005173007F0808087F0000417F4100002031
:1014C00040413F01007F08142241007F40404040DE
:1014D000007F021C027F007F0408107F003E414114
:1014E000413E007F09090906003E4151215E007F0F
:1014F000091929460026494949320003017F0103A1
:10150000003F4040403F001F2040201F003F403828
:10151000403F00631408146300030478040300616F
:1015200059494D4300007F41414100020408102009
:1015300000004141417F000402010204004040409C
:101540004040000003070800002054547840007F0A
:101550002844443800384444442800384444287F10
:101560000038545454180000087E0902001824243E
:101570001C78007F080404780000447D40000020AF
:1015800040403D00007F102844000000417F4000A3
:10159000007C04780478007C080404780038444413
:1015A0004438007C1824241800182424187C007C5B
:1015B000080404080048545454240004043F4424FC
:1015C000003C4040207C001C2040201C003C40305F
:1015D000403C004428102844004C9090907C0044EB
:1015E00064544C44000008364100000000770000BD
:1015F000000041360800000201020402003C2623DC
:10160000263C000000000000808080800000000078
:101610000080E070180C1830E080000010F8901086
:1016200030783010B8FC3810000000000000F8FCE2
:10163000F8000000000000000000000000001C9CFA
:101640001C00000000F8FCF80000000000001CFC7A
:10165000F8C000000000000080E0F87C1C000000E2
:10166000F0FCFCFC1C1C1C1C1C1C1C1C00000000B6
:101670000000C0F0F8381C1C1C1C1C1C3CF8F0E0DE
:1016800000E0F0F0F0E0ECEEF7F37020007C7C7C02
:101690007E007E7E7E7F7F7F000080C0E07E5B4F8D
:1016A0005BFEC00000C000DCD7DEDEDED7DC00C0A1
:1016B000000000000000000000000000000000002A
:1016C00000000000000000000FBCE08181818383E6
:1016D00082870C183060C000001FFE90B9FFBB91DC
:1016E000983C1811133F1100000000000000FFFF9C
:1016F000FF00000000000000000000000000FFFFED
:10170000FF00000000FFFFFF0000000000000000DD
:10171000030F7FF8E080F0FC3F0F010000000000A5
:101720003F3F3F1C1C1C1C1C3C78F8F0E080000074
:101730000000C3E7FF7E3C3878787070F8FFDF87E1
:10174000000F1F3F7F7F7F7F7F3F1E0C001F1F1FEB
:101750003F003F3F3F7F7F7F00307B7F78302020FE
:1017600030787F3B0003000F7F0F0F0F7F0F0003C8
:101770000000000000000000000000000000000069
:10178000000000183C24666341C181808080808015
:101790008081C14162386C4CC681818080808080AC
:1017A00081C14362361C1800000000000000FFFFEA
:1017B000FFC0C0C0C0C0C0C0C0C0800000007FFF6C
:1017C0007F000000007FFFFFC080000000E0E0C05D
:1017D000C0C0E0F97F1F070000000000000000000B
:1017E00070F0E0E0C0C0C0C0E0F0F87F3F0F000044
:1017F000000F3F7FF9E0E0C0C0C0C0C0E0F97F3F0C
:101800001F000000000000000000000000000000B9
:1018100000000000000000000000000000000000C8
:1018200000000000000000000000000000000000B8
:1018300000000000000000000000000000000000A8
:101840000000000000000000000000000000000098
:101850000000000000000000000000000000000088
:10186000000000000000007E0F00D4FFFFFFC70053
:1018700000007800000000000000002A2B28000073
:10188000000000000000000000000000000029002F
:101890000000002C1E3420212224342627252E3639
:1018A0002D3738271E1F20212223242526333336A7
:1018B0002E37381F0405060708090A0B0C0D0E0FFA
:1018C000101112131415161718191A1B1C1D2F317D
:1018D00030232D350405060708090A0B0C0D0E0FE1
:1018E000101112131415161718191A1B1C1D2F315D
:1018F00030354C0011241FBECFEFDAE0DEBFCDBF84
:1019000012E0A0E0B1E0E6E0FDE602C005900D9235
:10191000A432B107D9F725E0A4E2B2E001C01D92DC
:10192000A63EB207E1F70E94B6290C9481360C94CA
:101930000000FF920F931F93CF93DF932091E40554
:101940003091E505245E3340A90144585D4F413094
:101950005240E8F040E052E0421B530B6091E2033A
:101960007091E303D901AC51BC4F420F531F821B4E
:10197000930BC1E0D0E02417350760F07093E303C8
:101980006093E203CDB7DEB7E5E00C94C4324CE7D8
:1019900052E0E4CFFC01E20FF31FF490FD91FF163B
:1019A000A1F08D0101501109F801F082F90115E053
:1019B000F695E7951A95E1F78E0102C0000F111F09
:1019C000EA95E2F7F801602B7F2B2F5F3F4FD3CFD3
:1019D0008F929F92AF92BF92CF92DF92EF92FF923F
:1019E00090916C01981305C09091DA03903309F43B
:1019F00048C080936C0190E39093DA03C82ED12CF9
:101A0000F12CE12C1092D903C701B6012AE030E095
:101A100040E050E00E944D33605D603331F0C1140E
:101A2000D104E104F10409F460E36093D8038AE08F
:101A3000882E912CA12CB12CC701B601A5019401CF
:101A40000E944D3360E3211531054105510539F000
:101A5000CA01B901A50194010E944D33605D6093F4
:101A6000D703C701B60124E630E040E050E00E9411
:101A70004D33211531054105510571F0205D20934D
:101A8000D60386ED93E0FF90EF90DF90CF90BF906C
:101A9000AF909F908F90089520E3F1CF482F209131
:101AA000D50390919C0357E0291302C080E008956C
:101AB00030E0529FF001539FF00D1124E356FC4F8C
:101AC0008181681306C08081481303C0858181111C
:101AD000EECF2F5F3F4F2770E7CFFC01AC014B5F8C
:101AE0005F4F8FEF91E32191822728E030E087FF5D
:101AF00009C0880F892721503109C9F7E417F50774
:101B000091F70895880FF7CFE8EDF0E080818E7FA0
:101B100080831092E2001092DA001092E100A0EEB1
:101B2000B0E08C9181608C9380818F77808319BC29
:101B3000A7EDB0E08C918E7F8C9380818F7E808327
:101B400010927D0308952091E4003091E50085E630
:101B50009091EC0090FF06C09091E80090FF06C0C5
:101B600080E008959091E80092FDFACF9091920361
:101B7000992391F0953091F09091EB0095FD10C074
:101B80004091E4005091E5002417350709F3815096
:101B90009A01F1F684E0089582E0089583E00895C3
:101BA00081E008958091940387FF13C08091E8003D
:101BB00082FF06C08091E8008B778093E80004C024
:101BC000809192038111F2CF08958091920388232E
:101BD000D9F38091E80080FFF8CF8091E8008E77FC
:101BE000ECCF982F9093E900242F762F50E089179F
:101BF00031F07091EC002091ED005091F00021FD4A
:101C000007C09F5F973071F78093E90081E00895E6
:101C10003091EB003E7F3093EB003091ED003D7F43
:101C20003093ED003091EB0031603093EB00709316
:101C3000EC002093ED005093F0002091EE0027FD82
:101C4000E0CF80E00895B0E0A0E0E9E2FEE00C948F
:101C5000A532C8EDD0E088818F7E8883E7EDF0E083
:101C600080818160808384E082BF81E080937D03F6
:101C700088818E7F888302EE10E0F8011082109236
:101C8000DA0081EEC82ED12CF601108288818F7780
:101C9000888388818068888388818F7D888319BC48
:101CA000109292031092930310928703109286036E
:101CB00090EEE92EF12CF70180818B7F8083888163
:101CC0008160888342E060E080E00E94F10DF601CF
:101CD00080818E7F8083F801808181608083808114
:101CE00088608083F70180818E7F80838881806116
:101CF0008883CDB7DEB7E8E00C94C132FC01809157
:101D00009A0390919B0386179707A0F061157105C0
:101D100029F49091E8009E779093E80090E0611597
:101D2000710551F4911108C08091E80082FF35C01F
:101D300080E00895BC01F2CF809192038823C9F11D
:101D40008530C9F18091E80083FD31C08091E800C1
:101D500082FDEACF8091E80080FFE1CF2091F3007F
:101D60008091F200322F282F6115710519F028306B
:101D7000310558F091E02830310509F090E02091CC
:101D8000E8002E772093E800CACF81918093F1007C
:101D9000615071092F5F3F4FE7CF809192038823F5
:101DA00041F0853041F08091E80083FFBDCF81E0B4
:101DB000089582E0089583E00895089508952FB767
:101DC000F8946091790370917A0380917B039091EC
:101DD0007C032FBF08958091690108959C01FC0147
:101DE00032969FEF80E04191461751F09F3F19F4E2
:101DF000411101C0982F8F5F8630A9F79F3F09F4EA
:101E00000895290F311D97FD3A95F90162830895D0
:101E1000A3E0B0E0EEE0FFE00C94AB3220916E0363
:101E200030916F0328173907A1F090936F038093C7
:101E30006E03E0916C03F0916D03309751F024E054
:101E400029839B838A830084F185E02DCE0101964E
:101E500009952396E2E00C94C732A3E0B0E0E3E3F7
:101E6000FFE00C94AB3220916A0330916B0328178A
:101E70003907A1F090936B0380936A03E0916C03A0
:101E8000F0916D03309751F023E029839B838A837F
:101E90000084F185E02DCE01019609952396E2E0BC
:101EA0000C94C73280916803882359F0E0916C0349
:101EB000F0916D03309729F00190F081E02D0995A4
:101EC000089580E008954115510511F0FA01099532
:101ED0000895DC01ED91FC91119784913196ED9379
:101EE000FC93089580E00895F894E82FE295EF7050
:101EF000F0E031A1282F2F7081E090E001C0880F21
:101F00002A95EAF7982F9095932391A392A1892B74
:101F100082A3789408950F931F9380916803882378
:101F200029F00E94DF0E1F910F9108950E94DF0E8D
:101F300000918B0210918C0220918D0230918E02C3
:101F4000600F711F821F931FEECF90912C0392FFA1
:101F500010C041E0282F2471243009F040E031E026
:101F6000282F2871283009F030E0431711F02CE0B9
:101F7000822793FF10C041E0282F2471243109F0FB
:101F800040E031E0282F2871283109F030E0431774
:101F900011F02CE0822730912D0330FF10C051E06A
:101FA000282F2171213009F050E041E0282F2871BD
:101FB000283009F040E0541711F029E0822731FF62
:101FC00010C041E0282F2171213109F040E031E0BB
:101FD000282F2871283109F030E0431711F029E04B
:101FE000822794FD877E089582389105B9F1B0F477
:101FF0008133910509F47DC048F48932910509F4D3
:102000006DC08A32910509F479C008958533910530
:1020100009F45FC08933910509F10895833E910564
:10202000D9F138F4803E910529F1823E910579F18C
:102030000895863E9105D9F1873E910509F43EC089
:10204000843E910541F520912D0321FF24C080910C
:102050002C0384FD19C087EE90E0089520912C0395
:10206000237009F056C020912D0323FF14C089E28C
:1020700090E0089520912C0320FD38C030912D036D
:1020800030FF09C024FF3FC090E080E00895209118
:102090002C0322FDF7CF089520912C0322FD36C09A
:1020A00030912D0330FD35C024FDEECFF4CF2091CB
:1020B0002C0323FFF0CF24FDE7CFCDCF20912C03BD
:1020C00023FD2AC030912D0331FFEECF84EE90E046
:1020D000089520912C0325FDCACF089520912C034B
:1020E00025FD1DC020912D0323FFD5CF89E390E06E
:1020F000089520912C0326FD15C0089520912C03EE
:1021000026FD13C0089583EE90E0089582EE90E0DE
:10211000089580EE90E0089586EE90E0089585E3BE
:1021200090E008958AE290E0089581E390E0B3CFD3
:102130007A30B8F46630A8F48530B0F4E62FF0E0D9
:1021400096E0799FE00DF11D11249CE3899FE00D3D
:10215000F11D1124EE0FFF1FE456F04F859194916D
:10216000089580E090E0089581E0FCCF1F93CF9325
:10217000DF930E94F40FEC01C11580E5D807E8F564
:10218000C11580E4D80708F09BC0C03ED10518F502
:10219000CD3CD10508F081C0C83AD10570F4C53AEC
:1021A000D10508F072C0C130D10511F118F0C4306A
:1021B000D105F0F4D0E0C0E01BC0C33CD105D0F79E
:1021C000C85AD0E0CC0FDD1FC852DE4F0990D8812D
:1021D000C02DD4640DC0C11580E2D80708F0CBC073
:1021E000C11581E0D80708F05AC0C83ED10510F7E4
:1021F000CE01DF91CF911F910895C03682E5D807B7
:1022000018F5C03482E5D80708F069C0C03282E50D
:10221000D80708F05DC0C11582E5D80708F493C05F
:102220002C2F2695269580E2289F900111248C2F33
:102230008370C1E0D0E002C0CC0FDD1F8A95E2F7C9
:10224000C22BD32BDD68D4CFC03A82E5D80760F427
:10225000C03882E5D80708F457C0CF71D0E0DC2F32
:10226000CC27C46FD06AC4CFC03C82E5D80708F43D
:102270005EC0C03E82E5D80708F09CCFDC2FCC279B
:10228000CC27DF71C06FD06AB3CFC55AD0E0CB5234
:10229000DE4FC881D0E0D064ABCFD065A9CF8D2F01
:1022A0000E94A50F182FCE0199270E94F40FC12F6D
:1022B000D0E0DC2FCC27CC27DF71C82BD92B98CFCF
:1022C000CE0199270E94F40FCC27DF70D06AF5CF9A
:1022D000CF71D0E0DC2FCC27C16FD06A89CF2C2FF3
:1022E00026952695277080E2289F900111248C2F37
:1022F0008370C1E0D0E002C0CC0FDD1F8A95E2F709
:10230000DC68C22BD32B74CF2C2F269526952770F3
:1023100080E2289F900111248C2F8370C1E0D0E0CF
:1023200002C0CC0FDD1F8A95E2F7DA68EACF8C2F66
:102330008F710E94A50FC82FD0E0DC2FCC27CC27AF
:10234000DF71D06255CF8C2F8F710E94A50F55E0A1
:10235000D695C7955A95E1F7CF70D0E0DC2FCC2702
:10236000282F30E084FF05C044E0220F331F4A9538
:10237000E1F7D069C6CF8D2F8F710E94A50F182F5E
:10238000CE0199270E94F40FC12FD0E0DC2FCC277B
:10239000CC27DF71906291CF982F90958091640344
:1023A0008923809364030895982F90958091650305
:1023B00089238093650308958091D50390919C03B0
:1023C000981301C008958F5F8770FACFB0E0A0E046
:1023D000ECEEF1E10C94A4327C0100910903109120
:1023E0000A0380919B0290919C02082B192BCFE04D
:1023F000D0E0CC24C394D12CBC2EC6010C2E02C03C
:10240000880F991F0A94E2F780239123892B49F4BE
:10241000219790F7B12C8B2DCDB7DEB7E9E00C9466
:10242000C032B7018C2F0E9498100E94B6100197FD
:1024300079F3F1CFCF93DF93EC010E94E611BE0157
:102440000E9498100E94B610DF91CF9108959A30A3
:1024500078F5863068F5E82FF0E086E0989FE00D8B
:10246000F11D11249E2F977083E0F695E7958A95CC
:10247000E1F7EE0FFF1FEE0FFF1FEE5CFD4F50E088
:1024800040E080E0219130E0092E02C0369527958A
:102490000A94E2F721703327042E01C0220F0A9418
:1024A000EAF7822B4F5F5F4F4430510559F708958B
:1024B00080E008959A3098F5863088F5E82FF0E0AE
:1024C00086E0989FE00DF11D11248E2F877041E06A
:1024D00001C0440F8A95EAF783E0F695E7958A955F
:1024E000E1F7EE0FFF1FEE0FFF1FEE5CFD4F30E038
:1024F00020E070E05191DF011197CB01022E02C064
:10250000969587950A94E2F78170819585278423B3
:1025100085278C932F5F3F4F2430310559F708955D
:102520009C01267033272630310531F48061909369
:102530000A038093090308958F7EF9CFE091090380
:10254000F0910A0321E030E0D90102C0AA0FBB1FBD
:102550008A95E2F7CD01D90102C0AA0FBB1F6A9587
:10256000E2F7BD018A2B972B02C0220F331F4A9539
:10257000E2F7AF01482359238417950731F42E2B36
:102580003F2BC9010E9490120895209530952E236B
:102590003F23F7CF21E030E002C0220F331F8A959E
:1025A000E2F7209530958091090390910A038223E8
:1025B00093230E949012089590915A038095892345
:1025C00080935A03282F277069F4891759F0909146
:1025D0002D0392FF07C08695869586950E94CA12A4
:1025E00010925A03089521E030E002C0220F331FF9
:1025F0008A95E2F78091090390910A03822B932B2D
:102600000E94901208950F931F93CF93DF9301E0E0
:1026100010E0082E02C0000F111F0A94E2F7C091CB
:102620005F03D09160039E0120233123232B01F50A
:1026300090915A03969596959695891302C010929B
:102640005A030E94F3120E94DF0E60935B037093A3
:102650005C0380935D0390935E03C027D127D093E2
:102660006003C0935F03DF91CF911F910F91089595
:102670000E94CA12F2CF90939C0280939B0208950D
:10268000FC0124812223B9F0808191810E941A12D9
:1026900092959F70963089F050F49250923058F491
:1026A000803F19F030F4883E30F481E008959A506C
:1026B000F5CF843FD1F380E00895883EB0F3813FA9
:1026C000D1F7F3CFA6E0B0E0E8E6F3E10C94AA324C
:1026D00026E0FC01DE01119601900D922A95E1F7AA
:1026E000FC01258189819A81222399F0662389F052
:1026F0000E94E611182F682F89819A810E945A1230
:1027000069817A81812F0E9498102696E3E00C94CB
:10271000C6320E942712182FF3CF9C013A9521153B
:102720003F4150F5FC01EE27F170BC016627727045
:10273000AC01442754709C012227387094FF0EC0CE
:1027400080E0EF2B09F080E1672B09F08062452BD8
:1027500009F08064232B89F08068089581E0EF2BD5
:1027600009F480E0672B09F08260452B09F0846052
:10277000232B19F08860089580E0089580912B0341
:102780008531F8F480912F0290E0019663E070E0CB
:102790000E94393380932F0222E030E0281B390B4E
:1027A0004CE752E0249FC001259F900D349F900D6F
:1027B0001124805E974F0E94990C089584EA95E059
:1027C000FACF8832D8F380912E0290E00196817082
:1027D000992780932E0221E030E0281B390B4CE72B
:1027E00052E0249FC001259F900D349F900D11242D
:1027F00084559F4FE0CF0F931F93CF93DF938B01AF
:10280000EA0190919203943061F58093E9008FEF93
:102810009091E800815095FD06C095ED9A95F1F7ED
:1028200000008111F5CF8091E80085FF1AC00E9459
:10283000A30D811111C08091E80085FD06C0809133
:10284000E8008E778093E800F2CFF80181918F0144
:102850008093F100219779F78091E8008E7780933B
:10286000E800DF91CF911F910F91089543E050E070
:10287000BC0182E00E94FB130895CF93DF93EC012B
:1028800048E050E0BC0181E00E94FB1388E0FE01BB
:10289000AEE7B3E001900D928A95E1F7DF91CF9119
:1028A0000895B0E0A0E0E7E5F4E10C94A3327C01E8
:1028B0005B016A0180918A0201E010E08A3010F425
:1028C0000AE010E0C1E0D0E0B501C701F6010995CA
:1028D000811104C021960C171D072CF4CDB7DEB76B
:1028E000EAE00C94BF32CC9F9001CD9F300D300DAB
:1028F000112490E080E045E34A95F1F7000001964D
:1029000082179307C1F7E0CFCF93DF93682F81E061
:102910006A3019F06D3031F480E00E940515DF91C6
:10292000CF9108958091E4059091E50526E0FC01A2
:10293000ACEDB3E001900D922A95E1F7603E08F40A
:1029400059C026E0FC0111922A95E9F7C091E405EF
:10295000D091E50546E050E0BE018CED93E00E9489
:10296000B633892B59F1CE01845E93409C0145E03A
:10297000369527954A95E1F741E050E0BA0102C04B
:10298000660F771F2A95E2F79B016091E203709131
:10299000E303262B372B059665E0969587956A9578
:1029A000E1F7FA0102C0EE0FFF1F8A95E2F7CF01AF
:1029B000822B932B9093E3038093E2039E012E5D81
:1029C00033404091DB03642F70E0C9010E948732DD
:1029D000481B463010F4240F311D2115F2E03F074B
:1029E00010F030E020E02C513C4F3093E50520936F
:1029F000E40595CFF6E06F9FB00111246D5F7C4E2A
:102A000046E050E00E94D232A1CFCF93382FE09120
:102A1000E405F091E505E45EF3402091DB03622FCD
:102A200070E0CF010E948732281B822F332361F090
:102A300066E00E942D33C82FC15010F4CF91089545
:102A400080E20E948414F8CF9F01280F311D2115C8
:102A5000324018F080E0F0E0E0E08E0F9F2F911DF3
:102A60008C519C4F9093E5058093E405E7CF8091CE
:102A7000650390916403892B90915902992351F039
:102A8000892BE8E2F2E027E090E0215029F591114E
:102A9000109259028093260248E050E06AE572E005
:102AA00086E292E00E94B633892BA9F088E0E6E244
:102AB000F2E0AAE5B2E001900D928A95E1F7E0918B
:102AC0006C03F0916D03309731F00280F381E02DBB
:102AD00086E292E00995089531913323B1F29F5F28
:102AE000D4CF10926503E8E2F2E086E0DF011D92A8
:102AF0008A95E9F790E080E00E942D0F90E080E059
:102B00000E94080F109264030E94371508950E94D6
:102B100071152FEF84E39CE0215080409040E1F755
:102B200000C0000088E19AE00FB6F894A895809361
:102B300060000FBE90936000FFCFCF93DF93EC0156
:102B40004A855B856E857F850E94630F8B810E941D
:102B5000CC118C810E94D4110E94371586E0FE01B1
:102B600011928A95E9F7DF91CF910895CF93DF9382
:102B7000EC018D8181FD17C082608D83809164039B
:102B80009B81892B80936403809165039C81892BB1
:102B9000809365030E943715488559856E857F852A
:102BA000CE010E94630F10926703109266038D811D
:102BB00080FD03C0CE010E949D15DF91CF91089545
:102BC000882321F00E94CC110E9437150895882394
:102BD00039F090916403892B809364030E94371528
:102BE0000895882321F00E94D4110E94371508957A
:102BF000882339F090916503892B809365030E94A7
:102C000037150895882381F19CEF980F913A70F45D
:102C1000E6E2F2E09281891301C01282319692E0DD
:102C2000EC32F907B9F70E943715089590E2980F32
:102C3000983050F4877091E001C0990F8A95EAF7B7
:102C4000892F0E94D411EFCF9BE5980F933028F481
:102C500090E080E00E942D0F0895885A8B3120F477
:102C600090E080E00E94080F0895CF93DF93EC017D
:102C70000E940216CE010E948D139E01205E310932
:102C80002830310510F0CD2B29F40E94F115DF9189
:102C9000CF9108950E94E015FACFFC018281813026
:102CA00031F4FB01808191810E94351608958230B4
:102CB000E9F7FB0182819381F7CFCF938823C1F09D
:102CC000C82F8CEF8C0F813A10F5A8E2B2E0E6E253
:102CD000F2E08EE292E02D91C21761F08A179B0715
:102CE000D1F76C2F86E292E00E94EE0E0E9437151B
:102CF000CF9108958CE292E02281C21301C012822A
:102D000031968E179F07C1F70E943715EACF80E2F0
:102D10008C0F883068F4C77021E030E001C0220FCA
:102D2000CA95EAF780916503822B80936503DECF15
:102D3000EBE5EC0FE33040F4F0E0EB52FE4F808126
:102D400090E00E942D0FD4CFC85ACB3188F6EC2FDB
:102D5000F0E0EE0FFF1FE852FE4F808191810E944C
:102D6000080FC6CF1F93CF93DF93182FEB010E945C
:102D70005D16209739F4812F0E940216DF91CF91C2
:102D80001F9108958FE99FE00197F1F700C00000BF
:102D90002197EFCFA2E0B0E0E0EDF6E10C94A33292
:102DA0009A8389838AE0A82ECE0101960E94690F3A
:102DB0008823E1F1813009F053C0CE0101960E94D1
:102DC000690F813069F4CE0101960E94690F60E5B8
:102DD00070E0893311F070E060E00E94B216E4CF39
:102DE000823039F4CE0101960E94690F0E945D166F
:102DF000DBCF833039F4CE0101960E94690F0E9427
:102E00000216D2CF843081F4CE0101960E94690F60
:102E100010E000E0482F4053550B9A014A3051050D
:102E200048F00115110599F48111BECF2296EAE010
:102E30000C94BF32A09EC001A19E900D1124890167
:102E4000080F191FCE0101960E94690FE3CFEFE929
:102E5000FFE03197F1F700C0000001501109E1CF08
:102E6000E82FF0E0ED58F74EB490282F26952695E0
:102E7000269530E0F901ED59F74EE4908770F12C7A
:102E8000082E02C0F594E7940A94E2F7F1E0EF22ED
:102E9000FF24F901ED5AF74EC490D12C082E02C040
:102EA000D594C7940A94E2F741E0C422DD24F901E5
:102EB000ED5BF74E049110E002C0159507958A95D9
:102EC000E2F701701127E114F10419F081EE0E947C
:102ED0005D16C114D10419F086EE0E945D1670E0F3
:102EE00060E08B2D0E94B216C114D10419F086EE59
:102EF0000E940216E114F10419F081EE0E940216FC
:102F00000115110509F450CF70E060E08CE265CF47
:102F1000CF93DF93EC010E948D139E01205E310957
:102F20002830310510F0209741F40E94F8158C2FBD
:102F30000E945D16DF91CF9108950E94E715F7CFAB
:102F4000FB01808191810E9488170895CF93DF93C0
:102F5000FC012281223049F4FB01EC018281938142
:102F60000E9488178D8182608D83DF91CF910895B3
:102F70000F931F93CF93DF93EC01FC01019000208E
:102F8000E9F78F0101501109C017D10728F0DF912F
:102F9000CF911F910F91089589910E948414F4CFCD
:102FA000AB0124E630E0BC0188E70E943A3021E022
:102FB000892B09F020E0822F089580915803909189
:102FC0005903911103C091E089270895882369F07E
:102FD00062E070E088E192E10E94D017811103C0A5
:102FE0008091580308951092580380915803EBCFB5
:102FF000CF93C0915803809159038823D1F00E9448
:10300000DF0E605A75418F4F9F4F6093540370934A
:1030100055038093560390935703C11108C062E093
:1030200070E086E192E10E94D017811105C0C09145
:1030300058038C2FCF91089581E080935803F7CFE8
:1030400090912D0392FB222720F9281779F080FB1D
:1030500092F990932D0360912C0370912D0384E0DD
:1030600090E00E94173382E00E94DC120895CF9214
:10307000DF92EF92FF921F93CF93DF9300D000D0A7
:10308000CDB7DEB7C0907702D0907802E090790299
:10309000F0907A020E94DF0E6C197D098E099F095B
:1030A00011E0643671058105910570F10E948B0F66
:1030B0006E5F7F4F8F4F9F4F69837A838B839C8393
:1030C0008091190190911A0185589D4F40911801E6
:1030D00050E04530510510F044E050E0BE016F5F14
:1030E0007F4F0E94C33382E090E00E941032182F7D
:1030F000882351F00E94DF0E60937702709378026C
:103100008093790290937A02812F0F900F900F9005
:103110000F90DF91CF911F91FF90EF90DF90CF90B4
:103120000895A1E0B0E0E7E9F8E10C94A532109130
:103130002B03198300918502C0908602D0908702EC
:10314000E0908802F09089020E94DF0E6C197D09E0
:103150008E099F09643671058105910510F40117E8
:1031600049F1809121019091220185589D4F409114
:10317000200150E04115510511F041E050E0BE0141
:103180006F5F7F4F0E94C33383E090E00E94103254
:10319000182F882351F00E94DF0E609386027093EF
:1031A00087028093880290938902812F2196E8E01C
:1031B0000C94C13211E0F9CF8F929F92AF92BF92DF
:1031C000EF92FF921F93CF93DF9300D000D000D0F7
:1031D000CDB7DEB77B0190E080E00E941032182F5F
:1031E000882309F464C040910B0150E0411551055A
:1031F00011F041E050E060910C0170910D016558B3
:103200007D4FCE0106960E94C3338090730290904A
:103210007402A0907502B09076020E94DF0E6819C9
:1032200079098A099B09643671058105910538F48D
:103230008CE792E00E946D0D9E818917C1F181E0BB
:1032400090E00E941032182F882391F040911301D2
:1032500050E04630510510F045E050E06091140117
:103260007091150165587D4FCE0101960E94C333C0
:103270008CE792E00E946D0D91E02E81281390E082
:10328000192301F10E94DF0E6093730270937402A0
:10329000809375029093760285E0FE013196AEE64A
:1032A000B2E001900D928A95E1F711E00BC085E044
:1032B000ECE7F2E0DE01119601900D928A95E1F7BC
:1032C0001111EACF85E0EEE6F2E0D70101900D9210
:1032D0008A95E1F7812F26960FB6F894DEBF0FBED0
:1032E000CDBFDF91CF911F91FF90EF90BF90AF9036
:1032F0009F908F90089578941F920F920FB60F921F
:1033000011248F939F93AF93BF93809179039091F2
:103310007A03A0917B03B0917C030196A11DB11D9E
:103320008093790390937A03A0937B03B0937C03FB
:10333000BF91AF919F918F910F900FBE0F901F90F3
:1033400018952FB7F8948091790390917A03A09102
:103350007B03B0917C032FBF0895309177032091B8
:103360007303321720F42091730320937703609343
:1033700070037093710380937203909373030E94A0
:10338000A11990938A038093890381E08093880335
:103390000895AAE2B0E0EFECF9E10C94A732E4E979
:1033A000F3E08091F100819323E0EC39F207C9F753
:1033B00080919503833009F487C008F5813009F4C2
:1033C0005EC0823009F4E0C08091E80083FF1AC13A
:1033D00080919403909195039A3008F013C1E92FDE
:1033E000F0E0EB50F64E0C948E33D51AFB1A021B0C
:1033F000FB1A021B531B751B021BFE1C0B1D8A3084
:1034000009F4A7C08B3009F47CC08930E9F68091BB
:1034100094038132C9F680919803909199030297A1
:1034200098F68091E800877F8093E8008091E8001B
:1034300082FF45C08091F3009091F2008927982780
:103440008927029731F48091F100813011F08630A4
:1034500071F48091F100809369016091680170912D
:10346000690180916A0190916B010E94AD19809170
:10347000E8008B778093E8000E94D20DA5CF809161
:103480009403813A09F0A0CF8091E800877F809370
:10349000E8008091980390919903892B61F060E096
:1034A00090E080E070E00E947E0E8091E8008B77D3
:1034B0008093E80089CF68E08EE793E0F3CF8091B6
:1034C00092038111B3CF80CF80919403813A09F0A8
:1034D0007BCF8091980390919903892B09F074CF49
:1034E0008091E800877F8093E8008091E80080FF6A
:1034F000FCCF80916A018093F1008091E8008E7783
:10350000B9CF80919403813209F05ECF8091980306
:1035100090919903892B09F057CF8091E800877F1C
:103520008093E8000E94D20D81E090919603911162
:1035300001C080E080936A01609168017091690127
:1035400080916A0190916B010E94AD190E947115E2
:103550003BCF80919403813209F036CF8091E8000F
:10356000877F8093E8000E94D20D8091970380931B
:103570006801609168017091690180916A01909180
:103580006B010E94AD1920CF80919403813A09F01C
:103590001BCF8091E800877F8093E8008091E8004E
:1035A00080FFFCCF80916801A6CF803889F08238F7
:1035B00049F5809198038F70873020F58093E9005A
:1035C0008091EB0085FB882780F91092E90006C006
:1035D0008091860390918703911182609091E80019
:1035E000977F9093E8008093F1001092F100809112
:1035F000E8008E7727C0282F2D7F21F48823A1F0A3
:10360000823029F18091E80083FF0AC08091E800B0
:10361000877F8093E8008091EB0080628093EB00CD
:10362000AA96E6E00C94C33280919603813051F75C
:10363000933009F080E0809387031092E900809135
:10364000E800877F8093E8000E94D20DDBCF809155
:1036500096038111F2CF809198038F702FEF280F7E
:10366000263080F68093E9002091EB0020FFE5CF23
:10367000933031F48091EB0080628093EB00DDCFDA
:103680009091EB0090619093EB0021E030E001C05D
:10369000220F8A95EAF72093EA001092EA008091BF
:1036A000EB008860EACF8111ADCF109196031F77B0
:1036B0008091E3008078812B8093E3008091E80083
:1036C000877F8093E8000E94D20D8091E80080FF00
:1036D000FCCF8091E30080688093E30083E01111C8
:1036E00001C082E0809392038DCF8058823008F031
:1036F00089CF80919603909197038C3D43E0940786
:10370000A1F583E08A838AE289834FB7F894DE01CA
:10371000139620E03EE051E2E32FF0E05093570093
:10372000E49120FF03C0E295EF703F5FEF708E2FB2
:1037300090E0EA30C0F0C7968D939D932F5F2431BF
:1037400059F74FBF8091E800877F8093E8006AE2D5
:1037500070E0CE0101960E947E0E8091E8008B778A
:103760008093E8004FCFC096E7CF409198035091E7
:103770009903292F33272330310509F448C080F5F8
:103780002130310509F4EFC02230310509F03ACF7C
:103790000BE310E0E0E9EE2EE2E1FE2E8091E8007E
:1037A000877F8093E80080919A0390919B0308178C
:1037B000190708F4C80140E0009709F0E9C0411179
:1037C000E7C08091E80082FDC8CF809192038823F2
:1037D00021F2853011F28091E80083FFF2CFBDCF56
:1037E0002132310509F4B1C02232310509F00ACF86
:1037F0004115510509F4C5C04130510509F002CF0A
:1038000002E310E03AE1E32E32E1F32EC7CF99272D
:103810008130910509F45AC040F0029709F460C064
:1038200010E000E0F12CE12C09C0EFEFF2E1E491AF
:103830000E2F10E07FEFE72E72E1F72E20919A0312
:1038400030919B0380918C038F5F80938C03309326
:103850009103209390032230310509F04BC09091E1
:103860008D039F5F90938D03833010F190918F03B0
:10387000923038F040918E03411163C0891709F4EA
:103880005EC040918D03853008F447C02F3F31055D
:1038900009F04BC0992309F44AC083E0423008F094
:1038A00051C0411105C080918E03882309F447C09F
:1038B0000E94A11990938A038093890381E08093E9
:1038C00088030115110509F49DCE68CFEDEEF2E1F4
:1038D000E4910E2F10E06DEEE62E62E1F62EAECFF3
:1038E000EDEDF2E1E4910E2F10E05DEDE52E52E1F9
:1038F000F52EA4CF2430310531F490918E039F5FD3
:1039000090938E03B1CF2F3F310509F0ADCF909149
:103910008F039F5F90938F03A7CF843031F4911171
:10392000C0CF423021F484E00DC09111BACF4330B2
:1039300009F0BECF80918E03813009F0B9CF81E0CC
:1039400001C082E080938B03B3CF4115510591F004
:103950004130510509F056CE09E010E04BEBE42E62
:1039600042E1F42E1BCF02E110E02BECE22E22E12B
:10397000F22E14CF09E010E092EAE92E92E1F92E3E
:103980000DCF04E410E08CE4E82E82E1F82E06CF9F
:1039900020919203222309F4E0CE253009F4DDCEF4
:1039A0002091E80023FDD9CE2091E80022FD09CF27
:1039B0002091E80020FF00CF2091F3003091F20029
:1039C000232732272327009719F02830310558F094
:1039D00041E02830310509F040E02091E8002E77E1
:1039E0002093E800E9CEF70144914093F100FFEF06
:1039F000EF1AFF0A01972F5F3F4FE5CF803809F09C
:103A000001CE8091E800877F8093E8008091930346
:103A10008093F100ECCD8111F5CD10919603123019
:103A200008F0F0CD8091E800877F8093E800109344
:103A300093030E94D20D1123F9F084E08093920346
:103A400042E061EC81E00E94F10D42E261EC82E033
:103A50000E94F10D809192038430A1F482E0809362
:103A60006B01609168017091690180916A01909188
:103A70006B010E94AD19C6CD8091E30087FDDDCFBB
:103A800081E0DCCF81E0EBCF1F920F920FB60F9257
:103A900011242F933F934F935F936F937F938F9353
:103AA0009F93AF93BF93CF93EF93FF93C091E900A0
:103AB000CF708091EC001092E9008091F000877F38
:103AC0008093F00078940E94C9191092E9008091C7
:103AD000F00088608093F000C093E900FF91EF91BF
:103AE000CF91BF91AF919F918F917F916F915F9196
:103AF0004F913F912F910F900FBE0F901F901895EF
:103B00001F920F920FB60F9211242F933F934F9352
:103B10005F936F937F938F939F93AF93BF93CF9355
:103B2000EF93FF938091E10082FF09C08091E20052
:103B300082FF05C08091E1008B7F8093E10080913E
:103B4000DA0080FF24C08091D80080FF20C08091DF
:103B5000DA008E7F8093DA008091D90080FFD2C096
:103B600080E189BD82E189BD09B400FEFDCF81E01D
:103B70008093920380917D03811109C00E94840D7E
:103B80000E94230E8091E20084608093E200809185
:103B9000E10080FF24C08091E20080FF20C080917E
:103BA000E2008E7F8093E2008091E200806180934A
:103BB000E2008091D80080628093D80019BC85E033
:103BC0008093920383E080936B0160916801709110
:103BD000690180916A0190916B010E94AD198091F9
:103BE000E10084FF39C08091E20084FF35C080E1AC
:103BF00089BD82E189BD09B400FEFDCF8091D80066
:103C00008F7D8093D8008091E1008F7E8093E100CA
:103C10008091E2008F7E8093E2008091E2008160DB
:103C20008093E20080919303882309F471C084E0BB
:103C30008093920380919203843009F471C081E0F3
:103C400080936B01609168017091690180916A01B4
:103C500090916B010E94AD198091E10083FF40C0FB
:103C60008091E20083FF3CC08091E100877F8093D8
:103C7000E10082E080939203109293038091E1002F
:103C80008E7F8093E1008091E2008E7F8093E2003E
:103C90008091E20080618093E20042E060E080E099
:103CA0000E94F10D8091F00088608093F000C1E0E7
:103CB000C0936B01609168017091690180916A0104
:103CC00090916B010E94AD19C0936A0160916801E7
:103CD0007091690180916A0190916B010E94AD1908
:103CE000FF91EF91CF91BF91AF919F918F917F9174
:103CF0006F915F914F913F912F910F900FBE0F9059
:103D00001F90189519BC1092920310927D033FCF1B
:103D10008091E30087FD02C081E08ACF83E088CFF5
:103D200082E08ECFEF92FF920F931F93CF93DF939A
:103D3000C42FD22FFC0185818823A9F0409363030F
:103D40000E94A1199093620380936103C77081E080
:103D500001C0880FCA95EAF70E94F815CDB7DEB703
:103D6000E6E00C94C33210916303141337C0E09063
:103D70006103F09062030E94A1198E199F098F3A86
:103D8000910560F5C0E2CD0F1D17C1F080E2810FF3
:103D9000883048F4177081E0012E01C0880F0A9422
:103DA000EAF70E94F115C83000F581E09D2F977069
:103DB00001C0880F9A95EAF70E94F81570E060E05C
:103DC000802F0E94B216C83048F6D77081E001C03B
:103DD000880FDA95EAF70E94F115C0CFC77081E02D
:103DE00001C0880FCA95EAF7F6CF70E060E0802F37
:103DF0000E94B216B3CFAFE0B0E0E1E0FFE10C9477
:103E00009E328E010F5F1F4F8AE0F80111928A9552
:103E1000E9F780E1E82E82E0F82E680195E1692E4D
:103E200092E0792EAA24A394B12C3BE1832E32E0B8
:103E3000932EF70181917F018F3F09F440C0F894E0
:103E4000E82FE295EF70F0E021A18F70A50102C08C
:103E5000440F551F8A95E2F7CA01922F982B91A320
:103E600092A18095892382A3789400C0E5E1F2E0D5
:103E7000512C31E021912F3F09F492C0A22FA2953D
:103E8000AF70B0E090968C9190E02F7002C0959545
:103E900087952A95E2F780FD83C0832F582A330F38
:103EA0008E169F0639F7F701319780818F3F11F009
:103EB0000E94740F50EA5A95F1F7F6015082FFEF15
:103EC000CF1ADF0A6E147F0409F0B3CF4AE050E046
:103ED000B8018FE892E00E94B633009741F02AE0E3
:103EE000F801AFE8B2E001900D922A95E1F7009158
:103EF0009A0210E003561D4F892B09F453C081E04C
:103F0000809366020E94A1199093650280936402D7
:103F1000D12CC0906803CC2009F4A1C07E012BE015
:103F2000E20EF11C85E0F70111928A95E9F7809184
:103F30008A028A3008F05CC04CED58E1B701C80134
:103F40000E945114882309F477C047E358E1B70170
:103F5000C8010E945114882309F46EC041E958E158
:103F6000B701C8010E945114882309F465C010925A
:103F70008A028091990290E045E050E0B7018356B3
:103F80009D4F0E94B63321E020936D02892B09F0EA
:103F900046C0C12C8C2D8D292F96EFE00C94BA329F
:103FA00080E07CCFD0906602DD2009F4B1CFE090B4
:103FB0006402F09065020E94A1198E199F0905976D
:103FC00008F4A6CF45E050E06FE872E0C8010E9417
:103FD000B633892B59F085E0EFE8F2E0D801019083
:103FE0000D928A95E1F71092660293CFD12CFBCF08
:103FF000A0906702B09068020E94A1198A199B09DB
:10400000843F914008F098CF80916D02882309F297
:1040100085E0F70111928A95E9F710926D02A0915F
:104020009902B0E0A356BD4F85E0FE013B9601909A
:104030000D928A95E1F7AECF80918A028F3F19F0F9
:104040008F5F80938A0280918A028A3008F491CF30
:104050000E94A1199093680280936702D5CF85E0F2
:10406000F801ACE7B2E001900D928A95E1F78CE798
:1040700092E00E946D0D80937B028090810290906F
:104080008202A0908302B090840280916902909194
:104090006A02A0916B02B0916C0288169906AA067A
:1040A000BB06B1F08092690290926A02A0926B0204
:1040B000B0926C020E94DF0E861A970AA80AB90A0B
:1040C00080928B0290928C02A0928D02B0928E020E
:1040D0008091850280932B035DCFB0E0A0E0E3E701
:1040E000F0E20C94A432FC012481222309F473C170
:1040F0007C0161E00E946213EC01F7018581882355
:1041000021F1E0916603F09167033097F1F0CE174B
:10411000DF07D9F0FF27E230F10508F06EC094E028
:10412000EE0FFF1F9A95E1F7ED5CFE4F85818460ED
:104130008583D183C083CF010E94B615109264039A
:1041400061E0C7010E946213EC01F701258122237F
:1041500009F45CC0AE015A95CE0199274115FFE4E0
:104160005F0738F0CE01CF3FD10519F010F090E095
:1041700080E0BC01645071096432710518F08B97BE
:104180000E9780F4E091BA02F0E0EE0FFF1FE154C9
:10419000FD4F808191818F3F3FE7930719F0019692
:1041A0009183808341155F4458F5CE0199278C3463
:1041B000910511F08A9789F4E091BA02F0E0EE0FD0
:1041C000FF1FE154FD4F80819181811530E89307F5
:1041D00009F4DDC5019791838083C1343EE7D3079D
:1041E00009F4C2C508F0C3C5C0349EE7D907D1F4AD
:1041F0008AE99FE00E94CA165FC0F0E0E0E096CF37
:10420000CF3FD10509F048F7CE01D1CFC2348EE7B8
:10421000D80709F451C008F04AC0C034EEE7DE0701
:1042200008F04AC0CE019755FE018F3F910511F06D
:1042300008F0A9C0FF27E230F1050CF0BDC0A4E0F2
:10424000EE0FFF1FAA95E1F78F010D5C1E4FE85C92
:10425000FE4F808120FB80F98083F70185818823D0
:1042600009F475C00E94A1199093B3028093B20221
:10427000F80182818F5F828380916403909165034E
:10428000892B838380915902848346815781668577
:104290007785C8010E94630FF801858181FD54C0B4
:1042A0009C2F8D2F909366038093670305C0C334C2
:1042B000FEE7DF0709F0B6CFF7018581882309F40F
:1042C0001EC5109263039E0130572332310508F05A
:1042D000FEC484E090E00E94E33290932D0380932B
:1042E0002C03FE01E150F047E232F10508F09CC0DA
:1042F000E458FE4D0C948E334E22C32256222022C7
:1043000024225A2228225E226A223422BC22382207
:104310006E223C2272229A2240227622A12246223A
:104320007C2284222C226222302266224A2280228F
:104330009022AA22BA221A225222CA22222309F445
:10434000BBCF86E99FE056CF90E080E0ABCFF8018D
:104350004485558566857785C8010E94630FF801FD
:10436000858181FFA9CFC8010E949D1580916603B8
:1043700090916703C817D90709F09ECF1092670381
:104380001092660399CFE851FC47E730F10508F039
:1043900093CFE353FE4D0C948E33F621FC21D421B0
:1043A000F021022208220E2206E221EE41EE6AE10D
:1043B0007CE7C7010E94921E80915A03877059F0D2
:1043C000F7018581882339F080912D0382FF03C096
:1043D00082E00E94DC12CDB7DEB7E9E00C94C03277
:1043E00007E225EE45EE6BE17CE7E3CF06E221EE46
:1043F00040EE68E17CE7DDCF07E225EE44EE69E1BF
:104400007CE7D7CF06E221EE42EE6CE17CE7D1CF2C
:1044100007E225EE46EE6DE17CE7CBCF08E221E036
:1044200045EE6EE17CE7C5CF80912C0381608093DF
:104430002C0395C080912D03886080932D038FC03D
:1044400080912C038260F3CF80912C038460EFCFA6
:1044500080912C038860EBCF80912D038160EDCF9C
:1044600080912D038260E9CF80912C038061DFCFA2
:1044700080912C038062DBCF80912C038064D7CFA6
:104480000E94711580912C038068D1CF80912C03FC
:104490008860DCCF80912D038260E0CF80912C0377
:1044A0008E7FC5CF80912D03877FC7CF80912C034E
:1044B0008D7FBDCF80912C038B7FB9CF80912C0352
:1044C000877FB5CF80912D038E7FB7CF80912D034D
:1044D0008D7FB3CF80912C038F7EA9CF80912C0349
:1044E0008F7DA5CF80912C038F7BA1CF0E9471156A
:1044F00080912C038F779BCF80912C03877FDCCF1B
:1045000080912D038D7FE0CF80912C0382FB992732
:1045100090F921E0922790FB82F990FB83F987CFF5
:1045200080912D03982F909591708E7F892B90FB11
:1045300081F983CF90912C03892F8F7B96FF806424
:1045400076CF0E94711590912C03892F97FB87F9E4
:1045500080586DCF61E08EE090E00E94F93260916A
:104560002C0370912D0384E090E00E9417330E9489
:10457000711522CF60E0EFCF90912C03892F8F7EB1
:1045800094FF806154CF90912C03892F8E7F90FFF0
:1045900081604DCF90912D03892F877F93FF886095
:1045A0004CCF89E2E6E2F2E02CE232E0928189131C
:1045B00001C0128231962E173F07C1F79DC381E0DB
:1045C0000E94F31243E062E081E00E949E12F4CE6A
:1045D00081E00E94CA12F6CF82E0FBCF0E94DF0E7C
:1045E00060935B0370935C0380935D0390935E0321
:1045F0008091090390910A0320915F033091600339
:10460000AC014095509542235323452B31F028238C
:1046100039233093600320935F03F7014581CB3743
:10462000FCE7DF0749F5442309F4C6CE292F3327D9
:1046300021153105F9F49C0180E0A90174E056953B
:1046400047957A95E1F74115510511F08C5F9A0174
:10465000A90156954795569547954115510511F075
:104660008E5F9A0136952795232B09F08F5F0E9464
:104670000313A2CE88E0E1CFC11522E5D207F0F402
:10468000C11530E5D307E8F5C11580E4D80708F077
:1046900055C0442309F46BC0C330FCE7DF0709F4BD
:1046A000EBC008F0BFC0C1153CE7D30709F4C8C090
:1046B000C130DC4709F05BC00E948715C03292E52B
:1046C000D90738F3C034E2E5DE0728F0CE01805C7C
:1046D00092458097F0F68C2F8F7121E030E0082E04
:1046E00002C0220F331F0A94E2F760915F037091BA
:1046F000600326233723232B61F2442309F45CCE85
:10470000B6CFCE0125E0969587952A95E1F78F7073
:1047100021E030E0082E02C0220F331F0A94E2F796
:1047200060915F037091600326233723232B09F4E4
:10473000B0CF41119CCF10926503DEC2F701868194
:10474000807F09F0A6CF411112C02D2F2F7081E07C
:1047500090E002C0880F991F2A95E2F720915F032D
:104760003091600382239323892B09F025CEF70132
:104770008581C081D181882309F491C0CE010E9436
:10478000E611182F682FCE010E945A12BE01812F08
:104790000E9498100E94B610D82FC92FB82EF7018A
:1047A000D580C680C2948FE0C82280915A0387705A
:1047B00001F10D2DDD20F1F0892F807F803469F02B
:1047C00080E28D0F8830A8F0892F807E803229F416
:1047D000F1E0FD1770F4CC2061F080912D0382FF91
:1047E00008C082E00E94DC1280915A03877001E0C9
:1047F00009F000E01C2F12951F701C3008F0ABC0B0
:10480000E12FF0E0EA5FFB4D0C948E3354245424E6
:10481000862486241A25AB24AB24AB243A25C7254D
:10482000D825D825CB359CE7D907B9F1CC35ECE7AD
:10483000DE0749F1CA35DC4709F099CF81E02AC08B
:104840000E9471152FEF34E38CE0215030408040FE
:10485000E1F700C0000087E797E790930108809395
:10486000000888E19AE00FB6F894A895809360005C
:104870000FBE90936000FFCF6FEF7FEF90E080E07E
:104880000E94173319CF80912D0382FB882780F96E
:1048900091E089270E9420186ACF80E0FBCFCE01EB
:1048A0000E942712182F72CF1C2F1F70C07F11F08B
:1048B0001295107F8D2FDD20B9F0112369F090E261
:1048C0009D0F983010F0D11109C080916503182B0D
:1048D000109365030E9437158D2F3BC080916403B0
:1048E000182B10936403F6CF0E940216112399F13E
:1048F000D05E812FD83010F0B11003C00E94D411C7
:1049000002C00E94CC110E94371525C01C2F1F70B9
:10491000C07FC03211F01295107FBB2051F021E012
:10492000B21609F467C0DD2009F473C0CC20B9F1D8
:10493000D3CF80912D0382FD2EC0DD2029F11123DC
:1049400039F080916503182B109365030E94371589
:1049500080E00E945D16002309F4C2C080915A03D2
:1049600080FDBEC0F70115828695869586950E94CA
:10497000F312C7010E946D2080915A038695869597
:1049800086950E94CA12ACC080E00E9402161123D4
:1049900011F3812FB3CFDD2099F0C11004C0812F16
:1049A0000E94F815D8CF31E0C312D5CF80915902BB
:1049B000912F9823191779F2182B10935902CBCF06
:1049C000C110C9CF812F0E94F11590915902812FFA
:1049D000892329F0812F8095892380935902809122
:1049E0003102912F982309F4B6CF10951823109314
:1049F0003102B1CFDD2029F085E08C1508F4ABCF72
:104A0000CECF94E09C1508F4A6CF812F0E94F1151B
:104A1000A2CFCC20D1F3D93349F4EFEFF7EE23E066
:104A2000E150F0402040E1F700C000008D2F0E94CF
:104A3000021691CF8C2F86958695837039F0813040
:104A400079F01850143008F086CF48C08D2F9C2F75
:104A50009370D11002C080E090E00E942D0F7BCFB8
:104A60008D2F9C2F9370D11002C080E090E00E94A7
:104A7000080F71CF8C2F837009F045C0D1102EC064
:104A80004D2F429546954770440F440F2D2F2F70A0
:104A900030E0042E02C0220F331F0A94E2F790E0A8
:104AA00080E0D4FF09C08FE090E002C0880F991F1A
:104AB0004A95E2F780959095C695C695C370C23029
:104AC000C9F0A8F440919B0250919C02C13069F05A
:104AD000822B932B842395230E943B130E94520F19
:104AE00060E0C7010E94621376CC242B352B822B09
:104AF000932BF2CF822B932B20919B0230919C021F
:104B000082279327E9CF8695DD2011F08C2F8170C5
:104B1000882321F34D2F429546954770440F440F4B
:104B20002D2F2F7030E0042E02C0220F331F0A9465
:104B3000E2F790E080E0D4FF09C08FE090E002C08F
:104B4000880F991F4A95E2F780959095C695C6956E
:104B5000C370C23099F078F44091090350910A0370
:104B6000C13039F0822B932B842395230E9490121D
:104B7000B5CF242B352B822B932BF8CF822B932B65
:104B80002091090330910A0382279327EFCFCF703A
:104B9000DD2039F08C2F0E94F3128D2F0E94F81522
:104BA0009DCF8D2F0E94F1158C2F0E94CA1296CF97
:104BB0008D2F32EFB31609F43FC03B1580F090EF14
:104BC000B916F1F0E1EFBE16A1F0DD2009F464C0E2
:104BD000CC2009F45EC08D2F0E945D1632CFF3EF1A
:104BE000BF1689F124EFB212F0CF90912D0392FD00
:104BF00037C08C2F8F71DD2019F10E94F31221CF65
:104C0000DD20A9F034E03C1508F41BCFCF7181E022
:104C100090E002C0880F991FCA95E2F7209109031E
:104C200030910A03822793270E9490120ACF85E0D1
:104C30008C1508F406CFEACF8C2F8F71DD20E9F2B6
:104C40000E94CA12FECE90E080E0DD2069F3CF71B1
:104C500081E090E002C0880F991FCA95E2F7E4CF87
:104C6000DD2061F08C2F8F7192FFC7CF98E0899F74
:104C700090011124236020935A03BFCF81E00E944A
:104C8000DC12E1E0EC1508F0DCCE82E00E94DC12E0
:104C9000D8CE8C2F8F71B1CFCC2079F0893349F4E5
:104CA000FFEF27EE33E0F15020403040E1F700C045
:104CB00000008D2F0E940216C4CE8C2F8F71C0CFA2
:104CC00080913002882309F46CCC85E36BCCC6312B
:104CD000FCE7DF0709F03DC0809165038A7A91E027
:104CE00009F490E09093300265E3811101C069E21C
:104CF00086E292E00E94EE0E0E9437155DCBC6312F
:104D00002CE7D207E9F2C737ECE7DE0709F460CCFD
:104D1000C837FCE7DF0709F45FCC9E01205E32450F
:104D20002032310508F05ACC811158CCCF7181E086
:104D300090E09C0102C0220F331FCA95E2F7E901FF
:104D4000622F83E090E00E94F932CE010E943B1373
:104D500033CBC7373CE7D30709F431CCC8379CE7DE
:104D6000D907D9F682E02CCC88E99FE043CAC23447
:104D7000EEE7DE0709F4E5CAC334FEE7DF0709F012
:104D800051CA222309F498CA84E99FE033CAC13486
:104D90003EE7D30749F308F427CAC234EEE7DE073B
:104DA00009F4CCCAC334FEE7DF0771F33BCAB0E0B5
:104DB000A0E0EDEDF6E20C94A63280915802807FDF
:104DC00009F050C080915702882309F44BC0E0914C
:104DD000D50387E0D82E80919C038E1709F442C03A
:104DE0000E2F10E0ED9DF0011124E356FC4F84815D
:104DF0008823E9F1D09EE001D19ED00D1124FE015F
:104E0000E356FC4F918180915302981330C09081FA
:104E10008091520298132BC08581811128C0E280B5
:104E2000F3808091540290915502E81AF90A60E0EB
:104E300082E592E00E9462138FEAE816F104B8F46A
:104E4000809158028F70806180935802CD55DC4F5D
:104E500088818F708061888382E592E00E946D2056
:104E60000E94DC11CDB7DEB7E7E00C94C232F80146
:104E70003196E770B0CFA4E1B0E0E1E4F7E20C9442
:104E80009E328C0186E0F801DE011F9601900D92A2
:104E90008A95E1F7F801F480E58082E5882E82E0CA
:104EA000982E8091560281112AC0F11003C0FF2470
:104EB000F3941CC0EE20F9F0C8010E944013F82EB4
:104EC0008823C9F087E0F801A2E5B2E001900D92D5
:104ED0008A95E1F780915602813031F48091520237
:104EE000909153020E941A120E94D7268F2D649629
:104EF000EFE00C94BA32C8010E946D20D8CFC28076
:104F0000D380B0905702809154029091550236019F
:104F1000681A790ABB2009F4F7C05080A18060E0CC
:104F200082E592E00E946213FFEA6F16710408F0B6
:104F3000A4C0FF2009F4BBCF80915802382F307FE6
:104F400020915302F8019181311157C0FE2C291391
:104F500014C020915202908129130FC0E11046C065
:104F60008F7080618093580282E592E00E946D20EC
:104F700080915802F8018683B9CFE11037C06A2DBD
:104F8000852D0E944E0D6A2D852D0E944E0DE82E16
:104F90008111ACCF5F86A88A8F8598890E941A12EA
:104FA000292F22952F70243058F49F70223080F0E2
:104FB000992391F0F8019681907F71F4FE2C96CFA1
:104FC0002A50223068F0C8010E946D20EB2CF6CFE9
:104FD000992311F0882391F3805E8830A0F7EECFFB
:104FE000803F60F3815F833070F7E8CF8091580293
:104FF000816080935802F12C79CF291315C020913C
:1050000052029081291310C0E1100EC08683C8019E
:105010000E946D2087E0F801A2E5B2E001900D92B8
:105020008A95E1F7FB2C62CFC8010E9440138823C8
:1050300009F461CFEE2009F45ECF809158028032EE
:1050400088F0209152023091530239872887DB86FD
:10505000CA86909156029C871D868E87CE0108963F
:105060000E946D2087E0F801A2E5B2E001900D9268
:105070008A95E1F70E94D7261ACF80915802982F7F
:10508000907F51F482E592E00E946D2087E0F40168
:1050900011928A95E9F7AFCFFF2009F408CF20914C
:1050A0005302F8019181291311C02091520290817D
:1050B00029130CC0E1100AC08683C8010E946D202C
:1050C00087E0F40111928A95E9F7ACCFC8010E94FC
:1050D0004013882309F40FCFEE2009F40CCF809100
:1050E0005802803208F4BECF209152023091530210
:1050F0003A832983DC82CB82909156029D831E8263
:105100008F83CE010196ACCF60E082E592E00E94F1
:105110006213FFEA6F16710408F0B8CFFF2009F49C
:10512000C6CEFE2CEE2009F4E6CE90915302F80193
:10513000818198132DC0909152028081981328C0CC
:105140008091540290915502C81AD90AFFEACF16ED
:10515000D104A8F49091580290FD11C0907F79F08D
:1051600080915802F8018683903F31F0982F907F0C
:10517000905F8F70892B8683C8010E946D2087E025
:10518000F801A2E5B2E001900D928A95E1F7AECE6A
:10519000C8010E944013811165CF8091580281603F
:1051A00080935802C8010E946D20A0CEABE1B0E010
:1051B000ECEDF8E20C94AA324E8B5F8B688F798FFE
:1051C0008A8F9B8F9111109264031D8A86E0FE01E5
:1051D0007696DE011F9601900D928A95E1F78B89F4
:1051E000882351F061E0CE010F960E94621361E0C6
:1051F000CE010F960E94621387E0FE013F96DE010A
:10520000189601900D928A95E1F7CE0108960E94BA
:105210003B2781112AC087E0FE013896DE011196F6
:1052200001900D928A95E1F78C858823F1F0209109
:105230009C0330E0C9010196877099274091D503FE
:105240004817190659F197E0929FD001939FB00D2E
:105250001124A356BC4FFE01319601900D929A95F0
:10526000E1F780939C030E94DC1117E08091D50345
:1052700090919C038917F9F0819FC00111248356F6
:105280009C4F0E943B278823B1F08091D50390E08A
:105290000196877099278093D503E8CF0E947115F6
:1052A00010929C031092D50387E0E2E5F2E0DF0163
:1052B0001D928A95E9F76B96E3E00C94C632A6E05E
:1052C000B0E0E5E6F9E20C94A9320E94A1198C0144
:1052D00080916202909163028017910781F0198298
:1052E0001A820E94A119682F49815A81792F80E082
:1052F00090E00E94D62810936302009362022696E3
:10530000E4E00C94C5321F920F920FB60F92112455
:105310008F939F93AF93BF9380917803811113C0B4
:105320008091790390917A03A0917B03B0917C03E3
:105330004196A11DB11D8093790390937A03A093A8
:105340007B03B0937C03BF91AF919F918F910F909E
:105350000FBE0F901F901895CF93DF93EC010E9422
:10536000A1198C1B9D0BDF91CF910895ADE0B0E0AA
:10537000ECEBF9E20C949B3285B7806885BF85B76A
:10538000806885BF84B7877F84BF0FB6F894A895DF
:1053900080916000886180936000109260000FBE71
:1053A00080E890E00FB6F8948093610090936100DC
:1053B0000FBE81E080936B0160916801709169017B
:1053C00080916A0190916B010E94AD1982E79FE084
:1053D00090932502809324020E94840D0E94230E44
:1053E0008091E20084608093E2007894809192033F
:1053F000882399F01091E9001F708091EC0080FFE4
:10540000A4C180E8182B1092E9008091E80083FD88
:105410000E94C9191F701093E90082E084BD93E0D7
:1054200095BD9AEF97BD80936E0010928B021092FB
:105430008C0210928D0210928E028091D8008061B1
:105440008093D8002AE12A95F1F700C08091D90015
:10545000182F117080FD04C00E94840D10929203D9
:1054600010936803109369031093280111110E948F
:105470002431809128018091280190E0811101C0A0
:1054800095E090939A0285E0891B8093990200E150
:1054900012E0D8018D918D018F3F11F00E94740FA1
:1054A000B2E005311B07A9F705E112E06BE1E62E3A
:1054B00062E0F62EF80181918F018F3F11F00E947A
:1054C000740FE016F106B1F78AE0EDE9F2E0DF01D2
:1054D000282F1D922A95E9F7EFE8F2E0DF011D92EF
:1054E0008A95E9F790E080E00E94E332853E9E4F86
:1054F00009F461C065EE7EEF90E080E00E94173312
:1055000060E082E090E00E94F93281E090E09093C8
:105510009C0280939B0261E083E090E00E94F9325C
:1055200060E074E184E090E00E94173360E086E080
:1055300090E00E94F93260E087E090E00E94F9324A
:1055400040E050E0BA0188E090E00E940B3360E058
:1055500083E290E00E94F93260E08CE090E00E94EB
:10556000F93260E08DE090E00E94F93219821A82EF
:105570001B821C821D821E821F82188648E050E01A
:1055800067E170E0CE0101960E94E93240E050E010
:10559000BA018FE190E00E940B3340E050E0BA0185
:1055A0008FE090E00E940B3340E050E0BA0183E1CD
:1055B00090E00E940B3382E090E00E94DB32809307
:1055C000A70284E090E00E94E33290932D03809341
:1055D0002C0383E090E00E94DB3290E00E943B13BA
:1055E000809168038111B3C082E080934E0380E80C
:1055F0008093DB030E94C22F6BE070E08BE092E1AE
:105600000E94D0178823E9F180914E0365E070E095
:1056100081FD9FC086E092E10E94D017882389F126
:105620006DE070E084EF91E10E94D017882349F18A
:105630000E94DF0E605A75418F4F9F4F6093540355
:10564000709355038093560390935703E4EEF3E071
:1056500080E092E0DF019C011D9221503040E1F793
:10566000F093E505E093E4058FEF9FEF9093E3035C
:105670008093E20381E08093590380935803109252
:105680004F0380916803811102C00E94273189E293
:1056900091E090936D0380936C0354E6852E912CDA
:1056A000A12CB12C8091920310E4853009F488C0BC
:1056B0000E94FB1E08EA12E04DE9E42E42E0F42EBF
:1056C000D701F80191918D9122E0E23BF20709F4B4
:1056D00081C09817B9F340906803D12CD701CD90C1
:1056E0007D01F80151908F015C1431F1712C662419
:1056F00063945C24852D8621B9F04420A9F0798239
:10570000DA820E94A1199C838B83F1E0FD8391E0F2
:105710008C2D862109F490E09E8349815A816B810A
:105720007C818D810E94D6287394660C26E07212CB
:10573000E1CFF8013197C082D3943AE0D312CECFB3
:105740000E948B0F41E049874AC080E05BCE80E039
:105750004CCF81E092E160CF80919203843029F1B7
:105760000E94DD171092780348E150E00FB6F894DC
:10577000A895409360000FBE1093600083B7817FAF
:10578000846083BF83B7816083BF7894889583B733
:105790008E7F83BF0FB6F894A895809160008861D2
:1057A00080936000109260000FBE0E94FB1EEDE926
:1057B000F2E0819181117EC352E0E73AF507C9F723
:1057C00080919203853009F4C7CF0E9471150E9421
:1057D000520F6ECF98137FCF0E945F291986809158
:1057E0006803882309F414C10091660310916703CC
:1057F00001151105F9F0C090B202D090B3020E94D9
:10580000A1198C199D09803B9105A0F0112790E00A
:1058100080E00230110540F434E0000F111F3A958A
:10582000E1F7C8018D5C9E4FDC0115962C9122FF9B
:105830000E94B615C090BF02D090C0020D2C000C83
:10584000EE08FF0810915301212F30E0EFEBF2E05A
:1058500081E090E03296281739070CF01FC1409084
:10586000BB025090BC026090BD027090BE020E94CC
:10587000DF0E9B01AC01241935094609570929019E
:105880003A0139EC431651046104710414F180911A
:10589000BA0290E0019669E170E00E94393380938A
:1058A000BA02880F991FFC01E154FD4F118210824A
:1058B000812F183108F087E18F5F809353010E9498
:1058C000DF0E6093BB027093BC028093BD02909385
:1058D000BE0242E0C416D104E104F1045CF1A0E68A
:1058E000BAEEA70196010E9494336B017C0158EC3B
:1058F000159F90011124032E000C440B550B240D11
:10590000351D461D571DA5E0B0E00E9494339B0154
:10591000AC01C701B6010E944D33213F310541055D
:10592000510524F020EF30E040E050E029013A0139
:1059300077FE03C0412C512C3201C090B602D090AA
:10594000B702E090B802F090B9020E94DF0E9B010E
:10595000AC012C193D094E095F0969017A0135E650
:10596000C316D104E104F10484F00E94DF0E6093B9
:10597000B6027093B7028093B8029093B9028091F7
:105980002B038093B5024092B4021091B502A0910E
:10599000B402A11BBB0BA70196010E949F33A50176
:1059A00094010E946F33120F10932B0300915F0339
:1059B000109160030115110559F140905B0350905F
:1059C0005C0360905D0370905E030E94DF0E6419BB
:1059D00075098609970961367A4E81059105C0F0EF
:1059E000009510958091090390910A0380239123DB
:1059F0000E9490121092600310925F030E94DF0ECB
:105A000060935B0370935C0380935D0390935E03EC
:105A100080915903882309F4F4C100915003109137
:105A200051030E94A119801B910BC29708F48CC0EE
:105A30000E94A119909351038093500384EE93E048
:105A40009093E5058093E40580916803882309F429
:105A5000B6C08091090390910A038430910509F43E
:105A6000A1C040F50097A1F16BE771E0823091058C
:105A700089F19F938F9389EB91E09F938F931F926E
:105A800088E18F9381EF92E09F938F930E94D333AD
:105A90000FB6F894DEBF0FBECDBF20C0408151814C
:105AA000052E000C660B770BC40ED51EE61EF71EE6
:105AB0000196D0CE8031910509F477C086319105E9
:105AC00009F473C088309105A1F669E971E002C05C
:105AD0006DE671E081EF92E00E94CC3381EF92E0BD
