:100000000C943C0B0C94590B0C94590B0C946831C8
:100010000C94590B0C94590B0C94590B0C94590BD0
:100020000C94590B0C94590B0C940C1C0C94D01B75
:100030000C9415290C94590B0C94590B0C94590BD6
:100040000C94590B0C94590B0C94590B0C94590BA0
:100050000C94590B0C9407180C94590B0C94590BD5
:100060000C94590B0C94590B0C94590B0C94590B80
:100070000C94590B0C94590B0C94590B0C94590B70
:100080000C94590B0C94590B0C94590B0C94590B60
:100090000C94590B0C94590B0C94590B0C94590B50
:1000A0000C94590B0C94590B0C94590B0000000044
:1000B0000000000000000000000000000000000040
:1000C0000000000000000000000000000000000030
:1000D0000000000000000000000000000000000020
:1000E0000000000000000000000000000000808010
:1000F00080404020201008040204081010202040F6
:1001000040808000000000000000000000000000AF
:1001100000000000000000000000000000000000DF
:1001200000000000000000000000000000000000CF
:1001300000000000000000000000000000000000BF
:1001400000000000000000000000000000000000AF
:100150000000000000000000000000000000003F60
:10016000C1010102020404040402020101010000B1
:10017000000000008000004080804000003030001F
:10018000000000010264180412C2CA2488F08080B2
:10019000404040402020202010101010080808087F
:1001A0000404040402020202010101010000000033
:1001B000000000000000000000000000000000003F
:1001C000000000000000000000000000000000002F
:1001D0000000000000000000000000000000E01827
:1001E0000601000000000000000000000080838382
:1001F000404040402021212010101010080808081D
:1002000004040404020202020101010100000000D2
:1002100000000000000000000000000000000000DE
:1002200000000000000000000000000000000000CE
:1002300000000000000000000000000000000000BE
:1002400000000000000000000000000080808080AE
:10025000404040402020202010101010080F0808B7
:1002600004040404020408101020204040414224E9
:1002700098C088888C9C1C1E0E06000000000000A0
:10028000000000000000000000000000000000006E
:10029000000000000000000000000000000000005E
:1002A000000000000000000000000000000000004E
:1002B000000000000000000000000000000000003E
:1002C000000000000000000000000000000000002E
:1002D000000000000000000000000000000000001E
:1002E000000000000000000000000000000000000E
:1002F00000000000000000000000000000000000FE
:1003000000000000000000000000000000000000ED
:1003100000000000000000000000000000000000DD
:1003200000000000000000000000000000000000CD
:1003300000000000000000000000000000000000BD
:1003400000000000000000000000000000000000AD
:10035000000000000000000000000000000000009D
:10036000000000000000000000008080804040206D
:100370002010080402040810102020404080800053
:10038000000000000000000000000000000000006D
:10039000000000000000000000000000000000005D
:1003A000000000000000000000000000000000004D
:1003B000000000000000000000000000000000003D
:1003C000000000000000000000000000000000002D
:1003D00000000000000000000000003FC101010219
:1003E0000204844444428201010100000000000034
:1003F000800000408080400000303000000000019C
:100400000204040808102040808080804040404062
:1004100020202020101010100808080804040404EC
:1004200002020202010101010000000000000000C0
:1004300000000000000000000000000000000000BC
:1004400000000000000000000000000000000000AC
:1004500000000000000000000000E018060100009D
:100460000C03000218190005FE80838340404040C1
:10047000202121201010101008080808040404048A
:100480000408304080800000018698600000000071
:10049000000000000000000000000000000000005C
:1004A000000000000000000000000000000000004C
:1004B000000000000000000000000000000000003C
:1004C000000000000000000080808080404040402C
:1004D0002020202010101010080F08080404040425
:1004E0000202020201010101000000000000000000
:1004F0000000000000000000000000060F0F0703CE
:100500000361F0F8FC600101013C78F8F070000034
:1005100000000000000000000000000000000000DB
:1005200000000000000000000000000000000000CB
:1005300000000000000000000000000000000000BB
:1005400000000000000000000000000000000000AB
:10055000000000000000000000000000000000009B
:10056000000000000000000000000000000000008B
:10057000000000000000000000000000000000007B
:10058000000000000000000000000000000000006B
:10059000000000000000000000000000000000005B
:1005A000000000000000000000000000000000004B
:1005B000000000000000000000000000000000003B
:1005C000000000000000000000000000000000002B
:1005D000000000000000000000000000000000001B
:1005E00000000000000080808040402020100804AF
:1005F000020408101020204040808000000000000D
:1006000000000000000000000000000000000000EA
:1006100000000000000000000000000000000000DA
:1006200000000000000000000000000000000000CA
:1006300000000000000000000000000000000000BA
:1006400000000000000000000000000000000000AA
:10065000000000000000003FC101010202048444C8
:1006600044428201010100000000000080000040BF
:100670008080400000303000000000010264180457
:1006800012C2CA2488F080804040404020202020B0
:1006900010101010080808080404040402020202E2
:1006A0000101010100000000000000000000000046
:1006B000000000000000000000000000000000003A
:1006C000000000000000000000000000000000002A
:1006D000000000000000E018060100000C0300020A
:1006E00018190005FE8083834040404020212120CE
:1006F0001010101008080808040404040202020282
:1007000001010101000000000000000000000000E5
:1007100000000000000000000000000000000000D9
:1007200000000000000000000000000000000000C9
:1007300000000000000000000000000000000000B9
:100740000000000080808080404040402020202029
:1007500010101010080F080804040404020202021A
:100760000101010100000000000000000000000085
:100770000000000000000000000000000000000079
:100780000000000000000000000000000000000069
:100790000000000000000000000000000000000059
:1007A0000000000000000000000000000000000049
:1007B0000000000000000000000000000000000039
:1007C0000000000000000000000000000000000029
:1007D0000000000000000000000000000000000019
:1007E0000000000000000000000000000000000009
:1007F00000000000000000000000000000000000F9
:1008000000000000000000000000000000000000E8
:1008100000000000000000000000000000000000D8
:1008200000000000000000000000000000000000C8
:1008300000000000000000000000000000000000B8
:1008400000000000000000000000000000000000A8
:100850000000000000000000000000000000008018
:10086000804040402020202020180402010204087B
:1008700010202040408080000000000000000000A8
:100880000000000000000000000000000000000068
:100890000000000000000000000000000000000058
:1008A0000000000000000000000000000000000048
:1008B0000000000000000000000000000000000038
:1008C0000000000000000000000000000000000028
:1008D0000000003FC10101020204040404020201FD
:1008E0000000000000000000800000408080400008
:1008F000003030000000000102040408081020400D
:100900008080808040404040202020201010101027
:10091000080808080404040402020202010101019B
:1009200000000000000000000000000000000000C7
:1009300000000000000000000000000000000000B7
:1009400000000000000000000000000000000000A7
:100950000000E01806010000000000000000000098
:10096000008083834040404020212120101010103F
:1009700008080808040404040408304080800000CB
:1009800001869860000000000000000000000000E8
:100990000000000000000000000000000000000057
:1009A0000000000000000000000000000000000047
:1009B0000000000000000000000000000000000037
:1009C0008080808040404040202020201010101067
:1009D000080F080804040404020408101020204032
:1009E0004041422418000000000000000000000008
:1009F00000000000000000000000000000000101F5
:100A000001000000000000000000000000000000E5
:100A100000000000000000000000000000000000D6
:100A200000000000000000000000000000000000C6
:100A300000000000000000000000000000000000B6
:100A400000000000000000000000000000000000A6
:100A50000000000000000000000000000000000096
:100A60000000000000000000000000000000000086
:100A70000000000000000000000000000000000076
:100A80000000000000000000000000000000000066
:100A90000000000000000000000000000000000056
:100AA0000000000000000000000000000000000046
:100AB0000000000000000000000000000000000036
:100AC0000000000000000000000000000000000026
:100AD0000000000000000000000000000000808016
:100AE00080804040201008040204081020408080CC
:100AF00000000000000000000000000000000000F6
:100B000000000000000000000000000000000000E5
:100B100000000000000000000000000000000000D5
:100B200000000000000000000000000000000000C5
:100B300000000000000000000000000000000000B5
:100B40000000000000000000000000000000007E27
:100B500082020204040808080804040201010000DB
:100B600000000000000000800000800000606000C5
:100B700001010204040808101020204080808080B9
:100B80004040404020202020101010100808080885
:100B90000404040402020202010101010000000039
:100BA0000000000000000000000000000000000045
:100BB0000000000000000000000000000000000035
:100BC0000000000000000000000000000000C03035
:100BD0000C0300000000000000000000008086867A
:100BE000404040402122222011111010080808081E
:100BF00004040404040830408080000001869860EA
:100C000000000000000000000000000000000000E4
:100C100000000000000000000000000000000000D4
:100C200000000000000000000000000000000000C4
:100C300000000000000000000000000080808080B4
:100C4000404040402020202010101010080F0808BD
:100C500004040404020408101020204040414224EF
:100C6000180000000000000000000000000000006C
:100C70000000000000000000000001010100000071
:100C80000000000000000000000000000000000064
:100C90000000000000000000000000000000000054
:100CA0000000000000000000000000000000000044
:100CB0000000000000000000000000000000000034
:100CC0000000000000000000000000000000000024
:100CD0000000000000000000000000000000000014
:100CE0000000000000000000000000000000000004
:100CF00000000000000000000000000000000000F4
:100D000000000000000000000000000000000000E3
:100D100000000000000000005C007C005B005D0043
:100D20004A001E001F002000210022002B0014009A
:100D30001A0008001500170029210422162807248C
:100D400009210A43E1001D001B00060019000500EF
:100D50000000520051002152225201574D0027003D
:100D600026002500240023002D00130012000C0093
:100D700018001C00340033320F380E340D310B00D4
:100D80002E003800370036001000110000004F0020
:100D9000500022522C4100570000000000000000CB
:100DA0000000000000000000000000000000000043
:100DB00035021E021F02200221022202437E000091
:100DC0000000000000000000000001000100010020
:100DD0002A004C000000000000000000000000009D
:100DE0000000407E417E0000000000003500270228
:100DF0002602250224022302000030022F020000F6
:100E00000000000000000100010001000100AE0030
:100E100000000000000000000000000000001E00B4
:100E20001F00200021002200000000000000000040
:100E300000000000427E00000000000000000000F2
:100E4000000001000100010001000100000000009D
:100E50000000000000000000000027002600250020
:100E600024002300000000004F00520051005000F9
:100E7000000000004D004B004E004A000000010041
:100E8000010001002800A800000000000000000090
:100E90000000000000000000000000000000000052
:100EA0000100E100E300E200E0000100E1000000D9
:100EB000000000000000000000000100010001002F
:100EC0000100010000000000000000000000000020
:100ED000000000004D004B004E004A0000000000E2
:100EE0004F005200510050000000000000000000C0
:100EF00000000000000001000100010001007B7CF7
:100F000000000000000000000000000000000000E1
:100F10001C70000000000000000000000000000045
:100F200000000000000000000000000000000000C1
:100F300000000100010001000100000000000000AD
:100F400000000000000000000000000000000000A1
:100F50000000000000000000000000000000000091
:100F600000000000000000001B70000000000100F5
:100F7000010001000100000000DA0281FFD9F1DB6D
:100F800020A4A62EAF00A0C0D30000A1C8D30000AB
:100F9000AED580A81F408D14200000AF00AE050123
:100FA0000980A101850319012AB700150126B700A0
:100FB000950175108100C0050C0901A10185041976
:100FC000012AA002150126A002950175108100C01A
:100FD00005010906A101050719E029E7150025010A
:100FE00095087501810295017508810105071900B1
:100FF00029FF150026FF00950675088100050819D0
:1010000001290515002501950575019102950175C8
:10101000039101C009023B00020100A0FA0904008B
:101020000001030101000921110100012244000710
:101030000581030800010904010001030000000903
:101040002111010001223200070582032000011254
:1010500001000200000008D8042DEB00010102008D
:10106000010E034C0069006C007900350038000067
:101070000010036C0069006C00690075006D00735E
:10108000000000040309040000000000003E5B4F64
:101090005B3E003E6B4F6B3E001C3E7C3E1C0018CE
:1010A0003C7E3C18001C577D571C001C5E7F5E1C5C
:1010B0000000183C180000FFE7C3E7FF00001824F9
:1010C000180000FFE7DBE7FF0030483A060E002675
:1010D0002979292600407F05050700407F05253F27
:1010E000005A3CE73C5A007F3E1C1C0800081C1CB0
:1010F0003E7F0014227F2214005F5F005F5F0006C6
:10110000097F017F00006689956A00606060606009
:101110000094A2FFA2940008047E04080010207E20
:1011200020100008082A1C0800081C2A0808001EB5
:1011300010101010000C1E0C1E0C0030383E383001
:1011400000060E3E0E060000000000000000005FDA
:10115000000000000700070000147F147F14002423
:101160002A7F2A1200231308646200364956205051
:1011700000000807030000001C224100000041227B
:101180001C00002A1C7F1C2A0008083E08080000DA
:101190008070300000080808080800000060600047
:1011A000002010080402003E5149453E0000427FE5
:1011B0004000007249494946002141494D33001819
:1011C00014127F10002745454539003C4A494931F2
:1011D000004121110907003649494936004649496D
:1011E000291E000000140000000040340000000030
:1011F000081422410014141414140000412214088D
:10120000000201590906003E415D594E007C121151
:10121000127C007F49494936003E41414122007F0E
:101220004141413E007F49494941007F0909090187
:10123000003E41415173007F0808087F0000417F54
:101240004100002040413F01007F08142241007FFF
:1012500040404040007F021C027F007F0408107F56
:10126000003E4141413E007F09090906003E4151CF
:10127000215E007F091929460026494949320003A9
:10128000017F0103003F4040403F001F2040201FDE
:10129000003F4038403F00631408146300030478A3
:1012A0000403006159494D4300007F414141000260
:1012B0000408102000004141417F000402010204A3
:1012C0000040404040400000030708000020545404
:1012D0007840007F2844443800384444442800388B
:1012E0004444287F0038545454180000087E0902F2
:1012F000001824241C78007F080404780000447D32
:101300004000002040403D00007F102844000000C5
:10131000417F4000007C04780478007C0804047855
:10132000003844444438007C18242418001824242D
:10133000187C007C08040408004854545424000419
:10134000043F4424003C4040207C001C2040201CE2
:10135000003C4030403C004428102844004C909011
:10136000907C004464544C44000008364100000066
:10137000007700000000413608000002010204026C
:10138000003C2623263C0000000000008080808076
:10139000000000000080E070180C1830E0800000B1
:1013A00010F8901030783010B8FC381000000000B1
:1013B0000000F8FCF8000000000000000000000041
:1013C00000001C9C1C00000000F8FCF8000000005D
:1013D00000001CFCF8C000000000000080E0F87C69
:1013E0001C000000F0FCFCFC1C1C1C1C1C1C1C1C1D
:1013F000000000000000C0F0F8381C1C1C1C1C1C65
:101400003CF8F0E000E0F0F0F0E0ECEEF7F37020F4
:10141000007C7C7C7E007E7E7E7F7F7F000080C0A3
:10142000E07E5B4F5BFEC00000C000DCD7DEDEDE8E
:10143000D7DC00C000000000000000000000000039
:101440000000000000000000000000000FBCE08170
:101450008181838382870C183060C000001FFE905A
:10146000B9FFBB91983C1811133F11000000000018
:101470000000FFFFFF00000000000000000000006F
:101480000000FFFFFF00000000FFFFFF0000000062
:1014900000000000030F7FF8E080F0FC3F0F010028
:1014A000000000003F3F3F1C1C1C1C1C3C78F8F057
:1014B000E08000000000C3E7FF7E3C387878707061
:1014C000F8FFDF87000F1F3F7F7F7F7F7F3F1E0C6E
:1014D000001F1F1F3F003F3F3F7F7F7F00307B7F0C
:1014E0007830202030787F3B0003000F7F0F0F0FF4
:1014F0007F0F00030000000000000000000000005B
:1015000000000000000000183C24666341C1818097
:10151000808080808081C14162386C4CC68181802E
:101520008080808081C14362361C1800000000006A
:101530000000FFFFFFC0C0C0C0C0C0C0C0C080006E
:1015400000007FFF7F000000007FFFFFC0800000E1
:1015500000E0E0C0C0C0E0F97F1F0700000000000D
:101560000000000070F0E0E0C0C0C0C0E0F0F87F14
:101570003F0F0000000F3F7FF9E0E0C0C0C0C0C0D7
:10158000E0F97F3F1F0000000000000000000000A5
:10159000000000000000000000000000000000004B
:1015A000000000000000000000000000000000003B
:1015B000000000000000000000000000000000002B
:1015C000000000000000000000000000000000001B
:1015D000000000000000000000000000000000000B
:1015E00000000000000000000000007E0F00D4FF9B
:1015F000FFFFC70000007800000000000000002A84
:101600002B28000000000000000000000000000087
:10161000000029000000002C1E3420212224342642
:1016200027252E362D3738271E1F2021222324253B
:10163000263333362E37381F0405060708090A0BF0
:101640000C0D0E0F101112131415161718191A1B62
:101650001C1D2F3130232D350405060708090A0B00
:101660000C0D0E0F101112131415161718191A1B42
:101670001C1D2F3130354C0011241FBECFEFDAE096
:10168000DEBFCDBF12E0A0E0B1E0E2E0FDE602C0C7
:1016900005900D92A234B107D9F726E0A2E4B2E09A
:1016A00001C01D92AA30B207E1F70E9448290C94AC
:1016B0007F360C940000FF920F931F93CF93DF931C
:1016C000209108063091090628503440A901445859
:1016D0005D4F41305240E8F040E052E0421B530B76
:1016E0006091060470910704D901A85FBB4F420FB7
:1016F000531F821B930BC1E0D0E02417350760F025
:101700007093070460930604CDB7DEB7E5E00C9450
:10171000C2324CE752E0E4CFFC01E20FF31FF49039
:10172000FD91FF16A1F08D0101501109F801F08221
:10173000F90115E0F695E7951A95E1F78E0102C0DB
:10174000000F111FEA95E2F7F801602B7F2B2F5F46
:101750003F4FD3CF8E3024E39207B1F050F48D3059
:1017600021E3920789F08333924371F08AEF90E08E
:1017700008958C3221E4920751F08B3222E49207D3
:1017800031F08F30984391F78CE291E0089588EC26
:1017900090E00895482F2091FE039091C50357E0F3
:1017A000291302C080E0089530E0529FF001539F5A
:1017B000F00D1124EA53FC4F8181681306C080812B
:1017C000481303C085818111EECF2F5F3F4F2770F3
:1017D000E7CFFC01AC014B5F5F4F8FEF91E32191AD
:1017E000822728E030E087FF09C0880F8927215031
:1017F0003109C9F7E417F50791F70895880FF7CF76
:10180000E8EDF0E080818E7F80831092E2001092FC
:10181000DA001092E100A0EEB0E08C9181608C9330
:1018200080818F77808319BCA7EDB0E08C918E7F8B
:101830008C9380818F7E80831092A60308952091DF
:10184000E4003091E50085E69091EC0090FF06C041
:101850009091E80090FF06C080E008959091E80024
:1018600092FDFACF9091BB03992391F0953091F0BE
:101870009091EB0095FD10C04091E4005091E5007F
:101880002417350709F381509A01F1F684E0089591
:1018900082E0089583E0089581E008958091BD037A
:1018A00087FF13C08091E80082FF06C08091E800A6
:1018B0008B778093E80004C08091BB038111F2CF45
:1018C00008958091BB038823D9F38091E80080FFBD
:1018D000F8CF8091E8008E77ECCF982F9093E900B5
:1018E000242F762F50E0891731F07091EC00209171
:1018F000ED005091F00021FD07C09F5F973071F718
:101900008093E90081E008953091EB003E7F3093B1
:10191000EB003091ED003D7F3093ED003091EB0016
:1019200031603093EB007093EC002093ED00509306
:10193000F0002091EE0027FDE0CF80E00895B0E0B8
:10194000A0E0E5EAFCE00C94A332C8EDD0E0888189
:101950008F7E8883E7EDF0E080818160808384E082
:1019600082BF81E08093A60388818E7F888302EE08
:1019700010E0F80110821092DA0081EEC82ED12C0E
:10198000F601108288818F778883888180688883B8
:1019900088818F7D888319BC1092BB031092BC0391
:1019A0001092B0031092AF0390EEE92EF12CF701E4
:1019B00080818B7F808388818160888342E060E0C2
:1019C00080E00E946D0CF60180818E7F8083F8019B
:1019D000808181608083808188608083F70180813D
:1019E0008E7F8083888180618883CDB7DEB7E8E011
:1019F0000C94BF32FC018091C3039091C4038617FD
:101A00009707A0F06115710529F49091E8009E7781
:101A10009093E80090E06115710551F4911108C0B0
:101A20008091E80082FF35C080E00895BC01F2CFCC
:101A30008091BB038823C9F18530C9F18091E8000A
:101A400083FD31C08091E80082FDEACF8091E800FB
:101A500080FFE1CF2091F3008091F200322F282FF8
:101A60006115710519F02830310558F091E02830E2
:101A7000310509F090E02091E8002E772093E800EE
:101A8000CACF81918093F100615071092F5F3F4F60
:101A9000E7CF8091BB03882341F0853041F08091EE
:101AA000E80083FFBDCF81E0089582E0089583E0E0
:101AB0000895089508952FB7F8946091A203709146
:101AC000A3038091A4039091A5032FBF0895809153
:101AD0006A0108959C01FC0132969FEF80E04191DC
:101AE000461751F09F3F19F4411101C0982F8F5FA5
:101AF0008630A9F79F3F09F40895290F311D97FDFE
:101B00003A95F90162830895A3E0B0E0EAE8FDE0C8
:101B10000C94A93220919703309198032817390724
:101B2000A1F09093980380939703E0919503F0912F
:101B30009603309751F024E029839B838A830084A5
:101B4000F185E02DCE01019609952396E2E00C94F3
:101B5000C532A3E0B0E0EFEAFDE00C94A932209199
:101B600093033091940328173907A1F090939403BD
:101B700080939303E0919503F0919603309751F091
:101B800023E029839B838A830084F185E02DCE01A5
:101B9000019609952396E2E00C94C5328091910359
:101BA000882359F0E0919503F0919603309729F03E
:101BB0000190F081E02D0995089580E00895411588
:101BC000510511F0FA0109950895DC01ED91FC91A0
:101BD000119784913196ED93FC93089580E00895D8
:101BE000F894E82FE295EF70F0E031A1282F2F70E4
:101BF00081E090E001C0880F2A95EAF7982F909530
:101C0000932391A392A1892B82A3789408950F9393
:101C10001F9380919103882329F00E945B0D1F91EF
:101C20000F9108950E945B0D0091AC021091AD02DE
:101C30002091AE023091AF02600F711F821F931F7F
:101C4000EECF9091520392FF10C041E0282F2471F3
:101C5000243009F040E031E0282F2871283009F0C5
:101C600030E0431711F02CE0822793FF10C041E0D1
:101C7000282F2471243109F040E031E0282F287109
:101C8000283109F030E0431711F02CE08227309121
:101C9000530330FF10C051E0282F2171213009F08B
:101CA00050E041E0282F2871283009F040E0541717
:101CB00011F029E0822731FF10C041E0282F217167
:101CC000213109F040E031E0282F2871283109F056
:101CD00030E0431711F029E0822794FD877E0895B4
:101CE00082389105B9F1B0F48133910509F47DC0D2
:101CF00048F48932910509F46DC08A32910509F4DE
:101D000079C008958533910509F45FC08933910541
:101D100009F10895833E9105D9F138F4803E91058B
:101D200029F1823E910579F10895863E9105D9F118
:101D3000873E910509F43EC0843E910541F520910E
:101D4000530321FF24C08091520384FD19C087EE04
:101D500090E0089520915203237009F056C020911D
:101D6000530323FF14C089E290E0089520915203A9
:101D700020FD38C03091530330FF09C024FF3FC01D
:101D800090E080E008952091520322FDF7CF08955E
:101D90002091520322FD36C03091530330FD35C0EF
:101DA00024FDEECFF4CF2091520323FFF0CF24FD8A
:101DB000E7CFCDCF2091520323FD2AC030915303AA
:101DC00031FFEECF84EE90E008952091520325FD7F
:101DD000CACF08952091520325FD1DC020915303C1
:101DE00023FFD5CF89E390E008952091520326FD8B
:101DF00015C008952091520326FD13C0089583EE67
:101E000090E0089582EE90E0089580EE90E00895CD
:101E100086EE90E0089585E390E008958AE290E0F0
:101E2000089581E390E0B3CF7A30B8F46630A8F437
:101E30008530B0F4E62FF0E096E0799FE00DF11DDB
:101E400011249CE3899FE00DF11D1124EE0FFF1F6B
:101E5000E05EF24F85919491089580E090E00895BE
:101E600081E0FCCF1F93CF93DF930E94700EEC01B3
:101E7000C11580E5D807E8F5C11580E4D80708F05A
:101E80009BC0C03ED10518F5CD3CD10508F081C0FE
:101E9000C83AD10570F4C53AD10508F072C0C13016
:101EA000D10511F118F0C430D105F0F4D0E0C0E054
:101EB0001BC0C33CD105D0F7C85AD0E0CC0FDD1F02
:101EC000CA50DE4F0990D881C02DD4640DC0C11511
:101ED00080E2D80708F0CBC0C11581E0D80708F030
:101EE0005AC0C83ED10510F7CE01DF91CF911F91A6
:101EF0000895C03682E5D80718F5C03482E5D807C2
:101F000008F069C0C03282E5D80708F05DC0C1158D
:101F100082E5D80708F493C02C2F2695269580E2F9
:101F2000289F900111248C2F8370C1E0D0E002C063
:101F3000CC0FDD1F8A95E2F7C22BD32BDD68D4CFFF
:101F4000C03A82E5D80760F4C03882E5D80708F4C3
:101F500057C0CF71D0E0DC2FCC27C46FD06AC4CF7C
:101F6000C03C82E5D80708F45EC0C03E82E5D807D1
:101F700008F09CCFDC2FCC27CC27DF71C06FD06A54
:101F8000B3CFC55AD0E0CD50DE4FC881D0E0D06489
:101F9000ABCFD065A9CF8D2F0E94210E182FCE0177
:101FA00099270E94700EC12FD0E0DC2FCC27CC27C0
:101FB000DF71C82BD92B98CFCE0199270E94700EC4
:101FC000CC27DF70D06AF5CFCF71D0E0DC2FCC27E3
:101FD000C16FD06A89CF2C2F26952695277080E275
:101FE000289F900111248C2F8370C1E0D0E002C0A3
:101FF000CC0FDD1F8A95E2F7DC68C22BD32B74CFA0
:102000002C2F26952695277080E2289F9001112479
:102010008C2F8370C1E0D0E002C0CC0FDD1F8A9509
:10202000E2F7DA68EACF8C2F8F710E94210EC82F59
:10203000D0E0DC2FCC27CC27DF71D06255CF8C2F9E
:102040008F710E94210E55E0D695C7955A95E1F7FC
:10205000CF70D0E0DC2FCC27282F30E084FF05C0E4
:1020600044E0220F331F4A95E1F7D069C6CF8D2F88
:102070008F710E94210E182FCE0199270E94700E99
:10208000C12FD0E0DC2FCC27CC27DF71906291CF1D
:10209000809182028111109282020895982F90956A
:1020A00080918D03892380938D030895982F9095B7
:1020B00080918E03892380938E0308958091FE037F
:1020C0009091C503981301C008958F5F8770FACF70
:1020D000B0E0A0E0EEE6F0E10C94A2327C010091C9
:1020E0002A0310912B038091BC029091BD02082B12
:1020F000192BCFE0D0E0CC24C394D12CBC2EC60148
:102100000C2E02C0880F991F0A94E2F780239123B6
:10211000892B49F4219790F7B12C8B2DCDB7DEB7E1
:10212000E9E00C94BE32B7018C2F0E94140F0E947C
:10213000320F019779F3F1CFCF93DF93EC010E9437
:102140006810BE010E94140F0E94320FDF91CF91E0
:1021500008959A3078F5863068F5E82FF0E086E04B
:10216000989FE00DF11D11249E2F977083E0F69546
:10217000E7958A95E1F7EE0FFF1FEE0FFF1FED5A6F
:10218000FD4F50E040E080E0219130E0092E02C098
:10219000369527950A94E2F721703327042E01C063
:1021A000220F0A94EAF7822B4F5F5F4F44305105AC
:1021B00059F7089580E008959A3098F5863088F5AB
:1021C000E82FF0E086E0989FE00DF11D11248E2F9E
:1021D000877041E001C0440F8A95EAF783E0F695E5
:1021E000E7958A95E1F7EE0FFF1FEE0FFF1FED5AFF
:1021F000FD4F30E020E070E05191DF011197CB01FD
:10220000022E02C0969587950A94E2F78170819517
:102210008527842385278C932F5F3F4F24303105FA
:1022200059F708959C01267033272630310531F483
:10223000806190932B0380932A0308958F7EF9CFBA
:10224000E0912A03F0912B0321E030E0D90102C094
:10225000AA0FBB1F8A95E2F7CD01D90102C0AA0FD0
:10226000BB1F6A95E2F7BD018A2B972B02C0220F94
:10227000331F4A95E2F7AF01482359238417950786
:1022800031F42E2B3F2BC9010E9412110895209585
:1022900030952E233F23F7CF21E030E002C0220FFC
:1022A000331F8A95E2F72095309580912A0390910B
:1022B0002B03822393230E9412110895909183038C
:1022C0008095892380938303282F277069F48917C9
:1022D00059F09091530392FF07C086958695869595
:1022E0000E944C1110928303089521E030E002C057
:1022F000220F331F8A95E2F780912A0390912B03D6
:10230000822B932B0E94121108950F931F93CF934A
:10231000DF9301E010E0082E02C0000F111F0A94A5
:10232000E2F7C0918803D09189039E0120233123D5
:10233000232B01F590918303969596959695891395
:1023400002C0109283030E9475110E945B0D60937E
:102350008403709385038093860390938703C0273B
:10236000D127D0938903C0938803DF91CF911F9128
:102370000F9108950E944C11F2CF9093BD0280936B
:10238000BC020895FC0124812223B9F0808191814F
:102390000E949C1092959F70963089F050F4925054
:1023A000923058F4803F19F030F4883E30F481E0E8
:1023B00008959A50F5CF843FD1F380E00895883E88
:1023C000B0F3813FD1F7F3CFA6E0B0E0EAEEF1E160
:1023D0000C94A83226E0FC01DE01119601900D92CA
:1023E0002A95E1F7FC01258189819A81222399F0C0
:1023F000662389F00E946810182F682F89819A81BE
:102400000E94DC1069817A81812F0E94140F269628
:10241000E3E00C94C4320E94A910182FF3CF9C0162
:102420003A9521153F4150F5FC01EE27F170BC01B2
:1024300066277270AC01442754709C0122273870C3
:1024400094FF0EC080E0EF2B09F080E1672B09F0CC
:102450008062452B09F08064232B89F08068089501
:1024600081E0EF2B09F480E0672B09F08260452BB7
:1024700009F08460232B19F08860089580E00895A6
:1024800080914C038531E8F480914D0290E00196F3
:102490008170992780934D0221E030E0281B390B91
:1024A0004CE752E0249FC001259F900D349F900D72
:1024B0001124805E974F0E945B0B089584EA95E09B
:1024C000FACF8832D8F380914C0290E00196817067
:1024D000992780934C0221E030E0281B390B4CE710
:1024E00052E0249FC001259F900D349F900D112430
:1024F00084559F4FE0CF0F931F93CF93DF938B01B2
:10250000EA019091BB03943061F58093E9008FEF6D
:102510009091E800815095FD06C095ED9A95F1F7F0
:1025200000008111F5CF8091E80085FF1AC00E945C
:102530001F0C811111C08091E80085FD06C08091BB
:10254000E8008E778093E800F2CFF80181918F0147
:102550008093F100219779F78091E8008E7780933E
:10256000E800DF91CF911F910F91089543E050E073
:10257000BC0182E00E947B120895CF93DF93EC01AF
:1025800048E050E0BC0181E00E947B1288E0FE013F
:10259000A7EAB3E001900D928A95E1F7DF91CF9120
:1025A0000895B0E0A0E0E7EDF2E10C94A1327C01E7
:1025B0005B016A018091AB0201E010E08A3010F407
:1025C0000AE010E0C1E0D0E0B501C701F6010995CD
:1025D000811104C021960C171D072CF4CDB7DEB76E
:1025E000EAE00C94BD32CC9F9001CD9F300D300DB0
:1025F000112490E080E045E34A95F1F70000019650
:1026000082179307C1F7E0CFCF93DF93682F81E064
:102610006A3019F06D3031F480E00E948513DF914B
:10262000CF910895809108069091090626E0FC015B
:10263000A0E0B4E001900D922A95E1F7603E08F425
:1026400059C026E0FC0111922A95E9F7C0910806CD
:10265000D091090646E050E0BE0180E094E00E947F
:10266000B433892B59F1CE01885094409C0145E048
:10267000369527954A95E1F741E050E0BA0102C04E
:10268000660F771F2A95E2F79B016091060470910F
:102690000704262B372B059665E0969587956A9556
:1026A000E1F7FA0102C0EE0FFF1F8A95E2F7CF01B2
:1026B000822B932B90930704809306049E01225053
:1026C00034404091FF03642F70E0C9010E948532BD
:1026D000481B463010F4240F311D2115F2E03F074E
:1026E00010F030E020E0285F3B4F30930906209344
:1026F000080695CFF6E06F9FB001112469577F4E11
:1027000046E050E00E94D032A1CFCF93382FE09125
:102710000806F0910906E850F4402091FF03622F6B
:1027200070E0CF010E948532281B822F332361F095
:1027300066E00E942B33C82FC15010F4CF9108954A
:1027400080E20E940413F8CF9F01280F311D21154C
:10275000324018F080E0F0E0E0E08E0F9F2F911DF6
:10276000885F9B4F9093090680930806E7CFCF932D
:10277000C0918E0380918D03C82B809182028823A3
:1027800051F0C82BE6E4F2E097E080E0915031F59B
:1027900081110E944810C093440248E050E06AE76B
:1027A00072E084E492E00E94B433892BA9F088E0BF
:1027B000E4E4F2E0AAE7B2E001900D928A95E1F735
:1027C000E0919503F0919603309731F00280F38108
:1027D000E02D84E492E00995CF9108952191222380
:1027E000A9F28F5FD3CF10928E03E6E4F2E086E089
:1027F000DF011D928A95E9F790E080E00E94A90D23
:1028000090E080E00E94840D10928D030E94B71327
:1028100008950E94F3132FEF84E39CE02150804041
:102820009040E1F700C0000088E19AE00FB6F8940C
:10283000A895809360000FBE90936000FFCFCF9368
:10284000DF93EC014A855B856E857F850E94DF0DF5
:102850008B810E944E108C810E9456100E94B713EB
:1028600086E0FE0111928A95E9F7DF91CF910895F4
:10287000CF93DF93EC018D8181FD17C082608D8342
:1028800080918D039B81892B80938D0380918E0392
:102890009C81892B80938E030E94B71348855985AC
:1028A0006E857F85CE010E94DF0D109290031092FD
:1028B0008F038D8180FD03C0CE010E941F14DF9124
:1028C000CF910895882321F00E944E100E94B713E3
:1028D000089580918203882329F082E20E94621485
:1028E000109282030895882339F090918D03892BEB
:1028F00080938D030E94B7130895882321F00E94CE
:1029000056100E94B7130895882339F090918E03D2
:10291000892B80938E030E94B7130895882381F139
:102920009CEF980F913A70F4E4E4F2E092818913FD
:1029300001C01282319692E0EA34F907B9F70E9499
:10294000B713089590E2980F983050F4877091E093
:1029500001C0990F8A95EAF7892F0E945610EFCF90
:102960009BE5980F933028F490E080E00E94A90D39
:102970000895885A8B3120F490E080E00E94840D05
:102980000895CF93DF93EC010E948E14CE010E9434
:102990000F129E01205E31092830310510F0CD2B39
:1029A00029F40E947D14DF91CF9108950E94621452
:1029B000FACFFC018281813031F4FB018081918169
:1029C0000E94C11408958230E9F7FB01828193814E
:1029D000F7CFCF938823C1F0C82F8CEF8C0F813AAB
:1029E00010F5A6E4B2E0E4E4F2E08CE492E02D918C
:1029F000C21761F08A179B07D1F76C2F84E492E02D
:102A00000E946A0D0E94B713CF9108958AE492E064
:102A10002281C21301C0128231968E179F07C1F71F
:102A20000E94B713EACF80E28C0F883068F4C77039
:102A300021E030E001C0220FCA95EAF780918E03B1
:102A4000822B80938E03DECFEBE5EC0FE33040F476
:102A5000F0E0ED50FE4F808190E00E94A90DD4CFB0
:102A6000C85ACB3188F6EC2FF0E0EE0FFF1FEA508A
:102A7000FE4F808191810E94840DC6CF1F93CF931A
:102A8000DF93182FEB010E94E914209739F4812F6E
:102A90000E948E14DF91CF911F9108958FE99FE0DE
:102AA0000197F1F700C000002197EFCFA2E0B0E05E
:102AB000ECE5F5E10C94A1329A8389838AE0A82E93
:102AC000CE0101960E94E50D8823E1F1813009F0E5
:102AD00053C0CE0101960E94E50D813069F4CE010C
:102AE00001960E94E50D60E570E0893311F070E019
:102AF00060E00E943E15E4CF823039F4CE010196A9
:102B00000E94E50D0E94E914DBCF833039F4CE0139
:102B100001960E94E50D0E948E14D2CF843081F47C
:102B2000CE0101960E94E50D10E000E0482F4053D1
:102B3000550B9A014A30510548F00115110599F4D9
:102B40008111BECF2296EAE00C94BD32A09EC00156
:102B5000A19E900D11248901080F191FCE01019625
:102B60000E94E50DE3CFEFE9FFE03197F1F700C0F8
:102B7000000001501109E1CFE82FF0E0E950FA4ED2
:102B8000B490282F26952695269530E0F901E95135
:102B9000FA4EE4908770F12C082E02C0F594E79469
:102BA0000A94E2F7F1E0EF22FF24F901E952FA4E2C
:102BB000C490D12C082E02C0D594C7940A94E2F791
:102BC00041E0C422DD24F901E953FA4E049110E0FA
:102BD00002C0159507958A95E2F701701127E11457
:102BE000F10419F081EE0E94E914C114D10419F026
:102BF00086EE0E94E91470E060E08B2D0E943E1585
:102C0000C114D10419F086EE0E948E14E114F1046F
:102C100019F081EE0E948E140115110509F450CFB0
:102C200070E060E08CE265CFCF93DF93EC010E940F
:102C30000F129E01205E31092830310510F02097D7
:102C400041F40E9484148C2F0E94E914DF91CF91EB
:102C500008950E947314F7CFFB01808191810E9437
:102C600014160895CF93DF93FC012281223049F49A
:102C7000FB01EC01828193810E9414168D81826098
:102C80008D83DF91CF9108950F931F93CF93DF939F
:102C9000EC01FC0101900020E9F78F0101501109BE
:102CA000C017D10728F0DF91CF911F910F910895A0
:102CB00089910E940413F4CFAB0124E630E0BC01FB
:102CC00088E70E94383021E0892B09F020E0822F2C
:102CD000089580917E0390917F03911103C091E04C
:102CE00089270895882369F062E070E08CE99FE00D
:102CF0000E945C16811103C080917E03089510929A
:102D00007E0380917E03EBCFCF93C0917E038091B1
:102D10007F038823D1F00E945B0D605A75418F4F6D
:102D20009F4F60937A0370937B0380937C0390930F
:102D30007D03C11108C062E070E08AE99FE00E9453
:102D40005C16811105C0C0917E038C2FCF91089530
:102D500081E080937E03F7CF9091530392FB22276B
:102D600020F9281779F080FB92F990935303609132
:102D700052037091530384E090E00E94153382E087
:102D80000E945E110895CF92DF92EF92FF921F93FF
:102D9000CF93DF9300D000D0CDB7DEB7C0909802BC
:102DA000D0909902E0909A02F0909B020E945B0DF5
:102DB0006C197D098E099F0911E064367105810542
:102DC000910570F10E94070E6E5F7F4F8F4F9F4FEE
:102DD00069837A838B839C838091190190911A0176
:102DE00084569D4F4091180150E04530510510F038
:102DF00044E050E0BE016F5F7F4F0E94C13382E02C
:102E000090E00E940E32182F882351F00E945B0D33
:102E1000609398027093990280939A0290939B0218
:102E2000812F0F900F900F900F90DF91CF911F91F6
:102E3000FF90EF90DF90CF900895A1E0B0E0E3E243
:102E4000F7E10C94A33210914C0319830091A60270
:102E5000C090A702D090A802E090A902F090AA0228
:102E60000E945B0D6C197D098E099F0964367105FE
:102E70008105910510F4011749F18091210190918C
:102E8000220184569D4F4091200150E0411551058B
:102E900011F041E050E0BE016F5F7F4F0E94C133EF
:102EA00083E090E00E940E32182F882351F00E9498
:102EB0005B0D6093A7027093A8028093A902909380
:102EC000AA02812F2196E8E00C94BF3211E0F9CFDD
:102ED0008F929F92AF92BF92EF92FF921F93CF93E8
:102EE000DF9300D000D000D0CDB7DEB77B0190E0FB
:102EF00080E00E940E32182F882309F464C04091AC
:102F00000B0150E04115510511F041E050E0609196
:102F10000C0170910D0164567D4FCE0106960E9402
:102F2000C1338090940290909502A0909602B09048
:102F300097020E945B0D681979098A099B0964361A
:102F400071058105910538F48DE992E00E94E90B45
:102F50009E818917C1F181E090E00E940E32182F06
:102F6000882391F04091130150E04630510510F054
:102F700045E050E0609114017091150164567D4F59
:102F8000CE0101960E94C1338DE992E00E94E90BC7
:102F900091E02E81281390E0192301F10E945B0D2E
:102FA0006093940270939502809396029093970297
:102FB00085E0FE013196AFE8B2E001900D928A956E
:102FC000E1F711E00BC085E0EDE9F2E0DE011196DA
:102FD00001900D928A95E1F71111EACF85E0EFE8B3
:102FE000F2E0D70101900D928A95E1F7812F2696A4
:102FF0000FB6F894DEBF0FBECDBFDF91CF911F910A
:10300000FF90EF90BF90AF909F908F90089578942D
:103010001F920F920FB60F9211248F939F93AF932D
:10302000BF938091A2039091A303A091A403B091B8
:10303000A5030196A11DB11D8093A2039093A30344
:10304000A093A403B093A503BF91AF919F918F91DB
:103050000F900FBE0F901F9018952FB7F894809186
:10306000A2039091A303A091A403B091A5032FBF45
:1030700008953091A00320919C03321720F42091F1
:103080009C032093A0036093990370939A03809309
:103090009B0390939C030E942D189093B3038093FD
:1030A000B20381E08093B1030895AAE2B0E0EBE5BA
:1030B000F8E10C94A532EDEBF3E08091F1008193FF
:1030C00023E0E53CF207C9F78091BE03833009F4A1
:1030D00087C008F5813009F45EC0823009F4E0C091
:1030E0008091E80083FF1AC18091BD039091BE03D7
:1030F0009A3008F013C1E92FF0E0EF57F74E0C9427
:103100008C33611987198E1987198E19DF19011AE5
:103110008E198A1B971B8A3009F4A7C08B3009F4DB
:103120007CC08930E9F68091BD038132C9F6809177
:10313000C1039091C203029798F68091E800877FBF
:103140008093E8008091E80082FF45C08091F30001
:103150009091F200892798278927029731F480916E
:10316000F100813011F0863071F48091F10080938C
:103170006A016091690170916A0180916B0190917F
:103180006C010E9439188091E8008B778093E800E9
:103190000E944E0CA5CF8091BD03813A09F0A0CFCB
:1031A0008091E800877F8093E8008091C10390912F
:1031B000C203892B61F060E090E080E070E00E9443
:1031C000FA0C8091E8008B778093E80089CF68E063
:1031D00087EA93E0F3CF8091BB038111B3CF80CF17
:1031E0008091BD03813A09F07BCF8091C10390911A
:1031F000C203892B09F074CF8091E800877F809308
:10320000E8008091E80080FFFCCF80916B01809303
:10321000F1008091E8008E77B9CF8091BD038132B3
:1032200009F05ECF8091C1039091C203892B09F010
:1032300057CF8091E800877F8093E8000E944E0C72
:1032400081E09091BF03911101C080E080936B01F8
:103250006091690170916A0180916B0190916C019C
:103260000E9439180E94F3133BCF8091BD03813235
:1032700009F036CF8091E800877F8093E8000E94B4
:103280004E0C8091C0038093690160916901709137
:103290006A0180916B0190916C010E94391820CFD6
:1032A0008091BD03813A09F01BCF8091E800877FB0
:1032B0008093E8008091E80080FFFCCF8091690155
:1032C000A6CF803889F0823849F58091C1038F708C
:1032D000873020F58093E9008091EB0085FB8827FB
:1032E00080F91092E90006C08091AF039091B0037D
:1032F000911182609091E800977F9093E80080930D
:10330000F1001092F1008091E8008E7727C0282FFD
:103310002D7F21F48823A1F0823029F18091E800EB
:1033200083FF0AC08091E800877F8093E800809146
:10333000EB0080628093EB00AA96E6E00C94C13229
:103340008091BF03813051F7933009F080E0809382
:10335000B0031092E9008091E800877F8093E80035
:103360000E944E0CDBCF8091BF038111F2CF809180
:10337000C1038F702FEF280F263080F68093E9006D
:103380002091EB0020FFE5CF933031F48091EB00EA
:1033900080628093EB00DDCF9091EB009061909381
:1033A000EB0021E030E001C0220F8A95EAF720937C
:1033B000EA001092EA008091EB008860EACF811168
:1033C000ADCF1091BF031F778091E3008078812BF0
:1033D0008093E3008091E800877F8093E8000E945B
:1033E0004E0C8091E80080FFFCCF8091E300806864
:1033F0008093E30083E0111101C082E08093BB035E
:103400008DCF8058823008F089CF8091BF03909192
:10341000C0038C3D43E09407A1F583E08A838AE2F0
:1034200089834FB7F894DE01139620E03EE051E225
:10343000E32FF0E050935700E49120FF03C0E295A2
:10344000EF703F5FEF708E2F90E0EA30C0F0C796CC
:103450008D939D932F5F243159F74FBF8091E800E2
:10346000877F8093E8006AE270E0CE0101960E94B7
:10347000FA0C8091E8008B778093E8004FCFC096DC
:10348000E7CF4091C1035091C203292F3327233046
:10349000310509F448C080F52130310509F4EFC049
:1034A0002230310509F03ACF0BE310E0E4E1EE2ED3
:1034B000E0E1FE2E8091E800877F8093E800809114
:1034C000C3039091C4030817190708F4C80140E02A
:1034D000009709F0E9C04111E7C08091E80082FD42
:1034E000C8CF8091BB03882321F2853011F28091EF
:1034F000E80083FFF2CFBDCF2132310509F4B1C01E
:103500002232310509F00ACF4115510509F4C5C031
:103510004130510509F002CF02E310E03EE9E32E0D
:103520003FE0F32EC7CF99278130910509F45AC0A7
:1035300040F0029709F460C010E000E0F12CE12CAB
:1035400009C0E3E8F0E1E4910E2F10E073E8E72E04
:1035500070E1F72E2091C3033091C4038091B5032D
:103560008F5F8093B5033093BA032093B903223061
:10357000310509F04BC09091B6039F5F9093B6035D
:10358000833010F19091B803923038F04091B70336
:10359000411163C0891709F45EC04091B6038530BC
:1035A00008F447C02F3F310509F04BC0992309F4B7
:1035B0004AC083E0423008F051C0411105C08091FB
:1035C000B703882309F447C00E942D189093B303D2
:1035D0008093B20381E08093B1030115110509F4D2
:1035E0009DCE68CFE1E7F0E1E4910E2F10E061E7B6
:1035F000E62E60E1F62EAECFE1E6F0E1E4910E2F8B
:1036000010E051E6E52E50E1F52EA4CF243031052F
:1036100031F49091B7039F5F9093B703B1CF2F3FE1
:10362000310509F0ADCF9091B8039F5F9093B80337
:10363000A7CF843031F49111C0CF423021F484E01F
:103640000DC09111BACF433009F0BECF8091B703BE
:10365000813009F0B9CF81E001C082E08093B403EA
:10366000B3CF4115510591F04130510509F056CEC7
:1036700009E010E04FE3E42E40E1F42E1BCF02E11D
:1036800010E02FE4E22E20E1F22E14CF09E010E04A
:1036900096E2E92E90E1F92E0DCF04E410E080EDE2
:1036A000E82E8FE0F82E06CF2091BB03222309F4E9
:1036B000E0CE253009F4DDCE2091E80023FDD9CEFF
:1036C0002091E80022FD09CF2091E80020FF00CFE3
:1036D0002091F3003091F20023273227232700970F
:1036E00019F02830310558F041E02830310509F053
:1036F00040E02091E8002E772093E800E9CEF70122
:1037000044914093F100FFEFEF1AFF0A01972F5FFA
:103710003F4FE5CF803809F001CE8091E800877FE8
:103720008093E8008091BC038093F100ECCD81117F
:10373000F5CD1091BF03123008F0F0CD8091E80074
:10374000877F8093E8001093BC030E944E0C1123E6
:10375000F9F084E08093BB0342E061EC81E00E94D9
:103760006D0C42E261EC82E00E946D0C8091BB0323
:103770008430A1F482E080936C01609169017091C2
:103780006A0180916B0190916C010E943918C6CD3D
:103790008091E30087FDDDCF81E0DCCF81E0EBCFDE
:1037A0001F920F920FB60F9211242F933F934F93B6
:1037B0005F936F937F938F939F93AF93BF93CF93B9
:1037C000EF93FF93C091E900CF708091EC001092CD
:1037D000E9008091F000877F8093F00078940E9448
:1037E00055181092E9008091F00088608093F000F5
:1037F000C093E900FF91EF91CF91BF91AF919F915D
:103800008F917F916F915F914F913F912F910F9089
:103810000FBE0F901F9018951F920F920FB60F9228
:1038200011242F933F934F935F936F937F938F93C5
:103830009F93AF93BF93CF93EF93FF938091E1005A
:1038400082FF09C08091E20082FF05C08091E10003
:103850008B7F8093E1008091DA0080FF24C080910B
:10386000D80080FF20C08091DA008E7F8093DA003C
:103870008091D90080FFD2C080E189BD82E189BDFD
:1038800009B400FEFDCF81E08093BB038091A603C5
:10389000811109C00E94000C0E949F0C8091E200DF
:1038A00084608093E2008091E10080FF24C08091D9
:1038B000E20080FF20C08091E2008E7F8093E200D2
:1038C0008091E20080618093E2008091D800806264
:1038D0008093D80019BC85E08093BB0383E080937C
:1038E0006C016091690170916A0180916B01909106
:1038F0006C010E9439188091E10084FF39C08091E9
:10390000E20084FF35C080E189BD82E189BD09B450
:1039100000FEFDCF8091D8008F7D8093D8008091EC
:10392000E1008F7E8093E1008091E2008F7E8093A2
:10393000E2008091E20081608093E2008091BC030C
:10394000882309F471C084E08093BB038091BB039A
:10395000843009F471C081E080936C016091690149
:1039600070916A0180916B0190916C010E943918ED
:103970008091E10083FF40C08091E20083FF3CC062
:103980008091E100877F8093E10082E08093BB0318
:103990001092BC038091E1008E7F8093E1008091C2
:1039A000E2008E7F8093E2008091E200806180934C
:1039B000E20042E060E080E00E946D0C8091F00047
:1039C00088608093F000C1E0C0936C016091690150
:1039D00070916A0180916B0190916C010E9439187D
:1039E000C0936B016091690170916A0180916B01D4
:1039F00090916C010E943918FF91EF91CF91BF9186
:103A0000AF919F918F917F916F915F914F913F9176
:103A10002F910F900FBE0F901F90189519BC109208
:103A2000BB031092A6033FCF8091E30087FD02C045
:103A300081E08ACF83E088CF82E08ECFB0E0A0E043
:103A4000E4E2FDE10C94A3326B01C42FD22FFC0100
:103A500085818823A9F040938C030E942D189093B0
:103A60008B0380938A03C77081E001C0880FCA95D9
:103A7000EAF70E948414CDB7DEB7E8E00C94BF32B9
:103A800010918C0314133BC0E0908A03F0908B03D9
:103A90000E942D188E199F097C01C6010E94AA0B55
:103AA000E816F90660F5C0E2CD0F1D17C1F080E2FF
:103AB000810F883048F4177081E0012E01C0880F13
:103AC0000A94EAF70E947D14C83000F581E09D2F2A
:103AD000977001C0880F9A95EAF70E94841470E0ED
:103AE00060E0802F0E943E15C83028F6D77081E034
:103AF00001C0880FDA95EAF70E947D14BCCFC77029
:103B000081E001C0880FCA95EAF7F6CF70E060E067
:103B1000802F0E943E15AFCF8091820381110FC08C
:103B200010928E030E9448100E942D1888579C4EB8
:103B3000909381038093800381E0809382030895B2
:103B4000AFE0B0E0E6EAFDE10C949C328E010F5F3D
:103B50001F4F8AE0F80111928A95E9F78EE2E82E6C
:103B600082E0F82E680193E3692E92E0792EAA2470
:103B7000A394B12C39E3832E32E0932EF701819187
:103B80007F018F3F09F440C0F894E82FE295EF7071
:103B9000F0E021A18F70A50102C0440F551F8A9546
:103BA000E2F7CA01922F982B91A392A180958923C5
:103BB00082A3789400C0E3E3F2E0512C31E021913C
:103BC0002F3F09F492C0A22FA295AF70B0E090965B
:103BD0008C9190E02F7002C0959587952A95E2F719
:103BE00080FD83C0832F582A330F8E169F0639F726
:103BF000F701319780818F3F11F00E94F00D50EA5C
:103C00005A95F1F7F6015082FFEFCF1ADF0A6E14D2
:103C10007F0409F0B3CF4AE050E0B80180EB92E0B6
:103C20000E94B433009741F02AE0F801A0EBB2E023
:103C300001900D922A95E1F70091BB0210E0025429
:103C40001D4F892B09F453C081E0809387020E94A5
:103C50002D189093860280938502D12CC0909103F9
:103C6000CC2009F4A1C07E012BE0E20EF11C85E01E
:103C7000F70111928A95E9F78091AB028A3008F03A
:103C80005CC048E657E1B701C8010E94D112882301
:103C900009F477C043EC56E1B701C8010E94D11284
:103CA000882309F46EC04DE157E1B701C8010E94B5
:103CB000D112882309F465C01092AB028091BA0238
:103CC00090E045E050E0B70182549D4F0E94B4332C
:103CD00021E020938E02892B09F046C0C12C8C2D47
:103CE0008D292F96EFE00C94B83280E07CCFD090F5
:103CF0008702DD2009F4B1CFE0908502F0908602C2
:103D00000E942D188E199F09059708F4A6CF45E04B
:103D100050E060EB72E0C8010E94B433892B59F087
:103D200085E0E0EBF2E0D80101900D928A95E1F791
:103D30001092870293CFD12CFBCFA0908802B09035
:103D400089020E942D188A199B09843F914008F02E
:103D500098CF80918E02882309F285E0F7011192B5
:103D60008A95E9F710928E02A091BA02B0E0A254AF
:103D7000BD4F85E0FE013B9601900D928A95E1F7DB
:103D8000AECF8091AB028F3F19F08F5F8093AB0273
:103D90008091AB028A3008F491CF0E942D18909345
:103DA000890280938802D5CF85E0F801ADE9B2E0C1
:103DB00001900D928A95E1F78DE992E00E94E90B5E
:103DC00080939C028090A2029090A302A090A402F3
:103DD000B090A50280918A0290918B02A0918C02F2
:103DE000B0918D0288169906AA06BB06B1F08092A2
:103DF0008A0290928B02A0928C02B0928D020E9455
:103E00005B0D861A970AA80AB90A8092AC029092B2
:103E1000AD02A092AE02B092AF028091A602809352
:103E20004C035DCFB0E0A0E0E8E1FFE10C94A232EA
:103E3000DC0114962C91222309F4B5C07C0161E0C9
:103E40000E94E411EC01F7018581882321F1E091C2
:103E50008F03F09190033097F1F0CE17DF07D9F080
:103E6000FF27E230F10508F06FC094E0EE0FFF1F6E
:103E70009A95E1F7ED5CFE4F858184608583D1835F
:103E8000C083CF010E94381410928D0361E0C701F6
:103E90000E94E411EC01D70115962C91222309F41C
:103EA0005CC0AE015A95CE0199274115BFE45B076E
:103EB00038F0CE01CF3FD10519F010F090E080E04E
:103EC000BC01645071096432710518F08B970E972C
:103ED00080F4E091DB02F0E0EE0FFF1FE052FD4FB7
:103EE000808191818F3F3FE7930719F0019691837D
:103EF000808341155F4458F5CE0199278C34910594
:103F000011F08A9789F4E091DB02F0E0EE0FFF1FD9
:103F1000E052FD4F808191818115A0E89A0709F454
:103F2000C0C6019791838083C134AEE7DA0709F4F4
:103F3000A5C608F0A6C6C034EEE7DE07B9F48EE1E8
:103F40009DE00E94561538C0F0E0E0E095CFCF3FED
:103F5000D10509F048F7CE01D1CFC234BEE7DB0767
:103F600059F130F5C034FEE7DF0730F5C3378CE791
:103F7000D80711F5222339F080918203882309F4B0
:103F80009EC00E94691480918303877061F0D701FD
:103F900015968C91882339F08091530382FF03C0DA
:103FA00082E00E945E11CDB7DEB7E9E00C94BE322C
:103FB000C3343EE7D307D1F680918203811185C0D7
:103FC000D70115968C91882351F1C13ED10529F076
:103FD000C23AB2E5DB0709F075C080915002882330
:103FE00071F0F7018281938120914E0230914F024E
:103FF000821B930B8F3F9F4710F00E948C1D81E026
:1040000080935002CE010E94AA0BD70112962D91E7
:104010003C91820F931F90934F0280934E02CE01EA
:1040200097558F3F910511F008F043C1FE01FF271E
:10403000E230F1050CF0A7CFA4E0EE0FFF1FAA9528
:10404000E1F78F010D5C1E4FD70115969C911597D6
:10405000E85CFE4F808190FB80F9808315968C91FF
:10406000882309F409C10E942D189093D4028093EB
:10407000D302F80182818F5F828380918D039091BA
:104080008E03892B838380918202848346815781AA
:1040900066857785C8010E94DF0DD80115968C9141
:1040A00081FDE7C09C2F8D2F90938F038093900309
:1040B00084C0222309F480CF8AE19DE042CF0E9490
:1040C0008C1D61CF10925002AACF00918E031091E7
:1040D00082020E942D1888579C4E909381038093F2
:1040E0008003F7018581882309F499CF102B1D796E
:1040F00009F0ABC0C034F2E5DF0780F5C11522E559
:10410000D20708F08CCFC11530E4D30758F4C1159D
:1041100080E2D80708F040C0C63ED10509F47FCF41
:10412000CE010BC0C11590E5D907D0F7F701868104
:10413000807F09F447C0CE01992710928D03883201
:10414000910508F085C08E31910508F088C004976C
:1041500008F47BC082E080938D0381C0C03EA2E55D
:10416000DA07A0F4C03CB2E5DB0708F058CFC03650
:10417000E2E5DE07A8F2C03AF2E5DF0708F44FCF28
:10418000C43B22E5D20709F44ACFCACFCE018757F4
:104190009C47029728F643CFD70116968C91807FD3
:1041A00051F68D2F8F71823109F44DC008F046C051
:1041B000823009F448C00E946914F7018581882380
:1041C00009F41FC510928C03CE019057839708F015
:1041D00001C584E090E00E94E13290935303809304
:1041E0005203FE01E150F047E232F10508F0A0C0B1
:1041F000E450FF4D0C948C33D2214722DA21A421C4
:10420000A821DE21AC21E221EE21B8214022BC21EF
:10421000F221C021F6211E22C421FA212522CA2121
:1042200000220822B021E621B421EA21CE21042275
:1042300014222E223E229E21D6214E228431C9F103
:10424000863109F0B8CF10928D030E946914E7CE31
:104250008D32910509F47ECF28F48A97B1F70E9438
:10426000B713DDCE8C349105D1F38D329240B9F382
:10427000ECCF90E080E018CFF80144855585668545
:104280007785C8010E94DF0DD80115968C9181FFBA
:1042900094CFC8010E941F1480918F0390919003C6
:1042A000C817D90709F089CF1092900310928F0395
:1042B00084CFFE01E851FC47E730F10508F07DCFDF
:1042C000EC59FE4D0C948C337A2180216B217421A2
:1042D00086218C21922106E221EE41EE6AE17CE703
:1042E000C7010E941E1D4FCE07E225EE45EE6BE191
:1042F0007CE7F6CF06E221EE40EE68E17CE7F0CF06
:1043000007E225EE44EE69E17CE7EACF06E221EE22
:1043100042EE6CE17CE7E4CF07E225EE46EE6DE18C
:104320007CE7DECF08E221E045EE6EE17CE7D8CF06
:104330008091520381608093520395C08091530312
:104340008860809353038FC0809152038260F3CFC3
:10435000809152038460EFCF809152038860EBCF4D
:10436000809153038160EDCF809153038260E9CF48
:10437000809152038061DFCF809152038062DBCF56
:10438000809152038064D7CF0E94F313809152032F
:104390008068D1CF809152038860DCCF8091530335
:1043A0008260E0CF809152038E7FC5CF809153030E
:1043B000877FC7CF809152038D7FBDCF80915203FD
:1043C0008B7FB9CF80915203877FB5CF8091530304
:1043D0008E7FB7CF809153038D7FB3CF80915203EF
:1043E0008F7EA9CF809152038F7DA5CF80915203FC
:1043F0008F7BA1CF0E94F313809152038F779BCFC5
:1044000080915203877FDCCF809153038D7FE0CF73
:104410008091520382FB992790F921E0922790FB2B
:1044200082F990FB83F987CF80915303982F909561
:1044300091708E7F892B90FB81F983CF90915203ED
:10444000892F8F7B96FF806476CF0E94F313909123
:104450005203892F97FB87F980586DCF61E08EE07A
:1044600090E00E94F732609152037091530384E010
:1044700090E00E9415330E94F31385CD60E0EFCFEA
:1044800090915203892F8F7E94FF806154CF909139
:104490005203892F8E7F90FF81604DCF90915303FF
:1044A000892F877F93FF88604CCF89E2E4E4F2E0B4
:1044B0002AE432E09281891301C0128231962E17CC
:1044C0003F07C1F79BC381E00E94751143E062E0A2
:1044D00081E00E94201157CD81E00E944C11F6CF5F
:1044E00082E0F2CF0E945B0D60938403709385039A
:1044F000809386039093870380912A0390912B03E6
:104500002091880330918903AC0140955095422356
:104510005323452B31F028233923309389032093EB
:104520008803D70115964C91CB37BCE7DB0749F5DB
:10453000442309F428CD292F332721153105F9F417
:104540009C0180E0A90174E0569547957A95E1F7C2
:104550004115510511F08C5F9A01A90156954795B7
:10456000569547954115510511F08E5F9A01369584
:104570002795232B09F08F5F0E94851104CD88E0D9
:10458000E1CFC115E2E5DE07F0F4C115F0E5DF0784
:10459000E8F5C11520E4D20708F055C0442309F41A
:1045A0006CC0C330BCE7DB0709F4EFC008F0C3C040
:1045B000C115FCE7DF0709F4CCC0C130DC4709F0C6
:1045C0005CC00E940914C03232E5D30738F3C0340E
:1045D00082E5D80728F0CE01805C92458097F0F6FE
:1045E0008C2F8F7121E030E0082E02C0220F331F84
:1045F0000A94E2F760918803709189032623372398
:10460000232B61F2442309F4BECCB6CFCE0125E0C2
:10461000969587952A95E1F78F7021E030E0082E76
:1046200002C0220F331F0A94E2F760918803709151
:10463000890326233723232B09F4B0CF41119CCFC4
:1046400010928E03DBC2D70116968C91807F09F001
:10465000A5CF411112C02D2F2F7081E090E002C034
:10466000880F991F2A95E2F72091880330918903DA
:1046700082239323892B09F086CCF7018581C081A1
:10468000D181882309F494C0CE010E946810182FAC
:10469000682FCE010E94DC10BE01812F0E94140FF2
:1046A0000E94320FD82FC92FB82ED7011596DC9053
:1046B00015971696CC90C2948FE0C8228091830300
:1046C000877001F10D2DDD20F1F0892F807F80347E
:1046D00069F080E28D0F8830A8F0892F807E8032CB
:1046E00029F4B1E0BD1770F4CC2061F08091530340
:1046F00082FF08C082E00E945E1180918303877070
:1047000001E009F000E01C2F12951F701C3008F02A
:10471000ABC0E12FF0E0E157FC4D0C948C33DD236E
:10472000DD230F240F24A424342434243424C4246B
:10473000512562256225CB353CE7D307B9F1CC354D
:104740008CE7D80749F1CA35DC4709F096CF81E0FC
:104750002AC00E94F313AFEFB4E3ECE0A150B040E5
:10476000E040E1F700C0000087E797E79093010879
:104770008093000888E19AE00FB6F894A89580939A
:1047800060000FBE90936000FFCF6FEF7FEF90E06F
:1047900080E00E94153315CF8091530382FB882758
:1047A00080F991E089270E94AC1667CF80E0FBCFAB
:1047B000CE010E94A910182F6FCF1C2F1F70C07F31
:1047C00011F01295107F8D2FDD20B9F0112369F0C3
:1047D00090E29D0F983010F0D11109C080918E03A6
:1047E000182B10938E030E94B7138D2F3BC080911E
:1047F0008D03182B10938D03F6CF0E948E14112376
:1048000099F1D05E812FD83010F0B11003C00E9412
:10481000561002C00E944E100E94B71325C01C2FD4
:104820001F70C07FC03211F01295107FBB2051F075
:10483000E1E0BE1609F468C0DD2009F474C0CC20A4
:10484000C1F1D3CF8091530382FD2FC0DD2031F120
:10485000112339F080918E03182B10938E030E9440
:10486000B71380E00E94E914002309F4C3C08091CB
:10487000830380FDBFC0D70115961C92869586954F
:1048800086950E947511C7010E94121F80918303B3
:104890008695869586950E944C11ACC080E00E945A
:1048A0008E14112309F3812FB2CFDD2099F0C110AE
:1048B00004C0812F0E948414D7CFF1E0CF12D4CF4F
:1048C00080918202912F9823191771F2182B10935F
:1048D0008202CACFC110C8CF812F0E947D1490914F
:1048E0008202812F892329F0812F8095892380934B
:1048F000820280915202912F982309F4B5CF10952E
:10490000182310935202B0CFDD2029F025E02C159A
:1049100008F4AACFCECF34E03C1508F4A5CF812F00
:104920000E947D14A1CFCC20D1F3D93349F48FEF6D
:1049300097EEA3E081509040A040E1F700C0000056
:104940008D2F0E948E1490CF8C2F86958695837024
:1049500039F0813079F01850143008F085CF48C014
:104960008D2F9C2F9370D11002C080E090E00E94A8
:10497000A90D7ACF8D2F9C2F9370D11002C080E0AB
:1049800090E00E94840D70CF8C2F837009F045C099
:10499000D1102EC04D2F429546954770440F440FBD
:1049A0002D2F2F7030E0042E02C0220F331F0A94E7
:1049B000E2F790E080E0D4FF09C08FE090E002C011
:1049C000880F991F4A95E2F780959095C695C695F0
:1049D000C370C230C9F0A8F44091BC025091BD022E
:1049E000C13069F0822B932B842395230E94BD1143
:1049F0000E94CE0D60E0C7010E94E411D4CA242BAE
:104A0000352B822B932BF2CF822B932B2091BC0240
:104A10003091BD0282279327E9CF8695DD2011F0E2
:104A20008C2F8170882321F34D2F42954695477036
:104A3000440F440F2D2F2F7030E0042E02C0220FA0
:104A4000331F0A94E2F790E080E0D4FF09C08FE0C2
:104A500090E002C0880F991F4A95E2F780959095E3
:104A6000C695C695C370C23099F078F440912A0378
:104A700050912B03C13039F0822B932B8423952343
:104A80000E941211B5CF242B352B822B932BF8CFFC
:104A9000822B932B20912A0330912B03822793277B
:104AA000EFCFCF70DD2039F08C2F0E9475118D2F44
:104AB0000E9484149DCF8D2F0E947D148C2F0E9404
:104AC0004C1196CF8D2FB2EFBB1609F43FC0BB152A
:104AD00080F0E0EFBE16F1F0F1EFBF16A1F0DD209F
:104AE00009F464C0CC2009F45EC08D2F0E94E91443
:104AF00032CF23EFB21689F134EFB312F0CF909199
:104B0000530392FD37C08C2F8F71DD2019F10E9465
:104B1000751121CFDD20A9F084E08C1508F41BCF9E
:104B2000CF7181E090E002C0880F991FCA95E2F72B
:104B300020912A0330912B03822793270E94121180
:104B40000ACF95E09C1508F406CFEACF8C2F8F7121
:104B5000DD20E9F20E944C11FECE90E080E0DD20E5
:104B600069F3CF7181E090E002C0880F991FCA9568
:104B7000E2F7E4CFDD2061F08C2F8F7192FFC7CF79
:104B8000A8E08A9F90011124236020938303BFCF64
:104B900081E00E945E11B1E0BC1508F0DCCE82E03D
:104BA0000E945E11D8CE8C2F8F71B1CFCC2079F0BE
:104BB000893349F4EFEFF7EE23E0E150F040204075
:104BC000E1F700C000008D2F0E948E14C4CE8C2F00
:104BD0008F71C0CFC631BCE7DB07F1F480918E0343
:104BE0008A7A91E009F490E09093510265E3811193
:104BF00001C069E284E492E00E946A0D0E94B7134A
:104C0000C2C9C631ECE7DE0771F5809151028823F5
:104C100009F44BCC85E34ACCC737FCE7DF0709F43E
:104C200052CCC8372CE7D20709F45ACC81E09E0158
:104C3000205E32452032310508F054CC811152CC2F
:104C4000CF7181E090E09C0102C0220F331FCA9512
:104C5000E2F7E901622F83E090E00E94F732CE0193
:104C60000E94BD1190C9C7373CE7D30709F434CC83
:104C7000C8379CE7D907D9F682E02FCC8CE19DE0BC
:104C800060C9C234FEE7DF0709F416CAC3343EE741
:104C9000D30709F06BC9222309F48EC988E19DE08E
:104CA00050C9C1348EE7D80749F330F4C034AEE7B9
:104CB000DA0709F05BC943C9C234BEE7DB0709F470
:104CC000F8C9C334EEE7DE0749F350C9B0E0A0E00D
:104CD000ECE6F6E20C94A43280917902807F09F030
:104CE00051C080917802882309F44CC0E091FE0302
:104CF00087E0D82E8091C5038E1709F443C00E2F8C
:104D000010E0ED9DF0011124EA53FC4F84818823CB
:104D1000F1F1D09EE001D19ED00D1124FE01EA53A5
:104D2000FC4F918180917402981331C090818091E1
:104D3000730298132CC08581811129C0E280F38011
:104D40008091750290917602E81AF90A60E083E793
:104D500092E00E94E4110E94AA0BE816F906B8F44A
:104D6000809179028F70806180937902C453DC4F07
:104D700088818F708061888383E792E00E94121F90
:104D80000E945E10CDB7DEB7E7E00C94C032F801A8
:104D90003196E770AFCFA4E1B0E0E1EDF6E20C941C
:104DA0009C328C0186E0F801DE011F9601900D9285
:104DB0008A95E1F7F801F480E58083E7882E82E0A8
:104DC000982E8091770281112AC0F11003C0FF2430
:104DD000F3941CC0EE20F9F0C8010E94C211F82E15
:104DE0008823C9F087E0F801A3E7B2E001900D92B3
:104DF0008A95E1F780917702813031F480917302D6
:104E0000909174020E949C100E9466268F2D6496D9
:104E1000EFE00C94B832C8010E94121FD8CFC280B4
:104E2000D380B0907802809175029091760236011D
:104E3000681A790ABB2009F4F8C05080A18060E0AC
:104E400083E792E00E94E4110E94AA0B681679069B
:104E500008F0A4C0FF2009F4BACF80917902382F5E
:104E6000307F20917402F8019181311157C0FE2CDE
:104E7000291314C020917302908129130FC0E110EF
:104E800046C08F7080618093790283E792E00E9430
:104E9000121F80917902F8018683B8CFE11037C0E4
:104EA0006A2D852D0E94CA0B6A2D852D0E94CA0B82
:104EB000E82E8111ABCF5F86A88A8F8598890E94E2
:104EC0009C10292F22952F70243058F49F70223087
:104ED00080F0992391F0F8019681907F71F4FE2C77
:104EE00095CF2A50223068F0C8010E94121FEB2C87
:104EF000F6CF992311F0882391F3805E8830A0F7D4
:104F0000EECF803F60F3815F833070F7E8CF809110
:104F10007902816080937902F12C78CF291315C032
:104F2000209173029081291310C0E1100EC0868376
:104F3000C8010E94121F87E0F801A3E7B2E00190C8
:104F40000D928A95E1F7FB2C61CFC8010E94C21136
:104F5000882309F460CFEE2009F45DCF80917902B7
:104F6000803288F02091730230917402398728874B
:104F7000DB86CA86909177029C871D868E87CE013C
:104F800008960E94121F87E0F801A3E7B2E00190A3
:104F90000D928A95E1F70E94662619CF80917902D9
:104FA000982F907F51F483E792E00E94121F87E0D0
:104FB000F40111928A95E9F7AFCFFF2009F407CFEA
:104FC00020917402F8019181291311C0209173027C
:104FD000908129130CC0E1100AC08683C8010E9489
:104FE000121F87E0F40111928A95E9F7ACCFC8014E
:104FF0000E94C211882309F40ECFEE2009F40BCFD2
:1050000080917902803208F4BECF209173023091F2
:1050100074023A832983DC82CB82909177029D834C
:105020001E828F83CE010196ACCF60E083E792E0D1
:105030000E94E4110E94AA0B6816790608F0B7CF07
:10504000FF2009F4C4CEFE2CEE2009F4E4CE9091AA
:105050007402F801818198132DC0909173028081B0
:10506000981328C08091750290917602C81AD90AC7
:10507000FAEFCF16D104A8F49091790290FD11C0F7
:10508000907F79F080917902F8018683903F31F02A
:10509000982F907F905F8F70892B8683C8010E9424
:1050A000121F87E0F801A3E7B2E001900D928A9504
:1050B000E1F7ACCEC8010E94C211811164CF80918A
:1050C0007902816080937902C8010E94121F9ECEEE
:1050D000ABE1B0E0EEE6F8E20C94A8324E8B5F8BC9
:1050E000688F798F8A8F9B8F911110928D031D8A03
:1050F00086E0FE017696DE011F9601900D928A955C
:10510000E1F78B89882351F061E0CE010F960E9470
:10511000E41161E0CE010F960E94E41187E0FE01E8
:105120003F96DE01189601900D928A95E1F7CE0127
:1051300008960E94CB2681112AC087E0FE0138968E
:10514000DE01119601900D928A95E1F78C858823F6
:10515000F1F02091C50330E0C901019687709927CD
:105160004091FE034817190659F197E0929FD0012C
:10517000939FB00D1124AA53BC4FFE0131960190AC
:105180000D929A95E1F78093C5030E945E1017E097
:105190008091FE039091C5038917F9F0819FC001AA
:1051A00011248A539C4F0E94CB268823B1F0809112
:1051B000FE0390E00196877099278093FE03E8CF65
:1051C0000E94F3131092C5031092FE0387E0E3E7F9
:1051D000F2E0DF011D928A95E9F76B96E3E00C940B
:1051E000C432A6E0B0E0E7EFF8E20C94A7320E94E8
:1051F0002D188C0180918302909184028017910771
:1052000081F019821A820E942D18682F49815A81D3
:10521000792F80E090E00E94682810938402009328
:1052200083022696E4E00C94C3321F920F920FB6CD
:105230000F9211248F939F93AF93BF938091A103FB
:10524000811113C08091A2039091A303A091A403A4
:10525000B091A5034196A11DB11D8093A203909327
:10526000A303A093A403B093A503BF91AF919F9113
:105270008F910F900FBE0F901F901895CF93DF93D3
:10528000EC010E942D188C1B9D0BDF91CF9108958E
:10529000ABE0B0E0EEE4F9E20C94993285B78068B7
:1052A00085BF85B7806885BF84B7877F84BF0FB609
:1052B000F894A895809160008861809360001092B6
:1052C00060000FBE80E890E00FB6F8948093610014
:1052D000909361000FBE81E080936C016091690141
:1052E00070916A0180916B0190916C010E94391854
:1052F0008EEE9DE090934302809342020E94000C48
:105300000E949F0C8091E20084608093E200789478
:105310008091BB03882399F01091E9001F70809160
:10532000EC0080FFA5C180E8182B1092E900809165
:10533000E80083FD0E9455181F701093E90082E079
:1053400084BD93E095BD9AEF97BD80936E00109257
:10535000AC021092AD021092AE021092AF02809198
:10536000D80080618093D8002AE12A95F1F700C027
:105370008091D900182F117080FD04C00E94000C8C
:105380001092BB0310939103109392031093280182
:1053900011110E942231809128018091280190E012
:1053A000811101C095E09093BB0285E0891B809339
:1053B000BA020EE212E0D8018D918D018F3F11F0FB
:1053C0000E94F00DB2E003331B07A9F703E312E0DC
:1053D000A9E3EA2EA2E0FA2EF80181918F018F3F16
:1053E00011F00E94F00DE016F106B1F78AE0EEEB45
:1053F000F2E0DF01282F1D922A95E9F7E0EBF2E0B9
:10540000DF011D928A95E9F790E080E00E94E13289
:10541000853E9E4F09F461C065EE7EEF90E080E02E
:105420000E94153360E082E090E00E94F73281E054
:1054300090E09093BD028093BC0261E083E090E035
:105440000E94F73260E074E184E090E00E9415333E
:1054500060E086E090E00E94F73260E087E090E054
:105460000E94F73240E050E0BA0188E090E00E94EC
:10547000093360E083E290E00E94F73260E08CE064
:1054800090E00E94F73260E08DE090E00E94F732F9
:1054900019821A821B821C821D821E821F8218861C
:1054A00048E050E067E170E0CE0101960E94E732EB
:1054B00040E050E0BA018FE190E00E94093340E003
:1054C00050E0BA018FE090E00E94093340E050E0E4
:1054D000BA0183E190E00E94093382E090E00E94EB
:1054E000D9328093C80284E090E00E94E132909328
:1054F00053038093520383E090E00E94D93290E0FE
:105500000E94BD11809191038111B4C082E080930B
:10551000740380E88093FF030E94C02F6BE070E06B
:105520008FE89FE00E945C168823E9F18091740364
:1055300065E070E081FDA0C08AE89FE00E945C16F3
:10554000882389F16DE070E088E79FE00E945C1697
:10555000882349F10E945B0D605A75418F4F9F4F20
:1055600060937A0370937B0380937C0390937D0315
:10557000E8E0F4E080E092E0DF019C011D92215020
:105580003040E1F7F0930906E09308068FEF9FEFB4
:10559000909307048093060481E080937F038093B7
:1055A0007E031092750380919103811102C00E94C5
:1055B000253189E291E09093960380939503FAE078
:1055C0008F2E912CA12CB12C8091BB0310E485303F
:1055D00009F489C00E94A01D79ECE72E72E0F72E35
:1055E000EEEBCE2EE2E0DE2ED601F70191918D9109
:1055F00022E0E33DF20709F480C09817B9F3409028
:10560000910310E0D6010D916D01F70151907F01DA
:10561000501631F1712C662463945026852D862115
:10562000B9F04420A9F079821A830E942D189C8336
:105630008B83F1E0FD8391E0862D802309F490E0D7
:105640009E8349815A816B817C818D810E9468286B
:105650007394660C26E07212E1CFF7013197008354
:105660001F5F1A3079F60E94070E31E039874AC071
:1056700080E05ACE80E04BCF85E89FE05FCF8091FD
:10568000BB03843029F10E9469161092A10348E1FE
:1056900050E00FB6F894A895409360000FBE1093A9
:1056A000600083B7817F846083BF83B7816083BFDD
:1056B0007894889583B78E7F83BF0FB6F894A895AA
:1056C00080916000886180936000109260000FBE3E
:1056D0000E94A01DEEEBF2E081918111E9C352E03E
:1056E000E83CF507C9F78091BB03853009F4C7CFC3
:1056F0000E94F3130E94CE0D6DCF981380CF0E94AD
:10570000F128198680919103882309F42BC1009117
:105710008F03109190030115110519F1E090D30248
:10572000F090D4020E942D188E199F097C01C801A7
:105730000E94AA0B8E159F05A0F4112790E080E02F
:105740000230110540F464E0000F111F6A95E1F783
:10575000C8018D5C9E4FDC0115962C9122FF0E94A2
:105760003814C090E002D090E1020D2C000CEE083D
:10577000FF0810915301212F30E0E0EEF2E081E0CC
:1057800090E03296281739070CF032C14090DC02C5
:105790005090DD026090DE027090DF020E945B0D8F
:1057A0009B01AC01241935094609570929013A0121
:1057B00039EC431651046104710414F18091DB0249
:1057C00090E0019669E170E00E9437338093DB023C
:1057D000880F991FFC01E052FD4F11821082812F2A
:1057E000183108F087E18F5F809353010E945B0DB1
:1057F0006093DC027093DD028093DE029093DF02FF
:1058000042E0C416D104E104F1045CF1A0E6BAEE72
:10581000A70196010E9492336B017C0158EC159F01
:1058200090011124032E000C440B550B240D351D43
:10583000461D571DA5E0B0E00E9492339B01AC01CC
:10584000C701B6010E944B33213F31054105510587
:1058500024F020EF30E040E050E069017A01F7FEEB
:1058600003C0C12CD12C76014090D7025090D802B1
:105870006090D9027090DA020E945B0D9B01AC012E
:10588000241935094609570929013A0135E6431615
:1058900051046104710484F00E945B0D6093D7028F
:1058A0007093D8028093D9029093DA0280914C03CE
:1058B0008093D602C092D5021091D602A091D50253
:1058C000A11BBB0BA30192010E949D3324E630E093
:1058D00040E050E00E946D33120F10934C03809112
:1058E0008203882369F00E942D1820918003309153
:1058F0008103821B930B8F3F9F4710F40E94691412
:1059000000918803109189030115110559F1C09088
:105910008403D0908503E0908603F09087030E9473
:105920005B0D6C197D098E099F0961367A4E8105E0
:105930009105C0F00095109580912A0390912B035A
:10594000802391230E9412111092890310928803E0
:105950000E945B0D6093840370938503809386039C
:105960009093870380917F03882309F447C20091B5
:105970007603109177030E942D18801B910BC2971C
:1059800008F48BC00E942D189093770380937603C0
:1059900088E094E090930906809308068091910333
:1059A000882309F4B8C080912A0390912B03843096
:1059B000910509F4A0C040F50097A1F16BE771E0F3
:1059C0008230910589F19F938F9389EB91E09F93AA
:1059D0008F931F9288E18F9382E193E09F938F933F
:1059E0000E94D1330FB6F894DEBF0FBECDBF20C0EA
:1059F00040815181052E000C660B770BC40ED51E1D
:105A0000E61EF71E0196BDCE8031910509F476C0E1
:105A10008631910509F472C088309105A1F669E9D3
:105A200071E002C06DE671E082E193E00E94CA334A
:105A300082E193E00E94441681E00E9485138091E8
:105A4000530380FF5EC087E591E09F938F9384E5C9
:105A500091E09F938F9389EC91E09F938F931F9296
:105A600088E18F938CE293E09F938F930E94D133D0
:105A70000FB6F894DEBF0FBECDBF8CE293E00E945C
:105A8000441681E00E94851380918203882309F4E3
:105A90003FC08FEC91E00E944416809106049091E3
:105AA0000704892B09F491C180917F03882309F4AD
:105AB0008CC180917503811188C10E948416209148
:105AC0000604309107042115310509F47EC180E0F8
:105AD00041E050E0C82ED12C3A01082E02C0660CDD
