:100000000C943C0B0C94590B0C94590B0C944531EB
:100010000C94590B0C94590B0C94590B0C94590BD0
:100020000C94590B0C94590B0C94521C0C94161CE8
:100030000C944D290C94590B0C94590B0C94590B9E
:100040000C94590B0C94590B0C94590B0C94590BA0
:100050000C94590B0C944D180C94590B0C94590B8F
:100060000C94590B0C94590B0C94590B0C94590B80
:100070000C94590B0C94590B0C94590B0C94590B70
:100080000C94590B0C94590B0C94590B0C94590B60
:100090000C94590B0C94590B0C94590B0C94590B50
:1000A0000C94590B0C94590B0C94590B0000000044
:1000B0000000000000000000000000000000000040
:1000C0000000000000000000000000000000000030
:1000D0000000000000000000000000000000000020
:1000E0000000000000000000000000000000808010
:1000F00080404020201008040204081010202040F6
:1001000040808000000000000000000000000000AF
:1001100000000000000000000000000000000000DF
:1001200000000000000000000000000000000000CF
:1001300000000000000000000000000000000000BF
:1001400000000000000000000000000000000000AF
:100150000000000000000000000000000000003F60
:10016000C1010102020404040402020101010000B1
:10017000000000008000004080804000003030001F
:10018000000000010264180412C2CA2488F08080B2
:10019000404040402020202010101010080808087F
:1001A0000404040402020202010101010000000033
:1001B000000000000000000000000000000000003F
:1001C000000000000000000000000000000000002F
:1001D0000000000000000000000000000000E01827
:1001E0000601000000000000000000000080838382
:1001F000404040402021212010101010080808081D
:1002000004040404020202020101010100000000D2
:1002100000000000000000000000000000000000DE
:1002200000000000000000000000000000000000CE
:1002300000000000000000000000000000000000BE
:1002400000000000000000000000000080808080AE
:10025000404040402020202010101010080F0808B7
:1002600004040404020408101020204040414224E9
:1002700098C088888C9C1C1E0E06000000000000A0
:10028000000000000000000000000000000000006E
:10029000000000000000000000000000000000005E
:1002A000000000000000000000000000000000004E
:1002B000000000000000000000000000000000003E
:1002C000000000000000000000000000000000002E
:1002D000000000000000000000000000000000001E
:1002E000000000000000000000000000000000000E
:1002F00000000000000000000000000000000000FE
:1003000000000000000000000000000000000000ED
:1003100000000000000000000000000000000000DD
:1003200000000000000000000000000000000000CD
:1003300000000000000000000000000000000000BD
:1003400000000000000000000000000000000000AD
:10035000000000000000000000000000000000009D
:10036000000000000000000000008080804040206D
:100370002010080402040810102020404080800053
:10038000000000000000000000000000000000006D
:10039000000000000000000000000000000000005D
:1003A000000000000000000000000000000000004D
:1003B000000000000000000000000000000000003D
:1003C000000000000000000000000000000000002D
:1003D00000000000000000000000003FC101010219
:1003E0000204844444428201010100000000000034
:1003F000800000408080400000303000000000019C
:100400000204040808102040808080804040404062
:1004100020202020101010100808080804040404EC
:1004200002020202010101010000000000000000C0
:1004300000000000000000000000000000000000BC
:1004400000000000000000000000000000000000AC
:1004500000000000000000000000E018060100009D
:100460000C03000218190005FE80838340404040C1
:10047000202121201010101008080808040404048A
:100480000408304080800000018698600000000071
:10049000000000000000000000000000000000005C
:1004A000000000000000000000000000000000004C
:1004B000000000000000000000000000000000003C
:1004C000000000000000000080808080404040402C
:1004D0002020202010101010080F08080404040425
:1004E0000202020201010101000000000000000000
:1004F0000000000000000000000000060F0F0703CE
:100500000361F0F8FC600101013C78F8F070000034
:1005100000000000000000000000000000000000DB
:1005200000000000000000000000000000000000CB
:1005300000000000000000000000000000000000BB
:1005400000000000000000000000000000000000AB
:10055000000000000000000000000000000000009B
:10056000000000000000000000000000000000008B
:10057000000000000000000000000000000000007B
:10058000000000000000000000000000000000006B
:10059000000000000000000000000000000000005B
:1005A000000000000000000000000000000000004B
:1005B000000000000000000000000000000000003B
:1005C000000000000000000000000000000000002B
:1005D000000000000000000000000000000000001B
:1005E00000000000000080808040402020100804AF
:1005F000020408101020204040808000000000000D
:1006000000000000000000000000000000000000EA
:1006100000000000000000000000000000000000DA
:1006200000000000000000000000000000000000CA
:1006300000000000000000000000000000000000BA
:1006400000000000000000000000000000000000AA
:10065000000000000000003FC101010202048444C8
:1006600044428201010100000000000080000040BF
:100670008080400000303000000000010264180457
:1006800012C2CA2488F080804040404020202020B0
:1006900010101010080808080404040402020202E2
:1006A0000101010100000000000000000000000046
:1006B000000000000000000000000000000000003A
:1006C000000000000000000000000000000000002A
:1006D000000000000000E018060100000C0300020A
:1006E00018190005FE8083834040404020212120CE
:1006F0001010101008080808040404040202020282
:1007000001010101000000000000000000000000E5
:1007100000000000000000000000000000000000D9
:1007200000000000000000000000000000000000C9
:1007300000000000000000000000000000000000B9
:100740000000000080808080404040402020202029
:1007500010101010080F080804040404020202021A
:100760000101010100000000000000000000000085
:100770000000000000000000000000000000000079
:100780000000000000000000000000000000000069
:100790000000000000000000000000000000000059
:1007A0000000000000000000000000000000000049
:1007B0000000000000000000000000000000000039
:1007C0000000000000000000000000000000000029
:1007D0000000000000000000000000000000000019
:1007E0000000000000000000000000000000000009
:1007F00000000000000000000000000000000000F9
:1008000000000000000000000000000000000000E8
:1008100000000000000000000000000000000000D8
:1008200000000000000000000000000000000000C8
:1008300000000000000000000000000000000000B8
:1008400000000000000000000000000000000000A8
:100850000000000000000000000000000000008018
:10086000804040402020202020180402010204087B
:1008700010202040408080000000000000000000A8
:100880000000000000000000000000000000000068
:100890000000000000000000000000000000000058
:1008A0000000000000000000000000000000000048
:1008B0000000000000000000000000000000000038
:1008C0000000000000000000000000000000000028
:1008D0000000003FC10101020204040404020201FD
:1008E0000000000000000000800000408080400008
:1008F000003030000000000102040408081020400D
:100900008080808040404040202020201010101027
:10091000080808080404040402020202010101019B
:1009200000000000000000000000000000000000C7
:1009300000000000000000000000000000000000B7
:1009400000000000000000000000000000000000A7
:100950000000E01806010000000000000000000098
:10096000008083834040404020212120101010103F
:1009700008080808040404040408304080800000CB
:1009800001869860000000000000000000000000E8
:100990000000000000000000000000000000000057
:1009A0000000000000000000000000000000000047
:1009B0000000000000000000000000000000000037
:1009C0008080808040404040202020201010101067
:1009D000080F080804040404020408101020204032
:1009E0004041422418000000000000000000000008
:1009F00000000000000000000000000000000101F5
:100A000001000000000000000000000000000000E5
:100A100000000000000000000000000000000000D6
:100A200000000000000000000000000000000000C6
:100A300000000000000000000000000000000000B6
:100A400000000000000000000000000000000000A6
:100A50000000000000000000000000000000000096
:100A60000000000000000000000000000000000086
:100A70000000000000000000000000000000000076
:100A80000000000000000000000000000000000066
:100A90000000000000000000000000000000000056
:100AA0000000000000000000000000000000000046
:100AB0000000000000000000000000000000000036
:100AC0000000000000000000000000000000000026
:100AD0000000000000000000000000000000808016
:100AE00080804040201008040204081020408080CC
:100AF00000000000000000000000000000000000F6
:100B000000000000000000000000000000000000E5
:100B100000000000000000000000000000000000D5
:100B200000000000000000000000000000000000C5
:100B300000000000000000000000000000000000B5
:100B40000000000000000000000000000000007E27
:100B500082020204040808080804040201010000DB
:100B600000000000000000800000800000606000C5
:100B700001010204040808101020204080808080B9
:100B80004040404020202020101010100808080885
:100B90000404040402020202010101010000000039
:100BA0000000000000000000000000000000000045
:100BB0000000000000000000000000000000000035
:100BC0000000000000000000000000000000C03035
:100BD0000C0300000000000000000000008086867A
:100BE000404040402122222011111010080808081E
:100BF00004040404040830408080000001869860EA
:100C000000000000000000000000000000000000E4
:100C100000000000000000000000000000000000D4
:100C200000000000000000000000000000000000C4
:100C300000000000000000000000000080808080B4
:100C4000404040402020202010101010080F0808BD
:100C500004040404020408101020204040414224EF
:100C6000180000000000000000000000000000006C
:100C70000000000000000000000001010100000071
:100C80000000000000000000000000000000000064
:100C90000000000000000000000000000000000054
:100CA0000000000000000000000000000000000044
:100CB0000000000000000000000000000000000034
:100CC0000000000000000000000000000000000024
:100CD0000000000000000000000000000000000014
:100CE0000000000000000000000000000000000004
:100CF00000000000000000000000000000000000F4
:100D000000000000000000000000000000000000E3
:100D100000000000000000005C007C005B005D0043
:100D20004A001E001F002000210022003500140090
:100D30001A0008001500170029210422162807248C
:100D400009210A43E1001D001B00060019000500EF
:100D500000005200510021522B4201574D00270044
:100D600026002500240023002D00130012000C0093
:100D700018001C00340033320F380E340D310B00D4
:100D80002E003800370036001000110000004F0020
:100D9000500022522C4100570000000000000000CB
:100DA0000000000000000000000000000000000043
:100DB00000001E021F02200221022202437E0000C8
:100DC0000000000000000000000001000100010020
:100DD0002A004C000000000000000000000000009D
:100DE0000000407E417E0000000000003502270226
:100DF0002602250224022302000030022F020000F6
:100E00000000000000000100010001000100AE0030
:100E100000000000000000000000000000001E00B4
:100E20001F00200021002200000000000000000040
:100E300000000000427E00000000000000000000F2
:100E4000000001000100010001000100000000009D
:100E50000000000000000000000027002600250020
:100E600024002300000000004F00520051005000F9
:100E70000000000000000000000000000000010071
:100E8000010001002800A800000000000000000090
:100E90000000000000000000000000000000000052
:100EA0000100E100E300E200E0000100E1000000D9
:100EB000000000000000000000000100010001002F
:100EC0000100010000000000000000000000000020
:100ED000000000004D004B004E004A0000000000E2
:100EE0004F005200510050000000000000000000C0
:100EF00000000000000001000100010001007B7CF7
:100F000000000000000000000000000000000000E1
:100F10001C70000000000000000000000000000045
:100F200000000000000000000000000000000000C1
:100F300000000100010001000100000000000000AD
:100F400000000000000000000000000000000000A1
:100F50000000000000000000000000000000000091
:100F600000000000000000001B70000000000100F5
:100F7000010001000100000000DA0281FFD9F1DB6D
:100F800020A4A62EAF00A0C0D30000A1C8D30000AB
:100F9000AED580A81F408D14200000AF00AE050123
:100FA0000980A101850319012AB700150126B700A0
:100FB000950175108100C0050C0901A10185041976
:100FC000012AA002150126A002950175108100C01A
:100FD00005010906A101050719E029E7150025010A
:100FE00095087501810295017508810105071900B1
:100FF00029FF150026FF00950675088100050819D0
:1010000001290515002501950575019102950175C8
:10101000039101C009023B00020100A0FA0904008B
:101020000001030101000921110100012244000710
:101030000581030800010904010001030000000903
:101040002111010001223200070582032000011254
:1010500001000200000008D8042DEB00010102008D
:10106000010E034C0069006C007900350038000067
:101070000010036C0069006C00690075006D00735E
:10108000000000040309040000000000003E5B4F64
:101090005B3E003E6B4F6B3E001C3E7C3E1C0018CE
:1010A0003C7E3C18001C577D571C001C5E7F5E1C5C
:1010B0000000183C180000FFE7C3E7FF00001824F9
:1010C000180000FFE7DBE7FF0030483A060E002675
:1010D0002979292600407F05050700407F05253F27
:1010E000005A3CE73C5A007F3E1C1C0800081C1CB0
:1010F0003E7F0014227F2214005F5F005F5F0006C6
:10110000097F017F00006689956A00606060606009
:101110000094A2FFA2940008047E04080010207E20
:1011200020100008082A1C0800081C2A0808001EB5
:1011300010101010000C1E0C1E0C0030383E383001
:1011400000060E3E0E060000000000000000005FDA
:10115000000000000700070000147F147F14002423
:101160002A7F2A1200231308646200364956205051
:1011700000000807030000001C224100000041227B
:101180001C00002A1C7F1C2A0008083E08080000DA
:101190008070300000080808080800000060600047
:1011A000002010080402003E5149453E0000427FE5
:1011B0004000007249494946002141494D33001819
:1011C00014127F10002745454539003C4A494931F2
:1011D000004121110907003649494936004649496D
:1011E000291E000000140000000040340000000030
:1011F000081422410014141414140000412214088D
:10120000000201590906003E415D594E007C121151
:10121000127C007F49494936003E41414122007F0E
:101220004141413E007F49494941007F0909090187
:10123000003E41415173007F0808087F0000417F54
:101240004100002040413F01007F08142241007FFF
:1012500040404040007F021C027F007F0408107F56
:10126000003E4141413E007F09090906003E4151CF
:10127000215E007F091929460026494949320003A9
:10128000017F0103003F4040403F001F2040201FDE
:10129000003F4038403F00631408146300030478A3
:1012A0000403006159494D4300007F414141000260
:1012B0000408102000004141417F000402010204A3
:1012C0000040404040400000030708000020545404
:1012D0007840007F2844443800384444442800388B
:1012E0004444287F0038545454180000087E0902F2
:1012F000001824241C78007F080404780000447D32
:101300004000002040403D00007F102844000000C5
:10131000417F4000007C04780478007C0804047855
:10132000003844444438007C18242418001824242D
:10133000187C007C08040408004854545424000419
:10134000043F4424003C4040207C001C2040201CE2
:10135000003C4030403C004428102844004C909011
:10136000907C004464544C44000008364100000066
:10137000007700000000413608000002010204026C
:10138000003C2623263C0000000000008080808076
:10139000000000000080E070180C1830E0800000B1
:1013A00010F8901030783010B8FC381000000000B1
:1013B0000000F8FCF8000000000000000000000041
:1013C00000001C9C1C00000000F8FCF8000000005D
:1013D00000001CFCF8C000000000000080E0F87C69
:1013E0001C000000F0FCFCFC1C1C1C1C1C1C1C1C1D
:1013F000000000000000C0F0F8381C1C1C1C1C1C65
:101400003CF8F0E000E0F0F0F0E0ECEEF7F37020F4
:10141000007C7C7C7E007E7E7E7F7F7F000080C0A3
:10142000E07E5B4F5BFEC00000C000DCD7DEDEDE8E
:10143000D7DC00C000000000000000000000000039
:101440000000000000000000000000000FBCE08170
:101450008181838382870C183060C000001FFE905A
:10146000B9FFBB91983C1811133F11000000000018
:101470000000FFFFFF00000000000000000000006F
:101480000000FFFFFF00000000FFFFFF0000000062
:1014900000000000030F7FF8E080F0FC3F0F010028
:1014A000000000003F3F3F1C1C1C1C1C3C78F8F057
:1014B000E08000000000C3E7FF7E3C387878707061
:1014C000F8FFDF87000F1F3F7F7F7F7F7F3F1E0C6E
:1014D000001F1F1F3F003F3F3F7F7F7F00307B7F0C
:1014E0007830202030787F3B0003000F7F0F0F0FF4
:1014F0007F0F00030000000000000000000000005B
:1015000000000000000000183C24666341C1818097
:10151000808080808081C14162386C4CC68181802E
:101520008080808081C14362361C1800000000006A
:101530000000FFFFFFC0C0C0C0C0C0C0C0C080006E
:1015400000007FFF7F000000007FFFFFC0800000E1
:1015500000E0E0C0C0C0E0F97F1F0700000000000D
:101560000000000070F0E0E0C0C0C0C0E0F0F87F14
:101570003F0F0000000F3F7FF9E0E0C0C0C0C0C0D7
:10158000E0F97F3F1F0000000000000000000000A5
:10159000000000000000000000000000000000004B
:1015A000000000000000000000000000000000003B
:1015B000000000000000000000000000000000002B
:1015C000000000000000000000000000000000001B
:1015D000000000000000000000000000000000000B
:1015E00000000000000000000000007E0F00D4FF9B
:1015F000FFFFC70000007800000000000000002A84
:101600002B28000000000000000000000000000087
:10161000000029000000002C1E3420212224342642
:1016200027252E362D3738271E1F2021222324253B
:10163000263333362E37381F0405060708090A0BF0
:101640000C0D0E0F101112131415161718191A1B62
:101650001C1D2F3130232D350405060708090A0B00
:101660000C0D0E0F101112131415161718191A1B42
:101670001C1D2F3130354C0011241FBECFEFDAE096
:10168000DEBFCDBF12E0A0E0B1E0ECEBFCE602C0B3
:1016900005900D92A432B107D9F725E0A4E2B2E09B
:1016A00001C01D92AC3EB207E1F70E9480290C9464
:1016B0005C360C940000FF920F931F93CF93DF933F
:1016C0002091EA053091EB052A5E3340A901445888
:1016D0005D4F41305240E8F040E052E0421B530B76
:1016E0006091E8037091E903D901A651BC4F420F04
:1016F000531F821B930BC1E0D0E02417350760F025
:101700007093E9036093E803CDB7DEB7E5E00C948E
:101710009F324CE752E0E4CFFC01E20FF31FF4905C
:10172000FD91FF16A1F08D0101501109F801F08221
:10173000F90115E0F695E7951A95E1F78E0102C0DB
:10174000000F111FEA95E2F7F801602B7F2B2F5F46
:101750003F4FD3CF8F929F92AF92BF92CF92DF92A3
:10176000EF92FF9290916C01981305C09091E00365
:10177000903309F448C080936C0190E39093E003A8
:10178000C82ED12CF12CE12C1092DF03C701B60139
:101790002AE030E040E050E00E942833605D603392
:1017A00031F0C114D104E104F10409F460E3609361
:1017B000DE038AE0882E912CA12CB12CC701B60142
:1017C000A50194010E94283360E3211531054105EC
:1017D000510539F0CA01B901A50194010E942833CD
:1017E000605D6093DD03C701B60124E630E040E0B0
:1017F00050E00E942833211531054105510571F053
:10180000205D2093DC038CED93E0FF90EF90DF9060
:10181000CF90BF90AF909F908F90089520E3F1CF2D
:10182000482F2091DB039091A20357E0291302C0B7
:1018300080E0089530E0529FF001539FF00D112495
:10184000ED55FC4F8181681306C08081481303C0A9
:1018500085818111EECF2F5F3F4F2770E7CFFC01CD
:10186000AC014B5F5F4F8FEF91E32191822728E01E
:1018700030E087FF09C0880F892721503109C9F757
:10188000E417F50791F70895880FF7CFE8EDF0E03A
:1018900080818E7F80831092E2001092DA00109295
:1018A000E100A0EEB0E08C9181608C9380818F7715
:1018B000808319BCA7EDB0E08C918E7F8C938081E2
:1018C0008F7E80831092830308952091E4003091ED
:1018D000E50085E69091EC0090FF06C09091E8004D
:1018E00090FF06C080E008959091E80092FDFACF45
:1018F00090919803992391F0953091F09091EB009D
:1019000095FD10C04091E4005091E5002417350783
:1019100009F381509A01F1F684E0089582E0089578
:1019200083E0089581E0089580919A0387FF13C0B2
:101930008091E80082FF06C08091E8008B77809359
:10194000E80004C0809198038111F2CF089580913E
:1019500098038823D9F38091E80080FFF8CF809125
:10196000E8008E77ECCF982F9093E900242F762F04
:1019700050E0891731F07091EC002091ED0050910A
:10198000F00021FD07C09F5F973071F78093E90059
:1019900081E008953091EB003E7F3093EB00309171
:1019A000ED003D7F3093ED003091EB0031603093DE
:1019B000EB007093EC002093ED005093F000209129
:1019C000EE0027FDE0CF80E00895B0E0A0E0EBEE70
:1019D000FCE00C948032C8EDD0E088818F7E888353
:1019E000E7EDF0E080818160808384E082BF81E068
:1019F0008093830388818E7F888302EE10E0F80154
:101A000010821092DA0081EEC82ED12CF6011082DD
:101A100088818F77888388818068888388818F7D9B
:101A2000888319BC109298031092990310928D0329
:101A300010928C0390EEE92EF12CF70180818B7FC0
:101A4000808388818160888342E060E080E00E943A
:101A5000B30CF60180818E7F8083F80180818160E4
:101A60008083808188608083F70180818E7F80837E
:101A7000888180618883CDB7DEB7E8E00C949C3222
:101A8000FC018091A0039091A10386179707A0F015
:101A90006115710529F49091E8009E779093E80014
:101AA00090E06115710551F4911108C08091E80032
:101AB00082FF35C080E00895BC01F2CF8091980389
:101AC0008823C9F18530C9F18091E80083FD31C0D8
:101AD0008091E80082FDEACF8091E80080FFE1CFAD
:101AE0002091F3008091F200322F282F61157105AB
:101AF00019F02830310558F091E02830310509F00F
:101B000090E02091E8002E772093E800CACF8191E1
:101B10008093F100615071092F5F3F4FE7CF8091B3
:101B20009803882341F0853041F08091E80083FFDD
:101B3000BDCF81E0089582E0089583E0089508957F
:101B400008952FB7F89460917F037091800380917E
:101B50008103909182032FBF0895809169010895B8
:101B60009C01FC0132969FEF80E04191461751F0B5
:101B70009F3F19F4411101C0982F8F5F8630A9F75C
:101B80009F3F09F40895290F311D97FD3A95F901FA
:101B900062830895A3E0B0E0E0EDFDE00C948632AE
:101BA000209174033091750328173907A1F09093A1
:101BB000750380937403E0917203F091730330977F
:101BC00051F024E029839B838A830084F185E02DF2
:101BD000CE01019609952396E2E00C94A232A3E08F
:101BE000B0E0E5EFFDE00C94863220917003309177
:101BF000710328173907A1F0909371038093700344
:101C0000E0917203F0917303309751F023E0298340
:101C10009B838A830084F185E02DCE01019609958E
:101C20002396E2E00C94A23280916E03882359F04F
:101C3000E0917203F0917303309729F00190F081E5
:101C4000E02D0995089580E008954115510511F0A2
:101C5000FA0109950895DC01ED91FC9111978491A9
:101C60003196ED93FC93089580E00895F894E82F61
:101C7000E295EF70F0E031A1282F2F7081E090E025
:101C800001C0880F2A95EAF7982F9095932391A386
:101C900092A1892B82A3789408950F931F9380912A
:101CA0006E03882329F00E94A10D1F910F910895C2
:101CB0000E94A10D00918E0210918F02209190023E
:101CC00030919102600F711F821F931FEECF909190
:101CD0002F0392FF10C041E0282F2471243009F017
:101CE00040E031E0282F2871283009F030E0431718
:101CF00011F02CE0822793FF10C041E0282F2471BF
:101D0000243109F040E031E0282F2871283109F012
:101D100030E0431711F02CE082273091300330FF80
:101D200010C051E0282F2171213009F050E041E02E
:101D3000282F2871283009F040E0541711F029E0CD
:101D4000822731FF10C041E0282F2171213109F095
:101D500040E031E0282F2871283109F030E04317A6
:101D600011F029E0822794FD877E0895823891053D
:101D7000B9F1B0F48133910509F47DC048F489329A
:101D8000910509F46DC08A32910509F479C008956E
:101D90008533910509F45FC08933910509F10895F0
:101DA000833E9105D9F138F4803E910529F1823EB8
:101DB000910579F10895863E9105D9F1873E910507
:101DC00009F43EC0843E910541F52091300321FF86
:101DD00024C080912F0384FD19C087EE90E0089500
:101DE00020912F03237009F056C02091300323FF68
:101DF00014C089E290E0089520912F0320FD38C09F
:101E00003091300330FF09C024FF3FC090E080E0F4
:101E1000089520912F0322FDF7CF089520912F03DD
:101E200022FD36C03091300330FD35C024FDEECFA9
:101E3000F4CF20912F0323FFF0CF24FDE7CFCDCFA8
:101E400020912F0323FD2AC03091300331FFEECFC4
:101E500084EE90E0089520912F0325FDCACF0895C8
:101E600020912F0325FD1DC02091300323FFD5CFE6
:101E700089E390E0089520912F0326FD15C0089571
:101E800020912F0326FD13C0089583EE90E008955E
:101E900082EE90E0089580EE90E0089586EE90E066
:101EA000089585E390E008958AE290E0089581E343
:101EB00090E0B3CF7A30B8F46630A8F48530B0F44F
:101EC000E62FF0E096E0799FE00DF11D11249CE3F0
:101ED000899FE00DF11D1124EE0FFF1FE05EF24F10
:101EE00085919491089580E090E0089581E0FCCF81
:101EF0001F93CF93DF930E94B60EEC01C11580E5CE
:101F0000D807E8F5C11580E4D80708F09BC0C03EAB
:101F1000D10518F5CD3CD10508F081C0C83AD105EE
:101F200070F4C53AD10508F072C0C130D10511F185
:101F300018F0C430D105F0F4D0E0C0E01BC0C33CC1
:101F4000D105D0F7C85AD0E0CC0FDD1FC852DE4F04
:101F50000990D881C02DD4640DC0C11580E2D80786
:101F600008F0CBC0C11581E0D80708F05AC0C83EC0
:101F7000D10510F7CE01DF91CF911F910895C036A2
:101F800082E5D80718F5C03482E5D80708F069C0A3
:101F9000C03282E5D80708F05DC0C11582E5D807D8
:101FA00008F493C02C2F2695269580E2289F900157
:101FB00011248C2F8370C1E0D0E002C0CC0FDD1F54
:101FC0008A95E2F7C22BD32BDD68D4CFC03A82E5E5
:101FD000D80760F4C03882E5D80708F457C0CF713D
:101FE000D0E0DC2FCC27C46FD06AC4CFC03C82E5E0
:101FF000D80708F45EC0C03E82E5D80708F09CCF41
:10200000DC2FCC27CC27DF71C06FD06AB3CFC55A85
:10201000D0E0CB52DE4FC881D0E0D064ABCFD065EA
:10202000A9CF8D2F0E94670E182FCE0199270E94ED
:10203000B60EC12FD0E0DC2FCC27CC27DF71C82B08
:10204000D92B98CFCE0199270E94B60ECC27DF70EE
:10205000D06AF5CFCF71D0E0DC2FCC27C16FD06A2A
:1020600089CF2C2F26952695277080E2289F9001F6
:1020700011248C2F8370C1E0D0E002C0CC0FDD1F93
:102080008A95E2F7DC68C22BD32B74CF2C2F2695D0
:102090002695277080E2289F900111248C2F837051
:1020A000C1E0D0E002C0CC0FDD1F8A95E2F7DA680C
:1020B000EACF8C2F8F710E94670EC82FD0E0DC2FE3
:1020C000CC27CC27DF71D06255CF8C2F8F710E9427
:1020D000670E55E0D695C7955A95E1F7CF70D0E0D9
:1020E000DC2FCC27282F30E084FF05C044E0220FEE
:1020F000331F4A95E1F7D069C6CF8D2F8F710E94AB
:10210000670E182FCE0199270E94B60EC12FD0E07E
:10211000DC2FCC27CC27DF71906291CF80916402B5
:102120008111109264020895982F909580916A030E
:10213000892380936A030895982F909580916B036B
:10214000892380936B0308958091DB039091A20310
:10215000981301C008958F5F8770FACFB0E0A0E0B8
:10216000E4EBF0E10C947F327C0100910C031091C0
:102170000D0380919E0290919F02082B192BCFE0B6
:10218000D0E0CC24C394D12CBC2EC6010C2E02C0AE
:10219000880F991F0A94E2F780239123892B49F431
:1021A000219790F7B12C8B2DCDB7DEB7E9E00C94D9
:1021B0009B32B7018C2F0E945A0F0E94780F019713
:1021C00079F3F1CFCF93DF93EC010E94AE10BE0103
:1021D0000E945A0F0E94780FDF91CF9108959A3094
:1021E00078F5863068F5E82FF0E086E0989FE00DFE
:1021F000F11D11249E2F977083E0F695E7958A953F
:10220000E1F7EE0FFF1FEE0FFF1FEB5CFD4F50E0FD
:1022100040E080E0219130E0092E02C036952795FC
:102220000A94E2F721703327042E01C0220F0A948A
:10223000EAF7822B4F5F5F4F4430510559F70895FD
:1022400080E008959A3098F5863088F5E82FF0E020
:1022500086E0989FE00DF11D11248E2F877041E0DC
:1022600001C0440F8A95EAF783E0F695E7958A95D1
:10227000E1F7EE0FFF1FEE0FFF1FEB5CFD4F30E0AD
:1022800020E070E05191DF011197CB01022E02C0D6
:10229000969587950A94E2F7817081958527842326
:1022A00085278C932F5F3F4F2430310559F70895D0
:1022B0009C01267033272630310531F480619093DC
:1022C0000D0380930C0308958F7EF9CFE0910C03EA
:1022D000F0910D0321E030E0D90102C0AA0FBB1F2D
:1022E0008A95E2F7CD01D90102C0AA0FBB1F6A95FA
:1022F000E2F7BD018A2B972B02C0220F331F4A95AC
:10230000E2F7AF01482359238417950731F42E2BA8
:102310003F2BC9010E9458110895209530952E2316
:102320003F23F7CF21E030E002C0220F331F8A9510
:10233000E2F72095309580910C0390910D03822354
:1023400093230E94581108959091600380958923EA
:1023500080936003282F277069F4891759F09091B2
:10236000300392FF07C08695869586950E9492114C
:1023700010926003089521E030E002C0220F331F65
:102380008A95E2F780910C0390910D03822B932B99
:102390000E94581108950F931F93CF93DF9301E08C
:1023A00010E0082E02C0000F111F0A94E2F7C0913E
:1023B0006503D09166039E0120233123232B01F571
:1023C00090916003969596959695891302C0109208
:1023D00060030E94BB110E94A10D60936103709382
:1023E00062038093630390936403C027D127D09343
:1023F0006603C0936503DF91CF911F910F910895FC
:102400000E949211F2CF90939F0280939E020895B2
:10241000FC0124812223B9F0808191810E94E21085
:1024200092959F70963089F050F49250923058F403
:10243000803F19F030F4883E30F481E008959A50DE
:10244000F5CF843FD1F380E00895883EB0F3813F1B
:10245000D1F7F3CFA6E0B0E0E0E3F2E10C948532EF
:1024600026E0FC01DE01119601900D922A95E1F71C
:10247000FC01258189819A81222399F0662389F0C4
:102480000E94AE10182F682F89819A810E94221114
:1024900069817A81812F0E945A0F2696E3E00C947D
:1024A000A1320E94EF10182FF3CF9C013A9521150D
:1024B0003F4150F5FC01EE27F170BC0166277270B8
:1024C000AC01442754709C012227387094FF0EC041
:1024D00080E0EF2B09F080E1672B09F08062452B4B
:1024E00009F08064232B89F08068089581E0EF2B48
:1024F00009F480E0672B09F08260452B09F08460C5
:10250000232B19F08860089580E0089580912E03B0
:102510008531E8F480912F0290E00196817099272F
:1025200080932F0221E030E0281B390B4CE752E06A
:10253000249FC001259F900D349F900D1124805E33
:10254000974F0E945B0B089584EA95E0FACF88329A
:10255000D8F380912E0290E00196817099278093A4
:102560002E0221E030E0281B390B4CE752E0249F7B
:10257000C001259F900D349F900D112484559F4FCD
:10258000E0CF0F931F93CF93DF938B01EA019091DC
:102590009803943061F58093E9008FEF9091E80003
:1025A000815095FD06C095ED9A95F1F700008111D7
:1025B000F5CF8091E80085FF1AC00E94650C81115B
:1025C00011C08091E80085FD06C08091E8008E77FB
:1025D0008093E800F2CFF80181918F018093F100A0
:1025E000219779F78091E8008E778093E800DF915A
:1025F000CF911F910F91089543E050E0BC0182E01C
:102600000E94C1120895CF93DF93EC0148E050E09F
:10261000BC0181E00E94C11288E0FE01A4E8B3E0A1
:1026200001900D928A95E1F7DF91CF910895B0E086
:10263000A0E0EDE1F3E10C947E327C015B016A01E4
:1026400080918D0201E010E08A3010F40AE010E081
:10265000C1E0D0E0B501C701F6010995811104C0C0
:1026600021960C171D072CF4CDB7DEB7EAE00C94C9
:102670009A32CC9F9001CD9F300D300D112490E007
:1026800080E045E34A95F1F7000001968217930731
:10269000C1F7E0CFCF93DF93682F81E06A3019F064
:1026A0006D3031F480E00E94CB13DF91CF9108951B
:1026B0008091EA059091EB0526E0FC01A2EEB3E0E3
:1026C00001900D922A95E1F7603E08F459C026E08A
:1026D000FC0111922A95E9F7C091EA05D091EB052A
:1026E00046E050E0BE0182EE93E00E949133892BD8
:1026F00059F1CE018A5E93409C0145E036952795BD
:102700004A95E1F741E050E0BA0102C0660F771F39
:102710002A95E2F79B016091E8037091E903262B6B
:10272000372B059665E0969587956A95E1F7FA014E
:1027300002C0EE0FFF1F8A95E2F7CF01822B932B89
:102740009093E9038093E8039E01245E3340409117
:10275000E103642F70E0C9010E946232481B4630D9
:1027600010F4240F311D2115F2E03F0710F030E086
:1027700020E026513C4F3093EB052093EA0595CF9E
:10278000F6E06F9FB001112469577F4E46E050E09C
:102790000E94AD32A1CFCF93382FE091EA05F0919E
:1027A000EB05EA5EF3402091E103622F70E0CF0178
:1027B0000E946232281B822F332361F066E00E9460
:1027C0000833C82FC15010F4CF91089580E20E94C1
:1027D0004A13F8CF9F01280F311D2115324018F000
:1027E00080E0F0E0E0E08E0F9F2F911D86519C4F1E
:1027F0009093EB058093EA05E7CFCF93C0916B03ED
:1028000080916A03C82B80916402882351F0C82B01
:10281000E8E2F2E097E080E0915031F581110E940A
:102820008E10C093260248E050E06CE572E086E22C
:1028300092E00E949133892BA9F088E0E6E2F2E071
:10284000ACE5B2E001900D928A95E1F7E091720358
:10285000F0917303309731F00280F381E02D86E22E
:1028600092E00995CF91089521912223A9F28F5FDB
:10287000D3CF10926B03E8E2F2E086E0DF011D9215
:102880008A95E9F790E080E00E94EF0D90E080E00B
:102890000E94CA0D10926A030E94FD1308950E94BF
:1028A00039142FEF84E39CE0215080409040E1F701
:1028B00000C0000088E19AE00FB6F894A8958093D4
:1028C00060000FBE90936000FFCFCF93DF93EC01C9
:1028D0004A855B856E857F850E94250E8B810E94CF
:1028E00094108C810E949C100E94FD1386E0FE01D2
:1028F00011928A95E9F7DF91CF910895CF93DF93F5
:10290000EC018D8181FD17C082608D8380916A0307
:102910009B81892B80936A0380916B039C81892B17
:1029200080936B030E94FD13488559856E857F85D2
:10293000CE010E94250E10926D0310926C038D81C2
:1029400080FD03C0CE010E946514DF91CF910895F0
:10295000882321F00E9494100E94FD130895809115
:102960005F03882329F082E20E94A81410925F037B
:102970000895882339F090916A03892B80936A0324
:102980000E94FD130895882321F00E949C100E944C
:10299000FD130895882339F090916B03892B809360
:1029A0006B030E94FD130895882381F19CEF980F1B
:1029B000913A70F4E6E2F2E09281891301C012824A
:1029C000319692E0EC32F907B9F70E94FD130895B1
:1029D00090E2980F983050F4877091E001C0990F01
:1029E0008A95EAF7892F0E949C10EFCF9BE5980FFC
:1029F000933028F490E080E00E94EF0D0895885A0B
:102A00008B3120F490E080E00E94CA0D0895CF93AE
:102A1000DF93EC010E94D414CE010E9455129E0156
:102A2000205E31092830310510F0CD2B29F40E94A9
:102A3000C314DF91CF9108950E94A814FACFFC012E
:102A40008281813031F4FB01808191810E940715E0
:102A500008958230E9F7FB0182819381F7CFCF930C
:102A60008823C1F0C82F8CEF8C0F813A10F5A8E2B3
:102A7000B2E0E6E2F2E08EE292E02D91C21761F060
:102A80008A179B07D1F76C2F86E292E00E94B00D67
:102A90000E94FD13CF9108958CE292E02281C2132F
:102AA00001C0128231968E179F07C1F70E94FD1355
:102AB000EACF80E28C0F883068F4C77021E030E004
:102AC00001C0220FCA95EAF780916B03822B809395
:102AD0006B03DECFEBE5EC0FE33040F4F0E0EB52BC
:102AE000FE4F808190E00E94EF0DD4CFC85ACB31C9
:102AF00088F6EC2FF0E0EE0FFF1FE852FE4F8081CA
:102B000091810E94CA0DC6CF1F93CF93DF93182FD8
:102B1000EB010E942F15209739F4812F0E94D414C5
:102B2000DF91CF911F9108958FE99FE00197F1F711
:102B300000C000002197EFCFA2E0B0E0E2EAF5E1AB
:102B40000C947E329A8389838AE0A82ECE01019666
:102B50000E942B0E8823E1F1813009F053C0CE0191
:102B600001960E942B0E813069F4CE0101960E94DD
:102B70002B0E60E570E0893311F070E060E00E9498
:102B80008415E4CF823039F4CE0101960E942B0ED9
:102B90000E942F15DBCF833039F4CE0101960E94BD
:102BA0002B0E0E94D414D2CF843081F4CE01019632
:102BB0000E942B0E10E000E0482F4053550B9A0165
:102BC0004A30510548F00115110599F48111BECF25
:102BD0002296EAE00C949A32A09EC001A19E900D2C
:102BE00011248901080F191FCE0101960E942B0E96
:102BF000E3CFEFE9FFE03197F1F700C000000150AB
:102C00001109E1CFE82FF0E0E950FA4EB490282FF7
:102C100026952695269530E0F901E951FA4EE49083
:102C20008770F12C082E02C0F594E7940A94E2F71D
:102C3000F1E0EF22FF24F901E952FA4EC490D12CC1
:102C4000082E02C0D594C7940A94E2F741E0C4224A
:102C5000DD24F901E953FA4E049110E002C0159504
:102C600007958A95E2F701701127E114F10419F034
:102C700081EE0E942F15C114D10419F086EE0E9436
:102C80002F1570E060E08B2D0E948415C114D104D3
:102C900019F086EE0E94D414E114F10419F081EECB
:102CA0000E94D4140115110509F450CF70E060E0C2
:102CB0008CE265CFCF93DF93EC010E9455129E0109
:102CC000205E31092830310510F0209741F40E9430
:102CD000CA148C2F0E942F15DF91CF9108950E9466
:102CE000B914F7CFFB01808191810E945A16089593
:102CF000CF93DF93FC012281223049F4FB01EC01E8
:102D0000828193810E945A168D8182608D83DF912A
:102D1000CF9108950F931F93CF93DF93EC01FC01A4
:102D200001900020E9F78F0101501109C017D10768
:102D300028F0DF91CF911F910F91089589910E9402
:102D40004A13F4CFAB0124E630E0BC0188E70E94CF
:102D5000153021E0892B09F020E0822F0895809121
:102D60005B0390915C03911103C091E08927089562
:102D7000882369F062E070E08CE99FE00E94A2166F
:102D8000811103C080915B03089510925B038091D1
:102D90005B03EBCFCF93C0915B0380915C038823EF
:102DA000D1F00E94A10D605A75418F4F9F4F6093E3
:102DB0005703709358038093590390935A03C1119A
:102DC00008C062E070E08AE99FE00E94A2168111CB
:102DD00005C0C0915B038C2FCF91089581E0809353
:102DE0005B03F7CF9091300392FB222720F928173D
:102DF00079F080FB92F99093300360912F037091EA
:102E0000300384E090E00E94F23282E00E94A4113C
:102E10000895CF92DF92EF92FF921F93CF93DF93AB
:102E200000D000D0CDB7DEB7C0907A02D0907B0240
:102E3000E0907C02F0907D020E94A10D6C197D094A
:102E40008E099F0911E0643671058105910570F1C5
:102E50000E944D0E6E5F7F4F8F4F9F4F69837A8325
:102E60008B839C838091190190911A0182589D4F08
:102E70004091180150E04530510510F044E050E019
:102E8000BE016F5F7F4F0E949E3382E090E00E9400
:102E9000EB31182F882351F00E94A10D60937A0224
:102EA00070937B0280937C0290937D02812F0F9020
:102EB0000F900F900F90DF91CF911F91FF90EF90A7
:102EC000DF90CF900895A1E0B0E0E9E6F7E10C943F
:102ED000803210912E03198300918802C0908902DC
:102EE000D0908A02E0908B02F0908C020E94A10D9B
:102EF0006C197D098E099F0964367105810591055C
:102F000010F4011749F1809121019091220182581A
:102F10009D4F4091200150E04115510511F041E0D5
:102F200050E0BE016F5F7F4F0E949E3383E090E0D0
:102F30000E94EB31182F882351F00E94A10D60935D
:102F4000890270938A0280938B0290938C02812F66
:102F50002196E8E00C949C3211E0F9CF8F929F9279
:102F6000AF92BF92EF92FF921F93CF93DF9300D067
:102F700000D000D0CDB7DEB77B0190E080E00E94AA
:102F8000EB31182F882309F464C040910B0150E005
:102F90004115510511F041E050E060910C01709134
:102FA0000D0162587D4FCE0106960E949E3380909F
:102FB000760290907702A0907802B09079020E94F9
:102FC000A10D681979098A099B0964367105810583
:102FD000910538F48FE792E00E942F0C9E818917AB
:102FE000C1F181E090E00E94EB31182F882391F02D
:102FF0004091130150E04630510510F045E050E09B
:10300000609114017091150162587D4FCE010196B7
:103010000E949E338FE792E00E942F0C91E02E8158
:10302000281390E0192301F10E94A10D609376020C
:1030300070937702809378029093790285E0FE0185
:103040003196A1E7B2E001900D928A95E1F711E087
:103050000BC085E0EFE7F2E0DE01119601900D92E2
:103060008A95E1F71111EACF85E0E1E7F2E0D701B7
:1030700001900D928A95E1F7812F26960FB6F8946C
:10308000DEBF0FBECDBFDF91CF911F91FF90EF90BC
:10309000BF90AF909F908F90089578941F920F9259
:1030A0000FB60F9211248F939F93AF93BF9380918C
:1030B0007F0390918003A0918103B09182030196D8
:1030C000A11DB11D80937F0390938003A093810382
:1030D000B0938203BF91AF919F918F910F900FBEDC
:1030E0000F901F9018952FB7F89480917F039091BF
:1030F0008003A0918103B09182032FBF0895309186
:103100007D0320917903321720F4209179032093D5
:103110007D03609376037093770380937803909395
:1031200079030E9473189093900380938F0381E03A
:1031300080938E030895AAE2B0E0E1EAF8E10C94EE
:103140008232EAE9F3E08091F100819323E0E23AF0
:10315000F207C9F780919B03833009F487C008F513
:10316000813009F45EC0823009F4E0C08091E8004B
:1031700083FF1AC180919A0390919B039A3008F0C3
:1031800013C1E92FF0E0E953F74E0C946933A71906
:10319000CD19D419CD19D419251A471AD419D01B11
:1031A000DD1B8A3009F4A7C08B3009F47CC089305C
:1031B000E9F680919A038132C9F680919E0390913D
:1031C0009F03029798F68091E800877F8093E8003C
:1031D0008091E80082FF45C08091F3009091F20059
:1031E000892798278927029731F48091F10081304F
:1031F00011F0863071F48091F10080936901609143
:1032000068017091690180916A0190916B010E943F
:103210007F188091E8008B778093E8000E94940CDF
:10322000A5CF80919A03813A09F0A0CF8091E80060
:10323000877F8093E80080919E0390919F03892B64
:1032400061F060E090E080E070E00E94400D8091CD
:10325000E8008B778093E80089CF68E084E893E00A
:10326000F3CF809198038111B3CF80CF80919A03DF
:10327000813A09F07BCF80919E0390919F03892B27
:1032800009F074CF8091E800877F8093E8008091F7
:10329000E80080FFFCCF80916A018093F10080916B
:1032A000E8008E77B9CF80919A03813209F05ECF22
:1032B00080919E0390919F03892B09F057CF8091B5
:1032C000E800877F8093E8000E94940C81E0909151
:1032D0009C03911101C080E080936A0160916801B4
:1032E0007091690180916A0190916B010E947F1831
:1032F0000E9439143BCF80919A03813209F036CF76
:103300008091E800877F8093E8000E94940C809170
:103310009D038093680160916801709169018091BB
:103320006A0190916B010E947F1820CF80919A03CF
:10333000813A09F01BCF8091E800877F8093E800F5
:103340008091E80080FFFCCF80916801A6CF803893
:1033500089F0823849F580919E038F70873020F57F
:103360008093E9008091EB0085FB882780F910921B
:10337000E90006C080918C0390918D0391118260C9
:103380009091E800977F9093E8008093F10010926D
:10339000F1008091E8008E7727C0282F2D7F21F43F
:1033A0008823A1F0823029F18091E80083FF0AC0D0
:1033B0008091E800877F8093E8008091EB00806235
:1033C0008093EB00AA96E6E00C949E3280919C03D9
:1033D000813051F7933009F080E080938D03109293
:1033E000E9008091E800877F8093E8000E94940CB8
:1033F000DBCF80919C038111F2CF80919E038F706F
:103400002FEF280F263080F68093E9002091EB0003
:1034100020FFE5CF933031F48091EB008062809300
:10342000EB00DDCF9091EB0090619093EB0021E0F9
:1034300030E001C0220F8A95EAF72093EA0010924B
:10344000EA008091EB008860EACF8111ADCF109146
:103450009C031F778091E3008078812B8093E300A9
:103460008091E800877F8093E8000E94940C80910F
:10347000E80080FFFCCF8091E30080688093E30048
:1034800083E0111101C082E0809398038DCF8058B2
:10349000823008F089CF80919C0390919D038C3DF0
:1034A00043E09407A1F583E08A838AE289834FB7DA
:1034B000F894DE01139620E03EE051E2E32FF0E0C5
:1034C00050935700E49120FF03C0E295EF703F5FF7
:1034D000EF708E2F90E0EA30C0F0C7968D939D93E9
:1034E0002F5F243159F74FBF8091E800877F809389
:1034F000E8006AE270E0CE0101960E94400D8091E2
:10350000E8008B778093E8004FCFC096E7CF4091DB
:103510009E0350919F03292F33272330310509F44F
:1035200048C080F52130310509F4EFC02230310563
:1035300009F03ACF0BE310E0E4E1EE2EE0E1FE2EDD
:103540008091E800877F8093E8008091A0039091AC
:10355000A1030817190708F4C80140E0009709F013
:10356000E9C04111E7C08091E80082FDC8CF809199
:103570009803882321F2853011F28091E80083FFBF
:10358000F2CFBDCF2132310509F4B1C0223231056D
:1035900009F00ACF4115510509F4C5C04130510564
:1035A00009F002CF02E310E03EE9E32E3FE0F32E04
:1035B000C7CF99278130910509F45AC040F002978E
:1035C00009F460C010E000E0F12CE12C09C0E3E850
:1035D000F0E1E4910E2F10E073E8E72E70E1F72E92
:1035E0002091A0033091A103809192038F5F80937B
:1035F000920330939703209396032230310509F00C
:103600004BC0909193039F5F90939303833010F18D
:1036100090919503923038F040919403411163C02A
:10362000891709F45EC040919303853008F447C0C0
:103630002F3F310509F04BC0992309F44AC083E0BC
:10364000423008F051C0411105C080919403882395
:1036500009F447C00E9473189093900380938F03DE
:1036600081E080938E030115110509F49DCE68CF8A
:10367000E1E7F0E1E4910E2F10E061E7E62E60E172
:10368000F62EAECFE1E6F0E1E4910E2F10E051E628
:10369000E52E50E1F52EA4CF2430310531F4909180
:1036A00094039F5F90939403B1CF2F3F310509F0AE
:1036B000ADCF909195039F5F90939503A7CF8430F2
:1036C00031F49111C0CF423021F484E00DC091114A
:1036D000BACF433009F0BECF80919403813009F016
:1036E000B9CF81E001C082E080939103B3CF41154F
:1036F000510591F04130510509F056CE09E010E036
:103700004FE3E42E40E1F42E1BCF02E110E02FE462
:10371000E22E20E1F22E14CF09E010E096E2E92E2D
:1037200090E1F92E0DCF04E410E080EDE82E8FE05B
:10373000F82E06CF20919803222309F4E0CE2530FD
:1037400009F4DDCE2091E80023FDD9CE2091E800D8
:1037500022FD09CF2091E80020FF00CF2091F30047
:103760003091F200232732272327009719F02830C1
:10377000310558F041E02830310509F040E0209152
:10378000E8002E772093E800E9CEF70144914093BA
:10379000F100FFEFEF1AFF0A01972F5F3F4FE5CFD0
:1037A000803809F001CE8091E800877F8093E8009F
:1037B000809199038093F100ECCD8111F5CD1091AA
:1037C0009C03123008F0F0CD8091E800877F809351
:1037D000E800109399030E94940C1123F9F084E0FF
:1037E0008093980342E061EC81E00E94B30C42E2D6
:1037F00061EC82E00E94B30C809198038430A1F4C4
:1038000082E080936B016091680170916901809101
:103810006A0190916B010E947F18C6CD8091E300F0
:1038200087FDDDCF81E0DCCF81E0EBCF1F920F92EF
:103830000FB60F9211242F933F934F935F936F9383
:103840007F938F939F93AF93BF93CF93EF93FF9308
:10385000C091E900CF708091EC001092E900809156
:10386000F000877F8093F00078940E949B1810925C
:10387000E9008091F00088608093F000C093E90037
:10388000FF91EF91CF91BF91AF919F918F917F91D8
:103890006F915F914F913F912F910F900FBE0F90BD
:1038A0001F9018951F920F920FB60F9211242F930D
:1038B0003F934F935F936F937F938F939F93AF93B8
:1038C000BF93CF93EF93FF938091E10082FF09C0F4
:1038D0008091E20082FF05C08091E1008B7F8093A0
:1038E000E1008091DA0080FF24C08091D80080FF41
:1038F00020C08091DA008E7F8093DA008091D90019
:1039000080FFD2C080E189BD82E189BD09B400FE9B
:10391000FDCF81E08093980380918303811109C0DA
:103920000E94460C0E94E50C8091E2008460809326
:10393000E2008091E10080FF24C08091E20080FFDE
:1039400020C08091E2008E7F8093E2008091E200AF
:1039500080618093E2008091D80080628093D800DB
:1039600019BC85E08093980383E080936B0160919C
:1039700068017091690180916A0190916B010E94C8
:103980007F188091E10084FF39C08091E20084FFBC
:1039900035C080E189BD82E189BD09B400FEFDCF5B
:1039A0008091D8008F7D8093D8008091E1008F7E38
:1039B0008093E1008091E2008F7E8093E20080910D
:1039C000E20081608093E20080919903882309F4EA
:1039D00071C084E08093980380919803843009F447
:1039E00071C081E080936B01609168017091690101
:1039F00080916A0190916B010E947F188091E10093
:103A000083FF40C08091E20083FF3CC08091E100D1
:103A1000877F8093E10082E080939803109299035E
:103A20008091E1008E7F8093E1008091E2008E7FA3
:103A30008093E2008091E20080618093E20042E0A6
:103A400060E080E00E94B30C8091F0008860809379
:103A5000F000C1E0C0936B01609168017091690151
:103A600080916A0190916B010E947F18C0936A0156
:103A7000609168017091690180916A0190916B0178
:103A80000E947F18FF91EF91CF91BF91AF919F91CD
:103A90008F917F916F915F914F913F912F910F90F7
:103AA0000FBE0F901F90189519BC1092980310929A
:103AB00083033FCF8091E30087FD02C081E08ACF7E
:103AC00083E088CF82E08ECFEF92FF920F931F9317
:103AD000CF93DF93C42FD22FFC0185818823A9F0D7
:103AE000409369030E94731890936803809367035F
:103AF000C77081E001C0880FCA95EAF70E94CA1416
:103B0000CDB7DEB7E6E00C949E3210916903141332
:103B100037C0E0906703F09068030E9473188E1915
:103B20009F098F3A910560F5C0E2CD0F1D17C1F0D6
:103B300080E2810F883048F4177081E0012E01C0C7
:103B4000880F0A94EAF70E94C314C83000F581E098
:103B50009D2F977001C0880F9A95EAF70E94CA14AA
:103B600070E060E0802F0E948415C83048F6D7705E
:103B700081E001C0880FDA95EAF70E94C314C0CF34
:103B8000C77081E001C0880FCA95EAF7F6CF70E0F0
:103B900060E0802F0E948415B3CF80915F03811174
:103BA0000FC010926B030E948E100E9473188857EA
:103BB0009C4E90935E0380935D0381E080935F034E
:103BC0000895AFE0B0E0E7EEFDE10C9479328E01AC
:103BD0000F5F1F4F8AE0F80111928A95E9F780E1A3
:103BE000E82E82E0F82E680195E1692E92E0792EA8
:103BF000AA24A394B12C3BE1832E32E0932EF7014B
:103C000081917F018F3F09F440C0F894E82FE2953D
:103C1000EF70F0E021A18F70A50102C0440F551F85
:103C20008A95E2F7CA01922F982B91A392A18095D1
:103C3000892382A3789400C0E5E1F2E0512C31E0C1
:103C400021912F3F09F492C0A22FA295AF70B0E04E
:103C500090968C9190E02F7002C0959587952A954B
:103C6000E2F780FD83C0832F582A330F8E169F06FC
:103C700039F7F701319780818F3F11F00E94360E9E
:103C800050EA5A95F1F7F6015082FFEFCF1ADF0A9A
:103C90006E147F0409F0B3CF4AE050E0B80182E926
:103CA00092E00E949133009741F02AE0F801A2E9E6
:103CB000B2E001900D922A95E1F700919D0210E08B
:103CC00000561D4F892B09F453C081E0809369028F
:103CD0000E9473189093680280936702D12CC09061
:103CE0006E03CC2009F4A1C07E012BE0E20EF11C92
:103CF00085E0F70111928A95E9F780918D028A306B
:103D000008F05CC04EEA57E1B701C8010E941713E2
:103D1000882309F477C049E057E1B701C8010E9440
:103D20001713882309F46EC043E657E1B701C801B1
:103D30000E941713882309F465C010928D028091A8
:103D40009C0290E045E050E0B70180569D4F0E94F4
:103D5000913321E020937002892B09F046C0C12CD9
:103D60008C2D8D292F96EFE00C94953280E07CCF3E
:103D7000D0906902DD2009F4B1CFE0906702F090A5
:103D800068020E9473188E199F09059708F4A6CF40
:103D900045E050E062E972E0C8010E949133892B4E
:103DA00059F085E0E2E9F2E0D80101900D928A95A0
:103DB000E1F71092690293CFD12CFBCFA0906A0259
:103DC000B0906B020E9473188A199B09843F91403E
:103DD00008F098CF80917002882309F285E0F701FE
:103DE00011928A95E9F710927002A0919C02B0E0BE
:103DF000A056BD4F85E0FE013B9601900D928A953D
:103E0000E1F7AECF80918D028F3F19F08F5F8093E5
:103E10008D0280918D028A3008F491CF0E94731830
:103E200090936B0280936A02D5CF85E0F801AFE7EB
:103E3000B2E001900D928A95E1F78FE792E00E943F
:103E40002F0C80937E028090840290908502A09037
:103E50008602B090870280916C0290916D02A091D1
:103E60006E02B0916F0288169906AA06BB06B1F0E1
:103E700080926C0290926D02A0926E02B0926F02DC
:103E80000E94A10D861A970AA80AB90A80928E028A
:103E900090928F02A0929002B0929102809188023B
:103EA00080932E035DCFB0E0A0E0E9E5FFE10C9444
:103EB0007F32DC0114962C91222309F4B5C07C01D9
:103EC00061E00E942A12EC01F7018581882321F12B
:103ED000E0916C03F0916D033097F1F0CE17DF079E
:103EE000D9F0FF27E230F10508F06FC094E0EE0F43
:103EF000FF1F9A95E1F7ED5CFE4F85818460858315
:103F0000D183C083CF010E947E1410926A0361E0C6
:103F1000C7010E942A12EC01D70115962C91222389
:103F200009F45CC0AE015A95CE0199274115BFE452
:103F30005B0738F0CE01CF3FD10519F010F090E0CB
:103F400080E0BC01645071096432710518F08B97F0
:103F50000E9780F4E091BD02F0E0EE0FFF1FEE53EC
:103F6000FD4F808191818F3F3FE7930719F00196C4
:103F70009183808341155F4458F5CE0199278C3495
:103F8000910511F08A9789F4E091BD02F0E0EE0FFF
:103F9000FF1FEE53FD4F808191818115A0E89A07A4
:103FA00009F4BAC6019791838083C134AEE7DA077A
:103FB00009F49FC608F0A0C6C034EEE7DE07B9F4E6
:103FC0008EE19DE00E949C1538C0F0E0E0E095CFC6
:103FD000CF3FD10509F048F7CE01D1CFC234BEE7BB
:103FE000DB0759F130F5C034FEE7DF0730F5C337A2
:103FF0008CE7D80711F5222339F080915F038823DD
:1040000009F49BC00E94AF1480916003877061F037
:10401000D70115968C91882339F08091300382FF67
:1040200003C082E00E94A411CDB7DEB7E9E00C9492
:104030009B32C3343EE7D307D1F680915F038111F1
:1040400082C0D70115968C91882339F1C13ED105E4
:1040500029F0C23AB2E5DB0709F072C08091320262
:10406000882371F0F7018281938120913002309191
:104070003102821B930B8F3F9F4710F00E94CD1D92
:1040800081E080933202D70112968D919C918155E7
:104090009F4F9093310280933002CE0197558F3F0E
:1040A000910511F008F043C1FE01FF27E230F10550
:1040B0000CF0AACFA4E0EE0FFF1FAA95E1F78F0145
:1040C0000D5C1E4FD70115969C911597E85CFE4F2D
:1040D000808190FB80F9808315968C91882309F468
:1040E00009C10E9473189093B6028093B502F8013B
:1040F00082818F5F828380916A0390916B03892B09
:1041000083838091640284834681578166857785A5
:10411000C8010E94250ED80115968C9181FDE7C03B
:104120009C2F8D2F90936C0380936D0384C022236A
:1041300009F483CF8AE19DE045CF0E94CD1D64CF75
:1041400010923202AACF00916B03109164020E9478
:10415000731888579C4E90935E0380935D03F7011C
:104160008581882309F499CF102B1D7909F0ABC004
:10417000C034F2E5DF0780F5C11522E5D20708F06B
:104180008CCFC11530E4D30758F4C11580E2D807AD
:1041900008F040C0C63ED10509F47FCFCE010BC068
:1041A000C11590E5D907D0F7F7018681807F09F422
:1041B00047C0CE01992710926A038832910508F012
:1041C00085C08E31910508F088C0049708F47BC043
:1041D00082E080936A0381C0C03EA2E5DA07A0F4C2
:1041E000C03CB2E5DB0708F058CFC036E2E5DE0799
:1041F000A8F2C03AF2E5DF0708F44FCFC43B22E54E
:10420000D20709F44ACFCACFCE0187579C470297FD
:1042100028F643CFD70116968C91807F51F68D2FCB
:104220008F71823109F44DC008F046C0823009F424
:1042300048C00E94AF14F7018581882309F41CC58A
:1042400010926903CE019057839708F0FEC484E072
:1042500090E00E94BE329093300380932F03FE01C2
:10426000E150F047E232F10508F0A0C0E65CFE4DF7
:104270000C946933102285221822E221E6211C22A7
:10428000EA2120222C22F6217E22FA213022FE2150
:1042900034225C2202223822632208223E22462255
:1042A000EE212422F22128220C22422252226C22C8
:1042B0007C22DC2114228C228431C9F1863109F060
:1042C000B8CF10926A030E94AF14E7CE8D329105E9
:1042D00009F47ECF28F48A97B1F70E94FD13DDCE52
:1042E0008C349105D1F38D329240B9F3ECCF90E04C
:1042F00080E018CFF8014485558566857785C8012B
:104300000E94250ED80115968C9181FF94CFC8018B
:104310000E94651480916C0390916D03C817D907B2
:1043200009F089CF10926D0310926C0384CFFE01C7
:10433000E851FC47E730F10508F07DCFEE55FE4D22
:104340000C946933B821BE21A921B221C421CA210C
:10435000D02106E221EE41EE6AE17CE7C7010E942E
:10436000641D52CE07E225EE45EE6BE17CE7F6CF09
:1043700006E221EE40EE68E17CE7F0CF07E225EEB1
:1043800044EE69E17CE7EACF06E221EE42EE6CE121
:104390007CE7E4CF07E225EE46EE6DE17CE7DECF79
:1043A00008E221E045EE6EE17CE7D8CF80912F0353
:1043B000816080932F0395C0809130038860809343
:1043C00030038FC080912F038260F3CF80912F0341
:1043D0008460EFCF80912F038860EBCF8091300312
:1043E0008160EDCF809130038260E9CF80912F030F
:1043F0008061DFCF80912F038062DBCF80912F031C
:104400008064D7CF0E94391480912F038068D1CF68
:1044100080912F038860DCCF809130038260E0CFF1
:1044200080912F038E7FC5CF80913003877FC7CFC8
:1044300080912F038D7FBDCF80912F038B7FB9CFCC
:1044400080912F03877FB5CF809130038E7FB7CFC8
:10445000809130038D7FB3CF80912F038F7EA9CFC2
:1044600080912F038F7DA5CF80912F038F7BA1CFCC
:104470000E94391480912F038F779BCF80912F0357
:10448000877FDCCF809130038D7FE0CF80912F0339
:1044900082FB992790F921E0922790FB82F990FB0B
:1044A00083F987CF80913003982F909591708E7FFC
:1044B000892B90FB81F983CF90912F03892F8F7BDC
:1044C00096FF806476CF0E94391490912F03892F34
:1044D00097FB87F980586DCF61E08EE090E00E94F5
:1044E000D43260912F037091300384E090E00E94F9
:1044F000F2320E94391488CD60E0EFCF90912F0303
:10450000892F8F7E94FF806154CF90912F03892F44
:104510008E7F90FF81604DCF90913003892F877FF0
:1045200093FF88604CCF89E2E6E2F2E09281891342
:1045300001C01282319622E0EC32F207B9F799C33A
:1045400081E00E94BB1143E062E081E00E946611BD
:104550005BCD81E00E949211F6CF82E0F2CF0E9403
:10456000A10D609361037093620380936303909342
:10457000640380910C0390910D03209165033091A9
:104580006603AC014095509542235323452B31F0EF
:10459000282339233093660320936503F70145816F
:1045A000CB37FCE7DF0749F5442309F42DCD292F4C
:1045B000332721153105F9F49C0180E0A90174E04D
:1045C000569547957A95E1F74115510511F08C5FA5
:1045D0009A01A9015695479556954795411551055C
:1045E00011F08E5F9A0136952795232B09F08F5F86
:1045F0000E94CB1109CD88E0E1CFC11522E5D20799
:10460000F0F4C11530E5D307E8F5C11580E4D8070B
:1046100008F055C0442309F46BC0C330FCE7DF0742
:1046200009F4EEC008F0C2C0C1153CE7D30709F495
:10463000CBC0C130DC4709F05BC00E944F14C032D0
:1046400092E5D90738F3C034A2E5DA0728F0CE01A5
:10465000805C92458097F0F68C2F8F7121E030E0DE
:10466000082E02C0220F331F0A94E2F760916503FF
:104670007091660326233723232B61F2442309F428
:10468000C3CCB6CFCE0125E0969587952A95E1F764
:104690008F7021E030E0082E02C0220F331F0A94F1
:1046A000E2F7609165037091660326233723232B7D
:1046B00009F4B0CF41119CCF10926B03DAC2F7011D
:1046C0008681807F09F0A6CF411112C02D2F2F7057
:1046D00081E090E002C0880F991F2A95E2F72091AF
:1046E00065033091660382239323892B09F08CCCD8
:1046F000F7018581C081D181882309F494C0CE015E
:104700000E94AE10182F682FCE010E942211BE0108
:10471000812F0E945A0F0E94780FD82FC92FB82ED0
:10472000D7011596DC9015971696CC90C2948FE021
:10473000C82280916003877001F10D2DDD20F1F01A
:10474000892F807F803469F080E28D0F8830A8F057
:10475000892F807E803229F4B1E0BD1770F4CC201F
:1047600061F08091300382FF08C082E00E94A411B2
:1047700080916003877001E009F000E01C2F129522
:104780001F701C3008F0ABC0E12FF0E0E653FC4D89
:104790000C946933182418244A244A24DF246F24F3
:1047A0006F246F24FF248C259D259D25CB359CE708
:1047B000D907B9F1CC35ACE7DA0749F1CA35DC479E
:1047C00009F096CF81E02AC00E943914EFEFF4E39C
:1047D0002CE0E150F0402040E1F700C0000087E706
:1047E00097E7909301088093000888E19AE00FB65C
:1047F000F894A895809360000FBE90936000FFCF5F
:104800006FEF7FEF90E080E00E94F23216CF809150
:10481000300382FB882780F991E089270E94F216F5
:1048200067CF80E0FBCFCE010E94EF10182F6FCF33
:104830001C2F1F70C07F11F01295107F8D2FDD206F
:10484000B9F0112369F090E29D0F983010F0D1116A
:1048500009C080916B03182B10936B030E94FD130A
:104860008D2F3BC080916A03182B10936A03F6CFFB
:104870000E94D414112399F1D05E812FD83010F00A
:10488000B11003C00E949C1002C00E9494100E94AC
:10489000FD1325C01C2F1F70C07FC03211F0129570
:1048A000107FBB2051F0E1E0BE1609F468C0DD20A6
:1048B00009F474C0CC20C1F1D3CF8091300382FDC4
:1048C0002FC0DD2031F1112339F080916B03182BBB
:1048D00010936B030E94FD1380E00E942F150023AC
:1048E00009F4C3C08091600380FDBFC0D701159655
:1048F0001C928695869586950E94BB11C7010E94E1
:10490000531F809160038695869586950E9492112B
:10491000ACC080E00E94D414112309F3812FB2CFE0
:10492000DD2099F0C11004C0812F0E94CA14D7CF96
:10493000F1E0CF12D4CF80916402912F9823191700
:1049400071F2182B10936402CACFC110C8CF812F07
:104950000E94C31490916402812F892329F0812F32
:10496000809589238093640280913402912F98234B
:1049700009F4B5CF1095182310933402B0CFDD2081
:1049800029F025E02C1508F4AACFCECF34E03C1551
:1049900008F4A5CF812F0E94C314A1CFCC20D1F35E
:1049A000D93349F48FEF97EEA3E081509040A040B7
:1049B000E1F700C000008D2F0E94D41490CF8C2FFF
:1049C00086958695837039F0813079F018501430CF
:1049D00008F085CF48C08D2F9C2F9370D11002C056
:1049E00080E090E00E94EF0D7ACF8D2F9C2F937086
:1049F000D11002C080E090E00E94CA0D70CF8C2FD1
:104A0000837009F045C0D1102EC04D2F42954695B8
:104A10004770440F440F2D2F2F7030E0042E02C03A
:104A2000220F331F0A94E2F790E080E0D4FF09C020
:104A30008FE090E002C0880F991F4A95E2F78095B9
:104A40009095C695C695C370C230C9F0A8F4409140
:104A50009E0250919F02C13069F0822B932B8423D8
:104A600095230E9403120E94140E60E0C7010E9469
:104A70002A12DACA242B352B822B932BF2CF822BCE
:104A8000932B20919E0230919F0282279327E9CF9A
:104A90008695DD2011F08C2F8170882321F34D2F16
:104AA000429546954770440F440F2D2F2F7030E0EC
:104AB000042E02C0220F331F0A94E2F790E080E038
:104AC000D4FF09C08FE090E002C0880F991F4A957B
:104AD000E2F780959095C695C695C370C23099F05F
:104AE00078F440910C0350910D03C13039F0822BC2
:104AF000932B842395230E945811B5CF242B352B5B
:104B0000822B932BF8CF822B932B20910C03309187
:104B10000D0382279327EFCFCF70DD2039F08C2F44
:104B20000E94BB118D2F0E94CA149DCF8D2F0E9411
:104B3000C3148C2F0E94921196CF8D2FB2EFBB160B
:104B400009F43FC0BB1580F0E0EFBE16F1F0F1EFC5
:104B5000BF16A1F0DD2009F464C0CC2009F45EC0CA
:104B60008D2F0E942F1532CF23EFB21689F134EF2B
:104B7000B312F0CF9091300392FD37C08C2F8F711C
:104B8000DD2019F10E94BB1121CFDD20A9F084E0C6
:104B90008C1508F41BCFCF7181E090E002C0880F24
:104BA000991FCA95E2F720910C0330910D038227DB
:104BB00093270E9458110ACF95E09C1508F406CF60
:104BC000EACF8C2F8F71DD20E9F20E949211FECE88
:104BD00090E080E0DD2069F3CF7181E090E002C0D9
:104BE000880F991FCA95E2F7E4CFDD2061F08C2F82
:104BF0008F7192FFC7CFA8E08A9F90011124236094
:104C000020936003BFCF81E00E94A411B1E0BC15E6
:104C100008F0DCCE82E00E94A411D8CE8C2F8F71D8
:104C2000B1CFCC2079F0893349F4EFEFF7EE23E0F0
:104C3000E150F0402040E1F700C000008D2F0E94BD
:104C4000D414C4CE8C2F8F71C0CFC631BCE7DB0724
:104C5000F1F480916B038A7A91E009F490E09093EB
:104C6000330265E3811101C069E286E292E00E94AD
:104C7000B00D0E94FD13C8C9C631ECE7DE0771F51F
:104C800080913302882309F44ECC85E34DCCC7379D
:104C9000FCE7DF0709F454CCC8372CE7D20709F446
:104CA0005CCC81E09E01205E32452032310508F067
:104CB00056CC811154CCCF7181E090E0DC0102C070
:104CC000AA0FBB1FCA95E2F7ED016A2F83E090E0BF
:104CD0000E94D432CE010E94031296C9C7373CE726
:104CE000D30709F436CCC8379CE7D907D9F682E058
:104CF00031CC8CE19DE066C9C234FEE7DF0709F4E0
:104D000019CAC3343EE7D30709F071C9222309F455
:104D100094C988E19DE056C9C1348EE7D80749F3AC
:104D200030F4C034AEE7DA0709F061C949C9C234CA
:104D3000BEE7DB0709F4FBC9C334EEE7DE0749F33E
:104D400056C9B0E0A0E0E7EAF6E20C948132809127
:104D50005B02807F09F050C080915A02882309F4D9
:104D60004BC0E091DB0387E0D82E8091A2038E1721
:104D700009F442C00E2F10E0ED9DF0011124ED5515
:104D8000FC4F84818823E9F1D09EE001D19ED00DB3
:104D90001124FE01ED55FC4F91818091560298132C
:104DA00030C090818091550298132BC0858181116C
:104DB00028C0E280F3808091570290915802E81A4F
:104DC000F90A60E085E592E00E942A128FEAE8166F
:104DD000F104B8F480915B028F70806180935B0274
:104DE000C755DC4F88818F708061888385E592E0AC
:104DF0000E94531F0E94A410CDB7DEB7E7E00C94C9
:104E00009D32F8013196E770B0CFA4E1B0E0EBE05D
:104E1000F7E20C9479328C0186E0F801DE011F96EE
:104E200001900D928A95E1F7F801F480E58085E51F
:104E3000882E82E0982E8091590281112AC0F110AB
:104E400003C0FF24F3941CC0EE20F9F0C8010E94B7
:104E50000812F82E8823C9F087E0F801A5E5B2E032
:104E600001900D928A95E1F780915902813031F4D9
:104E700080915502909156020E94E2100E94A12654
:104E80008F2D6496EFE00C949532C8010E94531F59
:104E9000D8CFC280D380B0905A02809157029091AF
:104EA00058023601681A790ABB2009F4F7C050800D
:104EB000A18060E085E592E00E942A12FFEA6F1669
:104EC000710408F0A4C0FF2009F4BBCF80915B02FD
:104ED000382F307F20915602F8019181311157C04F
:104EE000FE2C291314C020915502908129130FC064
:104EF000E11046C08F70806180935B0285E592E08F
:104F00000E94531F80915B02F8018683B9CFE110A4
:104F100037C06A2D852D0E94100C6A2D852D0E94A8
:104F2000100CE82E8111ACCF5F86A88A8F859889F6
:104F30000E94E210292F22952F70243058F49F7080
:104F4000223080F0992391F0F8019681907F71F4DE
:104F5000FE2C96CF2A50223068F0C8010E94531FC1
:104F6000EB2CF6CF992311F0882391F3805E8830E3
:104F7000A0F7EECF803F60F3815F833070F7E8CF1A
:104F800080915B02816080935B02F12C79CF2913C1
:104F900015C0209155029081291310C0E1100EC058
:104FA0008683C8010E94531F87E0F801A5E5B2E09F
:104FB00001900D928A95E1F7FB2C62CFC8010E9407
:104FC0000812882309F461CFEE2009F45ECF8091A6
:104FD0005B02803288F02091550230915602398769
:104FE0002887DB86CA86909159029C871D868E870A
:104FF000CE0108960E94531F87E0F801A5E5B2E0B4
:1050000001900D928A95E1F70E94A1261ACF809116
:105010005B02982F907F51F485E592E00E94531F28
:1050200087E0F40111928A95E9F7AFCFFF2009F4E8
:1050300008CF20915602F8019181291311C02091C7
:105040005502908129130CC0E1100AC08683C80163
:105050000E94531F87E0F40111928A95E9F7ACCFC3
:10506000C8010E940812882309F40FCFEE2009F42A
:105070000CCF80915B02803208F4BECF20915502A4
:10508000309156023A832983DC82CB829091590277
:105090009D831E828F83CE010196ACCF60E085E5B3
:1050A00092E00E942A12FFEA6F16710408F0B8CF4E
:1050B000FF2009F4C6CEFE2CEE2009F4E6CE909136
:1050C0005602F801818198132DC09091550280817C
:1050D000981328C08091570290915802C81AD90A93
:1050E000FFEACF16D104A8F490915B0290FD11C0A5
:1050F000907F79F080915B02F8018683903F31F0D8
:10510000982F907F905F8F70892B8683C8010E94B3
:10511000531F87E0F801A5E5B2E001900D928A9552
:10512000E1F7AECEC8010E940812811165CF8091CF
:105130005B02816080935B02C8010E94531FA0CE76
:10514000ABE1B0E0E6EAF8E20C9485324E8B5F8B7F
:10515000688F798F8A8F9B8F911110926A031D8AB5
:1051600086E0FE017696DE011F9601900D928A95EB
:10517000E1F78B89882351F061E0CE010F960E9400
:105180002A1261E0CE010F960E942A1287E0FE01EA
:105190003F96DE01189601900D928A95E1F7CE01B7
:1051A00008960E94052781112AC087E0FE013896E3
:1051B000DE01119601900D928A95E1F78C85882386
:1051C000F1F02091A20330E0C90101968770992780
:1051D0004091DB034817190659F197E0929FD001DF
:1051E000939FB00D1124AD55BC4FFE013196019037
:1051F0000D929A95E1F78093A2030E94A41017E004
:105200008091DB039091A2038917F9F0819FC0017F
:1052100011248D559C4F0E9405278823B1F0809161
:10522000DB0390E00196877099278093DB03E8CF3A
:105230000E9439141092A2031092DB0387E0E5E587
:10524000F2E0DF011D928A95E9F76B96E3E00C949A
:10525000A132A6E0B0E0EFE2F9E20C9484320E94C1
:1052600073188C01809165029091660280179107F6
:1052700081F019821A820E947318682F49815A811D
:10528000792F80E090E00E94A0281093660200939E
:1052900065022696E4E00C94A0321F920F920FB69E
:1052A0000F9211248F939F93AF93BF9380917E03AE
:1052B000811113C080917F0390918003A09181039D
:1052C000B09182034196A11DB11D80937F039093FD
:1052D0008003A0938103B0938203BF91AF919F910C
:1052E0008F910F900FBE0F901F901895CF93DF9363
:1052F000EC010E9473188C1B9D0BDF91CF910895D8
:10530000ADE0B0E0E6E8F9E20C94763285B780686B
:1053100085BF85B7806885BF84B7877F84BF0FB698
:10532000F894A89580916000886180936000109245
:1053300060000FBE80E890E00FB6F89480936100A3
:10534000909361000FBE81E080936B0160916801D2
:105350007091690180916A0190916B010E947F18A0
:1053600084E39EE090932502809324020E94460CE1
:105370000E94E50C8091E20084608093E2007894C2
:1053800080919803882399F01091E9001F70809113
:10539000EC0080FFA4C180E8182B1092E9008091F6
:1053A000E80083FD0E949B181F701093E90082E0C3
:1053B00084BD93E095BD9AEF97BD80936E001092E7
:1053C0008E0210928F0210929002109291028091A0
:1053D000D80080618093D8002AE12A95F1F700C0B7
:1053E0008091D900182F117080FD04C00E94460CD6
:1053F0001092980310936E0310936F03109328017B
:1054000011110E94FF30809128018091280190E0C5
:10541000811101C095E090939D0285E0891B8093E6
:105420009C0200E112E0D8018D918D018F3F11F0B7
:105430000E94360EB2E005311B07A9F705E112E024
:105440006BE1E62E62E0F62EF80181918F018F3F2D
:1054500011F00E94360EE016F106B1F78AE0E0EA9C
:10546000F2E0DF01282F1D922A95E9F7E2E9F2E048
:10547000DF011D928A95E9F790E080E00E94BE323C
:10548000853E9E4F09F461C065EE7EEF90E080E0BE
:105490000E94F23260E082E090E00E94D43281E02B
:1054A00090E090939F0280939E0261E083E090E001
:1054B0000E94D43260E074E184E090E00E94F23215
:1054C00060E086E090E00E94D43260E087E090E007
:1054D0000E94D43240E050E0BA0188E090E00E949F
:1054E000E63260E083E290E00E94D43260E08CE03B
:1054F00090E00E94D43260E08DE090E00E94D432CF
:1055000019821A821B821C821D821E821F821886AB
:1055100048E050E067E170E0CE0101960E94C4329D
:1055200040E050E0BA018FE190E00E94E63240E0B6
:1055300050E0BA018FE090E00E94E63240E050E097
:10554000BA0183E190E00E94E63282E090E00E949E
:10555000B6328093AA0284E090E00E94BE3290931B
:10556000300380932F0383E090E00E94B63290E0F6
:105570000E94031280916E038111B3C082E0809378
:10558000510380E88093E1030E949D2F6BE070E05F
:105590008FE89FE00E94A2168823E9F180915103D1
:1055A00065E070E081FD9FC08AE89FE00E94A2163E
:1055B000882389F16DE070E088E79FE00E94A216E1
:1055C000882349F10E94A10D605A75418F4F9F4F6A
:1055D00060935703709358038093590390935A0331
:1055E000EAEEF3E080E092E0DF019C011D922150A1
:1055F0003040E1F7F093EB05E093EA058FEF9FEF82
:105600009093E9038093E80381E080935C038093A7
:105610005B031092520380916E03811102C00E94BD
:10562000023189E291E0909373038093720354E610
:10563000852E912CA12CB12C8091980310E48530FB
:1056400009F488C00E94E11D0BEA12E040EAE42E52
:1056500042E0F42ED701F80191918D9122E0E53BD3
:10566000F20709F481C09817B9F340906E03D12C6A
:10567000D701CD907D01F80151908F015C1431F17B
:10568000712C662463945C24852D8621B9F0442016
:10569000A9F07982DA820E9473189C838B83F1E0EF
:1056A000FD8391E08C2D862109F490E09E83498151
:1056B0005A816B817C818D810E94A0287394660C35
:1056C00026E07212E1CFF8013197C082D3943AE01C
:1056D000D312CECF0E944D0E41E049874AC080E0F0
:1056E0005BCE80E04CCF85E89FE060CF809198034F
:1056F000843029F10E94AF1610927E0348E150E0F9
:105700000FB6F894A895409360000FBE1093600008
:1057100083B7817F846083BF83B7816083BF7894C0
:10572000889583B78E7F83BF0FB6F894A895809134
:105730006000886180936000109260000FBE0E943C
:10574000E11DE0EAF2E0819181118FC352E0EA3A73
:10575000F507C9F780919803853009F4C7CF0E94F7
:1057600039140E94140E6ECF98137FCF0E942929FE
:10577000198680916E03882309F425C100916C037A
:1057800010916D0301151105F9F0C090B502D0908C
:10579000B6020E9473188C199D09803B9105A0F0F8
:1057A000112790E080E00230110540F434E0000F52
:1057B000111F3A95E1F7C8018D5C9E4FDC011596EB
:1057C0002C9122FF0E947E14C090C202D090C3028E
:1057D0000D2C000CEE08FF0810915301212F30E032
:1057E000E2ECF2E081E090E03296281739070CF005
:1057F00030C14090BE025090BF026090C0027090D5
:10580000C1020E94A10D9B01AC0124193509460972
:10581000570929013A0139EC431651046104710416
:1058200014F18091BD0290E0019669E170E00E9460
:1058300014338093BD02880F991FFC01EE53FD4F76
:1058400011821082812F183108F087E18F5F8093D9
:1058500053010E94A10D6093BE027093BF0280931A
:10586000C0029093C10242E0C416D104E104F104E5
:105870005CF1A0E6BAEEA70196010E946F336B01BE
:105880007C0158EC159F90011124032E000C440B51
:10589000550B240D351D461D571DA5E0B0E00E9497
:1058A0006F339B01AC01C701B6010E942833213F31
:1058B00031054105510524F020EF30E040E050E093
:1058C00029013A0177FE03C0412C512C3201C090CE
:1058D000B902D090BA02E090BB02F090BC020E94E4
:1058E000A10D9B01AC012C193D094E095F0969010D
:1058F0007A0135E6C316D104E104F10484F00E9474
:10590000A10D6093B9027093BA028093BB02909389
:10591000BC0280912E038093B8024092B70210918E
:10592000B802A091B702A11BBB0BA70196010E9470
:105930007A33A50194010E944A33120F10932E036B
:1059400080915F03882369F00E94731820915D03A2
:1059500030915E03821B930B8F3F9F4710F40E9490
:10596000AF1400916503109166030115110559F1FB
:1059700040906103509062036090630370906403F1
:105980000E94A10D641975098609970961367A4E3E
:1059900081059105C0F00095109580910C039091C0
:1059A0000D03802391230E945811109266031092D8
:1059B00065030E94A10D609361037093620380935D
:1059C00063039093640380915C03882309F4F4C11A
:1059D00000915303109154030E947318801B910B84
:1059E000C29708F48CC00E9473189093540380935C
:1059F00053038AEE93E09093EB058093EA05809140
:105A00006E03882309F4B6C080910C0390910D03B6
:105A10008430910509F4A1C040F50097A1F16BE72E
:105A200071E08230910589F19F938F9389EB91E02A
:105A30009F938F931F9288E18F9384EF92E09F93BF
:105A40008F930E94AE330FB6F894DEBF0FBECDBF6A
:105A500020C040815181052E000C660B770BC40ECF
:105A6000D51EE61EF71E0196BFCE8031910509F4C2
:105A700077C08631910509F473C088309105A1F68D
:105A800069E971E002C06DE671E084EF92E00E9486
:105A9000A73384EF92E00E948A1681E00E94CB1324
:105AA0008091300380FF5FC087E591E09F938F93E3
:105AB00084E591E09F938F9389EC91E09F938F937E
:105AC0001F9288E18F938EE093E09F938F930E94C3
:105AD000AE330FB6F894DEBF0FBECDBF8EE093E0BD
