:100000000C94BE0E0C94DB0E0C94DB0E0C94ED2FB6
:100010000C94DB0E0C94DB0E0C94DB0E0C94DB0EBC
:100020000C94DB0E0C94DB0E0C9482180C94BF1C09
:100030000C9453270C94DB0E0C94DB0E0C94DB0E0B
:100040000C94DB0E0C94DB0E0C94DB0E0C94DB0E8C
:100050000C94DB0E0C946A190C94DB0E0C94DB0EE2
:100060000C94DB0E0C94DB0E0C94DB0E0C94DB0E6C
:100070000C94DB0E0C94DB0E0C94DB0E0C94DB0E5C
:100080000C94DB0E0C94DB0E0C94DB0E0C94DB0E4C
:100090000C94DB0E0C94DB0E0C94DB0E0C94DB0E3C
:1000A0000C94DB0E0C94DB0E0C94DB0E00000000B5
:1000B0000000000000000000000000000000000040
:1000C0000000000000000000000000000000000030
:1000D0000000000000000000000000000000000020
:1000E0000000000000000000000000000000808010
:1000F00080404020201008040204081010202040F6
:1001000040808000000000000000000000000000AF
:1001100000000000000000000000000000000000DF
:1001200000000000000000000000000000000000CF
:1001300000000000000000000000000000000000BF
:1001400000000000000000000000000000000000AF
:100150000000000000000000000000000000003F60
:10016000C1010102020404040402020101010000B1
:10017000000000008000004080804000003030001F
:10018000000000010264180412C2CA2488F08080B2
:10019000404040402020202010101010080808087F
:1001A0000404040402020202010101010000000033
:1001B000000000000000000000000000000000003F
:1001C000000000000000000000000000000000002F
:1001D0000000000000000000000000000000E01827
:1001E0000601000000000000000000000080838382
:1001F000404040402021212010101010080808081D
:1002000004040404020202020101010100000000D2
:1002100000000000000000000000000000000000DE
:1002200000000000000000000000000000000000CE
:1002300000000000000000000000000000000000BE
:1002400000000000000000000000000080808080AE
:10025000404040402020202010101010080F0808B7
:1002600004040404020408101020204040414224E9
:1002700098C088888C9C1C1E0E06000000000000A0
:10028000000000000000000000000000000000006E
:10029000000000000000000000000000000000005E
:1002A000000000000000000000000000000000004E
:1002B000000000000000000000000000000000003E
:1002C000000000000000000000000000000000002E
:1002D000000000000000000000000000000000001E
:1002E000000000000000000000000000000000000E
:1002F00000000000000000000000000000000000FE
:1003000000000000000000000000000000000000ED
:1003100000000000000000000000000000000000DD
:1003200000000000000000000000000000000000CD
:1003300000000000000000000000000000000000BD
:1003400000000000000000000000000000000000AD
:10035000000000000000000000000000000000009D
:10036000000000000000000000008080804040206D
:100370002010080402040810102020404080800053
:10038000000000000000000000000000000000006D
:10039000000000000000000000000000000000005D
:1003A000000000000000000000000000000000004D
:1003B000000000000000000000000000000000003D
:1003C000000000000000000000000000000000002D
:1003D00000000000000000000000003FC101010219
:1003E0000204844444428201010100000000000034
:1003F000800000408080400000303000000000019C
:100400000204040808102040808080804040404062
:1004100020202020101010100808080804040404EC
:1004200002020202010101010000000000000000C0
:1004300000000000000000000000000000000000BC
:1004400000000000000000000000000000000000AC
:1004500000000000000000000000E018060100009D
:100460000C03000218190005FE80838340404040C1
:10047000202121201010101008080808040404048A
:100480000408304080800000018698600000000071
:10049000000000000000000000000000000000005C
:1004A000000000000000000000000000000000004C
:1004B000000000000000000000000000000000003C
:1004C000000000000000000080808080404040402C
:1004D0002020202010101010080F08080404040425
:1004E0000202020201010101000000000000000000
:1004F0000000000000000000000000060F0F0703CE
:100500000361F0F8FC600101013C78F8F070000034
:1005100000000000000000000000000000000000DB
:1005200000000000000000000000000000000000CB
:1005300000000000000000000000000000000000BB
:1005400000000000000000000000000000000000AB
:10055000000000000000000000000000000000009B
:10056000000000000000000000000000000000008B
:10057000000000000000000000000000000000007B
:10058000000000000000000000000000000000006B
:10059000000000000000000000000000000000005B
:1005A000000000000000000000000000000000004B
:1005B000000000000000000000000000000000003B
:1005C000000000000000000000000000000000002B
:1005D000000000000000000000000000000000001B
:1005E00000000000000080808040402020100804AF
:1005F000020408101020204040808000000000000D
:1006000000000000000000000000000000000000EA
:1006100000000000000000000000000000000000DA
:1006200000000000000000000000000000000000CA
:1006300000000000000000000000000000000000BA
:1006400000000000000000000000000000000000AA
:10065000000000000000003FC101010202048444C8
:1006600044428201010100000000000080000040BF
:100670008080400000303000000000010264180457
:1006800012C2CA2488F080804040404020202020B0
:1006900010101010080808080404040402020202E2
:1006A0000101010100000000000000000000000046
:1006B000000000000000000000000000000000003A
:1006C000000000000000000000000000000000002A
:1006D000000000000000E018060100000C0300020A
:1006E00018190005FE8083834040404020212120CE
:1006F0001010101008080808040404040202020282
:1007000001010101000000000000000000000000E5
:1007100000000000000000000000000000000000D9
:1007200000000000000000000000000000000000C9
:1007300000000000000000000000000000000000B9
:100740000000000080808080404040402020202029
:1007500010101010080F080804040404020202021A
:100760000101010100000000000000000000000085
:100770000000000000000000000000000000000079
:100780000000000000000000000000000000000069
:100790000000000000000000000000000000000059
:1007A0000000000000000000000000000000000049
:1007B0000000000000000000000000000000000039
:1007C0000000000000000000000000000000000029
:1007D0000000000000000000000000000000000019
:1007E0000000000000000000000000000000000009
:1007F00000000000000000000000000000000000F9
:1008000000000000000000000000000000000000E8
:1008100000000000000000000000000000000000D8
:1008200000000000000000000000000000000000C8
:1008300000000000000000000000000000000000B8
:1008400000000000000000000000000000000000A8
:100850000000000000000000000000000000008018
:10086000804040402020202020180402010204087B
:1008700010202040408080000000000000000000A8
:100880000000000000000000000000000000000068
:100890000000000000000000000000000000000058
:1008A0000000000000000000000000000000000048
:1008B0000000000000000000000000000000000038
:1008C0000000000000000000000000000000000028
:1008D0000000003FC10101020204040404020201FD
:1008E0000000000000000000800000408080400008
:1008F000003030000000000102040408081020400D
:100900008080808040404040202020201010101027
:10091000080808080404040402020202010101019B
:1009200000000000000000000000000000000000C7
:1009300000000000000000000000000000000000B7
:1009400000000000000000000000000000000000A7
:100950000000E01806010000000000000000000098
:10096000008083834040404020212120101010103F
:1009700008080808040404040408304080800000CB
:1009800001869860000000000000000000000000E8
:100990000000000000000000000000000000000057
:1009A0000000000000000000000000000000000047
:1009B0000000000000000000000000000000000037
:1009C0008080808040404040202020201010101067
:1009D000080F080804040404020408101020204032
:1009E0004041422418000000000000000000000008
:1009F00000000000000000000000000000000101F5
:100A000001000000000000000000000000000000E5
:100A100000000000000000000000000000000000D6
:100A200000000000000000000000000000000000C6
:100A300000000000000000000000000000000000B6
:100A400000000000000000000000000000000000A6
:100A50000000000000000000000000000000000096
:100A60000000000000000000000000000000000086
:100A70000000000000000000000000000000000076
:100A80000000000000000000000000000000000066
:100A90000000000000000000000000000000000056
:100AA0000000000000000000000000000000000046
:100AB0000000000000000000000000000000000036
:100AC0000000000000000000000000000000000026
:100AD0000000000000000000000000000000808016
:100AE0004040402010080402010204081020408009
:100AF0008000000000000000000000000000000076
:100B000000000000000000000000000000000000E5
:100B100000000000000000000000000000000000D5
:100B200000000000000000000000000000000000C5
:100B300000000000000000000000000000000000B5
:100B40000000000000000000000000000000003F66
:100B5000C1010102020404040402020101010000B7
:100B600000000000000000800000800000606000C5
:100B700000010204040808101020204080808080BA
:100B80004040404020202020101010100808080885
:100B90000404040402020202010101010000000039
:100BA0000000000000000000000000000000000045
:100BB0000000000000000000000000000000000035
:100BC0000000000000000000000000000000C03035
:100BD0000C0300000000000000000000008086867A
:100BE000404040402122222011111010080808081E
:100BF00004040404040830408080000001869860EA
:100C000000000000000000000000000000000000E4
:100C100000000000000000000000000000000000D4
:100C200000000000000000000000000000000000C4
:100C300000000000000000000000000080808080B4
:100C4000404040402020202010101010080F0808BD
:100C500004040404020408101020204040414224EF
:100C6000180000000000000000000000000000006C
:100C70000000000000000000000001010100000071
:100C80000000000000000000000000000000000064
:100C90000000000000000000000000000000000054
:100CA0000000000000000000000000000000000044
:100CB0000000000000000000000000000000000034
:100CC0000000000000000000000000000000000024
:100CD0000000000000000000000000000000000014
:100CE0000000000000000000000000000000000004
:100CF00000000000000000000000000000000000F4
:100D000000000000000000000000000000000000E3
:100D100000000000000000000000000000000000D3
:100D200000000000000000000000000000000000C3
:100D300000000000000000000000000000000000B3
:100D400000000000000000000000000000000000A3
:100D50000000000000000000000080808080404013
:100D600020100804020408102040808000000000C9
:100D70000000000000000000000000000000000073
:100D80000000000000000000000000000000000063
:100D90000000000000000000000000000000000053
:100DA0000000000000000000000000000000000043
:100DB0000000000000000000000000000000000033
:100DC00000000000000000000000007E820202041B
:100DD00004080808080404020101000000000000E3
:100DE000000000800000800000606000010102043B
:100DF000040808101020204080808080404040403F
:100E000020202020101010100808080804040404F2
:100E100002020202010101010000000000000000C6
:100E200000000000000000000000000000000000C2
:100E300000000000000000000000000000000000B2
:100E400000000000000000000000C0300C030000A3
:100E50000000000000000000008086864040404006
:100E6000212222201111101008080808040404048B
:100E70000408304080800000018698600000000077
:100E80000000000000000000000000000000000062
:100E90000000000000000000000000000000000052
:100EA0000000000000000000000000000000000042
:100EB0000000000000000000808080804040404032
:100EC0002020202010101010080F0808040404042B
:100ED0000204081010202040404142241800000065
:100EE0000000000000000000000000000000000002
:100EF00000000000000001010100000000000000EF
:100F000000000000000000000000000000000000E1
:100F100000000000000000000000000000000000D1
:100F200000000000000000000000000000000000C1
:100F300000000000000000000000000000000000B1
:100F400000000000000000000000000000000000A1
:100F50000000000000000000000000000000000091
:100F60000000000000000000000000000000000081
:100F70000000000000000000000000000000000071
:100F80000000000000000000000000000000000061
:100F90000000000000000000000000000000000051
:100FA0000000000000000000000000000000000041
:100FB0000000000000000000000000000000000031
:100FC0000000000000000000000000000000000021
:100FD0000000000000008080808040402010080455
:100FE0000204081020408080000000000000000083
:100FF00000000000000000000000000000000000F1
:1010000000000000000000000000000000000000E0
:1010100000000000000000000000000000000000D0
:1010200000000000000000000000000000000000C0
:1010300000000000000000000000000000000000B0
:101040000000000000001C34C40404040808080860
:1010500008040402010100000000000080000040BC
:1010600080804000003030000101020204040408C6
:101070000810204080808080404040402020202078
:1010800010101010080808080404040402020202E8
:10109000010101010000000000000000000000004C
:1010A0000000000000000000000000000000000040
:1010B0000000000000000000000000000000000030
:1010C000000000000000E018060100000000000021
:1010D0000000000000808383404040402021212008
:1010E0001010101008080808040404040408304014
:1010F0008080000001869860000000000000000071
:1011000000000000000000000000000000000000DF
:1011100000000000000000000000000000000000CF
:1011200000000000000000000000000000000000BF
:10113000000000008080808040404040202020202F
:1011400010101010080F080804040404020408100A
:101150001020204040414224180000000000000000
:10116000000000000000000000000000000000007F
:10117000000001010100000000000000000000006C
:10118000000000000000000000000000000000005F
:10119000000000000000000000000000000000004F
:1011A000000000000000000000000000000000003F
:1011B000000000000000000000000000000000002F
:1011C000000000000000000000000000000000001F
:1011D000000000000000000000000000000000000F
:1011E00000000000000000000000000000000000FF
:1011F00000000000000000000000000000000000EF
:1012000000000000000000000000000000000000DE
:1012100000000000000000000000000000000000CE
:1012200000000000000000000000000000000000BE
:1012300000000000000000000000000000000000AE
:10124000000000000000000000000000000000801E
:101250008040404020202020201804020102040881
:1012600010202040408080000000000000000000AE
:10127000000000000000000000000000000000006E
:10128000000000000000000000000000000000005E
:10129000000000000000000000000000000000004E
:1012A000000000000000000000000000000000003E
:1012B000000000000000000000000000000000002E
:1012C00000060D31C1010101020202040402020103
:1012D000000000000000000080000040808040000E
:1012E0000030300000000001020404080810204013
:1012F000808080804040404020202020101010102E
:1013000008080808040404040202020201010101A1
:1013100000000000000000000000000000000000CD
:1013200000000000000000000000000000000000BD
:1013300000000000000000000000000000000000AD
:101340000000E0180601000000000000000000009E
:101350000080838340404040202121201010101045
:1013600008080808040404040408304080800000D1
:1013700001869860000000000000000000000000EE
:10138000000000000000000000000000000000005D
:10139000000000000000000000000000000000004D
:1013A000000000000000000000000000000000003D
:1013B000808080804040404020202020101010106D
:1013C000080F080804040404020408101020204038
:1013D000404142241800000000000000000000000E
:1013E00000000000000000000000000000000101FB
:1013F00001000000000000000000000000000000EC
:1014000000000000000000000000000000000000DC
:1014100000000000000000000000000000000000CC
:1014200000000000000000000000000000000000BC
:1014300000000000000000000000000000000000AC
:10144000000000000000000000000000000000009C
:10145000000000000000000000000000000000008C
:10146000000000000000000000000000000000007C
:10147000000000000000000000000000000000006C
:10148000000000000000000000000000167C1E00AC
:101490001F002000210022002B0014001A00080069
:1014A00015001700E00004001600070009000A00FC
:1014B000E1001D001B000600190005000000E2000D
:1014C000E30021522B422F00350027002600250083
:1014D000240023002D00130012000C0018001C0033
:1014E000340033000F000E000D000B00E500380043
:1014F0003700360010001100000063524C002252E9
:101500002C41300001000100010001000100010038
:101510003A003B003C003D003E003F0035001E020B
:101520001F0220022102220201000100010001002D
:1015300001000100000001000100010001000100A4
:10154000010001000100010001000100450044000C
:1015500043004200410040003502270226022502D6
:1015600024022302310230022F022E022D0200003B
:101570000000010001000100010001000100010064
:10158000010001000100010001001E001F002000F9
:101590002100220001000100010001000100010002
:1015A0000100010001000100010001000000010034
:1015B0000100010000000100010001000100010024
:1015C000010001000100270026002500240023005F
:1015D000000000004F0052005100500000000000C9
:1015E00000002E022E00000000000100010001009A
:1015F00028000100010001000100010001000100BC
:101600000100DD00DE00DF000000D300010000006B
:10161000DB00D900DA00DC0001000000000000005F
:10162000000000000000010001000100D1000100E5
:1016300001000100010001000100010000000000A4
:101640000000A900AA00A80000000000D000CD0002
:10165000CE00CF00000000004F00520051005000AB
:101660000000010001000100D200010000000000A4
:101670000000000000000000000000001C700000DE
:10168000000000000000000000000000000000005A
:101690000000000000000000000000000000010049
:1016A0000100010001000000000000000000000037
:1016B000000000000000000000000000000000002A
:1016C000000000000000000000000000000000001A
:1016D000000000001B70000000000100010001007C
:1016E0000100000000DA0281FFD9F1DB20A4A62E60
:1016F000AF00A0C0D30000A1C8D30000AED580A821
:101700001F408D14200000AF00AE05010902A101A9
:1017100085020901A1000509190129081500250103
:101720009508750181020501093009311581257F70
:1017300095027508810609381581257F9501750880
:101740008106050C0A38021581257F9501750881EF
:1017500006C0C005010980A101850319012AB7004F
:10176000150126B700950175108100C0050C09010F
:10177000A101850419012AA002150126A0029501E4
:1017800075108100C005010906A101050719E029AE
:10179000E7150025019508750181029501750881FD
:1017A000010507190029FF150026FF009506750899
:1017B0008100050819012905150025019505750108
:1017C0009102950175039101C009023B00020100DD
:1017D000A0FA090400000103010100092111010020
:1017E00001224400070581030800010904010001EA
:1017F00003000000092111010001227B000705827E
:10180000032000011201000200000008D8042DEBA3
:101810000001010200010E034C0069006C00790018
:1018200035003800000010036C0069006C0069008E
:1018300075006D007300000004030904000000003F
:1018400000003E5B4F5B3E003E6B4F6B3E001C3E1C
:101850007C3E1C00183C7E3C18001C577D571C0029
:101860001C5E7F5E1C0000183C180000FFE7C3E709
:10187000FF00001824180000FFE7DBE7FF003048F6
:101880003A060E00262979292600407F0505070023
:10189000407F05253F005A3CE73C5A007F3E1C1C18
:1018A0000800081C1C3E7F0014227F2214005F5F8A
:1018B000005F5F0006097F017F00006689956A006E
:1018C00060606060600094A2FFA2940008047E043F
:1018D000080010207E20100008082A1C0800081CA0
:1018E0002A0808001E10101010000C1E0C1E0C0000
:1018F00030383E383000060E3E0E06000000000074
:10190000000000005F000000000700070000147FD7
:10191000147F1400242A7F2A120023130864620013
:10192000364956205000000807030000001C2241E1
:1019300000000041221C00002A1C7F1C2A0008080D
:101940003E08080000807030000008080808080001
:101950000000606000002010080402003E5149456C
:101960003E0000427F400000724949494600214143
:10197000494D33001814127F1000274545453900A2
:101980003C4A49493100412111090700364949497A
:101990003600464949291E0000001400000000409E
:1019A0003400000000081422410014141414140020
:1019B0000041221408000201590906003E415D5908
:1019C0004E007C1211127C007F49494936003E418D
:1019D000414122007F4141413E007F494949410048
:1019E0007F09090901003E41415173007F08080841
:1019F0007F0000417F4100002040413F01007F08FF
:101A0000142241007F40404040007F021C027F00C2
:101A10007F0408107F003E4141413E007F090909D3
:101A200006003E4151215E007F09192946002649E2
:101A30004949320003017F0103003F4040403F001D
:101A40001F2040201F003F4038403F00631408140F
:101A500063000304780403006159494D4300007F8B
:101A600041414100020408102000004141417F0033
:101A70000402010204004040404040000003070807
:101A800000002054547840007F28444438003844F3
:101A900044442800384444287F00385454541800E3
:101AA00000087E0902001824241C78007F08040422
:101AB000780000447D4000002040403D00007F1041
:101AC0002844000000417F4000007C047804780036
:101AD0007C08040478003844444438007C182424EA
:101AE0001800182424187C007C08040408004854BA
:101AF0005454240004043F4424003C4040207C0013
:101B00001C2040201C003C4030403C004428102851
:101B100044004C9090907C004464544C4400000875
:101B20003641000000007700000000413608000048
:101B30000201020402003C2623263C0000000000B3
:101B40000080808080000000000080E070180C1889
:101B500030E080000010F8901030783010B8FC3879
:101B600010000000000000F8FCF800000000000079
:101B7000000000000000001C9C1C00000000F8FC9D
:101B8000F80000000000001CFCF8C000000000008D
:101B90000080E0F87C1C000000F0FCFCFC1C1C1C1D
:101BA0001C1C1C1C1C000000000000C0F0F8381CAD
:101BB0001C1C1C1C1C3CF8F0E000E0F0F0F0E0EC19
:101BC000EEF7F37020007C7C7C7E007E7E7E7F7F43
:101BD0007F000080C0E07E5B4F5BFEC00000C00065
:101BE000DCD7DEDEDED7DC00C00000000000000035
:101BF00000000000000000000000000000000000E5
:101C0000000FBCE0818181838382870C183060C023
:101C100000001FFE90B9FFBB91983C1811133F11B3
:101C200000000000000000FFFFFF000000000000B7
:101C300000000000000000FFFFFF00000000FFFFA9
:101C4000FF0000000000000000030F7FF8E080F0BC
:101C5000FC3F0F0100000000003F3F3F1C1C1C1C0C
:101C60001C3C78F8F0E08000000000C3E7FF7E3CF9
:101C70003878787070F8FFDF87000F1F3F7F7F7F15
:101C80007F7F3F1E0C001F1F1F3F003F3F3F7F7F96
:101C90007F00307B7F7830202030787F3B0003004E
:101CA0000F7F0F0F0F7F0F000300000000000000E8
:101CB000000000000000000000000000183C246646
:101CC0006341C18180808080808081C14162386CA5
:101CD0004CC68181808080808081C14362361C181F
:101CE00000000000000000FFFFFFC0C0C0C0C0C077
:101CF000C0C0C0800000007FFF7F000000007FFFA9
:101D0000FFC080000000E0E0C0C0C0E0F97F1F0716
:101D100000000000000000000070F0E0E0C0C0C063
:101D2000C0E0F0F87F3F0F0000000F3F7FF9E0E0D8
:101D3000C0C0C0C0C0E0F97F3F1F0000000000002D
:101D40000000000000000000000000000000000093
:101D50000000000000000000000000000000000083
:101D60000000000000000000000000000000000073
:101D700000000000000000000000000011241FBE51
:101D8000CFEFDAE0DEBFCDBF12E0A0E0B1E0E2E5E8
:101D9000FAE602C005900D92A830B107D9F725E008
:101DA000A8E0B2E001C01D92A23DB207E1F70E9497
:101DB0007C270C9427350C940000FF920F931F93FF
:101DC000CF93DF932091D0053091D105205D334032
:101DD000A90144585D4F41305240E8F040E052E0E4
:101DE000421B530B6091CE037091CF03D901A053D6
:101DF000BC4F420F531F821B930BC1E0D0E024174E
:101E0000350760F07093CF036093CE03CDB7DEB794
:101E1000E5E00C9447314CE752E0E4CFFC01E20FDF
:101E2000F31FF490FD91FF16A1F08D0101501109EF
:101E3000F801F082F90115E0F695E7951A95E1F7BA
:101E40008E0102C0000F111FEA95E2F7F801602B26
:101E50007F2B2F5F3F4FD3CF482F2091C30390910B
:101E60008A0357E0291302C080E0089530E0529FB2
:101E7000F001539FF00D1124E557FC4F8181681349
:101E800006C08081481303C085818111EECF2F5F8A
:101E90003F4F2770E7CFFC01AC014B5F5F4F8FEFE7
:101EA00091E32191822728E030E087FF09C0880F65
:101EB000892721503109C9F7E417F50791F70895EB
:101EC000880FF7CFE8EDF0E080818E7F808310925D
:101ED000E2001092DA001092E100A0EEB0E08C91E6
:101EE00081608C9380818F77808319BCA7EDB0E0EF
:101EF0008C918E7F8C9380818F7E8083109275036E
:101F000008952091E4003091E50085E69091EC0081
:101F100090FF06C09091E80090FF06C080E0089511
:101F20009091E80092FDFACF90918003992391F06F
:101F3000953091F09091EB0095FD10C04091E40038
:101F40005091E5002417350709F381509A01F1F605
:101F500084E0089582E0089583E0089581E0089583
:101F60008091820387FF13C08091E80082FF06C042
:101F70008091E8008B778093E80004C08091800313
:101F80008111F2CF0895809180038823D9F3809145
:101F9000E80080FFF8CF8091E8008E77ECCF982F93
:101FA0009093E900242F762F50E0891731F070913B
:101FB000EC002091ED005091F00021FD07C09F5FE3
:101FC000973071F78093E90081E008953091EB003C
:101FD0003E7F3093EB003091ED003D7F3093ED007C
:101FE0003091EB0031603093EB007093EC00209364
:101FF000ED005093F0002091EE0027FDE0CF80E04F
:102000000895B0E0A0E0E7E0F0E10C942831C8EDDD
:10201000D0E088818F7E8883E7EDF0E08081816069
:10202000808384E082BF81E08093750388818E7F06
:10203000888302EE10E0F80110821092DA0081EE3F
:10204000C82ED12CF601108288818F7788838881F1
:102050008068888388818F7D888319BC1092800373
:102060001092810310927F0310927E0390EEE92E6E
:10207000F12CF70180818B7F808388818160888348
:1020800042E060E080E00E94CF0FF60180818E7F09
:102090008083F80180818160808380818860808373
:1020A000F70180818E7F8083888180618883CDB7AE
:1020B000DEB7E8E00C944431FC01809188039091F4
:1020C000890386179707A0F06115710529F490918F
:1020D000E8009E779093E80090E06115710551F457
:1020E000911108C08091E80082FF35C080E008951A
:1020F000BC01F2CF809180038823C9F18530C9F1FA
:102100008091E80083FD31C08091E80082FDEACF34
:102110008091E80080FFE1CF2091F3008091F200F0
:10212000322F282F6115710519F02830310558F02C
:1021300091E02830310509F090E02091E8002E77F9
:102140002093E800CACF81918093F100615071091A
:102150002F5F3F4FE7CF80918003882341F0853088
:1021600041F08091E80083FFBDCF81E0089582E0D7
:10217000089583E0089508952FB7F894609171034E
:102180007091720380917303909174032FBF08952F
:102190008091380108959C01FC0132969FEF80E008
:1021A0004191461751F09F3F19F4411101C0982FFA
:1021B0008F5F8630A9F79F3F09F40895290F311DDD
:1021C00097FD3A95F90162830895A3E0B0E0EBEE44
:1021D000F0E10C942E3120916E0330916F0328179B
:1021E0003907A1F090936F0380936E03E0916C0325
:1021F000F0916D03309751F024E029839B838A830B
:102200000084F185E02DCE01019609952396E2E048
:102210000C944A31A3E0B0E0E0E1F1E10C942E31FE
:1022200020916A0330916B0328173907A1F090932E
:102230006B0380936A03E0916C03F0916D03309718
:1022400051F023E029839B838A830084F185E02D6C
:10225000CE01019609952396E2E00C944A318091D3
:102260006803882359F0E0916C03F0916D03309777
:1022700029F00190F081E02D0995089580E00895FE
:1022800080915D0380FD16C081FD16C082FD16C0E1
:1022900080915C038823A1F0883280F428E0829F3B
:1022A000C001112468E270E00E94BC31862F672BC8
:1022B00039F0089582E0089584E0089588E0089553
:1022C00081E0089580915D0380FD14C081FD14C0FC
:1022D00082FD16C080915B03882381F08E3180F4EB
:1022E00020E5829FC00111246EE170E00E94BC31A4
:1022F000862F089584E1089588E2089588E008957E
:1023000080E50895282F35EB2303C001112497FFA2
:1023100004C080589109892F089580589F4FFBCFA2
:1023200080E00895F894E82FE295EF70F0E031A195
:10233000282F2F7081E090E001C0880F2A95EAF7DE
:10234000982F9095932391A392A1892B82A378949F
:1023500008950F931F9380916803882329F00E94AA
:10236000BC101F910F9108950E94BC1000916D0246
:1023700010916E0220916F0230917002600F711FF8
:10238000821F931FEECF90912E0392FF10C041E069
:10239000282F2471243009F040E031E0282F2871E3
:1023A000283009F030E0431711F02CE0822793FF2A
:1023B00010C041E0282F2471243109F040E031E0C1
:1023C000282F2871283109F030E0431711F02CE054
:1023D000822730912F0330FF10C051E0282F217148
:1023E000213009F050E041E0282F2871283009F011
:1023F00040E0541711F029E0822731FF10C041E07E
:10240000282F2171213109F040E031E0282F287177
:10241000283109F030E0431711F029E0822794FDBC
:10242000877E089582389105B9F1B0F48133910522
:1024300009F47DC048F48932910509F46DC08A32EF
:10244000910509F479C008958533910509F45FC0B9
:102450008933910509F10895833E9105D9F138F446
:10246000803E910529F1823E910579F10895863EDD
:102470009105D9F1873E910509F43EC0843E91054E
:1024800041F520912F0321FF24C080912E0384FD6C
:1024900019C087EE90E0089520912E03237009F073
:1024A00056C020912F0323FF14C089E290E00895C5
:1024B00020912E0320FD38C030912F0330FF09C03A
:1024C00024FF3FC090E080E0089520912E0322FD7C
:1024D000F7CF089520912E0322FD36C030912F03AF
:1024E00030FD35C024FDEECFF4CF20912E0323FF25
:1024F000F0CF24FDE7CFCDCF20912E0323FD2AC0BE
:1025000030912F0331FFEECF84EE90E008952091BB
:102510002E0325FDCACF089520912E0325FD1DC051
:1025200020912F0323FFD5CF89E390E008952091D8
:102530002E0326FD15C0089520912E0326FD13C0FD
:10254000089583EE90E0089582EE90E0089580EE85
:1025500090E0089586EE90E0089585E390E0089578
:102560008AE290E0089581E390E0B3CF7A30B8F446
:102570006630A8F48530B0F4E62FF0E096E0799F5D
:10258000E00DF11D11249CE3899FE00DF11D112444
:10259000EE0FFF1FE457FB4E85919491089580E064
:1025A00090E0089581E0FCCF1F93CF93DF930E94CA
:1025B0001212EC01C11580E5D807E8F5C11580E4D9
:1025C000D80708F09BC0C03ED10518F5CD3CD10519
:1025D00008F081C0C83AD10570F4C53AD10508F0B9
:1025E00072C0C130D10511F118F0C430D105F0F43A
:1025F000D0E0C0E01BC0C33CD105D0F7C85AD0E042
:10260000CC0FDD1FC454DE4F0990D881C02DD46497
:102610000DC0C11580E2D80708F0CBC0C11581E01C
:10262000D80708F05AC0C83ED10510F7CE01DF9197
:10263000CF911F910895C03682E5D80718F5C034B0
:1026400082E5D80708F069C0C03282E5D80708F0F3
:102650005DC0C11582E5D80708F493C02C2F2695DC
:10266000269580E2289F900111248C2F8370C1E071
:10267000D0E002C0CC0FDD1F8A95E2F7C22BD32B2E
:10268000DD68D4CFC03A82E5D80760F4C03882E56F
:10269000D80708F457C0CF71D0E0DC2FCC27C46F27
:1026A000D06AC4CFC03C82E5D80708F45EC0C03E03
:1026B00082E5D80708F09CCFDC2FCC27CC27DF7130
:1026C000C06FD06AB3CFC55AD0E0C754DE4FC881BF
:1026D000D0E0D064ABCFD065A9CF8D2F0E94C311BD
:1026E000182FCE0199270E941212C12FD0E0DC2FA3
:1026F000CC27CC27DF71C82BD92B98CFCE019927B7
:102700000E941212CC27DF70D06AF5CFCF71D0E0D3
:10271000DC2FCC27C16FD06A89CF2C2F2695269528
:10272000277080E2289F900111248C2F8370C1E0D4
:10273000D0E002C0CC0FDD1F8A95E2F7DC68C22B27
:10274000D32B74CF2C2F26952695277080E2289FB7
:10275000900111248C2F8370C1E0D0E002C0CC0F17
:10276000DD1F8A95E2F7DA68EACF8C2F8F710E941D
:10277000C311C82FD0E0DC2FCC27CC27DF71D0626B
:1027800055CF8C2F8F710E94C31155E0D695C795F8
:102790005A95E1F7CF70D0E0DC2FCC27282F30E01E
:1027A00084FF05C044E0220F331F4A95E1F7D0694A
:1027B000C6CF8D2F8F710E94C311182FCE0199277C
:1027C0000E941212C12FD0E0DC2FCC27CC27DF7162
:1027D000906291CF982F90958091480289238093A1
:1027E000480208958091C30390918A03981301C011
:1027F00008958F5F8770FACFB0E0A0E0E2E0F4E1E7
:102800000C9427317C010091E9021091EA02809139
:102810007D0290917E02082B192BCFE0D0E0CC24D2
:10282000C394D12CBC2EC6010C2E02C0880F991F58
:102830000A94E2F780239123892B49F4219790F79A
:10284000B12C8B2DCDB7DEB7E9E00C944331B70145
:102850008C2F0E94B6120E94D412019779F3F1CF07
:10286000CF93DF93EC010E94FC13BE010E94B612CD
:102870000E94D412DF91CF9108959A3078F5863076
:1028800068F5E82FF0E086E0989FE00DF11D112437
:102890009E2F977083E0F695E7958A95E1F7EE0F06
:1028A000FF1FEE0FFF1FEA5EFD4F50E040E080E0AB
:1028B000219130E0092E02C0369527950A94E2F75F
:1028C00021703327042E01C0220F0A94EAF7822BCD
:1028D0004F5F5F4F4430510559F7089580E00895E8
:1028E0009A3098F5863088F5E82FF0E086E0989FDA
:1028F000E00DF11D11248E2F877041E001C0440FBF
:102900008A95EAF783E0F695E7958A95E1F7EE0F69
:10291000FF1FEE0FFF1FEA5EFD4F30E020E070E08A
:102920005191DF011197CB01022E02C09695879538
:102930000A94E2F7817081958527842385278C93FB
:102940002F5F3F4F2430310559F708959C012670C1
:1029500033272630310531F480619093EA02809369
:10296000E90208958F7EF9CF21E030E002C0220F06
:10297000331F8A95E2F7209530958091E902909176
:10298000EA02822393230E94A614089590913D02A7
:102990008095892380933D02282F277069F4891739
:1029A00059F090912F0392FF07C0869586958695E2
:1029B0000E94B41410923D02089521E030E002C05C
:1029C000220F331F8A95E2F78091E9029091EA0283
:1029D000822B932B0E94A614089590937E028093DD
:1029E0007D020895FC0124812223B9F08081918128
:1029F0000E94301492959F70963089F050F4925056
:102A0000923058F4803F19F030F4883E30F481E081
:102A100008959A50F5CF843FD1F380E00895883E21
:102A2000B0F3813FD1F7F3CFA6E0B0E0EAE1F5E102
:102A30000C942D3126E0FC01DE01119601900D92DF
:102A40002A95E1F7FC01258189819A81222399F059
:102A5000662389F00E94FC13182F682F89819A81C0
:102A60000E94701469817A81812F0E94B612269685
:102A7000E3E00C9449310E943D14182FF3CF80916C
:102A800023038531F8F48091130290E0019665E00C
:102A900070E00E94BC318093130224E030E0281BD8
:102AA000390B4CE752E0249FC001259F900D349FC5
:102AB000900D1124805E974F0E94DD0E089584EAE8
:102AC00095E0FACF8832D8F38091120290E0019617
:102AD000817099278093120221E030E0281B390B86
:102AE0004CE752E0249FC001259F900D349F900D2C
:102AF000112484559F4FE0CFCF93DF93682F81E05F
:102B00006A3019F06D3031F480E00E94FD15DF91DC
:102B1000CF9108958091D0059091D10526E0FC01D8
:102B2000A8ECB3E001900D922A95E1F7603E08F41D
:102B300059C026E0FC0111922A95E9F7C091D00511
:102B4000D091D10546E050E0BE0188EC93E00E94B0
:102B50003932892B59F1CE01805D93409C0145E0CB
:102B6000369527954A95E1F741E050E0BA0102C059
:102B7000660F771F2A95E2F79B016091CE03709153
:102B8000CF03262B372B059665E0969587956A959A
:102B9000E1F7FA0102C0EE0FFF1F8A95E2F7CF01BD
:102BA000822B932B9093CF038093CE039E012A5CBC
:102BB00033404091C703642F70E0C9010E940A317D
:102BC000481B463010F4240F311D2115F2E03F0759
:102BD00010F030E020E020533C4F3093D10520939B
:102BE000D00595CFF6E06F9FB0011124645C774E5D
:102BF00046E050E00E945531A1CFCF93382FE091AD
:102C0000D005F091D105E05DF3402091C703622F1C
:102C100070E0CF010E940A31281B822F332361F01C
:102C200066E00E94B031C82FC15010F4CF910895D2
:102C300080E20E947C15F8CF9F01280F311D2115DD
:102C4000324018F080E0F0E0E0E08E0F9F2F911D01
:102C500080539C4F9093D1058093D005E7CF80910E
:102C6000480290913F02892B90913E02992351F0A6
:102C7000892BECE0F2E027E090E0215029F591115A
:102C800010923E0280930A0248E050E060E472E055
:102C90008AE092E00E943932892BA9F088E0EAE0CC
:102CA000F2E0A0E4B2E001900D928A95E1F7E091A4
:102CB0006C03F0916D03309731F00280F381E02DC9
:102CC0008AE092E00995089531913323B1F29F5F34
:102CD000D4CF882321F00E94EA130E942F16089572
:102CE000882339F090914802892B809348020E94F2
:102CF0002F1608950F931F93CF93DF93EC01FC01E0
:102D000001900020E9F78F0101501109C017D10788
:102D100028F0DF91CF911F910F91089589910E9422
:102D20007C15F4CF0F931F93CF93DF938B01EA01B0
:102D300090918003943061F58093E9008FEF90913A
:102D4000E800815095FD06C095ED9A95F1F70000D9
:102D50008111F5CF8091E80085FF1AC00E94810F94
:102D6000811111C08091E80085FD06C08091E800C6
:102D70008E778093E800F2CFF80181918F018093E4
:102D8000F100219779F78091E8008E778093E80031
:102D9000DF91CF911F910F91089543E050E0BC0166
:102DA00082E00E949216089546E050E0BC0182E065
:102DB0000E9492160895CF93DF93EC0148E050E013
:102DC000BC0181E00E94921688E0FE01A6E7B3E014
:102DD00001900D928A95E1F7DF91CF910895B0E0CF
:102DE000A0E0E5EFF6E10C9426317C015B016A017D
:102DF00080916C0201E010E08A3010F40AE010E0EB
:102E0000C1E0D0E0B501C701F6010995811104C008
:102E100021960C171D072CF4CDB7DEB7EAE00C9411
:102E20004231CC9F9001CD9F300D300D112490E0A8
:102E300080E045E34A95F1F7000001968217930779
:102E4000C1F7E0CFAB0124E630E0BC0188E70E9487
:102E5000BD2E21E0892B09F020E0822F089580917A
:102E6000590390915A03911103C091E08927089565
:102E7000882369F062E070E088E097E10E94221701
:102E8000811103C0809159030895109259038091D4
:102E90005903EBCFCF93C091590380915A038823F4
:102EA000D1F00E94BC10605A75418F4F9F4F6093C4
:102EB0005503709356038093570390935803C111A1
:102EC00008C062E070E086E097E10E94221781115D
:102ED00005C0C09159038C2FCF91089581E0809354
:102EE0005903F7CF90912F0392FB222720F928173F
:102EF00079F080FB92F990932F0360912E037091EB
:102F00002F0384E090E00E949A3182E00E94C61470
:102F10000895CF92DF92EF92FF921F93CF93DF93AA
:102F200000D000D0CDB7DEB7C0906802D090690263
:102F3000E0906A02F0906B020E94BC106C197D094F
:102F40008E099F0911E0643671058105910570F1C4
:102F50000E94A9116E5F7F4F8F4F9F4F69837A83C5
:102F60008B839C838091110190911201825A9D4F15
:102F70004091100150E04530510510F044E050E020
:102F8000BE016F5F7F4F0E94463282E090E00E9458
:102F90009330182F882351F00E94BC106093680270
:102FA0007093690280936A0290936B02812F0F9055
:102FB0000F900F900F90DF91CF911F91FF90EF90A6
:102FC000DF90CF9008958F929F92AF92BF92EF9231
:102FD000FF921F93CF93DF9300D000D000D0CDB7E6
:102FE000DEB77B0190E080E00E949330182F8823A9
:102FF00009F464C04091030150E04115510511F0FE
:1030000041E050E06091040170910501625A7D4FEA
:10301000CE0106960E94463280905A0290905B0242
:10302000A0905C02B0905D020E94BC106819790902
:103030008A099B09643671058105910538F48FE58D
:1030400092E00E944B0F9E818917C1F181E090E0D0
:103050000E949330182F882391F040910B0150E08B
:103060004630510510F045E050E060910C01709140
:103070000D01625A7D4FCE0101960E9446328FE5C6
:1030800092E00E944B0F91E02E81281390E01923CB
:1030900001F10E94BC1060935A0270935B0280930E
:1030A0005C0290935D0285E0FE013196A5E5B2E0F9
:1030B00001900D928A95E1F711E00BC085E0EFE5F4
:1030C000F2E0DE01119601900D928A95E1F711115F
:1030D000EACF85E0E5E5F2E0D70101900D928A950F
:1030E000E1F7812F26960FB6F894DEBF0FBECDBF55
:1030F000DF91CF911F91FF90EF90BF90AF909F9085
:103100008F9008951F920F920FB60F9211242F9354
:103110003F934F935F936F937F938F939F93AF935F
:10312000BF93EF93FF938091E10082FF09C08091EC
:10313000E20082FF05C08091E1008B7F8093E10077
:103140008091DA0080FF24C08091D80080FF20C0E9
:103150008091DA008E7F8093DA008091D90080FF21
:10316000A9C080E189BD82E189BD09B400FEFDCF1F
:1031700081E08093800380917503811109C00E94D2
:10318000620F0E9401108091E20084608093E2004F
:103190008091E10080FF1AC08091E20080FF16C09C
:1031A0008091E2008E7F8093E2008091E200806156
:1031B0008093E2008091D80080628093D80019BC8F
:1031C00085E08093800383E080933A018091E10061
:1031D00084FF2FC08091E20084FF2BC080E189BD75
:1031E00082E189BD09B400FEFDCF8091D8008F7DBA
:1031F0008093D8008091E1008F7E8093E1008091E0
:10320000E2008F7E8093E2008091E20081608093F3
:10321000E20080918103882309F452C084E0809306
:10322000800380918003843009F452C081E0809350
:103230003A018091E10083FF2CC08091E20083FF7E
:1032400028C08091E100877F8093E10082E0809335
:103250008003109281038091E1008E7F8093E100D2
:103260008091E2008E7F8093E2008091E200806195
:103270008093E20042E060E080E00E94CF0F809106
:10328000F00088608093F00081E080933A018093A1
:103290003901FF91EF91BF91AF919F918F917F91F4
:1032A0006F915F914F913F912F910F900FBE0F90B3
:1032B0001F90189519BC109280031092750368CF67
:1032C0008091E30087FD02C081E0A9CF83E0A7CF12
:1032D00082E0ADCF78941F920F920FB60F92112417
:1032E0008F939F93AF93BF938091710390917203DB
:1032F000A0917303B09174030196A11DB11D809339
:10330000710390937203A0937303B0937403BF91FE
:10331000AF919F918F910F900FBE0F901F901895B6
:103320002FB7F8948091710390917203A091730369
:10333000B09174032FBF0895CF93DF93EC010E94E7
:1033400090198C1B9D0BDF91CF9108950E949019CD
:1033500020916403211104C020916503222321F0F0
:10336000909361038093600320916603211104C050
:1033700020916703222321F090935F0380935E03E3
:10338000E0916C03F0916D03309749F082E08093F7
:1033900062030680F781E02D82E693E009950895A7
:1033A000CF9310924802C6E0ECE0F2E0DF018C2FF0
:1033B0001D928A95E9F790E080E00E940A1190E062
:1033C00080E00E94E51010923F020E942F16E2E674
:1033D000F3E0DF011D92CA95E9F710925B031092AA
:1033E0005C0310925D030E94A619CF910895AAE292
:1033F000B0E0EDEFF9E10C942D31E2E8F3E08091DB
:10340000F100819323E0EA38F207C9F78091830342
:10341000833009F47DC008F5813009F454C082304E
:1034200009F4C2C08091E80083FFFCC08091820350
:10343000909183039A3008F0F5C0E92FF0E0ED5D3C
:10344000F54E0C941132E51A0B1B121B0B1B121BB1
:10345000631B851B121B831C901C8A3009F493C0CC
:103460008B3009F472C08930E9F680918203813291
:10347000C9F68091860390918703029798F6809110
:10348000E800877F8093E8008091E80082FF3BC0DE
:103490008091F3009091F20089279827892702975D
:1034A00031F48091F100813011F0863021F4809167
:1034B000F100809338018091E8008B778093E800D9
:1034C0000E94B00FAFCF80918203813A09F0AACF5A
:1034D0008091E800877F8093E80080918603909137
:1034E0008703892B61F060E090E080E070E00E944B
:1034F0005C108091E8008B778093E80093CF68E0C0
:1035000086E793E0F3CF809180038111BDCF8ACF0E
:1035100080918203813A09F085CF80918603909152
:103520008703892B09F07ECF8091E800877F809305
:10353000E8008091E80080FFFCCF80913901809302
:10354000F1008091E8008E77B9CF809182038132BB
:1035500009F068CF8091860390918703892B09F049
:1035600061CF8091E800877F8093E8000E94B00FD0
:1035700081E090918403911101C080E08093390132
:103580000E94D0194FCF80918203813209F04ACF37
:103590008091E800877F8093E8000E94B00F8091BF
:1035A0008503809337013ECF80918203813A09F0F1
:1035B00039CF8091E800877F8093E8008091E80010
:1035C00080FFFCCF80913701BACF803889F08238F4
:1035D00049F5809186038F70873020F58093E9004C
:1035E0008091EB0085FB882780F91092E90006C0E6
:1035F00080917E0390917F03911182609091E80009
:10360000977F9093E8008093F1001092F1008091F1
:10361000E8008E7727C0282F2D7F21F48823A1F082
:10362000823029F18091E80083FF0AC08091E80090
:10363000877F8093E8008091EB0080628093EB00AD
:10364000AA96E3E00C94493180918403813051F7CC
:10365000933009F080E080937F031092E90080911D
:10366000E800877F8093E8000E94B00FDBCF809155
:1036700084038111F2CF809186038F702FEF280F82
:10368000263080F68093E9002091EB0020FFE5CF03
:10369000933031F48091EB0080628093EB00DDCFBA
:1036A0009091EB0090619093EB0021E030E001C03D
:1036B000220F8A95EAF72093EA001092EA0080919F
:1036C000EB008860EACF8111ADCF109184031F77A2
:1036D0008091E3008078812B8093E3008091E80063
:1036E000877F8093E8000E94B00F8091E80080FF00
:1036F000FCCF8091E30080688093E30083E01111A8
:1037000001C082E0809380038DCF8058823008F022
:1037100089CF80918403909185038C3D23E09207AB
:10372000A1F583E08A838AE289834FB7F894DE01AA
:10373000139620E03EE051E2E32FF0E05093570073
:10374000E49120FF03C0E295EF703F5FEF708E2F92
:1037500090E0EA30C0F0C7968D939D932F5F24319F
:1037600059F74FBF8091E800877F8093E8006AE2B5
:1037700070E0CE0101960E945C108091E8008B778A
:103780008093E8004FCFC096E7CF409186035091D9
:103790008703292F33272330310509F443C078F5F7
:1037A0002130310509F46DC08BE390E0E9ECF7E1DD
:1037B0002230310509F036CF2091E800277F209391
:1037C000E80020918803309189038217930708F459
:1037D0009C0140E02115310509F062C0411160C033
:1037E0008091E80082FDC9CF80918003882329F26F
:1037F000853019F28091E80083FFF2CFBECF2132ED
:10380000310599F12232310509F00CCF41155105EE
:1038100009F441C08BE790E0EAE0F7E1413051055F
:1038200059F200CF992781309105B9F058F00297ED
:1038300009F0F8CEE6E1F8E1E4918E2F90E0E6E1C0
:10384000F8E107C0E8E3F8E1E4918E2F90E0E8E3C7
:10385000F8E1009709F4E6CEAFCFE6E2F8E1E491B3
:103860008E2F90E0E6E2F8E1F4CF4115510571F0BA
:1038700089E090E0E4EFF7E14130510509F49CCF95
:10388000D1CE82E190E0E4E0F8E196CF89E090E0EB
:10389000EBEDF7E191CF84E490E0E5E8F7E18CCF40
:1038A00080918003882309F468CF853009F465CFBF
:1038B0008091E80083FD61CF8091E80082FD90CF88
:1038C0008091E80080FF86CF8091F3009091F20014
:1038D0008927982789272115310519F08830910506
:1038E00050F041E0089709F040E08091E8008E77C1
:1038F0008093E8006FCF44914093F10031962150BE
:1039000031090196E8CF803809F08CCE8091E8002B
:10391000877F8093E800809181038093F10077CEC8
:10392000811180CE10918403123008F07BCE8091FB
:10393000E800877F8093E800109381030E94B00F16
:103940001123A9F084E08093800342E061EC81E0E0
:103950000E94CF0F42E261EC82E00E94CF0F809183
:103960008003843051F482E080933A015BCE8091F1
:10397000E30087FDE7CF81E0E6CF81E0F5CF1F923E
:103980000F920FB60F9211242F933F934F935F9393
:103990006F937F938F939F93AF93BF93CF93EF9347
:1039A000FF93C091E900CF708091EC001092E90084
:1039B0008091F000877F8093F00078940E94F7193F
:1039C0001092E9008091F00088608093F000C0932D
:1039D000E900FF91EF91CF91BF91AF919F918F91AE
:1039E0007F916F915F914F913F912F910F900FBEFB
:1039F0000F901F9018950E94D0192FEF84E39CE040
:103A0000215080409040E1F700C0000088E19AE03A
:103A10000FB6F894A895809360000FBE9093600055
:103A2000FFCF662309F45DC08D3C41F40E94621112
:103A30008195809365030E94A61908958E3C19F420
:103A40000E946211F6CF8F3C31F40E946211819581
:103A500080936403F0CF803D19F40E946211F8CF87
:103A6000893D29F40E94401180936603E4CF8A3D8A
:103A700021F40E9440118195F7CF8B3D31F40E94D3
:103A80004011819580936703D6CF8C3D19F40E9435
:103A90004011F8CF9FE2980F983070F4815D990B38
:103AA00021E030E001C0220F8A95EAF7809163039C
:103AB000822B80936303BFCF8D3D31F480915D03F2
:103AC000816080935D03B7CF8E3D21F480915D03CB
:103AD0008260F7CF8F3D09F0AECF80915D038460A7
:103AE000F0CF8D3CD9F49091650397FF1DC01092E3
:103AF000650380916403811106C080916503811183
:103B000002C010925B0380916603811194CF809173
:103B10006703811190CF10925C038DCF8E3CD9F456
:103B20009091650319161CF39FE2980F983008F0E6
:103B30003FC0815D990B21E030E0A90102C0440F34
:103B4000551F8A95E2F7CA018095909163038923F6
:103B500080936303CECF909164038F3C29F497FF49
:103B6000E3CF10926403C5CF803D19F41916CCF34E
:103B7000DBCF90916603893D29F41916ACF61092BB
:103B80006603B7CF8A3D19F497FFCECFF8CF8B3DB0
:103B900039F49091670397FFC7CF10926703A9CFBD
:103BA0008C3D09F0C1CF909167031916B4F3BCCFD7
:103BB0008D3D31F480915D038E7F80935D0399CFBD
:103BC0008E3D21F480915D038D7FF7CF8F3D09F00D
:103BD00090CF80915D038B7FF0CF8823D1F19CEF54
:103BE000980F913A78F4EAE0F2E020E132E0928135
:103BF000891301C0128231962E173F07C1F70E9428
:103C00002F16089590E2980F983050F4877091E045
:103C100001C0990F8A95EAF7892F0E94EA13EFCF26
:103C20009BE5980F933028F490E080E00E940A1101
:103C3000089598E5980F9B3128F490E080E00E9469
:103C4000E510089593E3980F933118F460E00E9413
:103C5000111D0895CF938823B9F0C82F8CEF8C0FD6
:103C6000813A08F5ACE0B2E0EAE0F2E08D91C817E5
:103C700069F082E0A231B807C9F76C2F8AE092E0C0
:103C80000E94CB100E942F16CF91089580E192E000
:103C90002281C21301C0128231968E179F07C1F78D
:103CA0000E942F16EACF80E28C0F883068F4C7702C
:103CB00021E030E001C0220FCA95EAF78091480266
:103CC000822B80934802DECFEBE5EC0FE33040F42B
:103CD000F0E0E754FE4F808190E00E940A11D4CFBB
:103CE000E8E5EC0FEB3150F4F0E0EE0FFF1FE45489
:103CF000FE4F808191810E94E510C6CF83E38C0F37
:103D0000833110F661E08C2F0E94111DBDCFEF9220
:103D1000FF920F931F93CF93DF93C62FD42F122FB1
:103D2000FC0185818823A9F06093C6030E94901945
:103D30009093C5038093C403C77081E001C0880FCE
:103D4000CA95EAF70E947016CDB7DEB7E6E00C948C
:103D500046318091C603681337C0E090C403F090E9
:103D6000C5030E9490198E199F09883C910560F542
:103D700000E20D0FCD17B9F080E28C0F883040F4CF
:103D8000C77081E001C0880FCA95EAF70E946916E2
:103D9000083008F581E09D2F977001C0880F9A9533
:103DA000EAF70E947016812F0E942A1E812F0E941E
:103DB000ED1D083048F6D77081E001C0880FDA9514
:103DC000EAF70E946916C0CFC77081E001C0880F72
:103DD000CA95EAF7F6CF812F0E942A1E812F0E94F2
:103DE000ED1DB2CFB0E0A0E0E8EFFEE10C9427318A
:103DF000FC012481222309F459C07C0161E00E9466
:103E00001415EC01F7012581FC01E851FC47222340
:103E100009F44DC49A9581159F4458F5CE01992710
:103E2000AC01445051094432510518F08B970E975C
:103E300088F4A0919A02B0E0AA0FBB1FA156BD4F13
:103E40008D919C9111978F3F3FE7930719F0019651
:103E50008D939C93E730F10508F044C0EE5CF04E82
:103E60000C9411325F1F631F411F5B1F671F6B1F85
:103E70006F1FCE01CF3FD10599F290F290E080E024
:103E8000CFCF26E241EE61EEC7010E94871E8091EE
:103E90003D02877059F0F7018581882339F08091C0
:103EA0002F0382FF03C082E00E94C614CDB7DEB7A5
:103EB000E9E00C94433127E245EE65EEE5CF26E2DA
:103EC00041EE60EEE1CF27E245EE64EEDDCF26E283
:103ED00041EE62EED9CF27E245EE66EED5CF28E27D
:103EE00041E0EBCF1092C603CE019057839708F0C4
:103EF000EEC384E090E00E94663190932F0380939C
:103F00002E03FE01E150F047E232F10508F026C031
:103F1000E457F04E0C941132E81F5D20F01FBA1FD9
:103F2000BE1FF41FC21FF81F0420CE1F5620D21F31
:103F30000820D61F0C203420DA1F10203B20E01F61
:103F400016201E20C61FFC1FCA1F0020E41F1A20B7
:103F50002A2044205420B41FEC1F642080912E039B
:103F6000816080932E0395C080912F038860809399
:103F70002F038FC080912E038260F3CF80912E0398
:103F80008460EFCF80912E038860EBCF80912F0368
:103F90008160EDCF80912F038260E9CF80912E0365
:103FA0008061DFCF80912E038062DBCF80912E0372
:103FB0008064D7CF0E94D01980912E038068D1CF22
:103FC00080912E038860DCCF80912F038260E0CF48
:103FD00080912E038E7FC5CF80912F03877FC7CF1F
:103FE00080912E038D7FBDCF80912E038B7FB9CF23
:103FF00080912E03877FB5CF80912F038E7FB7CF1F
:1040000080912F038D7FB3CF80912E038F7EA9CF18
:1040100080912E038F7DA5CF80912E038F7BA1CF22
:104020000E94D01980912E038F779BCF80912E0311
:10403000877FDCCF80912F038D7FE0CF80912E038F
:1040400082FB992790F921E0922790FB82F990FB5F
:1040500083F987CF80912F03982F909591708E7F51
:10406000892B90FB81F983CF90912E03892F8F7B31
:1040700096FF806476CF0E94D01990912E03892FED
:1040800097FB87F980586DCF61E08EE090E00E9449
:104090007C3160912E0370912F0384E090E00E94A8
:1040A0009A310E94D019F3CE60E0EFCF90912E03A9
:1040B000892F8F7E94FF806154CF90912E03892F9A
:1040C0008E7F90FF81604DCF90912F03892F877F46
:1040D00093FF88604CCF89E2EAE0F2E020E132E031
:1040E0009281891301C0128231962E173F07C1F7C2
:1040F00003C3CE01805E92458097A8F4211125C0AC
:10410000CF7181E090E0FC0102C0EE0FFF1FCA9565
:10411000E2F7EF016E2F83E090E00E947C31CE0148
:104120000E94ED14B4CE222381F0C330FCE7DF07F8
:1041300009F490C008F064C0C1153CE7D30709F446
:104140006DC0C130DC4709F48BC0F7018581C081A7
:10415000D181882309F492C0CE010E94FC13182F4C
:10416000682FCE010E947014BE01812F0E94B612EA
:104170000E94D412D82FC92FB82EF701D580C6803F
:10418000C2948FE0C82280913D02877001F10D2D0D
:10419000DD20F1F0892F807F803469F080E28D0F7F
:1041A0008830A8F0892F807E803229F4F1E0FD1755
:1041B00070F4CC2061F080912F0382FF08C082E070
:1041C0000E94C61480913D02877001E009F000E072
:1041D0001C2F12951F701C3008F025C1E12FF0E054
:1041E000EC50FF4D0C941132432143217921792168
:1041F0000C222C22132213223122BE22CF22CF22C4
:10420000CB359CE7D907C1F1CC35ECE7DE0751F19E
:10421000CA35DC4709F099CF81E02BC00E94D01944
:104220002FEF34E38CE0215030408040E1F700C0B4
:10423000000087E797E7909301088093000888E1E2
:104240009AE00FB6F894A895809360000FBE909303
:104250006000FFCF6FEF7FEF90E080E00E949A3127
:104260000E94FB1C80912F0382FB882780F991E03C
:1042700089270E94721769CF80E0FBCFCE010E9490
:104280003D14182F71CF1C2F1F70C07F11F0129595
:10429000107F8D2FDD20B9F0112369F090E29D0F82
:1042A000983010F0D11109C080914802182B10935A
:1042B00048020E942F168D2F3FC080913F02182B7D
:1042C00010933F02F6CF0E94ED1D1123B9F1D05E8D
:1042D000D83010F0B11004C0812F0E94EA1306C03C
:1042E000109580913F02182310933F020E942F16D1
:1042F00025C01C2F1F70C07FC03211F01295107F97
:10430000BB2051F021E0B21609F466C0DD2009F4AB
:1043100072C0CC20B1F1CFCF80912F0382FD2DC090
:10432000DD2029F1112339F080914802182B1093D8
:1043300048020E942F1680E00E942A1E002309F4E2
:10434000C6C080913D0280FDC2C0F70115828695EE
:10435000869586950E94DD14C7010E94F21E809109
:104360003D028695869586950E94B414B0C080E083
:104370000E94ED1D112311F3AFCFDD2099F0C11084
:1043800004C0812F0E947016D9CF31E0C312D6CF5E
:1043900080913E02912F9823191781F2182B1093C8
:1043A0003E02CCCFC110CACF812F0E9469169091D6
:1043B0003E02812F892329F0812F809589238093C4
:1043C0003E0280911502912F982309F4B7CF1095E2
:1043D000182310931502B2CFDD2029F085E08C154B
:1043E00008F4ACCFCECF94E09C1508F4A7CF812F72
:1043F0000E946916A3CFCC20D1F3D93349F4EFEF53
:10440000F7EE23E0E150F0402040E1F700C000006B
:104410008D2F0E94ED1D92CF8C2F869586958370EF
:1044200039F0813079F01850143008F087CF4DC042
:104430008D2F9C2F9370D11002C080E090E00E94DD
:104440000A117CCF8D2F9C2F9370D11002C080E079
:1044500090E00E94E51072CF6D2D8D2F0E94111DEE
:104460006DCF8C2F837009F045C0D1102EC04D2F19
:10447000429546954770440F440F2D2F2F7030E022
:10448000042E02C0220F331F0A94E2F790E080E06E
:10449000D4FF09C08FE090E002C0880F991F4A95B1
:1044A000E2F780959095C695C695C370C230C9F065
:1044B000A8F440917D0250917E02C13069F0822BB8
:1044C000932B842395230E94ED140E942F1160E00A
:1044D000C7010E941415EACC242B352B822B932B79
:1044E000F2CF822B932B20917D0230917E02822786
:1044F0009327E9CF8695DD2011F08C2F81708823DA
:1045000021F34D2F429546954770440F440F2D2FB0
:104510002F7030E0042E02C0220F331F0A94E2F7FE
:1045200090E080E0D4FF09C08FE090E002C0880FE7
:10453000991F4A95E2F780959095C695C695C370E8
:10454000C23099F078F44091E9025091EA02C1300A
:1045500039F0822B932B842395230E94A614B5CF88
:10456000242B352B822B932BF8CF822B932B20914E
:10457000E9023091EA0282279327EFCFCF70DD2046
:1045800039F08C2F0E94DD148D2F0E9470169DCF64
:104590008D2F0E9469168C2F0E94B41496CF8D2FF8
:1045A00032EFB31609F43FC03B1580F090EFB91617
:1045B000F1F0E1EFBE16A1F0DD2009F464C0CC20DB
:1045C00009F45EC08D2F0E942A1E2DCFF3EFBF1677
:1045D00089F124EFB212F0CF90912F0392FD37C0F2
:1045E0008C2F8F71DD2019F10E94DD141CCFDD208E
:1045F000A9F034E03C1508F416CFCF7181E090E0CB
:1046000002C0880F991FCA95E2F72091E902309104
:10461000EA02822793270E94A61405CF85E08C1515
:1046200008F401CFEACF8C2F8F71DD20E9F20E94D0
:10463000B414F9CE90E080E0DD2069F3CF7181E021
:1046400090E002C0880F991FCA95E2F7E4CFDD2001
:1046500061F08C2F8F7192FFC7CF98E0899F9001F6
:104660001124236020933D02BFCF81E00E94C61435
:10467000E1E0EC1508F0D7CE82E00E94C614D3CE5C
:104680008C2F8F71B1CFCC2079F0893349F4FFEFB3
:1046900027EE33E0F15020403040E1F700C0000049
:1046A0008D2F0E94ED1DBFCE8C2F8F71C0CFE730B4
:1046B000F10508F4D3CBC6318CE7D80709F019CD42
:1046C00080911402882309F406CD85E305CDC63117
:1046D000FCE7DF0709F00DCD809148028A7A91E06E
:1046E00009F490E09093140265E3811101C069E23E
:1046F0008AE092E00E94CB100E942F16C8CBCF9385
:10470000DF9380913C02807F09F04DC080913B0295
:10471000882309F448C0E091C30350918A03C091F3
:104720003702D0913602609138027091390247E029
:104730005E17C9F18E2F90E0E49FF0011124E55738
:10474000FC4F2481222391F1489FF001499FF00DF5
:104750001124DF01A557BC4F11962C9111972C13F2
:1047600025C02C912D1322C015962C91159721113F
:104770001DC012962D913C91261B370B283C31050C
:10478000A8F480913C028F70806180933C02EF56C8
:10479000FC4F80818F708061808386E392E00E946D
:1047A000F21E0E94F213DF91CF910895FC01319621
:1047B000E770BECFA4E1B0E0E0EEF3E20C94243168
:1047C0008C0186E0F801DE011F9601900D928A951A
:1047D000E1F7F8018481E58096E3A92E92E0B92EF5
:1047E00090913A02911128C0882319F1EE20F1F03E
:1047F000C8010E94F214F82E8823C1F087E0F80166
:10480000D50101900D928A95E1F780913A028130AD
:1048100031F480913602909137020E9430140E9448
:104820007F238F2D6496ECE00C944031C8010E94E8
:10483000F21EFF24F394F5CFD080C1808280938054
:10484000F0903B022091380230913902A401421BC2
:10485000530BFF2009F4D8C0483C510508F091C023
:104860008823F9F29091370280913C02282F207F13
:1048700009F055C0C91214C090913602D91210C067
:10488000E11047C08F70806180933C0286E392E024
:104890000E94F21E80913C02F8018683F12CC1CF68
:1048A000E11037C06C2D8D2D0E942C0F6C2D8D2D9D
:1048B0000E942C0FE82E8111F1CFDF86C88A8F85E8
:1048C00098890E943014292F22952F70243058F493
:1048D0009F70223080F0992391F0F8019681907FAB
:1048E00071F4FE2C9ECF2A50223068F0C8010E943D
:1048F000F21EEF2CF6CF992311F0882391F3805EFE
:104900008830A0F7EECF803F60F3815F833070F78F
:10491000E8CF80913C02816080933C02BFCFC912F6
:1049200007C090913602D91203C0EE2009F48DC061
:10493000C8010E94F214882309F478CFEE2009F40C
:1049400075CF80913C02803288F020913602309100
:104950003702398728879B868A8690913A029C87FE
:104960001D868E87CE0108960E94F21E87E0F80110
:10497000A6E3B2E001900D928A95E1F70E947F23B1
:1049800058CF90913C02292F207F51F486E392E08A
:104990000E94F21E87E0F50111928A95E9F77ECF19
:1049A000882309F43ECF809137028C1110C080918A
:1049B0003602D8120CC0E1100AC09683C8010E94CA
:1049C000F21E87E0F50111928A95E9F72ACFC80116
:1049D0000E94F214882309F429CFEE2009F426CF8F
:1049E00080913C02803210F22091360230913702E1
:1049F0003A8329839C828B8290913A029D831E8206
:104A00008F83CE010196B0CF483C5105D0F6882364
:104A100009F40FCFFE2CEE2009F408CF8091370265
:104A20008C1120C080913602D8121CC080913C02AB
:104A300080FD0FC0982F907F61F08683903F31F00A
:104A4000982F907F905F8F70892B8683C8010E947A
:104A5000F21E87E0F801A6E3B2E001900D928A957C
:104A6000E1F7DFCEC8010E94F21481117FCF80915F
:104A70003C02816080933C02C8010E94F21ED1CEAC
:104A8000ABE1B0E0E6E4F5E20C942D314E8B5F8BA8
:104A9000688F798F8A8F9B8F911110923F021D8AA8
:104AA00086E0FE017696DE011F9601900D928A95B2
:104AB000E1F78B89882351F061E0CE010F960E94C7
:104AC000141561E0CE010F960E94141587E0FE01D7
:104AD0003F96DE01189601900D928A95E1F7CE017E
:104AE00008960E94DA2381112AC087E0FE013896D9
:104AF000DE01119601900D928A95E1F78C8588234D
:104B0000F1F020918A0330E0C9010196877099275E
:104B10004091C3034817190659F197E0929FD001BD
:104B2000939FB00D1124A557BC4FFE013196019003
:104B30000D929A95E1F780938A030E94F21317E091
:104B40008091C30390918A038917F9F0819FC00176
:104B5000112485579C4F0E94DA238823B1F080915D
:104B6000C30390E00196877099278093C303E8CF31
:104B70000E94D01910928A031092C30387E0E6E3E3
:104B8000F2E0DF011D928A95E9F76B96E3E00C9461
:104B90004931AFE0B0E0EFECF5E20C9421318E0149
:104BA0000F5F1F4F8AE0F80111928A95E9F784EFB1
:104BB000E82E81E0F82E680199EF692E91E0792EB8
:104BC000AA24A394B12C3FEF832E31E0932EF7015A
:104BD00081917F018F3F09F440C0F894E82FE2955E
:104BE000EF70F0E021A18F70A50102C0440F551FA6
:104BF0008A95E2F7CA01922F982B91A392A18095F2
:104C0000892382A3789400C0E9EFF1E0512C31E0D0
:104C100021912F3F09F489C0A22FA295AF70B0E077
:104C200090968C9190E02F7002C0959587952A956B
:104C3000E2F780FD7AC0832F582A330F8E169F0625
:104C400039F7F701319780818F3F11F00E9492115F
:104C500050EA5A95F1F7F6015082FFEFCF1ADF0ABA
:104C60006E147F0409F0B3CF4AE050E0B80181E749
:104C700092E00E943932009741F02AE0F801A1E762
:104C8000B2E001900D922A95E1F700917C0210E0CC
:104C900001581D4F892B09F44AC081E080934D02D1
:104CA0000E94901990934C0280934B02F12CE0905B
:104CB0006803EE2009F498C06E012BE0C20ED11CEF
:104CC00085E0F60111928A95E9F780916C028A30AD
:104CD00008F053C043EE57E1B601C8010E94EF1639
:104CE000882309F46EC049E857E1B601C8010E9463
:104CF000EF16882309F465C010926C0280917B0244
:104D000090E045E050E0B60181589D4F0E94393255
:104D100021E020935402892B09F046C0E12C8E2D0E
:104D20008F292F96EFE00C943D3180E085CFF090F5
:104D30004D02FF2009F4BACFC0904B02D0904C0234
:104D40000E9490198C199D09059708F4AFCF45E092
:104D500050E061E772E0C8010E943932892B59F0B6
:104D600085E0E1E7F2E0D80101900D928A95E1F744
:104D700010924D029CCFF12CFBCFA0904E02B09030
:104D80004F020E9490198A199B09843F914008F0B4
:104D9000A1CF80915402882309F285E0F601119297
:104DA0008A95E9F710925402A0917B02B0E0A158D5
:104DB000BD4F85E0FE013B9601900D928A95E1F78B
:104DC000AECF80916C028F3F19F08F5F80936C02A1
:104DD00080916C028A3008F491CF0E9490199093D0
:104DE0004F0280934E02D5CF85E0F801AFE5B2E0E7
:104DF00001900D928A95E1F78FE592E00E944B0FAA
:104E000080935E028090640290906502A09066029A
:104E1000B09067028091500290915102A09152028D
:104E2000B091530288169906AA06BB0609F477CFFB
:104E30008092500290925102A0925202B09253027C
:104E40000E94BC10861A970AA80AB90A80926D02BD
:104E500090926E02A0926F02B092700260CFA6E0B4
:104E6000B0E0E5E3F7E20C942C310E9490198C013C
:104E70008091490290914A028017910781F019822E
:104E80001A820E949019682F49815A81792F80E0F7
:104E900090E00E94402510934A0200934902269612
:104EA000E4E00C9448311F920F920FB60F92112438
:104EB0008F939F93AF93BF9380917003811113C021
:104EC0008091710390917203A0917303B091740368
:104ED0004196A11DB11D8093710390937203A0931D
:104EE0007303B0937403BF91AF919F918F910F9013
:104EF0000FBE0F901F901895A3E1B0E0E2E8F7E233
:104F00000C941E3185B7806885BF85B7806885BFE2
:104F100084B7877F84BF0FB6F894A895809160000E
:104F2000886180936000109260000FBE80E890E07E
:104F30000FB6F89480936100909361000FBE81E0FA
:104F400080933A0180E991E19093090280930802ED
:104F50000E94620F0E9401108091E20084608093A1
:104F6000E200789480918003882399F01091E90001
:104F70001F708091EC0080FFA4C180E8182B109274
:104F8000E9008091E80083FD0E94F7191F701093DB
:104F9000E90082E084BD93E095BD9AEF97BD8093D0
:104FA0006E0010926D0210926E0210926F021092BB
:104FB00070028091D80080618093D8002AE12A9500
:104FC000F1F700C08091D900182F117080FD04C046
:104FD0000E94620F1092800310936803109369037C
:104FE0001093180111110E94A72F80911801809130
:104FF000180190E0811101C095E090937C0285E05A
:10500000891B80937B0204EF11E0D8018D918D0103
:105010008F3F11F00E949211B1E0093F1B07A9F7E1
:1050200009EF11E05FEFE52E51E0F52EF8018191D7
:105030008F018F3F11F00E949211E016F106B1F737
:105040008AE0EFE7F2E0DF01282F1D922A95E9F7C9
:10505000E1E7F2E0DF011D928A95E9F790E080E058
:105060000E946631853E9E4F09F461C065EE7EEF79
:1050700090E080E00E949A3160E082E090E00E943F
:105080007C3181E090E090937E0280937D0261E02C
:1050900083E090E00E947C3160E074E184E090E085
:1050A0000E949A3160E086E090E00E947C3160E0EE
:1050B00087E090E00E947C3140E050E0BA0188E057
:1050C00090E00E948E3160E083E290E00E947C31AB
:1050D00060E08CE090E00E947C3160E08DE090E048
:1050E0000E947C3119821A821B821C821D821E82C0
:1050F0001F82188648E050E067E170E0CE0101961B
:105100000E946C3140E050E0BA018FE190E00E94D3
:105110008E3140E050E0BA018FE090E00E948E3185
:1051200040E050E0BA0183E190E00E948E3182E0DD
:1051300090E00E945E318093890284E090E00E94BA
:10514000663190932F0380932E0383E090E00E94BA
:105150005E3190E00E94ED14809168038111B3C02C
:1051600082E08093500380E88093C7030E94452E1D
:105170006BE070E08BEF96E10E9422178823E9F143
:105180008091500365E070E081FD9FC086EF96E15D
:105190000E942217882389F16DE070E084EE96E189
:1051A0000E942217882349F10E94BC10605A754161
:1051B0008F4F9F4F6093550370935603809357030F
:1051C00090935803E0EDF3E080E092E0DF019C0172
:1051D0001D9221503040E1F7F093D105E093D005C6
:1051E0008FEF9FEF9093CF038093CE0381E0809366
:1051F0005A038093590310925103809168038111DF
:1052000002C00E94AA2F89E191E090936D038093E0
:105210006C0344E6442E512C612C712C8091800348
:1052200010E4853009F488C00E94C9250AE812E01C
:105230003FE7E32E32E0F32ED701F80191918D91F3
:1052400022E0E439F20709F481C09817B9F33090ED
:105250006803D12CD701CD907D01F80181908F0199
:105260008C1431F1A12C992493948C24882D8921BC
:10527000B9F03320A9F0A986DA860E9490199C879C
:105280008B87F1E0FD8791E08C2D892109F490E076
:105290009E8749855A856B857C858D850E94402532
:1052A000A394990C26E0A212E1CFF8013197C082B5
:1052B000D3943AE0D312CECF0E94A91141E04F8798
:1052C0004AC080E05BCE80E04CCF81EF96E160CFBA
:1052D00080918003843029F10E942F17109270036F
:1052E00048E150E00FB6F894A895409360000FBED7
:1052F0001093600083B7817F846083BF83B7816030
:1053000083BF7894889583B78E7F83BF0FB6F89458
:10531000A895809160008861809360001092600081
:105320000FBE0E94C925EFE7F2E0819181113BC4D5
:1053300052E0E938F507C9F780918003853009F418
:10534000C7CF0E94D0190E942F116ECF98137FCF24
:105350000E942F271F8600916803002309F4BCC018
:1053600080909F029090A002092C000CAA08BB0814
:1053700010912301212F30E0EFE9F2E081E090E08D
:105380003296281739070CF0EBC0C0909B02D090E2
:105390009C02E0909D02F0909E020E94BC109B0136
:1053A000AC012C193D094E095F0969017A0139ECFC
:1053B000C316D104E104F10414F180919A0290E043
:1053C000019669E170E00E94BC3180939A02880FD7
:1053D000991FFC01E156FD4F11821082812F183177
:1053E00008F087E18F5F809323010E94BC106093D7
:1053F0009B0270939C0280939D0290939E0242E0D8
:1054000084169104A104B1045CF1A0E6BAEEA501F2
:1054100094010E9417324B015C0158EC159F9001DA
:105420001124032E000C440B550B2C0D3D1D4E1D5D
:105430005F1DA5E0B0E00E9417329B01AC01C501E1
:10544000B4010E94D031213F31054105510524F0BE
:1054500020EF30E040E050E069017A01F7FE03C040
:10546000C12CD12C76018090960290909702A0904A
:105470009802B09099020E94BC109B01AC012819BF
:1054800039094A095B0949015A0135E68316910435
:10549000A104B10484F00E94BC1060939602709342
:1054A00097028093980290939902809123038093AE
:1054B0009502C092940210919502A0919402A11BB2
:1054C000BB0BA50194010E942232A30192010E940C
:1054D000F231120F1093230380915A03882309F4A9
:1054E00033C2E0905203F09053030E9490198E193A
:1054F0009F09C29708F4B1C00E949019909353037A
:105500008093520380ED93E09093D1058093D00572
:10551000002309F4E0C08091E9029091EA0284300E
:10552000910509F4C8C040F50097A1F16FE471E05E
:105530008230910589F19F938F9388E891E09F9342
:105540008F931F9288E18F9381ED92E09F938F93C9
:105550000E9456320FB6F894DEBF0FBECDBF20C0FA
:1055600040815181052E000C660B770B840E951E31
:10557000A61EB71E019604CF8031910509F49EC086
:105580008631910509F49AC088309105A1F66DE63F
:1055900071E002C061E471E081ED92E00E944F325F
:1055A00081ED92E00E947A1681E00E94FD158091C3
:1055B0002F0380FF86C087E291E09F938F9384E260
:1055C00091E09F938F9388E991E09F938F931F922F
:1055D00088E18F938BEE92E09F938F930E945632D7
:1055E0000FB6F894DEBF0FBECDBF8BEE92E00E94E7
:1055F0007A1681E00E94FD150E942F114BE351E0C5
:1056000082FD02C04EE351E02BE331E081FD02C098
:105610002EE331E080FF5CC08BE391E05F934F931A
:105620003F932F939F938F938EE991E09F938F9356
:105630001F9288E18F9383E093E09F938F930E9462
:10564000563283E093E00E947A1681E00E94FD15B5
:105650000FB6F894DEBF0FBECDBF8091CE03909100
:10566000CF03892B09F457C180915A03882309F489
:1056700052C18091510381114EC10E944A1720915D
:10568000CE033091CF032115310509F444C180E0E8
:1056900041E050E0082F10E04A01082E02C0880CBB
:1056A000991C0A94E2F7B40162237323672B09F073
:1056B00098C08F5FEFCF6EE571E06ECF6AE771E063
:1056C0006BCF8DE291E09F938F938AE291E079CF47
:1056D0008EE391E0A3CF80912303882309F44AC08D
:1056E0000E944A17C0901F03D0902003E09021032E
:1056F000F09022030E94BC106C197D098E099F094D
:10570000693C71058105910560F00E94BC106093B1
:105710001F037093200380932103909322030E9420
:105720003F150E94BC1060931B0370931C03809371
:105730001D0390931E0380ED93E09093D105809319
:10574000D005809123031F928F9380EB91E09F936C
:105750008F9384E293E09F938F930E94863284E23A
:1057600093E00E947A160F900F900F900F900F9079
:105770000F9073CFC0901B03D0901C03E0901D03CB
:10578000F0901E030E94BC106C197D098E099F09C0
:1057900061367A4E8105910518F00E942F17CBCF04
:1057A000C0901F03D0902003E0902103F0902203CB
:1057B0000E94BC106C197D098E099F09693C710516
:1057C0008105910508F4B7CF0E94BC1060931F03B8
:1057D0007093200380932103909322030E943F152E
:1057E000AACF9091500390FF85C1880F880F880F32
:1057F0008093320110923501895F8093330183E0F9
:105800008093360124E630E047E050E060E371E049
:1058100088E70E94792E892B09F07DC0B80185E0C8
:10582000660F771F8A95E1F78091500380FF74C15E
:10583000E0E3F3E080E2DF011D928A95E9F7E3E01F
:10584000F2E0FB8BEA8B4FEF51E0EE24E394AA8960
:10585000BB898D91BB8BAA8BFA012190AF01260EDB
:10586000372E311C910120533C4F190190E0805D8F
:105870009C4FFC0107E09F01281B390BDE2C01C067
:10588000DD0C2A95EAF75101F12CD5011D915D013E
:105890001D21202F2F192770C22E022E000C330B32
:1058A000B12F01C0BB0FCA94EAF7CB2E31952195D9
:1058B00031092770332701C016952A95EAF7C12AC6
:1058C0001081C12AC082F39428E0F212DECF015089
:1058D00031960F3F81F687E092E0AA89BB898A174B
:1058E0009B0709F0B4CF04E610E020E230E040E38B
:1058F00053E060E488E70E94032F892B61F48094D1
:1059000090948091CE039091CF0388229922909217
:10591000CF038092CE03809159038823A9F00E947F
:10592000BC100091550310915603209157033091FC
:105930005803601B710B820B930B6F3F7F4F8F4F90
:105940009F4710F40E942F17EF85E1110E944A171C
:1059500086E0E2E6F3E0DE01119601900D928A9571
:10596000E1F7A0906303E0906403C0906503F090BA
:105970006603D0906703109264031092650310923F
:10598000660310926703E11003C0CC2009F447C0FE
:1059900000916003109161030E9490199C01201BEB
:1059A000310B90915B03992309F41AC1253131051C
:1059B000B0F19F3F19F09F5F90935B03EE2059F089
:1059C0000E94621191E01E140CF09FEF899F802DC0
:1059D000112480936403CC2059F00E9462119FEF40
:1059E0001C140CF491E0899F802D11248093650391
:1059F00080916403882399F010916503112379F055
:105A00000E948211882309F48FC080936403812F40
:105A10000E948211882309F48BC080936503F110E2
:105A200003C0DD2009F447C000915E0310915F03BD
:105A30000E9490199C01201B310B90915C039923CB
:105A400009F4D3C021353105B0F19F3F19F09F5FB4
:105A500090935C03FF2059F00E94401191E01F14C5
:105A60000CF09FEF899F802D112480936603DD2029
:105A700059F00E9440119FEF1D140CF491E0899F92
:105A8000802D11248093670380916603882399F009
:105A900010916703112379F00E948211882309F481
:105AA0004BC080936603812F0E948211882309F4E2
:105AB00047C08093670380916303A81245C080911B
:105AC0006403882311F0E8123FC0809165038823A6
:105AD00011F08C1139C080916703882311F08D116A
