:100000000C949A0E0C94B70E0C94B70E0C94D52E3B
:100010000C94B70E0C94B70E0C94B70E0C94B70E4C
:100020000C94B70E0C94B70E0C94ED1C0C94B11CF0
:100030000C943A270C94B70E0C94B70E0C94B70E90
:100040000C94B70E0C94B70E0C94B70E0C94B70E1C
:100050000C94B70E0C94E8180C94B70E0C94B70ED1
:100060000C94B70E0C94B70E0C94B70E0C94B70EFC
:100070000C94B70E0C94B70E0C94B70E0C94B70EEC
:100080000C94B70E0C94B70E0C94B70E0C94B70EDC
:100090000C94B70E0C94B70E0C94B70E0C94B70ECC
:1000A0000C94B70E0C94B70E0C94B70E0000000021
:1000B0000000000000000000000000000000000040
:1000C0000000000000000000000000000000000030
:1000D0000000000000000000000000000000000020
:1000E0000000000000000000000000000000808010
:1000F00080404020201008040204081010202040F6
:1001000040808000000000000000000000000000AF
:1001100000000000000000000000000000000000DF
:1001200000000000000000000000000000000000CF
:1001300000000000000000000000000000000000BF
:1001400000000000000000000000000000000000AF
:100150000000000000000000000000000000003F60
:10016000C1010102020404040402020101010000B1
:10017000000000008000004080804000003030001F
:10018000000000010264180412C2CA2488F08080B2
:10019000404040402020202010101010080808087F
:1001A0000404040402020202010101010000000033
:1001B000000000000000000000000000000000003F
:1001C000000000000000000000000000000000002F
:1001D0000000000000000000000000000000E01827
:1001E0000601000000000000000000000080838382
:1001F000404040402021212010101010080808081D
:1002000004040404020202020101010100000000D2
:1002100000000000000000000000000000000000DE
:1002200000000000000000000000000000000000CE
:1002300000000000000000000000000000000000BE
:1002400000000000000000000000000080808080AE
:10025000404040402020202010101010080F0808B7
:1002600004040404020408101020204040414224E9
:1002700098C088888C9C1C1E0E06000000000000A0
:10028000000000000000000000000000000000006E
:10029000000000000000000000000000000000005E
:1002A000000000000000000000000000000000004E
:1002B000000000000000000000000000000000003E
:1002C000000000000000000000000000000000002E
:1002D000000000000000000000000000000000001E
:1002E000000000000000000000000000000000000E
:1002F00000000000000000000000000000000000FE
:1003000000000000000000000000000000000000ED
:1003100000000000000000000000000000000000DD
:1003200000000000000000000000000000000000CD
:1003300000000000000000000000000000000000BD
:1003400000000000000000000000000000000000AD
:10035000000000000000000000000000000000009D
:10036000000000000000000000008080804040206D
:100370002010080402040810102020404080800053
:10038000000000000000000000000000000000006D
:10039000000000000000000000000000000000005D
:1003A000000000000000000000000000000000004D
:1003B000000000000000000000000000000000003D
:1003C000000000000000000000000000000000002D
:1003D00000000000000000000000003FC101010219
:1003E0000204844444428201010100000000000034
:1003F000800000408080400000303000000000019C
:100400000204040808102040808080804040404062
:1004100020202020101010100808080804040404EC
:1004200002020202010101010000000000000000C0
:1004300000000000000000000000000000000000BC
:1004400000000000000000000000000000000000AC
:1004500000000000000000000000E018060100009D
:100460000C03000218190005FE80838340404040C1
:10047000202121201010101008080808040404048A
:100480000408304080800000018698600000000071
:10049000000000000000000000000000000000005C
:1004A000000000000000000000000000000000004C
:1004B000000000000000000000000000000000003C
:1004C000000000000000000080808080404040402C
:1004D0002020202010101010080F08080404040425
:1004E0000202020201010101000000000000000000
:1004F0000000000000000000000000060F0F0703CE
:100500000361F0F8FC600101013C78F8F070000034
:1005100000000000000000000000000000000000DB
:1005200000000000000000000000000000000000CB
:1005300000000000000000000000000000000000BB
:1005400000000000000000000000000000000000AB
:10055000000000000000000000000000000000009B
:10056000000000000000000000000000000000008B
:10057000000000000000000000000000000000007B
:10058000000000000000000000000000000000006B
:10059000000000000000000000000000000000005B
:1005A000000000000000000000000000000000004B
:1005B000000000000000000000000000000000003B
:1005C000000000000000000000000000000000002B
:1005D000000000000000000000000000000000001B
:1005E00000000000000080808040402020100804AF
:1005F000020408101020204040808000000000000D
:1006000000000000000000000000000000000000EA
:1006100000000000000000000000000000000000DA
:1006200000000000000000000000000000000000CA
:1006300000000000000000000000000000000000BA
:1006400000000000000000000000000000000000AA
:10065000000000000000003FC101010202048444C8
:1006600044428201010100000000000080000040BF
:100670008080400000303000000000010264180457
:1006800012C2CA2488F080804040404020202020B0
:1006900010101010080808080404040402020202E2
:1006A0000101010100000000000000000000000046
:1006B000000000000000000000000000000000003A
:1006C000000000000000000000000000000000002A
:1006D000000000000000E018060100000C0300020A
:1006E00018190005FE8083834040404020212120CE
:1006F0001010101008080808040404040202020282
:1007000001010101000000000000000000000000E5
:1007100000000000000000000000000000000000D9
:1007200000000000000000000000000000000000C9
:1007300000000000000000000000000000000000B9
:100740000000000080808080404040402020202029
:1007500010101010080F080804040404020202021A
:100760000101010100000000000000000000000085
:100770000000000000000000000000000000000079
:100780000000000000000000000000000000000069
:100790000000000000000000000000000000000059
:1007A0000000000000000000000000000000000049
:1007B0000000000000000000000000000000000039
:1007C0000000000000000000000000000000000029
:1007D0000000000000000000000000000000000019
:1007E0000000000000000000000000000000000009
:1007F00000000000000000000000000000000000F9
:1008000000000000000000000000000000000000E8
:1008100000000000000000000000000000000000D8
:1008200000000000000000000000000000000000C8
:1008300000000000000000000000000000000000B8
:1008400000000000000000000000000000000000A8
:100850000000000000000000000000000000008018
:10086000804040402020202020180402010204087B
:1008700010202040408080000000000000000000A8
:100880000000000000000000000000000000000068
:100890000000000000000000000000000000000058
:1008A0000000000000000000000000000000000048
:1008B0000000000000000000000000000000000038
:1008C0000000000000000000000000000000000028
:1008D0000000003FC10101020204040404020201FD
:1008E0000000000000000000800000408080400008
:1008F000003030000000000102040408081020400D
:100900008080808040404040202020201010101027
:10091000080808080404040402020202010101019B
:1009200000000000000000000000000000000000C7
:1009300000000000000000000000000000000000B7
:1009400000000000000000000000000000000000A7
:100950000000E01806010000000000000000000098
:10096000008083834040404020212120101010103F
:1009700008080808040404040408304080800000CB
:1009800001869860000000000000000000000000E8
:100990000000000000000000000000000000000057
:1009A0000000000000000000000000000000000047
:1009B0000000000000000000000000000000000037
:1009C0008080808040404040202020201010101067
:1009D000080F080804040404020408101020204032
:1009E0004041422418000000000000000000000008
:1009F00000000000000000000000000000000101F5
:100A000001000000000000000000000000000000E5
:100A100000000000000000000000000000000000D6
:100A200000000000000000000000000000000000C6
:100A300000000000000000000000000000000000B6
:100A400000000000000000000000000000000000A6
:100A50000000000000000000000000000000000096
:100A60000000000000000000000000000000000086
:100A70000000000000000000000000000000000076
:100A80000000000000000000000000000000000066
:100A90000000000000000000000000000000000056
:100AA0000000000000000000000000000000000046
:100AB0000000000000000000000000000000000036
:100AC0000000000000000000000000000000000026
:100AD0000000000000000000000000000000808016
:100AE0004040402010080402010204081020408009
:100AF0008000000000000000000000000000000076
:100B000000000000000000000000000000000000E5
:100B100000000000000000000000000000000000D5
:100B200000000000000000000000000000000000C5
:100B300000000000000000000000000000000000B5
:100B40000000000000000000000000000000003F66
:100B5000C1010102020404040402020101010000B7
:100B600000000000000000800000800000606000C5
:100B700000010204040808101020204080808080BA
:100B80004040404020202020101010100808080885
:100B90000404040402020202010101010000000039
:100BA0000000000000000000000000000000000045
:100BB0000000000000000000000000000000000035
:100BC0000000000000000000000000000000C03035
:100BD0000C0300000000000000000000008086867A
:100BE000404040402122222011111010080808081E
:100BF00004040404040830408080000001869860EA
:100C000000000000000000000000000000000000E4
:100C100000000000000000000000000000000000D4
:100C200000000000000000000000000000000000C4
:100C300000000000000000000000000080808080B4
:100C4000404040402020202010101010080F0808BD
:100C500004040404020408101020204040414224EF
:100C6000180000000000000000000000000000006C
:100C70000000000000000000000001010100000071
:100C80000000000000000000000000000000000064
:100C90000000000000000000000000000000000054
:100CA0000000000000000000000000000000000044
:100CB0000000000000000000000000000000000034
:100CC0000000000000000000000000000000000024
:100CD0000000000000000000000000000000000014
:100CE0000000000000000000000000000000000004
:100CF00000000000000000000000000000000000F4
:100D000000000000000000000000000000000000E3
:100D100000000000000000000000000000000000D3
:100D200000000000000000000000000000000000C3
:100D300000000000000000000000000000000000B3
:100D400000000000000000000000000000000000A3
:100D50000000000000000000000080808080404013
:100D600020100804020408102040808000000000C9
:100D70000000000000000000000000000000000073
:100D80000000000000000000000000000000000063
:100D90000000000000000000000000000000000053
:100DA0000000000000000000000000000000000043
:100DB0000000000000000000000000000000000033
:100DC00000000000000000000000007E820202041B
:100DD00004080808080404020101000000000000E3
:100DE000000000800000800000606000010102043B
:100DF000040808101020204080808080404040403F
:100E000020202020101010100808080804040404F2
:100E100002020202010101010000000000000000C6
:100E200000000000000000000000000000000000C2
:100E300000000000000000000000000000000000B2
:100E400000000000000000000000C0300C030000A3
:100E50000000000000000000008086864040404006
:100E6000212222201111101008080808040404048B
:100E70000408304080800000018698600000000077
:100E80000000000000000000000000000000000062
:100E90000000000000000000000000000000000052
:100EA0000000000000000000000000000000000042
:100EB0000000000000000000808080804040404032
:100EC0002020202010101010080F0808040404042B
:100ED0000204081010202040404142241800000065
:100EE0000000000000000000000000000000000002
:100EF00000000000000001010100000000000000EF
:100F000000000000000000000000000000000000E1
:100F100000000000000000000000000000000000D1
:100F200000000000000000000000000000000000C1
:100F300000000000000000000000000000000000B1
:100F400000000000000000000000000000000000A1
:100F50000000000000000000000000000000000091
:100F60000000000000000000000000000000000081
:100F70000000000000000000000000000000000071
:100F80000000000000000000000000000000000061
:100F90000000000000000000000000000000000051
:100FA0000000000000000000000000000000000041
:100FB0000000000000000000000000000000000031
:100FC0000000000000000000000000000000000021
:100FD0000000000000008080808040402010080455
:100FE0000204081020408080000000000000000083
:100FF00000000000000000000000000000000000F1
:1010000000000000000000000000000000000000E0
:1010100000000000000000000000000000000000D0
:1010200000000000000000000000000000000000C0
:1010300000000000000000000000000000000000B0
:101040000000000000001C34C40404040808080860
:1010500008040402010100000000000080000040BC
:1010600080804000003030000101020204040408C6
:101070000810204080808080404040402020202078
:1010800010101010080808080404040402020202E8
:10109000010101010000000000000000000000004C
:1010A0000000000000000000000000000000000040
:1010B0000000000000000000000000000000000030
:1010C000000000000000E018060100000000000021
:1010D0000000000000808383404040402021212008
:1010E0001010101008080808040404040408304014
:1010F0008080000001869860000000000000000071
:1011000000000000000000000000000000000000DF
:1011100000000000000000000000000000000000CF
:1011200000000000000000000000000000000000BF
:10113000000000008080808040404040202020202F
:1011400010101010080F080804040404020408100A
:101150001020204040414224180000000000000000
:10116000000000000000000000000000000000007F
:10117000000001010100000000000000000000006C
:10118000000000000000000000000000000000005F
:10119000000000000000000000000000000000004F
:1011A000000000000000000000000000000000003F
:1011B000000000000000000000000000000000002F
:1011C000000000000000000000000000000000001F
:1011D000000000000000000000000000000000000F
:1011E00000000000000000000000000000000000FF
:1011F00000000000000000000000000000000000EF
:1012000000000000000000000000000000000000DE
:1012100000000000000000000000000000000000CE
:1012200000000000000000000000000000000000BE
:1012300000000000000000000000000000000000AE
:10124000000000000000000000000000000000801E
:101250008040404020202020201804020102040881
:1012600010202040408080000000000000000000AE
:10127000000000000000000000000000000000006E
:10128000000000000000000000000000000000005E
:10129000000000000000000000000000000000004E
:1012A000000000000000000000000000000000003E
:1012B000000000000000000000000000000000002E
:1012C00000060D31C1010101020202040402020103
:1012D000000000000000000080000040808040000E
:1012E0000030300000000001020404080810204013
:1012F000808080804040404020202020101010102E
:1013000008080808040404040202020201010101A1
:1013100000000000000000000000000000000000CD
:1013200000000000000000000000000000000000BD
:1013300000000000000000000000000000000000AD
:101340000000E0180601000000000000000000009E
:101350000080838340404040202121201010101045
:1013600008080808040404040408304080800000D1
:1013700001869860000000000000000000000000EE
:10138000000000000000000000000000000000005D
:10139000000000000000000000000000000000004D
:1013A000000000000000000000000000000000003D
:1013B000808080804040404020202020101010106D
:1013C000080F080804040404020408101020204038
:1013D000404142241800000000000000000000000E
:1013E00000000000000000000000000000000101FB
:1013F00001000000000000000000000000000000EC
:1014000000000000000000000000000000000000DC
:1014100000000000000000000000000000000000CC
:1014200000000000000000000000000000000000BC
:1014300000000000000000000000000000000000AC
:10144000000000000000000000000000000000009C
:10145000000000000000000000000000000000008C
:10146000000000000000000000000000000000007C
:10147000000000000000000000000000000000006C
:101480000000000000000000000000004A001E00F4
:101490001F00200021002200350014001A0008005F
:1014A00015001700290004221628072409210A43E1
:1014B00031001D001B00060019000500000052004D
:1014C000510021522B42AA004D0027002600250082
:1014D000240023002D00130012000C0018001C0033
:1014E000340033320F380E340D310B002E02380029
:1014F000370036001000110000004F00500022524B
:101500002C41A900000000000000000000000000C5
:1015100000000000000000000000000000001E02AB
:101520001F02200221022202000000000000000031
:101530000000000000000100010000002A00A800D7
:101540000000000000000000000000000000300269
:101550002F020000000000003502270226022502AB
:1015600024022302000030022F02000000000000CD
:101570000000010001000000010001000000000067
:10158000000000000000000000000000000000005B
:101590000000000000001E001F00200021002200AB
:1015A000000000000000000000000000000001003A
:1015B0000100000001000100000000000000000028
:1015C000000000000000000000000000000000001B
:1015D0000000270026002500240023000000000052
:1015E00000000000000000000000010001000000F9
:1015F00028000100000000000000000000000000C2
:101600000000000000000000000000000100E100F8
:10161000E200E300E0000100000000000000000024
:1016200000000000000001000100010001000100B5
:1016300000000000000000000000000000000000AA
:101640004E0052004B00000000004D004F005100C2
:1016500050004A00000000000000000000000000F0
:101660000000010001000100010001000000000075
:101670000000000000000000000000001C700000DE
:10168000000000000000000000000000000000005A
:101690000000000000000000000000000000010049
:1016A0000100010001000000000000000000000037
:1016B000000000000000000000000000000000002A
:1016C000000000000000000000000000000000001A
:1016D000000000001B70000000000100010001007C
:1016E0000100000000DA0281FFD9F1DB20A4A62E60
:1016F000AF00A0C0D30000A1C8D30000AED580A821
:101700001F408D14200000AF00AE05010980A1012B
:10171000850319012AB700150126B7009501751038
:101720008100C0050C0901A101850419012AA0024C
:10173000150126A002950175108100C0050109065A
:10174000A101050719E029E7150025019508750194
:1017500081029501750881010507190029FF15000F
:1017600026FF009506750881000508190129051551
:10177000002501950575019102950175039101C040
:1017800009023B00020100A0FA0904000001030164
:10179000010009211101000122440007058103080D
:1017A00000010904010001030000000921110100EA
:1017B000012232000705820320000112010002000D
:1017C000000008D8042DEB0001010200010E034CBB
:1017D0000069006C00790035003800000010036CCF
:1017E0000069006C00690075006D00730000000462
:1017F0000309040000000000003E5B4F5B3E003E1A
:101800006B4F6B3E001C3E7C3E1C00183C7E3C181F
:10181000001C577D571C001C5E7F5E1C0000183C9E
:10182000180000FFE7C3E7FF00001824180000FFBE
:10183000E7DBE7FF0030483A060E00262979292623
:1018400000407F05050700407F05253F005A3CE723
:101850003C5A007F3E1C1C0800081C1C3E7F0014E4
:10186000227F2214005F5F005F5F0006097F017F17
:1018700000006689956A0060606060600094A2FF65
:10188000A2940008047E04080010207E20100008A6
:10189000082A1C0800081C2A0808001E1010101036
:1018A000000C1E0C1E0C0030383E383000060E3E78
:1018B0000E060000000000000000005F00000000B5
:1018C0000700070000147F147F1400242A7F2A12C7
:1018D00000231308646200364956205000000807B0
:1018E000030000001C224100000041221C00002ACD
:1018F0001C7F1C2A0008083E080800008070300089
:1019000000080808080800000060600000201008B7
:101910000402003E5149453E0000427F40000072F3
:1019200049494946002141494D33001814127F109E
:10193000002745454539003C4A49493100412111BC
:10194000090700364949493600464949291E000021
:101950000014000000004034000000000814224180
:101960000014141414140000412214080002015938
:101970000906003E415D594E007C1211127C007F29
:1019800049494936003E41414122007F4141413EA3
:10199000007F49494941007F09090901003E414151
:1019A0005173007F0808087F0000417F410000203C
:1019B00040413F01007F08142241007F40404040E9
:1019C000007F021C027F007F0408107F003E41411F
:1019D000413E007F09090906003E4151215E007F1A
:1019E000091929460026494949320003017F0103AC
:1019F000003F4040403F001F2040201F003F403834
:101A0000403F00631408146300030478040300617A
:101A100059494D4300007F41414100020408102014
:101A200000004141417F00040201020400404040A7
:101A30004040000003070800002054547840007F15
:101A40002844443800384444442800384444287F1B
:101A50000038545454180000087E09020018242449
:101A60001C78007F080404780000447D40000020BA
:101A700040403D00007F102844000000417F4000AE
:101A8000007C04780478007C08040478003844441E
:101A90004438007C1824241800182424187C007C66
:101AA000080404080048545454240004043F442407
:101AB000003C4040207C001C2040201C003C40306A
:101AC000403C004428102844004C9090907C0044F6
:101AD00064544C44000008364100000000770000C8
:101AE000000041360800000201020402003C2623E7
:101AF000263C000000000000808080800000000084
:101B00000080E070180C1830E080000010F8901091
:101B100030783010B8FC3810000000000000F8FCED
:101B2000F8000000000000000000000000001C9C05
:101B30001C00000000F8FCF80000000000001CFC85
:101B4000F8C000000000000080E0F87C1C000000ED
:101B5000F0FCFCFC1C1C1C1C1C1C1C1C00000000C1
:101B60000000C0F0F8381C1C1C1C1C1C3CF8F0E0E9
:101B700000E0F0F0F0E0ECEEF7F37020007C7C7C0D
:101B80007E007E7E7E7F7F7F000080C0E07E5B4F98
:101B90005BFEC00000C000DCD7DEDEDED7DC00C0AC
:101BA0000000000000000000000000000000000035
:101BB00000000000000000000FBCE08181818383F1
:101BC00082870C183060C000001FFE90B9FFBB91E7
:101BD000983C1811133F1100000000000000FFFFA7
:101BE000FF00000000000000000000000000FFFFF8
:101BF000FF00000000FFFFFF0000000000000000E9
:101C0000030F7FF8E080F0FC3F0F010000000000B0
:101C10003F3F3F1C1C1C1C1C3C78F8F0E08000007F
:101C20000000C3E7FF7E3C3878787070F8FFDF87EC
:101C3000000F1F3F7F7F7F7F7F3F1E0C001F1F1FF6
:101C40003F003F3F3F7F7F7F00307B7F7830202009
:101C500030787F3B0003000F7F0F0F0F7F0F0003D3
:101C60000000000000000000000000000000000074
:101C7000000000183C24666341C181808080808020
:101C80008081C14162386C4CC681818080808080B7
:101C900081C14362361C1800000000000000FFFFF5
:101CA000FFC0C0C0C0C0C0C0C0C0800000007FFF77
:101CB0007F000000007FFFFFC080000000E0E0C068
:101CC000C0C0E0F97F1F0700000000000000000016
:101CD00070F0E0E0C0C0C0C0E0F0F87F3F0F00004F
:101CE000000F3F7FF9E0E0C0C0C0C0C0E0F97F3F17
:101CF0001F000000000000000000000000000000C5
:101D000000000000000000000000000000000000D3
:101D100000000000000000000000000000000000C3
:101D200000000000000000000000000000000000B3
:101D30000000000011241FBECFEFDAE0DEBFCDBFF0
:101D400011E0A0E0B1E0E2E2F8E602C005900D92F9
:101D5000A63FB107D9F725E0A6EFB1E001C01D927B
:101D6000AE3AB207E1F70E946D270C940F340C9441
:101D70000000FF920F931F93CF93DF932091AC0548
:101D80003091AD052C5A3340A90144585D4F413084
:101D90005240E8F040E052E0421B530B6091AA032E
:101DA0007091AB03D901A455BC4F420F531F821B46
:101DB000930BC1E0D0E02417350760F07093AB03BC
:101DC0006093AA03CDB7DEB7E5E00C942F304CE763
:101DD00052E0E4CFFC01E20FF31FF490FD91FF16F7
:101DE000A1F08D0101501109F801F082F90115E00F
:101DF000F695E7951A95E1F78E0102C0000F111FC5
:101E0000EA95E2F7F801602B7F2B2F5F3F4FD3CF8E
:101E1000482F2091A2039091690357E0291302C033
:101E200080E0089530E0529FF001539FF00D11249F
:101E3000E659FC4F8181681306C08081481303C0B6
:101E400085818111EECF2F5F3F4F2770E7CFFC01D7
:101E5000AC014B5F5F4F8FEF91E32191822728E028
:101E600030E087FF09C0880F892721503109C9F761
:101E7000E417F50791F70895880FF7CFE8EDF0E044
:101E800080818E7F80831092E2001092DA0010929F
:101E9000E100A0EEB0E08C9181608C9380818F771F
:101EA000808319BCA7EDB0E08C918E7F8C938081EC
:101EB0008F7E808310924A0308952091E400309130
:101EC000E50085E69091EC0090FF06C09091E80057
:101ED00090FF06C080E008959091E80092FDFACF4F
:101EE00090915F03992391F0953091F09091EB00E0
:101EF00095FD10C04091E4005091E500241735078E
:101F000009F381509A01F1F684E0089582E0089582
:101F100083E0089581E008958091610387FF13C0F5
:101F20008091E80082FF06C08091E8008B77809363
:101F3000E80004C080915F038111F2CF0895809181
:101F40005F038823D9F38091E80080FFF8CF809168
:101F5000E8008E77ECCF982F9093E900242F762F0E
:101F600050E0891731F07091EC002091ED00509114
:101F7000F00021FD07C09F5F973071F78093E90063
:101F800081E008953091EB003E7F3093EB0030917B
:101F9000ED003D7F3093ED003091EB0031603093E8
:101FA000EB007093EC002093ED005093F000209133
:101FB000EE0027FDE0CF80E00895B0E0A0E0E3EE82
:101FC000FFE00C941030C8EDD0E088818F7E8883CC
:101FD000E7EDF0E080818160808384E082BF81E072
:101FE00080934A0388818E7F888302EE10E0F80197
:101FF00010821092DA0081EEC82ED12CF6011082E8
:1020000088818F77888388818068888388818F7DA5
:10201000888319BC10925F031092600310925403DE
:102020001092530390EEE92EF12CF70180818B7F03
:10203000808388818160888342E060E080E00E9444
:10204000AB0FF60180818E7F8083F80180818160F3
:102050008083808188608083F70180818E7F808388
:10206000888180618883CDB7DEB7E8E00C942C309E
:10207000FC01809167039091680386179707A0F091
:102080006115710529F49091E8009E779093E8001E
:1020900090E06115710551F4911108C08091E8003C
:1020A00082FF35C080E00895BC01F2CF80915F03CC
:1020B0008823C9F18530C9F18091E80083FD31C0E2
:1020C0008091E80082FDEACF8091E80080FFE1CFB7
:1020D0002091F3008091F200322F282F61157105B5
:1020E00019F02830310558F091E02830310509F019
:1020F00090E02091E8002E772093E800CACF8191EC
:102100008093F100615071092F5F3F4FE7CF8091BD
:102110005F03882341F0853041F08091E80083FF20
:10212000BDCF81E0089582E0089583E00895089589
:1021300008952FB7F89460914603709147038091FA
:102140004803909149032FBF089580913901089564
:102150009C01FC0132969FEF80E04191461751F0BF
:102160009F3F19F4411101C0982F8F5F8630A9F766
:102170009F3F09F40895290F311D97FD3A95F90104
:1021800062830895A3E0B0E0E8ECF0E10C9416302F
:1021900020913B0330913C0328173907A1F090931D
:1021A0003C0380933B03E0913903F0913A0330976D
:1021B00051F024E029839B838A830084F185E02DFC
:1021C000CE01019609952396E2E00C943230A3E00B
:1021D000B0E0EDEEF0E10C94163020913703309131
:1021E000380328173907A1F09093380380933703F9
:1021F000E0913903F0913A03309751F023E02983BD
:102200009B838A830084F185E02DCE010196099598
:102210002396E2E00C94323080913503882359F004
:10222000E0913903F0913A03309729F00190F08161
:10223000E02D0995089580E0089580E00895F894D0
:10224000E82FE295EF70F0E031A1282F2F7081E0A8
:1022500090E001C0880F2A95EAF7982F9095932374
:1022600091A392A1892B82A3789408950F931F9331
:1022700080913503882329F00E9499101F910F91B6
:1022800008950E94991000915B0210915C022091C8
:102290005D0230915E02600F711F821F931FEECFAF
:1022A0009091040392FF10C041E0282F2471243044
:1022B00009F040E031E0282F2871283009F030E0A3
:1022C000431711F02CE0822793FF10C041E0282F24
:1022D0002471243109F040E031E0282F28712831A1
:1022E00009F030E0431711F02CE08227309105030C
:1022F00030FF10C051E0282F2171213009F050E04B
:1023000041E0282F2871283009F040E0541711F0DF
:1023100029E0822731FF10C041E0282F21712131AF
:1023200009F040E031E0282F2871283109F030E031
:10233000431711F029E0822794FD877E08958238A3
:102340009105B9F1B0F48133910509F47DC048F4E9
:102350008932910509F46DC08A32910509F479C07A
:1023600008958533910509F45FC08933910509F11A
:102370000895833E9105D9F138F4803E910529F105
:10238000823E910579F10895863E9105D9F1873E07
:10239000910509F43EC0843E910541F52091050365
:1023A00021FF24C08091040384FD19C087EE90E0D2
:1023B000089520910403237009F056C0209105036D
:1023C00023FF14C089E290E008952091040320FDCA
:1023D00038C03091050330FF09C024FF3FC090E0B2
:1023E00080E008952091040322FDF7CF0895209105
:1023F000040322FD36C03091050330FD35C024FDB5
:10240000EECFF4CF2091040323FFF0CF24FDE7CFDC
:10241000CDCF2091040323FD2AC03091050331FF65
:10242000EECF84EE90E008952091040325FDCACFFD
:1024300008952091040325FD1DC02091050323FF6D
:10244000D5CF89E390E008952091040326FD15C0BF
:1024500008952091040326FD13C0089583EE90E0B3
:10246000089582EE90E0089580EE90E0089586EE63
:1024700090E0089585E390E008958AE290E0089561
:1024800081E390E0B3CF7A30B8F46630A8F48530B9
:10249000B0F4E62FF0E096E0799FE00DF11D1124F5
:1024A0009CE3899FE00DF11D1124EE0FFF1FE457FF
:1024B000FB4E85919491089580E090E0089581E02D
:1024C000FCCF1F93CF93DF930E949F11EC01C115A6
:1024D00080E5D807E8F5C11580E4D80708F09BC06F
:1024E000C03ED10518F5CD3CD10508F081C0C83AF1
:1024F000D10570F4C53AD10508F072C0C130D105DC
:1025000011F118F0C430D105F0F4D0E0C0E01BC0E8
:10251000C33CD105D0F7C85AD0E0CC0FDD1FC6555B
:10252000DE4F0990D881C02DD4640DC0C11580E262
:10253000D80708F0CBC0C11581E0D80708F05AC011
:10254000C83ED10510F7CE01DF91CF911F910895BC
:10255000C03682E5D80718F5C03482E5D80708F000
:1025600069C0C03282E5D80708F05DC0C11582E5B8
:10257000D80708F493C02C2F2695269580E2289F33
:10258000900111248C2F8370C1E0D0E002C0CC0FE9
:10259000DD1F8A95E2F7C22BD32BDD68D4CFC03A7A
:1025A00082E5D80760F4C03882E5D80708F457C040
:1025B000CF71D0E0DC2FCC27C46FD06AC4CFC03C31
:1025C00082E5D80708F45EC0C03E82E5D80708F06F
:1025D0009CCFDC2FCC27CC27DF71C06FD06AB3CF64
:1025E000C55AD0E0C955DE4FC881D0E0D064ABCF2A
:1025F000D065A9CF8D2F0E945011182FCE01992799
:102600000E949F11C12FD0E0DC2FCC27CC27DF7197
:10261000C82BD92B98CFCE0199270E949F11CC2788
:10262000DF70D06AF5CFCF71D0E0DC2FCC27C16F3F
:10263000D06A89CF2C2F26952695277080E2289F77
:10264000900111248C2F8370C1E0D0E002C0CC0F28
:10265000DD1F8A95E2F7DC68C22BD32B74CF2C2FB9
:1026600026952695277080E2289F900111248C2FB3
:102670008370C1E0D0E002C0CC0FDD1F8A95E2F785
:10268000DA68EACF8C2F8F710E945011C82FD0E0EA
:10269000DC2FCC27CC27DF71D06255CF8C2F8F71E8
:1026A0000E94501155E0D695C7955A95E1F7CF7025
:1026B000D0E0DC2FCC27282F30E084FF05C044E099
:1026C000220F331F4A95E1F7D069C6CF8D2F8F7146
:1026D0000E945011182FCE0199270E949F11C12FDF
:1026E000D0E0DC2FCC27CC27DF71906291CF982FE0
:1026F00090958091360289238093360208958091C7
:10270000A20390916903981301C008958F5F8770A9
:10271000FACFB0E0A0E0EFE8F3E10C940F307C01D9
:102720000091D7021091D80280916B0290916C02B7
:10273000082B192BCFE0D0E0CC24C394D12CBC2E95
:10274000C6010C2E02C0880F991F0A94E2F780235D
:102750009123892B49F4219790F7B12C8B2DCDB77C
:10276000DEB7E9E00C942B30B7018C2F0E944312A6
:102770000E946112019779F3F1CFCF93DF93EC01BF
:102780000E948913BE010E9443120E946112DF91D0
:10279000CF9108959A3078F5863068F5E82FF0E00B
:1027A00086E0989FE00DF11D11249E2F977083E025
:1027B000F695E7958A95E1F7EE0FFF1FEE0FFF1FE5
:1027C000EC5FFD4F50E040E080E0219130E0092EC9
:1027D00002C0369527950A94E2F721703327042E1C
:1027E00001C0220F0A94EAF7822B4F5F5F4F4430FB
:1027F000510559F7089580E008959A3098F586308C
:1028000088F5E82FF0E086E0989FE00DF11D112497
:102810008E2F877041E001C0440F8A95EAF783E06C
:10282000F695E7958A95E1F7EE0FFF1FEE0FFF1F74
:10283000EC5FFD4F30E020E070E05191DF01119737
:10284000CB01022E02C0969587950A94E2F781701B
:1028500081958527842385278C932F5F3F4F2430D4
:10286000310559F708959C0126703327263031052C
:1028700031F480619093D8028093D70208958F7EBF
:10288000F9CFE091D702F091D80221E030E0D901F0
:1028900002C0AA0FBB1F8A95E2F7CD01D90102C081
:1028A000AA0FBB1F6A95E2F7BD018A2B972B02C0C6
:1028B000220F331F4A95E2F7AF01482359238417AB
:1028C000950731F42E2B3F2BC9010E943314089534
:1028D000209530952E233F23F7CF21E030E002C032
:1028E000220F331F8A95E2F7209530958091D70209
:1028F0009091D802822393230E94331408959091DB
:102900002B028095892380932B02282F277069F44E
:10291000891759F09091050392FF07C08695869517
:1029200086950E946D1410922B02089521E030E0EC
:1029300002C0220F331F8A95E2F78091D70290914F
:10294000D802822B932B0E943314089590936C022B
:1029500080936B020895FC0124812223B9F08081C9
:1029600091810E94BD1392959F70963089F050F42A
:102970009250923058F4803F19F030F4883E30F491
:1029800081E008959A50F5CF843FD1F380E0089517
:10299000883EB0F3813FD1F7F3CFA6E0B0E0E3ED9E
:1029A000F4E10C94153026E0FC01DE011196019053
:1029B0000D922A95E1F7FC01258189819A812223D4
:1029C00099F0662389F00E948913182F682F898156
:1029D0009A810E94FD1369817A81812F0E9443129E
:1029E0002696E3E00C9431300E94CA13182FF3CFDF
:1029F0008091F9028531F8F48091010290E001960E
:102A000065E070E00E94A4308093010224E030E091
:102A1000281B390B4CE752E0249FC001259F900DE5
:102A2000349F900D1124805E974F0E94B90E089537
:102A300084EA95E0FACF8832D8F38091000290E0E2
:102A40000196817099278093000221E030E0281BD5
:102A5000390B4CE752E0249FC001259F900D349F15
:102A6000900D112484559F4FE0CFCF93DF93682FB3
:102A700081E06A3019F06D3031F480E00E94B615C3
:102A8000DF91CF9108958091AC059091AD0526E03E
:102A9000FC01A4EAB3E001900D922A95E1F7603EB3
:102AA00008F459C026E0FC0111922A95E9F7C0917B
:102AB000AC05D091AD0546E050E0BE0184EA93E05C
:102AC0000E942131892B59F1CE018C5A93409C01EF
:102AD00045E0369527954A95E1F741E050E0BA0187
:102AE00002C0660F771F2A95E2F79B016091AA0347
:102AF0007091AB03262B372B059665E0969587954D
:102B00006A95E1F7FA0102C0EE0FFF1F8A95E2F71E
:102B1000CF01822B932B9093AB038093AA039E014A
:102B2000265A33404091A303642F70E0C9010E94EC
:102B3000F22F481B463010F4240F311D2115F2E00E
:102B40003F0710F030E020E024553C4F3093AD05B6
:102B50002093AC0595CFF6E06F9FB00111246D5026
:102B6000784E46E050E00E943D30A1CFCF93382F01
:102B7000E091AC05F091AD05EC5AF3402091A30330
:102B8000622F70E0CF010E94F22F281B822F332387
:102B900061F066E00E949830C82FC15010F4CF91C8
:102BA000089580E20E943515F8CF9F01280F311D4E
:102BB0002115324018F080E0F0E0E0E08E0F9F2F0A
:102BC000911D84559C4F9093AD058093AC05E7CF44
:102BD0008091360290912D02892B90912C0299239D
:102BE00051F0892BEAEFF1E027E090E0215029F540
:102BF000911110922C028093F80148E050E06EE2AF
:102C000072E088EF91E00E942131892BA9F088E0E1
:102C1000E8EFF1E0AEE2B2E001900D928A95E1F7C3
:102C2000E0913903F0913A03309731F00280F3815B
:102C3000E02D88EF91E00995089531913323B1F2A9
:102C40009F5FD4CF10923602EAEFF1E086E0DF0119
:102C50001D928A95E9F790E080E00E94E71090E0ED
:102C600080E00E94C21010922D020E94E815089583
:102C7000882321F00E9477130E94E8150895882385
:102C800039F090913602892B809336020E94E81524
:102C90000895882381F19CEF980F913A70F4E8EF42
:102CA000F1E09281891301C01282319691E0EE3FEA
:102CB000F907B9F70E94E815089590E2980F983047
:102CC00050F4877091E001C0990F8A95EAF7892F37
:102CD0000E947713EFCF9BE5980F933028F490E094
:102CE00080E00E94E7100895885A8B3120F490E02C
:102CF00080E00E94C2100895CF938823C1F0C82FAE
:102D00008CEF8C0F813A10F5AAEFB1E0E8EFF1E01B
:102D100080E092E02D91C21761F08A179B07D1F7EE
:102D20006C2F88EF91E00E94A8100E94E815CF91C7
:102D300008958EEF91E02281C21301C01282319674
:102D40008E179F07C1F70E94E815EACF80E28C0F2B
:102D5000883068F4C77021E030E001C0220FCA95C6
:102D6000EAF780913602822B80933602DECFEBE5C4
:102D7000EC0FE33040F4F0E0E955FE4F808190E045
:102D80000E94E710D4CFC85ACB3188F6EC2FF0E080
:102D9000EE0FFF1FE655FE4F808191810E94C21009
:102DA000C6CF0F931F93CF93DF93EC01FC010190EB
:102DB0000020E9F78F0101501109C017D10728F051
:102DC000DF91CF911F910F91089589910E94351540
:102DD000F4CF0F931F93CF93DF938B01EA01909170
:102DE0005F03943061F58093E9008FEF9091E800E4
:102DF000815095FD06C095ED9A95F1F7000081117F
:102E0000F5CF8091E80085FF1AC00E945D0F811107
:102E100011C08091E80085FD06C08091E8008E77A2
:102E20008093E800F2CFF80181918F018093F10047
:102E3000219779F78091E8008E778093E800DF9101
:102E4000CF911F910F91089543E050E0BC0182E0C3
:102E50000E94E9160895CF93DF93EC0148E050E01B
:102E6000BC0181E00E94E91688E0FE01ABE4B3E01A
:102E700001900D928A95E1F7DF91CF910895B0E02E
:102E8000A0E0E5E4F7E10C940E307C015B016A01FF
:102E900080915A0201E010E08A3010F40AE010E05C
:102EA000C1E0D0E0B501C701F6010995811104C068
:102EB00021960C171D072CF4CDB7DEB7EAE00C9471
:102EC0002A30CC9F9001CD9F300D300D112490E021
:102ED00080E045E34A95F1F70000019682179307D9
:102EE000C1F7E0CF0E9422162FEF84E39CE021502F
:102EF00080409040E1F700C0000088E19AE00FB602
:102F0000F894A895809360000FBE90936000FFCF67
:102F1000AB0124E630E0BC0188E70E94A52D21E04A
:102F2000892B09F020E0822F089580913003909141
:102F30003103911103C091E089270895882369F036
:102F400062E070E088E097E10E948817811103C079
:102F50008091300308951092300380913003EBCFBD
:102F6000CF93C0913003809131038823D1F00E9428
:102F70009910605A75418F4F9F4F60932C03709347
:102F80002D0380932E0390932F03C11108C062E09C
:102F900070E086E097E10E948817811105C0C0911A
:102FA00030038C2FCF91089581E080933003F7CFC9
:102FB0009091050392FB222720F9281779F080FBD6
:102FC00092F990930503609104037091050384E0E6
:102FD00090E00E94823082E00E947F140895CF9298
:102FE000DF92EF92FF921F93CF93DF9300D000D038
:102FF000CDB7DEB7C0905602D0905702E09058028D
:10300000F09059020E9499106C197D098E099F0950
:1030100011E0643671058105910570F10E94361149
:103020006E5F7F4F8F4F9F4F69837A838B839C8323
:103030008091110190911201845B9D4F409110018C
:1030400050E04530510510F044E050E0BE016F5FA4
:103050007F4F0E942E3182E090E00E947B2F182F3C
:10306000882351F00E949910609356027093570282
:103070008093580290935902812F0F900F900F90D8
:103080000F90DF91CF911F91FF90EF90DF90CF9045
:1030900008958F929F92AF92BF92EF92FF921F93EB
:1030A000CF93DF9300D000D000D0CDB7DEB77B0147
:1030B00090E080E00E947B2F182F882309F464C0E1
:1030C0004091030150E04115510511F041E050E0FD
:1030D0006091040170910501645B7D4FCE010696FD
:1030E0000E942E318090480290904902A0904A029E
:1030F000B0904B020E949910681979098A099B09BE
:10310000643671058105910538F48DE492E00E94E2
:10311000270F9E818917C1F181E090E00E947B2FEB
:10312000182F882391F040910B0150E04630510553
:1031300010F045E050E060910C0170910D01645B6E
:103140007D4FCE0101960E942E318DE492E00E94C7
:10315000270F91E02E81281390E0192301F10E949E
:103160009910609348027093490280934A029093A9
:103170004B0285E0FE013196A3E4B2E001900D928E
:103180008A95E1F711E00BC085E0EDE4F2E0DE01A5
:10319000119601900D928A95E1F71111EACF85E021
:1031A000E3E4F2E0D70101900D928A95E1F7812FD7
:1031B00026960FB6F894DEBF0FBECDBFDF91CF913C
:1031C0001F91FF90EF90BF90AF909F908F900895C8
:1031D00078941F920F920FB60F9211248F939F93A2
:1031E000AF93BF938091460390914703A09148030A
:1031F000B09149030196A11DB11D809346039093A0
:103200004703A0934803B0934903BF91AF919F91A7
:103210008F910F900FBE0F901F9018952FB7F894B5
:103220008091460390914703A0914803B0914903D0
:103230002FBF08953091440320914003321720F4AA
:10324000209140032093440360933D0370933E0319
:1032500080933F03909340030E940E19909357036D
:103260008093560381E0809355030895AAE2B0E06D
:10327000ECE3F9E10C941230E1E6F3E08091F10027
:10328000819323E0E936F207C9F780916203833026
:1032900009F487C008F5813009F45EC0823009F472
:1032A000E0C08091E80083FF1AC180916103909192
:1032B00062039A3008F013C1E92FF0E0EE59F64EA0
:1032C0000C94F930421A681A6F1A681A6F1AC01AE9
:1032D000E21A6F1A6B1C781C8A3009F4A7C08B3075
:1032E00009F47CC08930E9F6809161038132C9F626
:1032F0008091650390916603029798F68091E800AB
:10330000877F8093E8008091E80082FF45C080912C
:10331000F3009091F200892798278927029731F4CA
:103320008091F100813011F0863071F48091F100CC
:1033300080933901609138017091390180913A018F
:1033400090913B010E941A198091E8008B7780933D
:10335000E8000E948C0FA5CF80916103813A09F0AB
:10336000A0CF8091E800877F8093E800809165037B
:1033700090916603892B61F060E090E080E070E05E
:103380000E9438108091E8008B778093E80089CF05
:1033900068E08BE493E0F3CF80915F038111B3CFBA
:1033A00080CF80916103813A09F07BCF80916503E2
:1033B00090916603892B09F074CF8091E800877F94
:1033C0008093E8008091E80080FFFCCF80913A0173
:1033D0008093F1008091E8008E77B9CF80916103EE
:1033E000813209F05ECF8091650390916603892B4D
:1033F00009F057CF8091E800877F8093E8000E9412
:103400008C0F81E090916303911101C080E0809363
:103410003A01609138017091390180913A0190919F
:103420003B010E941A190E9422163BCF8091610332
:10343000813209F036CF8091E800877F8093E800E1
:103440000E948C0F80916403809338016091380151
:103450007091390180913A0190913B010E941A19B3
:1034600020CF80916103813A09F01BCF8091E80061
:10347000877F8093E8008091E80080FFFCCF8091F7
:103480003801A6CF803889F0823849F580916503EC
:103490008F70873020F58093E9008091EB0085FBE9
:1034A000882780F91092E90006C08091530390911B
:1034B0005403911182609091E800977F9093E80007
:1034C0008093F1001092F1008091E8008E7727C080
:1034D000282F2D7F21F48823A1F0823029F18091BB
:1034E000E80083FF0AC08091E800877F8093E800AE
:1034F0008091EB0080628093EB00AA96E6E00C944A
:103500002E3080916303813051F7933009F080E0D1
:10351000809354031092E9008091E800877F8093A4
:10352000E8000E948C0FDBCF809163038111F2CF02
:10353000809165038F702FEF280F263080F68093DF
:10354000E9002091EB0020FFE5CF933031F480912A
:10355000EB0080628093EB00DDCF9091EB009061F7
:103560009093EB0021E030E001C0220F8A95EAF74A
:103570002093EA001092EA008091EB008860EACF85
:103580008111ADCF109163031F778091E3008078A4
:10359000812B8093E3008091E800877F8093E8008F
:1035A0000E948C0F8091E80080FFFCCF8091E300A7
:1035B00080688093E30083E0111101C082E0809372
:1035C0005F038DCF8058823008F089CF80916303EC
:1035D000909164038C3D43E09407A1F583E08A83D6
:1035E0008AE289834FB7F894DE01139620E03EE02B
:1035F00051E2E32FF0E050935700E49120FF03C025
:10360000E295EF703F5FEF708E2F90E0EA30C0F0F0
:10361000C7968D939D932F5F243159F74FBF8091AB
:10362000E800877F8093E8006AE270E0CE010196AF
:103630000E9438108091E8008B778093E8004FCF8C
:10364000C096E7CF4091650350916603292F332739
:103650002330310509F448C080F52130310509F4E3
:10366000EFC02230310509F03ACF0BE310E0E0E87B
:10367000EE2EE7E1FE2E8091E800877F8093E80040
:1036800080916703909168030817190708F4C8012F
:1036900040E0009709F0E9C04111E7C08091E800DF
:1036A00082FDC8CF80915F03882321F2853011F21B
:1036B0008091E80083FFF2CFBDCF2132310509F4BC
:1036C000B1C02232310509F00ACF4115510509F484
:1036D000C5C04130510509F002CF02E310E03AE0E5
:1036E000E32E37E1F32EC7CF99278130910509F4F6
:1036F0005AC040F0029709F460C010E000E0F12CDD
:10370000E12C09C0EFEEF7E1E4910E2F10E07FEE1F
:10371000E72E77E1F72E20916703309168038091BF
:1037200059038F5F8093590330935E0320935D03A9
:103730002230310509F04BC090915A039F5F90935E
:103740005A03833010F190915C03923038F040912D
:103750005B03411163C0891709F45EC040915A03AD
:10376000853008F447C02F3F310509F04BC099233D
:1037700009F44AC083E0423008F051C0411105C04D
:1037800080915B03882309F447C00E940E1990932F
:1037900057038093560381E080935503011511056B
:1037A00009F49DCE68CFEDEDF7E1E4910E2F10E026
:1037B0006DEDE62E67E1F62EAECFEDECF7E1E4918C
:1037C0000E2F10E05DECE52E57E1F52EA4CF24304E
:1037D000310531F490915B039F5F90935B03B1CF10
:1037E0002F3F310509F0ADCF90915C039F5F90931F
:1037F0005C03A7CF843031F49111C0CF423021F463
:1038000084E00DC09111BACF433009F0BECF809152
:103810005B03813009F0B9CF81E001C082E0809381
:103820005803B3CF4115510591F04130510509F0CE
:1038300056CE09E010E04BEAE42E47E1F42E1BCF10
:1038400002E110E02BEBE22E27E1F22E14CF09E08B
:1038500010E092E9E92E97E1F92E0DCF04E410E093
:103860008CE3E82E87E1F82E06CF20915F03222318
:1038700009F4E0CE253009F4DDCE2091E80023FDE7
:10388000D9CE2091E80022FD09CF2091E80020FF49
:1038900000CF2091F3003091F20023273227232715
:1038A000009719F02830310558F041E028303105F3
:1038B00009F040E02091E8002E772093E800E9CE5F
:1038C000F70144914093F100FFEFEF1AFF0A0197CF
:1038D0002F5F3F4FE5CF803809F001CE8091E8009F
:1038E000877F8093E800809160038093F100ECCDA6
:1038F0008111F5CD10916303123008F0F0CD809165
:10390000E800877F8093E800109360030E948C0F8B
:103910001123F9F084E080935F0342E061EC81E0E1
:103920000E94AB0F42E261EC82E00E94AB0F8091FB
:103930005F038430A1F482E080933B016091380101
:103940007091390180913A0190913B010E941A19BE
:10395000C6CD8091E30087FDDDCF81E0DCCF81E043
:10396000EBCF1F920F920FB60F9211242F933F931C
:103970004F935F936F937F938F939F93AF93BF9377
:10398000CF93EF93FF93C091E900CF708091EC004B
:103990001092E9008091F000877F8093F000789486
:1039A0000E9436191092E9008091F000886080939F
:1039B000F000C093E900FF91EF91CF91BF91AF91DB
:1039C0009F918F917F916F915F914F913F912F9137
:1039D0000F900FBE0F901F9018951F920F920FB669
:1039E0000F9211242F933F934F935F936F937F9385
:1039F0008F939F93AF93BF93CF93EF93FF93809158
:103A0000E10082FF09C08091E20082FF05C0809141
:103A1000E1008B7F8093E1008091DA0080FF24C079
:103A20008091D80080FF20C08091DA008E7F809343
:103A3000DA008091D90080FFD2C080E189BD82E1A7
:103A400089BD09B400FEFDCF81E080935F038091C2
:103A50004A03811109C00E943E0F0E94DD0F809130
:103A6000E20084608093E2008091E10080FF24C046
:103A70008091E20080FF20C08091E2008E7F8093E1
:103A8000E2008091E20080618093E2008091D800A2
:103A900080628093D80019BC85E080935F0383E047
:103AA00080933B01609138017091390180913A0116
:103AB00090913B010E941A198091E10084FF39C066
:103AC0008091E20084FF35C080E189BD82E189BD3B
:103AD00009B400FEFDCF8091D8008F7D8093D8007F
:103AE0008091E1008F7E8093E1008091E2008F7EE3
:103AF0008093E2008091E20081608093E2008091F7
:103B00006003882309F471C084E080935F0380918F
:103B10005F03843009F471C081E080933B016091C0
:103B200038017091390180913A0190913B010E94D6
:103B30001A198091E10083FF40C08091E20083FF69
:103B40003CC08091E100877F8093E10082E0809318
:103B50005F03109260038091E1008E7F8093E1000B
:103B60008091E2008E7F8093E2008091E20080618C
:103B70008093E20042E060E080E00E94AB0F809121
:103B8000F00088608093F000C1E0C0933B01609139
:103B900038017091390180913A0190913B010E9466
:103BA0001A19C0933A0160913801709139018091DE
:103BB0003A0190913B010E941A19FF91EF91CF9128
:103BC000BF91AF919F918F917F916F915F914F9135
:103BD0003F912F910F900FBE0F901F90189519BC19
:103BE00010925F0310924A033FCF8091E30087FD5C
:103BF00002C081E08ACF83E088CF82E08ECFEF924F
:103C0000FF920F931F93CF93DF93C42FD22FFC010A
:103C100085818823A9F0409334030E940E19909364
:103C2000330380933203C77081E001C0880FCA95C7
:103C3000EAF70E943F16CDB7DEB7E6E00C942E30CF
:103C400010913403141338C0E0903203F090330322
:103C50000E940E198E199F09883C910568F5C0E2F3
:103C6000CD0F1D17C1F080E2810F883048F4177026
:103C700081E0012E01C0880F0A94EAF70E943816ED
:103C8000C83008F581E09D2F977001C0880F9A9584
:103C9000EAF70E943F16802F0E947C16802F0E9418
:103CA0004916C83040F6D77081E001C0880FDA9518
:103CB000EAF70E943816BFCFC77081E001C0880FB5
:103CC000CA95EAF7F6CF802F0E947C16802F0E94BB
:103CD0004916B1CFB0E0A0E0E0E7FEE10C940F3070
:103CE000FC012481222309F45BC07C0161E00E9475
:103CF000CD14EC01F7012581FC01E851FC4722239A
:103D000009F44FC49A9581159F4458F5CE0199271F
:103D1000AC01445051094432510518F08B970E976D
:103D200088F4A0918802B0E0AA0FBB1FA357BD4F33
:103D30008D919C9111978F3F3FE7930719F0019662
:103D40008D939C93E730F10508F053C0E655F14E92
:103D50000C94F930DB1EE11EB91ED51EE71EED1EC8
:103D6000F31ECE01CF3FD10599F290F290E080E0B2
:103D7000CFCF06E221EE41EE6AE17CE7C7010E9467
:103D8000FF1D80912B02877059F0F70185818823F0
:103D900039F08091050382FF03C082E00E947F1406
:103DA000CDB7DEB7E9E00C942B3007E225EE45EE07
:103DB0006BE17CE7E3CF06E221EE40EE68E17CE7D1
:103DC000DDCF07E225EE44EE69E17CE7D7CF06E2DE
:103DD00021EE42EE6CE17CE7D1CF07E225EE46EE24
:103DE0006DE17CE7CBCF08E221E045EE6EE17CE7B8
:103DF000C5CF10923403CE019057839708F0E1C3EA
:103E000084E090E00E944E30909305038093040379
:103E1000FE01E150F047E232F10508F026C0ED5E08
:103E2000F04E0C94F9306F1FE41F771F411F451FA0
:103E30007B1F491F7F1F8B1F551FDD1F591F8F1FA2
:103E40005D1F931FBB1F611F971FC21F671F9D1F11
:103E5000A51F4D1F831F511F871F6B1FA11FB11F60
:103E6000CB1FDB1F3B1F731FEB1F8091040381607F
:103E70008093040395C080910503886080930503B7
:103E80008FC0809104038260F3CF8091040384602B
:103E9000EFCF809104038860EBCF809105038160B0
:103EA000EDCF809105038260E9CF809104038061AA
:103EB000DFCF809104038062DBCF809104038064B4
:103EC000D7CF0E942216809104038068D1CF8091C1
:103ED00004038860DCCF809105038260E0CF80918D
:103EE00004038E7FC5CF80910503877FC7CF809164
:103EF00004038D7FBDCF809104038B7FB9CF809168
:103F00000403877FB5CF809105038E7FB7CF809163
:103F100005038D7FB3CF809104038F7EA9CF80915D
:103F200004038F7DA5CF809104038F7BA1CF0E94D6
:103F30002216809104038F779BCF80910403877FA3
:103F4000DCCF809105038D7FE0CF8091040382FB5D
:103F5000992790F921E0922790FB82F990FB83F951
:103F600087CF80910503982F909591708E7F892B34
:103F700090FB81F983CF90910403892F8F7B96FF6B
:103F8000806476CF0E94221690910403892F97FBBC
:103F900087F980586DCF61E08EE090E00E94643038
:103FA000609104037091050384E090E00E948230E8
:103FB0000E942216E6CE60E0EFCF90910403892F95
:103FC0008F7E94FF806154CF90910403892F8E7F60
:103FD00090FF81604DCF90910503892F877F93FFDC
:103FE00088604CCF89E2E8EFF1E02EEF31E092817A
:103FF000891301C0128231962E173F07C1F7F5C20F
:1040000081E00E94961443E062E081E00E94411446
:10401000B8CE81E00E946D14F6CF222309F416C3B6
:1040200082E0EFCF222381F0C330FCE7DF0709F401
:1040300090C008F064C0C1153CE7D30709F46DC017
:10404000C130DC4709F48BC0F7018581C081D18183
:10405000882309F492C0CE010E948913182F682F7B
:10406000CE010E94FD13BE01812F0E9443120E94C7
:104070006112D82FC92FB82EF701D580C680C294FF
:104080008FE0C82280912B02877001F10D2DDD2079
:10409000F1F0892F807F803469F080E28D0F8830C5
:1040A000A8F0892F807E803229F4F1E0FD1770F4AA
:1040B000CC2061F08091050382FF08C082E00E945D
:1040C0007F1480912B02877001E009F000E01C2F23
:1040D00012951F701C3008F025C1E12FF0E0ED585B
:1040E000FF4D0C94F930C220C220F820F8208B211B
:1040F000922192219221AB21382249224922CB35AB
:104100009CE7D907C1F1CC35ECE7DE0751F1CA35A0
:10411000DC4709F099CF81E02BC00E9422162FEFD7
:1041200034E38CE0215030408040E1F700C00000D3
:1041300087E797E7909301088093000888E19AE069
:104140000FB6F894A895809360000FBE909360001E
:10415000FFCF6FEF7FEF90E080E00E9482300E94FF
:1041600072178091050382FB882780F991E08927E7
:104170000E94D81769CF80E0FBCFCE010E94CA13FE
:10418000182F71CF1C2F1F70C07F11F01295107F58
:104190008D2FDD20B9F0112369F090E29D0F98304A
:1041A00010F0D11109C080913602182B10933602FD
:1041B0000E94E8158D2F3FC080912D02182B10937F
:1041C0002D02F6CF0E9449161123E9F1D05ED830B6
:1041D00010F0B11004C0812F0E94771306C0109513
:1041E00080912D02182310932D020E94E8152BC0F8
:1041F0001C2F1F70C07FC03211F01295107FBB20A2
:1042000051F021E0B21609F466C0DD2009F472C055
:10421000CC20B1F1CFCF8091050382FD2DC0DD20F0
:1042200069F0112339F080913602182B1093360271
:104230000E94E81580E00E947C1605C080E00E9484
:1042400049161111C8CF002309F4BBC080912B027D
:1042500080FDB7C0F70115828695869586950E94E8
:104260009614C7010E946A1E80912B02869586953E
:1042700086950E946D14A5C0DD2099F0C11004C080
:10428000812F0E943F16DFCF31E0C312DCCF809137
:104290002C02912F98231917B1F2182B10932C028E
:1042A000D2CFC110D0CF812F0E94381690912C020E
:1042B000812F892329F0812F8095892380932C02D7
:1042C00080910302912F982309F4BDCF10951823F4
:1042D00010930302B8CFDD2029F085E08C1508F497
:1042E000B2CFCECF94E09C1508F4ADCF812F0E94C1
:1042F0003816A9CFCC20D1F3D93349F4EFEFF7EE3C
:1043000023E0E150F0402040E1F700C000008D2F95
:104310000E94491698CF8C2F86958695837039F028
:10432000813079F01850143008F08DCF48C08D2FAF
:104330009C2F9370D11002C080E090E00E94E710A3
:1043400082CF8D2F9C2F9370D11002C080E090E01F
:104350000E94C21078CF8C2F837009F045C0D11015
:104360002EC04D2F429546954770440F440F2D2F78
:104370002F7030E0042E02C0220F331F0A94E2F7A0
:1043800090E080E0D4FF09C08FE090E002C0880F89
:10439000991F4A95E2F780959095C695C695C3708A
:1043A000C230C9F0A8F440916B0250916C02C13048
:1043B00069F0822B932B842395230E94A6140E94DC
:1043C0000C1160E0C7010E94CD14EACC242B352BE0
:1043D000822B932BF2CF822B932B20916B02309167
:1043E0006C0282279327E9CF8695DD2011F08C2F70
:1043F0008170882321F34D2F429546954770440FD5
:10440000440F2D2F2F7030E0042E02C0220F331FD7
:104410000A94E2F790E080E0D4FF09C08FE090E0DA
:1044200002C0880F991F4A95E2F780959095C6952E
:10443000C695C370C23099F078F44091D70250917C
:10444000D802C13039F0822B932B842395230E940C
:104450003314B5CF242B352B822B932BF8CF822B03
:10446000932B2091D7023091D80282279327EFCF48
:10447000CF70DD2039F08C2F0E9496148D2F0E9472
:104480003F169DCF8D2F0E9438168C2F0E946D14E1
:1044900096CF8D2F32EFB31609F43FC03B1580F055
:1044A00090EFB916F1F0E1EFBE16A1F0DD2009F4AE
:1044B00064C0CC2009F45EC08D2F0E947C1632CFE0
:1044C000F3EFBF1689F124EFB212F0CF90910503FC
:1044D00092FD37C08C2F8F71DD2019F10E94961448
:1044E00021CFDD20A9F034E03C1508F41BCFCF71BB
:1044F00081E090E002C0880F991FCA95E2F72091F1
:10450000D7023091D802822793270E9433140ACF12
:1045100085E08C1508F406CFEACF8C2F8F71DD2053
:10452000E9F20E946D14FECE90E080E0DD2069F398
:10453000CF7181E090E002C0880F991FCA95E2F721
:10454000E4CFDD2061F08C2F8F7192FFC7CF98E010
:10455000899F90011124236020932B02BFCF81E01B
:104560000E947F14E1E0EC1508F0DCCE82E00E94AE
:104570007F14D8CE8C2F8F71B1CFCC2079F08933B6
:1045800049F4FFEF27EE33E0F15020403040E1F7EF
:1045900000C000008D2F0E944916C4CE8C2F8F7151
:1045A000C0CFE730F10508F4D1CBC6318CE7D8078E
:1045B00009F043C080910202882309F413CD85E3FA
:1045C00012CDC631FCE7DF0799F4809136028A7A72
:1045D00091E009F490E09093020265E3811101C03B
:1045E00069E288EF91E00E94A8100E94E815C9CB0B
:1045F000C7373CE7D30709F403CDC8378CE7D807A2
:1046000009F40BCDCE01805E9245809708F00ACD6B
:1046100021111ACDCF7181E090E0FC0102C0EE0FB4
:10462000FF1FCA95E2F7EF016E2F83E090E00E9432
:104630006430CE010E94A614A4CBC7379CE7D907EB
:1046400009F4E7CCC837ECE7DE07E1F682E0E2CC1C
:10465000B0E0A0E0EEE2F3E20C94113080912A0287
:10466000807F09F050C080912902882309F44BC053
:10467000E091A20387E0D82E809169038E1709F498
:1046800042C00E2F10E0ED9DF0011124E659FC4FC1
:1046900084818823E9F1D09EE001D19ED00D1124C0
:1046A000FE01E659FC4F918180912502981330C09C
:1046B00090818091240298132BC08581811128C09C
:1046C000E280F3808091260290912702E81AF90A8D
:1046D00060E084E292E00E94CD1488ECE816F104D8
:1046E000B8F480912A028F70806180932A02C059A9
:1046F000DC4F88818F708061888384E292E00E9421
:104700006A1E0E947F13CDB7DEB7E7E00C942D3010
:10471000F8013196E770B0CFA4E1B0E0E2E9F3E24E
:104720000C9409308C0186E0F801DE011F9601909F
:104730000D928A95E1F7F801F480E58084E2882EF5
:1047400082E0982E8091280281112AC0F11003C0C6
:10475000FF24F3941CC0EE20F9F0C8010E94AB14B2
:10476000F82E8823C9F087E0F801A4E2B2E00190B6
:104770000D928A95E1F780912802813031F4809181
:104780002402909125020E94BD130E9428238F2DA0
:104790006496EFE00C942530C8010E946A1ED8CFC1
:1047A000C280D380B0902902809126029091270286
:1047B0003601681A790ABB2009F4F7C05080A1803D
:1047C00060E084E292E00E94CD14F8EC6F16710470
:1047D00008F0A4C0FF2009F4BBCF80912A02382F33
:1047E000307F20912502F8019181311157C0FE2CB4
:1047F000291314C020912402908129130FC0E110C5
:1048000046C08F70806180932A0284E292E00E9409
:104810006A1E80912A02F8018683B9CFE11037C061
:104820006A2D852D0E94080F6A2D852D0E94080F84
:10483000E82E8111ACCF5F86A88A8F8598890E9467
:10484000BD13292F22952F70243058F49F702230E9
:1048500080F0992391F0F8019681907F71F4FE2CFD
:1048600096CF2A50223068F0C8010E946A1EEB2CB5
:10487000F6CF992311F0882391F3805E8830A0F75A
:10488000EECF803F60F3815F833070F7E8CF809197
:104890002A02816080932A02F12C79CF291315C056
:1048A000209124029081291310C0E1100EC086834C
:1048B000C8010E946A1E87E0F801A4E2B2E00190FC
:1048C0000D928A95E1F7FB2C62CFC8010E94AB14D0
:1048D000882309F461CFEE2009F45ECF80912A028B
:1048E000803288F020912402309125023987288770
:1048F000DB86CA86909128029C871D868E87CE0112
:1049000008960E946A1E87E0F801A4E2B2E00190D6
:104910000D928A95E1F70E9428231ACF80912A02EE
:10492000982F907F51F484E292E00E946A1E87E003
:10493000F40111928A95E9F7AFCFFF2009F408CF6F
:1049400020912502F8019181291311C020912402A0
:10495000908129130CC0E1100AC08683C8010E940F
:104960006A1E87E0F40111928A95E9F7ACCFC8017D
:104970000E94AB14882309F40FCFEE2009F40CCF6A
:1049800080912A02803208F4BECF20912402309117
:1049900025023A832983DC82CB82909128029D8371
:1049A0001E828F83CE010196ACCF60E084E292E05C
:1049B0000E94CD14F8EC6F16710408F0B8CFFF20F8
:1049C00009F4C6CEFE2CEE2009F4E6CE9091250225
:1049D000F801818198132DC0909124028081981351
:1049E00028C08091260290912702C81AD90AF8ECB3
:1049F000CF16D104A8F490912A0290FD11C0907FA7
:104A000079F080912A02F8018683903F31F0982F47
:104A1000907F905F8F70892B8683C8010E946A1EE9
:104A200087E0F801A4E2B2E001900D928A95E1F7E7
:104A3000AECEC8010E94AB14811165CF80912A02CD
:104A4000816080932A02C8010E946A1EA0CEABE159
:104A5000B0E0EDE2F5E20C9415304E8B5F8B688F81
:104A6000798F8A8F9B8F911110922D021D8A86E07B
:104A7000FE017696DE011F9601900D928A95E1F770
:104A80008B89882351F061E0CE010F960E94CD14EE
:104A900061E0CE010F960E94CD1487E0FE013F96A3
:104AA000DE01189601900D928A95E1F7CE010896E5
:104AB0000E948C2381112AC087E0FE013896DE0116
:104AC000119601900D928A95E1F78C858823F1F07B
:104AD0002091690330E0C9010196877099274091C0
:104AE000A2034817190659F197E0929FD001939FAE
:104AF000B00D1124A659BC4FFE01319601900D92C4
:104B00009A95E1F7809369030E947F1317E08091E3
:104B1000A203909169038917F9F0819FC0011124C4
:104B200086599C4F0E948C238823B1F08091A20368
:104B300090E00196877099278093A203E8CF0E94A6
:104B40002216109269031092A20387E0E4E2F2E0D9
:104B5000DF011D928A95E9F76B96E3E00C94313002
:104B6000AFE0B0E0E6EBF5E20C9409308E010F5FA8
:104B70001F4F8AE0F80111928A95E9F782EEE82E3C
:104B800081E0F82E680197EE692E91E0792EAA2433
:104B9000A394B12C3DEE832E31E0932EF701819149
:104BA0007F018F3F09F440C0F894E82FE295EF7041
:104BB000F0E021A18F70A50102C0440F551F8A9516
:104BC000E2F7CA01922F982B91A392A18095892395
:104BD00082A3789400C0E7EEF1E0512C31E02191FE
:104BE0002F3F09F489C0A22FA295AF70B0E0909634
:104BF0008C9190E02F7002C0959587952A95E2F7E9
:104C000080FD7AC0832F582A330F8E169F0639F7FE
:104C1000F701319780818F3F11F00E941F1150EAF8
:104C20005A95F1F7F6015082FFEFCF1ADF0A6E14A2
:104C30007F0409F0B3CF4AE050E0B8018FE592E07D
:104C40000E942131009741F02AE0F801AFE5B2E07F
:104C500001900D922A95E1F700916A0210E0035944
:104C60001D4F892B09F44AC081E080933B020E94CA
:104C70000E1990933A0280933902F12CE09035039B
:104C8000EE2009F498C06E012BE0C20ED11C85E025
:104C9000F60111928A95E9F780915A028A3008F05C
:104CA00053C049E458E1B601C8010E943F17882368
:104CB00009F46EC04FEE57E1B601C8010E943F17DC
:104CC000882309F465C010925A028091690290E02D
:104CD00045E050E0B60183599D4F0E94213121E00B
:104CE00020934202892B09F046C0E12C8E2D8F299A
:104CF0002F96EFE00C94253080E085CFF0903B02BA
:104D0000FF2009F4BACFC0903902D0903A020E9435
:104D10000E198C199D09059708F4AFCF45E050E0B6
:104D20006FE572E0C8010E942131892B59F085E0BE
:104D3000EFE5F2E0D80101900D928A95E1F710922B
:104D40003B029CCFF12CFBCFA0903C02B0903D02E7
:104D50000E940E198A199B09843F914008F0A1CF47
:104D600080914202882309F285E0F60111928A952A
:104D7000E9F710924202A0916902B0E0A359BD4F39
:104D800085E0FE013B9601900D928A95E1F7AECF4A
:104D900080915A028F3F19F08F5F80935A02809161
:104DA0005A028A3008F491CF0E940E1990933D0266
:104DB00080933C02D5CF85E0F801ADE4B2E00190EC
:104DC0000D928A95E1F78DE492E00E94270F80937F
:104DD0004C028090520290905302A0905402B090E6
:104DE000550280913E0290913F02A0914002B09105
:104DF000410288169906AA06BB0609F477CF80926D
:104E00003E0290923F02A0924002B09241020E9464
:104E10009910861A970AA80AB90A80925B029092A2
:104E20005C02A0925D02B0925E0260CFA6E0B0E0AC
:104E3000ECE1F7E20C9414300E940E198C01809181
:104E40003702909138028017910781F019821A82F7
:104E50000E940E19682F49815A81792F80E090E0D5
:104E60000E94272510933802009337022696E4E02B
:104E70000C9430301F920F920FB60F9211248F9323
:104E80009F93AF93BF9380914503811113C080918D
:104E9000460390914703A0914803B091490341967E
:104EA000A11DB11D8093460390934703A09348032F
:104EB000B0934903BF91AF919F918F910F900FBE17
:104EC0000F901F901895CF93DF93EC010E940E195D
:104ED0008C1B9D0BDF91CF910895ADE0B0E0E3E72F
:104EE000F7E20C94063085B7806885BF85B7806887
:104EF00085BF84B7877F84BF0FB6F894A89580914B
:104F00006000886180936000109260000FBE80E8AE
:104F100090E00FB6F89480936100909361000FBE0B
:104F200081E080933B01609138017091390180915B
:104F30003A0190913B010E941A198DE191E1909301
:104F4000F7018093F6010E943E0F0E94DD0F8091D1
:104F5000E20084608093E200789480915F0388236C
:104F600099F01091E9001F708091EC0080FFA2C1C0
:104F700080E8182B1092E9008091E80083FD0E94E0
:104F800036191F701093E90082E084BD93E095BD4F
:104F90009AEF97BD80936E0010925B0210925C02B4
:104FA00010925D0210925E028091D8008061809321
:104FB000D8002AE12A95F1F700C08091D900182F76
:104FC000117080FD04C00E943E0F10925F03109389
:104FD0003503109336031093180111110E948F2E80
:104FE000809118018091180190E0811101C095E035
:104FF00090936A0285E0891B8093690202EE11E0BA
:10500000D8018D918D018F3F11F00E941F11B1E0E9
:10501000073E1B07A9F707EE11E0F80181918F0108
:105020008F3F11F00E941F11F1E00D3E1F07A9F7FD
:105030008AE0EDE6F2E0DF01282F1D922A95E9F7DC
:10504000EFE5F2E0DF011D928A95E9F790E080E05C
:105050000E944E30853E9E4F09F461C065EE7EEFA2
:1050600090E080E00E94823060E082E090E00E9468
:10507000643081E090E090936C0280936B0261E079
:1050800083E090E00E94643060E074E184E090E0AE
:105090000E94823060E086E090E00E94643060E030
:1050A00087E090E00E94643040E050E0BA0188E080
:1050B00090E00E94763060E083E290E00E946430ED
:1050C00060E08CE090E00E94643060E08DE090E071
:1050D0000E94643019821A821B821C821D821E82E9
:1050E0001F82188648E050E067E170E0CE0101962B
:1050F0000E94543040E050E0BA018FE190E00E94FD
:10510000763040E050E0BA018FE090E00E947630C7
:1051100040E050E0BA0183E190E00E94763082E006
:1051200090E00E9446308093770284E090E00E94F5
:105130004E30909305038093040383E090E00E9437
:10514000463090E00E94A614809135038111B4C0CE
:1051500082E08093260380E88093A3030E942D2D94
:105160006BE070E08BEF96E10E9488178823E9F1ED
:105170008091260365E070E081FDA0C086EF96E196
:105180000E948817882389F16DE070E084EE96E133
:105190000E948817882349F10E949910605A75412E
:1051A0008F4F9F4F60932C0370932D0380932E039A
:1051B00090932F03ECEAF3E080E092E0DF019C01A2
:1051C0001D9221503040E1F7F093AD05E093AC051E
:1051D0008FEF9FEF9093AB038093AA0381E08093BE
:1051E000310380933003109227038091350381119E
:1051F00002C00E94922E89E191E090933A0380933D
:10520000390344E6842E912CA12CB12C80915F03AC
:1052100010E4853009F489C00E94B02508E712E047
:105220003DE6E32E32E0F32ED701F80191918D9106
:1052300022E832E02E173F0709F481C09817B1F336
:1052400040903503D12CD701CD907D01F8015190CC
:105250008F015C1431F1712C662463945C24852DDC
:105260008621B9F04420A9F07982DA820E940E19D1
:105270009C838B83F1E0FD8391E08C2D862109F4E2
:1052800090E09E8349815A816B817C818D810E944F
:1052900027257394660C26E07212E1CFF80131974E
:1052A000C082D3943AE0D312CECF0E94361141E0AF
:1052B00049874AC080E05DCE80E04BCF81EF96E128
:1052C0005FCF80915F03843029F10E94951710927F
:1052D000450348E150E00FB6F894A895409360006C
:1052E0000FBE1093600083B7817F846083BF83B754
:1052F000816083BF7894889583B78E7F83BF0FB614
:10530000F894A89580916000886180936000109265
:1053100060000FBE0E94B025EDE6F2E081918111A0
:1053200034C352E0E737F507C9F780915F03853052
:1053300009F4C7CF0E9422160E940C116DCF98135A
:105340007FCF0E941627198600913503002309F4A8
:10535000BCC0C0908D02D0908E020D2C000CEE08C7
:10536000FF0810912301212F30E0EDE8F2E081E009
:1053700090E03296281739070CF0EBC04090890274
:1053800050908A0260908B0270908C020E9499105B
:105390009B01AC01241935094609570929013A0135
:1053A00039EC431651046104710414F180918802B0
:1053B00090E0019669E170E00E94A4308093880239
:1053C000880F991FFC01E357FD4F11821082812F36
:1053D000183108F087E18F5F809323010E949910B4
:1053E0006093890270938A0280938B0290938C025F
:1053F00042E0C416D104E104F1045CF1A0E6BAEE87
:10540000A70196010E94FF306B017C0158EC159FAB
:1054100090011124032E000C440B550B240D351D57
:10542000461D571DA5E0B0E00E94FF309B01AC0176
:10543000C701B6010E94B830213F31054105510531
:1054400024F020EF30E040E050E029013A0177FEFF
:1054500003C0412C512C3201C0908402D0908502AF
:10546000E0908602F09087020E9499109B01AC01A7
:105470002C193D094E095F0969017A0135E6C31609
:10548000D104E104F10484F00E9499106093840235
:105490007093850280938602909387028091F9022F
:1054A000809383024092820210918302A091820233
:1054B000A11BBB0BA70196010E940A31A501940113
:1054C0000E94DA30120F1093F90280913103882381
:1054D00009F402C2C0902803D09029030E940E193B
:1054E0008C199D09C29708F480C00E940E199093F0
:1054F0002903809328038CEA93E09093AD05809371
:10550000AC05002309F4ACC08091D7029091D80279
:105510008430910509F497C040F50097A1F16AE441
:1055200071E08230910589F19F938F9388E891E033
:105530009F938F931F9288E18F938FEB92E09F93BD
:105540008F930E943E310FB6F894DEBF0FBECDBFE1
:1055500020C040815181052E000C660B770BC40ED4
:10556000D51EE61EF71E019604CF8031910509F481
:105570006DC08631910509F469C088309105A1F6A6
:1055800068E671E002C06CE371E08FEB92E00E948C
:1055900037318FEB92E00E94D11681E00E94B61560
:1055A0008091050380FF55C087E291E09F938F9320
:1055B00084E291E09F938F9388E991E09F938F938A
:1055C0001F9288E18F9389ED92E09F938F930E94C1
:1055D0003E310FB6F894DEBF0FBECDBF89ED92E02D
:1055E0000E94D11681E00E94B6158091AA03909185
:1055F000AB03892B09F457C180913103882309F447
:1056000052C18091270381114EC10E94B017209191
:10561000AA033091AB032115310509F444C180E0A0
:1056200041E050E0082F10E02A01082E02C0440C8F
:10563000551C0A94E2F7B20162237323672B09F029
:1056400095C08F5FEFCF69E571E09FCF6AE771E0AA
:105650009CCF8DE291E09F938F938AE291E0AACF55
:105660008091F902882309F44AC00E94B017409043
:10567000F5025090F6026090F7027090F8020E94D6
:1056800099106419750986099709693C71058105A6
:10569000910560F00E9499106093F5027093F602F4
:1056A0008093F7029093F8020E94F8140E949910D8
:1056B0006093F1027093F2028093F3029093F402EC
:1056C0008CEA93E09093AD058093AC058091F9024C
:1056D0001F928F938EE991E09F938F938AEF92E0D0
:1056E0009F938F930E946E318AEF92E00E94D116B1
:1056F0000F900F900F900F900F900F9076CF4090DB
:10570000F1025090F2026090F3027090F4020E9455
:105710009910641975098609970961367A4E8105D1
:10572000910518F00E949517CBCF4090F50250904C
:10573000F6026090F7027090F8020E9499106419C6
:10574000750986099709693C71058105910508F479
:10575000B7CF0E9499106093F5027093F602809380
:10576000F7029093F8020E94F814AACF90912603B2
:1057700090FFF2C0880F880F880F8093320110923B
:105780003501895F8093330183E08093360124E6FD
:1057900030E047E050E060E371E088E70E94612D6F
:1057A000892B09F080C0A80185E0440F551F8A9518
:1057B000E1F78091260380FFE1C0E6E0F3E080E2BC
:1057C000DF011D928A95E9F7E1EFF1E0FD87EC87B3
:1057D0006DEE71E0CC24C394AC85BD858D91BD8701
:1057E000AC87FB012190BF01240E352E311C9101A5
:1057F00024553C4F190190E08A5F9C4FFC0107E063
:105800009F01281B390BDC2C01C0DD0C2A95EAF71F
:105810003B862A86E12CAA85BB851D91BB87AA877A
:105820001D21202F2E192770722E022E000C330BF3
:10583000B12F01C0BB0F7A94EAF77B2E31952195E9
:1058400031092770332701C016952A95EAF7712A86
:105850001081712A7082E39428E0E212DCCF0150BB
:1058600031960F3F69F685EF91E0AC85BD858A17CB
:105870009B0709F0B1CF04E610E020E230E046E0FB
:1058800053E060E488E70E94EB2D892B61F440949B
:1058900050948091AA039091AB03482259225092D0
:1058A000AB034092AA03809130038823A9F00E94A1
:1058B000991000912C0310912D0320912E0330910B
:1058C0002F03601B710B820B930B6F3F7F4F8F4F2A
:1058D0009F4710F40E949517E985E1110E94B017C7
:1058E0000E940C1190912A03891721F080932A03BA
:1058F0000E94991080914003823009F087CC8091FA
:105900005503882309F482CC009156031091570364
:105910000E940E19801B910B8A3F910508F476CCEA
:10592000109255031092570310925603909158030A
:1059300080912B03981305C080913701882309F4C7
:1059400065CC109237018091580380932B0380918E
:105950005803809158035ACC8295880F80768093A3
:105960003201980136952795369527952093350174
:10597000815E809333012093360109CF44555C4FFB
:1059800004E610E020E230E07CCF809154038823CD
:1059900009F4CBCC80E189BD92E199BD09B400FE48
:1059A000FDCF8091D8008F7D8093D8008091E0005A
:1059B00082608093E0008091E00081FDFCCF0E9436
:1059C0002216B3CCEF92FF920F931F93CF93DF93E6
:1059D000182FEB011092BC0084EA8093BC000E9457
:1059E0000E197C018091BC0087FF0DC08091B90029
:1059F000887F8830A9F08091B900887F803181F05C
:105A00008FEF9FEF08C0C7010E946327C817D9070F
:105A100048F78EEF9FEFCDB7DEB7E6E00C942E305F
:105A20001093BB0084E88093BC000E940E198C0187
:105A30008091BC0087FF0AC08091B900887F8831BF
:105A400011F08034E9F690E080E0E5CFC8010E94D3
:105A50006327C817D90760F7DCCF1092B9008CE034
:105A60008093B80008950F931F93CF93DF93EB01BA
:105A70008093BB0084E88093BC000E940E198C01C7
:105A80008091BC0087FF11C02091B900287F81E080
:105A900090E0283211F490E080E091958195910991
:105AA000DF91CF911F910F910895CF3FDC0741F314
:105AB000C8010E946327C817D90710F78EEF9FEF20
:105AC000EFCFB0E0A0E0E7E6FDE20C940B30782EDB
:105AD0005B016A0189010E940E194C01C1E0D0E00E
