:100000000C949A0E0C94B70E0C94B70E0C94F52F1A
:100010000C94B70E0C94B70E0C94B70E0C94B70E4C
:100020000C94B70E0C94B70E0C94251D0C94E91C7F
:100030000C9428280C94B70E0C94B70E0C94B70EA1
:100040000C94B70E0C94B70E0C94B70E0C94B70E1C
:100050000C94B70E0C9420190C94B70E0C94B70E98
:100060000C94B70E0C94B70E0C94B70E0C94B70EFC
:100070000C94B70E0C94B70E0C94B70E0C94B70EEC
:100080000C94B70E0C94B70E0C94B70E0C94B70EDC
:100090000C94B70E0C94B70E0C94B70E0C94B70ECC
:1000A0000C94B70E0C94B70E0C94B70E0000000021
:1000B0000000000000000000000000000000000040
:1000C0000000000000000000000000000000000030
:1000D0000000000000000000000000000000000020
:1000E0000000000000000000000000000000808010
:1000F00080404020201008040204081010202040F6
:1001000040808000000000000000000000000000AF
:1001100000000000000000000000000000000000DF
:1001200000000000000000000000000000000000CF
:1001300000000000000000000000000000000000BF
:1001400000000000000000000000000000000000AF
:100150000000000000000000000000000000003F60
:10016000C1010102020404040402020101010000B1
:10017000000000008000004080804000003030001F
:10018000000000010264180412C2CA2488F08080B2
:10019000404040402020202010101010080808087F
:1001A0000404040402020202010101010000000033
:1001B000000000000000000000000000000000003F
:1001C000000000000000000000000000000000002F
:1001D0000000000000000000000000000000E01827
:1001E0000601000000000000000000000080838382
:1001F000404040402021212010101010080808081D
:1002000004040404020202020101010100000000D2
:1002100000000000000000000000000000000000DE
:1002200000000000000000000000000000000000CE
:1002300000000000000000000000000000000000BE
:1002400000000000000000000000000080808080AE
:10025000404040402020202010101010080F0808B7
:1002600004040404020408101020204040414224E9
:1002700098C088888C9C1C1E0E06000000000000A0
:10028000000000000000000000000000000000006E
:10029000000000000000000000000000000000005E
:1002A000000000000000000000000000000000004E
:1002B000000000000000000000000000000000003E
:1002C000000000000000000000000000000000002E
:1002D000000000000000000000000000000000001E
:1002E000000000000000000000000000000000000E
:1002F00000000000000000000000000000000000FE
:1003000000000000000000000000000000000000ED
:1003100000000000000000000000000000000000DD
:1003200000000000000000000000000000000000CD
:1003300000000000000000000000000000000000BD
:1003400000000000000000000000000000000000AD
:10035000000000000000000000000000000000009D
:10036000000000000000000000008080804040206D
:100370002010080402040810102020404080800053
:10038000000000000000000000000000000000006D
:10039000000000000000000000000000000000005D
:1003A000000000000000000000000000000000004D
:1003B000000000000000000000000000000000003D
:1003C000000000000000000000000000000000002D
:1003D00000000000000000000000003FC101010219
:1003E0000204844444428201010100000000000034
:1003F000800000408080400000303000000000019C
:100400000204040808102040808080804040404062
:1004100020202020101010100808080804040404EC
:1004200002020202010101010000000000000000C0
:1004300000000000000000000000000000000000BC
:1004400000000000000000000000000000000000AC
:1004500000000000000000000000E018060100009D
:100460000C03000218190005FE80838340404040C1
:10047000202121201010101008080808040404048A
:100480000408304080800000018698600000000071
:10049000000000000000000000000000000000005C
:1004A000000000000000000000000000000000004C
:1004B000000000000000000000000000000000003C
:1004C000000000000000000080808080404040402C
:1004D0002020202010101010080F08080404040425
:1004E0000202020201010101000000000000000000
:1004F0000000000000000000000000060F0F0703CE
:100500000361F0F8FC600101013C78F8F070000034
:1005100000000000000000000000000000000000DB
:1005200000000000000000000000000000000000CB
:1005300000000000000000000000000000000000BB
:1005400000000000000000000000000000000000AB
:10055000000000000000000000000000000000009B
:10056000000000000000000000000000000000008B
:10057000000000000000000000000000000000007B
:10058000000000000000000000000000000000006B
:10059000000000000000000000000000000000005B
:1005A000000000000000000000000000000000004B
:1005B000000000000000000000000000000000003B
:1005C000000000000000000000000000000000002B
:1005D000000000000000000000000000000000001B
:1005E00000000000000080808040402020100804AF
:1005F000020408101020204040808000000000000D
:1006000000000000000000000000000000000000EA
:1006100000000000000000000000000000000000DA
:1006200000000000000000000000000000000000CA
:1006300000000000000000000000000000000000BA
:1006400000000000000000000000000000000000AA
:10065000000000000000003FC101010202048444C8
:1006600044428201010100000000000080000040BF
:100670008080400000303000000000010264180457
:1006800012C2CA2488F080804040404020202020B0
:1006900010101010080808080404040402020202E2
:1006A0000101010100000000000000000000000046
:1006B000000000000000000000000000000000003A
:1006C000000000000000000000000000000000002A
:1006D000000000000000E018060100000C0300020A
:1006E00018190005FE8083834040404020212120CE
:1006F0001010101008080808040404040202020282
:1007000001010101000000000000000000000000E5
:1007100000000000000000000000000000000000D9
:1007200000000000000000000000000000000000C9
:1007300000000000000000000000000000000000B9
:100740000000000080808080404040402020202029
:1007500010101010080F080804040404020202021A
:100760000101010100000000000000000000000085
:100770000000000000000000000000000000000079
:100780000000000000000000000000000000000069
:100790000000000000000000000000000000000059
:1007A0000000000000000000000000000000000049
:1007B0000000000000000000000000000000000039
:1007C0000000000000000000000000000000000029
:1007D0000000000000000000000000000000000019
:1007E0000000000000000000000000000000000009
:1007F00000000000000000000000000000000000F9
:1008000000000000000000000000000000000000E8
:1008100000000000000000000000000000000000D8
:1008200000000000000000000000000000000000C8
:1008300000000000000000000000000000000000B8
:1008400000000000000000000000000000000000A8
:100850000000000000000000000000000000008018
:10086000804040402020202020180402010204087B
:1008700010202040408080000000000000000000A8
:100880000000000000000000000000000000000068
:100890000000000000000000000000000000000058
:1008A0000000000000000000000000000000000048
:1008B0000000000000000000000000000000000038
:1008C0000000000000000000000000000000000028
:1008D0000000003FC10101020204040404020201FD
:1008E0000000000000000000800000408080400008
:1008F000003030000000000102040408081020400D
:100900008080808040404040202020201010101027
:10091000080808080404040402020202010101019B
:1009200000000000000000000000000000000000C7
:1009300000000000000000000000000000000000B7
:1009400000000000000000000000000000000000A7
:100950000000E01806010000000000000000000098
:10096000008083834040404020212120101010103F
:1009700008080808040404040408304080800000CB
:1009800001869860000000000000000000000000E8
:100990000000000000000000000000000000000057
:1009A0000000000000000000000000000000000047
:1009B0000000000000000000000000000000000037
:1009C0008080808040404040202020201010101067
:1009D000080F080804040404020408101020204032
:1009E0004041422418000000000000000000000008
:1009F00000000000000000000000000000000101F5
:100A000001000000000000000000000000000000E5
:100A100000000000000000000000000000000000D6
:100A200000000000000000000000000000000000C6
:100A300000000000000000000000000000000000B6
:100A400000000000000000000000000000000000A6
:100A50000000000000000000000000000000000096
:100A60000000000000000000000000000000000086
:100A70000000000000000000000000000000000076
:100A80000000000000000000000000000000000066
:100A90000000000000000000000000000000000056
:100AA0000000000000000000000000000000000046
:100AB0000000000000000000000000000000000036
:100AC0000000000000000000000000000000000026
:100AD0000000000000000000000000000000808016
:100AE0004040402010080402010204081020408009
:100AF0008000000000000000000000000000000076
:100B000000000000000000000000000000000000E5
:100B100000000000000000000000000000000000D5
:100B200000000000000000000000000000000000C5
:100B300000000000000000000000000000000000B5
:100B40000000000000000000000000000000003F66
:100B5000C1010102020404040402020101010000B7
:100B600000000000000000800000800000606000C5
:100B700000010204040808101020204080808080BA
:100B80004040404020202020101010100808080885
:100B90000404040402020202010101010000000039
:100BA0000000000000000000000000000000000045
:100BB0000000000000000000000000000000000035
:100BC0000000000000000000000000000000C03035
:100BD0000C0300000000000000000000008086867A
:100BE000404040402122222011111010080808081E
:100BF00004040404040830408080000001869860EA
:100C000000000000000000000000000000000000E4
:100C100000000000000000000000000000000000D4
:100C200000000000000000000000000000000000C4
:100C300000000000000000000000000080808080B4
:100C4000404040402020202010101010080F0808BD
:100C500004040404020408101020204040414224EF
:100C6000180000000000000000000000000000006C
:100C70000000000000000000000001010100000071
:100C80000000000000000000000000000000000064
:100C90000000000000000000000000000000000054
:100CA0000000000000000000000000000000000044
:100CB0000000000000000000000000000000000034
:100CC0000000000000000000000000000000000024
:100CD0000000000000000000000000000000000014
:100CE0000000000000000000000000000000000004
:100CF00000000000000000000000000000000000F4
:100D000000000000000000000000000000000000E3
:100D100000000000000000000000000000000000D3
:100D200000000000000000000000000000000000C3
:100D300000000000000000000000000000000000B3
:100D400000000000000000000000000000000000A3
:100D50000000000000000000000080808080404013
:100D600020100804020408102040808000000000C9
:100D70000000000000000000000000000000000073
:100D80000000000000000000000000000000000063
:100D90000000000000000000000000000000000053
:100DA0000000000000000000000000000000000043
:100DB0000000000000000000000000000000000033
:100DC00000000000000000000000007E820202041B
:100DD00004080808080404020101000000000000E3
:100DE000000000800000800000606000010102043B
:100DF000040808101020204080808080404040403F
:100E000020202020101010100808080804040404F2
:100E100002020202010101010000000000000000C6
:100E200000000000000000000000000000000000C2
:100E300000000000000000000000000000000000B2
:100E400000000000000000000000C0300C030000A3
:100E50000000000000000000008086864040404006
:100E6000212222201111101008080808040404048B
:100E70000408304080800000018698600000000077
:100E80000000000000000000000000000000000062
:100E90000000000000000000000000000000000052
:100EA0000000000000000000000000000000000042
:100EB0000000000000000000808080804040404032
:100EC0002020202010101010080F0808040404042B
:100ED0000204081010202040404142241800000065
:100EE0000000000000000000000000000000000002
:100EF00000000000000001010100000000000000EF
:100F000000000000000000000000000000000000E1
:100F100000000000000000000000000000000000D1
:100F200000000000000000000000000000000000C1
:100F300000000000000000000000000000000000B1
:100F400000000000000000000000000000000000A1
:100F50000000000000000000000000000000000091
:100F60000000000000000000000000000000000081
:100F70000000000000000000000000000000000071
:100F80000000000000000000000000000000000061
:100F90000000000000000000000000000000000051
:100FA0000000000000000000000000000000000041
:100FB0000000000000000000000000000000000031
:100FC0000000000000000000000000000000000021
:100FD0000000000000008080808040402010080455
:100FE0000204081020408080000000000000000083
:100FF00000000000000000000000000000000000F1
:1010000000000000000000000000000000000000E0
:1010100000000000000000000000000000000000D0
:1010200000000000000000000000000000000000C0
:1010300000000000000000000000000000000000B0
:101040000000000000001C34C40404040808080860
:1010500008040402010100000000000080000040BC
:1010600080804000003030000101020204040408C6
:101070000810204080808080404040402020202078
:1010800010101010080808080404040402020202E8
:10109000010101010000000000000000000000004C
:1010A0000000000000000000000000000000000040
:1010B0000000000000000000000000000000000030
:1010C000000000000000E018060100000000000021
:1010D0000000000000808383404040402021212008
:1010E0001010101008080808040404040408304014
:1010F0008080000001869860000000000000000071
:1011000000000000000000000000000000000000DF
:1011100000000000000000000000000000000000CF
:1011200000000000000000000000000000000000BF
:10113000000000008080808040404040202020202F
:1011400010101010080F080804040404020408100A
:101150001020204040414224180000000000000000
:10116000000000000000000000000000000000007F
:10117000000001010100000000000000000000006C
:10118000000000000000000000000000000000005F
:10119000000000000000000000000000000000004F
:1011A000000000000000000000000000000000003F
:1011B000000000000000000000000000000000002F
:1011C000000000000000000000000000000000001F
:1011D000000000000000000000000000000000000F
:1011E00000000000000000000000000000000000FF
:1011F00000000000000000000000000000000000EF
:1012000000000000000000000000000000000000DE
:1012100000000000000000000000000000000000CE
:1012200000000000000000000000000000000000BE
:1012300000000000000000000000000000000000AE
:10124000000000000000000000000000000000801E
:101250008040404020202020201804020102040881
:1012600010202040408080000000000000000000AE
:10127000000000000000000000000000000000006E
:10128000000000000000000000000000000000005E
:10129000000000000000000000000000000000004E
:1012A000000000000000000000000000000000003E
:1012B000000000000000000000000000000000002E
:1012C00000060D31C1010101020202040402020103
:1012D000000000000000000080000040808040000E
:1012E0000030300000000001020404080810204013
:1012F000808080804040404020202020101010102E
:1013000008080808040404040202020201010101A1
:1013100000000000000000000000000000000000CD
:1013200000000000000000000000000000000000BD
:1013300000000000000000000000000000000000AD
:101340000000E0180601000000000000000000009E
:101350000080838340404040202121201010101045
:1013600008080808040404040408304080800000D1
:1013700001869860000000000000000000000000EE
:10138000000000000000000000000000000000005D
:10139000000000000000000000000000000000004D
:1013A000000000000000000000000000000000003D
:1013B000808080804040404020202020101010106D
:1013C000080F080804040404020408101020204038
:1013D000404142241800000000000000000000000E
:1013E00000000000000000000000000000000101FB
:1013F00001000000000000000000000000000000EC
:1014000000000000000000000000000000000000DC
:1014100000000000000000000000000000000000CC
:1014200000000000000000000000000000000000BC
:1014300000000000000000000000000000000000AC
:10144000000000000000000000000000000000009C
:10145000000000000000000000000000000000008C
:10146000000000000000000000000000000000007C
:10147000000000000000000000000000000000006C
:101480000000000000000000000000004A001E00F4
:101490001F00200021002200350014001A0008005F
:1014A00015001700290004221628072409210A43E1
:1014B00031001D001B00060019000500000052004D
:1014C000510021522B42AA004D0027002600250082
:1014D000240023002D00130012000C0018001C0033
:1014E000340033320F380E340D310B002E02380029
:1014F000370036001000110000004F00500022524B
:101500002C41A900000000000000000000000000C5
:1015100000000000000000000000000000001E02AB
:101520001F02200221022202000000000000000031
:101530000000000000000100010001002A004C0032
:101540000000000000000000000000000000300269
:101550002F020000000000003502270226022502AB
:1015600024022302000030022F02000000000000CD
:101570000000010001000100010001000000000066
:10158000000000000000000000000000000000005B
:101590000000000000001E001F00200021002200AB
:1015A000000000000000000000000000000001003A
:1015B0000100010001000100000000000000000027
:1015C000000000000000000000000000000000001B
:1015D0000000270026002500240023000000000052
:1015E00000000000000000000000010001000100F8
:1015F0002800A8000000000000000000000000001B
:101600000000000000000000000000000100E100F8
:10161000E300E200E0000100000000000000000024
:1016200000000000000001000100010001000100B5
:1016300000000000000000000000000000000000AA
:101640004E0052004B00000000004D004F005100C2
:1016500050004A00000000000000000000000000F0
:10166000000001000100010001007B7C000000007F
:101670000000000000000000000000001C700000DE
:10168000000000000000000000000000000000005A
:101690000000000000000000000000000000010049
:1016A0000100010001000000000000000000000037
:1016B000000000000000000000000000000000002A
:1016C000000000000000000000000000000000001A
:1016D000000000001B70000000000100010001007C
:1016E0000100000000DA0281FFD9F1DB20A4A62E60
:1016F000AF00A0C0D30000A1C8D30000AED580A821
:101700001F408D14200000AF00AE05010980A1012B
:10171000850319012AB700150126B7009501751038
:101720008100C0050C0901A101850419012AA0024C
:10173000150126A002950175108100C0050109065A
:10174000A101050719E029E7150025019508750194
:1017500081029501750881010507190029FF15000F
:1017600026FF009506750881000508190129051551
:10177000002501950575019102950175039101C040
:1017800009023B00020100A0FA0904000001030164
:10179000010009211101000122440007058103080D
:1017A00000010904010001030000000921110100EA
:1017B000012232000705820320000112010002000D
:1017C000000008D8042DEB0001010200010E034CBB
:1017D0000069006C00790035003800000010036CCF
:1017E0000069006C00690075006D00730000000462
:1017F0000309040000000000003E5B4F5B3E003E1A
:101800006B4F6B3E001C3E7C3E1C00183C7E3C181F
:10181000001C577D571C001C5E7F5E1C0000183C9E
:10182000180000FFE7C3E7FF00001824180000FFBE
:10183000E7DBE7FF0030483A060E00262979292623
:1018400000407F05050700407F05253F005A3CE723
:101850003C5A007F3E1C1C0800081C1C3E7F0014E4
:10186000227F2214005F5F005F5F0006097F017F17
:1018700000006689956A0060606060600094A2FF65
:10188000A2940008047E04080010207E20100008A6
:10189000082A1C0800081C2A0808001E1010101036
:1018A000000C1E0C1E0C0030383E383000060E3E78
:1018B0000E060000000000000000005F00000000B5
:1018C0000700070000147F147F1400242A7F2A12C7
:1018D00000231308646200364956205000000807B0
:1018E000030000001C224100000041221C00002ACD
:1018F0001C7F1C2A0008083E080800008070300089
:1019000000080808080800000060600000201008B7
:101910000402003E5149453E0000427F40000072F3
:1019200049494946002141494D33001814127F109E
:10193000002745454539003C4A49493100412111BC
:10194000090700364949493600464949291E000021
:101950000014000000004034000000000814224180
:101960000014141414140000412214080002015938
:101970000906003E415D594E007C1211127C007F29
:1019800049494936003E41414122007F4141413EA3
:10199000007F49494941007F09090901003E414151
:1019A0005173007F0808087F0000417F410000203C
:1019B00040413F01007F08142241007F40404040E9
:1019C000007F021C027F007F0408107F003E41411F
:1019D000413E007F09090906003E4151215E007F1A
:1019E000091929460026494949320003017F0103AC
:1019F000003F4040403F001F2040201F003F403834
:101A0000403F00631408146300030478040300617A
:101A100059494D4300007F41414100020408102014
:101A200000004141417F00040201020400404040A7
:101A30004040000003070800002054547840007F15
:101A40002844443800384444442800384444287F1B
:101A50000038545454180000087E09020018242449
:101A60001C78007F080404780000447D40000020BA
:101A700040403D00007F102844000000417F4000AE
:101A8000007C04780478007C08040478003844441E
:101A90004438007C1824241800182424187C007C66
:101AA000080404080048545454240004043F442407
:101AB000003C4040207C001C2040201C003C40306A
:101AC000403C004428102844004C9090907C0044F6
:101AD00064544C44000008364100000000770000C8
:101AE000000041360800000201020402003C2623E7
:101AF000263C000000000000808080800000000084
:101B00000080E070180C1830E080000010F8901091
:101B100030783010B8FC3810000000000000F8FCED
:101B2000F8000000000000000000000000001C9C05
:101B30001C00000000F8FCF80000000000001CFC85
:101B4000F8C000000000000080E0F87C1C000000ED
:101B5000F0FCFCFC1C1C1C1C1C1C1C1C00000000C1
:101B60000000C0F0F8381C1C1C1C1C1C3CF8F0E0E9
:101B700000E0F0F0F0E0ECEEF7F37020007C7C7C0D
:101B80007E007E7E7E7F7F7F000080C0E07E5B4F98
:101B90005BFEC00000C000DCD7DEDEDED7DC00C0AC
:101BA0000000000000000000000000000000000035
:101BB00000000000000000000FBCE08181818383F1
:101BC00082870C183060C000001FFE90B9FFBB91E7
:101BD000983C1811133F1100000000000000FFFFA7
:101BE000FF00000000000000000000000000FFFFF8
:101BF000FF00000000FFFFFF0000000000000000E9
:101C0000030F7FF8E080F0FC3F0F010000000000B0
:101C10003F3F3F1C1C1C1C1C3C78F8F0E08000007F
:101C20000000C3E7FF7E3C3878787070F8FFDF87EC
:101C3000000F1F3F7F7F7F7F7F3F1E0C001F1F1FF6
:101C40003F003F3F3F7F7F7F00307B7F7830202009
:101C500030787F3B0003000F7F0F0F0F7F0F0003D3
:101C60000000000000000000000000000000000074
:101C7000000000183C24666341C181808080808020
:101C80008081C14162386C4CC681818080808080B7
:101C900081C14362361C1800000000000000FFFFF5
:101CA000FFC0C0C0C0C0C0C0C0C0800000007FFF77
:101CB0007F000000007FFFFFC080000000E0E0C068
:101CC000C0C0E0F97F1F0700000000000000000016
:101CD00070F0E0E0C0C0C0C0E0F0F87F3F0F00004F
:101CE000000F3F7FF9E0E0C0C0C0C0C0E0F97F3F17
:101CF0001F000000000000000000000000000000C5
:101D000000000000000000000000000000000000D3
:101D100000000000000000000000000000000000C3
:101D200000000000000000000000000000000000B3
:101D30000000000011241FBECFEFDAE0DEBFCDBFF0
:101D400011E0A0E0B1E0E2E6FAE602C005900D92F3
:101D5000A63FB107D9F725E0A6EFB1E001C01D927B
:101D6000A43BB207E1F70E945B280C942F350C943A
:101D70000000FF920F931F93CF93DF932091B20542
:101D80003091B305225B3340A90144585D4F413087
:101D90005240E8F040E052E0421B530B6091B00328
:101DA0007091B103D901AE54BC4F420F531F821B37
:101DB000930BC1E0D0E02417350760F07093B103B6
:101DC0006093B003CDB7DEB7E5E00C944F314CE73C
:101DD00052E0E4CFFC01E20FF31FF490FD91FF16F7
:101DE000A1F08D0101501109F801F082F90115E00F
:101DF000F695E7951A95E1F78E0102C0000F111FC5
:101E0000EA95E2F7F801602B7F2B2F5F3F4FD3CF8E
:101E1000482F2091A80390916F0357E0291302C027
:101E200080E0089530E0529FF001539FF00D11249F
:101E3000E059FC4F8181681306C08081481303C0BC
:101E400085818111EECF2F5F3F4F2770E7CFFC01D7
:101E5000AC014B5F5F4F8FEF91E32191822728E028
:101E600030E087FF09C0880F892721503109C9F761
:101E7000E417F50791F70895880FF7CFE8EDF0E044
:101E800080818E7F80831092E2001092DA0010929F
:101E9000E100A0EEB0E08C9181608C9380818F771F
:101EA000808319BCA7EDB0E08C918E7F8C938081EC
:101EB0008F7E80831092500308952091E40030912A
:101EC000E50085E69091EC0090FF06C09091E80057
:101ED00090FF06C080E008959091E80092FDFACF4F
:101EE00090916503992391F0953091F09091EB00DA
:101EF00095FD10C04091E4005091E500241735078E
:101F000009F381509A01F1F684E0089582E0089582
:101F100083E0089581E008958091670387FF13C0EF
:101F20008091E80082FF06C08091E8008B77809363
:101F3000E80004C0809165038111F2CF089580917B
:101F400065038823D9F38091E80080FFF8CF809162
:101F5000E8008E77ECCF982F9093E900242F762F0E
:101F600050E0891731F07091EC002091ED00509114
:101F7000F00021FD07C09F5F973071F78093E90063
:101F800081E008953091EB003E7F3093EB0030917B
:101F9000ED003D7F3093ED003091EB0031603093E8
:101FA000EB007093EC002093ED005093F000209133
:101FB000EE0027FDE0CF80E00895B0E0A0E0E3EE82
:101FC000FFE00C943031C8EDD0E088818F7E8883AB
:101FD000E7EDF0E080818160808384E082BF81E072
:101FE0008093500388818E7F888302EE10E0F80191
:101FF00010821092DA0081EEC82ED12CF6011082E8
:1020000088818F77888388818068888388818F7DA5
:10201000888319BC109265031092660310925A03CC
:102020001092590390EEE92EF12CF70180818B7FFD
:10203000808388818160888342E060E080E00E9444
:10204000AB0FF60180818E7F8083F80180818160F3
:102050008083808188608083F70180818E7F808388
:10206000888180618883CDB7DEB7E8E00C944C317D
:10207000FC0180916D0390916E0386179707A0F085
:102080006115710529F49091E8009E779093E8001E
:1020900090E06115710551F4911108C08091E8003C
:1020A00082FF35C080E00895BC01F2CF80916503C6
:1020B0008823C9F18530C9F18091E80083FD31C0E2
:1020C0008091E80082FDEACF8091E80080FFE1CFB7
:1020D0002091F3008091F200322F282F61157105B5
:1020E00019F02830310558F091E02830310509F019
:1020F00090E02091E8002E772093E800CACF8191EC
:102100008093F100615071092F5F3F4FE7CF8091BD
:102110006503882341F0853041F08091E80083FF1A
:10212000BDCF81E0089582E0089583E00895089589
:1021300008952FB7F89460914C0370914D038091EE
:102140004E0390914F032FBF089580913901089558
:102150009C01FC0132969FEF80E04191461751F0BF
:102160009F3F19F4411101C0982F8F5F8630A9F766
:102170009F3F09F40895290F311D97FD3A95F90104
:1021800062830895A3E0B0E0E8ECF0E10C9436310E
:10219000209141033091420328173907A1F0909311
:1021A000420380934103E0913F03F0914003309755
:1021B00051F024E029839B838A830084F185E02DFC
:1021C000CE01019609952396E2E00C945231A3E0EA
:1021D000B0E0EDEEF0E10C94363120913D0330910A
:1021E0003E0328173907A1F090933E0380933D03E7
:1021F000E0913F03F0914003309751F023E02983B1
:102200009B838A830084F185E02DCE010196099598
:102210002396E2E00C94523180913B03882359F0DD
:10222000E0913F03F0914003309729F00190F08155
:10223000E02D0995089580E0089580E00895F894D0
:10224000E82FE295EF70F0E031A1282F2F7081E0A8
:1022500090E001C0880F2A95EAF7982F9095932374
:1022600091A392A1892B82A3789408950F931F9331
:1022700080913B03882329F00E9499101F910F91B0
:1022800008950E94991000915A0210915B022091CA
:102290005C0230915D02600F711F821F931FEECFB1
:1022A0009091030392FF10C041E0282F2471243045
:1022B00009F040E031E0282F2871283009F030E0A3
:1022C000431711F02CE0822793FF10C041E0282F24
:1022D0002471243109F040E031E0282F28712831A1
:1022E00009F030E0431711F02CE08227309104030D
:1022F00030FF10C051E0282F2171213009F050E04B
:1023000041E0282F2871283009F040E0541711F0DF
:1023100029E0822731FF10C041E0282F21712131AF
:1023200009F040E031E0282F2871283109F030E031
:10233000431711F029E0822794FD877E08958238A3
:102340009105B9F1B0F48133910509F47DC048F4E9
:102350008932910509F46DC08A32910509F479C07A
:1023600008958533910509F45FC08933910509F11A
:102370000895833E9105D9F138F4803E910529F105
:10238000823E910579F10895863E9105D9F1873E07
:10239000910509F43EC0843E910541F52091040366
:1023A00021FF24C08091030384FD19C087EE90E0D3
:1023B000089520910303237009F056C0209104036F
:1023C00023FF14C089E290E008952091030320FDCB
:1023D00038C03091040330FF09C024FF3FC090E0B3
:1023E00080E008952091030322FDF7CF0895209106
:1023F000030322FD36C03091040330FD35C024FDB7
:10240000EECFF4CF2091030323FFF0CF24FDE7CFDD
:10241000CDCF2091030323FD2AC03091040331FF67
:10242000EECF84EE90E008952091030325FDCACFFE
:1024300008952091030325FD1DC02091040323FF6F
:10244000D5CF89E390E008952091030326FD15C0C0
:1024500008952091030326FD13C0089583EE90E0B4
:10246000089582EE90E0089580EE90E0089586EE63
:1024700090E0089585E390E008958AE290E0089561
:1024800081E390E0B3CF7A30B8F46630A8F48530B9
:10249000B0F4E62FF0E096E0799FE00DF11D1124F5
:1024A0009CE3899FE00DF11D1124EE0FFF1FE457FF
:1024B000FB4E85919491089580E090E0089581E02D
:1024C000FCCF1F93CF93DF930E949F11EC01C115A6
:1024D00080E5D807E8F5C11580E4D80708F09BC06F
:1024E000C03ED10518F5CD3CD10508F081C0C83AF1
:1024F000D10570F4C53AD10508F072C0C130D105DC
:1025000011F118F0C430D105F0F4D0E0C0E01BC0E8
:10251000C33CD105D0F7C85AD0E0CC0FDD1FC6555B
:10252000DE4F0990D881C02DD4640DC0C11580E262
:10253000D80708F0CBC0C11581E0D80708F05AC011
:10254000C83ED10510F7CE01DF91CF911F910895BC
:10255000C03682E5D80718F5C03482E5D80708F000
:1025600069C0C03282E5D80708F05DC0C11582E5B8
:10257000D80708F493C02C2F2695269580E2289F33
:10258000900111248C2F8370C1E0D0E002C0CC0FE9
:10259000DD1F8A95E2F7C22BD32BDD68D4CFC03A7A
:1025A00082E5D80760F4C03882E5D80708F457C040
:1025B000CF71D0E0DC2FCC27C46FD06AC4CFC03C31
:1025C00082E5D80708F45EC0C03E82E5D80708F06F
:1025D0009CCFDC2FCC27CC27DF71C06FD06AB3CF64
:1025E000C55AD0E0C955DE4FC881D0E0D064ABCF2A
:1025F000D065A9CF8D2F0E945011182FCE01992799
:102600000E949F11C12FD0E0DC2FCC27CC27DF7197
:10261000C82BD92B98CFCE0199270E949F11CC2788
:10262000DF70D06AF5CFCF71D0E0DC2FCC27C16F3F
:10263000D06A89CF2C2F26952695277080E2289F77
:10264000900111248C2F8370C1E0D0E002C0CC0F28
:10265000DD1F8A95E2F7DC68C22BD32B74CF2C2FB9
:1026600026952695277080E2289F900111248C2FB3
:102670008370C1E0D0E002C0CC0FDD1F8A95E2F785
:10268000DA68EACF8C2F8F710E945011C82FD0E0EA
:10269000DC2FCC27CC27DF71D06255CF8C2F8F71E8
:1026A0000E94501155E0D695C7955A95E1F7CF7025
:1026B000D0E0DC2FCC27282F30E084FF05C044E099
:1026C000220F331F4A95E1F7D069C6CF8D2F8F7146
:1026D0000E945011182FCE0199270E949F11C12FDF
:1026E000D0E0DC2FCC27CC27DF71906291CF982FE0
:1026F00090958091350289238093350208958091C9
:10270000A80390916F03981301C008958F5F87709D
:10271000FACFB0E0A0E0EFE8F3E10C942F317C01B8
:102720000091D6021091D70280916A0290916B02BB
:10273000082B192BCFE0D0E0CC24C394D12CBC2E95
:10274000C6010C2E02C0880F991F0A94E2F780235D
:102750009123892B49F4219790F7B12C8B2DCDB77C
:10276000DEB7E9E00C944B31B7018C2F0E94431285
:102770000E946112019779F3F1CFCF93DF93EC01BF
:102780000E948913BE010E9443120E946112DF91D0
:10279000CF9108959A3078F5863068F5E82FF0E00B
:1027A00086E0989FE00DF11D11249E2F977083E025
:1027B000F695E7958A95E1F7EE0FFF1FEE0FFF1FE5
:1027C000EC5FFD4F50E040E080E0219130E0092EC9
:1027D00002C0369527950A94E2F721703327042E1C
:1027E00001C0220F0A94EAF7822B4F5F5F4F4430FB
:1027F000510559F7089580E008959A3098F586308C
:1028000088F5E82FF0E086E0989FE00DF11D112497
:102810008E2F877041E001C0440F8A95EAF783E06C
:10282000F695E7958A95E1F7EE0FFF1FEE0FFF1F74
:10283000EC5FFD4F30E020E070E05191DF01119737
:10284000CB01022E02C0969587950A94E2F781701B
:1028500081958527842385278C932F5F3F4F2430D4
:10286000310559F708959C0126703327263031052C
:1028700031F480619093D7028093D60208958F7EC1
:10288000F9CFE091D602F091D70221E030E0D901F2
:1028900002C0AA0FBB1F8A95E2F7CD01D90102C081
:1028A000AA0FBB1F6A95E2F7BD018A2B972B02C0C6
:1028B000220F331F4A95E2F7AF01482359238417AB
:1028C000950731F42E2B3F2BC9010E943314089534
:1028D000209530952E233F23F7CF21E030E002C032
:1028E000220F331F8A95E2F7209530958091D6020A
:1028F0009091D702822393230E94331408959091DC
:1029000031038095892380933103282F277069F440
:10291000891759F09091040392FF07C08695869518
:1029200086950E946D1410923103089521E030E0E5
:1029300002C0220F331F8A95E2F78091D602909150
:10294000D702822B932B0E94331408950F931F9369
:10295000CF93DF9301E010E0082E02C0000F111F9B
:102960000A94E2F7C0913603D09137039E012023E9
:102970003123232B01F590913103969596959695E9
:10298000891302C0109231030E9496140E9499107C
:102990006093320370933303809334039093350331
:1029A000C027D127D0933703C0933603DF91CF914F
:1029B0001F910F9108950E946D14F2CF90936B02B6
:1029C00080936A020895FC0124812223B9F080815A
:1029D00091810E94BD1392959F70963089F050F4BA
:1029E0009250923058F4803F19F030F4883E30F421
:1029F00081E008959A50F5CF843FD1F380E00895A7
:102A0000883EB0F3813FD1F7F3CFA6E0B0E0EBE032
:102A1000F5E10C94353126E0FC01DE0111960190C0
:102A20000D922A95E1F7FC01258189819A81222363
:102A300099F0662389F00E948913182F682F8981E5
:102A40009A810E94FD1369817A81812F0E9443122D
:102A50002696E3E00C9451310E94CA13182FF3CF4D
:102A60008091F8028531F8F48091010290E001969E
:102A700065E070E00E94C4318093010224E030E000
:102A8000281B390B4CE752E0249FC001259F900D75
:102A9000349F900D1124805E974F0E94B90E0895C7
:102AA00084EA95E0FACF8832D8F38091000290E072
:102AB0000196817099278093000221E030E0281B65
:102AC000390B4CE752E0249FC001259F900D349FA5
:102AD000900D112484559F4FE0CFCF93DF93682F43
:102AE00081E06A3019F06D3031F480E00E94EE151B
:102AF000DF91CF9108958091B2059091B30526E0C2
:102B0000FC01AAEAB3E001900D922A95E1F7603E3C
:102B100008F459C026E0FC0111922A95E9F7C0910A
:102B2000B205D091B30546E050E0BE018AEA93E0D9
:102B30000E944132892B59F1CE01825B93409C0166
:102B400045E0369527954A95E1F741E050E0BA0116
:102B500002C0660F771F2A95E2F79B016091B003D0
:102B60007091B103262B372B059665E096958795D6
:102B70006A95E1F7FA0102C0EE0FFF1F8A95E2F7AE
:102B8000CF01822B932B9093B1038093B0039E01CE
:102B90002C5A33404091A903642F70E0C9010E9470
:102BA0001231481B463010F4240F311D2115F2E07C
:102BB0003F0710F030E020E02E543C4F3093B30537
:102BC0002093B20595CFF6E06F9FB00111246D50B0
:102BD000784E46E050E00E945D31A1CFCF93382F70
:102BE000E091B205F091B305E25BF3402091A903B7
:102BF000622F70E0CF010E941231281B822F3323F5
:102C000061F066E00E94B831C82FC15010F4CF9136
:102C1000089580E20E946D15F8CF9F01280F311DA5
:102C20002115324018F080E0F0E0E0E08E0F9F2F99
:102C3000911D8E549C4F9093B3058093B205E7CFBE
:102C40008091350290912C02892B90912B0299232F
:102C500051F0892BEAEFF1E027E090E0215029F5CF
:102C6000911110922B028093F80148E050E06DE240
:102C700072E088EF91E00E944132892BA9F088E050
:102C8000E8EFF1E0ADE2B2E001900D928A95E1F754
:102C9000E0913F03F0914003309731F00280F381DF
:102CA000E02D88EF91E00995089531913323B1F239
:102CB0009F5FD4CF10923502EAEFF1E086E0DF01AA
:102CC0001D928A95E9F790E080E00E94E71090E07D
:102CD00080E00E94C21010922C020E9420160895DB
:102CE000882321F00E9477130E94201608958823DC
:102CF00039F090913502892B809335020E9420167D
:102D00000895882381F19CEF980F913A70F4E8EFD1
:102D1000F1E09281891301C01282319691E0EE3F79
:102D2000F907B9F70E942016089590E2980F98309D
:102D300050F4877091E001C0990F8A95EAF7892FC6
:102D40000E947713EFCF9BE5980F933028F490E023
:102D500080E00E94E7100895885A8B3120F490E0BB
:102D600080E00E94C2100895CF938823C1F0C82F3D
:102D70008CEF8C0F813A10F5AAEFB1E0E8EFF1E0AB
:102D800080E092E02D91C21761F08A179B07D1F77E
:102D90006C2F88EF91E00E94A8100E942016CF911E
:102DA00008958EEF91E02281C21301C01282319604
:102DB0008E179F07C1F70E942016EACF80E28C0F82
:102DC000883068F4C77021E030E001C0220FCA9556
:102DD000EAF780913502822B80933502DECFEBE556
:102DE000EC0FE33040F4F0E0E955FE4F808190E0D5
:102DF0000E94E710D4CFC85ACB3188F6EC2FF0E010
:102E0000EE0FFF1FE655FE4F808191810E94C21098
:102E1000C6CF0F931F93CF93DF93EC01FC0101907A
:102E20000020E9F78F0101501109C017D10728F0E0
:102E3000DF91CF911F910F91089589910E946D1597
:102E4000F4CF0F931F93CF93DF938B01EA019091FF
:102E50006503943061F58093E9008FEF9091E8006D
:102E6000815095FD06C095ED9A95F1F7000081110E
:102E7000F5CF8091E80085FF1AC00E945D0F811197
:102E800011C08091E80085FD06C08091E8008E7732
:102E90008093E800F2CFF80181918F018093F100D7
:102EA000219779F78091E8008E778093E800DF9191
:102EB000CF911F910F91089543E050E0BC0182E053
:102EC0000E9421170895CF93DF93EC0148E050E072
:102ED000BC0181E00E94211788E0FE01A1E5B3E07A
:102EE00001900D928A95E1F7DF91CF910895B0E0BE
:102EF000A0E0EDE7F7E10C942E317C015B016A0163
:102F00008091590201E010E08A3010F40AE010E0EC
:102F1000C1E0D0E0B501C701F6010995811104C0F7
:102F200021960C171D072CF4CDB7DEB7EAE00C9400
:102F30004A31CC9F9001CD9F300D300D112490E08F
:102F400080E045E34A95F1F7000001968217930768
:102F5000C1F7E0CF0E945A162FEF84E39CE0215086
:102F600080409040E1F700C0000088E19AE00FB691
:102F7000F894A895809360000FBE90936000FFCFF7
:102F8000AB0124E630E0BC0188E70E94C52E21E0B9
:102F9000892B09F020E0822F089580912F039091D2
:102FA0003003911103C091E089270895882369F0C7
:102FB00062E070E088E097E10E94C017811103C0D1
:102FC00080912F03089510922F0380912F03EBCF50
:102FD000CF93C0912F03809130038823D1F00E94BA
:102FE0009910605A75418F4F9F4F60932B037093D8
:102FF0002C0380932D0390932E03C11108C062E02F
:1030000070E086E097E10E94C017811105C0C09171
:103010002F038C2FCF91089581E080932F03F7CF5A
:103020009091040392FB222720F9281779F080FB66
:1030300092F990930403609103037091040384E078
:1030400090E00E94A23182E00E947F140895CF9206
:10305000DF92EF92FF921F93CF93DF9300D000D0C7
:10306000CDB7DEB7C0905502D0905602E09057021F
:10307000F09058020E9499106C197D098E099F09E1
:1030800011E0643671058105910570F10E943611D9
:103090006E5F7F4F8F4F9F4F69837A838B839C83B3
:1030A0008091110190911201855B9D4F409110011B
:1030B00050E04530510510F044E050E0BE016F5F34
:1030C0007F4F0E944E3282E090E00E949B30182F8A
:1030D000882351F00E949910609355027093560214
:1030E0008093570290935802812F0F900F900F906A
:1030F0000F90DF91CF911F91FF90EF90DF90CF90D5
:1031000008958F929F92AF92BF92EF92FF921F937A
:10311000CF93DF9300D000D000D0CDB7DEB77B01D6
:1031200090E080E00E949B30182F882309F464C04F
:103130004091030150E04115510511F041E050E08C
:103140006091040170910501655B7D4FCE0106968B
:103150000E944E328090470290904802A09049020F
:10316000B0904A020E949910681979098A099B094E
:10317000643671058105910538F48CE492E00E9473
:10318000270F9E818917C1F181E090E00E949B305A
:10319000182F882391F040910B0150E046305105E3
:1031A00010F045E050E060910C0170910D01655BFD
:1031B0007D4FCE0101960E944E328CE492E00E9437
:1031C000270F91E02E81281390E0192301F10E942E
:1031D000991060934702709348028093490290933C
:1031E0004A0285E0FE013196A2E4B2E001900D9220
:1031F0008A95E1F711E00BC085E0ECE4F2E0DE0136
:10320000119601900D928A95E1F71111EACF85E0B0
:10321000E2E4F2E0D70101900D928A95E1F7812F67
:1032200026960FB6F894DEBF0FBECDBFDF91CF91CB
:103230001F91FF90EF90BF90AF909F908F90089557
:1032400078941F920F920FB60F9211248F939F9331
:10325000AF93BF9380914C0390914D03A0914E0387
:10326000B0914F030196A11DB11D80934C03909323
:103270004D03A0934E03B0934F03BF91AF919F9125
:103280008F910F900FBE0F901F9018952FB7F89445
:1032900080914C0390914D03A0914E03B0914F0348
:1032A0002FBF089530914A0320914603321720F42E
:1032B0002091460320934A03609343037093440391
:1032C00080934503909346030E94461990935D03B3
:1032D00080935C0381E080935B030895AAE2B0E0F1
:1032E000E4E7F9E10C943231E7E6F3E08091F10094
:1032F000819323E0EF36F207C9F7809168038330AA
:1033000009F487C008F5813009F45EC0823009F401
:10331000E0C08091E80083FF1AC18091670390911B
:1033200068039A3008F013C1E92FF0E0E656F64E34
:103330000C9419327A1AA01AA71AA01AA71AF81A06
:103340001A1BA71AA31CB01C8A3009F4A7C08B3023
:1033500009F47CC08930E9F6809167038132C9F6AF
:1033600080916B0390916C03029798F68091E8002E
:10337000877F8093E8008091E80082FF45C08091BC
:10338000F3009091F200892798278927029731F45A
:103390008091F100813011F0863071F48091F1005C
:1033A00080933901609138017091390180913A011F
:1033B00090913B010E9452198091E8008B77809395
:1033C000E8000E948C0FA5CF80916703813A09F035
:1033D000A0CF8091E800877F8093E80080916B0305
:1033E00090916C03892B61F060E090E080E070E0E8
:1033F0000E9438108091E8008B778093E80089CF95
:1034000068E081E593E0F3CF809165038111B3CF4C
:1034100080CF80916703813A09F07BCF80916B0365
:1034200090916C03892B09F074CF8091E800877F1D
:103430008093E8008091E80080FFFCCF80913A0102
:103440008093F1008091E8008E77B9CF8091670377
:10345000813209F05ECF80916B0390916C03892BD0
:1034600009F057CF8091E800877F8093E8000E94A1
:103470008C0F81E090916903911101C080E08093ED
:103480003A01609138017091390180913A0190912F
:103490003B010E9452190E945A163BCF809167034C
:1034A000813209F036CF8091E800877F8093E80071
:1034B0000E948C0F80916A038093380160913801DB
:1034C0007091390180913A0190913B010E9452190B
:1034D00020CF80916703813A09F01BCF8091E800EB
:1034E000877F8093E8008091E80080FFFCCF809187
:1034F0003801A6CF803889F0823849F580916B0376
:103500008F70873020F58093E9008091EB0085FB78
:10351000882780F91092E90006C0809159039091A4
:103520005A03911182609091E800977F9093E80090
:103530008093F1001092F1008091E8008E7727C00F
:10354000282F2D7F21F48823A1F0823029F180914A
:10355000E80083FF0AC08091E800877F8093E8003D
:103560008091EB0080628093EB00AA96E6E00C94D9
:103570004E3180916903813051F7933009F080E03A
:1035800080935A031092E9008091E800877F80932E
:10359000E8000E948C0FDBCF809169038111F2CF8C
:1035A00080916B038F702FEF280F263080F6809369
:1035B000E9002091EB0020FFE5CF933031F48091BA
:1035C000EB0080628093EB00DDCF9091EB00906187
:1035D0009093EB0021E030E001C0220F8A95EAF7DA
:1035E0002093EA001092EA008091EB008860EACF15
:1035F0008111ADCF109169031F778091E30080782E
:10360000812B8093E3008091E800877F8093E8001E
:103610000E948C0F8091E80080FFFCCF8091E30036
:1036200080688093E30083E0111101C082E0809301
:1036300065038DCF8058823008F089CF809169036F
:1036400090916A038C3D43E09407A1F583E08A835F
:103650008AE289834FB7F894DE01139620E03EE0BA
:1036600051E2E32FF0E050935700E49120FF03C0B4
:10367000E295EF703F5FEF708E2F90E0EA30C0F080
:10368000C7968D939D932F5F243159F74FBF80913B
:10369000E800877F8093E8006AE270E0CE0101963F
:1036A0000E9438108091E8008B778093E8004FCF1C
:1036B000C096E7CF40916B0350916C03292F3327BD
:1036C0002330310509F448C080F52130310509F473
:1036D000EFC02230310509F03ACF0BE310E0E0E80B
:1036E000EE2EE7E1FE2E8091E800877F8093E800D0
:1036F00080916D0390916E030817190708F4C801B3
:1037000040E0009709F0E9C04111E7C08091E8006E
:1037100082FDC8CF80916503882321F2853011F2A4
:103720008091E80083FFF2CFBDCF2132310509F44B
:10373000B1C02232310509F00ACF4115510509F413
:10374000C5C04130510509F002CF02E310E03AE074
:10375000E32E37E1F32EC7CF99278130910509F485
:103760005AC040F0029709F460C010E000E0F12C6C
:10377000E12C09C0EFEEF7E1E4910E2F10E07FEEAF
:10378000E72E77E1F72E20916D0330916E03809143
:103790005F038F5F80935F03309364032093630321
:1037A0002230310509F04BC0909160039F5F9093E8
:1037B0006003833010F190916203923038F04091B1
:1037C0006103411163C0891709F45EC04091600331
:1037D000853008F447C02F3F310509F04BC09923CD
:1037E00009F44AC083E0423008F051C0411105C0DD
:1037F00080916103882309F447C00E944619909381
:103800005D0380935C0381E080935B0301151105E8
:1038100009F49DCE68CFEDEDF7E1E4910E2F10E0B5
:103820006DEDE62E67E1F62EAECFEDECF7E1E4911B
:103830000E2F10E05DECE52E57E1F52EA4CF2430DD
:10384000310531F4909161039F5F90936103B1CF93
:103850002F3F310509F0ADCF909162039F5F9093A8
:103860006203A7CF843031F49111C0CF423021F4EC
:1038700084E00DC09111BACF433009F0BECF8091E2
:103880006103813009F0B9CF81E001C082E080930B
:103890005E03B3CF4115510591F04130510509F058
:1038A00056CE09E010E04BEAE42E47E1F42E1BCFA0
:1038B00002E110E02BEBE22E27E1F22E14CF09E01B
:1038C00010E092E9E92E97E1F92E0DCF04E410E023
:1038D0008CE3E82E87E1F82E06CF209165032223A2
:1038E00009F4E0CE253009F4DDCE2091E80023FD77
:1038F000D9CE2091E80022FD09CF2091E80020FFD9
:1039000000CF2091F3003091F200232732272327A4
:10391000009719F02830310558F041E02830310582
:1039200009F040E02091E8002E772093E800E9CEEE
:10393000F70144914093F100FFEFEF1AFF0A01975E
:103940002F5F3F4FE5CF803809F001CE8091E8002E
:10395000877F8093E800809166038093F100ECCD2F
:103960008111F5CD10916903123008F0F0CD8091EE
:10397000E800877F8093E800109366030E948C0F15
:103980001123F9F084E08093650342E061EC81E06B
:103990000E94AB0F42E261EC82E00E94AB0F80918B
:1039A00065038430A1F482E080933B01609138018B
:1039B0007091390180913A0190913B010E94521916
:1039C000C6CD8091E30087FDDDCF81E0DCCF81E0D3
:1039D000EBCF1F920F920FB60F9211242F933F93AC
:1039E0004F935F936F937F938F939F93AF93BF9307
:1039F000CF93EF93FF93C091E900CF708091EC00DB
:103A00001092E9008091F000877F8093F000789415
:103A10000E946E191092E9008091F00088608093F6
:103A2000F000C093E900FF91EF91CF91BF91AF916A
:103A30009F918F917F916F915F914F913F912F91C6
:103A40000F900FBE0F901F9018951F920F920FB6F8
:103A50000F9211242F933F934F935F936F937F9314
:103A60008F939F93AF93BF93CF93EF93FF938091E7
:103A7000E10082FF09C08091E20082FF05C08091D1
:103A8000E1008B7F8093E1008091DA0080FF24C009
:103A90008091D80080FF20C08091DA008E7F8093D3
:103AA000DA008091D90080FFD2C080E189BD82E137
:103AB00089BD09B400FEFDCF81E08093650380914C
:103AC0005003811109C00E943E0F0E94DD0F8091BA
:103AD000E20084608093E2008091E10080FF24C0D6
:103AE0008091E20080FF20C08091E2008E7F809371
:103AF000E2008091E20080618093E2008091D80032
:103B000080628093D80019BC85E08093650383E0D0
:103B100080933B01609138017091390180913A01A5
:103B200090913B010E9452198091E10084FF39C0BD
:103B30008091E20084FF35C080E189BD82E189BDCA
:103B400009B400FEFDCF8091D8008F7D8093D8000E
:103B50008091E1008F7E8093E1008091E2008F7E72
:103B60008093E2008091E20081608093E200809186
:103B70006603882309F471C084E080936503809113
:103B80006503843009F471C081E080933B0160914A
:103B900038017091390180913A0190913B010E9466
:103BA00052198091E10083FF40C08091E20083FFC1
:103BB0003CC08091E100877F8093E10082E08093A8
:103BC0006503109266038091E1008E7F8093E1008F
:103BD0008091E2008E7F8093E2008091E20080611C
:103BE0008093E20042E060E080E00E94AB0F8091B1
:103BF000F00088608093F000C1E0C0933B016091C9
:103C000038017091390180913A0190913B010E94F5
:103C10005219C0933A016091380170913901809135
:103C20003A0190913B010E945219FF91EF91CF917F
:103C3000BF91AF919F918F917F916F915F914F91C4
:103C40003F912F910F900FBE0F901F90189519BCA8
:103C500010926503109250033FCF8091E30087FDDF
:103C600002C081E08ACF83E088CF82E08ECFEF92DE
:103C7000FF920F931F93CF93DF93C42FD22FFC019A
:103C800085818823A9F040933A030E9446199093B6
:103C9000390380933803C77081E001C0880FCA954B
:103CA000EAF70E947716CDB7DEB7E6E00C944E3106
:103CB00010913A03141338C0E0903803F0903903A0
:103CC0000E9446198E199F09883C910568F5C0E24B
:103CD000CD0F1D17C1F080E2810F883048F41770B6
:103CE00081E0012E01C0880F0A94EAF70E94701645
:103CF000C83008F581E09D2F977001C0880F9A9514
:103D0000EAF70E947716802F0E94B416802F0E9437
:103D10008116C83040F6D77081E001C0880FDA956F
:103D2000EAF70E947016BFCFC77081E001C0880F0C
:103D3000CA95EAF7F6CF802F0E94B416802F0E9412
:103D40008116B1CFB0E0A0E0E8EAFEE10C942F319B
:103D5000FC012481222309F45BC07C0161E00E9404
:103D60000515EC01F7012581FC01E851FC472223F0
:103D700009F405C59A9581159F4458F5CE019927F8
:103D8000AC01445051094432510518F08B970E97FD
:103D900088F4A0918702B0E0AA0FBB1FA457BD4FC3
:103DA0008D919C9111978F3F3FE7930719F00196F2
:103DB0008D939C93E730F10508F053C0EE51F14E1E
:103DC0000C941932131F191FF11E0D1F1F1F251FE1
:103DD0002B1FCE01CF3FD10599F290F290E080E009
:103DE000CFCF06E221EE41EE6AE17CE7C7010E94F7
:103DF000371E80913103877059F0F7018581882340
:103E000039F08091040382FF03C082E00E947F1496
:103E1000CDB7DEB7E9E00C944B3107E225EE45EE75
:103E20006BE17CE7E3CF06E221EE40EE68E17CE760
:103E3000DDCF07E225EE44EE69E17CE7D7CF06E26D
:103E400021EE42EE6CE17CE7D1CF07E225EE46EEB3
:103E50006DE17CE7CBCF08E221E045EE6EE17CE747
:103E6000C5CF10923A03CE019057839708F097C4BC
:103E700084E090E00E946E319093040380930303EA
:103E8000FE01E150F047E232F10508F026C0E55BA3
:103E9000F04E0C941932A71F1C20AF1F791F7D1FF5
:103EA000B31F811FB71FC31F8D1F1520911FC71F71
:103EB000951FCB1FF31F991FCF1FFA1F9F1FD51FE1
:103EC000DD1F851FBB1F891FBF1FA31FD91FE91F30
:103ED00003201320731FAB1F2320809103038160F5
:103EE0008093030395C0809104038860809304034A
:103EF0008FC0809103038260F3CF809103038460BD
:103F0000EFCF809103038860EBCF80910403816041
:103F1000EDCF809104038260E9CF8091030380613B
:103F2000DFCF809103038062DBCF80910303806445
:103F3000D7CF0E945A16809103038068D1CF809119
:103F400003038860DCCF809104038260E0CF80911E
:103F500003038E7FC5CF80910403877FC7CF8091F5
:103F600003038D7FBDCF809103038B7FB9CF8091F9
:103F70000303877FB5CF809104038E7FB7CF8091F5
:103F800004038D7FB3CF809103038F7EA9CF8091EF
:103F900003038F7DA5CF809103038F7BA1CF0E9468
:103FA0005A16809103038F779BCF80910303877FFD
:103FB000DCCF809104038D7FE0CF8091030382FBEF
:103FC000992790F921E0922790FB82F990FB83F9E1
:103FD00087CF80910403982F909591708E7F892BC5
:103FE00090FB81F983CF90910303892F8F7B96FFFC
:103FF000806476CF0E945A1690910303892F97FB15
:1040000087F980586DCF61E08EE090E00E948431A6
:10401000609103037091040384E090E00E94A23158
:104020000E945A16E6CE60E0EFCF90910303892FED
:104030008F7E94FF806154CF90910303892F8E7FF0
:1040400090FF81604DCF90910403892F877F93FF6C
:1040500088604CCF89E2E8EFF1E02EEF31E0928109
:10406000891301C0128231962E173F07C1F7ABC3E7
:1040700081E00E94961443E062E081E00E944114D6
:10408000B8CE81E00E946D14F6CF222309F4CCC390
:1040900082E0EFCF0E949910609332037093330354
:1040A00080933403909335038091D6029091D70288
:1040B0002091360330913703AC014095509542234F
:1040C0005323452B31F02823392330933703209392
:1040D0003603F7014581CB37FCE7DF0749F5442379
:1040E00009F487CE292F332721153105F9F49C01D6
:1040F00080E0A90174E0569547957A95E1F741155E
:10410000510511F08C5F9A01A90156954795569576
:1041100047954115510511F08E5F9A013695279507
:10412000232B09F08F5F0E94A61463CE88E0E1CFB5
:10413000C11522E5D207F0F4C11530E5D307E8F543
:10414000C11580E4D80708F055C0442309F46BC0BA
:10415000C330FCE7DF0709F4EBC008F0BFC0C115AE
:104160003CE7D30709F4C8C0C130DC4709F05BC0A5
:104170000E94AA17C03292E5D90738F3C034E2E5AD
:10418000DE0728F0CE01805C92458097F0F68C2FF8
:104190008F7121E030E0082E02C0220F331F0A94F5
:1041A000E2F7609136037091370326233723232BE0
:1041B00061F2442309F41DCEB6CFCE0125E09695D9
:1041C00087952A95E1F78F7021E030E0082E02C034
:1041D000220F331F0A94E2F7609136037091370380
:1041E00026233723232B09F4B0CF41119CCF109203
:1041F0003502E9C2F7018681807F09F0A6CF41111F
:1042000012C02D2F2F7081E090E002C0880F991FFF
:104210002A95E2F7209136033091370382239323C6
:10422000892B09F0E6CDF7018581C081D1818823F2
:1042300009F491C0CE010E948913182F682FCE0176
:104240000E94FD13BE01812F0E9443120E94611241
:10425000D82FC92FB82EF701D580C680C2948FE021
:10426000C82280913103877001F10D2DDD20F1F01E
:10427000892F807F803469F080E28D0F8830A8F02C
:10428000892F807E803229F4F1E0FD1770F4CC2074
:1042900061F08091040382FF08C082E00E947F14D5
:1042A00080913103877001E009F000E01C2F129526
:1042B0001F701C3008F0AFC0E12FF0E0EE59FE4D4A
:1042C0000C941932B021B021E621E62179220B228B
:1042D0000B220B229922262337233723CB359CE749
:1042E000D907B9F1CC35ECE7DE0749F1CA35DC472F
:1042F00009F099CF81E02AC00E945A162FEF34E3CB
:104300008CE0215030408040E1F700C0000087E79A
:1043100097E7909301088093000888E19AE00FB630
:10432000F894A895809360000FBE90936000FFCF33
:104330006FEF7FEF90E080E00E94A23119CF809173
:10434000040382FB882780F991E089270E941018D6
:104350006ACF80E0FBCFCE010E94CA13182F72CF24
:104360001C2F1F70C07F11F01295107F8D2FDD2044
:10437000B9F0112369F090E29D0F983010F0D1113F
:1043800009C080913502182B109335020E94201627
:104390008D2F3FC080912C02182B10932C02F6CF4A
:1043A0000E9481161123B9F1D05ED83010F0B110FF
:1043B00004C0812F0E94771306C0109580912C02B3
:1043C000182310932C020E94201625C01C2F1F704A
:1043D000C07FC03211F01295107FBB2051F021E058
:1043E000B21609F466C0DD2009F472C0CC20B1F128
:1043F000CFCF8091040382FD2DC0DD2029F1112350
:1044000039F080913502182B109335020E94201646
:1044100080E00E94B416002309F4C1C080913103EA
:1044200080FDBDC0F70115828695869586950E9410
:104430009614C7010E94A21E80913103869586952D
:1044400086950E946D14ABC080E00E9481161123F6
:1044500011F3AFCFDD2099F0C11004C0812F0E946D
:104460007716D9CF31E0C312D6CF80912B02912F8E
:104470009823191781F2182B10932B02CCCFC1105F
:10448000CACF812F0E94701690912B02812F892311
:1044900029F0812F8095892380932B02809103023C
:1044A000912F982309F4B7CF109518231093030286
:1044B000B2CFDD2029F085E08C1508F4ACCFCECF4B
:1044C00094E09C1508F4A7CF812F0E947016A3CF0B
:1044D000CC20D1F3D93349F4EFEFF7EE23E0E150EC
:1044E000F0402040E1F700C000008D2F0E948116AF
:1044F00092CF8C2F86958695837039F0813079F034
:104500001850143008F087CF48C08D2F9C2F93701F
:10451000D11002C080E090E00E94E7107CCF8D2F88
:104520009C2F9370D11002C080E090E00E94C210D6
:1045300072CF8C2F837009F045C0D1102EC04D2F43
:10454000429546954770440F440F2D2F2F7030E051
:10455000042E02C0220F331F0A94E2F790E080E09D
:10456000D4FF09C08FE090E002C0880F991F4A95E0
:10457000E2F780959095C695C695C370C230C9F094
:10458000A8F440916A0250916B02C13069F0822B0D
:10459000932B842395230E94DE140E940C1160E06B
:1045A000C7010E94051534CC242B352B822B932B6D
:1045B000F2CF822B932B20916A0230916B028227DB
:1045C0009327E9CF8695DD2011F08C2F8170882309
:1045D00021F34D2F429546954770440F440F2D2FE0
:1045E0002F7030E0042E02C0220F331F0A94E2F72E
:1045F00090E080E0D4FF09C08FE090E002C0880F17
:10460000991F4A95E2F780959095C695C695C37017
:10461000C23099F078F44091D6025091D702C1305F
:1046200039F0822B932B842395230E943314B5CF2A
:10463000242B352B822B932BF8CF822B932B20917D
:10464000D6023091D70282279327EFCFCF70DD209B
:1046500039F08C2F0E9496148D2F0E9477169DCFD3
:104660008D2F0E9470168C2F0E946D1496CF8D2F67
:1046700032EFB31609F43FC03B1580F090EFB91646
:10468000F1F0E1EFBE16A1F0DD2009F464C0CC200A
:1046900009F45EC08D2F0E94B41632CFF3EFBF161F
:1046A00089F124EFB212F0CF9091040392FD37C04C
:1046B0008C2F8F71DD2019F10E94961421CFDD20FF
:1046C000A9F034E03C1508F41BCFCF7181E090E0F5
:1046D00002C0880F991FCA95E2F72091D602309147
:1046E000D702822793270E9433140ACF85E08C15C6
:1046F00008F406CFEACF8C2F8F71DD20E9F20E94FB
:104700006D14FECE90E080E0DD2069F3CF7181E092
:1047100090E002C0880F991FCA95E2F7E4CFDD2030
:1047200061F08C2F8F7192FFC7CF98E0899F900125
:104730001124236020933103BFCF81E00E947F14B6
:10474000E1E0EC1508F0DCCE82E00E947F14D8CEC8
:104750008C2F8F71B1CFCC2079F0893349F4FFEFE2
:1047600027EE33E0F15020403040E1F700C0000078
:104770008D2F0E948116C4CE8C2F8F71C0CFE73051
:10478000F10508F41BCBC6318CE7D80709F043C00C
:1047900080910202882309F45DCC85E35CCCC631AC
:1047A000FCE7DF0799F4809135028A7A91E009F4F9
:1047B00090E09093020265E3811101C069E288EF05
:1047C00091E00E94A8100E94201613CBC7373CE747
:1047D000D30709F44DCCC8378CE7D80709F455CC7A
:1047E000CE01805E9245809708F054CC211152CCC6
:1047F000CF7181E090E0FC0102C0EE0FFF1FCA956F
:10480000E2F7EF016E2F83E090E00E948431CE0149
:104810000E94DE14EECAC7379CE7D90709F431CCF1
:10482000C837ECE7DE07E1F682E02CCCB0E0A0E090
:10483000ECE1F4E20C94313180912A02807F09F09E
:1048400050C080912902882309F44BC0E091A8034D
:1048500087E0D82E80916F038E1709F442C00E2F87
:1048600010E0ED9DF0011124E059FC4F8481882374
:10487000E9F1D09EE001D19ED00D1124FE01E05956
:10488000FC4F918180912502981330C090818091D6
:10489000240298132BC08581811128C0E280F38007
:1048A0008091260290912702E81AF90A60E084E2DA
:1048B00092E00E94051588ECE816F104B8F48091A6
:1048C0002A028F70806180932A02CA58DC4F888147
:1048D0008F708061888384E292E00E94A21E0E9411
:1048E0007F13CDB7DEB7E7E00C944D31F801319678
:1048F000E770B0CFA4E1B0E0E0E8F4E20C94293135
:104900008C0186E0F801DE011F9601900D928A95D8
:10491000E1F7F801F480E58084E2882E82E0982EA9
:104920008091280281112AC0F11003C0FF24F39462
:104930001CC0EE20F9F0C8010E94E314F82E882371
:10494000C9F087E0F801A4E2B2E001900D928A95E7
:10495000E1F780912802813031F480912402909116
:1049600025020E94BD130E9416248F2D6496EFE04D
:104970000C944531C8010E94A21ED8CFC280D380BA
:10498000B090290280912602909127023601681A80
:10499000790ABB2009F4F7C05080A18060E084E26E
:1049A00092E00E940515F8EC6F16710408F0A4C09F
:1049B000FF2009F4BBCF80912A02382F307F20914D
:1049C0002502F8019181311157C0FE2C291314C022
:1049D00020912402908129130FC0E11046C08F70EE
:1049E000806180932A0284E292E00E94A21E80915C
:1049F0002A02F8018683B9CFE11037C06A2D852DD0
:104A00000E94080F6A2D852D0E94080FE82E811143
:104A1000ACCF5F86A88A8F8598890E94BD13292F05
:104A200022952F70243058F49F70223080F0992303
:104A300091F0F8019681907F71F4FE2C96CF2A5068
:104A4000223068F0C8010E94A21EEB2CF6CF9923F9
:104A500011F0882391F3805E8830A0F7EECF803F7D
:104A600060F3815F833070F7E8CF80912A02816024
:104A700080932A02F12C79CF291315C020912402AA
:104A80009081291310C0E1100EC08683C8010E94D6
:104A9000A21E87E0F801A4E2B2E001900D928A958F
:104AA000E1F7FB2C62CFC8010E94E314882309F4CC
:104AB00061CFEE2009F45ECF80912A02803288F027
:104AC000209124023091250239872887DB86CA8607
:104AD000909128029C871D868E87CE0108960E94A1
:104AE000A21E87E0F801A4E2B2E001900D928A953F
:104AF000E1F70E9416241ACF80912A02982F907F06
:104B000051F484E292E00E94A21E87E0F401119227
:104B10008A95E9F7AFCFFF2009F408CF209125024D
:104B2000F8019181291311C0209124029081291349
:104B30000CC0E1100AC08683C8010E94A21E87E053
:104B4000F40111928A95E9F7ACCFC8010E94E314F1
:104B5000882309F40FCFEE2009F40CCF80912A02AC
:104B6000803208F4BECF20912402309125023A838E
:104B70002983DC82CB82909128029D831E828F83C1
:104B8000CE010196ACCF60E084E292E00E94051570
:104B9000F8EC6F16710408F0B8CFFF2009F4C6CE08
:104BA000FE2CEE2009F4E6CE90912502F8018181D9
:104BB00098132DC0909124028081981328C0809171
:104BC000260290912702C81AD90AF8ECCF16D10410
:104BD000A8F490912A0290FD11C0907F79F0809105
:104BE0002A02F8018683903F31F0982F907F905FE2
:104BF0008F70892B8683C8010E94A21E87E0F8016E
:104C0000A4E2B2E001900D928A95E1F7AECEC80120
:104C10000E94E314811165CF80912A028160809304
:104C20002A02C8010E94A21EA0CEABE1B0E0EBE1D7
:104C3000F6E20C9435314E8B5F8B688F798F8A8FBB
:104C40009B8F911110922C021D8A86E0FE017696B0
:104C5000DE011F9601900D928A95E1F78B898823DA
:104C600051F061E0CE010F960E94051561E0CE0182
:104C70000F960E94051587E0FE013F96DE0118960B
:104C800001900D928A95E1F7CE0108960E947A2450
:104C900081112AC087E0FE013896DE01119601904D
:104CA0000D928A95E1F78C858823F1F020916F03AE
:104CB00030E0C9010196877099274091A8034817F1
:104CC000190659F197E0929FD001939FB00D1124DE
:104CD000A059BC4FFE01319601900D929A95E1F7D3
:104CE00080936F030E947F1317E08091A803909137
:104CF0006F038917F9F0819FC001112480599C4FDF
:104D00000E947A248823B1F08091A80390E0019654
:104D1000877099278093A803E8CF0E945A161092B3
:104D20006F031092A80387E0E4E2F2E0DF011D9236
:104D30008A95E9F76B96E3E00C945131AFE0B0E06F
:104D4000E4EAF6E20C9429318E010F5F1F4F8AE0EE
:104D5000F80111928A95E9F782EEE82E81E0F82EAB
:104D6000680197EE692E91E0792EAA24A394B12CC4
:104D70003DEE832E31E0932EF70181917F018F3F2D
:104D800009F440C0F894E82FE295EF70F0E021A11B
:104D90008F70A50102C0440F551F8A95E2F7CA0122
:104DA000922F982B91A392A18095892382A3789426
:104DB00000C0E7EEF1E0512C31E021912F3F09F4E2
:104DC00089C0A22FA295AF70B0E090968C9190E030
:104DD0002F7002C0959587952A95E2F780FD7AC0DD
:104DE000832F582A330F8E169F0639F7F701319714
:104DF00080818F3F11F00E941F1150EA5A95F1F700
:104E0000F6015082FFEFCF1ADF0A6E147F0409F01B
:104E1000B3CF4AE050E0B8018EE592E00E94413203
:104E2000009741F02AE0F801AEE5B2E001900D9262
:104E30002A95E1F70091690210E004591D4F892B72
:104E400009F44AC081E080933A020E944619909387
:104E5000390280933802F12CE0903B03EE2009F4F4
:104E600098C06E012BE0C20ED11C85E0F6011192B4
:104E70008A95E9F7809159028A3008F053C041E8D9
:104E800058E1B601C8010E947717882309F46EC063
:104E900047E258E1B601C8010E947717882309F458
:104EA00065C0109259028091680290E045E050E0A0
:104EB000B60184599D4F0E94413221E02093410266
:104EC000892B09F046C0E12C8E2D8F292F96EFE01B
:104ED0000C94453180E085CFF0903A02FF2009F430
:104EE000BACFC0903802D09039020E9446198C196E
:104EF0009D09059708F4AFCF45E050E06EE572E0FC
:104F0000C8010E944132892B59F085E0EEE5F2E0BC
:104F1000D80101900D928A95E1F710923A029CCF48
:104F2000F12CFBCFA0903B02B0903C020E944619AE
:104F30008A199B09843F914008F0A1CF80914102DA
:104F4000882309F285E0F60111928A95E9F710921B
:104F50004102A0916802B0E0A459BD4F85E0FE0176
:104F60003B9601900D928A95E1F7AECF8091590260
:104F70008F3F19F08F5F80935902809159028A30D8
:104F800008F491CF0E94461990933C0280933B0213
:104F9000D5CF85E0F801ACE4B2E001900D928A959E
:104FA000E1F78CE492E00E94270F80934B028090FF
:104FB000510290905202A0905302B09054028091FE
:104FC0003D0290913E02A0913F02B09140028816AE
:104FD0009906AA06BB0609F477CF80923D0290920B
:104FE0003E02A0923F02B09240020E949910861A9F
:104FF000970AA80AB90A80925A0290925B02A0927C
:105000005C02B0925D0260CFA6E0B0E0EAE0F8E2B8
:105010000C9434310E9446198C0180913602909193
:1050200037028017910781F019821A820E9446196F
:10503000682F49815A81792F80E090E00E941526DF
:1050400010933702009336022696E4E00C94503118
:105050001F920F920FB60F9211248F939F93AF93CD
:10506000BF9380914B03811113C080914C039091A9
:105070004D03A0914E03B0914F034196A11DB11D68
:1050800080934C0390934D03A0934E03B0934F0332
:10509000BF91AF919F918F910F900FBE0F901F9076
:1050A0001895CF93DF93EC010E9446198C1B9D0B42
:1050B000DF91CF910895ADE0B0E0E1E6F8E20C9425
:1050C000263185B7806885BF85B7806885BF84B77E
:1050D000877F84BF0FB6F894A8958091600088619F
:1050E00080936000109260000FBE80E890E00FB6E1
:1050F000F89480936100909361000FBE81E08093EB
:105100003B01609138017091390180913A01909191
:105110003B010E9452198DE191E19093F701809338
:10512000F6010E943E0F0E94DD0F8091E200846034
:105130008093E200789480916503882399F0109120
:10514000E9001F708091EC0080FFA2C180E8182B5D
:105150001092E9008091E80083FD0E946E191F7093
:105160001093E90082E084BD93E095BD9AEF97BD6E
:1051700080936E0010925A0210925B0210925C02B1
:1051800010925D028091D80080618093D8002AE15E
:105190002A95F1F700C08091D900182F117080FD79
:1051A00004C00E943E0F1092650310933B031093BE
:1051B0003C031093180111110E94AF2F8091180128
:1051C0008091180190E0811101C095E090936902EF
:1051D00085E0891B8093680202EE11E0D8018D9171
:1051E0008D018F3F11F00E941F11B1E0073E1B0798
:1051F000A9F707EE11E0F80181918F018F3F11F0BF
:105200000E941F11F1E00D3E1F07A9F78AE0ECE6AE
:10521000F2E0DF01282F1D922A95E9F7EEE5F2E092
:10522000DF011D928A95E9F790E080E00E946E31DF
:10523000853E9E4F09F461C065EE7EEF90E080E010
:105240000E94A23160E082E090E00E94843181E01F
:1052500090E090936B0280936A0261E083E090E0BB
:105260000E94843160E074E184E090E00E94A23109
:1052700060E086E090E00E94843160E087E090E0AA
:105280000E94843140E050E0BA0188E090E00E9442
:10529000963160E083E290E00E94843160E08CE02F
:1052A00090E00E94843160E08DE090E00E948431C3
:1052B00019821A821B821C821D821E821F821886FE
:1052C00048E050E067E170E0CE0101960E94743141
:1052D00040E050E0BA018FE190E00E94963140E05A
:1052E00050E0BA018FE090E00E94963140E050E03B
:1052F000BA0183E190E00E94963182E090E00E9442
:1053000066318093760284E090E00E946E31909343
:1053100004038093030383E090E00E94663190E0F1
:105320000E94DE1480913B038111B4C082E080931F
:10533000250380E88093A9030E944D2E6BE070E066
:105340008BEF96E10E94C0178823E9F18091250335
:1053500065E070E081FDA0C086EF96E10E94C01775
:10536000882389F16DE070E084EE96E10E94C01719
:10537000882349F10E949910605A75418F4F9F4FC1
:1053800060932B0370932C0380932D0390932E0333
:10539000E2EBF3E080E092E0DF019C011D922150FE
:1053A0003040E1F7F093B305E093B2058FEF9FEF44
:1053B0009093B1038093B00381E080933003809396
:1053C0002F031092260380913B03811102C00E949B
:1053D000B22F89E191E09093400380933F0344E62C
:1053E000842E912CA12CB12C8091650310E4853082
:1053F00009F489C00E949E2607E712E03CE6E32EEE
:1054000032E0F32ED701F80191918D9121E832E03D
:105410002E173F0709F481C09817B1F340903B0362
:10542000D12CD701CD907D01F80151908F015C14F2
:1054300031F1712C662463945C24852D8621B9F0AA
:105440004420A9F07982DA820E9446199C838B83DA
:10545000F1E0FD8391E08C2D862109F490E09E839C
:1054600049815A816B817C818D810E9415267394BC
:10547000660C26E07212E1CFF8013197C082D39416
:105480003AE0D312CECF0E94361141E049874AC09C
:1054900080E05DCE80E04BCF81EF96E15FCF8091E1
:1054A0006503843029F10E94CD1710924B0348E127
:1054B00050E00FB6F894A895409360000FBE10938B
:1054C000600083B7817F846083BF83B7816083BFBF
:1054D0007894889583B78E7F83BF0FB6F894A8958C
:1054E00080916000886180936000109260000FBE20
:1054F0000E949E26ECE6F2E08191811166C352E0A3
:10550000E637F507C9F780916503853009F4C7CF01
:105510000E945A160E940C116DCF98137FCF0E94E3
:105520000428198600913B03002309F4EEC0C090C3
:105530008C02D0908D020D2C000CEE08FF0810910B
:105540002301212F30E0ECE8F2E081E090E0329698
:10555000281739070CF01DC140908802509089022D
:1055600060908A0270908B020E9499109B01AC019E
:10557000241935094609570929013A0139EC43161E
:1055800051046104710414F18091870290E0019646
:1055900069E170E00E94C43180938702880F991FEF
:1055A000FC01E457FD4F11821082812F183108F061
:1055B00087E18F5F809323010E9499106093880296
:1055C0007093890280938A0290938B0242E0C41602
:1055D000D104E104F1045CF1A0E6BAEEA701960162
:1055E0000E941F326B017C0158EC159F9001112421
:1055F000032E000C440B550B240D351D461D571D65
:10560000A5E0B0E00E941F329B01AC01C701B601CA
:105610000E94D831213F31054105510524F020EF8A
:1056200030E040E050E029013A0177FE03C0412C10
:10563000512C3201C0908302D0908402E090850208
:10564000F09086020E9499109B01AC012C193D0933
:105650004E095F0969017A0135E6C316D104E104F8
:10566000F10484F00E949910609383027093840285
:1056700080938502909386028091F8028093820243
:105680004092810210918202A0918102A11BBB0B6A
:10569000A70196010E942A32A50194010E94FA31C5
:1056A000120F1093F802C0903603D0903703C11444
:1056B000D10459F140903203509033036090340389
:1056C000709035030E94991064197509860997092D
:1056D00061367A4E81059105C0F0C094D0948091D6
:1056E000D6029091D7028C219D210E9433141092F2
:1056F0003703109236030E9499106093320370931F
:1057000033038093340390933503809130038823CF
:1057100009F402C2C0902703D09028030E944619C2
:105720008C199D09C29708F480C00E944619909375
:1057300028038093270382EB93E09093B305809333
:10574000B205002309F4ACC08091D6029091D70233
:105750008430910509F497C040F50097A1F16AE4FF
:1057600071E08230910589F19F938F9388E891E0F1
:105770009F938F931F9288E18F938EEB92E09F937C
:105780008F930E945E320FB6F894DEBF0FBECDBF7E
:1057900020C040815181052E000C660B770BC40E92
:1057A000D51EE61EF71E0196D2CE8031910509F472
:1057B0006DC08631910509F469C088309105A1F664
:1057C00068E671E002C06CE371E08EEB92E00E944B
:1057D00057328EEB92E00E94091781E00E94EE158D
:1057E0008091040380FF55C087E291E09F938F93DF
:1057F00084E291E09F938F9388E991E09F938F9348
:105800001F9288E18F9388ED92E09F938F930E947F
:105810005E320FB6F894DEBF0FBECDBF88ED92E0CA
:105820000E94091781E00E94EE158091B0039091CB
:10583000B103892B09F457C180913003882309F4FF
:1058400052C18091260381114EC10E94E817209118
:10585000B0033091B1032115310509F444C180E052
:1058600041E050E0082F10E02A01082E02C0440C4D
:10587000551C0A94E2F7B20162237323672B09F0E7
:1058800095C08F5FEFCF69E571E09FCF6AE771E068
:105890009CCF8DE291E09F938F938AE291E0AACF13
:1058A0008091F802882309F44AC00E94E8174090CA
:1058B000F4025090F5026090F6027090F7020E9498
:1058C00099106419750986099709693C7105810564
:1058D000910560F00E9499106093F4027093F502B4
:1058E0008093F6029093F7020E9430150E9499105F
:1058F0006093F0027093F1028093F2029093F302AE
:1059000082EB93E09093B3058093B2058091F80207
:105910001F928F938EE991E09F938F9389EF92E08E
:105920009F938F930E948E3289EF92E00E94091715
:105930000F900F900F900F900F900F9076CF409098
:10594000F0025090F1026090F2027090F3020E9417
:105950009910641975098609970961367A4E81058F
:10596000910518F00E94CD17CBCF4090F4025090D3
:10597000F5026090F6027090F7020E949910641987
:10598000750986099709693C71058105910508F437
:10599000B7CF0E9499106093F4027093F502809340
:1059A000F6029093F7020E943015AACF909125033A
:1059B00090FFF2C0880F880F880F809332011092F9
:1059C0003501895F8093330183E08093360124E6BB
:1059D00030E047E050E060E371E088E70E94812E0C
:1059E000892B09F080C0A80185E0440F551F8A95D6
:1059F000E1F78091250380FFE1C0E5E0F3E080E27C
:105A0000DF011D928A95E9F7E1EFF1E0FD87EC8770
:105A10006DEE71E0CC24C394AC85BD858D91BD87BE
:105A2000AC87FB012190BF01240E352E311C910162
:105A30002E543C4F190190E08B5F9C4FFC0107E016
:105A40009F01281B390BDC2C01C0DD0C2A95EAF7DD
:105A50003B862A86E12CAA85BB851D91BB87AA8738
:105A60001D21202F2E192770722E022E000C330BB1
:105A7000B12F01C0BB0F7A94EAF77B2E31952195A7
:105A800031092770332701C016952A95EAF7712A44
:105A90001081712A7082E39428E0E212DCCF015079
:105AA00031960F3F69F685EF91E0AC85BD858A1789
:105AB0009B0709F0B1CF04E610E020E230E045E0BA
:105AC00053E060E488E70E940B2F892B61F4409437
:105AD00050948091B0039091B10348225922509282
