:100000000C943C0B0C94590B0C94590B0C943631FA
:100010000C94590B0C94590B0C94590B0C94590BD0
:100020000C94590B0C94590B0C94EC1B0C94B01BB6
:100030000C94E7280C94590B0C94590B0C94590B05
:100040000C94590B0C94590B0C94590B0C94590BA0
:100050000C94590B0C94E7170C94590B0C94590BF6
:100060000C94590B0C94590B0C94590B0C94590B80
:100070000C94590B0C94590B0C94590B0C94590B70
:100080000C94590B0C94590B0C94590B0C94590B60
:100090000C94590B0C94590B0C94590B0C94590B50
:1000A0000C94590B0C94590B0C94590B0000000044
:1000B0000000000000000000000000000000000040
:1000C0000000000000000000000000000000000030
:1000D0000000000000000000000000000000000020
:1000E0000000000000000000000000000000808010
:1000F00080404020201008040204081010202040F6
:1001000040808000000000000000000000000000AF
:1001100000000000000000000000000000000000DF
:1001200000000000000000000000000000000000CF
:1001300000000000000000000000000000000000BF
:1001400000000000000000000000000000000000AF
:100150000000000000000000000000000000003F60
:10016000C1010102020404040402020101010000B1
:10017000000000008000004080804000003030001F
:10018000000000010264180412C2CA2488F08080B2
:10019000404040402020202010101010080808087F
:1001A0000404040402020202010101010000000033
:1001B000000000000000000000000000000000003F
:1001C000000000000000000000000000000000002F
:1001D0000000000000000000000000000000E01827
:1001E0000601000000000000000000000080838382
:1001F000404040402021212010101010080808081D
:1002000004040404020202020101010100000000D2
:1002100000000000000000000000000000000000DE
:1002200000000000000000000000000000000000CE
:1002300000000000000000000000000000000000BE
:1002400000000000000000000000000080808080AE
:10025000404040402020202010101010080F0808B7
:1002600004040404020408101020204040414224E9
:1002700098C088888C9C1C1E0E06000000000000A0
:10028000000000000000000000000000000000006E
:10029000000000000000000000000000000000005E
:1002A000000000000000000000000000000000004E
:1002B000000000000000000000000000000000003E
:1002C000000000000000000000000000000000002E
:1002D000000000000000000000000000000000001E
:1002E000000000000000000000000000000000000E
:1002F00000000000000000000000000000000000FE
:1003000000000000000000000000000000000000ED
:1003100000000000000000000000000000000000DD
:1003200000000000000000000000000000000000CD
:1003300000000000000000000000000000000000BD
:1003400000000000000000000000000000000000AD
:10035000000000000000000000000000000000009D
:10036000000000000000000000008080804040206D
:100370002010080402040810102020404080800053
:10038000000000000000000000000000000000006D
:10039000000000000000000000000000000000005D
:1003A000000000000000000000000000000000004D
:1003B000000000000000000000000000000000003D
:1003C000000000000000000000000000000000002D
:1003D00000000000000000000000003FC101010219
:1003E0000204844444428201010100000000000034
:1003F000800000408080400000303000000000019C
:100400000204040808102040808080804040404062
:1004100020202020101010100808080804040404EC
:1004200002020202010101010000000000000000C0
:1004300000000000000000000000000000000000BC
:1004400000000000000000000000000000000000AC
:1004500000000000000000000000E018060100009D
:100460000C03000218190005FE80838340404040C1
:10047000202121201010101008080808040404048A
:100480000408304080800000018698600000000071
:10049000000000000000000000000000000000005C
:1004A000000000000000000000000000000000004C
:1004B000000000000000000000000000000000003C
:1004C000000000000000000080808080404040402C
:1004D0002020202010101010080F08080404040425
:1004E0000202020201010101000000000000000000
:1004F0000000000000000000000000060F0F0703CE
:100500000361F0F8FC600101013C78F8F070000034
:1005100000000000000000000000000000000000DB
:1005200000000000000000000000000000000000CB
:1005300000000000000000000000000000000000BB
:1005400000000000000000000000000000000000AB
:10055000000000000000000000000000000000009B
:10056000000000000000000000000000000000008B
:10057000000000000000000000000000000000007B
:10058000000000000000000000000000000000006B
:10059000000000000000000000000000000000005B
:1005A000000000000000000000000000000000004B
:1005B000000000000000000000000000000000003B
:1005C000000000000000000000000000000000002B
:1005D000000000000000000000000000000000001B
:1005E00000000000000080808040402020100804AF
:1005F000020408101020204040808000000000000D
:1006000000000000000000000000000000000000EA
:1006100000000000000000000000000000000000DA
:1006200000000000000000000000000000000000CA
:1006300000000000000000000000000000000000BA
:1006400000000000000000000000000000000000AA
:10065000000000000000003FC101010202048444C8
:1006600044428201010100000000000080000040BF
:100670008080400000303000000000010264180457
:1006800012C2CA2488F080804040404020202020B0
:1006900010101010080808080404040402020202E2
:1006A0000101010100000000000000000000000046
:1006B000000000000000000000000000000000003A
:1006C000000000000000000000000000000000002A
:1006D000000000000000E018060100000C0300020A
:1006E00018190005FE8083834040404020212120CE
:1006F0001010101008080808040404040202020282
:1007000001010101000000000000000000000000E5
:1007100000000000000000000000000000000000D9
:1007200000000000000000000000000000000000C9
:1007300000000000000000000000000000000000B9
:100740000000000080808080404040402020202029
:1007500010101010080F080804040404020202021A
:100760000101010100000000000000000000000085
:100770000000000000000000000000000000000079
:100780000000000000000000000000000000000069
:100790000000000000000000000000000000000059
:1007A0000000000000000000000000000000000049
:1007B0000000000000000000000000000000000039
:1007C0000000000000000000000000000000000029
:1007D0000000000000000000000000000000000019
:1007E0000000000000000000000000000000000009
:1007F00000000000000000000000000000000000F9
:1008000000000000000000000000000000000000E8
:1008100000000000000000000000000000000000D8
:1008200000000000000000000000000000000000C8
:1008300000000000000000000000000000000000B8
:1008400000000000000000000000000000000000A8
:100850000000000000000000000000000000008018
:10086000804040402020202020180402010204087B
:1008700010202040408080000000000000000000A8
:100880000000000000000000000000000000000068
:100890000000000000000000000000000000000058
:1008A0000000000000000000000000000000000048
:1008B0000000000000000000000000000000000038
:1008C0000000000000000000000000000000000028
:1008D0000000003FC10101020204040404020201FD
:1008E0000000000000000000800000408080400008
:1008F000003030000000000102040408081020400D
:100900008080808040404040202020201010101027
:10091000080808080404040402020202010101019B
:1009200000000000000000000000000000000000C7
:1009300000000000000000000000000000000000B7
:1009400000000000000000000000000000000000A7
:100950000000E01806010000000000000000000098
:10096000008083834040404020212120101010103F
:1009700008080808040404040408304080800000CB
:1009800001869860000000000000000000000000E8
:100990000000000000000000000000000000000057
:1009A0000000000000000000000000000000000047
:1009B0000000000000000000000000000000000037
:1009C0008080808040404040202020201010101067
:1009D000080F080804040404020408101020204032
:1009E0004041422418000000000000000000000008
:1009F00000000000000000000000000000000101F5
:100A000001000000000000000000000000000000E5
:100A100000000000000000000000000000000000D6
:100A200000000000000000000000000000000000C6
:100A300000000000000000000000000000000000B6
:100A400000000000000000000000000000000000A6
:100A50000000000000000000000000000000000096
:100A60000000000000000000000000000000000086
:100A70000000000000000000000000000000000076
:100A80000000000000000000000000000000000066
:100A90000000000000000000000000000000000056
:100AA0000000000000000000000000000000000046
:100AB0000000000000000000000000000000000036
:100AC0000000000000000000000000000000000026
:100AD0000000000000000000000000000000808016
:100AE00080804040201008040204081020408080CC
:100AF00000000000000000000000000000000000F6
:100B000000000000000000000000000000000000E5
:100B100000000000000000000000000000000000D5
:100B200000000000000000000000000000000000C5
:100B300000000000000000000000000000000000B5
:100B40000000000000000000000000000000007E27
:100B500082020204040808080804040201010000DB
:100B600000000000000000800000800000606000C5
:100B700001010204040808101020204080808080B9
:100B80004040404020202020101010100808080885
:100B90000404040402020202010101010000000039
:100BA0000000000000000000000000000000000045
:100BB0000000000000000000000000000000000035
:100BC0000000000000000000000000000000C03035
:100BD0000C0300000000000000000000008086867A
:100BE000404040402122222011111010080808081E
:100BF00004040404040830408080000001869860EA
:100C000000000000000000000000000000000000E4
:100C100000000000000000000000000000000000D4
:100C200000000000000000000000000000000000C4
:100C300000000000000000000000000080808080B4
:100C4000404040402020202010101010080F0808BD
:100C500004040404020408101020204040414224EF
:100C6000180000000000000000000000000000006C
:100C70000000000000000000000001010100000071
:100C80000000000000000000000000000000000064
:100C90000000000000000000000000000000000054
:100CA0000000000000000000000000000000000044
:100CB0000000000000000000000000000000000034
:100CC0000000000000000000000000000000000024
:100CD0000000000000000000000000000000000014
:100CE0000000000000000000000000000000000004
:100CF00000000000000000000000000000000000F4
:100D000000000000000000000000000000000000E3
:100D100000000000000000005C007C005B005D0043
:100D20004A001E001F002000210022003500140090
:100D30001A0008001500170029210422162807248C
:100D400009210A43E1001D001B00060019000500EF
:100D500000005200510021522B4201574D00270044
:100D600026002500240023002D00130012000C0093
:100D700018001C00340033320F380E340D310B00D4
:100D80002E003800370036001000110000004F0020
:100D9000500022522C4100570000000000000000CB
:100DA0000000000000000000000000000000000043
:100DB00000001E021F02200221022202437E0000C8
:100DC0000000000000000000000001000100010020
:100DD0002A004C000000000000000000000000009D
:100DE0000000407E417E0000000000003502270226
:100DF0002602250224022302000030022F020000F6
:100E00000000000000000100010001000100AE0030
:100E100000000000000000000000000000001E00B4
:100E20001F00200021002200000000000000000040
:100E300000000000427E00000000000000000000F2
:100E4000000001000100010001000100000000009D
:100E50000000000000000000000027002600250020
:100E600024002300000000004F00520051005000F9
:100E70000000000000000000000000000000010071
:100E8000010001002800A800000000000000000090
:100E90000000000000000000000000000000000052
:100EA0000100E100E300E200E0000100E1000000D9
:100EB000000000000000000000000100010001002F
:100EC0000100010000000000000000000000000020
:100ED000000000004D004B004E004A0000000000E2
:100EE0004F005200510050000000000000000000C0
:100EF00000000000000001000100010001007B7CF7
:100F000000000000000000000000000000000000E1
:100F10001C70000000000000000000000000000045
:100F200000000000000000000000000000000000C1
:100F300000000100010001000100000000000000AD
:100F400000000000000000000000000000000000A1
:100F50000000000000000000000000000000000091
:100F600000000000000000001B70000000000100F5
:100F7000010001000100000000DA0281FFD9F1DB6D
:100F800020A4A62EAF00A0C0D30000A1C8D30000AB
:100F9000AED580A81F408D14200000AF00AE050123
:100FA0000980A101850319012AB700150126B700A0
:100FB000950175108100C0050C0901A10185041976
:100FC000012AA002150126A002950175108100C01A
:100FD00005010906A101050719E029E7150025010A
:100FE00095087501810295017508810105071900B1
:100FF00029FF150026FF00950675088100050819D0
:1010000001290515002501950575019102950175C8
:10101000039101C009023B00020100A0FA0904008B
:101020000001030101000921110100012244000710
:101030000581030800010904010001030000000903
:101040002111010001223200070582032000011254
:1010500001000200000008D8042DEB00010102008D
:10106000010E034C0069006C007900350038000067
:101070000010036C0069006C00690075006D00735E
:10108000000000040309040000000000003E5B4F64
:101090005B3E003E6B4F6B3E001C3E7C3E1C0018CE
:1010A0003C7E3C18001C577D571C001C5E7F5E1C5C
:1010B0000000183C180000FFE7C3E7FF00001824F9
:1010C000180000FFE7DBE7FF0030483A060E002675
:1010D0002979292600407F05050700407F05253F27
:1010E000005A3CE73C5A007F3E1C1C0800081C1CB0
:1010F0003E7F0014227F2214005F5F005F5F0006C6
:10110000097F017F00006689956A00606060606009
:101110000094A2FFA2940008047E04080010207E20
:1011200020100008082A1C0800081C2A0808001EB5
:1011300010101010000C1E0C1E0C0030383E383001
:1011400000060E3E0E060000000000000000005FDA
:10115000000000000700070000147F147F14002423
:101160002A7F2A1200231308646200364956205051
:1011700000000807030000001C224100000041227B
:101180001C00002A1C7F1C2A0008083E08080000DA
:101190008070300000080808080800000060600047
:1011A000002010080402003E5149453E0000427FE5
:1011B0004000007249494946002141494D33001819
:1011C00014127F10002745454539003C4A494931F2
:1011D000004121110907003649494936004649496D
:1011E000291E000000140000000040340000000030
:1011F000081422410014141414140000412214088D
:10120000000201590906003E415D594E007C121151
:10121000127C007F49494936003E41414122007F0E
:101220004141413E007F49494941007F0909090187
:10123000003E41415173007F0808087F0000417F54
:101240004100002040413F01007F08142241007FFF
:1012500040404040007F021C027F007F0408107F56
:10126000003E4141413E007F09090906003E4151CF
:10127000215E007F091929460026494949320003A9
:10128000017F0103003F4040403F001F2040201FDE
:10129000003F4038403F00631408146300030478A3
:1012A0000403006159494D4300007F414141000260
:1012B0000408102000004141417F000402010204A3
:1012C0000040404040400000030708000020545404
:1012D0007840007F2844443800384444442800388B
:1012E0004444287F0038545454180000087E0902F2
:1012F000001824241C78007F080404780000447D32
:101300004000002040403D00007F102844000000C5
:10131000417F4000007C04780478007C0804047855
:10132000003844444438007C18242418001824242D
:10133000187C007C08040408004854545424000419
:10134000043F4424003C4040207C001C2040201CE2
:10135000003C4030403C004428102844004C909011
:10136000907C004464544C44000008364100000066
:10137000007700000000413608000002010204026C
:10138000003C2623263C0000000000008080808076
:10139000000000000080E070180C1830E0800000B1
:1013A00010F8901030783010B8FC381000000000B1
:1013B0000000F8FCF8000000000000000000000041
:1013C00000001C9C1C00000000F8FCF8000000005D
:1013D00000001CFCF8C000000000000080E0F87C69
:1013E0001C000000F0FCFCFC1C1C1C1C1C1C1C1C1D
:1013F000000000000000C0F0F8381C1C1C1C1C1C65
:101400003CF8F0E000E0F0F0F0E0ECEEF7F37020F4
:10141000007C7C7C7E007E7E7E7F7F7F000080C0A3
:10142000E07E5B4F5BFEC00000C000DCD7DEDEDE8E
:10143000D7DC00C000000000000000000000000039
:101440000000000000000000000000000FBCE08170
:101450008181838382870C183060C000001FFE905A
:10146000B9FFBB91983C1811133F11000000000018
:101470000000FFFFFF00000000000000000000006F
:101480000000FFFFFF00000000FFFFFF0000000062
:1014900000000000030F7FF8E080F0FC3F0F010028
:1014A000000000003F3F3F1C1C1C1C1C3C78F8F057
:1014B000E08000000000C3E7FF7E3C387878707061
:1014C000F8FFDF87000F1F3F7F7F7F7F7F3F1E0C6E
:1014D000001F1F1F3F003F3F3F7F7F7F00307B7F0C
:1014E0007830202030787F3B0003000F7F0F0F0FF4
:1014F0007F0F00030000000000000000000000005B
:1015000000000000000000183C24666341C1818097
:10151000808080808081C14162386C4CC68181802E
:101520008080808081C14362361C1800000000006A
:101530000000FFFFFFC0C0C0C0C0C0C0C0C080006E
:1015400000007FFF7F000000007FFFFFC0800000E1
:1015500000E0E0C0C0C0E0F97F1F0700000000000D
:101560000000000070F0E0E0C0C0C0C0E0F0F87F14
:101570003F0F0000000F3F7FF9E0E0C0C0C0C0C0D7
:10158000E0F97F3F1F0000000000000000000000A5
:10159000000000000000000000000000000000004B
:1015A000000000000000000000000000000000003B
:1015B000000000000000000000000000000000002B
:1015C000000000000000000000000000000000001B
:1015D000000000000000000000000000000000000B
:1015E00000000000000000000000007E0F00D4FF9B
:1015F000FFFFC70000007800000000000000002A84
:101600002B28000000000000000000000000000087
:10161000000029000000002C1E3420212224342642
:1016200027252E362D3738271E1F2021222324253B
:10163000263333362E37381F0405060708090A0BF0
:101640000C0D0E0F101112131415161718191A1B62
:101650001C1D2F3130232D350405060708090A0B00
:101660000C0D0E0F101112131415161718191A1B42
:101670001C1D2F3130354C0011241FBECFEFDAE096
:10168000DEBFCDBF12E0A0E0B1E0EEE9FCE602C0B3
:1016900005900D92A234B107D9F726E0A2E4B2E09A
:1016A00001C01D92AA30B207E1F70E941A290C94DA
:1016B0004D360C940000FF920F931F93CF93DF934E
:1016C000209108063091090628503440A901445859
:1016D0005D4F41305240E8F040E052E0421B530B76
:1016E0006091060470910704D901A85FBB4F420FB7
:1016F000531F821B930BC1E0D0E02417350760F025
:101700007093070460930604CDB7DEB7E5E00C9450
:1017100090324CE752E0E4CFFC01E20FF31FF4906B
:10172000FD91FF16A1F08D0101501109F801F08221
:10173000F90115E0F695E7951A95E1F78E0102C0DB
:10174000000F111FEA95E2F7F801602B7F2B2F5F46
:101750003F4FD3CF482F2091FE039091C50357E010
:10176000291302C080E0089530E0529FF001539F9A
:10177000F00D1124EA53FC4F8181681306C080816B
:10178000481303C085818111EECF2F5F3F4F277033
:10179000E7CFFC01AC014B5F5F4F8FEF91E32191ED
:1017A000822728E030E087FF09C0880F8927215071
:1017B0003109C9F7E417F50791F70895880FF7CFB6
:1017C000E8EDF0E080818E7F80831092E20010923D
:1017D000DA001092E100A0EEB0E08C9181608C9371
:1017E00080818F77808319BCA7EDB0E08C918E7FCC
:1017F0008C9380818F7E80831092A6030895209120
:10180000E4003091E50085E69091EC0090FF06C081
:101810009091E80090FF06C080E008959091E80064
:1018200092FDFACF9091BB03992391F0953091F0FE
:101830009091EB0095FD10C04091E4005091E500BF
:101840002417350709F381509A01F1F684E00895D1
:1018500082E0089583E0089581E008958091BD03BA
:1018600087FF13C08091E80082FF06C08091E800E6
:101870008B778093E80004C08091BB038111F2CF85
:1018800008958091BB038823D9F38091E80080FFFD
:10189000F8CF8091E8008E77ECCF982F9093E900F5
:1018A000242F762F50E0891731F07091EC002091B1
:1018B000ED005091F00021FD07C09F5F973071F758
:1018C0008093E90081E008953091EB003E7F3093F2
:1018D000EB003091ED003D7F3093ED003091EB0057
:1018E00031603093EB007093EC002093ED00509347
:1018F000F0002091EE0027FDE0CF80E00895B0E0F9
:10190000A0E0E5E8FCE00C947132C8EDD0E08881FD
:101910008F7E8883E7EDF0E080818160808384E0C2
:1019200082BF81E08093A60388818E7F888302EE48
:1019300010E0F80110821092DA0081EEC82ED12C4E
:10194000F601108288818F778883888180688883F8
:1019500088818F7D888319BC1092BB031092BC03D1
:101960001092B0031092AF0390EEE92EF12CF70124
:1019700080818B7F808388818160888342E060E002
:1019800080E00E944D0CF60180818E7F8083F801FB
:10199000808181608083808188608083F70180817D
:1019A0008E7F8083888180618883CDB7DEB7E8E051
:1019B0000C948D32FC018091C3039091C40386176F
:1019C0009707A0F06115710529F49091E8009E77C2
:1019D0009093E80090E06115710551F4911108C0F1
:1019E0008091E80082FF35C080E00895BC01F2CF0D
:1019F0008091BB038823C9F18530C9F18091E8004B
:101A000083FD31C08091E80082FDEACF8091E8003B
:101A100080FFE1CF2091F3008091F200322F282F38
:101A20006115710519F02830310558F091E0283022
:101A3000310509F090E02091E8002E772093E8002E
:101A4000CACF81918093F100615071092F5F3F4FA0
:101A5000E7CF8091BB03882341F0853041F080912E
:101A6000E80083FFBDCF81E0089582E0089583E020
:101A70000895089508952FB7F8946091A203709186
:101A8000A3038091A4039091A5032FBF0895809193
:101A90006A0108959C01FC0132969FEF80E041911C
:101AA000461751F09F3F19F4411101C0982F8F5FE5
:101AB0008630A9F79F3F09F40895290F311D97FD3E
:101AC0003A95F90162830895A3E0B0E0EAE6FDE00B
:101AD0000C94773220919703309198032817390797
:101AE000A1F09093980380939703E0919503F09170
:101AF0009603309751F024E029839B838A830084E6
:101B0000F185E02DCE01019609952396E2E00C9433
:101B10009332A3E0B0E0EFE8FDE00C94773220913F
:101B200093033091940328173907A1F090939403FD
:101B300080939303E0919503F0919603309751F0D1
:101B400023E029839B838A830084F185E02DCE01E5
:101B5000019609952396E2E00C94933280919103CB
:101B6000882359F0E0919503F0919603309729F07E
:101B70000190F081E02D0995089580E008954115C8
:101B8000510511F0FA0109950895DC01ED91FC91E0
:101B9000119784913196ED93FC93089580E0089518
:101BA000F894E82FE295EF70F0E031A1282F2F7024
:101BB00081E090E001C0880F2A95EAF7982F909570
:101BC000932391A392A1892B82A3789408950F93D4
:101BD0001F9380919103882329F00E943B0D1F9150
:101BE0000F9108950E943B0D0091AC021091AD023F
:101BF0002091AE023091AF02600F711F821F931FC0
:101C0000EECF9091520392FF10C041E0282F247133
:101C1000243009F040E031E0282F2871283009F005
:101C200030E0431711F02CE0822793FF10C041E011
:101C3000282F2471243109F040E031E0282F287149
:101C4000283109F030E0431711F02CE08227309161
:101C5000530330FF10C051E0282F2171213009F0CB
:101C600050E041E0282F2871283009F040E0541757
:101C700011F029E0822731FF10C041E0282F2171A7
:101C8000213109F040E031E0282F2871283109F096
:101C900030E0431711F029E0822794FD877E0895F4
:101CA00082389105B9F1B0F48133910509F47DC012
:101CB00048F48932910509F46DC08A32910509F41E
:101CC00079C008958533910509F45FC08933910582
:101CD00009F10895833E9105D9F138F4803E9105CC
:101CE00029F1823E910579F10895863E9105D9F159
:101CF000873E910509F43EC0843E910541F520914F
:101D0000530321FF24C08091520384FD19C087EE44
:101D100090E0089520915203237009F056C020915D
:101D2000530323FF14C089E290E0089520915203E9
:101D300020FD38C03091530330FF09C024FF3FC05D
:101D400090E080E008952091520322FDF7CF08959E
:101D50002091520322FD36C03091530330FD35C02F
:101D600024FDEECFF4CF2091520323FFF0CF24FDCA
:101D7000E7CFCDCF2091520323FD2AC030915303EA
:101D800031FFEECF84EE90E008952091520325FDBF
:101D9000CACF08952091520325FD1DC02091530301
:101DA00023FFD5CF89E390E008952091520326FDCB
:101DB00015C008952091520326FD13C0089583EEA7
:101DC00090E0089582EE90E0089580EE90E008950E
:101DD00086EE90E0089585E390E008958AE290E031
:101DE000089581E390E0B3CF7A30B8F46630A8F478
:101DF0008530B0F4E62FF0E096E0799FE00DF11D1C
:101E000011249CE3899FE00DF11D1124EE0FFF1FAB
:101E1000E05EF24F85919491089580E090E00895FE
:101E200081E0FCCF1F93CF93DF930E94500EEC0113
:101E3000C11580E5D807E8F5C11580E4D80708F09A
:101E40009BC0C03ED10518F5CD3CD10508F081C03E
:101E5000C83AD10570F4C53AD10508F072C0C13056
:101E6000D10511F118F0C430D105F0F4D0E0C0E094
:101E70001BC0C33CD105D0F7C85AD0E0CC0FDD1F42
:101E8000CA50DE4F0990D881C02DD4640DC0C11551
:101E900080E2D80708F0CBC0C11581E0D80708F070
:101EA0005AC0C83ED10510F7CE01DF91CF911F91E6
:101EB0000895C03682E5D80718F5C03482E5D80702
:101EC00008F069C0C03282E5D80708F05DC0C115CE
:101ED00082E5D80708F493C02C2F2695269580E23A
:101EE000289F900111248C2F8370C1E0D0E002C0A4
:101EF000CC0FDD1F8A95E2F7C22BD32BDD68D4CF40
:101F0000C03A82E5D80760F4C03882E5D80708F403
:101F100057C0CF71D0E0DC2FCC27C46FD06AC4CFBC
:101F2000C03C82E5D80708F45EC0C03E82E5D80711
:101F300008F09CCFDC2FCC27CC27DF71C06FD06A94
:101F4000B3CFC55AD0E0CD50DE4FC881D0E0D064C9
:101F5000ABCFD065A9CF8D2F0E94010E182FCE01D7
:101F600099270E94500EC12FD0E0DC2FCC27CC2720
:101F7000DF71C82BD92B98CFCE0199270E94500E24
:101F8000CC27DF70D06AF5CFCF71D0E0DC2FCC2723
:101F9000C16FD06A89CF2C2F26952695277080E2B5
:101FA000289F900111248C2F8370C1E0D0E002C0E3
:101FB000CC0FDD1F8A95E2F7DC68C22BD32B74CFE0
:101FC0002C2F26952695277080E2289F90011124BA
:101FD0008C2F8370C1E0D0E002C0CC0FDD1F8A954A
:101FE000E2F7DA68EACF8C2F8F710E94010EC82FBA
:101FF000D0E0DC2FCC27CC27DF71D06255CF8C2FDF
:102000008F710E94010E55E0D695C7955A95E1F75C
:10201000CF70D0E0DC2FCC27282F30E084FF05C024
:1020200044E0220F331F4A95E1F7D069C6CF8D2FC8
:102030008F710E94010E182FCE0199270E94500E19
:10204000C12FD0E0DC2FCC27CC27DF71906291CF5D
:10205000809182028111109282020895982F9095AA
:1020600080918D03892380938D030895982F9095F7
:1020700080918E03892380938E0308958091FE03BF
:102080009091C503981301C008958F5F8770FACFB0
:10209000B0E0A0E0EEE4F0E10C9470327C0100913D
:1020A0002A0310912B038091BC029091BD02082B52
:1020B000192BCFE0D0E0CC24C394D12CBC2EC60188
:1020C0000C2E02C0880F991F0A94E2F780239123F7
:1020D000892B49F4219790F7B12C8B2DCDB7DEB722
:1020E000E9E00C948C32B7018C2F0E94F40E0E9410
:1020F000120F019779F3F1CFCF93DF93EC010E9498
:102100004810BE010E94F40E0E94120FDF91CF9181
:1021100008959A3078F5863068F5E82FF0E086E08B
:10212000989FE00DF11D11249E2F977083E0F69586
:10213000E7958A95E1F7EE0FFF1FEE0FFF1FED5AAF
:10214000FD4F50E040E080E0219130E0092E02C0D8
:10215000369527950A94E2F721703327042E01C0A3
:10216000220F0A94EAF7822B4F5F5F4F44305105EC
:1021700059F7089580E008959A3098F5863088F5EB
:10218000E82FF0E086E0989FE00DF11D11248E2FDE
:10219000877041E001C0440F8A95EAF783E0F69525
:1021A000E7958A95E1F7EE0FFF1FEE0FFF1FED5A3F
:1021B000FD4F30E020E070E05191DF011197CB013D
:1021C000022E02C0969587950A94E2F78170819558
:1021D0008527842385278C932F5F3F4F243031053B
:1021E00059F708959C01267033272630310531F4C4
:1021F000806190932B0380932A0308958F7EF9CFFB
:10220000E0912A03F0912B0321E030E0D90102C0D4
:10221000AA0FBB1F8A95E2F7CD01D90102C0AA0F10
:10222000BB1F6A95E2F7BD018A2B972B02C0220FD4
:10223000331F4A95E2F7AF014823592384179507C6
:1022400031F42E2B3F2BC9010E94F21008952095E6
:1022500030952E233F23F7CF21E030E002C0220F3C
:10226000331F8A95E2F72095309580912A0390914B
:102270002B03822393230E94F210089590918303ED
:102280008095892380938303282F277069F4891709
:1022900059F09091530392FF07C0869586958695D5
:1022A0000E942C1110928303089521E030E002C0B7
:1022B000220F331F8A95E2F780912A0390912B0316
:1022C000822B932B0E94F21008950F931F93CF93AC
:1022D000DF9301E010E0082E02C0000F111F0A94E6
:1022E000E2F7C0918803D09189039E012023312316
:1022F000232B01F5909183039695969596958913D6
:1023000002C0109283030E9455110E943B0D6093FE
:102310008403709385038093860390938703C0277B
:10232000D127D0938903C0938803DF91CF911F9168
:102330000F9108950E942C11F2CF9093BD028093CB
:10234000BC020895FC0124812223B9F0808191818F
:102350000E947C1092959F70963089F050F49250B4
:10236000923058F4803F19F030F4883E30F481E028
:1023700008959A50F5CF843FD1F380E00895883EC8
:10238000B0F3813FD1F7F3CFA6E0B0E0EAECF1E1A2
:102390000C94763226E0FC01DE01119601900D923C
:1023A0002A95E1F7FC01258189819A81222399F000
:1023B000662389F00E944810182F682F89819A811E
:1023C0000E94BC1069817A81812F0E94F40E2696AA
:1023D000E3E00C9492320E948910182FF3CF9C01F5
:1023E0003A9521153F4150F5FC01EE27F170BC01F3
:1023F00066277270AC01442754709C012227387004
:1024000094FF0EC080E0EF2B09F080E1672B09F00C
:102410008062452B09F08064232B89F08068089541
:1024200081E0EF2B09F480E0672B09F08260452BF7
:1024300009F08460232B19F08860089580E00895E6
:1024400080914C038531E8F480914D0290E0019633
:102450008170992780934D0221E030E0281B390BD1
:102460004CE752E0249FC001259F900D349F900DB2
:102470001124805E974F0E945B0B089584EA95E0DB
:10248000FACF8832D8F380914C0290E001968170A7
:10249000992780934C0221E030E0281B390B4CE750
:1024A00052E0249FC001259F900D349F900D112470
:1024B00084559F4FE0CF0F931F93CF93DF938B01F2
:1024C000EA019091BB03943061F58093E9008FEFAE
:1024D0009091E800815095FD06C095ED9A95F1F731
:1024E00000008111F5CF8091E80085FF1AC00E949D
:1024F000FF0B811111C08091E80085FD06C080911D
:10250000E8008E778093E800F2CFF80181918F0187
:102510008093F100219779F78091E8008E7780937E
:10252000E800DF91CF911F910F91089543E050E0B3
:10253000BC0182E00E945B120895CF93DF93EC010F
:1025400048E050E0BC0181E00E945B1288E0FE019F
:10255000A7EAB3E001900D928A95E1F7DF91CF9160
:102560000895B0E0A0E0E7EBF2E10C946F327C015B
:102570005B016A018091AB0201E010E08A3010F447
:102580000AE010E0C1E0D0E0B501C701F60109950D
:10259000811104C021960C171D072CF4CDB7DEB7AE
:1025A000EAE00C948B32CC9F9001CD9F300D300D22
:1025B000112490E080E045E34A95F1F70000019690
:1025C00082179307C1F7E0CFCF93DF93682F81E0A5
:1025D0006A3019F06D3031F480E00E946513DF91AC
:1025E000CF910895809108069091090626E0FC019C
:1025F000A0E0B4E001900D922A95E1F7603E08F466
:1026000059C026E0FC0111922A95E9F7C09108060D
:10261000D091090646E050E0BE0180E094E00E94BF
:102620008233892B59F1CE01885094409C0145E0BA
:10263000369527954A95E1F741E050E0BA0102C08E
:10264000660F771F2A95E2F79B016091060470914F
:102650000704262B372B059665E0969587956A9596
:10266000E1F7FA0102C0EE0FFF1F8A95E2F7CF01F2
:10267000822B932B90930704809306049E01225093
:1026800034404091FF03642F70E0C9010E9453322F
:10269000481B463010F4240F311D2115F2E03F078E
:1026A00010F030E020E0285F3B4F30930906209384
:1026B000080695CFF6E06F9FB001112469577F4E51
:1026C00046E050E00E949E32A1CFCF93382FE09198
:1026D0000806F0910906E850F4402091FF03622FAC
:1026E00070E0CF010E945332281B822F332361F008
:1026F00066E00E94F932C82FC15010F4CF910895BE
:1027000080E20E94E412F8CF9F01280F311D2115AD
:10271000324018F080E0F0E0E0E08E0F9F2F911D36
:10272000885F9B4F9093090680930806E7CFCF936D
:10273000C0918E0380918D03C82B809182028823E3
:1027400051F0C82BE6E4F2E097E080E0915031F5DB
:1027500081110E942810C093440248E050E06AE7CB
:1027600072E084E492E00E948233892BA9F088E031
:10277000E4E4F2E0AAE7B2E001900D928A95E1F775
:10278000E0919503F0919603309731F00280F38148
:10279000E02D84E492E00995CF91089521912223C0
:1027A000A9F28F5FD3CF10928E03E6E4F2E086E0C9
:1027B000DF011D928A95E9F790E080E00E94890D83
:1027C00090E080E00E94640D10928D030E949713A8
:1027D00008950E94D3132FEF84E39CE021508040A2
:1027E0009040E1F700C0000088E19AE00FB6F8944D
:1027F000A895809360000FBE90936000FFCFCF93A9
:10280000DF93EC014A855B856E857F850E94BF0D55
:102810008B810E942E108C810E9436100E9497138B
:1028200086E0FE0111928A95E9F7DF91CF91089534
:10283000CF93DF93EC018D8181FD17C082608D8382
:1028400080918D039B81892B80938D0380918E03D2
:102850009C81892B80938E030E949713488559850C
:102860006E857F85CE010E94BF0D1092900310925D
:102870008F038D8180FD03C0CE010E94FF13DF9185
:10288000CF910895882321F00E942E100E94971363
:10289000089580918203882329F082E20E944214E5
:1028A000109282030895882339F090918D03892B2B
:1028B00080938D030E9497130895882321F00E942E
:1028C00036100E9497130895882339F090918E0353
:1028D000892B80938E030E9497130895882381F19A
:1028E0009CEF980F913A70F4E4E4F2E0928189133E
:1028F00001C01282319692E0EA34F907B9F70E94DA
:102900009713089590E2980F983050F4877091E0F3
:1029100001C0990F8A95EAF7892F0E943610EFCFF0
:102920009BE5980F933028F490E080E00E94890D99
:102930000895885A8B3120F490E080E00E94640D65
:102940000895CF93DF93EC010E946E14CE010E9494
:10295000EF119E01205E31092830310510F0CD2B9A
:1029600029F40E945D14DF91CF9108950E944214D2
:10297000FACFFC018281813031F4FB0180819181A9
:102980000E94A11408958230E9F7FB0182819381AE
:10299000F7CFCF938823C1F0C82F8CEF8C0F813AEB
:1029A00010F5A6E4B2E0E4E4F2E08CE492E02D91CC
:1029B000C21761F08A179B07D1F76C2F84E492E06D
:1029C0000E944A0D0E949713CF9108958AE492E0E5
:1029D0002281C21301C0128231968E179F07C1F760
:1029E0000E949713EACF80E28C0F883068F4C7709A
:1029F00021E030E001C0220FCA95EAF780918E03F2
:102A0000822B80938E03DECFEBE5EC0FE33040F4B6
:102A1000F0E0ED50FE4F808190E00E94890DD4CF10
:102A2000C85ACB3188F6EC2FF0E0EE0FFF1FEA50CA
:102A3000FE4F808191810E94640DC6CF1F93CF937A
:102A4000DF93182FEB010E94C914209739F4812FCE
:102A50000E946E14DF91CF911F9108958FE99FE03E
:102A60000197F1F700C000002197EFCFA2E0B0E09E
:102A7000ECE3F5E10C946F329A8389838AE0A82E07
:102A8000CE0101960E94C50D8823E1F1813009F045
:102A900053C0CE0101960E94C50D813069F4CE016C
:102AA00001960E94C50D60E570E0893311F070E079
:102AB00060E00E941E15E4CF823039F4CE01019609
:102AC0000E94C50D0E94C914DBCF833039F4CE01BA
:102AD00001960E94C50D0E946E14D2CF843081F4FD
:102AE000CE0101960E94C50D10E000E0482F405332
:102AF000550B9A014A30510548F00115110599F41A
:102B00008111BECF2296EAE00C948B32A09EC001C8
:102B1000A19E900D11248901080F191FCE01019665
:102B20000E94C50DE3CFEFE9FFE03197F1F700C058
:102B3000000001501109E1CFE82FF0E0E950FA4E12
:102B4000B490282F26952695269530E0F901E95175
:102B5000FA4EE4908770F12C082E02C0F594E794A9
:102B60000A94E2F7F1E0EF22FF24F901E952FA4E6C
:102B7000C490D12C082E02C0D594C7940A94E2F7D1
:102B800041E0C422DD24F901E953FA4E049110E03A
:102B900002C0159507958A95E2F701701127E11497
:102BA000F10419F081EE0E94C914C114D10419F086
:102BB00086EE0E94C91470E060E08B2D0E941E1505
:102BC000C114D10419F086EE0E946E14E114F104D0
:102BD00019F081EE0E946E140115110509F450CF11
:102BE00070E060E08CE265CFCF93DF93EC010E9450
:102BF000EF119E01205E31092830310510F0209739
:102C000041F40E9464148C2F0E94C914DF91CF916B
:102C100008950E945314F7CFFB01808191810E9497
:102C2000F4150895CF93DF93FC012281223049F4FB
:102C3000FB01EC01828193810E94F4158D818260F9
:102C40008D83DF91CF9108950F931F93CF93DF93DF
:102C5000EC01FC0101900020E9F78F0101501109FE
:102C6000C017D10728F0DF91CF911F910F910895E0
:102C700089910E94E412F4CFAB0124E630E0BC015C
:102C800088E70E94063021E0892B09F020E0822F9E
:102C9000089580917E0390917F03911103C091E08C
:102CA00089270895882369F062E070E08CE99FE04D
:102CB0000E943C16811103C080917E0308951092FA
:102CC0007E0380917E03EBCFCF93C0917E038091F2
:102CD0007F038823D1F00E943B0D605A75418F4FCE
:102CE0009F4F60937A0370937B0380937C03909350
:102CF0007D03C11108C062E070E08AE99FE00E9494
:102D00003C16811105C0C0917E038C2FCF91089590
:102D100081E080937E03F7CF9091530392FB2227AB
:102D200020F9281779F080FB92F990935303609172
:102D300052037091530384E090E00E94E33282E0FA
:102D40000E943E110895CF92DF92EF92FF921F935F
:102D5000CF93DF9300D000D0CDB7DEB7C0909802FC
:102D6000D0909902E0909A02F0909B020E943B0D55
:102D70006C197D098E099F0911E064367105810582
:102D8000910570F10E94E70D6E5F7F4F8F4F9F4F4F
:102D900069837A838B839C838091190190911A01B6
:102DA00084569D4F4091180150E04530510510F078
:102DB00044E050E0BE016F5F7F4F0E948F3382E09E
:102DC00090E00E94DC31182F882351F00E943B0DC7
:102DD000609398027093990280939A0290939B0259
:102DE000812F0F900F900F900F90DF91CF911F9137
:102DF000FF90EF90DF90CF900895A1E0B0E0E3E086
:102E0000F7E10C94713210914C0319830091A602E2
:102E1000C090A702D090A802E090A902F090AA0268
:102E20000E943B0D6C197D098E099F09643671055E
:102E30008105910510F4011749F1809121019091CC
:102E4000220184569D4F4091200150E041155105CB
:102E500011F041E050E0BE016F5F7F4F0E948F3361
:102E600083E090E00E94DC31182F882351F00E940B
:102E70003B0D6093A7027093A8028093A9029093E0
:102E8000AA02812F2196E8E00C948D3211E0F9CF4F
:102E90008F929F92AF92BF92EF92FF921F93CF9328
:102EA000DF9300D000D000D0CDB7DEB77B0190E03B
:102EB00080E00E94DC31182F882309F464C040911F
:102EC0000B0150E04115510511F041E050E06091D7
:102ED0000C0170910D0164567D4FCE0106960E9443
:102EE0008F338090940290909502A0909602B090BB
:102EF00097020E943B0D681979098A099B0964367B
:102F000071058105910538F48DE992E00E94C90BA5
:102F10009E818917C1F181E090E00E94DC31182F79
:102F2000882391F04091130150E04630510510F094
:102F300045E050E0609114017091150164567D4F99
:102F4000CE0101960E948F338DE992E00E94C90B59
:102F500091E02E81281390E0192301F10E943B0D8E
:102F600060939402709395028093960290939702D7
:102F700085E0FE013196AFE8B2E001900D928A95AE
:102F8000E1F711E00BC085E0EDE9F2E0DE0111961A
:102F900001900D928A95E1F71111EACF85E0EFE8F3
:102FA000F2E0D70101900D928A95E1F7812F2696E4
:102FB0000FB6F894DEBF0FBECDBFDF91CF911F914A
:102FC000FF90EF90BF90AF909F908F90089578946E
:102FD0001F920F920FB60F9211248F939F93AF936E
:102FE000BF938091A2039091A303A091A403B091F9
:102FF000A5030196A11DB11D8093A2039093A30385
:10300000A093A403B093A503BF91AF919F918F911B
:103010000F900FBE0F901F9018952FB7F8948091C6
:10302000A2039091A303A091A403B091A5032FBF85
:1030300008953091A00320919C03321720F4209131
:103040009C032093A0036093990370939A03809349
:103050009B0390939C030E940D189093B30380935D
:10306000B20381E08093B1030895AAE2B0E0EBE3FC
:10307000F8E10C947332EDEBF3E08091F100819371
:1030800023E0E53CF207C9F78091BE03833009F4E1
:1030900087C008F5813009F45EC0823009F4E0C0D1
:1030A0008091E80083FF1AC18091BD039091BE0317
:1030B0009A3008F013C1E92FF0E0EF59F74E0C9465
:1030C0005A33411967196E1967196E19BF19E11939
:1030D0006E196A1B771B8A3009F4A7C08B3009F47C
:1030E0007CC08930E9F68091BD038132C9F68091B8
:1030F000C1039091C203029798F68091E800877F00
:103100008093E8008091E80082FF45C08091F30041
:103110009091F200892798278927029731F48091AE
:10312000F100813011F0863071F48091F1008093CC
:103130006A016091690170916A0180916B019091BF
:103140006C010E9419188091E8008B778093E80049
:103150000E942E0CA5CF8091BD03813A09F0A0CF2B
:103160008091E800877F8093E8008091C10390916F
:10317000C203892B61F060E090E080E070E00E9483
:10318000DA0C8091E8008B778093E80089CF68E0C3
:1031900087EA93E0F3CF8091BB038111B3CF80CF57
:1031A0008091BD03813A09F07BCF8091C10390915A
:1031B000C203892B09F074CF8091E800877F809348
:1031C000E8008091E80080FFFCCF80916B01809344
:1031D000F1008091E8008E77B9CF8091BD038132F4
:1031E00009F05ECF8091C1039091C203892B09F051
:1031F00057CF8091E800877F8093E8000E942E0CD3
:1032000081E09091BF03911101C080E080936B0138
:103210006091690170916A0180916B0190916C01DC
:103220000E9419180E94D3133BCF8091BD038132B5
:1032300009F036CF8091E800877F8093E8000E94F4
:103240002E0C8091C0038093690160916901709197
:103250006A0180916B0190916C010E94191820CF36
:103260008091BD03813A09F01BCF8091E800877FF0
:103270008093E8008091E80080FFFCCF8091690195
:10328000A6CF803889F0823849F58091C1038F70CC
:10329000873020F58093E9008091EB0085FB88273B
:1032A00080F91092E90006C08091AF039091B003BD
:1032B000911182609091E800977F9093E80080934D
:1032C000F1001092F1008091E8008E7727C0282F3E
:1032D0002D7F21F48823A1F0823029F18091E8002C
:1032E00083FF0AC08091E800877F8093E800809187
:1032F000EB0080628093EB00AA96E6E00C948F329C
:103300008091BF03813051F7933009F080E08093C2
:10331000B0031092E9008091E800877F8093E80075
:103320000E942E0CDBCF8091BF038111F2CF8091E0
:10333000C1038F702FEF280F263080F68093E900AD
:103340002091EB0020FFE5CF933031F48091EB002A
:1033500080628093EB00DDCF9091EB0090619093C1
:10336000EB0021E030E001C0220F8A95EAF72093BC
:10337000EA001092EA008091EB008860EACF8111A8
:10338000ADCF1091BF031F778091E3008078812B30
:103390008093E3008091E800877F8093E8000E949B
:1033A0002E0C8091E80080FFFCCF8091E3008068C4
:1033B0008093E30083E0111101C082E08093BB039E
:1033C0008DCF8058823008F089CF8091BF039091D3
:1033D000C0038C3D43E09407A1F583E08A838AE231
:1033E00089834FB7F894DE01139620E03EE051E266
:1033F000E32FF0E050935700E49120FF03C0E295E3
:10340000EF703F5FEF708E2F90E0EA30C0F0C7960C
:103410008D939D932F5F243159F74FBF8091E80022
:10342000877F8093E8006AE270E0CE0101960E94F7
:10343000DA0C8091E8008B778093E8004FCFC0963C
:10344000E7CF4091C1035091C203292F3327233086
:10345000310509F448C080F52130310509F4EFC089
:103460002230310509F03ACF0BE310E0E4E1EE2E13
:10347000E0E1FE2E8091E800877F8093E800809154
:10348000C3039091C4030817190708F4C80140E06A
:10349000009709F0E9C04111E7C08091E80082FD82
:1034A000C8CF8091BB03882321F2853011F280912F
:1034B000E80083FFF2CFBDCF2132310509F4B1C05E
:1034C0002232310509F00ACF4115510509F4C5C072
:1034D0004130510509F002CF02E310E03EE9E32E4E
:1034E0003FE0F32EC7CF99278130910509F45AC0E8
:1034F00040F0029709F460C010E000E0F12CE12CEC
:1035000009C0E3E8F0E1E4910E2F10E073E8E72E44
:1035100070E1F72E2091C3033091C4038091B5036D
:103520008F5F8093B5033093BA032093B9032230A1
:10353000310509F04BC09091B6039F5F9093B6039D
:10354000833010F19091B803923038F04091B70376
:10355000411163C0891709F45EC04091B6038530FC
:1035600008F447C02F3F310509F04BC0992309F4F7
:103570004AC083E0423008F051C0411105C080913B
:10358000B703882309F447C00E940D189093B30332
:103590008093B20381E08093B1030115110509F412
:1035A0009DCE68CFE1E7F0E1E4910E2F10E061E7F6
:1035B000E62E60E1F62EAECFE1E6F0E1E4910E2FCB
:1035C00010E051E6E52E50E1F52EA4CF2430310570
:1035D00031F49091B7039F5F9093B703B1CF2F3F22
:1035E000310509F0ADCF9091B8039F5F9093B80378
:1035F000A7CF843031F49111C0CF423021F484E060
:103600000DC09111BACF433009F0BECF8091B703FE
:10361000813009F0B9CF81E001C082E08093B4032A
:10362000B3CF4115510591F04130510509F056CE07
:1036300009E010E04FE3E42E40E1F42E1BCF02E15D
:1036400010E02FE4E22E20E1F22E14CF09E010E08A
:1036500096E2E92E90E1F92E0DCF04E410E080ED22
:10366000E82E8FE0F82E06CF2091BB03222309F429
:10367000E0CE253009F4DDCE2091E80023FDD9CE3F
:103680002091E80022FD09CF2091E80020FF00CF23
:103690002091F3003091F20023273227232700974F
:1036A00019F02830310558F041E02830310509F093
:1036B00040E02091E8002E772093E800E9CEF70162
:1036C00044914093F100FFEFEF1AFF0A01972F5F3B
:1036D0003F4FE5CF803809F001CE8091E800877F29
:1036E0008093E8008091BC038093F100ECCD8111C0
:1036F000F5CD1091BF03123008F0F0CD8091E800B5
:10370000877F8093E8001093BC030E942E0C112346
:10371000F9F084E08093BB0342E061EC81E00E9419
:103720004D0C42E261EC82E00E944D0C8091BB03A3
:103730008430A1F482E080936C0160916901709102
:103740006A0180916B0190916C010E941918C6CD9D
:103750008091E30087FDDDCF81E0DCCF81E0EBCF1E
:103760001F920F920FB60F9211242F933F934F93F6
:103770005F936F937F938F939F93AF93BF93CF93F9
:10378000EF93FF93C091E900CF708091EC0010920D
:10379000E9008091F000877F8093F00078940E9488
:1037A00035181092E9008091F00088608093F00055
:1037B000C093E900FF91EF91CF91BF91AF919F919D
:1037C0008F917F916F915F914F913F912F910F90CA
:1037D0000FBE0F901F9018951F920F920FB60F9269
:1037E00011242F933F934F935F936F937F938F9306
:1037F0009F93AF93BF93CF93EF93FF938091E1009B
:1038000082FF09C08091E20082FF05C08091E10043
:103810008B7F8093E1008091DA0080FF24C080914B
:10382000D80080FF20C08091DA008E7F8093DA007C
:103830008091D90080FFD2C080E189BD82E189BD3D
:1038400009B400FEFDCF81E08093BB038091A60305
:10385000811109C00E94E00B0E947F0C8091E20060
:1038600084608093E2008091E10080FF24C0809119
:10387000E20080FF20C08091E2008E7F8093E20012
:103880008091E20080618093E2008091D8008062A4
:103890008093D80019BC85E08093BB0383E08093BC
:1038A0006C016091690170916A0180916B01909146
:1038B0006C010E9419188091E10084FF39C0809149
:1038C000E20084FF35C080E189BD82E189BD09B491
:1038D00000FEFDCF8091D8008F7D8093D80080912D
:1038E000E1008F7E8093E1008091E2008F7E8093E3
:1038F000E2008091E20081608093E2008091BC034D
:10390000882309F471C084E08093BB038091BB03DA
:10391000843009F471C081E080936C016091690189
:1039200070916A0180916B0190916C010E9419184D
:103930008091E10083FF40C08091E20083FF3CC0A2
:103940008091E100877F8093E10082E08093BB0358
:103950001092BC038091E1008E7F8093E100809102
:10396000E2008E7F8093E2008091E200806180938C
:10397000E20042E060E080E00E944D0C8091F000A7
:1039800088608093F000C1E0C0936C016091690190
:1039900070916A0180916B0190916C010E941918DD
:1039A000C0936B016091690170916A0180916B0114
:1039B00090916C010E941918FF91EF91CF91BF91E6
:1039C000AF919F918F917F916F915F914F913F91B7
:1039D0002F910F900FBE0F901F90189519BC109249
:1039E000BB031092A6033FCF8091E30087FD02C086
:1039F00081E08ACF83E088CF82E08ECFEF92FF9282
:103A00000F931F93CF93DF93C42FD22FFC01858197
:103A10008823A9F040938C030E940D1890938B0388
:103A200080938A03C77081E001C0880FCA95EAF7C6
:103A30000E946414CDB7DEB7E6E00C948F3210918B
:103A40008C03141337C0E0908A03F0908B030E941C
:103A50000D188E199F098F3A910560F5C0E2CD0FC0
:103A60001D17C1F080E2810F883048F4177081E0A3
:103A7000012E01C0880F0A94EAF70E945D14C83035
:103A800000F581E09D2F977001C0880F9A95EAF7A5
:103A90000E94641470E060E0802F0E941E15C83000
:103AA00048F6D77081E001C0880FDA95EAF70E94E6
:103AB0005D14C0CFC77081E001C0880FCA95EAF7D6
:103AC000F6CF70E060E0802F0E941E15B3CF80918A
:103AD000820381110FC010928E030E9428100E9451
:103AE0000D1888579C4E909381038093800381E04A
:103AF000809382030895AFE0B0E0E1E8FDE10C942B
:103B00006A328E010F5F1F4F8AE0F80111928A9589
:103B1000E9F78EE2E82E82E0F82E680193E3692E41
:103B200092E0792EAA24A394B12C39E3832E32E0BB
:103B3000932EF70181917F018F3F09F440C0F894E3
:103B4000E82FE295EF70F0E021A18F70A50102C08F
:103B5000440F551F8A95E2F7CA01922F982B91A323
:103B600092A18095892382A3789400C0E3E3F2E0D8
:103B7000512C31E021912F3F09F492C0A22FA29540
:103B8000AF70B0E090968C9190E02F7002C0959548
:103B900087952A95E2F780FD83C0832F582A330F3B
:103BA0008E169F0639F7F701319780818F3F11F00C
:103BB0000E94D00D50EA5A95F1F7F6015082FFEFBE
:103BC000CF1ADF0A6E147F0409F0B3CF4AE050E049
:103BD000B80180EB92E00E948233009741F02AE026
:103BE000F801A0EBB2E001900D922A95E1F7009167
:103BF000BB0210E002541D4F892B09F453C081E031
:103C0000809387020E940D1890938602809385020C
:103C1000D12CC0909103CC2009F4A1C07E012BE0EF
:103C2000E20EF11C85E0F70111928A95E9F7809187
:103C3000AB028A3008F05CC048E457E1B701C80124
:103C40000E94B112882309F477C043EA56E1B70114
:103C5000C8010E94B112882309F46EC04DEF56E1ED
:103C6000B701C8010E94B112882309F465C01092FF
:103C7000AB028091BA0290E045E050E0B701825477
:103C80009D4F0E94823321E020938E02892B09F000
:103C900046C0C12C8C2D8D292F96EFE00C948632D6
:103CA00080E07CCFD0908702DD2009F4B1CFE09096
:103CB0008502F09086020E940D188E199F090597C3
:103CC00008F4A6CF45E050E060EB72E0C8010E9426
:103CD0008233892B59F085E0E0EBF2E0D8010190C6
:103CE0000D928A95E1F71092870293CFD12CFBCFEA
:103CF000A0908802B09089020E940D188A199B0931
:103D0000843F914008F098CF80918E02882309F279
:103D100085E0F70111928A95E9F710928E02A09141
:103D2000BA02B0E0A254BD4F85E0FE013B9601907F
:103D30000D928A95E1F7AECF8091AB028F3F19F0DB
:103D40008F5F8093AB028091AB028A3008F491CFF1
:103D50000E940D189093890280938802D5CF85E048
:103D6000F801ADE9B2E001900D928A95E1F78DE995
:103D700092E00E94C90B80939C028090A2029090D6
:103D8000A302A090A402B090A50280918A02909113
:103D90008B02A0918C02B0918D0288169906AA061A
:103DA000BB06B1F080928A0290928B02A0928C02A4
:103DB000B0928D020E943B0D861A970AA80AB90A92
:103DC0008092AC029092AD02A092AE02B092AF028D
:103DD0008091A60280934C035DCFB0E0A0E0E3EFBA
:103DE000FEE10C947032DC0114962C91222309F42C
:103DF000B5C07C0161E00E94C411EC01F70185812E
:103E0000882321F1E0918F03F09190033097F1F036
:103E1000CE17DF07D9F0FF27E230F10508F06FC0B9
:103E200094E0EE0FFF1F9A95E1F7ED5CFE4F858160
:103E300084608583D183C083CF010E9418141092BF
:103E40008D0361E0C7010E94C411EC01D7011596F2
:103E50002C91222309F45CC0AE015A95CE0199271A
:103E60004115BFE45B0738F0CE01CF3FD10519F013
:103E700010F090E080E0BC0164507109643271057B
:103E800018F08B970E9780F4E091DB02F0E0EE0FD4
:103E9000FF1FE052FD4F808191818F3F3FE79307E5
:103EA00019F001969183808341155F4458F5CE0146
:103EB00099278C34910511F08A9789F4E091DB02FF
:103EC000F0E0EE0FFF1FE052FD4F808191818115E0
:103ED000A0E89A0709F4BAC6019791838083C13498
:103EE000AEE7DA0709F49FC608F0A0C6C034EEE7D3
:103EF000DE07B9F48EE19DE00E94361538C0F0E08F
:103F0000E0E095CFCF3FD10509F048F7CE01D1CF02
:103F1000C234BEE7DB0759F130F5C034FEE7DF07F6
:103F200030F5C3378CE7D80711F5222339F080919B
:103F30008203882309F49BC00E9449148091830363
:103F4000877061F0D70115968C91882339F08091A4
:103F5000530382FF03C082E00E943E11CDB7DEB75B
:103F6000E9E00C948C32C3343EE7D307D1F680915C
:103F70008203811182C0D70115968C91882339F173
:103F8000C13ED10529F0C23AB2E5DB0709F072C0A3
:103F900080915002882371F0F701828193812091F2
:103FA0004E0230914F02821B930B8F3F9F4710F0C0
:103FB0000E94671D81E080935002D70112968D9177
:103FC0009C9181559F4F90934F0280934E02CE015A
:103FD00097558F3F910511F008F043C1FE01FF276F
:103FE000E230F1050CF0AACFA4E0EE0FFF1FAA9576
:103FF000E1F78F010D5C1E4FD70115969C91159727
:10400000E85CFE4F808190FB80F9808315968C914F
:10401000882309F409C10E940D189093D40280935B
:10402000D302F80182818F5F828380918D0390910A
:104030008E03892B838380918202848346815781FA
:1040400066857785C8010E94BF0DD80115968C91B1
:1040500081FDE7C09C2F8D2F90938F038093900359
:1040600084C0222309F483CF8AE19DE045CF0E94DA
:10407000671D64CF10925002AACF00918E03109159
:1040800082020E940D1888579C4E90938103809362
:104090008003F7018581882309F499CF102B1D79BE
:1040A00009F0ABC0C034F2E5DF0780F5C11522E5A9
:1040B000D20708F08CCFC11530E4D30758F4C115EE
:1040C00080E2D80708F040C0C63ED10509F47FCF92
:1040D000CE010BC0C11590E5D907D0F7F701868155
:1040E000807F09F447C0CE01992710928D03883252
:1040F000910508F085C08E31910508F088C00497BD
:1041000008F47BC082E080938D0381C0C03EA2E5AD
:10411000DA07A0F4C03CB2E5DB0708F058CFC036A0
:10412000E2E5DE07A8F2C03AF2E5DF0708F44FCF78
:10413000C43B22E5D20709F44ACFCACFCE01875744
:104140009C47029728F643CFD70116968C91807F23
:1041500051F68D2F8F71823109F44DC008F046C0A1
:10416000823009F448C00E944914F70185818823F0
:1041700009F41CC510928C03CE019057839708F068
:10418000FEC484E090E00E94AF329093530380938A
:104190005203FE01E150F047E232F10508F0A0C001
:1041A000EC52FF4D0C945A33AA211F22B2217C21DC
:1041B0008021B6218421BA21C62190211822942180
:1041C000CA219821CE21F6219C21D221FD21A221B4
:1041D000D821E0218821BE218C21C221A621DC2109
:1041E000EC21062216227621AE2126228431C9F145
:1041F000863109F0B8CF10928D030E944914E7CEA2
:104200008D32910509F47ECF28F48A97B1F70E9488
:104210009713DDCE8C349105D1F38D329240B9F3F2
:10422000ECCF90E080E018CFF80144855585668595
:104230007785C8010E94BF0DD80115968C9181FF2A
:1042400094CFC8010E94FF1380918F039091900337
:10425000C817D90709F089CF1092900310928F03E5
:1042600084CFFE01E851FC47E730F10508F07DCF2F
:10427000E45CFE4D0C945A335221582143214C21C9
:104280005E2164216A2106E221EE41EE6AE17CE7CB
:10429000C7010E94FE1C52CE07E225EE45EE6BE1FF
:1042A0007CE7F6CF06E221EE40EE68E17CE7F0CF56
:1042B00007E225EE44EE69E17CE7EACF06E221EE73
:1042C00042EE6CE17CE7E4CF07E225EE46EE6DE1DD
:1042D0007CE7DECF08E221E045EE6EE17CE7D8CF57
:1042E0008091520381608093520395C08091530363
:1042F0008860809353038FC0809152038260F3CF14
:10430000809152038460EFCF809152038860EBCF9D
:10431000809153038160EDCF809153038260E9CF98
:10432000809152038061DFCF809152038062DBCFA6
:10433000809152038064D7CF0E94D313809152039F
:104340008068D1CF809152038860DCCF8091530385
:104350008260E0CF809152038E7FC5CF809153035E
:10436000877FC7CF809152038D7FBDCF809152034D
:104370008B7FB9CF80915203877FB5CF8091530354
:104380008E7FB7CF809153038D7FB3CF809152033F
:104390008F7EA9CF809152038F7DA5CF809152034C
:1043A0008F7BA1CF0E94D313809152038F779BCF35
:1043B00080915203877FDCCF809153038D7FE0CFC4
:1043C0008091520382FB992790F921E0922790FB7C
:1043D00082F990FB83F987CF80915303982F9095B2
:1043E00091708E7F892B90FB81F983CF909152033E
:1043F000892F8F7B96FF806476CF0E94D313909194
:104400005203892F97FB87F980586DCF61E08EE0CA
:1044100090E00E94C532609152037091530384E092
:1044200090E00E94E3320E94D31388CD60E0EFCF8A
:1044300090915203892F8F7E94FF806154CF909189
:104440005203892F8E7F90FF81604DCF909153034F
:10445000892F877F93FF88604CCF89E2E4E4F2E004
:104460009281891301C01282319622E0EA34F20768
:10447000B9F799C381E00E94551143E062E081E001
:104480000E9400115BCD81E00E942C11F6CF82E0EA
:10449000F2CF0E943B0D6093840370938503809359
:1044A00086039093870380912A0390912B03209198
:1044B000880330918903AC014095509542235323E2
:1044C000452B31F028233923309389032093880327
:1044D000F7014581CB37FCE7DF0749F5442309F4B1
:1044E0002DCD292F332721153105F9F49C0180E0CA
:1044F000A90174E0569547957A95E1F74115510564
:1045000011F08C5F9A01A9015695479556954795EC
:104510004115510511F08E5F9A0136952795232B91
:1045200009F08F5F0E94651109CD88E0E1CFC115C8
:1045300022E5D207F0F4C11530E5D307E8F5C1153F
:1045400080E4D80708F055C0442309F46BC0C33099
:10455000FCE7DF0709F4EEC008F0C2C0C1153CE774
:10456000D30709F4CBC0C130DC4709F05BC00E941F
:10457000E913C03292E5D90738F3C034A2E5DA076F
:1045800028F0CE01805C92458097F0F68C2F8F71D9
:1045900021E030E0082E02C0220F331F0A94E2F718
:1045A000609188037091890326233723232B61F2BE
:1045B000442309F4C3CCB6CFCE0125E09695879568
:1045C0002A95E1F78F7021E030E0082E02C0220F1B
:1045D000331F0A94E2F760918803709189032623C0
:1045E0003723232B09F4B0CF41119CCF10928E03B7
:1045F000DAC2F7018681807F09F0A6CF411112C08F
:104600002D2F2F7081E090E002C0880F991F2A950E
:10461000E2F7209188033091890382239323892B29
:1046200009F08CCCF7018581C081D181882309F400
:1046300094C0CE010E944810182F682FCE010E940E
:10464000BC10BE01812F0E94F40E0E94120FD82FC1
:10465000C92FB82ED7011596DC9015971696CC90D9
:10466000C2948FE0C82280918303877001F10D2DE1
:10467000DD20F1F0892F807F803469F080E28D0F9A
:104680008830A8F0892F807E803229F4B1E0BD17F0
:1046900070F4CC2061F08091530382FF08C082E067
:1046A0000E943E1180918303877001E009F000E0D1
:1046B0001C2F12951F701C3008F0ABC0E12FF0E0EA
:1046C000EC59FC4D0C945A33B223B223E423E42377
:1046D00079240924092409249924262537253725F6
:1046E000CB359CE7D907B9F1CC35ACE7DA0749F10E
:1046F000CA35DC4709F096CF81E02AC00E94D31367
:10470000EFEFF4E32CE0E150F0402040E1F700C08F
:10471000000087E797E7909301088093000888E1FD
:104720009AE00FB6F894A895809360000FBE90931E
:104730006000FFCF6FEF7FEF90E080E00E94E332F8
:1047400016CF8091530382FB882780F991E0892757
:104750000E948C1667CF80E0FBCFCE010E948910AB
:10476000182F6FCF1C2F1F70C07F11F01295107F74
:104770008D2FDD20B9F0112369F090E29D0F983064
:1047800010F0D11109C080918E03182B10938E0365
:104790000E9497138D2F3BC080918D03182B10938F
:1047A0008D03F6CF0E946E14112399F1D05E812FF4
:1047B000D83010F0B11003C00E94361002C00E9421
:1047C0002E100E94971325C01C2F1F70C07FC0326F
:1047D00011F01295107FBB2051F0E1E0BE1609F4F4
:1047E00068C0DD2009F474C0CC20C1F1D3CF809122
:1047F000530382FD2FC0DD2031F1112339F0809168
:104800008E03182B10938E030E94971380E00E9452
:10481000C914002309F4C3C08091830380FDBFC085
:10482000D70115961C928695869586950E945511FE
:10483000C7010E94ED1E809183038695869586951B
:104840000E942C11ACC080E00E946E14112309F369
:10485000812FB2CFDD2099F0C11004C0812F0E94BA
:104860006414D7CFF1E0CF12D4CF80918202912F80
:104870009823191771F2182B10938202CACFC11016
:10488000C8CF812F0E945D1490918202812F8923CD
:1048900029F0812F80958923809382028091520292
:1048A000912F982309F4B5CF109518231093520235
:1048B000B0CFDD2029F025E02C1508F4AACFCECF0B
:1048C00034E03C1508F4A5CF812F0E945D14A1CFE0
:1048D000CC20D1F3D93349F48FEF97EEA3E0815088
:1048E0009040A040E1F700C000008D2F0E946E14A0
:1048F00090CF8C2F86958695837039F0813079F032
:104900001850143008F085CF48C08D2F9C2F93701D
:10491000D11002C080E090E00E94890D7ACF8D2FE7
:104920009C2F9370D11002C080E090E00E94640D33
:1049300070CF8C2F837009F045C0D1102EC04D2F41
:10494000429546954770440F440F2D2F2F7030E04D
:10495000042E02C0220F331F0A94E2F790E080E099
:10496000D4FF09C08FE090E002C0880F991F4A95DC
:10497000E2F780959095C695C695C370C230C9F090
:10498000A8F44091BC025091BD02C13069F0822B65
:10499000932B842395230E949D110E94AE0D60E00D
:1049A000C7010E94C411DACA242B352B822B932B0A
:1049B000F2CF822B932B2091BC023091BD02822733
:1049C0009327E9CF8695DD2011F08C2F8170882305
:1049D00021F34D2F429546954770440F440F2D2FDC
:1049E0002F7030E0042E02C0220F331F0A94E2F72A
:1049F00090E080E0D4FF09C08FE090E002C0880F13
:104A0000991F4A95E2F780959095C695C695C37013
:104A1000C23099F078F440912A0350912B03C130B1
:104A200039F0822B932B842395230E94F210B5CF6B
:104A3000242B352B822B932BF8CF822B932B209179
:104A40002A0330912B0382279327EFCFCF70DD20ED
:104A500039F08C2F0E9455118D2F0E9464149DCF28
:104A60008D2F0E945D148C2F0E942C1196CF8D2FBC
:104A7000B2EFBB1609F43FC0BB1580F0E0EFBE16E5
:104A8000F1F0F1EFBF16A1F0DD2009F464C0CC20F5
:104A900009F45EC08D2F0E94C91432CF23EFB216E5
:104AA00089F134EFB312F0CF9091530392FD37C0E8
:104AB0008C2F8F71DD2019F10E94551121CFDD203F
:104AC000A9F084E08C1508F41BCFCF7181E090E051
:104AD00002C0880F991FCA95E2F720912A033091EE
:104AE0002B03822793270E94F2100ACF95E09C1592
:104AF00008F406CFEACF8C2F8F71DD20E9F20E94F7
:104B00002C11FECE90E080E0DD2069F3CF7181E0D2
:104B100090E002C0880F991FCA95E2F7E4CFDD202C
:104B200061F08C2F8F7192FFC7CFA8E08A9F900110
:104B30001124236020938303BFCF81E00E943E11A4
:104B4000B1E0BC1508F0DCCE82E00E943E11D8CE68
:104B50008C2F8F71B1CFCC2079F0893349F4EFEFEE
:104B6000F7EE23E0E150F0402040E1F700C0000004
:104B70008D2F0E946E14C4CE8C2F8F71C0CFC63182
:104B8000BCE7DB07F1F480918E038A7A91E009F4A7
:104B900090E09093510265E3811101C069E284E4E1
:104BA00092E00E944A0D0E949713C8C9C631ECE7F3
:104BB000DE0771F580915102882309F44ECC85E31C
:104BC0004DCCC737FCE7DF0709F454CCC8372CE7D6
:104BD000D20709F45CCC81E09E01205E3245203290
:104BE000310508F056CC811154CCCF7181E090E0B2
:104BF000DC0102C0AA0FBB1FCA95E2F7ED016A2FC4
:104C000083E090E00E94C532CE010E949D1196C9BA
:104C1000C7373CE7D30709F436CCC8379CE7D90738
:104C2000D9F682E031CC8CE19DE066C9C234FEE762
:104C3000DF0709F419CAC3343EE7D30709F071C985
:104C4000222309F494C988E19DE056C9C1348EE756
:104C5000D80749F330F4C034AEE7DA0709F061C988
:104C600049C9C234BEE7DB0709F4FBC9C334EEE728
:104C7000DE0749F356C9B0E0A0E0E1E4F6E20C94A7
:104C8000723280917902807F09F050C08091780261
:104C9000882309F44BC0E091FE0387E0D82E809171
:104CA000C5038E1709F442C00E2F10E0ED9DF001F0
:104CB0001124EA53FC4F84818823E9F1D09EE0015E
:104CC000D19ED00D1124FE01EA53FC4F91818091B9
:104CD0007402981330C090818091730298132BC096
:104CE0008581811128C0E280F380809175029091C6
:104CF0007602E81AF90A60E083E792E00E94C411A4
:104D00008FEAE816F104B8F4809179028F7080611F
:104D100080937902C453DC4F88818F7080618883CF
:104D200083E792E00E94ED1E0E943E10CDB7DEB7F1
:104D3000E7E00C948E32F8013196E770B0CFA4E131
:104D4000B0E0E5EAF6E20C946A328C0186E0F80104
:104D5000DE011F9601900D928A95E1F7F801F4802B
:104D6000E58083E7882E82E0982E8091770281117A
:104D70002AC0F11003C0FF24F3941CC0EE20F9F008
:104D8000C8010E94A211F82E8823C9F087E0F8011B
:104D9000A3E7B2E001900D928A95E1F78091770246
:104DA000813031F480917302909174020E947C10E2
:104DB0000E943B268F2D6496EFE00C948632C8014A
:104DC0000E94ED1ED8CFC280D380B090780280912F
:104DD0007502909176023601681A790ABB2009F4AF
:104DE000F7C05080A18060E083E792E00E94C41188
:104DF000FFEA6F16710408F0A4C0FF2009F4BBCFCE
:104E000080917902382F307F20917402F8019181CE
:104E1000311157C0FE2C291314C0209173029081C8
:104E200029130FC0E11046C08F7080618093790212
:104E300083E792E00E94ED1E80917902F80186835B
:104E4000B9CFE11037C06A2D852D0E94AA0B6A2DBB
:104E5000852D0E94AA0BE82E8111ACCF5F86A88A0F
:104E60008F8598890E947C10292F22952F702430DD
:104E700058F49F70223080F0992391F0F8019681C8
:104E8000907F71F4FE2C96CF2A50223068F0C80132
:104E90000E94ED1EEB2CF6CF992311F0882391F39D
:104EA000805E8830A0F7EECF803F60F3815F833073
:104EB00070F7E8CF80917902816080937902F12CBC
:104EC00079CF291315C0209173029081291310C046
:104ED000E1100EC08683C8010E94ED1E87E0F80134
:104EE000A3E7B2E001900D928A95E1F7FB2C62CF27
:104EF000C8010E94A211882309F461CFEE2009F4B1
:104F00005ECF80917902803288F0209173023091D7
:104F1000740239872887DB86CA86909177029C873E
:104F20001D868E87CE0108960E94ED1E87E0F8014F
:104F3000A3E7B2E001900D928A95E1F70E943B262B
:104F40001ACF80917902982F907F51F483E792E0F5
:104F50000E94ED1E87E0F40111928A95E9F7AFCF28
:104F6000FF2009F408CF20917402F80191812913E0
:104F700011C020917302908129130CC0E1100AC066
:104F80008683C8010E94ED1E87E0F40111928A9584
:104F9000E9F7ACCFC8010E94A211882309F40FCF12
:104FA000EE2009F40CCF80917902803208F4BECF54
:104FB00020917302309174023A832983DC82CB8280
:104FC000909177029D831E828F83CE010196ACCF94
:104FD00060E083E792E00E94C411FFEA6F1671045B
:104FE00008F0B8CFFF2009F4C6CEFE2CEE2009F45D
:104FF000E6CE90917402F801818198132DC09091B2
:1050000073028081981328C0809175029091760276
:10501000C81AD90AFFEACF16D104A8F490917902F0
:1050200090FD11C0907F79F080917902F80186831C
:10503000903F31F0982F907F905F8F70892B8683FF
:10504000C8010E94ED1E87E0F801A3E7B2E00190DD
:105050000D928A95E1F7AECEC8010E94A21181118E
:1050600065CF80917902816080937902C8010E94A6
:10507000ED1EA0CEABE1B0E0E0E4F8E20C947632B5
:105080004E8B5F8B688F798F8A8F9B8F91111092D7
:105090008D031D8A86E0FE017696DE011F96019043
:1050A0000D928A95E1F78B89882351F061E0CE015A
:1050B0000F960E94C41161E0CE010F960E94C411A8
:1050C00087E0FE013F96DE01189601900D928A95C9
:1050D000E1F7CE0108960E949F2681112AC087E041
:1050E000FE013896DE01119601900D928A95E1F746
:1050F0008C858823F1F02091C50330E0C901019629
:10510000877099274091FE034817190659F197E0D7
:10511000929FD001939FB00D1124AA53BC4FFE0162
:10512000319601900D929A95E1F78093C5030E9404
:105130003E1017E08091FE039091C5038917F9F0A6
:10514000819FC00111248A539C4F0E949F2688236F
:10515000B1F08091FE0390E00196877099278093CB
:10516000FE03E8CF0E94D3131092C5031092FE03F2
:1051700087E0E3E7F2E0DF011D928A95E9F76B969D
:10518000E3E00C949232A6E0B0E0E9ECF8E20C9493
:1051900075320E940D188C018091830290918402D7
:1051A0008017910781F019821A820E940D18682FCA
:1051B00049815A81792F80E090E00E943A2810932B
:1051C0008402009383022696E4E00C9491321F92AD
:1051D0000F920FB60F9211248F939F93AF93BF93AB
:1051E0008091A103811113C08091A2039091A30328
:1051F000A091A403B091A5034196A11DB11D809378
:10520000A2039093A303A093A403B093A503BF911B
:10521000AF919F918F910F900FBE0F901F90189597
:10522000CF93DF93EC010E940D188C1B9D0BDF9137
:10523000CF910895ABE0B0E0E0E2F9E20C94673280
:1052400085B7806885BF85B7806885BF84B7877F4D
:1052500084BF0FB6F894A895809160008861809310
:105260006000109260000FBE80E890E00FB6F894E6
:1052700080936100909361000FBE81E080936C0188
:105280006091690170916A0180916B0190916C014C
:105290000E9419188EEC9DE0909343028093420285
:1052A0000E94E00B0E947F0C8091E200846080935A
:1052B000E20078948091BB03882399F01091E90073
:1052C0001F708091EC0080FFA5C180E8182B109220
:1052D000E9008091E80083FD0E9435181F7010934B
:1052E000E90082E084BD93E095BD9AEF97BD80937D
:1052F0006E001092AC021092AD021092AE021092AB
:10530000AF028091D80080618093D8002AE12A956D
:10531000F1F700C08091D900182F117080FD04C0F2
:105320000E94E00B1092BB03109391031093920321
:105330001093280111110E94F03080912801809172
:10534000280190E0811101C095E09093BB0285E0B7
:10535000891B8093BA020EE212E0D8018D918D0173
:105360008F3F11F00E94D00DB2E003331B07A9F765
:1053700003E312E0A9E3EA2EA2E0FA2EF8018191FC
:105380008F018F3F11F00E94D00DE016F106B1F7AA
:105390008AE0EEEBF2E0DF01282F1D922A95E9F773
:1053A000E0EBF2E0DF011D928A95E9F790E080E002
:1053B0000E94AF32853E9E4F09F461C065EE7EEFDC
:1053C00090E080E00E94E33260E082E090E00E94A2
:1053D000C53281E090E09093BD028093BC0261E011
:1053E00083E090E00E94C53260E074E184E090E0E8
:1053F0000E94E33260E086E090E00E94C53260E007
:1054000087E090E00E94C53240E050E0BA0188E0B9
:1054100090E00E94D73260E083E290E00E94C532C3
:1054200060E08CE090E00E94C53260E08DE090E0AA
:105430000E94C53219821A821B821C821D821E8222
:105440001F82188648E050E067E170E0CE010196C7
:105450000E94B53240E050E0BA018FE190E00E9436
:10546000D73240E050E0BA018FE090E00E94D7329E
:1054700040E050E0BA0183E190E00E94D73282E040
:1054800090E00E94A7328093C80284E090E00E94DE
:10549000AF32909353038093520383E090E00E94D5
:1054A000A73290E00E949D11809191038111B4C0B8
:1054B00082E08093740380E88093FF030E948E2F24
:1054C0006BE070E08FE89FE00E943C168823E9F1D2
:1054D0008091740365E070E081FDA0C08AE89FE0E0
:1054E0000E943C16882389F16DE070E088E79FE018
:1054F0000E943C16882349F10E943B0D605A754179
:105500008F4F9F4F60937A0370937B0380937C034C
:1055100090937D03E8E0F4E080E092E0DF019C01FD
:105520001D9221503040E1F7F0930906E093080600
:105530008FEF9FEF909307048093060481E08093A0
:105540007F0380937E0310927503809191038111F4
:1055500002C00E94F33089E291E090939603809319
:105560009503FAE08F2E912CA12CB12C8091BB03D6
:1055700010E4853009F489C00E947B1D79ECE72E88
:1055800072E0F72EEEEBCE2EE2E0DE2ED601F70132
:1055900091918D9122E0E33DF20709F480C09817C4
:1055A000B9F34090910310E0D6010D916D01F70120
:1055B00051907F01501631F1712C6624639450266E
:1055C000852D8621B9F04420A9F079821A830E94A2
:1055D0000D189C838B83F1E0FD8391E0862D802361
:1055E00009F490E09E8349815A816B817C818D8191
:1055F0000E943A287394660C26E07212E1CFF701FC
:10560000319700831F5F1A3079F60E94E70D31E071
:1056100039874AC080E05ACE80E04BCF85E89FE0D2
:105620005FCF8091BB03843029F10E94491610920C
:10563000A10348E150E00FB6F894A89540936000AC
:105640000FBE1093600083B7817F846083BF83B7F0
:10565000816083BF7894889583B78E7F83BF0FB6B0
:10566000F894A89580916000886180936000109202
:1056700060000FBE0E947B1DEEEBF2E08191811174
:10568000E5C352E0E83CF507C9F78091BB038530DC
:1056900009F4C7CF0E94D3130E94AE0D6DCF9813AB
:1056A00080CF0E94C328198680919103882309F432
:1056B00027C100918F031091900301151105F9F096
:1056C000E090D302F090D4020E940D188E199F0929
:1056D000803B9105A0F0112790E080E00230110599
:1056E00040F464E0000F111F6A95E1F7C8018D5C7A
:1056F0009E4FDC0115962C9122FF0E941814C09039
:10570000E002D090E1020D2C000CEE08FF08109191
:105710005301212F30E0E0EEF2E081E090E032969C
:10572000281739070CF032C14090DC025090DD029E
:105730006090DE027090DF020E943B0D9B01AC0185
:10574000241935094609570929013A0139EC43164C
:1057500051046104710414F18091DB0290E0019620
:1057600069E170E00E9405338093DB02880F991F86
:10577000FC01E052FD4F11821082812F183108F098
:1057800087E18F5F809353010E943B0D6093DC02A1
:105790007093DD028093DE029093DF0242E0C41634
:1057A000D104E104F1045CF1A0E6BAEEA701960190
:1057B0000E9460336B017C0158EC159F900111240D
:1057C000032E000C440B550B240D351D461D571D93
:1057D000A5E0B0E00E9460339B01AC01C701B601B7
:1057E0000E941933213F31054105510524F020EF76
:1057F00030E040E050E069017A01F7FE03C0C12CBF
:10580000D12C76014090D7025090D8026090D902F6
:105810007090DA020E943B0D9B01AC0124193509FE
:105820004609570929013A0135E643165104610436
:10583000710484F00E943B0D6093D7027093D802EC
:105840008093D9029093DA0280914C038093D60220
:10585000C092D5021091D602A091D502A11BBB0B1C
:10586000A30192010E946B3324E630E040E050E057
:105870000E943B33120F10934C03809182038823C4
:1058800069F00E940D182091800330918103821BE2
:10589000930B8F3F9F4710F40E9449140091880397
:1058A000109189030115110559F1C0908403D0901E
:1058B0008503E0908603F09087030E943B0D6C19EE
:1058C0007D098E099F0961367A4E81059105C0F0E8
:1058D0000095109580912A0390912B0380239123AA
:1058E0000E94F21010928903109288030E943B0DCF
:1058F000609384037093850380938603909387035A
:1059000080917F03882309F447C2009176031091A8
:1059100077030E940D18801B910BC29708F48BC06F
:105920000E940D18909377038093760388E094E0AB
:10593000909309068093080680919103882309F4C7
:10594000B8C080912A0390912B038430910509F40B
:10595000A0C040F50097A1F16BE771E0823091059E
:1059600089F19F938F9389EB91E09F938F931F927F
:1059700088E18F9382E193E09F938F930E949F33FE
:105980000FB6F894DEBF0FBECDBF20C0408151815D
:10599000052E000C660B770BC40ED51EE61EF71EF7
:1059A0000196BDCE8031910509F476C0863191050E
:1059B00009F472C088309105A1F669E971E002C06E
:1059C0006DE671E082E193E00E94983382E193E01A
:1059D0000E94241681E00E9465138091530380FF8A
:1059E0005EC087E591E09F938F9384E591E09F935C
:1059F0008F9389EC91E09F938F931F9288E18F930F
:105A00008CE293E09F938F930E949F330FB6F8949C
:105A1000DEBF0FBECDBF8CE293E00E94241681E072
:105A20000E94651380918203882309F43FC08FECA4
:105A300091E00E9424168091060490910704892B1E
:105A400009F491C180917F03882309F48CC180916E
:105A50007503811188C10E9464162091060430915B
:105A600007042115310509F47EC180E041E050E0D2
:105A7000C82ED12C3A01082E02C0660C771C0A945D
:105A8000E2F7B30162237323672B09F0D3C08F5F62
:105A9000EFCF6AE871E096CF6BEA71E093CF8DE5C6
:105AA00091E09F938F938AE591E0A1CF8EED91E0F5
:105AB000C0CF80914C03882309F483C00E946416F0
:105AC000C0904803D0904903E0904A03F0904B0304
:105AD0000E943B0D6C197D098E099F09693C710577
