:100000000C949A0E0C94B70E0C94B70E0C946430AA
:100010000C94B70E0C94B70E0C94B70E0C94B70E4C
:100020000C94B70E0C94B70E0C94731D0C94371DE2
:100030000C94A3280C94B70E0C94B70E0C94B70E26
:100040000C94B70E0C94B70E0C94B70E0C94B70E1C
:100050000C94B70E0C946E190C94B70E0C94B70E4A
:100060000C94B70E0C94B70E0C94B70E0C94B70EFC
:100070000C94B70E0C94B70E0C94B70E0C94B70EEC
:100080000C94B70E0C94B70E0C94B70E0C94B70EDC
:100090000C94B70E0C94B70E0C94B70E0C94B70ECC
:1000A0000C94B70E0C94B70E0C94B70E0000000021
:1000B0000000000000000000000000000000000040
:1000C0000000000000000000000000000000000030
:1000D0000000000000000000000000000000000020
:1000E0000000000000000000000000000000808010
:1000F00080404020201008040204081010202040F6
:1001000040808000000000000000000000000000AF
:1001100000000000000000000000000000000000DF
:1001200000000000000000000000000000000000CF
:1001300000000000000000000000000000000000BF
:1001400000000000000000000000000000000000AF
:100150000000000000000000000000000000003F60
:10016000C1010102020404040402020101010000B1
:10017000000000008000004080804000003030001F
:10018000000000010264180412C2CA2488F08080B2
:10019000404040402020202010101010080808087F
:1001A0000404040402020202010101010000000033
:1001B000000000000000000000000000000000003F
:1001C000000000000000000000000000000000002F
:1001D0000000000000000000000000000000E01827
:1001E0000601000000000000000000000080838382
:1001F000404040402021212010101010080808081D
:1002000004040404020202020101010100000000D2
:1002100000000000000000000000000000000000DE
:1002200000000000000000000000000000000000CE
:1002300000000000000000000000000000000000BE
:1002400000000000000000000000000080808080AE
:10025000404040402020202010101010080F0808B7
:1002600004040404020408101020204040414224E9
:1002700098C088888C9C1C1E0E06000000000000A0
:10028000000000000000000000000000000000006E
:10029000000000000000000000000000000000005E
:1002A000000000000000000000000000000000004E
:1002B000000000000000000000000000000000003E
:1002C000000000000000000000000000000000002E
:1002D000000000000000000000000000000000001E
:1002E000000000000000000000000000000000000E
:1002F00000000000000000000000000000000000FE
:1003000000000000000000000000000000000000ED
:1003100000000000000000000000000000000000DD
:1003200000000000000000000000000000000000CD
:1003300000000000000000000000000000000000BD
:1003400000000000000000000000000000000000AD
:10035000000000000000000000000000000000009D
:10036000000000000000000000008080804040206D
:100370002010080402040810102020404080800053
:10038000000000000000000000000000000000006D
:10039000000000000000000000000000000000005D
:1003A000000000000000000000000000000000004D
:1003B000000000000000000000000000000000003D
:1003C000000000000000000000000000000000002D
:1003D00000000000000000000000003FC101010219
:1003E0000204844444428201010100000000000034
:1003F000800000408080400000303000000000019C
:100400000204040808102040808080804040404062
:1004100020202020101010100808080804040404EC
:1004200002020202010101010000000000000000C0
:1004300000000000000000000000000000000000BC
:1004400000000000000000000000000000000000AC
:1004500000000000000000000000E018060100009D
:100460000C03000218190005FE80838340404040C1
:10047000202121201010101008080808040404048A
:100480000408304080800000018698600000000071
:10049000000000000000000000000000000000005C
:1004A000000000000000000000000000000000004C
:1004B000000000000000000000000000000000003C
:1004C000000000000000000080808080404040402C
:1004D0002020202010101010080F08080404040425
:1004E0000202020201010101000000000000000000
:1004F0000000000000000000000000060F0F0703CE
:100500000361F0F8FC600101013C78F8F070000034
:1005100000000000000000000000000000000000DB
:1005200000000000000000000000000000000000CB
:1005300000000000000000000000000000000000BB
:1005400000000000000000000000000000000000AB
:10055000000000000000000000000000000000009B
:10056000000000000000000000000000000000008B
:10057000000000000000000000000000000000007B
:10058000000000000000000000000000000000006B
:10059000000000000000000000000000000000005B
:1005A000000000000000000000000000000000004B
:1005B000000000000000000000000000000000003B
:1005C000000000000000000000000000000000002B
:1005D000000000000000000000000000000000001B
:1005E00000000000000080808040402020100804AF
:1005F000020408101020204040808000000000000D
:1006000000000000000000000000000000000000EA
:1006100000000000000000000000000000000000DA
:1006200000000000000000000000000000000000CA
:1006300000000000000000000000000000000000BA
:1006400000000000000000000000000000000000AA
:10065000000000000000003FC101010202048444C8
:1006600044428201010100000000000080000040BF
:100670008080400000303000000000010264180457
:1006800012C2CA2488F080804040404020202020B0
:1006900010101010080808080404040402020202E2
:1006A0000101010100000000000000000000000046
:1006B000000000000000000000000000000000003A
:1006C000000000000000000000000000000000002A
:1006D000000000000000E018060100000C0300020A
:1006E00018190005FE8083834040404020212120CE
:1006F0001010101008080808040404040202020282
:1007000001010101000000000000000000000000E5
:1007100000000000000000000000000000000000D9
:1007200000000000000000000000000000000000C9
:1007300000000000000000000000000000000000B9
:100740000000000080808080404040402020202029
:1007500010101010080F080804040404020202021A
:100760000101010100000000000000000000000085
:100770000000000000000000000000000000000079
:100780000000000000000000000000000000000069
:100790000000000000000000000000000000000059
:1007A0000000000000000000000000000000000049
:1007B0000000000000000000000000000000000039
:1007C0000000000000000000000000000000000029
:1007D0000000000000000000000000000000000019
:1007E0000000000000000000000000000000000009
:1007F00000000000000000000000000000000000F9
:1008000000000000000000000000000000000000E8
:1008100000000000000000000000000000000000D8
:1008200000000000000000000000000000000000C8
:1008300000000000000000000000000000000000B8
:1008400000000000000000000000000000000000A8
:100850000000000000000000000000000000008018
:10086000804040402020202020180402010204087B
:1008700010202040408080000000000000000000A8
:100880000000000000000000000000000000000068
:100890000000000000000000000000000000000058
:1008A0000000000000000000000000000000000048
:1008B0000000000000000000000000000000000038
:1008C0000000000000000000000000000000000028
:1008D0000000003FC10101020204040404020201FD
:1008E0000000000000000000800000408080400008
:1008F000003030000000000102040408081020400D
:100900008080808040404040202020201010101027
:10091000080808080404040402020202010101019B
:1009200000000000000000000000000000000000C7
:1009300000000000000000000000000000000000B7
:1009400000000000000000000000000000000000A7
:100950000000E01806010000000000000000000098
:10096000008083834040404020212120101010103F
:1009700008080808040404040408304080800000CB
:1009800001869860000000000000000000000000E8
:100990000000000000000000000000000000000057
:1009A0000000000000000000000000000000000047
:1009B0000000000000000000000000000000000037
:1009C0008080808040404040202020201010101067
:1009D000080F080804040404020408101020204032
:1009E0004041422418000000000000000000000008
:1009F00000000000000000000000000000000101F5
:100A000001000000000000000000000000000000E5
:100A100000000000000000000000000000000000D6
:100A200000000000000000000000000000000000C6
:100A300000000000000000000000000000000000B6
:100A400000000000000000000000000000000000A6
:100A50000000000000000000000000000000000096
:100A60000000000000000000000000000000000086
:100A70000000000000000000000000000000000076
:100A80000000000000000000000000000000000066
:100A90000000000000000000000000000000000056
:100AA0000000000000000000000000000000000046
:100AB0000000000000000000000000000000000036
:100AC0000000000000000000000000000000000026
:100AD0000000000000000000000000000000808016
:100AE0004040402010080402010204081020408009
:100AF0008000000000000000000000000000000076
:100B000000000000000000000000000000000000E5
:100B100000000000000000000000000000000000D5
:100B200000000000000000000000000000000000C5
:100B300000000000000000000000000000000000B5
:100B40000000000000000000000000000000003F66
:100B5000C1010102020404040402020101010000B7
:100B600000000000000000800000800000606000C5
:100B700000010204040808101020204080808080BA
:100B80004040404020202020101010100808080885
:100B90000404040402020202010101010000000039
:100BA0000000000000000000000000000000000045
:100BB0000000000000000000000000000000000035
:100BC0000000000000000000000000000000C03035
:100BD0000C0300000000000000000000008086867A
:100BE000404040402122222011111010080808081E
:100BF00004040404040830408080000001869860EA
:100C000000000000000000000000000000000000E4
:100C100000000000000000000000000000000000D4
:100C200000000000000000000000000000000000C4
:100C300000000000000000000000000080808080B4
:100C4000404040402020202010101010080F0808BD
:100C500004040404020408101020204040414224EF
:100C6000180000000000000000000000000000006C
:100C70000000000000000000000001010100000071
:100C80000000000000000000000000000000000064
:100C90000000000000000000000000000000000054
:100CA0000000000000000000000000000000000044
:100CB0000000000000000000000000000000000034
:100CC0000000000000000000000000000000000024
:100CD0000000000000000000000000000000000014
:100CE0000000000000000000000000000000000004
:100CF00000000000000000000000000000000000F4
:100D000000000000000000000000000000000000E3
:100D100000000000000000000000000000000000D3
:100D200000000000000000000000000000000000C3
:100D300000000000000000000000000000000000B3
:100D400000000000000000000000000000000000A3
:100D50000000000000000000000080808080404013
:100D600020100804020408102040808000000000C9
:100D70000000000000000000000000000000000073
:100D80000000000000000000000000000000000063
:100D90000000000000000000000000000000000053
:100DA0000000000000000000000000000000000043
:100DB0000000000000000000000000000000000033
:100DC00000000000000000000000007E820202041B
:100DD00004080808080404020101000000000000E3
:100DE000000000800000800000606000010102043B
:100DF000040808101020204080808080404040403F
:100E000020202020101010100808080804040404F2
:100E100002020202010101010000000000000000C6
:100E200000000000000000000000000000000000C2
:100E300000000000000000000000000000000000B2
:100E400000000000000000000000C0300C030000A3
:100E50000000000000000000008086864040404006
:100E6000212222201111101008080808040404048B
:100E70000408304080800000018698600000000077
:100E80000000000000000000000000000000000062
:100E90000000000000000000000000000000000052
:100EA0000000000000000000000000000000000042
:100EB0000000000000000000808080804040404032
:100EC0002020202010101010080F0808040404042B
:100ED0000204081010202040404142241800000065
:100EE0000000000000000000000000000000000002
:100EF00000000000000001010100000000000000EF
:100F000000000000000000000000000000000000E1
:100F100000000000000000000000000000000000D1
:100F200000000000000000000000000000000000C1
:100F300000000000000000000000000000000000B1
:100F400000000000000000000000000000000000A1
:100F50000000000000000000000000000000000091
:100F60000000000000000000000000000000000081
:100F70000000000000000000000000000000000071
:100F80000000000000000000000000000000000061
:100F90000000000000000000000000000000000051
:100FA0000000000000000000000000000000000041
:100FB0000000000000000000000000000000000031
:100FC0000000000000000000000000000000000021
:100FD0000000000000008080808040402010080455
:100FE0000204081020408080000000000000000083
:100FF00000000000000000000000000000000000F1
:1010000000000000000000000000000000000000E0
:1010100000000000000000000000000000000000D0
:1010200000000000000000000000000000000000C0
:1010300000000000000000000000000000000000B0
:101040000000000000001C34C40404040808080860
:1010500008040402010100000000000080000040BC
:1010600080804000003030000101020204040408C6
:101070000810204080808080404040402020202078
:1010800010101010080808080404040402020202E8
:10109000010101010000000000000000000000004C
:1010A0000000000000000000000000000000000040
:1010B0000000000000000000000000000000000030
:1010C000000000000000E018060100000000000021
:1010D0000000000000808383404040402021212008
:1010E0001010101008080808040404040408304014
:1010F0008080000001869860000000000000000071
:1011000000000000000000000000000000000000DF
:1011100000000000000000000000000000000000CF
:1011200000000000000000000000000000000000BF
:10113000000000008080808040404040202020202F
:1011400010101010080F080804040404020408100A
:101150001020204040414224180000000000000000
:10116000000000000000000000000000000000007F
:10117000000001010100000000000000000000006C
:10118000000000000000000000000000000000005F
:10119000000000000000000000000000000000004F
:1011A000000000000000000000000000000000003F
:1011B000000000000000000000000000000000002F
:1011C000000000000000000000000000000000001F
:1011D000000000000000000000000000000000000F
:1011E00000000000000000000000000000000000FF
:1011F00000000000000000000000000000000000EF
:1012000000000000000000000000000000000000DE
:1012100000000000000000000000000000000000CE
:1012200000000000000000000000000000000000BE
:1012300000000000000000000000000000000000AE
:10124000000000000000000000000000000000801E
:101250008040404020202020201804020102040881
:1012600010202040408080000000000000000000AE
:10127000000000000000000000000000000000006E
:10128000000000000000000000000000000000005E
:10129000000000000000000000000000000000004E
:1012A000000000000000000000000000000000003E
:1012B000000000000000000000000000000000002E
:1012C00000060D31C1010101020202040402020103
:1012D000000000000000000080000040808040000E
:1012E0000030300000000001020404080810204013
:1012F000808080804040404020202020101010102E
:1013000008080808040404040202020201010101A1
:1013100000000000000000000000000000000000CD
:1013200000000000000000000000000000000000BD
:1013300000000000000000000000000000000000AD
:101340000000E0180601000000000000000000009E
:101350000080838340404040202121201010101045
:1013600008080808040404040408304080800000D1
:1013700001869860000000000000000000000000EE
:10138000000000000000000000000000000000005D
:10139000000000000000000000000000000000004D
:1013A000000000000000000000000000000000003D
:1013B000808080804040404020202020101010106D
:1013C000080F080804040404020408101020204038
:1013D000404142241800000000000000000000000E
:1013E00000000000000000000000000000000101FB
:1013F00001000000000000000000000000000000EC
:1014000000000000000000000000000000000000DC
:1014100000000000000000000000000000000000CC
:1014200000000000000000000000000000000000BC
:1014300000000000000000000000000000000000AC
:10144000000000000000000000000000000000009C
:10145000000000000000000000000000000000008C
:10146000000000000000000000000000000000007C
:10147000000000000000000000000000000000006C
:101480000000000000000000000000004A001E00F4
:101490001F00200021002200350014001A0008005F
:1014A00015001700292204221628072409210A43BF
:1014B00031001D001B00060019000500000052004D
:1014C000510021522B42AA004D0027002600250082
:1014D000240023002D00130012000C0018001C0033
:1014E000340033320F380E340D310B002E02380029
:1014F000370036001000110000004F00500022524B
:101500002C41A900000000000000000000000000C5
:1015100000000000000000000000000000001E02AB
:101520001F02200221022202000000000000000031
:101530000000000000000100010001002A004C0032
:101540000000000000000000000000000000300269
:101550002F020000000000003502270226022502AB
:1015600024022302000030022F02000000000000CD
:101570000000010001000100010001000000000066
:10158000000000000000000000000000000000005B
:101590000000000000001E001F00200021002200AB
:1015A000000000000000000000000000000001003A
:1015B0000100010001000100000000000000000027
:1015C000000000000000000000000000000000001B
:1015D0000000270026002500240023000000000052
:1015E00000000000000000000000010001000100F8
:1015F0002800A8000000000000000000000000001B
:101600000000000000000000000000000100E100F8
:10161000E300E200E0000100000000000000000024
:1016200000000000000001000100010001000100B5
:1016300000000000000000000000000000000000AA
:101640004E0052004B00000000004D004F005100C2
:1016500050004A00000000000000000000000000F0
:10166000000001000100010001007B7C000000007F
:101670000000000000000000000000001C700000DE
:10168000000000000000000000000000000000005A
:101690000000000000000000000000000000010049
:1016A0000100010001000000000000000000000037
:1016B000000000000000000000000000000000002A
:1016C000000000000000000000000000000000001A
:1016D000000000001B70000000000100010001007C
:1016E0000100000000DA0281FFD9F1DB20A4A62E60
:1016F000AF00A0C0D30000A1C8D30000AED580A821
:101700001F408D14200000AF00AE05010980A1012B
:10171000850319012AB700150126B7009501751038
:101720008100C0050C0901A101850419012AA0024C
:10173000150126A002950175108100C0050109065A
:10174000A101050719E029E7150025019508750194
:1017500081029501750881010507190029FF15000F
:1017600026FF009506750881000508190129051551
:10177000002501950575019102950175039101C040
:1017800009023B00020100A0FA0904000001030164
:10179000010009211101000122440007058103080D
:1017A00000010904010001030000000921110100EA
:1017B000012232000705820320000112010002000D
:1017C000000008D8042DEB0001010200010E034CBB
:1017D0000069006C00790035003800000010036CCF
:1017E0000069006C00690075006D00730000000462
:1017F0000309040000000000003E5B4F5B3E003E1A
:101800006B4F6B3E001C3E7C3E1C00183C7E3C181F
:10181000001C577D571C001C5E7F5E1C0000183C9E
:10182000180000FFE7C3E7FF00001824180000FFBE
:10183000E7DBE7FF0030483A060E00262979292623
:1018400000407F05050700407F05253F005A3CE723
:101850003C5A007F3E1C1C0800081C1C3E7F0014E4
:10186000227F2214005F5F005F5F0006097F017F17
:1018700000006689956A0060606060600094A2FF65
:10188000A2940008047E04080010207E20100008A6
:10189000082A1C0800081C2A0808001E1010101036
:1018A000000C1E0C1E0C0030383E383000060E3E78
:1018B0000E060000000000000000005F00000000B5
:1018C0000700070000147F147F1400242A7F2A12C7
:1018D00000231308646200364956205000000807B0
:1018E000030000001C224100000041221C00002ACD
:1018F0001C7F1C2A0008083E080800008070300089
:1019000000080808080800000060600000201008B7
:101910000402003E5149453E0000427F40000072F3
:1019200049494946002141494D33001814127F109E
:10193000002745454539003C4A49493100412111BC
:10194000090700364949493600464949291E000021
:101950000014000000004034000000000814224180
:101960000014141414140000412214080002015938
:101970000906003E415D594E007C1211127C007F29
:1019800049494936003E41414122007F4141413EA3
:10199000007F49494941007F09090901003E414151
:1019A0005173007F0808087F0000417F410000203C
:1019B00040413F01007F08142241007F40404040E9
:1019C000007F021C027F007F0408107F003E41411F
:1019D000413E007F09090906003E4151215E007F1A
:1019E000091929460026494949320003017F0103AC
:1019F000003F4040403F001F2040201F003F403834
:101A0000403F00631408146300030478040300617A
:101A100059494D4300007F41414100020408102014
:101A200000004141417F00040201020400404040A7
:101A30004040000003070800002054547840007F15
:101A40002844443800384444442800384444287F1B
:101A50000038545454180000087E09020018242449
:101A60001C78007F080404780000447D40000020BA
:101A700040403D00007F102844000000417F4000AE
:101A8000007C04780478007C08040478003844441E
:101A90004438007C1824241800182424187C007C66
:101AA000080404080048545454240004043F442407
:101AB000003C4040207C001C2040201C003C40306A
:101AC000403C004428102844004C9090907C0044F6
:101AD00064544C44000008364100000000770000C8
:101AE000000041360800000201020402003C2623E7
:101AF000263C000000000000808080800000000084
:101B00000080E070180C1830E080000010F8901091
:101B100030783010B8FC3810000000000000F8FCED
:101B2000F8000000000000000000000000001C9C05
:101B30001C00000000F8FCF80000000000001CFC85
:101B4000F8C000000000000080E0F87C1C000000ED
:101B5000F0FCFCFC1C1C1C1C1C1C1C1C00000000C1
:101B60000000C0F0F8381C1C1C1C1C1C3CF8F0E0E9
:101B700000E0F0F0F0E0ECEEF7F37020007C7C7C0D
:101B80007E007E7E7E7F7F7F000080C0E07E5B4F98
:101B90005BFEC00000C000DCD7DEDEDED7DC00C0AC
:101BA0000000000000000000000000000000000035
:101BB00000000000000000000FBCE08181818383F1
:101BC00082870C183060C000001FFE90B9FFBB91E7
:101BD000983C1811133F1100000000000000FFFFA7
:101BE000FF00000000000000000000000000FFFFF8
:101BF000FF00000000FFFFFF0000000000000000E9
:101C0000030F7FF8E080F0FC3F0F010000000000B0
:101C10003F3F3F1C1C1C1C1C3C78F8F0E08000007F
:101C20000000C3E7FF7E3C3878787070F8FFDF87EC
:101C3000000F1F3F7F7F7F7F7F3F1E0C001F1F1FF6
:101C40003F003F3F3F7F7F7F00307B7F7830202009
:101C500030787F3B0003000F7F0F0F0F7F0F0003D3
:101C60000000000000000000000000000000000074
:101C7000000000183C24666341C181808080808020
:101C80008081C14162386C4CC681818080808080B7
:101C900081C14362361C1800000000000000FFFFF5
:101CA000FFC0C0C0C0C0C0C0C0C0800000007FFF77
:101CB0007F000000007FFFFFC080000000E0E0C068
:101CC000C0C0E0F97F1F0700000000000000000016
:101CD00070F0E0E0C0C0C0C0E0F0F87F3F0F00004F
:101CE000000F3F7FF9E0E0C0C0C0C0C0E0F97F3F17
:101CF0001F000000000000000000000000000000C5
:101D000000000000000000000000000000000000D3
:101D100000000000000000000000000000000000C3
:101D200000000000000000000000000000000000B3
:101D30000000000011241FBECFEFDAE0DEBFCDBFF0
:101D400011E0A0E0B1E0E0E4FBE602C005900D92F6
:101D5000AE3FB107D9F725E0AEEFB1E001C01D926B
:101D6000A13CB207E1F70E94D6280C949E350C9452
:101D70000000FF920F931F93CF93DF932091BF0535
:101D80003091C0052F5B3340A90144585D4F41306D
:101D90005240E8F040E052E0421B530B6091BD031B
:101DA0007091BE03D901A154BC4F420F531F821B37
:101DB000930BC1E0D0E02417350760F07093BE03A9
:101DC0006093BD03CDB7DEB7E5E00C94BE314CE7C0
:101DD00052E0E4CFFC01E20FF31FF490FD91FF16F7
:101DE000A1F08D0101501109F801F082F90115E00F
:101DF000F695E7951A95E1F78E0102C0000F111FC5
:101E0000EA95E2F7F801602B7F2B2F5F3F4FD3CF8E
:101E1000482F2091B50390917C0357E0291302C00D
:101E200080E0089530E0529FF001539FF00D11249F
:101E3000E358FC4F8181681306C08081481303C0BA
:101E400085818111EECF2F5F3F4F2770E7CFFC01D7
:101E5000AC014B5F5F4F8FEF91E32191822728E028
:101E600030E087FF09C0880F892721503109C9F761
:101E7000E417F50791F70895880FF7CFE8EDF0E044
:101E800080818E7F80831092E2001092DA0010929F
:101E9000E100A0EEB0E08C9181608C9380818F771F
:101EA000808319BCA7EDB0E08C918E7F8C938081EC
:101EB0008F7E808310925D0308952091E40030911D
:101EC000E50085E69091EC0090FF06C09091E80057
:101ED00090FF06C080E008959091E80092FDFACF4F
:101EE00090917203992391F0953091F09091EB00CD
:101EF00095FD10C04091E4005091E500241735078E
:101F000009F381509A01F1F684E0089582E0089582
:101F100083E0089581E008958091740387FF13C0E2
:101F20008091E80082FF06C08091E8008B77809363
:101F3000E80004C0809172038111F2CF089580916E
:101F400072038823D9F38091E80080FFF8CF809155
:101F5000E8008E77ECCF982F9093E900242F762F0E
:101F600050E0891731F07091EC002091ED00509114
:101F7000F00021FD07C09F5F973071F78093E90063
:101F800081E008953091EB003E7F3093EB0030917B
:101F9000ED003D7F3093ED003091EB0031603093E8
:101FA000EB007093EC002093ED005093F000209133
:101FB000EE0027FDE0CF80E00895B0E0A0E0E3EE82
:101FC000FFE00C949F31C8EDD0E088818F7E88833C
:101FD000E7EDF0E080818160808384E082BF81E072
:101FE00080935D0388818E7F888302EE10E0F80184
:101FF00010821092DA0081EEC82ED12CF6011082E8
:1020000088818F77888388818068888388818F7DA5
:10201000888319BC109272031092730310926703A5
:102020001092660390EEE92EF12CF70180818B7FF0
:10203000808388818160888342E060E080E00E9444
:10204000AB0FF60180818E7F8083F80180818160F3
:102050008083808188608083F70180818E7F808388
:10206000888180618883CDB7DEB7E8E00C94BB310E
:10207000FC0180917A0390917B0386179707A0F06B
:102080006115710529F49091E8009E779093E8001E
:1020900090E06115710551F4911108C08091E8003C
:1020A00082FF35C080E00895BC01F2CF80917203B9
:1020B0008823C9F18530C9F18091E80083FD31C0E2
:1020C0008091E80082FDEACF8091E80080FFE1CFB7
:1020D0002091F3008091F200322F282F61157105B5
:1020E00019F02830310558F091E02830310509F019
:1020F00090E02091E8002E772093E800CACF8191EC
:102100008093F100615071092F5F3F4FE7CF8091BD
:102110007203882341F0853041F08091E80083FF0D
:10212000BDCF81E0089582E0089583E00895089589
:1021300008952FB7F8946091590370915A038091D4
:102140005B0390915C032FBF089580914101089536
:102150009C01FC0132969FEF80E04191461751F0BF
:102160009F3F19F4411101C0982F8F5F8630A9F766
:102170009F3F09F40895290F311D97FD3A95F90104
:1021800062830895A3E0B0E0E8ECF0E10C94A5319F
:1021900020914E0330914F0328173907A1F09093F7
:1021A0004F0380934E03E0914C03F0914D03309721
:1021B00051F024E029839B838A830084F185E02DFC
:1021C000CE01019609952396E2E00C94C131A3E07B
:1021D000B0E0EDEEF0E10C94A53120914A0330918E
:1021E0004B0328173907A1F090934B0380934A03C0
:1021F000E0914C03F0914D03309751F023E0298397
:102200009B838A830084F185E02DCE010196099598
:102210002396E2E00C94C13180914803882359F061
:10222000E0914C03F0914D03309729F00190F0813B
:10223000E02D0995089580E0089580E00895F894D0
:10224000E82FE295EF70F0E031A1282F2F7081E0A8
:1022500090E001C0880F2A95EAF7982F9095932374
:1022600091A392A1892B82A3789408950F931F9331
:1022700080914803882329F00E9499101F910F91A3
:1022800008950E94991000916702109168022091B0
:10229000690230916A02600F711F821F931FEECF97
:1022A0009091100392FF10C041E0282F2471243038
:1022B00009F040E031E0282F2871283009F030E0A3
:1022C000431711F02CE0822793FF10C041E0282F24
:1022D0002471243109F040E031E0282F28712831A1
:1022E00009F030E0431711F02CE082273091110300
:1022F00030FF10C051E0282F2171213009F050E04B
:1023000041E0282F2871283009F040E0541711F0DF
:1023100029E0822731FF10C041E0282F21712131AF
:1023200009F040E031E0282F2871283109F030E031
:10233000431711F029E0822794FD877E08958238A3
:102340009105B9F1B0F48133910509F47DC048F4E9
:102350008932910509F46DC08A32910509F479C07A
:1023600008958533910509F45FC08933910509F11A
:102370000895833E9105D9F138F4803E910529F105
:10238000823E910579F10895863E9105D9F1873E07
:10239000910509F43EC0843E910541F52091110359
:1023A00021FF24C08091100384FD19C087EE90E0C6
:1023B000089520911003237009F056C02091110355
:1023C00023FF14C089E290E008952091100320FDBE
:1023D00038C03091110330FF09C024FF3FC090E0A6
:1023E00080E008952091100322FDF7CF08952091F9
:1023F000100322FD36C03091110330FD35C024FD9D
:10240000EECFF4CF2091100323FFF0CF24FDE7CFD0
:10241000CDCF2091100323FD2AC03091110331FF4D
:10242000EECF84EE90E008952091100325FDCACFF1
:1024300008952091100325FD1DC02091110323FF55
:10244000D5CF89E390E008952091100326FD15C0B3
:1024500008952091100326FD13C0089583EE90E0A7
:10246000089582EE90E0089580EE90E0089586EE63
:1024700090E0089585E390E008958AE290E0089561
:1024800081E390E0B3CF7A30B8F46630A8F48530B9
:10249000B0F4E62FF0E096E0799FE00DF11D1124F5
:1024A0009CE3899FE00DF11D1124EE0FFF1FE457FF
:1024B000FB4E85919491089580E090E0089581E02D
:1024C000FCCF1F93CF93DF930E949F11EC01C115A6
:1024D00080E5D807E8F5C11580E4D80708F09BC06F
:1024E000C03ED10518F5CD3CD10508F081C0C83AF1
:1024F000D10570F4C53AD10508F072C0C130D105DC
:1025000011F118F0C430D105F0F4D0E0C0E01BC0E8
:10251000C33CD105D0F7C85AD0E0CC0FDD1FCE5454
:10252000DE4F0990D881C02DD4640DC0C11580E262
:10253000D80708F0CBC0C11581E0D80708F05AC011
:10254000C83ED10510F7CE01DF91CF911F910895BC
:10255000C03682E5D80718F5C03482E5D80708F000
:1025600069C0C03282E5D80708F05DC0C11582E5B8
:10257000D80708F493C02C2F2695269580E2289F33
:10258000900111248C2F8370C1E0D0E002C0CC0FE9
:10259000DD1F8A95E2F7C22BD32BDD68D4CFC03A7A
:1025A00082E5D80760F4C03882E5D80708F457C040
:1025B000CF71D0E0DC2FCC27C46FD06AC4CFC03C31
:1025C00082E5D80708F45EC0C03E82E5D80708F06F
:1025D0009CCFDC2FCC27CC27DF71C06FD06AB3CF64
:1025E000C55AD0E0C155DE4FC881D0E0D064ABCF32
:1025F000D065A9CF8D2F0E945011182FCE01992799
:102600000E949F11C12FD0E0DC2FCC27CC27DF7197
:10261000C82BD92B98CFCE0199270E949F11CC2788
:10262000DF70D06AF5CFCF71D0E0DC2FCC27C16F3F
:10263000D06A89CF2C2F26952695277080E2289F77
:10264000900111248C2F8370C1E0D0E002C0CC0F28
:10265000DD1F8A95E2F7DC68C22BD32B74CF2C2FB9
:1026600026952695277080E2289F900111248C2FB3
:102670008370C1E0D0E002C0CC0FDD1F8A95E2F785
:10268000DA68EACF8C2F8F710E945011C82FD0E0EA
:10269000DC2FCC27CC27DF71D06255CF8C2F8F71E8
:1026A0000E94501155E0D695C7955A95E1F7CF7025
:1026B000D0E0DC2FCC27282F30E084FF05C044E099
:1026C000220F331F4A95E1F7D069C6CF8D2F8F7146
:1026D0000E945011182FCE0199270E949F11C12FDF
:1026E000D0E0DC2FCC27CC27DF71906291CF982FE0
:1026F000909580913D02892380933D0208958091B9
:10270000B50390917C03981301C008958F5F877083
:10271000FACFB0E0A0E0EFE8F3E10C949E317C0149
:102720000091E3021091E402809177029091780287
:10273000082B192BCFE0D0E0CC24C394D12CBC2E95
:10274000C6010C2E02C0880F991F0A94E2F780235D
:102750009123892B49F4219790F7B12C8B2DCDB77C
:10276000DEB7E9E00C94BA31B7018C2F0E94431216
:102770000E946112019779F3F1CFCF93DF93EC01BF
:102780000E948913BE010E9443120E946112DF91D0
:10279000CF9108959A3078F5863068F5E82FF0E00B
:1027A00086E0989FE00DF11D11249E2F977083E025
:1027B000F695E7958A95E1F7EE0FFF1FEE0FFF1FE5
:1027C000E45FFD4F50E040E080E0219130E0092ED1
:1027D00002C0369527950A94E2F721703327042E1C
:1027E00001C0220F0A94EAF7822B4F5F5F4F4430FB
:1027F000510559F7089580E008959A3098F586308C
:1028000088F5E82FF0E086E0989FE00DF11D112497
:102810008E2F877041E001C0440F8A95EAF783E06C
:10282000F695E7958A95E1F7EE0FFF1FEE0FFF1F74
:10283000E45FFD4F30E020E070E05191DF0111973F
:10284000CB01022E02C0969587950A94E2F781701B
:1028500081958527842385278C932F5F3F4F2430D4
:10286000310559F708959C0126703327263031052C
:1028700031F480619093E4028093E30208958F7EA7
:10288000F9CFE091E302F091E40221E030E0D901D8
:1028900002C0AA0FBB1F8A95E2F7CD01D90102C081
:1028A000AA0FBB1F6A95E2F7BD018A2B972B02C0C6
:1028B000220F331F4A95E2F7AF01482359238417AB
:1028C000950731F42E2B3F2BC9010E943314089534
:1028D000209530952E233F23F7CF21E030E002C032
:1028E000220F331F8A95E2F7209530958091E302FD
:1028F0009091E402822393230E94331408959091CF
:102900003E038095892380933E03282F277069F426
:10291000891759F09091110392FF07C0869586950B
:1029200086950E946D1410923E03089521E030E0D8
:1029300002C0220F331F8A95E2F78091E302909143
:10294000E402822B932B0E94331408950F931F935C
:10295000CF93DF9301E010E0082E02C0000F111F9B
:102960000A94E2F7C0914303D09144039E012023CF
:102970003123232B01F590913E03969596959695DC
:10298000891302C010923E030E9496140E9499106F
:1029900060933F03709340038093410390934203FD
:1029A000C027D127D0934403C0934303DF91CF9135
:1029B0001F910F9108950E946D14F2CF90937802A9
:1029C000809377020895FC0124812223B9F080814D
:1029D00091810E94BD1392959F70963089F050F4BA
:1029E0009250923058F4803F19F030F4883E30F421
:1029F00081E008959A50F5CF843FD1F380E00895A7
:102A0000883EB0F3813FD1F7F3CFA6E0B0E0EBE032
:102A1000F5E10C94A43126E0FC01DE011196019051
:102A20000D922A95E1F7FC01258189819A81222363
:102A300099F0662389F00E948913182F682F8981E5
:102A40009A810E94FD1369817A81812F0E9443122D
:102A50002696E3E00C94C0310E94CA13182FF3CFDE
:102A6000809105038531F8F48091090290E0019688
:102A700065E070E00E9433328093090224E030E088
:102A8000281B390B4CE752E0249FC001259F900D75
:102A9000349F900D1124805E974F0E94B90E0895C7
:102AA00084EA95E0FACF8832D8F38091080290E06A
:102AB0000196817099278093080221E030E0281B5D
:102AC000390B4CE752E0249FC001259F900D349FA5
:102AD000900D112484559F4FE0CFCF93DF93682F43
:102AE00081E06A3019F06D3031F480E00E94EE151B
:102AF000DF91CF9108958091BF059091C00526E0A8
:102B0000FC01A7EBB3E001900D922A95E1F7603E3E
:102B100008F459C026E0FC0111922A95E9F7C0910A
:102B2000BF05D091C00546E050E0BE0187EB93E0C1
:102B30000E94B032892B59F1CE018F5B93409C01EA
:102B400045E0369527954A95E1F741E050E0BA0116
:102B500002C0660F771F2A95E2F79B016091BD03C3
:102B60007091BE03262B372B059665E096958795C9
:102B70006A95E1F7FA0102C0EE0FFF1F8A95E2F7AE
:102B8000CF01822B932B9093BE038093BD039E01B4
:102B9000295B33404091B603642F70E0C9010E9465
:102BA0008131481B463010F4240F311D2115F2E00D
:102BB0003F0710F030E020E021543C4F3093C00537
:102BC0002093BF0595CFF6E06F9FB00111246D50A3
:102BD000784E46E050E00E94CC31A1CFCF93382F01
:102BE000E091BF05F091C005EF5BF3402091B60383
:102BF000622F70E0CF010E948131281B822F332386
:102C000061F066E00E942732C82FC15010F4CF91C6
:102C1000089580E20E946D15F8CF9F01280F311DA5
:102C20002115324018F080E0F0E0E0E08E0F9F2F99
:102C3000911D81549C4F9093C0058093BF05E7CFB1
:102C400080913D0290913402892B90913302992317
:102C500051F0892BE2E0F2E027E090E0215029F5E5
:102C60009111109233028093000248E050E065E336
:102C700072E080E092E00E94B032892BA9F088E0F7
:102C8000E0E0F2E0A5E3B2E001900D928A95E1F771
:102C9000E0914C03F0914D03309731F00280F381C5
:102CA000E02D80E092E00995089531913323B1F24F
:102CB0009F5FD4CF10923D02E2E0F2E086E0DF01B8
:102CC0001D928A95E9F790E080E00E94E71090E07D
:102CD00080E00E94C210109234020E9420160895D3
:102CE000882321F00E9477130E94201608958823DC
:102CF00039F090913D02892B80933D020E9420166D
:102D00000895882381F19CEF980F913A70F4E0E0E8
:102D1000F2E09281891301C01282319692E0E6308E
:102D2000F907B9F70E942016089590E2980F98309D
:102D300050F4877091E001C0990F8A95EAF7892FC6
:102D40000E947713EFCF9BE5980F933028F490E023
:102D500080E00E94E7100895885A8B3120F490E0BB
:102D600080E00E94C2100895CF938823C1F0C82F3D
:102D70008CEF8C0F813A10F5A2E0B2E0E0E0F2E0D7
:102D800088E092E02D91C21761F08A179B07D1F776
:102D90006C2F80E092E00E94A8100E942016CF9134
:102DA000089586E092E02281C21301C0128231961A
:102DB0008E179F07C1F70E942016EACF80E28C0F82
:102DC000883068F4C77021E030E001C0220FCA9556
:102DD000EAF780913D02822B80933D02DECFEBE546
:102DE000EC0FE33040F4F0E0E155FE4F808190E0DD
:102DF0000E94E710D4CFC85ACB3188F6EC2FF0E010
:102E0000EE0FFF1FEE54FE4F808191810E94C21091
:102E1000C6CF0F931F93CF93DF93EC01FC0101907A
:102E20000020E9F78F0101501109C017D10740F0C8
:102E300081E00E94EE15DF91CF911F910F910895CF
:102E400089910E946D15F1CF0F931F93CF93DF935C
:102E50008B01EA0190917203943061F58093E9004F
:102E60008FEF9091E800815095FD06C095ED9A9501
:102E7000F1F700008111F5CF8091E80085FF1AC0BD
:102E80000E945D0F811111C08091E80085FD06C090
:102E90008091E8008E778093E800F2CFF80181916D
:102EA0008F018093F100219779F78091E8008E7768
:102EB0008093E800DF91CF911F910F91089543E037
:102EC00050E0BC0182E00E9424170895CF93DF9365
:102ED000EC0148E050E0BC0181E00E94241788E04A
:102EE000FE01AEE5B3E001900D928A95E1F7DF9126
:102EF000CF910895B0E0A0E0E0E8F7E10C949D31B7
:102F00007C015B016A018091660201E010E08A3079
:102F100010F40AE010E0C1E0D0E0B501C701F6010D
:102F20000995811104C021960C171D072CF4CDB70B
:102F3000DEB7EAE00C94B931CC9F9001CD9F300D03
:102F4000300D112490E080E045E34A95F1F7000050
:102F5000019682179307C1F7E0CF0E945A162FEF10
:102F600084E39CE0215080409040E1F700C00000E5
:102F700088E19AE00FB6F894A895809360000FBEA0
:102F800090936000FFCFAB0124E630E0BC0188E7FE
:102F90000E94342F21E0892B09F020E0822F089530
:102FA00080913C0390913D03911103C091E08927EA
:102FB0000895882369F062E070E088E097E10E945C
:102FC000C317811103C080913C03089510923C0304
:102FD00080913C03EBCFCF93C0913C0380913D03A4
:102FE0008823D1F00E949910605A75418F4F9F4FEE
:102FF000609338037093390380933A0390933B03B3
:10300000C11108C062E070E086E097E10E94C3173A
:10301000811105C0C0913C038C2FCF91089581E0B0
:1030200080933C03F7CF9091110392FB222720F964
:10303000281779F080FB92F99093110360911003A7
:103040007091110384E090E00E94113282E00E94AE
:103050007F140895CF92DF92EF92FF921F93CF9348
:10306000DF9300D000D0CDB7DEB7C0905302D09030
:103070005402E0905502F09056020E9499106C198B
:103080007D098E099F0911E064367105810591055E
:1030900070F10E9436116E5F7F4F8F4F9F4F698393
:1030A0007A838B839C838091110190911201895ABC
:1030B0009D4F4091100150E04530510510F044E023
:1030C00050E0BE016F5F7F4F0E94BD3282E090E012
:1030D0000E940A31182F882351F00E9499106093A2
:1030E0005302709354028093550290935602812F9D
:1030F0000F900F900F900F90DF91CF911F91FF9045
:10310000EF90DF90CF900895A1E0B0E0EAE8F8E119
:103110000C949F3110910503198300916102C090B6
:103120006202D0906302E0906402F09065020E9417
:1031300099106C197D098E099F0964367105810506
:10314000910510F4011749F18091190190911A012C
:10315000895A9D4F4091180150E04115510511F0D9
:1031600041E050E0BE016F5F7F4F0E94BD3283E0BF
:1031700090E00E940A31182F882351F00E94991084
:10318000609362027093630280936402909365027D
:10319000812F2196E8E00C94BB3111E0F9CF8F929A
:1031A0009F92AF92BF92EF92FF921F93CF93DF93C4
:1031B00000D000D000D0CDB7DEB77B0190E080E03A
:1031C0000E940A31182F882309F464C0409103013A
:1031D00050E04115510511F041E050E060910401CB
:1031E00070910501695A7D4FCE0106960E94BD324D
:1031F00080904F0290905002A0905102B0905202E5
:103200000E949910681979098A099B096436710529
:103210008105910538F488E592E00E94270F9E8190
:103220008917C1F181E090E00E940A31182F8823AC
:1032300091F040910B0150E04630510510F045E00F
:1032400050E060910C0170910D01695A7D4FCE01E3
:1032500001960E94BD3288E592E00E94270F91E01E
:103260002E81281390E0192301F10E949910609398
:103270004F0270935002809351029093520285E066
:10328000FE013196AAE4B2E001900D928A95E1F731
:1032900011E00BC085E0E8E5F2E0DE011196019057
:1032A0000D928A95E1F71111EACF85E0EAE4F2E0A8
:1032B000D70101900D928A95E1F7812F26960FB6DE
:1032C000F894DEBF0FBECDBFDF91CF911F91FF906D
:1032D000EF90BF90AF909F908F90089578941F9239
:1032E0000F920FB60F9211248F939F93AF93BF93BA
:1032F0008091590390915A03A0915B03B0915C03B4
:103300000196A11DB11D8093590390935A03A09378
:103310005B03B0935C03BF91AF919F918F910F902E
:103320000FBE0F901F9018952FB7F89480915903F6
:1033300090915A03A0915B03B0915C032FBF089555
:103340003091570320915303321720F420915303F7
:10335000209357036093500370935103809352035B
:10336000909353030E94941990936A038093690386
:1033700081E0809368030895AAE2B0E0E2ECF9E10D
:103380000C94A131E4E7F3E08091F100819323E014
:10339000EC37F207C9F780917503833009F487C0D1
:1033A00008F5813009F45EC0823009F4E0C08091F4
:1033B000E80083FF1AC180917403909175039A30DD
:1033C00008F013C1E92FF0E0E851F64E0C94883272
:1033D000C81AEE1AF51AEE1AF51A461B681BF51AEA
:1033E000F11CFE1C8A3009F4A7C08B3009F47CC0A4
:1033F0008930E9F6809174038132C9F680917803AF
:1034000090917903029798F68091E800877F8093E6
:10341000E8008091E80082FF45C08091F300909120
:10342000F200892798278927029731F48091F100CB
:10343000813011F0863071F48091F1008093410168
:10344000609140017091410180914201909143014E
:103450000E94A0198091E8008B778093E8000E9479
:103460008C0FA5CF80917403813A09F0A0CF809191
:10347000E800877F8093E80080917803909179033A
:10348000892B61F060E090E080E070E00E943810ED
:103490008091E8008B778093E80089CF68E08EE523
:1034A00093E0F3CF809172038111B3CF80CF8091ED
:1034B0007403813A09F07BCF80917803909179036E
:1034C000892B09F074CF8091E800877F8093E80012
:1034D0008091E80080FFFCCF809142018093F10051
:1034E0008091E8008E77B9CF80917403813209F022
:1034F0005ECF8091780390917903892B09F057CFA3
:103500008091E800877F8093E8000E948C0F81E023
:1035100090917603911101C080E080934201609107
:1035200040017091410180914201909143010E94BC
:10353000A0190E945A163BCF80917403813209F082
:1035400036CF8091E800877F8093E8000E948C0F3F
:103550008091770380934001609140017091410117
:1035600080914201909143010E94A01920CF809147
:103570007403813A09F01BCF8091E800877F809324
:10358000E8008091E80080FFFCCF80914001A6CF49
:10359000803889F0823849F5809178038F708730C0
:1035A00020F58093E9008091EB0085FB882780F966
:1035B0001092E90006C08091660390916703911113
:1035C00082609091E800977F9093E8008093F100EB
:1035D0001092F1008091E8008E7727C0282F2D7F70
:1035E00021F48823A1F0823029F18091E80083FF43
:1035F0000AC08091E800877F8093E8008091EB000B
:1036000080628093EB00AA96E6E00C94BD31809135
:103610007603813051F7933009F080E0809367039F
:103620001092E9008091E800877F8093E8000E9473
:103630008C0FDBCF809176038111F2CF80917803DC
:103640008F702FEF280F263080F68093E9002091AD
:10365000EB0020FFE5CF933031F48091EB008062E6
:103660008093EB00DDCF9091EB0090619093EB00A5
:1036700021E030E001C0220F8A95EAF72093EA00AA
:103680001092EA008091EB008860EACF8111ADCF03
:10369000109176031F778091E3008078812B8093CF
:1036A000E3008091E800877F8093E8000E948C0F00
:1036B0008091E80080FFFCCF8091E30080688093D8
:1036C000E30083E0111101C082E0809372038DCF8B
:1036D0008058823008F089CF8091760390917703EB
:1036E0008C3D43E09407A1F583E08A838AE28983D5
:1036F0004FB7F894DE01139620E03EE051E2E32F4D
:10370000F0E050935700E49120FF03C0E295EF7082
:103710003F5FEF708E2F90E0EA30C0F0C7968D9338
:103720009D932F5F243159F74FBF8091E800877F29
:103730008093E8006AE270E0CE0101960E943810A2
:103740008091E8008B778093E8004FCFC096E7CF59
:103750004091780350917903292F33272330310585
:1037600009F448C080F52130310509F4EFC022305A
:10377000310509F03ACF0BE310E0E0E8EE2EE7E187
:10378000FE2E8091E800877F8093E80080917A0385
:1037900090917B030817190708F4C80140E00097CF
:1037A00009F0E9C04111E7C08091E80082FDC8CF6F
:1037B00080917203882321F2853011F28091E80014
:1037C00083FFF2CFBDCF2132310509F4B1C02232DF
:1037D000310509F00ACF4115510509F4C5C0413042
:1037E000510509F002CF02E310E03AE0E32E37E1A1
:1037F000F32EC7CF99278130910509F45AC040F0C4
:10380000029709F460C010E000E0F12CE12C09C03F
:10381000EFEEF7E1E4910E2F10E07FEEE72E77E177
:10382000F72E20917A0330917B0380916C038F5F98
:1038300080936C0330937103209370032230310521
:1038400009F04BC090916D039F5F90936D0383309F
:1038500010F190916F03923038F040916E03411156
:1038600063C0891709F45EC040916D03853008F488
:1038700047C02F3F310509F04BC0992309F44AC0D6
:1038800083E0423008F051C0411105C080916E03C1
:10389000882309F447C00E94941990936A03809387
:1038A000690381E0809368030115110509F49DCE39
:1038B00068CFEDEDF7E1E4910E2F10E06DEDE62E0F
:1038C00067E1F62EAECFEDECF7E1E4910E2F10E0BC
:1038D0005DECE52E57E1F52EA4CF2430310531F40F
:1038E00090916E039F5F90936E03B1CF2F3F310590
:1038F00009F0ADCF90916F039F5F90936F03A7CFB7
:10390000843031F49111C0CF423021F484E00DC0F5
:103910009111BACF433009F0BECF80916E03813050
:1039200009F0B9CF81E001C082E080936B03B3CF8F
:103930004115510591F04130510509F056CE09E08D
:1039400010E04BEAE42E47E1F42E1BCF02E110E039
:103950002BEBE22E27E1F22E14CF09E010E092E9E2
:10396000E92E97E1F92E0DCF04E410E08CE3E82E68
:1039700087E1F82E06CF20917203222309F4E0CECE
:10398000253009F4DDCE2091E80023FDD9CE209129
:10399000E80022FD09CF2091E80020FF00CF209110
:1039A000F3003091F200232732272327009719F0E4
:1039B0002830310558F041E02830310509F040E069
:1039C0002091E8002E772093E800E9CEF70144919A
:1039D0004093F100FFEFEF1AFF0A01972F5F3F4F6F
:1039E000E5CF803809F001CE8091E800877F809391
:1039F000E800809173038093F100ECCD8111F5CD47
:103A000010917603123008F0F0CD8091E800877FA6
:103A10008093E800109373030E948C0F1123F9F038
:103A200084E08093720342E061EC81E00E94AB0F7E
:103A300042E261EC82E00E94AB0F8091720384301D
:103A4000A1F482E0809343016091400170914101B3
:103A500080914201909143010E94A019C6CD8091AE
:103A6000E30087FDDDCF81E0DCCF81E0EBCF1F926B
:103A70000F920FB60F9211242F933F934F935F93A2
:103A80006F937F938F939F93AF93BF93CF93EF9356
:103A9000FF93C091E900CF708091EC001092E90093
:103AA0008091F000877F8093F00078940E94BC1989
:103AB0001092E9008091F00088608093F000C0933C
:103AC000E900FF91EF91CF91BF91AF919F918F91BD
:103AD0007F916F915F914F913F912F910F900FBE0A
:103AE0000F901F9018951F920F920FB60F921124EE
:103AF0002F933F934F935F936F937F938F939F93F6
:103B0000AF93BF93CF93EF93FF938091E10082FF38
:103B100009C08091E20082FF05C08091E1008B7FA7
:103B20008093E1008091DA0080FF24C08091D8006A
:103B300080FF20C08091DA008E7F8093DA00809130
:103B4000D90080FFD2C080E189BD82E189BD09B47E
:103B500000FEFDCF81E08093720380915D038111AF
:103B600009C00E943E0F0E94DD0F8091E200846038
:103B70008093E2008091E10080FF24C08091E20008
:103B800080FF20C08091E2008E7F8093E2008091D0
:103B9000E20080618093E2008091D800806280938F
:103BA000D80019BC85E08093720383E080934301C1
:103BB00060914001709141018091420190914301D7
:103BC0000E94A0198091E10084FF39C08091E20039
:103BD00084FF35C080E189BD82E189BD09B400FE62
:103BE000FDCF8091D8008F7D8093D8008091E10037
:103BF0008F7E8093E1008091E2008F7E8093E200CF
:103C00008091E20081608093E200809173038823B9
:103C100009F471C084E08093720380917203843050
:103C200009F471C081E0809343016091400170917B
:103C3000410180914201909143010E94A01980911D
:103C4000E10083FF40C08091E20083FF3CC080918F
:103C5000E100877F8093E10082E0809372031092FD
:103C600073038091E1008E7F8093E1008091E200F8
:103C70008E7F8093E2008091E20080618093E20079
:103C800042E060E080E00E94AB0F8091F00088602D
:103C90008093F000C1E0C0934301609140017091B6
:103CA000410180914201909143010E94A019C0936B
:103CB00042016091400170914101809142019091D7
:103CC00043010E94A019FF91EF91CF91BF91AF9155
:103CD0009F918F917F916F915F914F913F912F9124
:103CE0000F900FBE0F901F90189519BC1092720381
:103CF00010925D033FCF8091E30087FD02C081E019
:103D00008ACF83E088CF82E08ECFEF92FF920F932D
:103D10001F93CF93DF93C42FD22FFC01858188237B
:103D2000A9F0409347030E9494199093460380930F
:103D30004503C77081E001C0880FCA95EAF70E9469
:103D40007716CDB7DEB7E6E00C94BD31109147038E
:103D5000141338C0E0904503F09046030E94941974
:103D60008E199F09883C910568F5C0E2CD0F1D179B
:103D7000C1F080E2810F883048F4177081E0012E95
:103D800001C0880F0A94EAF70E947016C83008F53F
:103D900081E09D2F977001C0880F9A95EAF70E94E5
:103DA0007716802F0E94B416802F0E948116C8308B
:103DB00040F6D77081E001C0880FDA95EAF70E94DB
:103DC0007016BFCFC77081E001C0880FCA95EAF7AF
:103DD000F6CF802F0E94B416802F0E948116B1CF9B
:103DE000B0E0A0E0E6EFFEE10C949E31FC012481FE
:103DF000222309F47CC07C0161E00E940515EC01DE
:103E0000F7012581FC01E851FC47222309F426C56E
:103E1000AC015A95992741153FE4530738F0CE017C
:103E2000CF3FD10519F010F090E080E0BC01645064
:103E300071096432710518F08B970E9788F4A09180
:103E40009402B0E0AA0FBB1FA756BD4F8D919C9165
:103E500011978F3F3FE7930719F001968D939C933D
:103E600041155F4438F5CE0199278C34910511F046
:103E70008A9789F4A0919402B0E0AA0FBB1FA756BD
:103E8000BD4F8D919C911197811530E8930719F0E2
:103E900001978D939C93E730F10508F051C0ED5ADE
:103EA000F04E0C948832821F881F601F7C1F8E1F6B
:103EB000941F9A1FCF3FD10509F068F7CE01D5CFE7
:103EC00006E221EE41EE6AE17CE7C7010E94851E11
:103ED00080913E03877059F0F7018581882339F07E
:103EE0008091110382FF03C082E00E947F14CDB74E
:103EF000DEB7E9E00C94BA3107E225EE45EE6BE15E
:103F00007CE7E3CF06E221EE40EE68E17CE7DDCF1F
:103F100007E225EE44EE69E17CE7D7CF06E221EE29
:103F200042EE6CE17CE7D1CF07E225EE46EE6DE193
:103F30007CE7CBCF08E221E045EE6EE17CE7C5CF20
:103F400010924703CE019057839708F097C484E0FE
:103F500090E00E94DD319093110380931003FE01E5
:103F6000E150F047E232F10508F026C0E654F04E89
:103F70000C94883216208B201E20E81FEC1F222074
:103F8000F01F26203220FC1F842000203620042031
:103F90003A20622008203E2069200E2044204C2038
:103FA000F41F2A20F81F2E201220482058207220AB
:103FB0008220E21F1A20922080911003816080935A
:103FC000100395C0809111038860809311038FC006
:103FD000809110038260F3CF809110038460EFCF53
:103FE000809110038860EBCF809111038160EDCF49
:103FF000809111038260E9CF809110038061DFCF4F
:10400000809110038062DBCF809110038064D7CF52
:104010000E945A16809110038068D1CF80911003BE
:104020008860DCCF809111038260E0CF8091100323
:104030008E7FC5CF80911103877FC7CF80911003FA
:104040008D7FBDCF809110038B7FB9CF80911003FE
:10405000877FB5CF809111038E7FB7CF80911103F9
:104060008D7FB3CF809110038F7EA9CF80911003F5
:104070008F7DA5CF809110038F7BA1CF0E945A1610
:10408000809110038F779BCF80911003877FDCCFC7
:10409000809111038D7FE0CF8091100382FB9927DF
:1040A00090F921E0922790FB82F990FB83F987CF6A
:1040B00080911103982F909591708E7F892B90FBA2
:1040C00081F983CF90911003892F8F7B96FF8064B5
:1040D00076CF0E945A1690911003892F97FB87F98B
:1040E00080586DCF61E08EE090E00E94F3316091E6
:1040F00010037091110384E090E00E9411320E943D
:104100005A16E6CE60E0EFCF90911003892F8F7E94
:1041100094FF806154CF90911003892F8E7F90FF80
:1041200081604DCF90911103892F877F93FF886025
:104130004CCF89E2E0E0F2E026E032E092818913A0
:1041400001C0128231962E173F07C1F7ABC381E041
:104150000E94961443E062E081E00E944114B8CED0
:1041600081E00E946D14F6CF222309F4CCC382E0D3
:10417000EFCF0E94991060933F03709340038093A8
:104180004103909342038091E3029091E4022091D5
:10419000430330914403AC0140955095422353238F
:1041A000452B31F0282339233093440320934303D4
:1041B000F7014581CB37FCE7DF0749F5442309F4D4
:1041C00087CE292F332721153105F9F49C0180E092
:1041D000A90174E0569547957A95E1F74115510587
:1041E00011F08C5F9A01A901569547955695479510
:1041F0004115510511F08E5F9A0136952795232BB5
:1042000009F08F5F0E94A61463CE88E0E1CFC1154C
:1042100022E5D207F0F4C11530E5D307E8F5C11562
:1042200080E4D80708F055C0442309F46BC0C330BC
:10423000FCE7DF0709F4EBC008F0BFC0C1153CE79D
:10424000D30709F4C8C0C130DC4709F05BC00E9445
:10425000AD17C03292E5D90738F3C034E2E5DE0786
:1042600028F0CE01805C92458097F0F68C2F8F71FC
:1042700021E030E0082E02C0220F331F0A94E2F73B
:10428000609143037091440326233723232B61F26B
:10429000442309F41DCEB6CFCE0125E0969587952F
:1042A0002A95E1F78F7021E030E0082E02C0220F3E
:1042B000331F0A94E2F7609143037091440326236D
:1042C0003723232B09F4B0CF41119CCF10923D022C
:1042D000E9C2F7018681807F09F0A6CF411112C0A3
:1042E0002D2F2F7081E090E002C0880F991F2A9532
:1042F000E2F7209143033091440382239323892BD7
:1043000009F0E6CDF7018581C081D181882309F4C8
:1043100091C0CE010E948913182F682FCE010E94F0
:10432000FD13BE01812F0E9443120E946112D82FFB
:10433000C92FB82EF701D580C680C2948FE0C8225D
:1043400080913E03877001F10D2DDD20F1F0892F62
:10435000807F803469F080E28D0F8830A8F0892F4B
:10436000807E803229F4F1E0FD1770F4CC2061F0FA
:104370008091110382FF08C082E00E947F14809127
:104380003E03877001E009F000E01C2F12951F70BA
:104390001C3008F024C1E12FF0E0EF52FE4D0C94E8
:1043A00088321F221F2255225522E822EF22EF22B7
:1043B000EF2208239523A623A623CB359CE7D90714
:1043C000B9F1CC35ECE7DE0749F1CA35DC4709F035
:1043D00099CF81E02AC00E945A162FEF34E38CE077
:1043E000215030408040E1F700C0000087E797E7A8
:1043F000909301088093000888E19AE00FB6F89442
:10440000A895809360000FBE90936000FFCF6FEF80
:104410007FEF90E080E00E94113219CF809111036C
:1044200082FB882780F991E089270E9413186ACFC0
:1044300080E0FBCFCE010E94CA13182F72CF1C2F31
:104440001F70C07F11F01295107F8D2FDD20B9F005
:10445000112369F090E29D0F983010F0D11109C03E
:1044600080913D02182B10933D020E9420168D2F43
:104470003FC080913402182B10933402F6CF0E9473
:1044800081161123E9F1D05ED83010F0B11004C0CC
:10449000812F0E94771306C0109580913402182353
:1044A000109334020E9420162BC01C2F1F70C07F57
:1044B000C03211F01295107FBB2051F021E0B216EE
:1044C00009F466C0DD2009F472C0CC20B1F1CFCF71
:1044D0008091110382FD2DC0DD2069F0112339F098
:1044E00080913D02182B10933D020E94201680E01F
:1044F0000E94B41605C080E00E9481161111C8CF39
:10450000002309F4BBC080913E0380FDB7C0F701D2
:1045100015828695869586950E949614C7010E94FD
:10452000F01E80913E038695869586950E946D14B7
:10453000A5C0DD2099F0C11004C0812F0E9477161C
:10454000DFCF31E0C312DCCF80913302912F98236B
:104550001917B1F2182B10933302D2CFC110D0CF5C
:10456000812F0E94701690913302812F892329F0A8
:10457000812F809589238093330280910B02912FA4
:10458000982309F4BDCF1095182310930B02B8CFD0
:10459000DD2029F085E08C1508F4B2CFCECF94E071
:1045A0009C1508F4ADCF812F0E947016A9CFCC20A6
:1045B000D1F3D93349F4EFEFF7EE23E0E150F040C7
:1045C0002040E1F700C000008D2F0E94811698CF97
:1045D0008C2F86958695837039F0813079F018504C
:1045E000143008F08DCF48C08D2F9C2F9370D110C0
:1045F00002C080E090E00E94E71082CF8D2F9C2FB8
:104600009370D11002C080E090E00E94C21078CF79
:104610008C2F837009F045C0D1102EC04D2F4295CC
:1046200046954770440F440F2D2F2F7030E0042E15
:1046300002C0220F331F0A94E2F790E080E0D4FF1B
:1046400009C08FE090E002C0880F991F4A95E2F7F9
:1046500080959095C695C695C370C230C9F0A8F4F0
:104660004091770250917802C13069F0822B932BF0
:10467000842395230E94DE140E940C1160E0C70180
:104680000E94051534CC242B352B822B932BF2CF93
:10469000822B932B209177023091780282279327E7
:1046A000E9CF8695DD2011F08C2F8170882321F3CE
:1046B0004D2F429546954770440F440F2D2F2F7074
:1046C00030E0042E02C0220F331F0A94E2F790E07C
:1046D00080E0D4FF09C08FE090E002C0880F991FEE
:1046E0004A95E2F780959095C695C695C370C230FD
:1046F00099F078F44091E3025091E402C13039F02E
:10470000822B932B842395230E943314B5CF242B23
:10471000352B822B932BF8CF822B932B2091E30206
:104720003091E40282279327EFCFCF70DD2039F05C
:104730008C2F0E9496148D2F0E9477169DCF8D2F5F
:104740000E9470168C2F0E946D1496CF8D2F32EF21
:10475000B31609F43FC03B1580F090EFB916F1F0A5
:10476000E1EFBE16A1F0DD2009F464C0CC2009F40D
:104770005EC08D2F0E94B41632CFF3EFBF1689F1C1
:1047800024EFB212F0CF9091110392FD37C08C2F1D
:104790008F71DD2019F10E94961421CFDD20A9F040
:1047A00034E03C1508F41BCFCF7181E090E002C0EB
:1047B000880F991FCA95E2F72091E3023091E40235
:1047C000822793270E9433140ACF85E08C1508F4C2
:1047D00006CFEACF8C2F8F71DD20E9F20E946D1495
:1047E000FECE90E080E0DD2069F3CF7181E090E0C3
:1047F00002C0880F991FCA95E2F7E4CFDD2061F06F
:104800008C2F8F7192FFC7CF98E0899F9001112460
:10481000236020933E03BFCF81E00E947F14E1E03C
:10482000EC1508F0DCCE82E00E947F14D8CE8C2FED
:104830008F71B1CFCC2079F0893349F4FFEF27EEA7
:1048400033E0F15020403040E1F700C000008D2FF0
:104850000E948116C4CE8C2F8F71C0CFE730F10536
:1048600008F41DCBC6318CE7D80709F043C080910E
:104870000A02882309F45DCC85E35CCCC631FCE7F1
:10488000DF0799F480913D028A7A91E009F490E083
:1048900090930A0265E3811101C069E280E092E031
:1048A0000E94A8100E94201613CBC7373CE7D307FD
:1048B00009F44DCCC8378CE7D80709F455CCCE01A4
:1048C000805E9245809708F054CC211152CCCF7174
:1048D00081E090E0FC0102C0EE0FFF1FCA95E2F7F5
:1048E000EF016E2F83E090E00E94F331CE010E9431
:1048F000DE14EECAC7379CE7D90709F431CCC837B4
:10490000ECE7DE07E1F682E02CCCB0E0A0E0EBE8DB
:10491000F4E20C94A03180913202807F09F050C003
:1049200080913102882309F44BC0E091B50387E000
:10493000D82E80917C038E1709F442C00E2F10E010
:10494000ED9DF0011124E358FC4F84818823E9F1A7
:10495000D09EE001D19ED00D1124FE01E358FC4F02
:10496000918180912D02981330C0908180912C020A
:1049700098132BC08581811128C0E280F38080913B
:104980002E0290912F02E81AF90A60E08CE292E080
:104990000E94051588ECE816F104B8F48091320203
:1049A0008F70806180933202CD57DC4F88818F7089
:1049B000806188838CE292E00E94F01E0E947F1347
:1049C000CDB7DEB7E7E00C94BC31F8013196E77063
:1049D000B0CFA4E1B0E0EFEEF4E20C9498318C019A
:1049E00086E0F801DE011F9601900D928A95E1F7AD
:1049F000F801F480E5808CE2882E82E0982E809188
:104A0000300281112AC0F11003C0FF24F3941CC0AE
:104A1000EE20F9F0C8010E94E314F82E8823C9F0B3
:104A200087E0F801ACE2B2E001900D928A95E1F7DF
:104A300080913002813031F480912C0290912D02CE
:104A40000E94BD130E9485248F2D6496EFE00C9484
:104A5000B431C8010E94F01ED8CFC280D380B0907C
:104A6000310280912E0290912F023601681A790A44
:104A7000BB2009F4F7C05080A18060E08CE292E096
:104A80000E940515F8EC6F16710408F0A4C0FF2011
:104A900009F4BBCF80913202382F307F20912D0254
:104AA000F8019181311157C0FE2C291314C02091B7
:104AB0002C02908129130FC0E11046C08F708061D5
:104AC000809332028CE292E00E94F01E80913202CA
:104AD000F8018683B9CFE11037C06A2D852D0E9479
:104AE000080F6A2D852D0E94080FE82E8111ACCF8A
:104AF0005F86A88A8F8598890E94BD13292F2295E9
:104B00002F70243058F49F70223080F0992391F058
:104B1000F8019681907F71F4FE2C96CF2A502230B6
:104B200068F0C8010E94F01EEB2CF6CF992311F01B
:104B3000882391F3805E8830A0F7EECF803F60F34A
:104B4000815F833070F7E8CF80913202816080937B
:104B50003202F12C79CF291315C020912C029081BB
:104B6000291310C0E1100EC08683C8010E94F01EF8
:104B700087E0F801ACE2B2E001900D928A95E1F78E
:104B8000FB2C62CFC8010E94E314882309F461CF93
:104B9000EE2009F45ECF80913202803288F02091BD
:104BA0002C0230912D0239872887DB86CA869091A6
:104BB00030029C871D868E87CE0108960E94F01ECB
:104BC00087E0F801ACE2B2E001900D928A95E1F73E
:104BD0000E9485241ACF80913202982F907F51F441
:104BE0008CE292E00E94F01E87E0F40111928A9517
:104BF000E9F7AFCFFF2009F408CF20912D02F8018B
:104C00009181291311C020912C02908129130CC08D
:104C1000E1100AC08683C8010E94F01E87E0F401FB
:104C200011928A95E9F7ACCFC8010E94E31488235A
:104C300009F40FCFEE2009F40CCF809132028032BC
:104C400008F4BECF20912C0230912D023A832983A3
:104C5000DC82CB82909130029D831E828F83CE01B5
:104C60000196ACCF60E08CE292E00E940515F8EC72
:104C70006F16710408F0B8CFFF2009F4C6CEFE2CE1
:104C8000EE2009F4E6CE90912D02F801818198136F
:104C90002DC090912C028081981328C080912E0203
:104CA00090912F02C81AD90AF8ECCF16D104A8F4B3
:104CB0009091320290FD11C0907F79F08091320284
:104CC000F8018683903F31F0982F907F905F8F702E
:104CD000892B8683C8010E94F01E87E0F801ACE2B0
:104CE000B2E001900D928A95E1F7AECEC8010E9424
:104CF000E314811165CF809132028160809332028A
:104D0000C8010E94F01EA0CEABE1B0E0EAE8F6E2F6
:104D10000C94A4314E8B5F8B688F798F8A8F9B8F19
:104D20009111109234021D8A86E0FE017696DE0112
:104D30001F9601900D928A95E1F78B89882351F097
:104D400061E0CE010F960E94051561E0CE010F963D
:104D50000E94051587E0FE013F96DE01189601903E
:104D60000D928A95E1F7CE0108960E94E9248111FF
:104D70002AC087E0FE013896DE01119601900D925F
:104D80008A95E1F78C858823F1F020917C0330E04F
:104D9000C9010196877099274091B50348171906F4
:104DA00059F197E0929FD001939FB00D1124A35821
:104DB000BC4FFE01319601900D929A95E1F78093D8
:104DC0007C030E947F1317E08091B50390917C03D0
:104DD0008917F9F0819FC001112483589C4F0E94CC
:104DE000E9248823B1F08091B50390E001968770A3
:104DF00099278093B503E8CF0E945A1610927C033E
:104E00001092B50387E0ECE2F2E0DF011D928A9593
:104E1000E9F76B96E3E00C94C031AFE0B0E0E3E17A
:104E2000F7E20C9498318E010F5F1F4F8AE0F80172
:104E300011928A95E9F78AEEE82E81E0F82E680152
:104E40009FEE692E91E0792EAA24A394B12C35EF20
:104E5000832E31E0932EF70181917F018F3F09F47A
:104E600040C0F894E82FE295EF70F0E021A18F7038
:104E7000A50102C0440F551F8A95E2F7CA01922F7F
:104E8000982B91A392A18095892382A3789400C046
:104E9000EFEEF1E0512C31E021912F3F09F492C067
:104EA000A22FA295AF70B0E090968C9190E02F70F9
:104EB00002C0959587952A95E2F780FD83C0832FE0
:104EC000582A330F8E169F0639F7F70131978081E4
:104ED0008F3F11F00E941F1150EA5A95F1F7F60129
:104EE0005082FFEFCF1ADF0A6E147F0409F0B3CFB0
:104EF0004AE050E0B8018BE692E00E94B0320097A1
:104F000041F02AE0F801ABE6B2E001900D922A955B
:104F1000E1F70091760210E007581D4F892B09F444
:104F200053C081E0809342020E9494199093410201
:104F300080934002D12CC0904803CC2009F4A1C03A
:104F40007E012BE0E20EF11C85E0F70111928A95BB
:104F5000E9F7809166028A3008F05CC04FEC58E1B6
:104F6000B701C8010E947A17882309F477C04AE282
:104F700058E1B701C8010E947A17882309F46EC06E
:104F800044E858E1B701C8010E947A17882309F460
:104F900065C0109266028091750290E045E050E095
:104FA000B70187589D4F0E94B03221E020934902FB
:104FB000892B09F046C0C12C8C2D8D292F96EFE04E
:104FC0000C94B43180E07CCFD0904202DD2009F413
:104FD000B1CFE0904002F09041020E9494198E19E6
:104FE0009F09059708F4A6CF45E050E06BE672E014
:104FF000C8010E94B032892B59F085E0EBE6F2E05F
:10500000D80101900D928A95E1F71092420293CF58
:10501000D12CFBCFA0904302B09044020E9494197F
:105020008A199B09843F914008F098CF80914902EA
:10503000882309F285E0F70111928A95E9F7109229
:105040004902A0917502B0E0A758BD4F85E0FE016E
:105050003B9601900D928A95E1F7AECF8091660262
:105060008F3F19F08F5F80936602809166028A30CD
:1050700008F491CF0E9494199093440280934302C4
:10508000D5CF85E0F801A8E5B2E001900D928A95B0
:10509000E1F788E592E00E94270F80935702809005
:1050A0005D0290905E02A0905F02B09060028091DD
:1050B000450290914602A0914702B091480288169D
:1050C0009906AA06BB06B1F080924502909246026C
:1050D000A0924702B09248020E949910861A970A3D
:1050E000A80AB90A8092670290926802A0926902A7
:1050F000B0926A0280916102809305035DCFA6E0C1
:10510000B0E0E5E8F8E20C94A3310E9494198C0118
:1051100080913E0290913F028017910781F01982A1
:105120001A820E949419682F49815A81792F80E050
:1051300090E00E94842610933F0200933E02269640
:10514000E4E00C94BF311F920F920FB60F9211241E
:105150008F939F93AF93BF9380915803811113C096
:105160008091590390915A03A0915B03B0915C0325
:105170004196A11DB11D8093590390935A03A093AA
:105180005B03B0935C03BF91AF919F918F910F90A0
:105190000FBE0F901F901895CF93DF93EC010E94E4
:1051A00094198C1B9D0BDF91CF910895ADE0B0E079
:1051B000ECEDF8E20C94953185B7806885BF85B732
:1051C000806885BF84B7877F84BF0FB6F894A895A1
:1051D00080916000886180936000109260000FBE33
:1051E00080E890E00FB6F89480936100909361009E
:1051F0000FBE81E0809343016091400170914101B5
:1052000080914201909143010E94A0198DE191E1AA
:105210009093FF018093FE010E943E0F0E94DD0FDC
:105220008091E20084608093E20078948091720320
:10523000882399F01091E9001F708091EC0080FFA5
:10524000A2C180E8182B1092E9008091E80083FD4C
:105250000E94BC191F701093E90082E084BD93E0A6
:1052600095BD9AEF97BD80936E00109267021092E1
:1052700068021092690210926A028091D8008061DF
:105280008093D8002AE12A95F1F700C08091D900D7
:10529000182F117080FD04C00E943E0F10927203FF
:1052A00010934803109349031093200111110E9499
:1052B0001E30809120018091200190E0811101C079
:1052C00095E09093760285E0891B809375020AEE43
:1052D00011E0D8018D918D018F3F11F00E941F11B7
:1052E000B1E00F3E1B07A9F70FEE11E0F801819125
:1052F0008F018F3F11F00E941F11F1E0053F1F0742
:10530000A9F78AE0E9E7F2E0DF01282F1D922A954C
:10531000E9F7EBE6F2E0DF011D928A95E9F790E00C
:1053200080E00E94DD31853E9E4F09F461C065EE4C
:105330007EEF90E080E00E94113260E082E090E039
:105340000E94F33181E090E090937802809377029D
:1053500061E083E090E00E94F33160E074E184E07A
:1053600090E00E94113260E086E090E00E94F3310C
:1053700060E087E090E00E94F33140E050E0BA0145
:1053800088E090E00E94053260E083E290E00E94B5
:10539000F33160E08CE090E00E94F33160E08DE05A
:1053A00090E00E94F33119821A821B821C821D82B6
:1053B0001E821F82188648E050E067E170E0CE014F
:1053C00001960E94E33140E050E0BA018FE190E0A5
:1053D0000E94053240E050E0BA018FE090E00E9468
:1053E000053240E050E0BA0183E190E00E940532CE
:1053F00082E090E00E94D5318093830284E090E0C7
:105400000E94DD31909311038093100383E090E0BC
:105410000E94D53190E00E94DE14809148038111F2
:10542000B4C082E08093320380E88093B6030E9488
:10543000BC2E6BE070E08BEF96E10E94C3178823CF
:10544000E9F18091320365E070E081FDA0C086EF54
:1054500096E10E94C317882389F16DE070E084EE25
:1054600096E10E94C317882349F10E949910605A5F
:1054700075418F4F9F4F609338037093390380932A
:105480003A0390933B03EFEBF3E080E092E0DF011F
:105490009C011D9221503040E1F7F093C005E0934C
:1054A000BF058FEF9FEF9093BE038093BD0381E014
:1054B00080933D0380933C03109233038091480313
:1054C000811102C00E94213081E291E090934D034E
:1054D00080934C0344E6842E912CA12CB12C809116
:1054E000720310E4853009F489C00E940D2704E896
:1054F00012E039E7E32E32E0F32ED701F801919163
:105500008D912EE832E02E173F0709F481C09817DD
:10551000B1F340904803D12CD701CD907D01F80123
:1055200051908F015C1431F1712C662463945C24DA
:10553000852D8621B9F04420A9F07982DA820E9473
:1055400094199C838B83F1E0FD8391E08C2D86215F
:1055500009F490E09E8349815A816B817C818D8121
:105560000E9484267394660C26E07212E1CFF80143
:105570003197C082D3943AE0D312CECF0E94361135
:1055800041E049874AC080E05DCE80E04BCF81EFAB
:1055900096E15FCF80917203843029F10E94D01789
:1055A0001092580348E150E00FB6F894A895409344
:1055B00060000FBE1093600083B7817F846083BF5B
:1055C00083B7816083BF7894889583B78E7F83BFCC
:1055D0000FB6F894A8958091600088618093600070
:1055E000109260000FBE0E940D27E9E7F2E0819162
:1055F00081115AC352E0E338F507C9F7809172036D
:10560000853009F4C7CF0E945A160E940C116DCF45
:1056100098137FCF0E947F281986009148030023AA
:1056200009F4EEC0C0909902D0909A020D2C000CA3
:10563000EE08FF0810912B01212F30E0E9E9F2E09C
:1056400081E090E03296281739070CF01DC1409098
:1056500095025090960260909702709098020E9476
:1056600099109B01AC0124193509460957092901F4
:105670003A0139EC431651046104710414F180912C
:10568000940290E0019669E170E00E9433328093C9
:105690009402880F991FFC01E756FD4F118210827A
:1056A000812F183108F087E18F5F80932B010E94D2
:1056B000991060939502709396028093970290934D
:1056C000980242E0C416D104E104F1045CF1A0E6C2
:1056D000BAEEA70196010E948E326B017C0158EC54
:1056E000159F90011124032E000C440B550B240D23
:1056F000351D461D571DA5E0B0E00E948E329B016E
:10570000AC01C701B6010E944732213F3105410576
:10571000510524F020EF30E040E050E029013A014B
:1057200077FE03C0412C512C3201C0909002D090E2
:105730009102E0909202F09093020E9499109B01D6
:10574000AC012C193D094E095F0969017A0135E662
:10575000C316D104E104F10484F00E94991060930F
:1057600090027093910280939202909393028091A1
:10577000050380938F0240928E0210918F02A091B8
:105780008E02A11BBB0BA70196010E949932A501B5
:1057900094010E946932120F10930503C0904303D5
:1057A000D0904403C114D10459F140903F0350906C
:1057B000400360904103709042030E949910641965
:1057C00075098609970961367A4E81059105C0F001
:1057D000C094D0948091E3029091E4028C219D21A9
:1057E0000E94331410924403109243030E949910B4
:1057F00060933F037093400380934103909342036F
:1058000080913D03882309F4F6C1C0903403D09001
:1058100035030E9494198C199D09C29708F48EC013
:105820000E94941990933503809334038FEB93E097
:105830009093C0058093BF05002309F4BAC08091FE
:10584000E3029091E4028430910509F4A5C040F58B
:105850000097A1F162E571E08230910589F19F9393
:105860008F9380E991E09F938F931F9288E18F93AC
:105870008BEC92E09F938F930E94CD320FB6F894F9
:10588000DEBF0FBECDBF20C040815181052E000C70
:10589000660B770BC40ED51EE61EF71E0196D2CE00
:1058A0008031910509F47BC08631910509F477C0F8
:1058B00088309105A1F660E771E002C064E471E010
:1058C0008BEC92E00E94C6328BEC92E00E940917AA
:1058D0008091110380FF66C08FE291E09F938F93C8
:1058E0008CE291E09F938F9380EA91E09F938F9356
:1058F0001F9288E18F9385EE92E09F938F930E9491
:10590000CD320FB6F894DEBF0FBECDBF85EE92E06C
:105910000E940917809105031F928F9386EA91E0F8
:105920009F938F9386E093E09F938F930E94FD3225
:105930000F900F900F900F900F900F908091BD03DC
:105940009091BE03892B09F43DC180913D038823CA
:1059500009F438C180913303811134C10E94EB17DF
:105960002091BD033091BE032115310509F42AC1F0
:1059700080E041E050E0082F10E02A01082E02C02C
:10598000440C551C0A94E2F7B20162237323672B7F
:1059900009F07BC08F5FEFCF61E671E091CF62E8E5
:1059A00071E08ECF85E391E09F938F9382E391E046
:1059B00099CF80910503882391F10E94EB174090C5
:1059C00001035090020360900303709004030E944F
:1059D00099106419750986099709693C7105810553
:1059E000910560F00E949910609301037093020387
:1059F00080930303909304030E9430150E94991032
:105A00006093FD027093FE028093FF029093000367
:105A10008FEB93E09093C0058093BF057BCF4090C0
:105A2000FD025090FE026090FF02709000030E9401
:105A30009910641975098609970961367A4E8105AE
:105A4000910518F00E94D017E3CF409001035090C9
:105A5000020360900303709004030E94991064197C
:105A6000750986099709693C71058105910580F2E0
:105A70000E949910609301037093020380930303C3
:105A8000909304030E943015C3CF9091320390FF8E
:105A9000F2C0880F880F880F80933A0110923D0161
:105AA000895F80933B0183E080933E0124E630E0F0
:105AB00047E050E068E371E088E70E94F02E892B10
:105AC00009F080C0A80185E0440F551F8A95E1F7D1
:105AD0008091320380FFE1C0E2E1F3E080E2DF0188
