:100000000C943C0B0C94590B0C94590B0C947131BF
:100010000C94590B0C94590B0C94590B0C94590BD0
:100020000C94590B0C94590B0C94521C0C94161CE8
:100030000C944D290C94590B0C94590B0C94590B9E
:100040000C94590B0C94590B0C94590B0C94590BA0
:100050000C94590B0C944D180C94590B0C94590B8F
:100060000C94590B0C94590B0C94590B0C94590B80
:100070000C94590B0C94590B0C94590B0C94590B70
:100080000C94590B0C94590B0C94590B0C94590B60
:100090000C94590B0C94590B0C94590B0C94590B50
:1000A0000C94590B0C94590B0C94590B0000000044
:1000B0000000000000000000000000000000000040
:1000C0000000000000000000000000000000000030
:1000D0000000000000000000000000000000000020
:1000E0000000000000000000000000000000808010
:1000F00080404020201008040204081010202040F6
:1001000040808000000000000000000000000000AF
:1001100000000000000000000000000000000000DF
:1001200000000000000000000000000000000000CF
:1001300000000000000000000000000000000000BF
:1001400000000000000000000000000000000000AF
:100150000000000000000000000000000000003F60
:10016000C1010102020404040402020101010000B1
:10017000000000008000004080804000003030001F
:10018000000000010264180412C2CA2488F08080B2
:10019000404040402020202010101010080808087F
:1001A0000404040402020202010101010000000033
:1001B000000000000000000000000000000000003F
:1001C000000000000000000000000000000000002F
:1001D0000000000000000000000000000000E01827
:1001E0000601000000000000000000000080838382
:1001F000404040402021212010101010080808081D
:1002000004040404020202020101010100000000D2
:1002100000000000000000000000000000000000DE
:1002200000000000000000000000000000000000CE
:1002300000000000000000000000000000000000BE
:1002400000000000000000000000000080808080AE
:10025000404040402020202010101010080F0808B7
:1002600004040404020408101020204040414224E9
:1002700098C088888C9C1C1E0E06000000000000A0
:10028000000000000000000000000000000000006E
:10029000000000000000000000000000000000005E
:1002A000000000000000000000000000000000004E
:1002B000000000000000000000000000000000003E
:1002C000000000000000000000000000000000002E
:1002D000000000000000000000000000000000001E
:1002E000000000000000000000000000000000000E
:1002F00000000000000000000000000000000000FE
:1003000000000000000000000000000000000000ED
:1003100000000000000000000000000000000000DD
:1003200000000000000000000000000000000000CD
:1003300000000000000000000000000000000000BD
:1003400000000000000000000000000000000000AD
:10035000000000000000000000000000000000009D
:10036000000000000000000000008080804040206D
:100370002010080402040810102020404080800053
:10038000000000000000000000000000000000006D
:10039000000000000000000000000000000000005D
:1003A000000000000000000000000000000000004D
:1003B000000000000000000000000000000000003D
:1003C000000000000000000000000000000000002D
:1003D00000000000000000000000003FC101010219
:1003E0000204844444428201010100000000000034
:1003F000800000408080400000303000000000019C
:100400000204040808102040808080804040404062
:1004100020202020101010100808080804040404EC
:1004200002020202010101010000000000000000C0
:1004300000000000000000000000000000000000BC
:1004400000000000000000000000000000000000AC
:1004500000000000000000000000E018060100009D
:100460000C03000218190005FE80838340404040C1
:10047000202121201010101008080808040404048A
:100480000408304080800000018698600000000071
:10049000000000000000000000000000000000005C
:1004A000000000000000000000000000000000004C
:1004B000000000000000000000000000000000003C
:1004C000000000000000000080808080404040402C
:1004D0002020202010101010080F08080404040425
:1004E0000202020201010101000000000000000000
:1004F0000000000000000000000000060F0F0703CE
:100500000361F0F8FC600101013C78F8F070000034
:1005100000000000000000000000000000000000DB
:1005200000000000000000000000000000000000CB
:1005300000000000000000000000000000000000BB
:1005400000000000000000000000000000000000AB
:10055000000000000000000000000000000000009B
:10056000000000000000000000000000000000008B
:10057000000000000000000000000000000000007B
:10058000000000000000000000000000000000006B
:10059000000000000000000000000000000000005B
:1005A000000000000000000000000000000000004B
:1005B000000000000000000000000000000000003B
:1005C000000000000000000000000000000000002B
:1005D000000000000000000000000000000000001B
:1005E00000000000000080808040402020100804AF
:1005F000020408101020204040808000000000000D
:1006000000000000000000000000000000000000EA
:1006100000000000000000000000000000000000DA
:1006200000000000000000000000000000000000CA
:1006300000000000000000000000000000000000BA
:1006400000000000000000000000000000000000AA
:10065000000000000000003FC101010202048444C8
:1006600044428201010100000000000080000040BF
:100670008080400000303000000000010264180457
:1006800012C2CA2488F080804040404020202020B0
:1006900010101010080808080404040402020202E2
:1006A0000101010100000000000000000000000046
:1006B000000000000000000000000000000000003A
:1006C000000000000000000000000000000000002A
:1006D000000000000000E018060100000C0300020A
:1006E00018190005FE8083834040404020212120CE
:1006F0001010101008080808040404040202020282
:1007000001010101000000000000000000000000E5
:1007100000000000000000000000000000000000D9
:1007200000000000000000000000000000000000C9
:1007300000000000000000000000000000000000B9
:100740000000000080808080404040402020202029
:1007500010101010080F080804040404020202021A
:100760000101010100000000000000000000000085
:100770000000000000000000000000000000000079
:100780000000000000000000000000000000000069
:100790000000000000000000000000000000000059
:1007A0000000000000000000000000000000000049
:1007B0000000000000000000000000000000000039
:1007C0000000000000000000000000000000000029
:1007D0000000000000000000000000000000000019
:1007E0000000000000000000000000000000000009
:1007F00000000000000000000000000000000000F9
:1008000000000000000000000000000000000000E8
:1008100000000000000000000000000000000000D8
:1008200000000000000000000000000000000000C8
:1008300000000000000000000000000000000000B8
:1008400000000000000000000000000000000000A8
:100850000000000000000000000000000000008018
:10086000804040402020202020180402010204087B
:1008700010202040408080000000000000000000A8
:100880000000000000000000000000000000000068
:100890000000000000000000000000000000000058
:1008A0000000000000000000000000000000000048
:1008B0000000000000000000000000000000000038
:1008C0000000000000000000000000000000000028
:1008D0000000003FC10101020204040404020201FD
:1008E0000000000000000000800000408080400008
:1008F000003030000000000102040408081020400D
:100900008080808040404040202020201010101027
:10091000080808080404040402020202010101019B
:1009200000000000000000000000000000000000C7
:1009300000000000000000000000000000000000B7
:1009400000000000000000000000000000000000A7
:100950000000E01806010000000000000000000098
:10096000008083834040404020212120101010103F
:1009700008080808040404040408304080800000CB
:1009800001869860000000000000000000000000E8
:100990000000000000000000000000000000000057
:1009A0000000000000000000000000000000000047
:1009B0000000000000000000000000000000000037
:1009C0008080808040404040202020201010101067
:1009D000080F080804040404020408101020204032
:1009E0004041422418000000000000000000000008
:1009F00000000000000000000000000000000101F5
:100A000001000000000000000000000000000000E5
:100A100000000000000000000000000000000000D6
:100A200000000000000000000000000000000000C6
:100A300000000000000000000000000000000000B6
:100A400000000000000000000000000000000000A6
:100A50000000000000000000000000000000000096
:100A60000000000000000000000000000000000086
:100A70000000000000000000000000000000000076
:100A80000000000000000000000000000000000066
:100A90000000000000000000000000000000000056
:100AA0000000000000000000000000000000000046
:100AB0000000000000000000000000000000000036
:100AC0000000000000000000000000000000000026
:100AD0000000000000000000000000000000808016
:100AE00080804040201008040204081020408080CC
:100AF00000000000000000000000000000000000F6
:100B000000000000000000000000000000000000E5
:100B100000000000000000000000000000000000D5
:100B200000000000000000000000000000000000C5
:100B300000000000000000000000000000000000B5
:100B40000000000000000000000000000000007E27
:100B500082020204040808080804040201010000DB
:100B600000000000000000800000800000606000C5
:100B700001010204040808101020204080808080B9
:100B80004040404020202020101010100808080885
:100B90000404040402020202010101010000000039
:100BA0000000000000000000000000000000000045
:100BB0000000000000000000000000000000000035
:100BC0000000000000000000000000000000C03035
:100BD0000C0300000000000000000000008086867A
:100BE000404040402122222011111010080808081E
:100BF00004040404040830408080000001869860EA
:100C000000000000000000000000000000000000E4
:100C100000000000000000000000000000000000D4
:100C200000000000000000000000000000000000C4
:100C300000000000000000000000000080808080B4
:100C4000404040402020202010101010080F0808BD
:100C500004040404020408101020204040414224EF
:100C6000180000000000000000000000000000006C
:100C70000000000000000000000001010100000071
:100C80000000000000000000000000000000000064
:100C90000000000000000000000000000000000054
:100CA0000000000000000000000000000000000044
:100CB0000000000000000000000000000000000034
:100CC0000000000000000000000000000000000024
:100CD0000000000000000000000000000000000014
:100CE0000000000000000000000000000000000004
:100CF00000000000000000000000000000000000F4
:100D000000000000000000000000000000000000E3
:100D100000000000000000005C007C005B005D0043
:100D20004A001E001F002000210022003500140090
:100D30001A0008001500170029210422162807248C
:100D400009210A43E1001D001B00060019000500EF
:100D500000005200510021522B4201574D00270044
:100D600026002500240023002D00130012000C0093
:100D700018001C00340033320F380E340D310B00D4
:100D80002E003800370036001000110000004F0020
:100D9000500022522C4100570000000000000000CB
:100DA0000000000000000000000000000000000043
:100DB00000001E021F02200221022202437E0000C8
:100DC0000000000000000000000001000100010020
:100DD0002A004C000000000000000000000000009D
:100DE0000000407E417E0000000000003502270226
:100DF0002602250224022302000030022F020000F6
:100E00000000000000000100010001000100AE0030
:100E100000000000000000000000000000001E00B4
:100E20001F00200021002200000000000000000040
:100E300000000000427E00000000000000000000F2
:100E4000000001000100010001000100000000009D
:100E50000000000000000000000027002600250020
:100E600024002300000000004F00520051005000F9
:100E70000000000000000000000000000000010071
:100E8000010001002800A800000000000000000090
:100E90000000000000000000000000000000000052
:100EA0000100E100E300E200E0000100E1000000D9
:100EB000000000000000000000000100010001002F
:100EC0000100010000000000000000000000000020
:100ED000000000004D004B004E004A0000000000E2
:100EE0004F005200510050000000000000000000C0
:100EF00000000000000001000100010001007B7CF7
:100F000000000000000000000000000000000000E1
:100F10001C70000000000000000000000000000045
:100F200000000000000000000000000000000000C1
:100F300000000100010001000100000000000000AD
:100F400000000000000000000000000000000000A1
:100F50000000000000000000000000000000000091
:100F600000000000000000001B70000000000100F5
:100F7000010001000100000000DA0281FFD9F1DB6D
:100F800020A4A62EAF00A0C0D30000A1C8D30000AB
:100F9000AED580A81F408D14200000AF00AE050123
:100FA0000980A101850319012AB700150126B700A0
:100FB000950175108100C0050C0901A10185041976
:100FC000012AA002150126A002950175108100C01A
:100FD00005010906A101050719E029E7150025010A
:100FE00095087501810295017508810105071900B1
:100FF00029FF150026FF00950675088100050819D0
:1010000001290515002501950575019102950175C8
:10101000039101C009023B00020100A0FA0904008B
:101020000001030101000921110100012244000710
:101030000581030800010904010001030000000903
:101040002111010001223200070582032000011254
:1010500001000200000008D8042DEB00010102008D
:10106000010E034C0069006C007900350038000067
:101070000010036C0069006C00690075006D00735E
:10108000000000040309040000000000003E5B4F64
:101090005B3E003E6B4F6B3E001C3E7C3E1C0018CE
:1010A0003C7E3C18001C577D571C001C5E7F5E1C5C
:1010B0000000183C180000FFE7C3E7FF00001824F9
:1010C000180000FFE7DBE7FF0030483A060E002675
:1010D0002979292600407F05050700407F05253F27
:1010E000005A3CE73C5A007F3E1C1C0800081C1CB0
:1010F0003E7F0014227F2214005F5F005F5F0006C6
:10110000097F017F00006689956A00606060606009
:101110000094A2FFA2940008047E04080010207E20
:1011200020100008082A1C0800081C2A0808001EB5
:1011300010101010000C1E0C1E0C0030383E383001
:1011400000060E3E0E060000000000000000005FDA
:10115000000000000700070000147F147F14002423
:101160002A7F2A1200231308646200364956205051
:1011700000000807030000001C224100000041227B
:101180001C00002A1C7F1C2A0008083E08080000DA
:101190008070300000080808080800000060600047
:1011A000002010080402003E5149453E0000427FE5
:1011B0004000007249494946002141494D33001819
:1011C00014127F10002745454539003C4A494931F2
:1011D000004121110907003649494936004649496D
:1011E000291E000000140000000040340000000030
:1011F000081422410014141414140000412214088D
:10120000000201590906003E415D594E007C121151
:10121000127C007F49494936003E41414122007F0E
:101220004141413E007F49494941007F0909090187
:10123000003E41415173007F0808087F0000417F54
:101240004100002040413F01007F08142241007FFF
:1012500040404040007F021C027F007F0408107F56
:10126000003E4141413E007F09090906003E4151CF
:10127000215E007F091929460026494949320003A9
:10128000017F0103003F4040403F001F2040201FDE
:10129000003F4038403F00631408146300030478A3
:1012A0000403006159494D4300007F414141000260
:1012B0000408102000004141417F000402010204A3
:1012C0000040404040400000030708000020545404
:1012D0007840007F2844443800384444442800388B
:1012E0004444287F0038545454180000087E0902F2
:1012F000001824241C78007F080404780000447D32
:101300004000002040403D00007F102844000000C5
:10131000417F4000007C04780478007C0804047855
:10132000003844444438007C18242418001824242D
:10133000187C007C08040408004854545424000419
:10134000043F4424003C4040207C001C2040201CE2
:10135000003C4030403C004428102844004C909011
:10136000907C004464544C44000008364100000066
:10137000007700000000413608000002010204026C
:10138000003C2623263C0000000000008080808076
:10139000000000000080E070180C1830E0800000B1
:1013A00010F8901030783010B8FC381000000000B1
:1013B0000000F8FCF8000000000000000000000041
:1013C00000001C9C1C00000000F8FCF8000000005D
:1013D00000001CFCF8C000000000000080E0F87C69
:1013E0001C000000F0FCFCFC1C1C1C1C1C1C1C1C1D
:1013F000000000000000C0F0F8381C1C1C1C1C1C65
:101400003CF8F0E000E0F0F0F0E0ECEEF7F37020F4
:10141000007C7C7C7E007E7E7E7F7F7F000080C0A3
:10142000E07E5B4F5BFEC00000C000DCD7DEDEDE8E
:10143000D7DC00C000000000000000000000000039
:101440000000000000000000000000000FBCE08170
:101450008181838382870C183060C000001FFE905A
:10146000B9FFBB91983C1811133F11000000000018
:101470000000FFFFFF00000000000000000000006F
:101480000000FFFFFF00000000FFFFFF0000000062
:1014900000000000030F7FF8E080F0FC3F0F010028
:1014A000000000003F3F3F1C1C1C1C1C3C78F8F057
:1014B000E08000000000C3E7FF7E3C387878707061
:1014C000F8FFDF87000F1F3F7F7F7F7F7F3F1E0C6E
:1014D000001F1F1F3F003F3F3F7F7F7F00307B7F0C
:1014E0007830202030787F3B0003000F7F0F0F0FF4
:1014F0007F0F00030000000000000000000000005B
:1015000000000000000000183C24666341C1818097
:10151000808080808081C14162386C4CC68181802E
:101520008080808081C14362361C1800000000006A
:101530000000FFFFFFC0C0C0C0C0C0C0C0C080006E
:1015400000007FFF7F000000007FFFFFC0800000E1
:1015500000E0E0C0C0C0E0F97F1F0700000000000D
:101560000000000070F0E0E0C0C0C0C0E0F0F87F14
:101570003F0F0000000F3F7FF9E0E0C0C0C0C0C0D7
:10158000E0F97F3F1F0000000000000000000000A5
:10159000000000000000000000000000000000004B
:1015A000000000000000000000000000000000003B
:1015B000000000000000000000000000000000002B
:1015C000000000000000000000000000000000001B
:1015D000000000000000000000000000000000000B
:1015E00000000000000000000000007E0F00D4FF9B
:1015F000FFFFC70000007800000000000000002A84
:101600002B28000000000000000000000000000087
:10161000000029000000002C1E3420212224342642
:1016200027252E362D3738271E1F2021222324253B
:10163000263333362E37381F0405060708090A0BF0
:101640000C0D0E0F101112131415161718191A1B62
:101650001C1D2F3130232D350405060708090A0B00
:101660000C0D0E0F101112131415161718191A1B42
:101670001C1D2F3130354C0011241FBECFEFDAE096
:10168000DEBFCDBF12E0A0E0B1E0E4E1FDE602C0C4
:1016900005900D92A633B107D9F726E0A6E3B2E094
:1016A00001C01D92A631B207E1F70E9480290C9477
:1016B00088360C940000FF920F931F93CF93DF9313
:1016C000209114063091150624513440A901445844
:1016D0005D4F41305240E8F040E052E0421B530B76
:1016E0006091120470911304D901AC5EBB4F420F9C
:1016F000531F821B930BC1E0D0E02417350760F025
:101700007093130460931204CDB7DEB7E5E00C9438
:10171000CB324CE752E0E4CFFC01E20FF31FF49030
:10172000FD91FF16A1F08D0101501109F801F08221
:10173000F90115E0F695E7951A95E1F78E0102C0DB
:10174000000F111FEA95E2F7F801602B7F2B2F5F46
:101750003F4FD3CF8F929F92AF92BF92CF92DF92A3
:10176000EF92FF9290916C01981305C090910A043A
:10177000903309F448C080936C0190E390930A047D
:10178000C82ED12CF12CE12C10920904C701B6010E
:101790002AE030E040E050E00E945433605D603366
:1017A00031F0C114D104E104F10409F460E3609361
:1017B00008048AE0882E912CA12CB12CC701B60117
:1017C000A50194010E94543360E3211531054105C0
:1017D000510539F0CA01B901A50194010E945433A1
:1017E000605D60930704C701B60124E630E040E085
:1017F00050E00E945433211531054105510571F027
:10180000205D2093060486E094E0FF90EF90DF9047
:10181000CF90BF90AF909F908F90089520E3F1CF2D
:10182000482F209105049091CC0357E0291302C062
:1018300080E0089530E0529FF001539FF00D112495
:10184000E353FC4F8181681306C08081481303C0B5
:1018500085818111EECF2F5F3F4F2770E7CFFC01CD
:10186000AC014B5F5F4F8FEF91E32191822728E01E
:1018700030E087FF09C0880F892721503109C9F757
:10188000E417F50791F70895880FF7CFE8EDF0E03A
:1018900080818E7F80831092E2001092DA00109295
:1018A000E100A0EEB0E08C9181608C9380818F7715
:1018B000808319BCA7EDB0E08C918E7F8C938081E2
:1018C0008F7E80831092AD0308952091E4003091C3
:1018D000E50085E69091EC0090FF06C09091E8004D
:1018E00090FF06C080E008959091E80092FDFACF45
:1018F0009091C203992391F0953091F09091EB0073
:1019000095FD10C04091E4005091E5002417350783
:1019100009F381509A01F1F684E0089582E0089578
:1019200083E0089581E008958091C40387FF13C088
:101930008091E80082FF06C08091E8008B77809359
:10194000E80004C08091C2038111F2CF0895809114
:10195000C2038823D9F38091E80080FFF8CF8091FB
:10196000E8008E77ECCF982F9093E900242F762F04
:1019700050E0891731F07091EC002091ED0050910A
:10198000F00021FD07C09F5F973071F78093E90059
:1019900081E008953091EB003E7F3093EB00309171
:1019A000ED003D7F3093ED003091EB0031603093DE
:1019B000EB007093EC002093ED005093F000209129
:1019C000EE0027FDE0CF80E00895B0E0A0E0EBEE70
:1019D000FCE00C94AC32C8EDD0E088818F7E888327
:1019E000E7EDF0E080818160808384E082BF81E068
:1019F0008093AD0388818E7F888302EE10E0F8012A
:101A000010821092DA0081EEC82ED12CF6011082DD
:101A100088818F77888388818068888388818F7D9B
:101A2000888319BC1092C2031092C3031092B703AB
:101A30001092B60390EEE92EF12CF70180818B7F96
:101A4000808388818160888342E060E080E00E943A
:101A5000B30CF60180818E7F8083F80180818160E4
:101A60008083808188608083F70180818E7F80837E
:101A7000888180618883CDB7DEB7E8E00C94C832F6
:101A8000FC018091CA039091CB0386179707A0F0C1
:101A90006115710529F49091E8009E779093E80014
:101AA00090E06115710551F4911108C08091E80032
:101AB00082FF35C080E00895BC01F2CF8091C2035F
:101AC0008823C9F18530C9F18091E80083FD31C0D8
:101AD0008091E80082FDEACF8091E80080FFE1CFAD
:101AE0002091F3008091F200322F282F61157105AB
:101AF00019F02830310558F091E02830310509F00F
:101B000090E02091E8002E772093E800CACF8191E1
:101B10008093F100615071092F5F3F4FE7CF8091B3
:101B2000C203882341F0853041F08091E80083FFB3
:101B3000BDCF81E0089582E0089583E0089508957F
:101B400008952FB7F8946091A9037091AA0380912A
:101B5000AB039091AC032FBF089580916901089564
:101B60009C01FC0132969FEF80E04191461751F0B5
:101B70009F3F19F4411101C0982F8F5F8630A9F75C
:101B80009F3F09F40895290F311D97FD3A95F901FA
:101B900062830895A3E0B0E0E0EDFDE00C94B23282
:101BA00020919E0330919F0328173907A1F090934D
:101BB0009F0380939E03E0919C03F0919D033097D7
:101BC00051F024E029839B838A830084F185E02DF2
:101BD000CE01019609952396E2E00C94CE32A3E063
:101BE000B0E0E5EFFDE00C94B23220919A03309121
:101BF0009B0328173907A1F090939B0380939A03C6
:101C0000E0919C03F0919D03309751F023E02983EC
:101C10009B838A830084F185E02DCE01019609958E
:101C20002396E2E00C94CE3280919803882359F0F9
:101C3000E0919C03F0919D03309729F00190F08191
:101C4000E02D0995089580E008954115510511F0A2
:101C5000FA0109950895DC01ED91FC9111978491A9
:101C60003196ED93FC93089580E00895F894E82F61
:101C7000E295EF70F0E031A1282F2F7081E090E025
:101C800001C0880F2A95EAF7982F9095932391A386
:101C900092A1892B82A3789408950F931F9380912A
:101CA0009803882329F00E94A10D1F910F91089598
:101CB0000E94A10D0091A0021091A1022091A20208
:101CC0003091A302600F711F821F931FEECF90917E
:101CD000590392FF10C041E0282F2471243009F0ED
:101CE00040E031E0282F2871283009F030E0431718
:101CF00011F02CE0822793FF10C041E0282F2471BF
:101D0000243109F040E031E0282F2871283109F012
:101D100030E0431711F02CE0822730915A0330FF56
:101D200010C051E0282F2171213009F050E041E02E
:101D3000282F2871283009F040E0541711F029E0CD
:101D4000822731FF10C041E0282F2171213109F095
:101D500040E031E0282F2871283109F030E04317A6
:101D600011F029E0822794FD877E0895823891053D
:101D7000B9F1B0F48133910509F47DC048F489329A
:101D8000910509F46DC08A32910509F479C008956E
:101D90008533910509F45FC08933910509F10895F0
:101DA000833E9105D9F138F4803E910529F1823EB8
:101DB000910579F10895863E9105D9F1873E910507
:101DC00009F43EC0843E910541F520915A0321FF5C
:101DD00024C08091590384FD19C087EE90E00895D6
:101DE00020915903237009F056C020915A0323FF14
:101DF00014C089E290E008952091590320FD38C075
:101E000030915A0330FF09C024FF3FC090E080E0CA
:101E100008952091590322FDF7CF08952091590389
:101E200022FD36C030915A0330FD35C024FDEECF7F
:101E3000F4CF2091590323FFF0CF24FDE7CFCDCF7E
:101E40002091590323FD2AC030915A0331FFEECF70
:101E500084EE90E008952091590325FDCACF08959E
:101E60002091590325FD1DC020915A0323FFD5CF92
:101E700089E390E008952091590326FD15C0089547
:101E80002091590326FD13C0089583EE90E0089534
:101E900082EE90E0089580EE90E0089586EE90E066
:101EA000089585E390E008958AE290E0089581E343
:101EB00090E0B3CF7A30B8F46630A8F48530B0F44F
:101EC000E62FF0E096E0799FE00DF11D11249CE3F0
:101ED000899FE00DF11D1124EE0FFF1FE05EF24F10
:101EE00085919491089580E090E0089581E0FCCF81
:101EF0001F93CF93DF930E94B60EEC01C11580E5CE
:101F0000D807E8F5C11580E4D80708F09BC0C03EAB
:101F1000D10518F5CD3CD10508F081C0C83AD105EE
:101F200070F4C53AD10508F072C0C130D10511F185
:101F300018F0C430D105F0F4D0E0C0E01BC0C33CC1
:101F4000D105D0F7C85AD0E0CC0FDD1FC551DE4F08
:101F50000990D881C02DD4640DC0C11580E2D80786
:101F600008F0CBC0C11581E0D80708F05AC0C83EC0
:101F7000D10510F7CE01DF91CF911F910895C036A2
:101F800082E5D80718F5C03482E5D80708F069C0A3
:101F9000C03282E5D80708F05DC0C11582E5D807D8
:101FA00008F493C02C2F2695269580E2289F900157
:101FB00011248C2F8370C1E0D0E002C0CC0FDD1F54
:101FC0008A95E2F7C22BD32BDD68D4CFC03A82E5E5
:101FD000D80760F4C03882E5D80708F457C0CF713D
:101FE000D0E0DC2FCC27C46FD06AC4CFC03C82E5E0
:101FF000D80708F45EC0C03E82E5D80708F09CCF41
:10200000DC2FCC27CC27DF71C06FD06AB3CFC55A85
:10201000D0E0C851DE4FC881D0E0D064ABCFD065EE
:10202000A9CF8D2F0E94670E182FCE0199270E94ED
:10203000B60EC12FD0E0DC2FCC27CC27DF71C82B08
:10204000D92B98CFCE0199270E94B60ECC27DF70EE
:10205000D06AF5CFCF71D0E0DC2FCC27C16FD06A2A
:1020600089CF2C2F26952695277080E2289F9001F6
:1020700011248C2F8370C1E0D0E002C0CC0FDD1F93
:102080008A95E2F7DC68C22BD32B74CF2C2F2695D0
:102090002695277080E2289F900111248C2F837051
:1020A000C1E0D0E002C0CC0FDD1F8A95E2F7DA680C
:1020B000EACF8C2F8F710E94670EC82FD0E0DC2FE3
:1020C000CC27CC27DF71D06255CF8C2F8F710E9427
:1020D000670E55E0D695C7955A95E1F7CF70D0E0D9
:1020E000DC2FCC27282F30E084FF05C044E0220FEE
:1020F000331F4A95E1F7D069C6CF8D2F8F710E94AB
:10210000670E182FCE0199270E94B60EC12FD0E07E
:10211000DC2FCC27CC27DF71906291CF80917602A3
:102120008111109276020895982F909580919403D2
:102130008923809394030895982F90958091950317
:102140008923809395030895809105049091CC0391
:10215000981301C008958F5F8770FACFB0E0A0E0B8
:10216000E4EBF0E10C94AB327C0100911E03109182
:102170001F038091B0029091B102082B192BCFE080
:10218000D0E0CC24C394D12CBC2EC6010C2E02C0AE
:10219000880F991F0A94E2F780239123892B49F431
:1021A000219790F7B12C8B2DCDB7DEB7E9E00C94D9
:1021B000C732B7018C2F0E945A0F0E94780F0197E7
:1021C00079F3F1CFCF93DF93EC010E94AE10BE0103
:1021D0000E945A0F0E94780FDF91CF9108959A3094
:1021E00078F5863068F5E82FF0E086E0989FE00DFE
:1021F000F11D11249E2F977083E0F695E7958A953F
:10220000E1F7EE0FFF1FEE0FFF1FE95BFD4F50E000
:1022100040E080E0219130E0092E02C036952795FC
:102220000A94E2F721703327042E01C0220F0A948A
:10223000EAF7822B4F5F5F4F4430510559F70895FD
:1022400080E008959A3098F5863088F5E82FF0E020
:1022500086E0989FE00DF11D11248E2F877041E0DC
:1022600001C0440F8A95EAF783E0F695E7958A95D1
:10227000E1F7EE0FFF1FEE0FFF1FE95BFD4F30E0B0
:1022800020E070E05191DF011197CB01022E02C0D6
:10229000969587950A94E2F7817081958527842326
:1022A00085278C932F5F3F4F2430310559F70895D0
:1022B0009C01267033272630310531F480619093DC
:1022C0001F0380931E0308958F7EF9CFE0911E03B4
:1022D000F0911F0321E030E0D90102C0AA0FBB1F1B
:1022E0008A95E2F7CD01D90102C0AA0FBB1F6A95FA
:1022F000E2F7BD018A2B972B02C0220F331F4A95AC
:10230000E2F7AF01482359238417950731F42E2BA8
:102310003F2BC9010E9458110895209530952E2316
:102320003F23F7CF21E030E002C0220F331F8A9510
:10233000E2F72095309580911E0390911F03822330
:1023400093230E945811089590918A0380958923C0
:1023500080938A03282F277069F4891759F0909188
:102360005A0392FF07C08695869586950E94921122
:1023700010928A03089521E030E002C0220F331F3B
:102380008A95E2F780911E0390911F03822B932B75
:102390000E94581108950F931F93CF93DF9301E08C
:1023A00010E0082E02C0000F111F0A94E2F7C0913E
:1023B0008F03D09190039E0120233123232B01F51D
:1023C00090918A03969596959695891302C01092DE
:1023D0008A030E94BB110E94A10D60938B0370932E
:1023E0008C0380938D0390938E03C027D127D093C5
:1023F0009003C0938F03DF91CF911F910F910895A8
:102400000E949211F2CF9093B1028093B00208958E
:10241000FC0124812223B9F0808191810E94E21085
:1024200092959F70963089F050F49250923058F403
:10243000803F19F030F4883E30F481E008959A50DE
:10244000F5CF843FD1F380E00895883EB0F3813F1B
:10245000D1F7F3CFA6E0B0E0E0E3F2E10C94B132C3
:1024600026E0FC01DE01119601900D922A95E1F71C
:10247000FC01258189819A81222399F0662389F0C4
:102480000E94AE10182F682F89819A810E94221114
:1024900069817A81812F0E945A0F2696E3E00C947D
:1024A000CD320E94EF10182FF3CF9C013A952115E1
:1024B0003F4150F5FC01EE27F170BC0166277270B8
:1024C000AC01442754709C012227387094FF0EC041
:1024D00080E0EF2B09F080E1672B09F08062452B4B
:1024E00009F08064232B89F08068089581E0EF2B48
:1024F00009F480E0672B09F08260452B09F08460C5
:10250000232B19F08860089580E008958091580386
:102510008531E8F48091410290E00196817099271D
:102520008093410221E030E0281B390B4CE752E058
:10253000249FC001259F900D349F900D1124805E33
:10254000974F0E945B0B089584EA95E0FACF88329A
:10255000D8F38091400290E0019681709927809392
:10256000400221E030E0281B390B4CE752E0249F69
:10257000C001259F900D349F900D112484559F4FCD
:10258000E0CF0F931F93CF93DF938B01EA019091DC
:10259000C203943061F58093E9008FEF9091E800D9
:1025A000815095FD06C095ED9A95F1F700008111D7
:1025B000F5CF8091E80085FF1AC00E94650C81115B
:1025C00011C08091E80085FD06C08091E8008E77FB
:1025D0008093E800F2CFF80181918F018093F100A0
:1025E000219779F78091E8008E778093E800DF915A
:1025F000CF911F910F91089543E050E0BC0182E01C
:102600000E94C1120895CF93DF93EC0148E050E09F
:10261000BC0181E00E94C11288E0FE01AEEAB3E095
:1026200001900D928A95E1F7DF91CF910895B0E086
:10263000A0E0EDE1F3E10C94AA327C015B016A01B8
:1026400080919F0201E010E08A3010F40AE010E06F
:10265000C1E0D0E0B501C701F6010995811104C0C0
:1026600021960C171D072CF4CDB7DEB7EAE00C94C9
:10267000C632CC9F9001CD9F300D300D112490E0DB
:1026800080E045E34A95F1F7000001968217930731
:10269000C1F7E0CFCF93DF93682F81E06A3019F064
:1026A0006D3031F480E00E94CB13DF91CF9108951B
:1026B000809114069091150626E0FC01ACE0B4E090
:1026C00001900D922A95E1F7603E08F459C026E08A
:1026D000FC0111922A95E9F7C0911406D0911506D4
:1026E00046E050E0BE018CE094E00E94BD33892BAF
:1026F00059F1CE01845194409C0145E036952795CF
:102700004A95E1F741E050E0BA0102C0660F771F39
:102710002A95E2F79B016091120470911304262B15
:10272000372B059665E0969587956A95E1F7FA014E
:1027300002C0EE0FFF1F8A95E2F7CF01822B932B89
:1027400090931304809312049E012E5034404091C4
:102750000B04642F70E0C9010E948E32481B463082
:1027600010F4240F311D2115F2E03F0710F030E086
:1027700020E02C5E3B4F309315062093140695CF36
:10278000F6E06F9FB001112469577F4E46E050E09C
:102790000E94D932A1CFCF93382FE0911406F09147
:1027A0001506E451F44020910B04622F70E0CF0134
:1027B0000E948E32281B822F332361F066E00E9434
:1027C0003433C82FC15010F4CF91089580E20E9495
:1027D0004A13F8CF9F01280F311D2115324018F000
:1027E00080E0F0E0E0E08E0F9F2F911D8C5E9B4F0C
:1027F0009093150680931406E7CFCF93C09195036D
:1028000080919403C82B80917602882351F0C82BC5
:10281000EAE3F2E097E080E0915031F581110E9407
:102820008E10C093380248E050E06EE672E088E314
:1028300092E00E94BD33892BA9F088E0E8E3F2E042
:10284000AEE6B2E001900D928A95E1F7E0919C032B
:10285000F0919D03309731F00280F381E02D88E301
:1028600092E00995CF91089521912223A9F28F5FDB
:10287000D3CF10929503EAE3F2E086E0DF011D92E8
:102880008A95E9F790E080E00E94EF0D90E080E00B
:102890000E94CA0D109294030E94FD1308950E9495
:1028A00039142FEF84E39CE0215080409040E1F701
:1028B00000C0000088E19AE00FB6F894A8958093D4
:1028C00060000FBE90936000FFCFCF93DF93EC01C9
:1028D0004A855B856E857F850E94250E8B810E94CF
:1028E00094108C810E949C100E94FD1386E0FE01D2
:1028F00011928A95E9F7DF91CF910895CF93DF93F5
:10290000EC018D8181FD17C082608D8380919403DD
:102910009B81892B80939403809195039C81892BC3
:10292000809395030E94FD13488559856E857F85A8
:10293000CE010E94250E10929703109296038D816E
:1029400080FD03C0CE010E946514DF91CF910895F0
:10295000882321F00E9494100E94FD130895809115
:102960008903882329F082E20E94A8141092890327
:102970000895882339F090919403892B80939403D0
:102980000E94FD130895882321F00E949C100E944C
:10299000FD130895882339F090919503892B809336
:1029A00095030E94FD130895882381F19CEF980FF1
:1029B000913A70F4E8E3F2E09281891301C0128247
:1029C000319692E0EE33F907B9F70E94FD130895AE
:1029D00090E2980F983050F4877091E001C0990F01
:1029E0008A95EAF7892F0E949C10EFCF9BE5980FFC
:1029F000933028F490E080E00E94EF0D0895885A0B
:102A00008B3120F490E080E00E94CA0D0895CF93AE
:102A1000DF93EC010E94D414CE010E9455129E0156
:102A2000205E31092830310510F0CD2B29F40E94A9
:102A3000C314DF91CF9108950E94A814FACFFC012E
:102A40008281813031F4FB01808191810E940715E0
:102A500008958230E9F7FB0182819381F7CFCF930C
:102A60008823C1F0C82F8CEF8C0F813A10F5AAE3B0
:102A7000B2E0E8E3F2E080E492E02D91C21761F069
:102A80008A179B07D1F76C2F88E392E00E94B00D64
:102A90000E94FD13CF9108958EE392E02281C2132C
:102AA00001C0128231968E179F07C1F70E94FD1355
:102AB000EACF80E28C0F883068F4C77021E030E004
:102AC00001C0220FCA95EAF780919503822B80936B
:102AD0009503DECFEBE5EC0FE33040F4F0E0E85196
:102AE000FE4F808190E00E94EF0DD4CFC85ACB31C9
:102AF00088F6EC2FF0E0EE0FFF1FE551FE4F8081CE
:102B000091810E94CA0DC6CF1F93CF93DF93182FD8
:102B1000EB010E942F15209739F4812F0E94D414C5
:102B2000DF91CF911F9108958FE99FE00197F1F711
:102B300000C000002197EFCFA2E0B0E0E2EAF5E1AB
:102B40000C94AA329A8389838AE0A82ECE0101963A
:102B50000E942B0E8823E1F1813009F053C0CE0191
:102B600001960E942B0E813069F4CE0101960E94DD
:102B70002B0E60E570E0893311F070E060E00E9498
:102B80008415E4CF823039F4CE0101960E942B0ED9
:102B90000E942F15DBCF833039F4CE0101960E94BD
:102BA0002B0E0E94D414D2CF843081F4CE01019632
:102BB0000E942B0E10E000E0482F4053550B9A0165
:102BC0004A30510548F00115110599F48111BECF25
:102BD0002296EAE00C94C632A09EC001A19E900D00
:102BE00011248901080F191FCE0101960E942B0E96
:102BF000E3CFEFE9FFE03197F1F700C000000150AB
:102C00001109E1CFE82FF0E0E950FA4EB490282FF7
:102C100026952695269530E0F901E951FA4EE49083
:102C20008770F12C082E02C0F594E7940A94E2F71D
:102C3000F1E0EF22FF24F901E952FA4EC490D12CC1
:102C4000082E02C0D594C7940A94E2F741E0C4224A
:102C5000DD24F901E953FA4E049110E002C0159504
:102C600007958A95E2F701701127E114F10419F034
:102C700081EE0E942F15C114D10419F086EE0E9436
:102C80002F1570E060E08B2D0E948415C114D104D3
:102C900019F086EE0E94D414E114F10419F081EECB
:102CA0000E94D4140115110509F450CF70E060E0C2
:102CB0008CE265CFCF93DF93EC010E9455129E0109
:102CC000205E31092830310510F0209741F40E9430
:102CD000CA148C2F0E942F15DF91CF9108950E9466
:102CE000B914F7CFFB01808191810E945A16089593
:102CF000CF93DF93FC012281223049F4FB01EC01E8
:102D0000828193810E945A168D8182608D83DF912A
:102D1000CF9108950F931F93CF93DF93EC01FC01A4
:102D200001900020E9F78F0101501109C017D10768
:102D300028F0DF91CF911F910F91089589910E9402
:102D40004A13F4CFAB0124E630E0BC0188E70E94CF
:102D5000413021E0892B09F020E0822F08958091F5
:102D6000850390918603911103C091E0892708950E
:102D7000882369F062E070E08CE99FE00E94A2166F
:102D8000811103C08091850308951092850380917D
:102D90008503EBCFCF93C091850380918603882371
:102DA000D1F00E94A10D605A75418F4F9F4F6093E3
:102DB0008103709382038093830390938403C111F2
:102DC00008C062E070E08AE99FE00E94A2168111CB
:102DD00005C0C09185038C2FCF91089581E0809329
:102DE0008503F7CF90915A0392FB222720F92817E9
:102DF00079F080FB92F990935A0360915903709196
:102E00005A0384E090E00E941E3382E00E94A411E5
:102E10000895CF92DF92EF92FF921F93CF93DF93AB
:102E200000D000D0CDB7DEB7C0908C02D0908D021C
:102E3000E0908E02F0908F020E94A10D6C197D0926
:102E40008E099F0911E0643671058105910570F1C5
:102E50000E944D0E6E5F7F4F8F4F9F4F69837A8325
:102E60008B839C838091190190911A0180579D4F0B
:102E70004091180150E04530510510F044E050E019
:102E8000BE016F5F7F4F0E94CA3382E090E00E94D4
:102E90001732182F882351F00E94A10D60938C02E5
:102EA00070938D0280938E0290938F02812F0F90EA
:102EB0000F900F900F90DF91CF911F91FF90EF90A7
:102EC000DF90CF900895A1E0B0E0E9E6F7E10C943F
:102ED000AC3210915803198300919A02C0909B0262
:102EE000D0909C02E0909D02F0909E020E94A10D65
:102EF0006C197D098E099F0964367105810591055C
:102F000010F4011749F1809121019091220180571D
:102F10009D4F4091200150E04115510511F041E0D5
:102F200050E0BE016F5F7F4F0E94CA3383E090E0A4
:102F30000E941732182F882351F00E94A10D609330
:102F40009B0270939C0280939D0290939E02812F1E
:102F50002196E8E00C94C83211E0F9CF8F929F924D
:102F6000AF92BF92EF92FF921F93CF93DF9300D067
:102F700000D000D0CDB7DEB77B0190E080E00E94AA
:102F80001732182F882309F464C040910B0150E0D8
:102F90004115510511F041E050E060910C01709134
:102FA0000D0160577D4FCE0106960E94CA33809076
:102FB000880290908902A0908A02B0908B020E94B1
:102FC000A10D681979098A099B0964367105810583
:102FD000910538F481E992E00E942F0C9E818917B7
:102FE000C1F181E090E00E941732182F882391F000
:102FF0004091130150E04630510510F045E050E09B
:10300000609114017091150160577D4FCE010196BA
:103010000E94CA3381E992E00E942F0C91E02E8138
:10302000281390E0192301F10E94A10D60938802FA
:103030007093890280938A0290938B0285E0FE014F
:103040003196A3E8B2E001900D928A95E1F711E084
:103050000BC085E0E1E9F2E0DE01119601900D92EE
:103060008A95E1F71111EACF85E0E3E8F2E0D701B4
:1030700001900D928A95E1F7812F26960FB6F8946C
:10308000DEBF0FBECDBFDF91CF911F91FF90EF90BC
:10309000BF90AF909F908F90089578941F920F9259
:1030A0000FB60F9211248F939F93AF93BF9380918C
:1030B000A9039091AA03A091AB03B091AC03019630
:1030C000A11DB11D8093A9039093AA03A093AB0304
:1030D000B093AC03BF91AF919F918F910F900FBEB2
:1030E0000F901F9018952FB7F8948091A903909195
:1030F000AA03A091AB03B091AC032FBF0895309108
:10310000A7032091A303321720F42091A303209357
:10311000A7036093A0037093A1038093A2039093ED
:10312000A3030E9473189093BA038093B90381E0BC
:103130008093B8030895AAE2B0E0E1EAF8E10C94C4
:10314000AE32E4ECF3E08091F100819323E0EC3CBB
:10315000F207C9F78091C503833009F487C008F5E9
:10316000813009F45EC0823009F4E0C08091E8004B
:1031700083FF1AC18091C4039091C5039A3008F06F
:1031800013C1E92FF0E0E953F74E0C949533A719DA
:10319000CD19D419CD19D419251A471AD419D01B11
:1031A000DD1B8A3009F4A7C08B3009F47CC089305C
:1031B000E9F68091C4038132C9F68091C8039091E9
:1031C000C903029798F68091E800877F8093E80012
:1031D0008091E80082FF45C08091F3009091F20059
:1031E000892798278927029731F48091F10081304F
:1031F00011F0863071F48091F10080936901609143
:1032000068017091690180916A0190916B010E943F
:103210007F188091E8008B778093E8000E94940CDF
:10322000A5CF8091C403813A09F0A0CF8091E80036
:10323000877F8093E8008091C8039091C903892B10
:1032400061F060E090E080E070E00E94400D8091CD
:10325000E8008B778093E80089CF68E08EEA93E0FE
:10326000F3CF8091C2038111B3CF80CF8091C4038B
:10327000813A09F07BCF8091C8039091C903892BD3
:1032800009F074CF8091E800877F8093E8008091F7
:10329000E80080FFFCCF80916A018093F10080916B
:1032A000E8008E77B9CF8091C403813209F05ECFF8
:1032B0008091C8039091C903892B09F057CF809161
:1032C000E800877F8093E8000E94940C81E0909151
:1032D000C603911101C080E080936A01609168018A
:1032E0007091690180916A0190916B010E947F1831
:1032F0000E9439143BCF8091C403813209F036CF4C
:103300008091E800877F8093E8000E94940C809170
:10331000C703809368016091680170916901809191
:103320006A0190916B010E947F1820CF8091C403A5
:10333000813A09F01BCF8091E800877F8093E800F5
:103340008091E80080FFFCCF80916801A6CF803893
:1033500089F0823849F58091C8038F70873020F555
:103360008093E9008091EB0085FB882780F910921B
:10337000E90006C08091B6039091B7039111826075
:103380009091E800977F9093E8008093F10010926D
:10339000F1008091E8008E7727C0282F2D7F21F43F
:1033A0008823A1F0823029F18091E80083FF0AC0D0
:1033B0008091E800877F8093E8008091EB00806235
:1033C0008093EB00AA96E6E00C94CA328091C60383
:1033D000813051F7933009F080E08093B703109269
:1033E000E9008091E800877F8093E8000E94940CB8
:1033F000DBCF8091C6038111F2CF8091C8038F701B
:103400002FEF280F263080F68093E9002091EB0003
:1034100020FFE5CF933031F48091EB008062809300
:10342000EB00DDCF9091EB0090619093EB0021E0F9
:1034300030E001C0220F8A95EAF72093EA0010924B
:10344000EA008091EB008860EACF8111ADCF109146
:10345000C6031F778091E3008078812B8093E3007F
:103460008091E800877F8093E8000E94940C80910F
:10347000E80080FFFCCF8091E30080688093E30048
:1034800083E0111101C082E08093C2038DCF805888
:10349000823008F089CF8091C6039091C7038C3D9C
:1034A00043E09407A1F583E08A838AE289834FB7DA
:1034B000F894DE01139620E03EE051E2E32FF0E0C5
:1034C00050935700E49120FF03C0E295EF703F5FF7
:1034D000EF708E2F90E0EA30C0F0C7968D939D93E9
:1034E0002F5F243159F74FBF8091E800877F809389
:1034F000E8006AE270E0CE0101960E94400D8091E2
:10350000E8008B778093E8004FCFC096E7CF4091DB
:10351000C8035091C903292F33272330310509F4FB
:1035200048C080F52130310509F4EFC02230310563
:1035300009F03ACF0BE310E0E4E1EE2EE0E1FE2EDD
:103540008091E800877F8093E8008091CA03909182
:10355000CB030817190708F4C80140E0009709F0E9
:10356000E9C04111E7C08091E80082FDC8CF809199
:10357000C203882321F2853011F28091E80083FF95
:10358000F2CFBDCF2132310509F4B1C0223231056D
:1035900009F00ACF4115510509F4C5C04130510564
:1035A00009F002CF02E310E03EE9E32E3FE0F32E04
:1035B000C7CF99278130910509F45AC040F002978E
:1035C00009F460C010E000E0F12CE12C09C0E3E850
:1035D000F0E1E4910E2F10E073E8E72E70E1F72E92
:1035E0002091CA033091CB038091BC038F5F8093FD
:1035F000BC033093C1032093C0032230310509F08E
:103600004BC09091BD039F5F9093BD03833010F139
:103610009091BF03923038F04091BE03411163C0D6
:10362000891709F45EC04091BD03853008F447C096
:103630002F3F310509F04BC0992309F44AC083E0BC
:10364000423008F051C0411105C08091BE0388236B
:1036500009F447C00E9473189093BA038093B9038A
:1036600081E08093B8030115110509F49DCE68CF60
:10367000E1E7F0E1E4910E2F10E061E7E62E60E172
:10368000F62EAECFE1E6F0E1E4910E2F10E051E628
:10369000E52E50E1F52EA4CF2430310531F4909180
:1036A000BE039F5F9093BE03B1CF2F3F310509F05A
:1036B000ADCF9091BF039F5F9093BF03A7CF84309E
:1036C00031F49111C0CF423021F484E00DC091114A
:1036D000BACF433009F0BECF8091BE03813009F0EC
:1036E000B9CF81E001C082E08093BB03B3CF411525
:1036F000510591F04130510509F056CE09E010E036
:103700004FE3E42E40E1F42E1BCF02E110E02FE462
:10371000E22E20E1F22E14CF09E010E096E2E92E2D
:1037200090E1F92E0DCF04E410E080EDE82E8FE05B
:10373000F82E06CF2091C203222309F4E0CE2530D3
:1037400009F4DDCE2091E80023FDD9CE2091E800D8
:1037500022FD09CF2091E80020FF00CF2091F30047
:103760003091F200232732272327009719F02830C1
:10377000310558F041E02830310509F040E0209152
:10378000E8002E772093E800E9CEF70144914093BA
:10379000F100FFEFEF1AFF0A01972F5F3F4FE5CFD0
:1037A000803809F001CE8091E800877F8093E8009F
:1037B0008091C3038093F100ECCD8111F5CD109180
:1037C000C603123008F0F0CD8091E800877F809327
:1037D000E8001093C3030E94940C1123F9F084E0D5
:1037E0008093C20342E061EC81E00E94B30C42E2AC
:1037F00061EC82E00E94B30C8091C2038430A1F49A
:1038000082E080936B016091680170916901809101
:103810006A0190916B010E947F18C6CD8091E300F0
:1038200087FDDDCF81E0DCCF81E0EBCF1F920F92EF
:103830000FB60F9211242F933F934F935F936F9383
:103840007F938F939F93AF93BF93CF93EF93FF9308
:10385000C091E900CF708091EC001092E900809156
:10386000F000877F8093F00078940E949B1810925C
:10387000E9008091F00088608093F000C093E90037
:10388000FF91EF91CF91BF91AF919F918F917F91D8
:103890006F915F914F913F912F910F900FBE0F90BD
:1038A0001F9018951F920F920FB60F9211242F930D
:1038B0003F934F935F936F937F938F939F93AF93B8
:1038C000BF93CF93EF93FF938091E10082FF09C0F4
:1038D0008091E20082FF05C08091E1008B7F8093A0
:1038E000E1008091DA0080FF24C08091D80080FF41
:1038F00020C08091DA008E7F8093DA008091D90019
:1039000080FFD2C080E189BD82E189BD09B400FE9B
:10391000FDCF81E08093C2038091AD03811109C086
:103920000E94460C0E94E50C8091E2008460809326
:10393000E2008091E10080FF24C08091E20080FFDE
:1039400020C08091E2008E7F8093E2008091E200AF
:1039500080618093E2008091D80080628093D800DB
:1039600019BC85E08093C20383E080936B01609172
:1039700068017091690180916A0190916B010E94C8
:103980007F188091E10084FF39C08091E20084FFBC
:1039900035C080E189BD82E189BD09B400FEFDCF5B
:1039A0008091D8008F7D8093D8008091E1008F7E38
:1039B0008093E1008091E2008F7E8093E20080910D
:1039C000E20081608093E2008091C303882309F4C0
:1039D00071C084E08093C2038091C203843009F4F3
:1039E00071C081E080936B01609168017091690101
:1039F00080916A0190916B010E947F188091E10093
:103A000083FF40C08091E20083FF3CC08091E100D1
:103A1000877F8093E10082E08093C2031092C3030A
:103A20008091E1008E7F8093E1008091E2008E7FA3
:103A30008093E2008091E20080618093E20042E0A6
:103A400060E080E00E94B30C8091F0008860809379
:103A5000F000C1E0C0936B01609168017091690151
:103A600080916A0190916B010E947F18C0936A0156
:103A7000609168017091690180916A0190916B0178
:103A80000E947F18FF91EF91CF91BF91AF919F91CD
:103A90008F917F916F915F914F913F912F910F90F7
:103AA0000FBE0F901F90189519BC1092C203109270
:103AB000AD033FCF8091E30087FD02C081E08ACF54
:103AC00083E088CF82E08ECFEF92FF920F931F9317
:103AD000CF93DF93C42FD22FFC0185818823A9F0D7
:103AE000409393030E9473189093920380939103E1
:103AF000C77081E001C0880FCA95EAF70E94CA1416
:103B0000CDB7DEB7E6E00C94CA32109193031413DC
:103B100037C0E0909103F09092030E9473188E19C1
:103B20009F098F3A910560F5C0E2CD0F1D17C1F0D6
:103B300080E2810F883048F4177081E0012E01C0C7
:103B4000880F0A94EAF70E94C314C83000F581E098
:103B50009D2F977001C0880F9A95EAF70E94CA14AA
:103B600070E060E0802F0E948415C83048F6D7705E
:103B700081E001C0880FDA95EAF70E94C314C0CF34
:103B8000C77081E001C0880FCA95EAF7F6CF70E0F0
:103B900060E0802F0E948415B3CF8091890381114A
:103BA0000FC0109295030E948E100E9473188857C0
:103BB0009C4E909388038093870381E080938903D0
:103BC0000895AFE0B0E0E7EEFDE10C94A5328E0180
:103BD0000F5F1F4F8AE0F80111928A95E9F783E29F
:103BE000E82E82E0F82E680198E2692E92E0792EA4
:103BF000AA24A394B12C3EE2832E32E0932EF70147
:103C000081917F018F3F09F440C0F894E82FE2953D
:103C1000EF70F0E021A18F70A50102C0440F551F85
:103C20008A95E2F7CA01922F982B91A392A18095D1
:103C3000892382A3789400C0E8E2F2E0512C31E0BD
:103C400021912F3F09F492C0A22FA295AF70B0E04E
:103C500090968C9190E02F7002C0959587952A954B
:103C6000E2F780FD83C0832F582A330F8E169F06FC
:103C700039F7F701319780818F3F11F00E94360E9E
:103C800050EA5A95F1F7F6015082FFEFCF1ADF0A9A
:103C90006E147F0409F0B3CF4AE050E0B80184EA23
:103CA00092E00E94BD33009741F02AE0F801A4EAB7
:103CB000B2E001900D922A95E1F70091AF0210E079
:103CC0000E541D4F892B09F453C081E080937B0271
:103CD0000E94731890937A0280937902D12CC0903D
:103CE0009803CC2009F4A1C07E012BE0E20EF11C68
:103CF00085E0F70111928A95E9F780919F028A3059
:103D000008F05CC04EEA57E1B701C8010E941713E2
:103D1000882309F477C049E057E1B701C8010E9440
:103D20001713882309F46EC043E657E1B701C801B1
:103D30000E941713882309F465C010929F02809196
:103D4000AE0290E045E050E0B7018E549D4F0E94D6
:103D5000BD3321E020938202892B09F046C0C12C9B
:103D60008C2D8D292F96EFE00C94C13280E07CCF12
:103D7000D0907B02DD2009F4B1CFE0907902F09081
:103D80007A020E9473188E199F09059708F4A6CF2E
:103D900045E050E064EA72E0C8010E94BD33892B1F
:103DA00059F085E0E4EAF2E0D80101900D928A959D
:103DB000E1F710927B0293CFD12CFBCFA0907C0235
:103DC000B0907D020E9473188A199B09843F91402C
:103DD00008F098CF80918202882309F285E0F701EC
:103DE00011928A95E9F710928202A091AE02B0E09A
:103DF000AE54BD4F85E0FE013B9601900D928A9531
:103E0000E1F7AECF80919F028F3F19F08F5F8093D3
:103E10009F0280919F028A3008F491CF0E9473180C
:103E200090937D0280937C02D5CF85E0F801A1E9D3
:103E3000B2E001900D928A95E1F781E992E00E944B
:103E40002F0C809390028090960290909702A09001
:103E50009802B090990280917E0290917F02A09189
:103E60008002B091810288169906AA06BB06B1F0BD
:103E700080927E0290927F02A0928002B092810294
:103E80000E94A10D861A970AA80AB90A8092A00278
:103E90009092A102A092A202B092A30280919A02F3
:103EA000809358035DCFB0E0A0E0E9E5FFE10C941A
:103EB000AB32DC0114962C91222309F4B5C07C01AD
:103EC00061E00E942A12EC01F7018581882321F12B
:103ED000E0919603F09197033097F1F0CE17DF074A
:103EE000D9F0FF27E230F10508F06FC094E0EE0F43
:103EF000FF1F9A95E1F7ED5CFE4F85818460858315
:103F0000D183C083CF010E947E141092940361E09C
:103F1000C7010E942A12EC01D70115962C91222389
:103F200009F45CC0AE015A95CE0199274115BFE452
:103F30005B0738F0CE01CF3FD10519F010F090E0CB
:103F400080E0BC01645071096432710518F08B97F0
:103F50000E9780F4E091CF02F0E0EE0FFF1FEC52DD
:103F6000FD4F808191818F3F3FE7930719F00196C4
:103F70009183808341155F4458F5CE0199278C3495
:103F8000910511F08A9789F4E091CF02F0E0EE0FED
:103F9000FF1FEC52FD4F808191818115A0E89A07A7
:103FA00009F4BAC6019791838083C134AEE7DA077A
:103FB00009F49FC608F0A0C6C034EEE7DE07B9F4E6
:103FC0008EE19DE00E949C1538C0F0E0E0E095CFC6
:103FD000CF3FD10509F048F7CE01D1CFC234BEE7BB
:103FE000DB0759F130F5C034FEE7DF0730F5C337A2
:103FF0008CE7D80711F5222339F0809189038823B3
:1040000009F49BC00E94AF1480918A03877061F00D
:10401000D70115968C91882339F080915A0382FF3D
:1040200003C082E00E94A411CDB7DEB7E9E00C9492
:10403000C732C3343EE7D307D1F68091890381119B
:1040400082C0D70115968C91882339F1C13ED105E4
:1040500029F0C23AB2E5DB0709F072C08091440250
:10406000882371F0F701828193812091420230917F
:104070004302821B930B8F3F9F4710F00E94CD1D80
:1040800081E080934402D70112968D919C918155D5
:104090009F4F9093430280934202CE0197558F3FEA
:1040A000910511F008F043C1FE01FF27E230F10550
:1040B0000CF0AACFA4E0EE0FFF1FAA95E1F78F0145
:1040C0000D5C1E4FD70115969C911597E85CFE4F2D
:1040D000808190FB80F9808315968C91882309F468
:1040E00009C10E9473189093C8028093C702F80117
:1040F00082818F5F82838091940390919503892BB5
:104100008383809176028483468157816685778593
:10411000C8010E94250ED80115968C9181FDE7C03B
:104120009C2F8D2F909396038093970384C0222316
:1041300009F483CF8AE19DE045CF0E94CD1D64CF75
:1041400010924402AACF00919503109176020E942A
:10415000731888579C4E9093880380938703F701C8
:104160008581882309F499CF102B1D7909F0ABC004
:10417000C034F2E5DF0780F5C11522E5D20708F06B
:104180008CCFC11530E4D30758F4C11580E2D807AD
:1041900008F040C0C63ED10509F47FCFCE010BC068
:1041A000C11590E5D907D0F7F7018681807F09F422
:1041B00047C0CE019927109294038832910508F0E8
:1041C00085C08E31910508F088C0049708F47BC043
:1041D00082E08093940381C0C03EA2E5DA07A0F498
:1041E000C03CB2E5DB0708F058CFC036E2E5DE0799
:1041F000A8F2C03AF2E5DF0708F44FCFC43B22E54E
:10420000D20709F44ACFCACFCE0187579C470297FD
:1042100028F643CFD70116968C91807F51F68D2FCB
:104220008F71823109F44DC008F046C0823009F424
:1042300048C00E94AF14F7018581882309F41CC58A
:1042400010929303CE019057839708F0FEC484E048
:1042500090E00E94EA3290935A0380935903FE0142
:10426000E150F047E232F10508F0A0C0E65CFE4DF7
:104270000C949533102285221822E221E6211C227B
:10428000EA2120222C22F6217E22FA213022FE2150
:1042900034225C2202223822632208223E22462255
:1042A000EE212422F22128220C22422252226C22C8
:1042B0007C22DC2114228C228431C9F1863109F060
:1042C000B8CF109294030E94AF14E7CE8D329105BF
:1042D00009F47ECF28F48A97B1F70E94FD13DDCE52
:1042E0008C349105D1F38D329240B9F3ECCF90E04C
:1042F00080E018CFF8014485558566857785C8012B
:104300000E94250ED80115968C9181FF94CFC8018B
:104310000E9465148091960390919703C817D9075E
:1043200009F089CF109297031092960384CFFE0173
:10433000E851FC47E730F10508F07DCFEE55FE4D22
:104340000C949533B821BE21A921B221C421CA21E0
:10435000D02106E221EE41EE6AE17CE7C7010E942E
:10436000641D52CE07E225EE45EE6BE17CE7F6CF09
:1043700006E221EE40EE68E17CE7F0CF07E225EEB1
:1043800044EE69E17CE7EACF06E221EE42EE6CE121
:104390007CE7E4CF07E225EE46EE6DE17CE7DECF79
:1043A00008E221E045EE6EE17CE7D8CF8091590329
:1043B00081608093590395C080915A0388608093EF
:1043C0005A038FC0809159038260F3CF80915903C3
:1043D0008460EFCF809159038860EBCF80915A03BE
:1043E0008160EDCF80915A038260E9CF80915903BB
:1043F0008061DFCF809159038062DBCF80915903C8
:104400008064D7CF0E943914809159038068D1CF3E
:10441000809159038860DCCF80915A038260E0CF9D
:10442000809159038E7FC5CF80915A03877FC7CF74
:10443000809159038D7FBDCF809159038B7FB9CF78
:1044400080915903877FB5CF80915A038E7FB7CF74
:1044500080915A038D7FB3CF809159038F7EA9CF6E
:10446000809159038F7DA5CF809159038F7BA1CF78
:104470000E943914809159038F779BCF8091590303
:10448000877FDCCF80915A038D7FE0CF80915903E5
:1044900082FB992790F921E0922790FB82F990FB0B
:1044A00083F987CF80915A03982F909591708E7FD2
:1044B000892B90FB81F983CF90915903892F8F7BB2
:1044C00096FF806476CF0E94391490915903892F0A
:1044D00097FB87F980586DCF61E08EE090E00E94F5
:1044E00000336091590370915A0384E090E00E9478
:1044F0001E330E94391488CD60E0EFCF90915903AC
:10450000892F8F7E94FF806154CF90915903892F1A
:104510008E7F90FF81604DCF90915A03892F877FC6
:1045200093FF88604CCF89E2E8E3F2E0928189133F
:1045300001C01282319622E0EE33F207B9F799C337
:1045400081E00E94BB1143E062E081E00E946611BD
:104550005BCD81E00E949211F6CF82E0F2CF0E9403
:10456000A10D60938B0370938C0380938D039093C4
:104570008E0380911E0390911F0320918F03309131
:104580009003AC014095509542235323452B31F0C5
:10459000282339233093900320938F03F70145811B
:1045A000CB37FCE7DF0749F5442309F42DCD292F4C
:1045B000332721153105F9F49C0180E0A90174E04D
:1045C000569547957A95E1F74115510511F08C5FA5
:1045D0009A01A9015695479556954795411551055C
:1045E00011F08E5F9A0136952795232B09F08F5F86
:1045F0000E94CB1109CD88E0E1CFC11522E5D20799
:10460000F0F4C11530E5D307E8F5C11580E4D8070B
:1046100008F055C0442309F46BC0C330FCE7DF0742
:1046200009F4EEC008F0C2C0C1153CE7D30709F495
:10463000CBC0C130DC4709F05BC00E944F14C032D0
:1046400092E5D90738F3C034A2E5DA0728F0CE01A5
:10465000805C92458097F0F68C2F8F7121E030E0DE
:10466000082E02C0220F331F0A94E2F760918F03D5
:104670007091900326233723232B61F2442309F4FE
:10468000C3CCB6CFCE0125E0969587952A95E1F764
:104690008F7021E030E0082E02C0220F331F0A94F1
:1046A000E2F760918F037091900326233723232B29
:1046B00009F4B0CF41119CCF10929503DAC2F701F3
:1046C0008681807F09F0A6CF411112C02D2F2F7057
:1046D00081E090E002C0880F991F2A95E2F72091AF
:1046E0008F033091900382239323892B09F08CCC84
:1046F000F7018581C081D181882309F494C0CE015E
:104700000E94AE10182F682FCE010E942211BE0108
:10471000812F0E945A0F0E94780FD82FC92FB82ED0
:10472000D7011596DC9015971696CC90C2948FE021
:10473000C82280918A03877001F10D2DDD20F1F0F0
:10474000892F807F803469F080E28D0F8830A8F057
:10475000892F807E803229F4B1E0BD1770F4CC201F
:1047600061F080915A0382FF08C082E00E94A41188
:1047700080918A03877001E009F000E01C2F1295F8
:104780001F701C3008F0ABC0E12FF0E0E653FC4D89
:104790000C949533182418244A244A24DF246F24C7
:1047A0006F246F24FF248C259D259D25CB359CE708
:1047B000D907B9F1CC35ACE7DA0749F1CA35DC479E
:1047C00009F096CF81E02AC00E943914EFEFF4E39C
:1047D0002CE0E150F0402040E1F700C0000087E706
:1047E00097E7909301088093000888E19AE00FB65C
:1047F000F894A895809360000FBE90936000FFCF5F
:104800006FEF7FEF90E080E00E941E3316CF809123
:104810005A0382FB882780F991E089270E94F216CB
:1048200067CF80E0FBCFCE010E94EF10182F6FCF33
:104830001C2F1F70C07F11F01295107F8D2FDD206F
:10484000B9F0112369F090E29D0F983010F0D1116A
:1048500009C080919503182B109395030E94FD13B6
:104860008D2F3BC080919403182B10939403F6CFA7
:104870000E94D414112399F1D05E812FD83010F00A
:10488000B11003C00E949C1002C00E9494100E94AC
:10489000FD1325C01C2F1F70C07FC03211F0129570
:1048A000107FBB2051F0E1E0BE1609F468C0DD20A6
:1048B00009F474C0CC20C1F1D3CF80915A0382FD9A
:1048C0002FC0DD2031F1112339F080919503182B91
:1048D000109395030E94FD1380E00E942F15002382
:1048E00009F4C3C080918A0380FDBFC0D70115962B
:1048F0001C928695869586950E94BB11C7010E94E1
:10490000531F80918A038695869586950E94921101
:10491000ACC080E00E94D414112309F3812FB2CFE0
:10492000DD2099F0C11004C0812F0E94CA14D7CF96
:10493000F1E0CF12D4CF80917602912F98231917EE
:1049400071F2182B10937602CACFC110C8CF812FF5
:104950000E94C31490917602812F892329F0812F20
:10496000809589238093760280914602912F982327
:1049700009F4B5CF1095182310934602B0CFDD206F
:1049800029F025E02C1508F4AACFCECF34E03C1551
:1049900008F4A5CF812F0E94C314A1CFCC20D1F35E
:1049A000D93349F48FEF97EEA3E081509040A040B7
:1049B000E1F700C000008D2F0E94D41490CF8C2FFF
:1049C00086958695837039F0813079F018501430CF
:1049D00008F085CF48C08D2F9C2F9370D11002C056
:1049E00080E090E00E94EF0D7ACF8D2F9C2F937086
:1049F000D11002C080E090E00E94CA0D70CF8C2FD1
:104A0000837009F045C0D1102EC04D2F42954695B8
:104A10004770440F440F2D2F2F7030E0042E02C03A
:104A2000220F331F0A94E2F790E080E0D4FF09C020
:104A30008FE090E002C0880F991F4A95E2F78095B9
:104A40009095C695C695C370C230C9F0A8F4409140
:104A5000B0025091B102C13069F0822B932B8423B4
:104A600095230E9403120E94140E60E0C7010E9469
:104A70002A12DACA242B352B822B932BF2CF822BCE
:104A8000932B2091B0023091B10282279327E9CF76
:104A90008695DD2011F08C2F8170882321F34D2F16
:104AA000429546954770440F440F2D2F2F7030E0EC
:104AB000042E02C0220F331F0A94E2F790E080E038
:104AC000D4FF09C08FE090E002C0880F991F4A957B
:104AD000E2F780959095C695C695C370C23099F05F
:104AE00078F440911E0350911F03C13039F0822B9E
:104AF000932B842395230E945811B5CF242B352B5B
:104B0000822B932BF8CF822B932B20911E03309175
:104B10001F0382279327EFCFCF70DD2039F08C2F32
:104B20000E94BB118D2F0E94CA149DCF8D2F0E9411
:104B3000C3148C2F0E94921196CF8D2FB2EFBB160B
:104B400009F43FC0BB1580F0E0EFBE16F1F0F1EFC5
:104B5000BF16A1F0DD2009F464C0CC2009F45EC0CA
:104B60008D2F0E942F1532CF23EFB21689F134EF2B
:104B7000B312F0CF90915A0392FD37C08C2F8F71F2
:104B8000DD2019F10E94BB1121CFDD20A9F084E0C6
:104B90008C1508F41BCFCF7181E090E002C0880F24
:104BA000991FCA95E2F720911E0330911F038227B7
:104BB00093270E9458110ACF95E09C1508F406CF60
:104BC000EACF8C2F8F71DD20E9F20E949211FECE88
:104BD00090E080E0DD2069F3CF7181E090E002C0D9
:104BE000880F991FCA95E2F7E4CFDD2061F08C2F82
:104BF0008F7192FFC7CFA8E08A9F90011124236094
:104C000020938A03BFCF81E00E94A411B1E0BC15BC
:104C100008F0DCCE82E00E94A411D8CE8C2F8F71D8
:104C2000B1CFCC2079F0893349F4EFEFF7EE23E0F0
:104C3000E150F0402040E1F700C000008D2F0E94BD
:104C4000D414C4CE8C2F8F71C0CFC631BCE7DB0724
:104C5000F1F4809195038A7A91E009F490E09093C1
:104C6000450265E3811101C069E288E392E00E9498
:104C7000B00D0E94FD13C8C9C631ECE7DE0771F51F
:104C800080914502882309F44ECC85E34DCCC7378B
:104C9000FCE7DF0709F454CCC8372CE7D20709F446
:104CA0005CCC81E09E01205E32452032310508F067
:104CB00056CC811154CCCF7181E090E0DC0102C070
:104CC000AA0FBB1FCA95E2F7ED016A2F83E090E0BF
:104CD0000E940033CE010E94031296C9C7373CE7F9
:104CE000D30709F436CCC8379CE7D907D9F682E058
:104CF00031CC8CE19DE066C9C234FEE7DF0709F4E0
:104D000019CAC3343EE7D30709F071C9222309F455
:104D100094C988E19DE056C9C1348EE7D80749F3AC
:104D200030F4C034AEE7DA0709F061C949C9C234CA
:104D3000BEE7DB0709F4FBC9C334EEE7DE0749F33E
:104D400056C9B0E0A0E0E7EAF6E20C94AD328091FB
:104D50006D02807F09F050C080916C02882309F4B5
:104D60004BC0E091050487E0D82E8091CC038E17CC
:104D700009F442C00E2F10E0ED9DF0011124E35321
:104D8000FC4F84818823E9F1D09EE001D19ED00DB3
:104D90001124FE01E353FC4F918180916802981326
:104DA00030C090818091670298132BC0858181115A
:104DB00028C0E280F3808091690290916A02E81A2B
:104DC000F90A60E087E692E00E942A128FEAE8166C
:104DD000F104B8F480916D028F70806180936D0250
:104DE000CD52DC4F88818F708061888387E692E0A6
:104DF0000E94531F0E94A410CDB7DEB7E7E00C94C9
:104E0000C932F8013196E770B0CFA4E1B0E0EBE031
:104E1000F7E20C94A5328C0186E0F801DE011F96C2
:104E200001900D928A95E1F7F801F480E58087E61C
:104E3000882E82E0982E80916B0281112AC0F11099
:104E400003C0FF24F3941CC0EE20F9F0C8010E94B7
:104E50000812F82E8823C9F087E0F801A7E6B2E02F
:104E600001900D928A95E1F780916B02813031F4C7
:104E700080916702909168020E94E2100E94A12630
:104E80008F2D6496EFE00C94C132C8010E94531F2D
:104E9000D8CFC280D380B0906C028091690290918B
:104EA0006A023601681A790ABB2009F4F7C05080FB
:104EB000A18060E087E692E00E942A12FFEA6F1666
:104EC000710408F0A4C0FF2009F4BBCF80916D02EB
:104ED000382F307F20916802F8019181311157C03D
:104EE000FE2C291314C020916702908129130FC052
:104EF000E11046C08F70806180936D0287E692E07A
:104F00000E94531F80916D02F8018683B9CFE11092
:104F100037C06A2D852D0E94100C6A2D852D0E94A8
:104F2000100CE82E8111ACCF5F86A88A8F859889F6
:104F30000E94E210292F22952F70243058F49F7080
:104F4000223080F0992391F0F8019681907F71F4DE
:104F5000FE2C96CF2A50223068F0C8010E94531FC1
:104F6000EB2CF6CF992311F0882391F3805E8830E3
:104F7000A0F7EECF803F60F3815F833070F7E8CF1A
:104F800080916D02816080936D02F12C79CF29139D
:104F900015C0209167029081291310C0E1100EC046
:104FA0008683C8010E94531F87E0F801A7E6B2E09C
:104FB00001900D928A95E1F7FB2C62CFC8010E9407
:104FC0000812882309F461CFEE2009F45ECF8091A6
:104FD0006D02803288F02091670230916802398733
:104FE0002887DB86CA8690916B029C871D868E87F8
:104FF000CE0108960E94531F87E0F801A7E6B2E0B1
:1050000001900D928A95E1F70E94A1261ACF809116
:105010006D02982F907F51F487E692E00E94531F13
:1050200087E0F40111928A95E9F7AFCFFF2009F4E8
:1050300008CF20916802F8019181291311C02091B5
:105040006702908129130CC0E1100AC08683C80151
:105050000E94531F87E0F40111928A95E9F7ACCFC3
:10506000C8010E940812882309F40FCFEE2009F42A
:105070000CCF80916D02803208F4BECF2091670280
:10508000309168023A832983DC82CB8290916B0253
:105090009D831E828F83CE010196ACCF60E087E6B0
:1050A00092E00E942A12FFEA6F16710408F0B8CF4E
:1050B000FF2009F4C6CEFE2CEE2009F4E6CE909136
:1050C0006802F801818198132DC090916702808158
:1050D000981328C08091690290916A02C81AD90A6F
:1050E000FFEACF16D104A8F490916D0290FD11C093
:1050F000907F79F080916D02F8018683903F31F0C6
:10510000982F907F905F8F70892B8683C8010E94B3
:10511000531F87E0F801A7E6B2E001900D928A954F
:10512000E1F7AECEC8010E940812811165CF8091CF
:105130006D02816080936D02C8010E94531FA0CE52
:10514000ABE1B0E0E6EAF8E20C94B1324E8B5F8B53
:10515000688F798F8A8F9B8F9111109294031D8A8B
:1051600086E0FE017696DE011F9601900D928A95EB
:10517000E1F78B89882351F061E0CE010F960E9400
:105180002A1261E0CE010F960E942A1287E0FE01EA
:105190003F96DE01189601900D928A95E1F7CE01B7
:1051A00008960E94052781112AC087E0FE013896E3
:1051B000DE01119601900D928A95E1F78C85882386
:1051C000F1F02091CC0330E0C90101968770992756
:1051D000409105044817190659F197E0929FD001B4
:1051E000939FB00D1124A353BC4FFE013196019043
:1051F0000D929A95E1F78093CC030E94A41017E0DA
:10520000809105049091CC038917F9F0819FC0012A
:10521000112483539C4F0E9405278823B1F080916D
:10522000050490E001968770992780930504E8CFE4
:105230000E9439141092CC031092050487E0E7E62F
:10524000F2E0DF011D928A95E9F76B96E3E00C949A
:10525000CD32A6E0B0E0EFE2F9E20C94B0320E9469
:1052600073188C01809177029091780280179107D2
:1052700081F019821A820E947318682F49815A811D
:10528000792F80E090E00E94A0281093780200938C
:1052900077022696E4E00C94CC321F920F920FB660
:1052A0000F9211248F939F93AF93BF938091A80384
:1052B000811113C08091A9039091AA03A091AB031F
:1052C000B091AC034196A11DB11D8093A9039093A9
:1052D000AA03A093AB03B093AC03BF91AF919F918E
:1052E0008F910F900FBE0F901F901895CF93DF9363
:1052F000EC010E9473188C1B9D0BDF91CF910895D8
:10530000ADE0B0E0E6E8F9E20C94A23285B780683F
:1053100085BF85B7806885BF84B7877F84BF0FB698
:10532000F894A89580916000886180936000109245
:1053300060000FBE80E890E00FB6F89480936100A3
:10534000909361000FBE81E080936B0160916801D2
:105350007091690180916A0190916B010E947F18A0
:1053600084E39EE090933702809336020E94460CBD
:105370000E94E50C8091E20084608093E2007894C2
:105380008091C203882399F01091E9001F708091E9
:10539000EC0080FFA2C180E8182B1092E9008091F8
:1053A000E80083FD0E949B181F701093E90082E0C3
:1053B00084BD93E095BD9AEF97BD80936E001092E7
:1053C000A0021092A1021092A2021092A302809158
:1053D000D80080618093D8002AE12A95F1F700C0B7
:1053E0008091D900182F117080FD04C00E94460CD6
:1053F0001092C203109398031093990310932801FD
:1054000011110E942B31809128018091280190E098
:10541000811101C095E09093AF0285E0891B8093D4
:10542000AE0203E212E0D8018D918D018F3F11F0A1
:105430000E94360EB2E008321B07A9F708E212E01C
:10544000F80181918F018F3F11F00E94360EF2E03A
:105450000E321F07A9F78AE0E2EBF2E0DF01282F06
:105460001D922A95E9F7E4EAF2E0DF011D928A95A0
:10547000E9F790E080E00E94EA32853E9E4F09F411
:1054800061C065EE7EEF90E080E00E941E3360E038
:1054900082E090E00E94003381E090E09093B102BE
:1054A0008093B00261E083E090E00E94003360E00E
:1054B00074E184E090E00E941E3360E086E090E0BA
:1054C0000E94003360E087E090E00E94003340E0FB
:1054D00050E0BA0188E090E00E94123360E083E27D
:1054E00090E00E94003360E08CE090E00E94003386
:1054F00060E08DE090E00E94003319821A821B82E6
:105500001C821D821E821F82188648E050E067E1DF
:1055100070E0CE0101960E94F03240E050E0BA0106
:105520008FE190E00E94123340E050E0BA018FE03A
:1055300090E00E94123340E050E0BA0183E190E035
:105540000E94123382E090E00E94E2328093BC021B
:1055500084E090E00E94EA3290935A0380935903CA
:1055600083E090E00E94E23290E00E94031280917A
:1055700098038111B4C082E080937B0380E880931C
:105580000B040E94C92F6BE070E08FE89FE00E943F
:10559000A2168823E9F180917B0365E070E081FD2C
:1055A000A0C08AE89FE00E94A216882389F16DE0DE
:1055B00070E088E79FE00E94A216882349F10E94CC
:1055C000A10D605A75418F4F9F4F60938103709377
:1055D00082038093830390938403E4E1F4E080E00A
:1055E00092E0DF019C011D9221503040E1F7F093E1
:1055F0001506E09314068FEF9FEF909313048093AA
:10560000120481E0809386038093850310927C03CB
:1056100080919803811102C00E942E3189E291E0AD
:1056200090939D0380939C0354E6852E912CA12C8E
:10563000B12C8091C20310E4853009F489C00E9426
:10564000E11D0DEB12E042EBE42E42E0F42ED70117
:10565000F80191918D9127EC32E02E173F0709F464
:1056600081C09817B1F340909803D12CD701CD9009
:105670007D01F80151908F015C1431F1712C662489
:1056800063945C24852D8621B9F04420A9F07982A9
:10569000DA820E9473189C838B83F1E0FD8391E092
:1056A000862D8C2109F490E09E8349815A816B817B
:1056B0007C818D810E94A0287394660C26E0721272
:1056C000E1CFF8013197C082D3943AE0D312CECF24
:1056D0000E944D0E41E049874AC080E05DCE80E0E7
:1056E0004BCF85E89FE05FCF8091C203843029F1E2
:1056F0000E94AF161092A80348E150E00FB6F8944C
:10570000A895409360000FBE1093600083B7817F1F
:10571000846083BF83B7816083BF7894889583B7A3
:105720008E7F83BF0FB6F894A89580916000886142
:1057300080936000109260000FBE0E94E11DE2EBBA
:10574000F2E081918111BDC352E0EC3BF507C9F74E
:105750008091C203853009F4C7CF0E9439140E949A
:10576000140E6DCF98137FCF0E942929198680913E
:105770009803882309F425C100919603109197039B
:1057800001151105F9F0C090C702D090C8020E941F
:1057900073188C199D09803B9105A0F0112790E0AA
:1057A00080E00230110540F434E0000F111F3A95FB
:1057B000E1F7C8018D5C9E4FDC0115962C9122FF0C
:1057C0000E947E14C090D402D090D5020D2C000C03
:1057D000EE08FF0810915301212F30E0E4EDF2E0D4
:1057E00081E090E03296281739070CF030C14090E4
:1057F000D0025090D1026090D2027090D3020E94E9
:10580000A10D9B01AC01241935094609570929014D
:105810003A0139EC431651046104710414F180918A
:10582000CF0290E0019669E170E00E9440338093DE
:10583000CF02880F991FFC01EC52FD4F118210829C
:10584000812F183108F087E18F5F809353010E9408
:10585000A10D6093D0027093D1028093D2029093F5
:10586000D30242E0C416D104E104F1045CF1A0E6E5
:10587000BAEEA70196010E949B336B017C0158ECA4
:10588000159F90011124032E000C440B550B240D81
:10589000351D461D571DA5E0B0E00E949B339B01BE
:1058A000AC01C701B6010E945433213F31054105C7
:1058B000510524F020EF30E040E050E029013A01AA
:1058C00077FE03C0412C512C3201C090CB02D09006
:1058D000CC02E090CD02F090CE020E94A10D9B017F
:1058E000AC012C193D094E095F0969017A0135E6C1
:1058F000C316D104E104F10484F00E94A10D609369
:10590000CB027093CC028093CD029093CE02809113
:1059100058038093CA024092C9021091CA02A09112
:10592000C902A11BBB0BA70196010E94A633A501CA
:1059300094010E947633120F1093580380918903CB
:10594000882369F00E94731820918703309188039F
:10595000821B930B8F3F9F4710F40E94AF1400915E
:105960008F03109190030115110559F140908B039D
:1059700050908C0360908D0370908E030E94A10D57
:10598000641975098609970961367A4E8105910572
:10599000C0F00095109580911E0390911F03802305
:1059A00091230E9458111092900310928F030E942D
:1059B000A10D60938B0370938C0380938D03909360
:1059C0008E0380918603882309F422C200917D030F
:1059D00010917E030E947318801B910BC29708F4EC
:1059E000ADC00E94731890937E0380937D0384E181
:1059F00094E0909315068093140680919803882371
:105A000009F4DAC080911E0390911F038430910540
:105A100009F4C2C040F50097A1F161E871E082305D
:105A2000910589F19F938F938FEB91E09F938F93D3
:105A30001F9288E18F9386E093E09F938F930E945B
:105A4000DA330FB6F894DEBF0FBECDBF20C0408161
:105A50005181052E000C660B770BC40ED51EE61E79
:105A6000F71E0196BFCE8031910509F498C08631AA
:105A7000910509F494C088309105A1F66FE971E0B1
:105A800002C063E771E086E093E00E94D33386E0D2
:105A900093E00E948A1681E00E94CB1380915A0302
:105AA00080FF80C087E591E09F938F9384E591E02C
:105AB0009F938F938FEC91E09F938F931F9288E138
:105AC0008F9380E293E09F938F930E94DA330FB617
:105AD000F894DEBF0FBECDBF80E293E00E948A162D
