:100000000C940A0F0C94270F0C94270F0C94E631D4
:100010000C94270F0C94270F0C94270F0C94270F88
:100020000C94270F0C94270F0C94291F0C94ED1E91
:100030000C94292A0C94270F0C94270F0C94270F4B
:100040000C94270F0C94270F0C94270F0C94270F58
:100050000C94270F0C94241B0C94270F0C94270F3F
:100060000C94270F0C94270F0C94270F0C94270F38
:100070000C94270F0C94270F0C94270F0C94270F28
:100080000C94270F0C94270F0C94270F0C94270F18
:100090000C94270F0C94270F0C94270F0C94270F08
:1000A0000C94270F0C94270F0C94270F00000000CE
:1000B0000000000000000000000000000000000040
:1000C0000000000000000000000000000000000030
:1000D0000000000000000000000000000000000020
:1000E0000000000000000000000000000000808010
:1000F00080404020201008040204081010202040F6
:1001000040808000000000000000000000000000AF
:1001100000000000000000000000000000000000DF
:1001200000000000000000000000000000000000CF
:1001300000000000000000000000000000000000BF
:1001400000000000000000000000000000000000AF
:100150000000000000000000000000000000003F60
:10016000C1010102020404040402020101010000B1
:10017000000000008000004080804000003030001F
:10018000000000010264180412C2CA2488F08080B2
:10019000404040402020202010101010080808087F
:1001A0000404040402020202010101010000000033
:1001B000000000000000000000000000000000003F
:1001C000000000000000000000000000000000002F
:1001D0000000000000000000000000000000E01827
:1001E0000601000000000000000000000080838382
:1001F000404040402021212010101010080808081D
:1002000004040404020202020101010100000000D2
:1002100000000000000000000000000000000000DE
:1002200000000000000000000000000000000000CE
:1002300000000000000000000000000000000000BE
:1002400000000000000000000000000080808080AE
:10025000404040402020202010101010080F0808B7
:1002600004040404020408101020204040414224E9
:1002700098C088888C9C1C1E0E06000000000000A0
:10028000000000000000000000000000000000006E
:10029000000000000000000000000000000000005E
:1002A000000000000000000000000000000000004E
:1002B000000000000000000000000000000000003E
:1002C000000000000000000000000000000000002E
:1002D000000000000000000000000000000000001E
:1002E000000000000000000000000000000000000E
:1002F00000000000000000000000000000000000FE
:1003000000000000000000000000000000000000ED
:1003100000000000000000000000000000000000DD
:1003200000000000000000000000000000000000CD
:1003300000000000000000000000000000000000BD
:1003400000000000000000000000000000000000AD
:10035000000000000000000000000000000000009D
:10036000000000000000000000008080804040206D
:100370002010080402040810102020404080800053
:10038000000000000000000000000000000000006D
:10039000000000000000000000000000000000005D
:1003A000000000000000000000000000000000004D
:1003B000000000000000000000000000000000003D
:1003C000000000000000000000000000000000002D
:1003D00000000000000000000000003FC101010219
:1003E0000204844444428201010100000000000034
:1003F000800000408080400000303000000000019C
:100400000204040808102040808080804040404062
:1004100020202020101010100808080804040404EC
:1004200002020202010101010000000000000000C0
:1004300000000000000000000000000000000000BC
:1004400000000000000000000000000000000000AC
:1004500000000000000000000000E018060100009D
:100460000C03000218190005FE80838340404040C1
:10047000202121201010101008080808040404048A
:100480000408304080800000018698600000000071
:10049000000000000000000000000000000000005C
:1004A000000000000000000000000000000000004C
:1004B000000000000000000000000000000000003C
:1004C000000000000000000080808080404040402C
:1004D0002020202010101010080F08080404040425
:1004E0000202020201010101000000000000000000
:1004F0000000000000000000000000060F0F0703CE
:100500000361F0F8FC600101013C78F8F070000034
:1005100000000000000000000000000000000000DB
:1005200000000000000000000000000000000000CB
:1005300000000000000000000000000000000000BB
:1005400000000000000000000000000000000000AB
:10055000000000000000000000000000000000009B
:10056000000000000000000000000000000000008B
:10057000000000000000000000000000000000007B
:10058000000000000000000000000000000000006B
:10059000000000000000000000000000000000005B
:1005A000000000000000000000000000000000004B
:1005B000000000000000000000000000000000003B
:1005C000000000000000000000000000000000002B
:1005D000000000000000000000000000000000001B
:1005E00000000000000080808040402020100804AF
:1005F000020408101020204040808000000000000D
:1006000000000000000000000000000000000000EA
:1006100000000000000000000000000000000000DA
:1006200000000000000000000000000000000000CA
:1006300000000000000000000000000000000000BA
:1006400000000000000000000000000000000000AA
:10065000000000000000003FC101010202048444C8
:1006600044428201010100000000000080000040BF
:100670008080400000303000000000010264180457
:1006800012C2CA2488F080804040404020202020B0
:1006900010101010080808080404040402020202E2
:1006A0000101010100000000000000000000000046
:1006B000000000000000000000000000000000003A
:1006C000000000000000000000000000000000002A
:1006D000000000000000E018060100000C0300020A
:1006E00018190005FE8083834040404020212120CE
:1006F0001010101008080808040404040202020282
:1007000001010101000000000000000000000000E5
:1007100000000000000000000000000000000000D9
:1007200000000000000000000000000000000000C9
:1007300000000000000000000000000000000000B9
:100740000000000080808080404040402020202029
:1007500010101010080F080804040404020202021A
:100760000101010100000000000000000000000085
:100770000000000000000000000000000000000079
:100780000000000000000000000000000000000069
:100790000000000000000000000000000000000059
:1007A0000000000000000000000000000000000049
:1007B0000000000000000000000000000000000039
:1007C0000000000000000000000000000000000029
:1007D0000000000000000000000000000000000019
:1007E0000000000000000000000000000000000009
:1007F00000000000000000000000000000000000F9
:1008000000000000000000000000000000000000E8
:1008100000000000000000000000000000000000D8
:1008200000000000000000000000000000000000C8
:1008300000000000000000000000000000000000B8
:1008400000000000000000000000000000000000A8
:100850000000000000000000000000000000008018
:10086000804040402020202020180402010204087B
:1008700010202040408080000000000000000000A8
:100880000000000000000000000000000000000068
:100890000000000000000000000000000000000058
:1008A0000000000000000000000000000000000048
:1008B0000000000000000000000000000000000038
:1008C0000000000000000000000000000000000028
:1008D0000000003FC10101020204040404020201FD
:1008E0000000000000000000800000408080400008
:1008F000003030000000000102040408081020400D
:100900008080808040404040202020201010101027
:10091000080808080404040402020202010101019B
:1009200000000000000000000000000000000000C7
:1009300000000000000000000000000000000000B7
:1009400000000000000000000000000000000000A7
:100950000000E01806010000000000000000000098
:10096000008083834040404020212120101010103F
:1009700008080808040404040408304080800000CB
:1009800001869860000000000000000000000000E8
:100990000000000000000000000000000000000057
:1009A0000000000000000000000000000000000047
:1009B0000000000000000000000000000000000037
:1009C0008080808040404040202020201010101067
:1009D000080F080804040404020408101020204032
:1009E0004041422418000000000000000000000008
:1009F00000000000000000000000000000000101F5
:100A000001000000000000000000000000000000E5
:100A100000000000000000000000000000000000D6
:100A200000000000000000000000000000000000C6
:100A300000000000000000000000000000000000B6
:100A400000000000000000000000000000000000A6
:100A50000000000000000000000000000000000096
:100A60000000000000000000000000000000000086
:100A70000000000000000000000000000000000076
:100A80000000000000000000000000000000000066
:100A90000000000000000000000000000000000056
:100AA0000000000000000000000000000000000046
:100AB0000000000000000000000000000000000036
:100AC0000000000000000000000000000000000026
:100AD0000000000000000000000000000000808016
:100AE0004040402010080402010204081020408009
:100AF0008000000000000000000000000000000076
:100B000000000000000000000000000000000000E5
:100B100000000000000000000000000000000000D5
:100B200000000000000000000000000000000000C5
:100B300000000000000000000000000000000000B5
:100B40000000000000000000000000000000003F66
:100B5000C1010102020404040402020101010000B7
:100B600000000000000000800000800000606000C5
:100B700000010204040808101020204080808080BA
:100B80004040404020202020101010100808080885
:100B90000404040402020202010101010000000039
:100BA0000000000000000000000000000000000045
:100BB0000000000000000000000000000000000035
:100BC0000000000000000000000000000000C03035
:100BD0000C0300000000000000000000008086867A
:100BE000404040402122222011111010080808081E
:100BF00004040404040830408080000001869860EA
:100C000000000000000000000000000000000000E4
:100C100000000000000000000000000000000000D4
:100C200000000000000000000000000000000000C4
:100C300000000000000000000000000080808080B4
:100C4000404040402020202010101010080F0808BD
:100C500004040404020408101020204040414224EF
:100C6000180000000000000000000000000000006C
:100C70000000000000000000000001010100000071
:100C80000000000000000000000000000000000064
:100C90000000000000000000000000000000000054
:100CA0000000000000000000000000000000000044
:100CB0000000000000000000000000000000000034
:100CC0000000000000000000000000000000000024
:100CD0000000000000000000000000000000000014
:100CE0000000000000000000000000000000000004
:100CF00000000000000000000000000000000000F4
:100D000000000000000000000000000000000000E3
:100D100000000000000000000000000000000000D3
:100D200000000000000000000000000000000000C3
:100D300000000000000000000000000000000000B3
:100D400000000000000000000000000000000000A3
:100D50000000000000000000000080808080404013
:100D600020100804020408102040808000000000C9
:100D70000000000000000000000000000000000073
:100D80000000000000000000000000000000000063
:100D90000000000000000000000000000000000053
:100DA0000000000000000000000000000000000043
:100DB0000000000000000000000000000000000033
:100DC00000000000000000000000007E820202041B
:100DD00004080808080404020101000000000000E3
:100DE000000000800000800000606000010102043B
:100DF000040808101020204080808080404040403F
:100E000020202020101010100808080804040404F2
:100E100002020202010101010000000000000000C6
:100E200000000000000000000000000000000000C2
:100E300000000000000000000000000000000000B2
:100E400000000000000000000000C0300C030000A3
:100E50000000000000000000008086864040404006
:100E6000212222201111101008080808040404048B
:100E70000408304080800000018698600000000077
:100E80000000000000000000000000000000000062
:100E90000000000000000000000000000000000052
:100EA0000000000000000000000000000000000042
:100EB0000000000000000000808080804040404032
:100EC0002020202010101010080F0808040404042B
:100ED0000204081010202040404142241800000065
:100EE0000000000000000000000000000000000002
:100EF00000000000000001010100000000000000EF
:100F000000000000000000000000000000000000E1
:100F100000000000000000000000000000000000D1
:100F200000000000000000000000000000000000C1
:100F300000000000000000000000000000000000B1
:100F400000000000000000000000000000000000A1
:100F50000000000000000000000000000000000091
:100F60000000000000000000000000000000000081
:100F70000000000000000000000000000000000071
:100F80000000000000000000000000000000000061
:100F90000000000000000000000000000000000051
:100FA0000000000000000000000000000000000041
:100FB0000000000000000000000000000000000031
:100FC0000000000000000000000000000000000021
:100FD0000000000000008080808040402010080455
:100FE0000204081020408080000000000000000083
:100FF00000000000000000000000000000000000F1
:1010000000000000000000000000000000000000E0
:1010100000000000000000000000000000000000D0
:1010200000000000000000000000000000000000C0
:1010300000000000000000000000000000000000B0
:101040000000000000001C34C40404040808080860
:1010500008040402010100000000000080000040BC
:1010600080804000003030000101020204040408C6
:101070000810204080808080404040402020202078
:1010800010101010080808080404040402020202E8
:10109000010101010000000000000000000000004C
:1010A0000000000000000000000000000000000040
:1010B0000000000000000000000000000000000030
:1010C000000000000000E018060100000000000021
:1010D0000000000000808383404040402021212008
:1010E0001010101008080808040404040408304014
:1010F0008080000001869860000000000000000071
:1011000000000000000000000000000000000000DF
:1011100000000000000000000000000000000000CF
:1011200000000000000000000000000000000000BF
:10113000000000008080808040404040202020202F
:1011400010101010080F080804040404020408100A
:101150001020204040414224180000000000000000
:10116000000000000000000000000000000000007F
:10117000000001010100000000000000000000006C
:10118000000000000000000000000000000000005F
:10119000000000000000000000000000000000004F
:1011A000000000000000000000000000000000003F
:1011B000000000000000000000000000000000002F
:1011C000000000000000000000000000000000001F
:1011D000000000000000000000000000000000000F
:1011E00000000000000000000000000000000000FF
:1011F00000000000000000000000000000000000EF
:1012000000000000000000000000000000000000DE
:1012100000000000000000000000000000000000CE
:1012200000000000000000000000000000000000BE
:1012300000000000000000000000000000000000AE
:10124000000000000000000000000000000000801E
:101250008040404020202020201804020102040881
:1012600010202040408080000000000000000000AE
:10127000000000000000000000000000000000006E
:10128000000000000000000000000000000000005E
:10129000000000000000000000000000000000004E
:1012A000000000000000000000000000000000003E
:1012B000000000000000000000000000000000002E
:1012C00000060D31C1010101020202040402020103
:1012D000000000000000000080000040808040000E
:1012E0000030300000000001020404080810204013
:1012F000808080804040404020202020101010102E
:1013000008080808040404040202020201010101A1
:1013100000000000000000000000000000000000CD
:1013200000000000000000000000000000000000BD
:1013300000000000000000000000000000000000AD
:101340000000E0180601000000000000000000009E
:101350000080838340404040202121201010101045
:1013600008080808040404040408304080800000D1
:1013700001869860000000000000000000000000EE
:10138000000000000000000000000000000000005D
:10139000000000000000000000000000000000004D
:1013A000000000000000000000000000000000003D
:1013B000808080804040404020202020101010106D
:1013C000080F080804040404020408101020204038
:1013D000404142241800000000000000000000000E
:1013E00000000000000000000000000000000101FB
:1013F00001000000000000000000000000000000EC
:1014000000000000000000000000000000000000DC
:1014100000000000000000000000000000000000CC
:1014200000000000000000000000000000000000BC
:1014300000000000000000000000000000000000AC
:10144000000000000000000000000000000000009C
:10145000000000000000000000000000000000008C
:10146000000000000000000000000000000000007C
:10147000000000000000000000000000000000006C
:101480000000000000000000000000000102E07801
:101490000103E0000102E3780103E3000102E076CA
:1014A0000103E0000102E3760103E3000102E063CF
:1014B0000103E0000102E3630103E3004A001E00B0
:1014C0001F00200021002200350014001A0008002F
:1014D00015001700290004221628072409210A43B1
:1014E00031001D001B00060019000500000052001D
:1014F000510021522B42AA004D0027002600250052
:10150000240023002D00130012000C0018001C0002
:10151000340033320F380E340D310B002E023800F8
:10152000370036001000110000004F00500022521A
:101530002C41A90000000000000000000000000095
:1015400000000000000000000000000000001E027B
:101550001F0220022102220200000000427E407E83
:10156000417E000000000100010000002A00A800E8
:101570000000000000000000000000000000300239
:101580002F0200000000000035022702260225027B
:1015900024022302000030022F020000000000009D
:1015A0000000010001000000010001000000000037
:1015B000000000000000000000000000000000002B
:1015C0000000000000001E001F002000210022007B
:1015D000000000000000000000000000000001000A
:1015E00001000000010001000000000000000000F8
:1015F00000000000000000000000000000000000EB
:101600000000270026002500240023000000000021
:1016100000000000000000000000010001000000C8
:101620002800010000000000000000000000000091
:101630000000000000000000000000000100E100C8
:10164000E200E300E00000520000000000000000A3
:101650000000000000000100010001000100010085
:10166000000000000000000000000000000000007A
:101670004E0052004B00000000004D004F00510092
:1016800050004A00000000000000000000000000C0
:101690000000010001000100010001000000000045
:1016A0000000000000000000000000001C700000AE
:1016B000000000000000000000000000000000002A
:1016C0000000000000000000000000000000010019
:1016D0000100010001000000000000000000000007
:1016E00000000000000000000000000000000000FA
:1016F00000000000000000000000000000000000EA
:10170000000000001B70000000000100010001004B
:101710000100000000DA0281FFD9F1DB20A4A62E2F
:10172000AF00A0C0D30000A1C8D30000AED580A8F0
:101730001F408D14200000AF00AE05010980A101FB
:10174000850319012AB700150126B7009501751008
:101750008100C0050C0901A101850419012AA0021C
:10176000150126A002950175108100C0050109062A
:10177000A101050719E029E7150025019508750164
:1017800081029501750881010507190029FF1500DF
:1017900026FF009506750881000508190129051521
:1017A000002501950575019102950175039101C010
:1017B00009023B00020100A0FA0904000001030134
:1017C00001000921110100012244000705810308DD
:1017D00000010904010001030000000921110100BA
:1017E00001223200070582032000011201000200DD
:1017F000000008D8042DEB0001010200010E034C8B
:101800000069006C00790035003800000010036C9E
:101810000069006C00690075006D00730000000431
:101820000309040000000000003E5B4F5B3E003EE9
:101830006B4F6B3E001C3E7C3E1C00183C7E3C18EF
:10184000001C577D571C001C5E7F5E1C0000183C6E
:10185000180000FFE7C3E7FF00001824180000FF8E
:10186000E7DBE7FF0030483A060E002629792926F3
:1018700000407F05050700407F05253F005A3CE7F3
:101880003C5A007F3E1C1C0800081C1C3E7F0014B4
:10189000227F2214005F5F005F5F0006097F017FE7
:1018A00000006689956A0060606060600094A2FF35
:1018B000A2940008047E04080010207E2010000876
:1018C000082A1C0800081C2A0808001E1010101006
:1018D000000C1E0C1E0C0030383E383000060E3E48
:1018E0000E060000000000000000005F0000000085
:1018F0000700070000147F147F1400242A7F2A1297
:10190000002313086462003649562050000008077F
:10191000030000001C224100000041221C00002A9C
:101920001C7F1C2A0008083E080800008070300058
:101930000008080808080000006060000020100887
:101940000402003E5149453E0000427F40000072C3
:1019500049494946002141494D33001814127F106E
:10196000002745454539003C4A494931004121118C
:10197000090700364949493600464949291E0000F1
:101980000014000000004034000000000814224150
:101990000014141414140000412214080002015908
:1019A0000906003E415D594E007C1211127C007FF9
:1019B00049494936003E41414122007F4141413E73
:1019C000007F49494941007F09090901003E414121
:1019D0005173007F0808087F0000417F410000200C
:1019E00040413F01007F08142241007F40404040B9
:1019F000007F021C027F007F0408107F003E4141EF
:101A0000413E007F09090906003E4151215E007FE9
:101A1000091929460026494949320003017F01037B
:101A2000003F4040403F001F2040201F003F403803
:101A3000403F00631408146300030478040300614A
:101A400059494D4300007F414141000204081020E4
:101A500000004141417F0004020102040040404077
:101A60004040000003070800002054547840007FE5
:101A70002844443800384444442800384444287FEB
:101A80000038545454180000087E09020018242419
:101A90001C78007F080404780000447D400000208A
:101AA00040403D00007F102844000000417F40007E
:101AB000007C04780478007C0804047800384444EE
:101AC0004438007C1824241800182424187C007C36
:101AD000080404080048545454240004043F4424D7
:101AE000003C4040207C001C2040201C003C40303A
:101AF000403C004428102844004C9090907C0044C6
:101B000064544C4400000836410000000077000097
:101B1000000041360800000201020402003C2623B6
:101B2000263C000000000000808080800000000053
:101B30000080E070180C1830E080000010F8901061
:101B400030783010B8FC3810000000000000F8FCBD
:101B5000F8000000000000000000000000001C9CD5
:101B60001C00000000F8FCF80000000000001CFC55
:101B7000F8C000000000000080E0F87C1C000000BD
:101B8000F0FCFCFC1C1C1C1C1C1C1C1C0000000091
:101B90000000C0F0F8381C1C1C1C1C1C3CF8F0E0B9
:101BA00000E0F0F0F0E0ECEEF7F37020007C7C7CDD
:101BB0007E007E7E7E7F7F7F000080C0E07E5B4F68
:101BC0005BFEC00000C000DCD7DEDEDED7DC00C07C
:101BD0000000000000000000000000000000000005
:101BE00000000000000000000FBCE08181818383C1
:101BF00082870C183060C000001FFE90B9FFBB91B7
:101C0000983C1811133F1100000000000000FFFF76
:101C1000FF00000000000000000000000000FFFFC7
:101C2000FF00000000FFFFFF0000000000000000B8
:101C3000030F7FF8E080F0FC3F0F01000000000080
:101C40003F3F3F1C1C1C1C1C3C78F8F0E08000004F
:101C50000000C3E7FF7E3C3878787070F8FFDF87BC
:101C6000000F1F3F7F7F7F7F7F3F1E0C001F1F1FC6
:101C70003F003F3F3F7F7F7F00307B7F78302020D9
:101C800030787F3B0003000F7F0F0F0F7F0F0003A3
:101C90000000000000000000000000000000000044
:101CA000000000183C24666341C1818080808080F0
:101CB0008081C14162386C4CC68181808080808087
:101CC00081C14362361C1800000000000000FFFFC5
:101CD000FFC0C0C0C0C0C0C0C0C0800000007FFF47
:101CE0007F000000007FFFFFC080000000E0E0C038
:101CF000C0C0E0F97F1F07000000000000000000E6
:101D000070F0E0E0C0C0C0C0E0F0F87F3F0F00001E
:101D1000000F3F7FF9E0E0C0C0C0C0C0E0F97F3FE6
:101D20001F00000000000000000000000000000094
:101D300000000000000000000000000000000000A3
:101D40000000000000000000000000000000000093
:101D50000000000000000000000000000000000083
:101D60000000000000000000000000000000000073
:101D70000000000000000000000000000000000063
:101D8000000000000000007E0F00D4FFFFFFC7002E
:101D900000007800000000000000002A2B2800004E
:101DA000000000000000000000000000000029000A
:101DB0000000002C1E3420212224342627252E3614
:101DC0002D3738271E1F2021222324252633333682
:101DD0002E37381F0405060708090A0B0C0D0E0FD5
:101DE000101112131415161718191A1B1C1D2F3158
:101DF00030232D350405060708090A0B0C0D0E0FBC
:101E0000101112131415161718191A1B1C1D2F3137
:101E100030354C0011241FBECFEFDAE0DEBFCDBF5E
:101E200012E0A0E0B1E0E4E4FEE602C005900D920D
:101E3000AA30B107D9F725E0AAE0B2E001C01D92AF
:101E4000A63CB207E1F70E945C2A0C9420370C9460
:101E50000000FF920F931F93CF93DF932091C4054F
:101E60003091C505245C3340A90144585D4F413091
:101E70005240E8F040E052E0421B530B6091C20335
:101E80007091C303D901AC53BC4F420F531F821B47
:101E9000930BC1E0D0E02417350760F07093C303C3
:101EA0006093C203CDB7DEB7E5E00C9440334CE756
:101EB00052E0E4CFFC01E20FF31FF490FD91FF1616
:101EC000A1F08D0101501109F801F082F90115E02E
:101ED000F695E7951A95E1F78E0102C0000F111FE4
:101EE000EA95E2F7F801602B7F2B2F5F3F4FD3CFAE
:101EF000482F2091BA039091810357E0291302C023
:101F000080E0089530E0529FF001539FF00D1124BE
:101F1000EE57FC4F8181681306C08081481303C0CF
:101F200085818111EECF2F5F3F4F2770E7CFFC01F6
:101F3000AC014B5F5F4F8FEF91E32191822728E047
:101F400030E087FF09C0880F892721503109C9F780
:101F5000E417F50791F70895880FF7CFE8EDF0E063
:101F600080818E7F80831092E2001092DA001092BE
:101F7000E100A0EEB0E08C9181608C9380818F773E
:101F8000808319BCA7EDB0E08C918E7F8C9380810B
:101F90008F7E80831092620308952091E400309137
:101FA000E50085E69091EC0090FF06C09091E80076
:101FB00090FF06C080E008959091E80092FDFACF6E
:101FC00090917703992391F0953091F09091EB00E7
:101FD00095FD10C04091E4005091E50024173507AD
:101FE00009F381509A01F1F684E0089582E00895A2
:101FF00083E0089581E008958091790387FF13C0FD
:102000008091E80082FF06C08091E8008B77809382
:10201000E80004C0809177038111F2CF0895809188
:1020200077038823D9F38091E80080FFF8CF80916F
:10203000E8008E77ECCF982F9093E900242F762F2D
:1020400050E0891731F07091EC002091ED00509133
:10205000F00021FD07C09F5F973071F78093E90082
:1020600081E008953091EB003E7F3093EB0030919A
:10207000ED003D7F3093ED003091EB003160309307
:10208000EB007093EC002093ED005093F000209152
:10209000EE0027FDE0CF80E00895B0E0A0E0E3E5AA
:1020A000F0E10C942133C8EDD0E088818F7E8883E5
:1020B000E7EDF0E080818160808384E082BF81E091
:1020C0008093620388818E7F888302EE10E0F8019E
:1020D00010821092DA0081EEC82ED12CF601108207
:1020E00088818F77888388818068888388818F7DC5
:1020F000888319BC109277031092780310926C03B6
:1021000010926B0390EEE92EF12CF70180818B7F0A
:10211000808388818160888342E060E080E00E9463
:102120001B10F60180818E7F8083F80180818160A1
:102130008083808188608083F70180818E7F8083A7
:10214000888180618883CDB7DEB7E8E00C943D33A9
:10215000FC0180917F039091800386179707A0F080
:102160006115710529F49091E8009E779093E8003D
:1021700090E06115710551F4911108C08091E8005B
:1021800082FF35C080E00895BC01F2CF80917703D3
:102190008823C9F18530C9F18091E80083FD31C001
:1021A0008091E80082FDEACF8091E80080FFE1CFD6
:1021B0002091F3008091F200322F282F61157105D4
:1021C00019F02830310558F091E02830310509F038
:1021D00090E02091E8002E772093E800CACF81910B
:1021E0008093F100615071092F5F3F4FE7CF8091DD
:1021F0007703882341F0853041F08091E80083FF28
:10220000BDCF81E0089582E0089583E008950895A8
:1022100008952FB7F89460915E0370915F038091E9
:102220006003909161032FBF089580914E0108953E
:102230009C01FC0132969FEF80E04191461751F0DE
:102240009F3F19F4411101C0982F8F5F8630A9F785
:102250009F3F09F40895290F311D97FD3A95F90123
:1022600062830895A3E0B0E0E8E3F1E10C94273342
:10227000209153033091540328173907A1F090930C
:10228000540380935303E0915103F091520330972C
:1022900051F024E029839B838A830084F185E02D1B
:1022A000CE01019609952396E2E00C944333A3E016
:1022B000B0E0EDE5F1E10C94273320914F0330912C
:1022C000500328173907A1F09093500380934F03D0
:1022D000E0915103F0915203309751F023E02983AC
:1022E0009B838A830084F185E02DCE0101960995B8
:1022F0002396E2E00C94433380914D03882359F0F8
:10230000E0915103F0915203309729F00190F08150
:10231000E02D0995089580E008954115510511F0CB
:10232000FA0109950895DC01ED91FC9111978491D2
:102330003196ED93FC93089580E00895F894E82F8A
:10234000E295EF70F0E031A1282F2F7081E090E04E
:1023500001C0880F2A95EAF7982F9095932391A3AF
:1023600092A1892B82A3789408950F931F93809153
:102370004D03882329F00E9409111F910F910895A0
:102380000E94091100916D0210916E0220916F025E
:1023900030917002600F711F821F931FEECF9091DA
:1023A000180392FF10C041E0282F2471243009F057
:1023B00040E031E0282F2871283009F030E0431741
:1023C00011F02CE0822793FF10C041E0282F2471E8
:1023D000243109F040E031E0282F2871283109F03C
:1023E00030E0431711F02CE082273091190330FFC1
:1023F00010C051E0282F2171213009F050E041E058
:10240000282F2871283009F040E0541711F029E0F6
:10241000822731FF10C041E0282F2171213109F0BE
:1024200040E031E0282F2871283109F030E04317CF
:1024300011F029E0822794FD877E08958238910566
:10244000B9F1B0F48133910509F47DC048F48932C3
:10245000910509F46DC08A32910509F479C0089597
:102460008533910509F45FC08933910509F1089519
:10247000833E9105D9F138F4803E910529F1823EE1
:10248000910579F10895863E9105D9F1873E910530
:1024900009F43EC0843E910541F52091190321FFC6
:1024A00024C08091180384FD19C087EE90E0089540
:1024B00020911803237009F056C02091190323FFBF
:1024C00014C089E290E008952091180320FD38C0DF
:1024D0003091190330FF09C024FF3FC090E080E035
:1024E00008952091180322FDF7CF08952091180335
:1024F00022FD36C03091190330FD35C024FDEECFEA
:10250000F4CF2091180323FFF0CF24FDE7CFCDCFE8
:102510002091180323FD2AC03091190331FFEECF1B
:1025200084EE90E008952091180325FDCACF089508
:102530002091180325FD1DC02091190323FFD5CF3D
:1025400089E390E008952091180326FD15C00895B1
:102550002091180326FD13C0089583EE90E008959E
:1025600082EE90E0089580EE90E0089586EE90E08F
:10257000089585E390E008958AE290E0089581E36C
:1025800090E0B3CF7A30B8F46630A8F48530B0F478
:10259000E62FF0E096E0799FE00DF11D11249CE319
:1025A000899FE00DF11D1124EE0FFF1FE454FB4E37
:1025B00085919491089580E090E0089581E0FCCFAA
:1025C0001F93CF93DF930E941E12EC01C11580E58B
:1025D000D807E8F5C11580E4D80708F09BC0C03ED5
:1025E000D10518F5CD3CD10508F081C0C83AD10518
:1025F00070F4C53AD10508F072C0C130D10511F1AF
:1026000018F0C430D105F0F4D0E0C0E01BC0C33CEA
:10261000D105D0F7C85AD0E0CC0FDD1FC154DE4F32
:102620000990D881C02DD4640DC0C11580E2D807AF
:1026300008F0CBC0C11581E0D80708F05AC0C83EE9
:10264000D10510F7CE01DF91CF911F910895C036CB
:1026500082E5D80718F5C03482E5D80708F069C0CC
:10266000C03282E5D80708F05DC0C11582E5D80701
:1026700008F493C02C2F2695269580E2289F900180
:1026800011248C2F8370C1E0D0E002C0CC0FDD1F7D
:102690008A95E2F7C22BD32BDD68D4CFC03A82E50E
:1026A000D80760F4C03882E5D80708F457C0CF7166
:1026B000D0E0DC2FCC27C46FD06AC4CFC03C82E509
:1026C000D80708F45EC0C03E82E5D80708F09CCF6A
:1026D000DC2FCC27CC27DF71C06FD06AB3CFC55AAF
:1026E000D0E0C454DE4FC881D0E0D064ABCFD06519
:1026F000A9CF8D2F0E94CF11182FCE0199270E94AC
:102700001E12C12FD0E0DC2FCC27CC27DF71C82BC5
:10271000D92B98CFCE0199270E941E12CC27DF70AB
:10272000D06AF5CFCF71D0E0DC2FCC27C16FD06A53
:1027300089CF2C2F26952695277080E2289F90011F
:1027400011248C2F8370C1E0D0E002C0CC0FDD1FBC
:102750008A95E2F7DC68C22BD32B74CF2C2F2695F9
:102760002695277080E2289F900111248C2F83707A
:10277000C1E0D0E002C0CC0FDD1F8A95E2F7DA6835
:10278000EACF8C2F8F710E94CF11C82FD0E0DC2FA1
:10279000CC27CC27DF71D06255CF8C2F8F710E9450
:1027A000CF1155E0D695C7955A95E1F7CF70D0E097
:1027B000DC2FCC27282F30E084FF05C044E0220F17
:1027C000331F4A95E1F7D069C6CF8D2F8F710E94D4
:1027D000CF11182FCE0199270E941E12C12FD0E0D1
:1027E000DC2FCC27CC27DF71906291CF982F90956A
:1027F000809149038923809349030895982F9095E8
:1028000080914A03892380934A0308958091BA03F3
:1028100090918103981301C008958F5F8770FACF5C
:10282000B0E0A0E0E6E1F4E10C9420337C010091FB
:10283000EB021091EC0280917D0290917E02082BB8
:10284000192BCFE0D0E0CC24C394D12CBC2EC601F0
:102850000C2E02C0880F991F0A94E2F7802391235F
:10286000892B49F4219790F7B12C8B2DCDB7DEB78A
:10287000E9E00C943C33B7018C2F0E94C2120E94F5
:10288000E012019779F3F1CFCF93DF93EC010E942F
:102890001014BE010E94C2120E94E012DF91CF917B
:1028A00008959A3078F5863068F5E82FF0E086E0F4
:1028B000989FE00DF11D11249E2F977083E0F695EF
:1028C000E7958A95E1F7EE0FFF1FEE0FFF1FE85E19
:1028D000FD4F50E040E080E0219130E0092E02C041
:1028E000369527950A94E2F721703327042E01C00C
:1028F000220F0A94EAF7822B4F5F5F4F4430510555
:1029000059F7089580E008959A3098F5863088F553
:10291000E82FF0E086E0989FE00DF11D11248E2F46
:10292000877041E001C0440F8A95EAF783E0F6958D
:10293000E7958A95E1F7EE0FFF1FEE0FFF1FE85EA8
:10294000FD4F30E020E070E05191DF011197CB01A5
:10295000022E02C0969587950A94E2F781708195C0
:102960008527842385278C932F5F3F4F24303105A3
:1029700059F708959C01267033272630310531F42C
:1029800080619093EC028093EB0208958F7EF9CFE3
:10299000E091EB02F091EC0221E030E0D90102C0BD
:1029A000AA0FBB1F8A95E2F7CD01D90102C0AA0F79
:1029B000BB1F6A95E2F7BD018A2B972B02C0220F3D
:1029C000331F4A95E2F7AF0148235923841795072F
:1029D00031F42E2B3F2BC9010E94BA140895209583
:1029E00030952E233F23F7CF21E030E002C0220FA5
:1029F000331F8A95E2F78091EB029091EC028227D7
:102A000093270E94BA14089521E030E002C0220FFB
:102A1000331F8A95E2F7209530958091EB029091D3
:102A2000EC02822393230E94BA14089590913F02EE
:102A30008095892380933F02282F277069F4891796
:102A400059F09091190392FF07C086958695869557
:102A50000E94041510923F02089521E030E002C068
:102A6000220F331F8A95E2F78091EB029091EC02DE
:102A7000822B932B0E94BA14089590937E02809328
:102A80007D020895FC0124812223B9F08081918187
:102A90000E94441492959F70963089F050F49250A1
:102AA000923058F4803F19F030F4883E30F481E0E1
:102AB00008959A50F5CF843FD1F380E00895883E81
:102AC000B0F3813FD1F7F3CFA6E0B0E0EAE6F5E15D
:102AD0000C94263326E0FC01DE01119601900D9244
:102AE0002A95E1F7FC01258189819A81222399F0B9
:102AF000662389F00E941014182F682F89819A810B
:102B00000E94841469817A81812F0E94C2122696C4
:102B1000E3E00C9442330E945114182FF3CF9C0130
:102B20003A9521153F4150F5FC01EE27F170BC01AB
:102B300066277270AC01442754709C0122273870BC
:102B400094FF0EC080E0EF2B09F080E1672B09F0C5
:102B50008062452B09F08064232B89F080680895FA
:102B600081E0EF2B09F480E0672B09F08260452BB0
:102B700009F08460232B19F08860089580E008959F
:102B800080910D038531F8F48091150290E0019653
:102B900065E070E00E94B5338093150224E030E0D8
:102BA000281B390B4CE752E0249FC001259F900D54
:102BB000349F900D1124805E974F0E94290F089535
:102BC00084EA95E0FACF8832D8F38091140290E03D
:102BD0000196817099278093140221E030E0281B30
:102BE000390B4CE752E0249FC001259F900D349F84
:102BF000900D112484559F4FE0CF0F931F93CF93D7
:102C0000DF938B01EA0190917703943061F5809313
:102C1000E9008FEF9091E800815095FD06C095ED99
:102C20009A95F1F700008111F5CF8091E80085FFBA
:102C30001AC00E94CD0F811111C08091E80085FD5E
:102C400006C08091E8008E778093E800F2CFF8010B
:102C500081918F018093F100219779F78091E800AD
:102C60008E778093E800DF91CF911F910F910895A7
:102C700043E050E0BC0182E00E94FD150895CF932F
:102C8000DF93EC0148E050E0BC0181E00E94FD15BB
:102C900088E0FE01A3E6B3E001900D928A95E1F78A
:102CA000DF91CF910895B0E0A0E0E9E5F6E10C9462
:102CB0001F337C015B016A0180916C0201E010E02E
:102CC0008A3010F40AE010E0C1E0D0E0B501C7019D
:102CD000F6010995811104C021960C171D072CF4EB
:102CE000CDB7DEB7EAE00C943B33CC9F9001CD9F8B
:102CF000300D300D112490E080E045E34A95F1F766
:102D00000000019682179307C1F7E0CFCF93DF93BE
:102D1000682F81E06A3019F06D3031F480E00E9454
:102D20000717DF91CF9108958091C4059091C50553
:102D300026E0FC01ACEBB3E001900D922A95E1F79F
:102D4000603E08F459C026E0FC0111922A95E9F78B
:102D5000C091C405D091C50546E050E0BE018CEBA2
:102D600093E00E943234892B59F1CE01845C934068
:102D70009C0145E0369527954A95E1F741E050E002
:102D8000BA0102C0660F771F2A95E2F79B01609196
:102D9000C2037091C303262B372B059665E09695E9
:102DA00087956A95E1F7FA0102C0EE0FFF1F8A9539
:102DB000E2F7CF01822B932B9093C3038093C2033E
:102DC0009E012E5B33404091BB03642F70E0C9012C
:102DD0000E940333481B463010F4240F311D211587
:102DE000F2E03F0710F030E020E02C533C4F3093EE
:102DF000C5052093C40595CFF6E06F9FB00111245F
:102E00006D5D774E46E050E00E944E33A1CFCF93E8
:102E1000382FE091C405F091C505E45CF3402091A2
:102E2000BB03622F70E0CF010E940333281B822F67
:102E3000332361F066E00E94A933C82FC15010F41B
:102E4000CF91089580E20E948616F8CF9F01280F47
:102E5000311D2115324018F080E0F0E0E0E08E0FE7
:102E60009F2F911D8C539C4F9093C5058093C40553
:102E7000E7CF80914A0390914903892B90914002BA
:102E8000992351F0892BEEE0F2E027E090E0215009
:102E900029F591111092400280930C0248E050E015
:102EA00061E472E08CE092E00E943234892BA9F058
:102EB00088E0ECE0F2E0A1E4B2E001900D928A95A6
:102EC000E1F7E0915103F0915203309731F0028025
:102ED000F381E02D8CE092E0099508953191332340
:102EE000B1F29F5FD4CF10924A03EEE0F2E086E0A9
:102EF000DF011D928A95E9F790E080E00E9457116A
:102F000090E080E00E943211109249030E9439172C
:102F100008950E9473172FEF84E39CE021508040B6
:102F20009040E1F700C0000088E19AE00FB6F89405
:102F3000A895809360000FBE90936000FFCFCF9361
:102F4000DF93EC014A855B856E857F850E948D113C
:102F50008B810E94F6138C810E94FE130E94391708
:102F600086E0FE0111928A95E9F7DF91CF910895ED
:102F7000CF93DF93EC018D8181FD17C082608D833B
:102F8000809149039B81892B8093490380914A0357
:102F90009C81892B80934A030E9439174885598563
:102FA0006E857F85CE010E948D1110924C03109288
:102FB0004B038D8180FD03C0CE010E949F17DF91DE
:102FC000CF910895882321F00E94F6130E943917AB
:102FD0000895882339F090914903892B8093490300
:102FE0000E9439170895882321F00E94FE130E9441
:102FF00039170895882339F090914A03892B8093DB
:103000004A030E9439170895882381F19CEF980F95
:10301000913A70F4ECE0F2E09281891301C01282DF
:10302000319692E0E231F907B9F70E943917089515
:1030300090E2980F983050F4877091E001C0990F9A
:103040008A95EAF7892F0E94FE13EFCF9BE5980F30
:10305000933028F490E080E00E9457110895885A38
:103060008B3120F490E080E00E9432110895CF93DC
:10307000DF93FC0182818130A9F4FB01C081D18101
:103080008C2F0E940418CE01805E9109089728F0C9
:10309000CE010E948F15209741F4CE010E948F151A
:1030A0000E94F317DF91CF9108950E94E217FACFA3
:1030B000CF938823C1F0C82F8CEF8C0F813A10F585
:1030C000AEE0B2E0ECE0F2E084E192E02D91C217D4
:1030D00061F08A179B07D1F76C2F8CE092E00E9479
:1030E00018110E943917CF91089582E192E0228150
:1030F000C21301C0128231968E179F07C1F70E943A
:103100003917EACF80E28C0F883068F4C77021E06D
:1031100030E001C0220FCA95EAF780914A03822B62
:1031200080934A03DECFEBE5EC0FE33040F4F0E0B0
:10313000E454FE4F808190E00E945711D4CFC85ACA
:10314000CB3188F6EC2FF0E0EE0FFF1FE154FE4F7D
:10315000808191810E943211C6CFCF93DF93DB0132
:10316000FC0182818130C1F4CD91DC91CE010E94BD
:103170008F159E01205E31092830310510F020970F
:1031800041F40E94FA178C2F0E945818DF91CF91BA
:1031900008950E94E917F7CF8230C1F71396ED9199
:1031A000FC91149712968C910995F0CF1F93CF93B1
:1031B000DF93182FEB010E945818209739F4812FC4
:1031C0000E940418DF91CF911F9108958FE99FE02D
:1031D0000197F1F700C000002197EFCFA2E0B0E027
:1031E000E4EFF8E10C941F339A8389838AE0A82ED8
:1031F000CE0101960E9493118823E1F1813009F0FC
:1032000053C0CE0101960E949311813069F4CE0122
:1032100001960E94931160E570E0893311F070E02F
:1032200060E00E94D618E4CF823039F4CE010196D6
:103230000E9493110E945818DBCF833039F4CE01DD
:1032400001960E9493110E940418D2CF843081F419
:10325000CE0101960E94931110E000E0482F4053E8
:10326000550B9A014A30510548F00115110599F4A2
:103270008111BECF2296EAE00C943B33A09EC001A0
:10328000A19E900D11248901080F191FCE010196EE
:103290000E949311E3CFEFE9FFE03197F1F700C00F
:1032A000000001501109E1CFE82FF0E0ED56F24E99
:1032B000B490282F26952695269530E0F901ED57F4
:1032C000F24EE4908770F12C082E02C0F594E7943A
:1032D0000A94E2F7F1E0EF22FF24F901ED58F24EF3
:1032E000C490D12C082E02C0D594C7940A94E2F75A
:1032F00041E0C422DD24F901ED59F24E049110E0C1
:1033000002C0159507958A95E2F701701127E1141F
:10331000F10419F081EE0E945818C114D10419F07B
:1033200086EE0E94581870E060E08B2D0E94D6183F
:10333000C114D10419F086EE0E940418E114F104BE
:1033400019F081EE0E9404180115110509F450CFFF
:1033500070E060E08CE265CF0F931F93CF93DF9313
:10336000EC01FC0101900020E9F78F0101501109E7
:10337000C017D10728F0DF91CF911F910F910895C9
:1033800089910E948616F4CFAB0124E630E0BC019F
:1033900088E70E94B63021E0892B09F020E0822FD7
:1033A00008958091440390914503911103C091E0E9
:1033B00089270895882369F062E070E088E397E147
:1033C0000E94C419811103C0809144030895109292
:1033D000440380914403EBCFCF93C0914403809189
:1033E00045038823D1F00E940911605A75418F4F1F
:1033F0009F4F6093400370934103809342039093E7
:103400004303C11108C062E070E086E397E10E94C7
:10341000C419811105C0C09144038C2FCF91089528
:1034200081E080934403F7CF9091190392FB222708
:1034300020F9281779F080FB92F990931903609195
:1034400018037091190384E090E00E94933382E0A6
:103450000E9416150895CF92DF92EF92FF921F936C
:10346000CF93DF9300D000D0CDB7DEB7C090680215
:10347000D0906902E0906A02F0906B020E940911FC
:103480006C197D098E099F0911E06436710581056B
:10349000910570F10E94B5116E5F7F4F8F4F9F4F66
:1034A00069837A838B839C838091160190911701A5
:1034B000825A9D4F4091150150E04530510510F062
:1034C00044E050E0BE016F5F7F4F0E943F3482E0D6
:1034D00090E00E948C32182F882351F00E9409112D
:1034E000609368027093690280936A0290936B0202
:1034F000812F0F900F900F900F90DF91CF911F9120
:10350000FF90EF90DF90CF9008958F929F92AF92AF
:10351000BF92EF92FF921F93CF93DF9300D000D022
:1035200000D0CDB7DEB77B0190E080E00E948C3206
:10353000182F882309F464C04091080150E0411518
:10354000510511F041E050E06091090170910A01CC
:10355000625A7D4FCE0106960E943F3480905A02F7
:1035600090905B02A0905C02B0905D020E940911F5
:10357000681979098A099B096436710581059105E5
:1035800038F48FE592E00E94970F9E818917C1F170
:1035900081E090E00E948C32182F882391F04091B6
:1035A000100150E04630510510F045E050E06091C8
:1035B000110170911201625A7D4FCE0101960E9455
:1035C0003F348FE592E00E94970F91E02E812813FF
:1035D00090E0192301F10E94091160935A0270933F
:1035E0005B0280935C0290935D0285E0FE01319660
:1035F000A5E5B2E001900D928A95E1F711E00BC0CC
:1036000085E0EFE5F2E0DE01119601900D928A95DA
:10361000E1F71111EACF85E0E5E5F2E0D70101908D
:103620000D928A95E1F7812F26960FB6F894DEBFAA
:103630000FBECDBFDF91CF911F91FF90EF90BF9054
:10364000AF909F908F90089578941F920F920FB62D
:103650000F9211248F939F93AF93BF9380915E033A
:1036600090915F03A0916003B09161030196A11D49
:10367000B11D80935E0390935F03A0936003B093AA
:103680006103BF91AF919F918F910F900FBE0F90EB
:103690001F9018952FB7F89480915E0390915F0367
:1036A000A0916003B09161032FBF089530915C0336
:1036B00020915803321720F42091580320935C0383
:1036C0006093550370935603809357039093580368
:1036D0000E944A1B90936F0380936E0381E0809356
:1036E0006D030895AAE2B0E0E8E7FBE10C94233310
:1036F000E9E7F3E08091F100819323E0E138F207FC
:10370000C9F780917A03833009F487C008F58130C6
:1037100009F45EC0823009F4E0C08091E80083FFC4
:103720001AC18091790390917A039A3008F013C1FD
:10373000E92FF0E0E256F44E0C940A347E1CA41CEF
:10374000AB1CA41CAB1CFC1C1E1DAB1CA71EB41E7A
:103750008A3009F4A7C08B3009F47CC08930E9F6BF
:10376000809179038132C9F680917D0390917E0327
:10377000029798F68091E800877F8093E800809117
:10378000E80082FF45C08091F3009091F200892704
:1037900098278927029731F48091F100813011F048
:1037A000863071F48091F10080934E0160914D015B
:1037B00070914E0180914F01909150010E94561BD3
:1037C0008091E8008B778093E8000E94FC0FA5CFE2
:1037D00080917903813A09F0A0CF8091E800877F3A
:1037E0008093E80080917D0390917E03892B61F0A6
:1037F00060E090E080E070E00E94A8108091E80016
:103800008B778093E80089CF68E083E693E0F3CF7D
:10381000809177038111B3CF80CF80917903813A72
:1038200009F07BCF80917D0390917E03892B09F075
:1038300074CF8091E800877F8093E8008091E80052
:1038400080FFFCCF80914F018093F1008091E800D0
:103850008E77B9CF80917903813209F05ECF809164
:103860007D0390917E03892B09F057CF8091E8006A
:10387000877F8093E8000E94FC0F81E090917B039A
:10388000911101C080E080934F0160914D017091D2
:103890004E0180914F01909150010E94561B0E9451
:1038A00073173BCF80917903813209F036CF809135
:1038B000E800877F8093E8000E94FC0F80917C03E2
:1038C00080934D0160914D0170914E0180914F01A7
:1038D000909150010E94561B20CF80917903813A2C
:1038E00009F01BCF8091E800877F8093E8008091EA
:1038F000E80080FFFCCF80914D01A6CF803889F091
:10390000823849F580917D038F70873020F5809350
:10391000E9008091EB0085FB882780F91092E9008F
:1039200006C080916B0390916C039111826090911D
:10393000E800977F9093E8008093F1001092F100E7
:103940008091E8008E7727C0282F2D7F21F48823CF
:10395000A1F0823029F18091E80083FF0AC08091B4
:10396000E800877F8093E8008091EB00806280937D
:10397000EB00AA96E6E00C943F3380917B03813004
:1039800051F7933009F080E080936C031092E900C6
:103990008091E800877F8093E8000E94FC0FDBCFD6
:1039A00080917B038111F2CF80917D038F702FEF87
:1039B000280F263080F68093E9002091EB0020FF4D
:1039C000E5CF933031F48091EB0080628093EB007F
:1039D000DDCF9091EB0090619093EB0021E030E01F
:1039E00001C0220F8A95EAF72093EA001092EA00BC
:1039F0008091EB008860EACF8111ADCF10917B03FD
:103A00001F778091E3008078812B8093E300809181
:103A1000E800877F8093E8000E94FC0F8091E80017
:103A200080FFFCCF8091E30080688093E30083E017
:103A3000111101C082E0809377038DCF80588230CE
:103A400008F089CF80917B0390917C038C3D43E00B
:103A50009407A1F583E08A838AE289834FB7F894BB
:103A6000DE01139620E03EE051E2E32FF0E05093B8
:103A70005700E49120FF03C0E295EF703F5FEF70C5
:103A80008E2F90E0EA30C0F0C7968D939D932F5F04
:103A9000243159F74FBF8091E800877F8093E80079
:103AA0006AE270E0CE0101960E94A8108091E800C1
:103AB0008B778093E8004FCFC096E7CF40917D038E
:103AC00050917E03292F33272330310509F448C054
:103AD00080F52130310509F4EFC02230310509F0BD
:103AE0003ACF0BE310E0E0EBEE2EE7E1FE2E809103
:103AF000E800877F8093E80080917F0390918003A6
:103B00000817190708F4C80140E0009709F0E9C058
:103B10004111E7C08091E80082FDC8CF8091770312
:103B2000882321F2853011F28091E80083FFF2CFE3
:103B3000BDCF2132310509F4B1C02232310509F07F
:103B40000ACF4115510509F4C5C04130510509F0AE
:103B500002CF02E310E03AE3E32E37E1F32EC7CFC2
:103B600099278130910509F45AC040F0029709F471
:103B700060C010E000E0F12CE12C09C0EFE1F8E1B9
:103B8000E4910E2F10E07FE1E72E78E1F72E2091EF
:103B90007F0330918003809171038F5F8093710365
:103BA00030937603209375032230310509F04BC022
:103BB000909172039F5F90937203833010F1909104
:103BC0007403923038F040917303411163C0891738
:103BD00009F45EC040917203853008F447C02F3F5E
:103BE000310509F04BC0992309F44AC083E0423003
:103BF00008F051C0411105C080917303882309F476
:103C000047C00E944A1B90936F0380936E0381E02C
:103C100080936D030115110509F49DCE68CFEDE089
:103C2000F8E1E4910E2F10E06DE0E62E68E1F62E4B
:103C3000AECFEDEFF7E1E4910E2F10E05DEFE52E52
:103C400057E1F52EA4CF2430310531F49091730360
:103C50009F5F90937303B1CF2F3F310509F0ADCF34
:103C6000909174039F5F90937403A7CF843031F4D5
:103C70009111C0CF423021F484E00DC09111BACF30
:103C8000433009F0BECF80917303813009F0B9CF82
:103C900081E001C082E080937003B3CF41155105EC
:103CA00091F04130510509F056CE09E010E04BED9E
:103CB000E42E47E1F42E1BCF02E110E02BEEE22EC2
:103CC00027E1F22E14CF09E010E092ECE92E97E103
:103CD000F92E0DCF04E410E08CE6E82E87E1F82EF3
:103CE00006CF20917703222309F4E0CE253009F492
:103CF000DDCE2091E80023FDD9CE2091E80022FD01
:103D000009CF2091E80020FF00CF2091F3003091EF
:103D1000F200232732272327009719F02830310596
:103D200058F041E02830310509F040E02091E800EA
:103D30002E772093E800E9CEF70144914093F100FB
:103D4000FFEFEF1AFF0A01972F5F3F4FE5CF803853
:103D500009F001CE8091E800877F8093E800809190
:103D600078038093F100ECCD8111F5CD10917B03A8
:103D7000123008F0F0CD8091E800877F8093E80052
:103D8000109378030E94FC0F1123F9F084E08093D4
:103D9000770342E061EC81E00E941B1042E261EC9B
:103DA00082E00E941B10809177038430A1F482E0AE
:103DB0008093500160914D0170914E0180914F01AF
:103DC000909150010E94561BC6CD8091E30087FD63
:103DD000DDCF81E0DCCF81E0EBCF1F920F920FB6F9
:103DE0000F9211242F933F934F935F936F937F9381
:103DF0008F939F93AF93BF93CF93EF93FF93C09114
:103E0000E900CF708091EC001092E9008091F00001
:103E1000877F8093F00078940E94721B1092E900D3
:103E20008091F00088608093F000C093E900FF91DA
:103E3000EF91CF91BF91AF919F918F917F916F91B2
:103E40005F914F913F912F910F900FBE0F901F9058
:103E500018951F920F920FB60F9211242F933F9334
:103E60004F935F936F937F938F939F93AF93BF9382
:103E7000CF93EF93FF938091E10082FF09C080917F
:103E8000E20082FF05C08091E1008B7F8093E1001A
:103E90008091DA0080FF24C08091D80080FF20C08C
:103EA0008091DA008E7F8093DA008091D90080FFC4
:103EB000D2C080E189BD82E189BD09B400FEFDCF99
:103EC00081E08093770380916203811109C00E9491
:103ED000AE0F0E944D108091E20084608093E2005A
:103EE0008091E10080FF24C08091E20080FF20C02B
:103EF0008091E2008E7F8093E2008091E2008061F9
:103F00008093E2008091D80080628093D80019BC31
:103F100085E08093770383E08093500160914D01A9
:103F200070914E0180914F01909150010E94561B5B
:103F30008091E10084FF39C08091E20084FF35C0A8
:103F400080E189BD82E189BD09B400FEFDCF809189
:103F5000D8008F7D8093D8008091E1008F7E809380
:103F6000E1008091E2008F7E8093E2008091E20088
:103F700081608093E20080917803882309F471C006
:103F800084E08093770380917703843009F471C0D3
:103F900081E08093500160914D0170914E018091BC
:103FA0004F01909150010E94561B8091E10083FFC8
:103FB00040C08091E20083FF3CC08091E100877F98
:103FC0008093E10082E080937703109278038091E0
:103FD000E1008E7F8093E1008091E2008E7F8093EC
:103FE000E2008091E20080618093E20042E060E0C4
:103FF00080E00E941B108091F00088608093F000A8
:10400000C1E0C093500160914D0170914E018091CB
:104010004F01909150010E94561BC0934F01609137
:104020004D0170914E0180914F01909150010E947D
:10403000561BFF91EF91CF91BF91AF919F918F91BF
:104040007F916F915F914F913F912F910F900FBE94
:104050000F901F90189519BC10927703109262036D
:104060003FCF8091E30087FD02C081E08ACF83E0EB
:1040700088CF82E08ECFEF92FF920F931F93CF9362
:10408000DF93C42FD22FFC0185818823A9F04093B0
:1040900048030E944A1B9093470380934603C770CE
:1040A00081E001C0880FCA95EAF70E94FA17CDB7E0
:1040B000DEB7E6E00C943F3310914803141337C089
:1040C000E0904603F09047030E944A1B8E199F0917
:1040D000883C910560F5C0E2CD0F1D17C1F080E26C
:1040E000810F883048F4177081E0012E01C0880FDD
:1040F0000A94EAF70E94F317C83000F581E09D2F7B
:10410000977001C0880F9A95EAF70E94FA1770E03D
:1041100060E0802F0E94D618C83048F6D77081E042
:1041200001C0880FDA95EAF70E94F317C0CFC77075
:1041300081E001C0880FCA95EAF7F6CF70E060E031
:10414000802F0E94D618B3CFAFE0B0E0EAEAF0E2E9
:104150000C941A338E010F5F1F4F8AE0F801119201
:104160008A95E9F787EFE82E81E0F82E68019CEF49
:10417000692E91E0792EAA24A394B12C32E0832EEB
:1041800032E0932EF70181917F018F3F09F440C007
:10419000F894E82FE295EF70F0E021A18F70A5016F
:1041A00002C0440F551F8A95E2F7CA01922F982B3F
:1041B00091A392A18095892382A3789400C0ECEF0B
:1041C000F1E0512C31E021912F3F09F489C0A22F59
:1041D000A295AF70B0E090968C9190E02F7002C0E5
:1041E000959587952A95E2F780FD7AC0832F582A06
:1041F000330F8E169F0639F7F701319780818F3F75
:1042000011F00E949E1150EA5A95F1F7F601508282
:10421000FFEFCF1ADF0A6E147F0409F0B3CF4AE034
:1042200050E0B80181E792E00E943234009741F0FB
:104230002AE0F801A1E7B2E001900D922A95E1F79A
:1042400000917C0210E001581D4F892B09F44AC0EF
:1042500081E080934D020E944A1B90934C02809310
:104260004B02F12CE0904D03EE2009F498C06E0152
:104270002BE0C20ED11C85E0F60111928A95E9F778
:1042800080916C028A3008F053C045E85AE1B601CB
:10429000C8010E945316882309F46EC04BE25AE10C
:1042A000B601C8010E945316882309F465C0109214
:1042B0006C0280917B0290E045E050E0B6018158AD
:1042C0009D4F0E94323421E020935402892B09F043
:1042D00046C0E12C8E2D8F292F96EFE00C943633BB
:1042E00080E085CFF0904D02FF2009F4BACFC09056
:1042F0004B02D0904C020E944A1B8C199D090597D5
:1043000008F4AFCF45E050E061E772E0C8010E94D9
:104310003234892B59F085E0E1E7F2E0D8010190D1
:104320000D928A95E1F710924D029CCFF12CFBCFB4
:10433000A0904E02B0904F020E944A1B8A199B091E
:10434000843F914008F0A1CF80915402882309F264
:1043500085E0F60111928A95E9F710925402A09136
:104360007B02B0E0A158BD4F85E0FE013B96019075
:104370000D928A95E1F7AECF80916C028F3F19F0D4
:104380008F5F80936C0280916C028A3008F491CF29
:104390000E944A1B90934F0280934E02D5CF85E036
:1043A000F801AFE5B2E001900D928A95E1F78FE553
:1043B00092E00E94970F80935E028090640290903A
:1043C0006502A0906602B0906702809150029091C1
:1043D0005102A0915202B091530288169906AA0682
:1043E000BB0609F477CF8092500290925102A092BE
:1043F0005202B09253020E940911861A970AA80A23
:10440000B90A80926D0290926E02A0926F02B092F1
:10441000700260CFB0E0A0E0E0E1F2E20C94203363
:10442000FC012481222309F45BC17C0161E00E942C
:104430006415EC01F70185818823F1F080914B032D
:1044400090914C030097C1F0C817D907A9F0E8E292
:10445000F1E0882311F0F0E0E0E08581846085835D
:10446000D183C083CF010E94B8171092490361E045
:10447000C7010E946415EC01F7012581222309F48C
:1044800083C0CE019A9581159F4408F074C0CE0177
:104490009927AC01445051094432510518F08B97CB
:1044A0000E9780F4E0919C02F0E0EE0FFF1FEF55B5
:1044B000FD4F808191818F3F3FE7930719F001966F
:1044C00091838083C1343EE7D30709F40FC5C2341A
:1044D0008EE7D80709F4ADC0C0349EE7D90709F0CC
:1044E00061C08091190380FF9EC084EB94E10E941B
:1044F000EE18F7018581882309F4BCC410924803A3
:104500009E0130572332310508F09DC484E090E0CD
:104510000E945F339093190380931803FE01E150CA
:10452000F047E232F10508F004C1E756FD4D0C9466
:104530000A34D3234824DB23A523A923DF23AD2377
:10454000E323EF23B9234124BD23F323C123F7231E
:104550001F24C523FB232624CB2301240924B123B4
:10456000E723B523EB23CF23052415242F243F2451
:104570009F23D7234F24CE01CF3FD10509F008F464
:1045800088CF90E080E085CFC0348EE7D80750F028
:10459000C2349EE7D90708F4ACCFC234EEE7DE0799
:1045A00009F4A7CFCE0197558F3F910511F008F080
:1045B0006EC0C11186C080912D0120FB80F98093CF
:1045C0002D01F7018581882309F440C00E944A1B10
:1045D000909395028093940280912A018F5F80933B
:1045E0002A018091490390914A03892B80932B01E2
:1045F0008091400280932C0140912E0150912F0117
:10460000609136017091370188E291E00E948D112E
:1046100080912D0181FD17C09C2F8D2F90934B030E
:1046200080934C0366CF8CEA94E161CF84EA94E1F5
:104630005ECF8091190380FF03C084E994E157CFD6
:104640008CE894E154CF90E080E0E8CF40913401D1
:1046500050913501609136017091370188E291E007
:104660000E948D1180912D0181FF43CF88E291E05E
:104670000E949F1780914B0390914C03C817D90754
:1046800009F037CF10924C0310924B0332CFFE014A
:10469000E851FC47E730F10508F02BCFEE5AFC4D0E
:1046A0000C940A347B2381235923752387238D237C
:1046B000932306E221EE41EE6AE17CE7C7010E9406
:1046C0003B2080913F02877059F0F7018581882354
:1046D00039F08091190382FF03C082E00E94161511
:1046E000CDB7DEB7E9E00C943C3307E225EE45EEAA
:1046F0006BE17CE7E3CF06E221EE40EE68E17CE788
:10470000DDCF07E225EE44EE69E17CE7D7CF06E294
:1047100021EE42EE6CE17CE7D1CF07E225EE46EEDA
:104720006DE17CE7CBCF08E221E045EE6EE17CE76E
:10473000C5CF8091180381608093180395C0809144
:1047400019038860809319038FC0809118038260D9
:10475000F3CF809118038460EFCF809118038860B5
:10476000EBCF809119038160EDCF809119038260B6
:10477000E9CF809118038061DFCF809118038062B8
:10478000DBCF809118038064D7CF0E94731780918C
:1047900018038068D1CF809118038860DCCF8091A6
:1047A00019038260E0CF809118038E7FC5CF80917E
:1047B0001903877FC7CF809118038D7FBDCF80916C
:1047C00018038B7FB9CF80911803877FB5CF809175
:1047D00019038E7FB7CF809119038D7FB3CF80915E
:1047E00018038F7EA9CF809118038F7DA5CF80916C
:1047F00018038F7BA1CF0E947317809118038F77C6
:104800009BCF80911803877FDCCF809119038D7F28
:10481000E0CF8091180382FB992790F921E092273D
:1048200090FB82F990FB83F987CF80911903982F31
:10483000909591708E7F892B90FB81F983CF909119
:104840001803892F8F7B96FF806476CF0E947317A1
:1048500090911803892F97FB87F980586DCF61E0FD
:104860008EE090E00E9475336091180370911903F7
:1048700084E090E00E9493330E94731722CF60E09F
:10488000EFCF90911803892F8F7E94FF806154CFD2
:1048900090911803892F8E7F90FF81604DCF90916A
:1048A0001903892F877F93FF88604CCF89E2ECE062
:1048B000F2E09281891301C01282319622E0E23146
:1048C000F207B9F7D4C281E00E942D1543E062E0FF
:1048D00081E00E94C814F5CE81E00E940415F6CF55
:1048E00082E0F2CF882381F0C330FCE7DF0709F4D0
:1048F00090C008F064C0C1153CE7D30709F46DC04F
:10490000C130DC4709F48BC0F7018581C081D181BA
:10491000882309F492C0CE010E941014182F682F2A
:10492000CE010E948414BE01812F0E94C2120E94F7
:10493000E012D82FC92FB82EF701D580C680C294B7
:104940008FE0C82280913F02877001F10D2DDD209C
:10495000F1F0892F807F803469F080E28D0F8830FC
:10496000A8F0892F807E803229F4F1E0FD1770F4E1
:10497000CC2061F08091190382FF08C082E00E9480
:10498000161580913F02877001E009F000E01C2FAE
:1049900012951F701C3008F0ACC0E12FF0E0ED5212
:1049A000FB4D0C940A342225222554255425E82554
:1049B00079257925792508269526A626A626CB359C
:1049C0009CE7D907C1F1CC35ECE7DE0751F1CA35D8
:1049D000DC4709F099CF81E02BC00E9473172FEFBD
:1049E00034E38CE0215030408040E1F700C000000B
:1049F00087E797E7909301088093000888E19AE0A1
:104A00000FB6F894A895809360000FBE9093600055
:104A1000FFCF6FEF7FEF90E080E00E9493330E9422
:104A200089178091190382FB882780F991E08927F3
:104A30000E94141A69CF80E0FBCFCE010E9451146E
:104A4000182F71CF1C2F1F70C07F11F01295107F8F
:104A50008D2FDD20B9F0112369F090E29D0F983081
:104A600010F0D11109C080914A03182B10934A030A
:104A70000E9439178D2F3BC080914903182B10934A
:104A80004903F6CF0E940418112399F1D05E812FBB
:104A9000D83010F0B11003C00E94FE1302C00E9473
:104AA000F6130E94391725C01C2F1F70C07FC0321B
:104AB00011F01295107FBB2051F021E0B21609F4DD
:104AC00067C0DD2009F473C0CC20B9F1D3CF809149
:104AD000190382FD2EC0DD2029F1112339F08091C8
:104AE0004A03182B10934A030E94391780E00E9452
:104AF0005818002309F4C2C080913F0280FDBEC057
:104B0000F70115828695869586950E942D15C70119
:104B10000E940A2280913F028695869586950E9482
:104B20000415ACC080E00E940418112311F3812FFA
:104B3000B3CFDD2099F0C11004C0812F0E94FA1775
:104B4000D8CF31E0C312D5CF80914002912F982366
:104B5000191779F2182B10934002CBCFC110C9CF8F
:104B6000812F0E94F31790914002812F892329F011
:104B7000812F809589238093400280911702912F85
:104B8000982309F4B6CF1095182310931702B1CFCC
:104B9000DD2029F085E08C1508F4ABCFCECF94E072
:104BA0009C1508F4A6CF812F0E94F317A2CFCC202A
:104BB000D1F3D93349F4EFEFF7EE23E0E150F040C1
:104BC0002040E1F700C000008D2F0E94041891CF13
:104BD0008C2F86958695837039F0813079F0185046
:104BE000143008F086CF48C08D2F9C2F9370D110C1
:104BF00002C080E090E00E9457117BCF8D2F9C2F48
:104C00009370D11002C080E090E00E94321171CF09
:104C10008C2F837009F045C0D1102EC04D2F4295C6
:104C200046954770440F440F2D2F2F7030E0042E0F
:104C300002C0220F331F0A94E2F790E080E0D4FF15
:104C400009C08FE090E002C0880F991F4A95E2F7F3
:104C500080959095C695C695C370C230C9F0A8F4EA
:104C600040917D0250917E02C13069F0822B932BDE
:104C7000842395230E943D150E947C1160E0C701AA
:104C80000E9464152DCD242B352B822B932BF2CF34
:104C9000822B932B20917D0230917E0282279327D5
:104CA000E9CF8695DD2011F08C2F8170882321F3C8
:104CB0004D2F429546954770440F440F2D2F2F706E
:104CC00030E0042E02C0220F331F0A94E2F790E076
:104CD00080E0D4FF09C08FE090E002C0880F991FE8
:104CE0004A95E2F780959095C695C695C370C230F7
:104CF00099F078F44091EB025091EC02C13039F018
:104D0000822B932B842395230E94BA14B5CF242B96
:104D1000352B822B932BF8CF822B932B2091EB02F8
:104D20003091EC0282279327EFCFCF70DD2039F04E
:104D30008C2F0E942D158D2F0E94FA179DCF8D2F3D
:104D40000E94F3178C2F0E94041596CF8D2F32EFFF
:104D5000B31699F13B1580F090EFB916F1F0E1EF41
:104D6000BE16A1F0DD2009F45AC0CC2009F454C0CD
:104D70008D2F0E94581833CFF3EFBF1629F124EF7F
:104D8000B212F0CF9091190392FD2DC08C2F8F712C
:104D9000DD20B9F00E942D1522CFDD2049F034E04E
:104DA0003C1508F41CCF8C2F8F710E94F41417CF80
:104DB00085E08C1508F413CFF6CF8C2F8F71DD2092
:104DC00049F30E9404150BCF90E080E0DD2041F014
:104DD000CF7181E090E002C0880F991FCA95E2F779
:104DE0000E94BA14FCCEDD2061F08C2F8F7192FFEF
:104DF000D1CF98E0899F90011124236020933F0236
:104E0000C9CF81E00E941615E1E0EC1508F0E7CE6D
:104E100082E00E941615E3CE8C2F8F71BBCFCC2081
:104E200079F0893349F4FFEF27EE33E0F150204069
:104E30003040E1F700C000008D2F0E940418CFCE53
:104E40008C2F8F71BECFC631FCE7DF07F1F4809164
:104E50004A038A7A91E009F490E09093160265E3A0
:104E6000811101C069E28CE092E00E9418110E9459
:104E7000391727CCC6312CE7D20769F58091160285
:104E8000882309F413CD85E312CDC7373CE7D30758
:104E900009F419CDC8379CE7D90709F421CD9E0143
:104EA000205E32452032310508F01CCD81112CCD19
:104EB000CF7181E090E0FC0102C0EE0FFF1FCA95A8
:104EC000E2F7EF016E2F83E090E00E947533CE0190
:104ED0000E943D15F6CBC737ECE7DE0709F4FCCCA2
:104EE000C837FCE7DF07D9F682E0F7CC80911903D9
:104EF00080FD9CCB8CE994E1FACAB0E0A0E0E3E845
:104F0000F7E20C94223380913E02807F09F050C07A
:104F100080913D02882309F44BC0E091BA0387E0F9
:104F2000D82E809181038E1709F442C00E2F10E015
:104F3000ED9DF0011124EE57FC4F84818823E9F1A7
:104F4000D09EE001D19ED00D1124FE01EE57FC4F02
:104F5000918180913902981330C0908180913802FC
:104F600098132BC08581811128C0E280F380809145
:104F70003A0290913B02E81AF90A60E088E392E075
:104F80000E94641588ECE816F104B8F480913E02A2
:104F90008F70806180933E02C857DC4F88818F708C
:104FA0008061888388E392E00E940A220E940614AE
:104FB000CDB7DEB7E7E00C943E33F8013196E770E9
:104FC000B0CFA4E1B0E0E7EEF7E20C941A338C0125
:104FD00086E0F801DE011F9601900D928A95E1F7B7
:104FE000F801F480E58088E3882E82E0982E809195
:104FF0003C0281112AC0F11003C0FF24F3941CC0AD
:10500000EE20F9F0C8010E944215F82E8823C9F05D
:1050100087E0F801A8E3B2E001900D928A95E1F7EC
:1050200080913C02813031F48091380290913902B4
:105030000E9444140E947D278F2D6496EFE00C940B
:105040003633C8010E940A22D8CFC280D380B090E4
:105050003D0280913A0290913B023601681A790A2A
:10506000BB2009F4F7C05080A18060E088E392E0A3
:105070000E946415F8EC6F16710408F0A4C0FF20BC
:1050800009F4BBCF80913E02382F307F2091390246
:10509000F8019181311157C0FE2C291314C02091C1
:1050A0003802908129130FC0E11046C08F708061D3
:1050B00080933E0288E392E00E940A2280913E02A1
:1050C000F8018683B9CFE11037C06A2D852D0E9483
:1050D000780F6A2D852D0E94780FE82E8111ACCFB4
:1050E0005F86A88A8F8598890E944414292F22956B
:1050F0002F70243058F49F70223080F0992391F063
:10510000F8019681907F71F4FE2C96CF2A502230C0
:1051100068F0C8010E940A22EB2CF6CF992311F007
:10512000882391F3805E8830A0F7EECF803F60F354
:10513000815F833070F7E8CF80913E028160809379
:105140003E02F12C79CF291315C0209138029081AD
:10515000291310C0E1100EC08683C8010E940A22E4
:1051600087E0F801A8E3B2E001900D928A95E1F79B
:10517000FB2C62CFC8010E944215882309F461CF3D
:10518000EE2009F45ECF80913E02803288F02091BB
:1051900038023091390239872887DB86CA86909198
:1051A0003C029C871D868E87CE0108960E940A22AB
:1051B00087E0F801A8E3B2E001900D928A95E1F74B
:1051C0000E947D271ACF80913E02982F907F51F444
:1051D00088E392E00E940A2287E0F40111928A9506
:1051E000E9F7AFCFFF2009F408CF20913902F80189
:1051F0009181291311C020913802908129130CC08C
:10520000E1100AC08683C8010E940A2287E0F401E7
:1052100011928A95E9F7ACCFC8010E944215882304
:1052200009F40FCFEE2009F40CCF80913E028032BA
:1052300008F4BECF20913802309139023A83298395
:10524000DC82CB8290913C029D831E828F83CE01B3
:105250000196ACCF60E088E392E00E946415F8EC20
:105260006F16710408F0B8CFFF2009F4C6CEFE2CEB
:10527000EE2009F4E6CE90913902F801818198136D
:105280002DC0909138028081981328C080913A02F5
:1052900090913B02C81AD90AF8ECCF16D104A8F4B1
:1052A00090913E0290FD11C0907F79F080913E0276
:1052B000F8018683903F31F0982F907F905F8F7038
:1052C000892B8683C8010E940A2287E0F801A8E39F
:1052D000B2E001900D928A95E1F7AECEC8010E942E
:1052E0004215811165CF80913E02816080933E021C
:1052F000C8010E940A22A0CEABE1B0E0E2E8F9E2E8
:105300000C9426334E8B5F8B688F798F8A8F9B8F9F
:105310009111109249031D8A86E0FE017696DE0106
:105320001F9601900D928A95E1F78B89882351F0A1
:1053300061E0CE010F960E94641561E0CE010F96E8
:105340000E94641587E0FE013F96DE0118960190E9
:105350000D928A95E1F7CE0108960E94E12781110E
:105360002AC087E0FE013896DE01119601900D9269
:105370008A95E1F78C858823F1F02091810330E054
:10538000C9010196877099274091BA0348171906F9
:1053900059F197E0929FD001939FB00D1124AE5721
:1053A000BC4FFE01319601900D929A95E1F78093E2
:1053B00081030E94061417E08091BA039091810343
:1053C0008917F9F0819FC00111248E579C4F0E94CC
:1053D000E1278823B1F08091BA0390E001968770AD
:1053E00099278093BA03E8CF0E9473171092810324
:1053F0001092BA0387E0E8E3F2E0DF011D928A959C
:10540000E9F76B96E3E00C944233A6E0B0E0EBE002
:10541000FAE20C9425330E944A1B8C0180914902C8
:1054200090914A028017910781F019821A820E9496
:105430004A1B682F49815A81792F80E090E00E94B1
:105440007C2910934A02009349022696E4E00C94CA
:1054500041331F920F920FB60F9211248F939F9397
:10546000AF93BF9380915D03811113C080915E0360
:1054700090915F03A0916003B09161034196A11DDB
:10548000B11D80935E0390935F03A0936003B0937C
:105490006103BF91AF919F918F910F900FBE0F90BD
:1054A0001F901895CF93DF93EC010E944A1B8C1B31
:1054B0009D0BDF91CF910895ADE0B0E0E2E6FAE216
:1054C0000C94173385B7806885BF85B7806885BF22
:1054D00084B7877F84BF0FB6F894A8958091600049
:1054E000886180936000109260000FBE80E890E0B9
:1054F0000FB6F89480936100909361000FBE81E035
:105500008093500160914D0170914E0180914F0147
:10551000909150010E94561B8CE991E190930B02EF
:1055200080930A020E94AE0F0E944D108091E2000B
:1055300084608093E200789480917703882399F0C7
:105540001091E9001F708091EC0080FFA4C180E8F9
:10555000182B1092E9008091E80083FD0E94721BD5
:105560001F701093E90082E084BD93E095BD9AEF2F
:1055700097BD80936E0010926D0210926E02109291
:105580006F02109270028091D80080618093D800E1
:105590002AE12A95F1F700C08091D900182F1170E7
:1055A00080FD04C00E94AE0F1092770310934D034C
:1055B00010934E0310931D0111110E94A031809190
:1055C0001D0180911D0190E0811101C095E0909333
:1055D0007C0285E0891B80937B0207EF11E0D801F4
:1055E0008D918D018F3F11F00E949E11B1E00C3F13
:1055F0001B07A9F70CEF11E052E0E52E52E0F52E63
:10560000F80181918F018F3F11F00E949E11E016E9
:10561000F106B1F78AE0EFE7F2E0DF01282F1D92F3
:105620002A95E9F7E1E7F2E0DF011D928A95E9F7B3
:1056300090E080E00E945F33853E9E4F09F461C098
:1056400065EE7EEF90E080E00E94933360E082E0C0
:1056500090E00E94753381E090E090937E02809309
:105660007D0261E083E090E00E94753360E074E1C8
:1056700084E090E00E94933360E086E090E00E9436
:10568000753360E087E090E00E94753340E050E0C1
:10569000BA0188E090E00E94873360E083E290E006
:1056A0000E94753360E08CE090E00E94753360E00A
:1056B0008DE090E00E94753319821A821B821C8251
:1056C0001D821E821F82188648E050E067E170E06C
:1056D000CE0101960E94653340E050E0BA018FE1AF
:1056E00090E00E94873340E050E0BA018FE090E004
:1056F0000E94873340E050E0BA0183E190E00E94CD
:10570000873382E090E00E9457338093890284E0DF
:1057100090E00E945F33909319038093180383E015
:1057200090E00E94573390E00E943D1580914D0318
:105730008111B3C082E080933A0380E88093BB0379
:105740000E943E306BE070E08BE297E10E94C4194A
:105750008823E9F180913A0365E070E081FD9FC004
:1057600086E297E10E94C419882389F16DE070E018
:1057700084E197E10E94C419882349F10E9409112C
:10578000605A75418F4F9F4F609340037093410360
:105790008093420390934303E4ECF3E080E092E0D3
:1057A000DF019C011D9221503040E1F7F093C505C7
:1057B000E093C4058FEF9FEF9093C3038093C203E0
:1057C00081E0809345038093440310923B038091D2
:1057D0004D03811102C00E94A3318EE191E09093AC
:1057E00052038093510344E6842E912CA12CB12CBA
:1057F0008091770310E4853009F488C00E94A420CA
:105800000AE812E03FE7E32E32E0F32ED701F80179
:1058100091918D9122E0E439F20709F481C0981743
:10582000B9F340904D03D12CD701CD907D01F80103
:1058300051908F015C1431F1712C662463945C24C7
:10584000852D8621B9F04420A9F07982DA820E9460
:105850004A1B9C838B83F1E0FD8391E08C2D862194
:1058600009F490E09E8349815A816B817C818D810E
:105870000E947C297394660C26E07212E1CFF80135
:105880003197C082D3943AE0D312CECF0E94B511A3
:1058900041E049874AC080E05BCE80E04CCF81E2A6
:1058A00097E160CF80917703843029F10E94D1196C
:1058B00010925D0348E150E00FB6F894A89540932C
:1058C00060000FBE1093600083B7817F846083BF48
:1058D00083B7816083BF7894889583B78E7F83BFB9
:1058E0000FB6F894A895809160008861809360005D
:1058F000109260000FBE0E94A420EFE7F2E08191B9
:10590000811154C352E0E938F507C9F78091770354
:10591000853009F4C7CF0E9473170E947C116ECFA7
:1059200098137FCF0E94052A198680914D03882302
:1059300009F4DAC000914B0310914C0301151105D5
:10594000B9F0C0909402D09095020E944A1B8C1925
:105950009D09893C910560F090E080E0011102C052
:1059600088E291E0DC0115962C9122FF0E94B81785
:10597000C090A102D090A2020D2C000CEE08FF08EE
:1059800010913801212F30E0E1EAF2E081E090E06F
:105990003296281739070CF0EDC040909D025090C8
:1059A0009E0260909F027090A0020E9409119B01CC
:1059B000AC01241935094609570929013A0139EC86
:1059C000431651046104710414F180919C0290E02B
:1059D000019669E170E00E94B53380939C02880FC4
:1059E000991FFC01EF55FD4F11821082812F183154
:1059F00008F087E18F5F809338010E94091160935E
:105A00009D0270939E0280939F029093A00242E0B9
:105A1000C416D104E104F1045CF1A0E6BAEEA701DA
:105A200096010E9410346B017C0158EC159F900187
:105A30001124032E000C440B550B240D351D461D5F
:105A4000571DA5E0B0E00E9410349B01AC01C701D6
:105A5000B6010E94C933213F31054105510524F0AB
:105A600020EF30E040E050E029013A0177FE03C02A
:105A7000412C512C3201C0909802D0909902E090B4
:105A80009A02F0909B020E9409119B01AC012C1913
:105A90003D094E095F0969017A0135E6C316D10453
:105AA000E104F10484F00E9409116093980270935C
:105AB000990280939A0290939B0280910D038093A8
:105AC00097024092960210919702A0919602A11B14
:105AD000BB0BA70196010E941B34A50194010E94F3
