:100000000C940A0F0C94270F0C94270F0C94D931E1
:100010000C94270F0C94270F0C94270F0C94270F88
:100020000C94270F0C94270F0C94011F0C94C51EE1
:100030000C94E8290C94270F0C94270F0C94270F8D
:100040000C94270F0C94270F0C94270F0C94270F58
:100050000C94270F0C94FC1A0C94270F0C94270F68
:100060000C94270F0C94270F0C94270F0C94270F38
:100070000C94270F0C94270F0C94270F0C94270F28
:100080000C94270F0C94270F0C94270F0C94270F18
:100090000C94270F0C94270F0C94270F0C94270F08
:1000A0000C94270F0C94270F0C94270F00000000CE
:1000B0000000000000000000000000000000000040
:1000C0000000000000000000000000000000000030
:1000D0000000000000000000000000000000000020
:1000E0000000000000000000000000000000808010
:1000F00080404020201008040204081010202040F6
:1001000040808000000000000000000000000000AF
:1001100000000000000000000000000000000000DF
:1001200000000000000000000000000000000000CF
:1001300000000000000000000000000000000000BF
:1001400000000000000000000000000000000000AF
:100150000000000000000000000000000000003F60
:10016000C1010102020404040402020101010000B1
:10017000000000008000004080804000003030001F
:10018000000000010264180412C2CA2488F08080B2
:10019000404040402020202010101010080808087F
:1001A0000404040402020202010101010000000033
:1001B000000000000000000000000000000000003F
:1001C000000000000000000000000000000000002F
:1001D0000000000000000000000000000000E01827
:1001E0000601000000000000000000000080838382
:1001F000404040402021212010101010080808081D
:1002000004040404020202020101010100000000D2
:1002100000000000000000000000000000000000DE
:1002200000000000000000000000000000000000CE
:1002300000000000000000000000000000000000BE
:1002400000000000000000000000000080808080AE
:10025000404040402020202010101010080F0808B7
:1002600004040404020408101020204040414224E9
:1002700098C088888C9C1C1E0E06000000000000A0
:10028000000000000000000000000000000000006E
:10029000000000000000000000000000000000005E
:1002A000000000000000000000000000000000004E
:1002B000000000000000000000000000000000003E
:1002C000000000000000000000000000000000002E
:1002D000000000000000000000000000000000001E
:1002E000000000000000000000000000000000000E
:1002F00000000000000000000000000000000000FE
:1003000000000000000000000000000000000000ED
:1003100000000000000000000000000000000000DD
:1003200000000000000000000000000000000000CD
:1003300000000000000000000000000000000000BD
:1003400000000000000000000000000000000000AD
:10035000000000000000000000000000000000009D
:10036000000000000000000000008080804040206D
:100370002010080402040810102020404080800053
:10038000000000000000000000000000000000006D
:10039000000000000000000000000000000000005D
:1003A000000000000000000000000000000000004D
:1003B000000000000000000000000000000000003D
:1003C000000000000000000000000000000000002D
:1003D00000000000000000000000003FC101010219
:1003E0000204844444428201010100000000000034
:1003F000800000408080400000303000000000019C
:100400000204040808102040808080804040404062
:1004100020202020101010100808080804040404EC
:1004200002020202010101010000000000000000C0
:1004300000000000000000000000000000000000BC
:1004400000000000000000000000000000000000AC
:1004500000000000000000000000E018060100009D
:100460000C03000218190005FE80838340404040C1
:10047000202121201010101008080808040404048A
:100480000408304080800000018698600000000071
:10049000000000000000000000000000000000005C
:1004A000000000000000000000000000000000004C
:1004B000000000000000000000000000000000003C
:1004C000000000000000000080808080404040402C
:1004D0002020202010101010080F08080404040425
:1004E0000202020201010101000000000000000000
:1004F0000000000000000000000000060F0F0703CE
:100500000361F0F8FC600101013C78F8F070000034
:1005100000000000000000000000000000000000DB
:1005200000000000000000000000000000000000CB
:1005300000000000000000000000000000000000BB
:1005400000000000000000000000000000000000AB
:10055000000000000000000000000000000000009B
:10056000000000000000000000000000000000008B
:10057000000000000000000000000000000000007B
:10058000000000000000000000000000000000006B
:10059000000000000000000000000000000000005B
:1005A000000000000000000000000000000000004B
:1005B000000000000000000000000000000000003B
:1005C000000000000000000000000000000000002B
:1005D000000000000000000000000000000000001B
:1005E00000000000000080808040402020100804AF
:1005F000020408101020204040808000000000000D
:1006000000000000000000000000000000000000EA
:1006100000000000000000000000000000000000DA
:1006200000000000000000000000000000000000CA
:1006300000000000000000000000000000000000BA
:1006400000000000000000000000000000000000AA
:10065000000000000000003FC101010202048444C8
:1006600044428201010100000000000080000040BF
:100670008080400000303000000000010264180457
:1006800012C2CA2488F080804040404020202020B0
:1006900010101010080808080404040402020202E2
:1006A0000101010100000000000000000000000046
:1006B000000000000000000000000000000000003A
:1006C000000000000000000000000000000000002A
:1006D000000000000000E018060100000C0300020A
:1006E00018190005FE8083834040404020212120CE
:1006F0001010101008080808040404040202020282
:1007000001010101000000000000000000000000E5
:1007100000000000000000000000000000000000D9
:1007200000000000000000000000000000000000C9
:1007300000000000000000000000000000000000B9
:100740000000000080808080404040402020202029
:1007500010101010080F080804040404020202021A
:100760000101010100000000000000000000000085
:100770000000000000000000000000000000000079
:100780000000000000000000000000000000000069
:100790000000000000000000000000000000000059
:1007A0000000000000000000000000000000000049
:1007B0000000000000000000000000000000000039
:1007C0000000000000000000000000000000000029
:1007D0000000000000000000000000000000000019
:1007E0000000000000000000000000000000000009
:1007F00000000000000000000000000000000000F9
:1008000000000000000000000000000000000000E8
:1008100000000000000000000000000000000000D8
:1008200000000000000000000000000000000000C8
:1008300000000000000000000000000000000000B8
:1008400000000000000000000000000000000000A8
:100850000000000000000000000000000000008018
:10086000804040402020202020180402010204087B
:1008700010202040408080000000000000000000A8
:100880000000000000000000000000000000000068
:100890000000000000000000000000000000000058
:1008A0000000000000000000000000000000000048
:1008B0000000000000000000000000000000000038
:1008C0000000000000000000000000000000000028
:1008D0000000003FC10101020204040404020201FD
:1008E0000000000000000000800000408080400008
:1008F000003030000000000102040408081020400D
:100900008080808040404040202020201010101027
:10091000080808080404040402020202010101019B
:1009200000000000000000000000000000000000C7
:1009300000000000000000000000000000000000B7
:1009400000000000000000000000000000000000A7
:100950000000E01806010000000000000000000098
:10096000008083834040404020212120101010103F
:1009700008080808040404040408304080800000CB
:1009800001869860000000000000000000000000E8
:100990000000000000000000000000000000000057
:1009A0000000000000000000000000000000000047
:1009B0000000000000000000000000000000000037
:1009C0008080808040404040202020201010101067
:1009D000080F080804040404020408101020204032
:1009E0004041422418000000000000000000000008
:1009F00000000000000000000000000000000101F5
:100A000001000000000000000000000000000000E5
:100A100000000000000000000000000000000000D6
:100A200000000000000000000000000000000000C6
:100A300000000000000000000000000000000000B6
:100A400000000000000000000000000000000000A6
:100A50000000000000000000000000000000000096
:100A60000000000000000000000000000000000086
:100A70000000000000000000000000000000000076
:100A80000000000000000000000000000000000066
:100A90000000000000000000000000000000000056
:100AA0000000000000000000000000000000000046
:100AB0000000000000000000000000000000000036
:100AC0000000000000000000000000000000000026
:100AD0000000000000000000000000000000808016
:100AE0004040402010080402010204081020408009
:100AF0008000000000000000000000000000000076
:100B000000000000000000000000000000000000E5
:100B100000000000000000000000000000000000D5
:100B200000000000000000000000000000000000C5
:100B300000000000000000000000000000000000B5
:100B40000000000000000000000000000000003F66
:100B5000C1010102020404040402020101010000B7
:100B600000000000000000800000800000606000C5
:100B700000010204040808101020204080808080BA
:100B80004040404020202020101010100808080885
:100B90000404040402020202010101010000000039
:100BA0000000000000000000000000000000000045
:100BB0000000000000000000000000000000000035
:100BC0000000000000000000000000000000C03035
:100BD0000C0300000000000000000000008086867A
:100BE000404040402122222011111010080808081E
:100BF00004040404040830408080000001869860EA
:100C000000000000000000000000000000000000E4
:100C100000000000000000000000000000000000D4
:100C200000000000000000000000000000000000C4
:100C300000000000000000000000000080808080B4
:100C4000404040402020202010101010080F0808BD
:100C500004040404020408101020204040414224EF
:100C6000180000000000000000000000000000006C
:100C70000000000000000000000001010100000071
:100C80000000000000000000000000000000000064
:100C90000000000000000000000000000000000054
:100CA0000000000000000000000000000000000044
:100CB0000000000000000000000000000000000034
:100CC0000000000000000000000000000000000024
:100CD0000000000000000000000000000000000014
:100CE0000000000000000000000000000000000004
:100CF00000000000000000000000000000000000F4
:100D000000000000000000000000000000000000E3
:100D100000000000000000000000000000000000D3
:100D200000000000000000000000000000000000C3
:100D300000000000000000000000000000000000B3
:100D400000000000000000000000000000000000A3
:100D50000000000000000000000080808080404013
:100D600020100804020408102040808000000000C9
:100D70000000000000000000000000000000000073
:100D80000000000000000000000000000000000063
:100D90000000000000000000000000000000000053
:100DA0000000000000000000000000000000000043
:100DB0000000000000000000000000000000000033
:100DC00000000000000000000000007E820202041B
:100DD00004080808080404020101000000000000E3
:100DE000000000800000800000606000010102043B
:100DF000040808101020204080808080404040403F
:100E000020202020101010100808080804040404F2
:100E100002020202010101010000000000000000C6
:100E200000000000000000000000000000000000C2
:100E300000000000000000000000000000000000B2
:100E400000000000000000000000C0300C030000A3
:100E50000000000000000000008086864040404006
:100E6000212222201111101008080808040404048B
:100E70000408304080800000018698600000000077
:100E80000000000000000000000000000000000062
:100E90000000000000000000000000000000000052
:100EA0000000000000000000000000000000000042
:100EB0000000000000000000808080804040404032
:100EC0002020202010101010080F0808040404042B
:100ED0000204081010202040404142241800000065
:100EE0000000000000000000000000000000000002
:100EF00000000000000001010100000000000000EF
:100F000000000000000000000000000000000000E1
:100F100000000000000000000000000000000000D1
:100F200000000000000000000000000000000000C1
:100F300000000000000000000000000000000000B1
:100F400000000000000000000000000000000000A1
:100F50000000000000000000000000000000000091
:100F60000000000000000000000000000000000081
:100F70000000000000000000000000000000000071
:100F80000000000000000000000000000000000061
:100F90000000000000000000000000000000000051
:100FA0000000000000000000000000000000000041
:100FB0000000000000000000000000000000000031
:100FC0000000000000000000000000000000000021
:100FD0000000000000008080808040402010080455
:100FE0000204081020408080000000000000000083
:100FF00000000000000000000000000000000000F1
:1010000000000000000000000000000000000000E0
:1010100000000000000000000000000000000000D0
:1010200000000000000000000000000000000000C0
:1010300000000000000000000000000000000000B0
:101040000000000000001C34C40404040808080860
:1010500008040402010100000000000080000040BC
:1010600080804000003030000101020204040408C6
:101070000810204080808080404040402020202078
:1010800010101010080808080404040402020202E8
:10109000010101010000000000000000000000004C
:1010A0000000000000000000000000000000000040
:1010B0000000000000000000000000000000000030
:1010C000000000000000E018060100000000000021
:1010D0000000000000808383404040402021212008
:1010E0001010101008080808040404040408304014
:1010F0008080000001869860000000000000000071
:1011000000000000000000000000000000000000DF
:1011100000000000000000000000000000000000CF
:1011200000000000000000000000000000000000BF
:10113000000000008080808040404040202020202F
:1011400010101010080F080804040404020408100A
:101150001020204040414224180000000000000000
:10116000000000000000000000000000000000007F
:10117000000001010100000000000000000000006C
:10118000000000000000000000000000000000005F
:10119000000000000000000000000000000000004F
:1011A000000000000000000000000000000000003F
:1011B000000000000000000000000000000000002F
:1011C000000000000000000000000000000000001F
:1011D000000000000000000000000000000000000F
:1011E00000000000000000000000000000000000FF
:1011F00000000000000000000000000000000000EF
:1012000000000000000000000000000000000000DE
:1012100000000000000000000000000000000000CE
:1012200000000000000000000000000000000000BE
:1012300000000000000000000000000000000000AE
:10124000000000000000000000000000000000801E
:101250008040404020202020201804020102040881
:1012600010202040408080000000000000000000AE
:10127000000000000000000000000000000000006E
:10128000000000000000000000000000000000005E
:10129000000000000000000000000000000000004E
:1012A000000000000000000000000000000000003E
:1012B000000000000000000000000000000000002E
:1012C00000060D31C1010101020202040402020103
:1012D000000000000000000080000040808040000E
:1012E0000030300000000001020404080810204013
:1012F000808080804040404020202020101010102E
:1013000008080808040404040202020201010101A1
:1013100000000000000000000000000000000000CD
:1013200000000000000000000000000000000000BD
:1013300000000000000000000000000000000000AD
:101340000000E0180601000000000000000000009E
:101350000080838340404040202121201010101045
:1013600008080808040404040408304080800000D1
:1013700001869860000000000000000000000000EE
:10138000000000000000000000000000000000005D
:10139000000000000000000000000000000000004D
:1013A000000000000000000000000000000000003D
:1013B000808080804040404020202020101010106D
:1013C000080F080804040404020408101020204038
:1013D000404142241800000000000000000000000E
:1013E00000000000000000000000000000000101FB
:1013F00001000000000000000000000000000000EC
:1014000000000000000000000000000000000000DC
:1014100000000000000000000000000000000000CC
:1014200000000000000000000000000000000000BC
:1014300000000000000000000000000000000000AC
:10144000000000000000000000000000000000009C
:10145000000000000000000000000000000000008C
:10146000000000000000000000000000000000007C
:10147000000000000000000000000000000000006C
:101480000000000000000000000000000102E07801
:101490000103E0000102E3780103E3000102E076CA
:1014A0000103E0000102E3760103E3000102E063CF
:1014B0000103E0000102E3630103E3004A001E00B0
:1014C0001F00200021002200350014001A0008002F
:1014D00015001700290004221628072409210057A7
:1014E00031001D001B00060019000500000052001D
:1014F000510021522B42AA004D0027002600250052
:10150000240023002D00130012000C0018001C0002
:10151000340033320F380E340D310B002E023800F8
:10152000370036001000110000004F00500022521A
:101530002C41A90000000000000000000000000095
:1015400000000000000000000000000000001E027B
:101550001F0220022102220200000000427E407E83
:10156000417E000000000100010000002A00A800E8
:101570000000000000000000000000000000300239
:101580002F0200000000000035022702260225027B
:1015900024022302000030022F020000000000009D
:1015A0000000010001000000010001000000000037
:1015B000000000000000000000000000000000002B
:1015C0000000000000001E001F002000210022007B
:1015D000000000000000000000000000000001000A
:1015E00001000000010001000000000000000000F8
:1015F00000000000000000000000000000000000EB
:101600000000270026002500240023000000000021
:1016100000000000000000000000010001000000C8
:101620002800010000000000000000000000000091
:101630000000000000000000000000000100E100C8
:10164000E200E300E00000520000000000000000A3
:101650000000000000000100010001000100010085
:10166000000000000000000000000000000000007A
:101670000000000000000000000000004E005200CA
:101680004B00000000004D004F00510050004A0088
:101690000000010001000100010001000000000045
:1016A0000000000000000000000000001C700000AE
:1016B000000000000000000000000000000000002A
:1016C0000000000000000000000000000000010019
:1016D0000100010001000000000000000000000007
:1016E00000000000000000000000000000000000FA
:1016F00000000000000000000000000000000000EA
:10170000000000001B70000000000100010001004B
:101710000100000000DA0281FFD9F1DB20A4A62E2F
:10172000AF00A0C0D30000A1C8D30000AED580A8F0
:101730001F408D14200000AF00AE05010980A101FB
:10174000850319012AB700150126B7009501751008
:101750008100C0050C0901A101850419012AA0021C
:10176000150126A002950175108100C0050109062A
:10177000A101050719E029E7150025019508750164
:1017800081029501750881010507190029FF1500DF
:1017900026FF009506750881000508190129051521
:1017A000002501950575019102950175039101C010
:1017B00009023B00020100A0FA0904000001030134
:1017C00001000921110100012244000705810308DD
:1017D00000010904010001030000000921110100BA
:1017E00001223200070582032000011201000200DD
:1017F000000008D8042DEB0001010200010E034C8B
:101800000069006C00790035003800000010036C9E
:101810000069006C00690075006D00730000000431
:101820000309040000000000003E5B4F5B3E003EE9
:101830006B4F6B3E001C3E7C3E1C00183C7E3C18EF
:10184000001C577D571C001C5E7F5E1C0000183C6E
:10185000180000FFE7C3E7FF00001824180000FF8E
:10186000E7DBE7FF0030483A060E002629792926F3
:1018700000407F05050700407F05253F005A3CE7F3
:101880003C5A007F3E1C1C0800081C1C3E7F0014B4
:10189000227F2214005F5F005F5F0006097F017FE7
:1018A00000006689956A0060606060600094A2FF35
:1018B000A2940008047E04080010207E2010000876
:1018C000082A1C0800081C2A0808001E1010101006
:1018D000000C1E0C1E0C0030383E383000060E3E48
:1018E0000E060000000000000000005F0000000085
:1018F0000700070000147F147F1400242A7F2A1297
:10190000002313086462003649562050000008077F
:10191000030000001C224100000041221C00002A9C
:101920001C7F1C2A0008083E080800008070300058
:101930000008080808080000006060000020100887
:101940000402003E5149453E0000427F40000072C3
:1019500049494946002141494D33001814127F106E
:10196000002745454539003C4A494931004121118C
:10197000090700364949493600464949291E0000F1
:101980000014000000004034000000000814224150
:101990000014141414140000412214080002015908
:1019A0000906003E415D594E007C1211127C007FF9
:1019B00049494936003E41414122007F4141413E73
:1019C000007F49494941007F09090901003E414121
:1019D0005173007F0808087F0000417F410000200C
:1019E00040413F01007F08142241007F40404040B9
:1019F000007F021C027F007F0408107F003E4141EF
:101A0000413E007F09090906003E4151215E007FE9
:101A1000091929460026494949320003017F01037B
:101A2000003F4040403F001F2040201F003F403803
:101A3000403F00631408146300030478040300614A
:101A400059494D4300007F414141000204081020E4
:101A500000004141417F0004020102040040404077
:101A60004040000003070800002054547840007FE5
:101A70002844443800384444442800384444287FEB
:101A80000038545454180000087E09020018242419
:101A90001C78007F080404780000447D400000208A
:101AA00040403D00007F102844000000417F40007E
:101AB000007C04780478007C0804047800384444EE
:101AC0004438007C1824241800182424187C007C36
:101AD000080404080048545454240004043F4424D7
:101AE000003C4040207C001C2040201C003C40303A
:101AF000403C004428102844004C9090907C0044C6
:101B000064544C4400000836410000000077000097
:101B1000000041360800000201020402003C2623B6
:101B2000263C000000000000808080800000000053
:101B30000080E070180C1830E080000010F8901061
:101B400030783010B8FC3810000000000000F8FCBD
:101B5000F8000000000000000000000000001C9CD5
:101B60001C00000000F8FCF80000000000001CFC55
:101B7000F8C000000000000080E0F87C1C000000BD
:101B8000F0FCFCFC1C1C1C1C1C1C1C1C0000000091
:101B90000000C0F0F8381C1C1C1C1C1C3CF8F0E0B9
:101BA00000E0F0F0F0E0ECEEF7F37020007C7C7CDD
:101BB0007E007E7E7E7F7F7F000080C0E07E5B4F68
:101BC0005BFEC00000C000DCD7DEDEDED7DC00C07C
:101BD0000000000000000000000000000000000005
:101BE00000000000000000000FBCE08181818383C1
:101BF00082870C183060C000001FFE90B9FFBB91B7
:101C0000983C1811133F1100000000000000FFFF76
:101C1000FF00000000000000000000000000FFFFC7
:101C2000FF00000000FFFFFF0000000000000000B8
:101C3000030F7FF8E080F0FC3F0F01000000000080
:101C40003F3F3F1C1C1C1C1C3C78F8F0E08000004F
:101C50000000C3E7FF7E3C3878787070F8FFDF87BC
:101C6000000F1F3F7F7F7F7F7F3F1E0C001F1F1FC6
:101C70003F003F3F3F7F7F7F00307B7F78302020D9
:101C800030787F3B0003000F7F0F0F0F7F0F0003A3
:101C90000000000000000000000000000000000044
:101CA000000000183C24666341C1818080808080F0
:101CB0008081C14162386C4CC68181808080808087
:101CC00081C14362361C1800000000000000FFFFC5
:101CD000FFC0C0C0C0C0C0C0C0C0800000007FFF47
:101CE0007F000000007FFFFFC080000000E0E0C038
:101CF000C0C0E0F97F1F07000000000000000000E6
:101D000070F0E0E0C0C0C0C0E0F0F87F3F0F00001E
:101D1000000F3F7FF9E0E0C0C0C0C0C0E0F97F3FE6
:101D20001F00000000000000000000000000000094
:101D300000000000000000000000000000000000A3
:101D40000000000000000000000000000000000093
:101D50000000000000000000000000000000000083
:101D60000000000000000000000000000000000073
:101D70000000000000000000000000000000000063
:101D8000000000000000007E0F00D4FFFFFFC7002E
:101D900000007800000000000000002A2B2800004E
:101DA000000000000000000000000000000029000A
:101DB0000000002C1E3420212224342627252E3614
:101DC0002D3738271E1F2021222324252633333682
:101DD0002E37381F0405060708090A0B0C0D0E0FD5
:101DE000101112131415161718191A1B1C1D2F3158
:101DF00030232D350405060708090A0B0C0D0E0FBC
:101E0000101112131415161718191A1B1C1D2F3137
:101E100030354C0011241FBECFEFDAE0DEBFCDBF5E
:101E200012E0A0E0B1E0EAE2FEE602C005900D9209
:101E3000A232B107D9F725E0A2E2B2E001C01D92BB
:101E4000A63FB207E1F70E941B2A0C9413370C94AB
:101E50000000FF920F931F93CF93DF932091F4051F
:101E60003091F505245F3340A90144585D4F41305E
:101E70005240E8F040E052E0421B530B6091F20305
:101E80007091F303D901AC50BC4F420F531F821B1A
:101E9000930BC1E0D0E02417350760F07093F30393
:101EA0006093F203CDB7DEB7E5E00C9433334CE733
:101EB00052E0E4CFFC01E20FF31FF490FD91FF1616
:101EC000A1F08D0101501109F801F082F90115E02E
:101ED000F695E7951A95E1F78E0102C0000F111FE4
:101EE000EA95E2F7F801602B7F2B2F5F3F4FD3CFAE
:101EF000482F2091EA039091B10357E0291302C0C3
:101F000080E0089530E0529FF001539FF00D1124BE
:101F1000EE54FC4F8181681306C08081481303C0D2
:101F200085818111EECF2F5F3F4F2770E7CFFC01F6
:101F3000AC014B5F5F4F8FEF91E32191822728E047
:101F400030E087FF09C0880F892721503109C9F780
:101F5000E417F50791F70895880FF7CFE8EDF0E063
:101F600080818E7F80831092E2001092DA001092BE
:101F7000E100A0EEB0E08C9181608C9380818F773E
:101F8000808319BCA7EDB0E08C918E7F8C9380810B
:101F90008F7E80831092920308952091E400309107
:101FA000E50085E69091EC0090FF06C09091E80076
:101FB00090FF06C080E008959091E80092FDFACF6E
:101FC0009091A703992391F0953091F09091EB00B7
:101FD00095FD10C04091E4005091E50024173507AD
:101FE00009F381509A01F1F684E0089582E00895A2
:101FF00083E0089581E008958091A90387FF13C0CD
:102000008091E80082FF06C08091E8008B77809382
:10201000E80004C08091A7038111F2CF0895809158
:10202000A7038823D9F38091E80080FFF8CF80913F
:10203000E8008E77ECCF982F9093E900242F762F2D
:1020400050E0891731F07091EC002091ED00509133
:10205000F00021FD07C09F5F973071F78093E90082
:1020600081E008953091EB003E7F3093EB0030919A
:10207000ED003D7F3093ED003091EB003160309307
:10208000EB007093EC002093ED005093F000209152
:10209000EE0027FDE0CF80E00895B0E0A0E0E3E5AA
:1020A000F0E10C941433C8EDD0E088818F7E8883F2
:1020B000E7EDF0E080818160808384E082BF81E091
:1020C0008093920388818E7F888302EE10E0F8016E
:1020D00010821092DA0081EEC82ED12CF601108207
:1020E00088818F77888388818068888388818F7DC5
:1020F000888319BC1092A7031092A80310929C0326
:1021000010929B0390EEE92EF12CF70180818B7FDA
:10211000808388818160888342E060E080E00E9463
:102120001B10F60180818E7F8083F80180818160A1
:102130008083808188608083F70180818E7F8083A7
:10214000888180618883CDB7DEB7E8E00C943033B6
:10215000FC018091AF039091B00386179707A0F020
:102160006115710529F49091E8009E779093E8003D
:1021700090E06115710551F4911108C08091E8005B
:1021800082FF35C080E00895BC01F2CF8091A703A3
:102190008823C9F18530C9F18091E80083FD31C001
:1021A0008091E80082FDEACF8091E80080FFE1CFD6
:1021B0002091F3008091F200322F282F61157105D4
:1021C00019F02830310558F091E02830310509F038
:1021D00090E02091E8002E772093E800CACF81910B
:1021E0008093F100615071092F5F3F4FE7CF8091DD
:1021F000A703882341F0853041F08091E80083FFF8
:10220000BDCF81E0089582E0089583E008950895A8
:1022100008952FB7F89460918E0370918F03809189
:102220009003909191032FBF089580914E010895DE
:102230009C01FC0132969FEF80E04191461751F0DE
:102240009F3F19F4411101C0982F8F5F8630A9F785
:102250009F3F09F40895290F311D97FD3A95F90123
:1022600062830895A3E0B0E0E8E3F1E10C941A334F
:10227000209183033091840328173907A1F09093AC
:10228000840380938303E0918103F091820330976C
:1022900051F024E029839B838A830084F185E02D1B
:1022A000CE01019609952396E2E00C943633A3E023
:1022B000B0E0EDE5F1E10C941A3320917F03309109
:1022C000800328173907A1F09093800380937F0340
:1022D000E0918103F0918203309751F023E029834C
:1022E0009B838A830084F185E02DCE0101960995B8
:1022F0002396E2E00C94363380917D03882359F0D5
:10230000E0918103F0918203309729F00190F081F0
:10231000E02D0995089580E008954115510511F0CB
:10232000FA0109950895DC01ED91FC9111978491D2
:102330003196ED93FC93089580E00895F894E82F8A
:10234000E295EF70F0E031A1282F2F7081E090E04E
:1023500001C0880F2A95EAF7982F9095932391A3AF
:1023600092A1892B82A3789408950F931F93809153
:102370007D03882329F00E9409111F910F91089570
:102380000E94091100918502109186022091870216
:1023900030918802600F711F821F931FEECF9091C2
:1023A000480392FF10C041E0282F2471243009F027
:1023B00040E031E0282F2871283009F030E0431741
:1023C00011F02CE0822793FF10C041E0282F2471E8
:1023D000243109F040E031E0282F2871283109F03C
:1023E00030E0431711F02CE082273091490330FF91
:1023F00010C051E0282F2171213009F050E041E058
:10240000282F2871283009F040E0541711F029E0F6
:10241000822731FF10C041E0282F2171213109F0BE
:1024200040E031E0282F2871283109F030E04317CF
:1024300011F029E0822794FD877E08958238910566
:10244000B9F1B0F48133910509F47DC048F48932C3
:10245000910509F46DC08A32910509F479C0089597
:102460008533910509F45FC08933910509F1089519
:10247000833E9105D9F138F4803E910529F1823EE1
:10248000910579F10895863E9105D9F1873E910530
:1024900009F43EC0843E910541F52091490321FF96
:1024A00024C08091480384FD19C087EE90E0089510
:1024B00020914803237009F056C02091490323FF5F
:1024C00014C089E290E008952091480320FD38C0AF
:1024D0003091490330FF09C024FF3FC090E080E005
:1024E00008952091480322FDF7CF089520914803D5
:1024F00022FD36C03091490330FD35C024FDEECFBA
:10250000F4CF2091480323FFF0CF24FDE7CFCDCFB8
:102510002091480323FD2AC03091490331FFEECFBB
:1025200084EE90E008952091480325FDCACF0895D8
:102530002091480325FD1DC02091490323FFD5CFDD
:1025400089E390E008952091480326FD15C0089581
:102550002091480326FD13C0089583EE90E008956E
:1025600082EE90E0089580EE90E0089586EE90E08F
:10257000089585E390E008958AE290E0089581E36C
:1025800090E0B3CF7A30B8F46630A8F48530B0F478
:10259000E62FF0E096E0799FE00DF11D11249CE319
:1025A000899FE00DF11D1124EE0FFF1FE454FB4E37
:1025B00085919491089580E090E0089581E0FCCFAA
:1025C0001F93CF93DF930E941E12EC01C11580E58B
:1025D000D807E8F5C11580E4D80708F09BC0C03ED5
:1025E000D10518F5CD3CD10508F081C0C83AD10518
:1025F00070F4C53AD10508F072C0C130D10511F1AF
:1026000018F0C430D105F0F4D0E0C0E01BC0C33CEA
:10261000D105D0F7C85AD0E0CC0FDD1FC952DE4F2C
:102620000990D881C02DD4640DC0C11580E2D807AF
:1026300008F0CBC0C11581E0D80708F05AC0C83EE9
:10264000D10510F7CE01DF91CF911F910895C036CB
:1026500082E5D80718F5C03482E5D80708F069C0CC
:10266000C03282E5D80708F05DC0C11582E5D80701
:1026700008F493C02C2F2695269580E2289F900180
:1026800011248C2F8370C1E0D0E002C0CC0FDD1F7D
:102690008A95E2F7C22BD32BDD68D4CFC03A82E50E
:1026A000D80760F4C03882E5D80708F457C0CF7166
:1026B000D0E0DC2FCC27C46FD06AC4CFC03C82E509
:1026C000D80708F45EC0C03E82E5D80708F09CCF6A
:1026D000DC2FCC27CC27DF71C06FD06AB3CFC55AAF
:1026E000D0E0CC52DE4FC881D0E0D064ABCFD06513
:1026F000A9CF8D2F0E94CF11182FCE0199270E94AC
:102700001E12C12FD0E0DC2FCC27CC27DF71C82BC5
:10271000D92B98CFCE0199270E941E12CC27DF70AB
:10272000D06AF5CFCF71D0E0DC2FCC27C16FD06A53
:1027300089CF2C2F26952695277080E2289F90011F
:1027400011248C2F8370C1E0D0E002C0CC0FDD1FBC
:102750008A95E2F7DC68C22BD32B74CF2C2F2695F9
:102760002695277080E2289F900111248C2F83707A
:10277000C1E0D0E002C0CC0FDD1F8A95E2F7DA6835
:10278000EACF8C2F8F710E94CF11C82FD0E0DC2FA1
:10279000CC27CC27DF71D06255CF8C2F8F710E9450
:1027A000CF1155E0D695C7955A95E1F7CF70D0E097
:1027B000DC2FCC27282F30E084FF05C044E0220F17
:1027C000331F4A95E1F7D069C6CF8D2F8F710E94D4
:1027D000CF11182FCE0199270E941E12C12FD0E0D1
:1027E000DC2FCC27CC27DF71906291CF982F90956A
:1027F000809179038923809379030895982F909588
:1028000080917A03892380937A0308958091EA0363
:102810009091B103981301C008958F5F8770FACF2C
:10282000B0E0A0E0E6E1F4E10C9413337C01009108
:102830000303109104038091950290919602082B56
:10284000192BCFE0D0E0CC24C394D12CBC2EC601F0
:102850000C2E02C0880F991F0A94E2F7802391235F
:10286000892B49F4219790F7B12C8B2DCDB7DEB78A
:10287000E9E00C942F33B7018C2F0E94C2120E9402
:10288000E012019779F3F1CFCF93DF93EC010E942F
:102890001014BE010E94C2120E94E012DF91CF917B
:1028A00008959A3078F5863068F5E82FF0E086E0F4
:1028B000989FE00DF11D11249E2F977083E0F695EF
:1028C000E7958A95E1F7EE0FFF1FEE0FFF1FE05D22
:1028D000FD4F50E040E080E0219130E0092E02C041
:1028E000369527950A94E2F721703327042E01C00C
:1028F000220F0A94EAF7822B4F5F5F4F4430510555
:1029000059F7089580E008959A3098F5863088F553
:10291000E82FF0E086E0989FE00DF11D11248E2F46
:10292000877041E001C0440F8A95EAF783E0F6958D
:10293000E7958A95E1F7EE0FFF1FEE0FFF1FE05DB1
:10294000FD4F30E020E070E05191DF011197CB01A5
:10295000022E02C0969587950A94E2F781708195C0
:102960008527842385278C932F5F3F4F24303105A3
:1029700059F708959093040380930303089521E089
:1029800030E002C0220F331F8A95E2F72095309580
:102990008091030390910403822393230E94BA142D
:1029A0000895909157028095892380935702282F8C
:1029B000277069F4891759F09091490392FF07C075
:1029C0008695869586950E94BF14109257020895A9
:1029D00021E030E002C0220F331F8A95E2F7809198
:1029E000030390910403822B932B0E94BA14089541
:1029F00021E030E0A90102C0440F551F8A95E2F79B
:102A0000CA010E94BA140895CF93DF93FC0122817A
:102A1000223041F4FB01EC0182810E94F8148D8187
:102A200082608D83DF91CF91089590939602809379
:102A300095020895FC0124812223B9F080819181BF
:102A40000E94441492959F70963089F050F49250F1
:102A5000923058F4803F19F030F4883E30F481E031
:102A600008959A50F5CF843FD1F380E00895883ED1
:102A7000B0F3813FD1F7F3CFA6E0B0E0E2E4F5E1B7
:102A80000C94193326E0FC01DE01119601900D92A1
:102A90002A95E1F7FC01258189819A81222399F009
:102AA000662389F00E941014182F682F89819A815B
:102AB0000E94841469817A81812F0E94C212269615
:102AC000E3E00C9435330E945114182FF3CF9C018E
:102AD0003A9521153F4150F5FC01EE27F170BC01FC
:102AE00066277270AC01442754709C01222738700D
:102AF00094FF0EC080E0EF2B09F080E1672B09F016
:102B00008062452B09F08064232B89F0806808954A
:102B100081E0EF2B09F480E0672B09F08260452B00
:102B200009F08460232B19F08860089580E00895EF
:102B300080913D038531F8F480912D0290E001965B
:102B400065E070E00E94A83380932D0224E030E01D
:102B5000281B390B4CE752E0249FC001259F900DA4
:102B6000349F900D1124805E974F0E94290F089585
:102B700084EA95E0FACF8832D8F380912C0290E075
:102B800001968170992780932C0221E030E0281B68
:102B9000390B4CE752E0249FC001259F900D349FD4
:102BA000900D112484559F4FE0CF0F931F93CF9327
:102BB000DF938B01EA019091A703943061F5809334
:102BC000E9008FEF9091E800815095FD06C095EDEA
:102BD0009A95F1F700008111F5CF8091E80085FF0B
:102BE0001AC00E94CD0F811111C08091E80085FDAF
:102BF00006C08091E8008E778093E800F2CFF8015C
:102C000081918F018093F100219779F78091E800FD
:102C10008E778093E800DF91CF911F910F910895F7
:102C200043E050E0BC0182E00E94D5150895CF93A7
:102C3000DF93EC0148E050E0BC0181E00E94D51533
:102C400088E0FE01A3E9B3E001900D928A95E1F7D7
:102C5000DF91CF910895B0E0A0E0E1E3F6E10C94BC
:102C600012337C015B016A018091840201E010E073
:102C70008A3010F40AE010E0C1E0D0E0B501C701ED
:102C8000F6010995811104C021960C171D072CF43B
:102C9000CDB7DEB7EAE00C942E33CC9F9001CD9FE8
:102CA000300D300D112490E080E045E34A95F1F7B6
:102CB0000000019682179307C1F7E0CFCF93DF930F
:102CC000682F81E06A3019F06D3031F480E00E94A5
:102CD000DF16DF91CF9108958091F4059091F5056D
:102CE00026E0FC01ACEEB3E001900D922A95E1F7ED
:102CF000603E08F459C026E0FC0111922A95E9F7DC
:102D0000C091F405D091F50546E050E0BE018CEE8F
:102D100093E00E942534892B59F1CE01845F9340C2
:102D20009C0145E0369527954A95E1F741E050E052
:102D3000BA0102C0660F771F2A95E2F79B016091E6
:102D4000F2037091F303262B372B059665E09695D9
:102D500087956A95E1F7FA0102C0EE0FFF1F8A9589
:102D6000E2F7CF01822B932B9093F3038093F2032E
:102D70009E012E5E33404091EB03642F70E0C90149
:102D80000E94F632481B463010F4240F311D2115E5
:102D9000F2E03F0710F030E020E02C503C4F309341
:102DA000F5052093F40595CFF6E06F9FB00111244F
:102DB0006D5D774E46E050E00E944133A1CFCF9346
:102DC000382FE091F405F091F505E45FF340209190
:102DD000EB03622F70E0CF010E94F632281B822F96
:102DE000332361F066E00E949C33C82FC15010F479
:102DF000CF91089580E20E945E16F8CF9F01280FC0
:102E0000311D2115324018F080E0F0E0E0E08E0F37
:102E10009F2F911D8C509C4F9093F5058093F40546
:102E2000E7CF80917A0390917903892B9091580292
:102E3000992351F0892BE6E2F2E027E090E021505F
:102E400029F59111109258028093240248E050E035
:102E500069E572E084E292E00E942534892BA9F0B2
:102E600088E0E4E2F2E0A9E5B2E001900D928A95F3
:102E7000E1F7E0918103F0918203309731F0028015
:102E8000F381E02D84E292E0099508953191332396
:102E9000B1F29F5FD4CF10927A03E6E2F2E086E0CF
:102EA000DF011D928A95E9F790E080E00E945711BA
:102EB00090E080E00E943211109279030E94111775
:102EC00008950E944B172FEF84E39CE0215080402F
:102ED0009040E1F700C0000088E19AE00FB6F89456
:102EE000A895809360000FBE90936000FFCFCF93B2
:102EF000DF93EC014A855B856E857F850E948D118D
:102F00008B810E94F6138C810E94FE130E94111780
:102F100086E0FE0111928A95E9F7DF91CF9108953D
:102F2000CF93DF93EC018D8181FD17C082608D838B
:102F3000809179039B81892B8093790380917A0317
:102F40009C81892B80937A030E94111748855985AB
:102F50006E857F85CE010E948D1110927C031092A8
:102F60007B038D8180FD03C0CE010E947717DF9126
:102F7000CF910895882321F00E94F6130E94111723
:102F80000895882339F090917903892B80937903F0
:102F90000E9411170895882321F00E94FE130E94B9
:102FA00011170895882339F090917A03892B809323
:102FB0007A030E9411170895882381F19CEF980FDE
:102FC000913A70F4E4E2F2E09281891301C0128236
:102FD000319692E0EA32F907B9F70E941117089585
:102FE00090E2980F983050F4877091E001C0990FEB
:102FF0008A95EAF7892F0E94FE13EFCF9BE5980F81
:10300000933028F490E080E00E9457110895885A88
:103010008B3120F490E080E00E9432110895CF932C
:10302000DF93FC0182818130A9F4FB01C081D18151
:103030008C2F0E94DC17CE01805E9109089728F042
:10304000CE010E946715209741F4CE010E946715BA
:103050000E94CB17DF91CF9108950E94BA17FACF43
:10306000CF938823C1F0C82F8CEF8C0F813A10F5D5
:10307000A6E2B2E0E4E2F2E08CE292E02D91C21727
:1030800061F08A179B07D1F76C2F84E292E00E94CF
:1030900018110E941117CF9108958AE292E02281BF
:1030A000C21301C0128231968E179F07C1F70E948A
:1030B0001117EACF80E28C0F883068F4C77021E0E6
:1030C00030E001C0220FCA95EAF780917A03822B83
:1030D00080937A03DECFEBE5EC0FE33040F4F0E0D1
:1030E000EC52FE4F808190E00E945711D4CFC85A15
:1030F000CB3188F6EC2FF0E0EE0FFF1FE952FE4FC8
:10310000808191810E943211C6CFCF93DF93DB0182
:10311000FC0182818130C1F4CD91DC91CE010E940D
:1031200067159E01205E31092830310510F0209787
:1031300041F40E94D2178C2F0E943018DF91CF915A
:1031400008950E94C117F7CF8230C1F71396ED9111
:10315000FC91149712968C910995F0CF1F93CF9301
:10316000DF93182FEB010E943018209739F4812F3C
:103170000E94DC17DF91CF911F9108958FE99FE0A6
:103180000197F1F700C000002197EFCFA2E0B0E077
:10319000ECECF8E10C9412339A8389838AE0A82E30
:1031A000CE0101960E9493118823E1F1813009F04C
:1031B00053C0CE0101960E949311813069F4CE0173
:1031C00001960E94931160E570E0893311F070E080
:1031D00060E00E94AE18E4CF823039F4CE0101964F
:1031E0000E9493110E943018DBCF833039F4CE0156
:1031F00001960E9493110E94DC17D2CF843081F493
:10320000CE0101960E94931110E000E0482F405338
:10321000550B9A014A30510548F00115110599F4F2
:103220008111BECF2296EAE00C942E33A09EC001FD
:10323000A19E900D11248901080F191FCE0101963E
:103240000E949311E3CFEFE9FFE03197F1F700C05F
:10325000000001501109E1CFE82FF0E0ED56F24EE9
:10326000B490282F26952695269530E0F901ED5744
:10327000F24EE4908770F12C082E02C0F594E7948A
:103280000A94E2F7F1E0EF22FF24F901ED58F24E43
:10329000C490D12C082E02C0D594C7940A94E2F7AA
:1032A00041E0C422DD24F901ED59F24E049110E011
:1032B00002C0159507958A95E2F701701127E11470
:1032C000F10419F081EE0E943018C114D10419F0F4
:1032D00086EE0E94301870E060E08B2D0E94AE18E0
:1032E000C114D10419F086EE0E94DC17E114F10438
:1032F00019F081EE0E94DC170115110509F450CF79
:1033000070E060E08CE265CF0F931F93CF93DF9363
:10331000EC01FC0101900020E9F78F010150110937
:10332000C017D10728F0DF91CF911F910F91089519
:1033300089910E945E16F4CFAB0124E630E0BC0117
:1033400088E70E94A93021E0892B09F020E0822F34
:1033500008958091740390917503911103C091E0D9
:1033600089270895882369F062E070E088E397E197
:103370000E949C19811103C08091740308951092DA
:10338000740380917403EBCFCF93C0917403809149
:1033900075038823D1F00E940911605A75418F4F3F
:1033A0009F4F6093700370937103809372039093A7
:1033B0007303C11108C062E070E086E397E10E94E8
:1033C0009C19811105C0C09174038C2FCF91089571
:1033D00081E080937403F7CF9091490392FB2227F9
:1033E00020F9281779F080FB92F9909349036091B6
:1033F00048037091490384E090E00E94863382E0A4
:103400000E94D1140895CF92DF92EF92FF921F9302
:10341000CF93DF9300D000D0CDB7DEB7C09080024D
:10342000D0908102E0908202F09083020E94091104
:103430006C197D098E099F0911E0643671058105BB
:10344000910570F10E94B5116E5F7F4F8F4F9F4FB6
:1034500069837A838B839C838091160190911701F5
:103460008A589D4F4091150150E04530510510F0AC
:1034700044E050E0BE016F5F7F4F0E94323482E033
:1034800090E00E947F32182F882351F00E9409118A
:1034900060938002709381028093820290938302F2
:1034A000812F0F900F900F900F90DF91CF911F9170
:1034B000FF90EF90DF90CF9008958F929F92AF9200
:1034C000BF92EF92FF921F93CF93DF9300D000D073
:1034D00000D0CDB7DEB77B0190E080E00E947F3264
:1034E000182F882309F464C04091080150E0411569
:1034F000510511F041E050E06091090170910A011D
:103500006A587D4FCE0106960E9432348090720236
:1035100090907302A0907402B09075020E940911FD
:10352000681979098A099B09643671058105910535
:1035300038F487E792E00E94970F9E818917C1F1C6
:1035400081E090E00E947F32182F882391F0409113
:10355000100150E04630510510F045E050E0609118
:103560001101709112016A587D4FCE0101960E949F
:10357000323487E792E00E94970F91E02E81281362
:1035800090E0192301F10E94091160937202709377
:103590007302809374029093750285E0FE01319668
:1035A000ADE6B2E001900D928A95E1F711E00BC013
:1035B00085E0E7E7F2E0DE01119601900D928A9531
:1035C000E1F71111EACF85E0EDE6F2E0D7010190D5
:1035D0000D928A95E1F7812F26960FB6F894DEBFFB
:1035E0000FBECDBFDF91CF911F91FF90EF90BF90A5
:1035F000AF909F908F90089578941F920F920FB67E
:103600000F9211248F939F93AF93BF9380918E035A
:1036100090918F03A0919003B09191030196A11D09
:10362000B11D80938E0390938F03A0939003B0936A
:103630009103BF91AF919F918F910F900FBE0F900B
:103640001F9018952FB7F89480918E0390918F0357
:10365000A0919003B09191032FBF089530918C03F6
:1036600020918803321720F42091880320938C0343
:1036700060938503709386038093870390938803F8
:103680000E94221B90939F0380939E0381E080936E
:103690009D030895AAE2B0E0E0E5FBE10C94163347
:1036A000E9EAF3E08091F100819323E0E13BF20746
:1036B000C9F78091AA03833009F487C008F58130E7
:1036C00009F45EC0823009F4E0C08091E80083FF15
:1036D0001AC18091A9039091AA039A3008F013C1EE
:1036E000E92FF0E0EA58F44E0C94FD33561C7C1C94
:1036F000831C7C1C831CD41CF61C831C7F1E8C1E0C
:103700008A3009F4A7C08B3009F47CC08930E9F60F
:103710008091A9038132C9F68091AD039091AE03E7
:10372000029798F68091E800877F8093E800809167
:10373000E80082FF45C08091F3009091F200892754
:1037400098278927029731F48091F100813011F098
:10375000863071F48091F10080934E0160914D01AB
:1037600070914E0180914F01909150010E942E1B4B
:103770008091E8008B778093E8000E94FC0FA5CF32
:103780008091A903813A09F0A0CF8091E800877F5A
:103790008093E8008091AD039091AE03892B61F096
:1037A00060E090E080E070E00E94A8108091E80066
:1037B0008B778093E80089CF68E083E993E0F3CFCB
:1037C0008091A7038111B3CF80CF8091A903813A63
:1037D00009F07BCF8091AD039091AE03892B09F066
:1037E00074CF8091E800877F8093E8008091E800A3
:1037F00080FFFCCF80914F018093F1008091E80021
:103800008E77B9CF8091A903813209F05ECF809184
:10381000AD039091AE03892B09F057CF8091E8005A
:10382000877F8093E8000E94FC0F81E09091AB03BA
:10383000911101C080E080934F0160914D01709122
:103840004E0180914F01909150010E942E1B0E94C9
:103850004B173BCF8091A903813209F036CF80917D
:10386000E800877F8093E8000E94FC0F8091AC0302
:1038700080934D0160914D0170914E0180914F01F7
:10388000909150010E942E1B20CF8091A903813A74
:1038900009F01BCF8091E800877F8093E80080913A
:1038A000E80080FFFCCF80914D01A6CF803889F0E1
:1038B000823849F58091AD038F70873020F5809371
:1038C000E9008091EB0085FB882780F91092E900E0
:1038D00006C080919B0390919C039111826090910E
:1038E000E800977F9093E8008093F1001092F10038
:1038F0008091E8008E7727C0282F2D7F21F4882320
:10390000A1F0823029F18091E80083FF0AC0809104
:10391000E800877F8093E8008091EB0080628093CD
:10392000EB00AA96E6E00C9432338091AB03813031
:1039300051F7933009F080E080939C031092E900E6
:103940008091E800877F8093E8000E94FC0FDBCF26
:103950008091AB038111F2CF8091AD038F702FEF77
:10396000280F263080F68093E9002091EB0020FF9D
:10397000E5CF933031F48091EB0080628093EB00CF
:10398000DDCF9091EB0090619093EB0021E030E06F
:1039900001C0220F8A95EAF72093EA001092EA000C
:1039A0008091EB008860EACF8111ADCF1091AB031D
:1039B0001F778091E3008078812B8093E3008091D2
:1039C000E800877F8093E8000E94FC0F8091E80068
:1039D00080FFFCCF8091E30080688093E30083E068
:1039E000111101C082E08093A7038DCF80588230EF
:1039F00008F089CF8091AB039091AC038C3D43E0FC
:103A00009407A1F583E08A838AE289834FB7F8940B
:103A1000DE01139620E03EE051E2E32FF0E0509308
:103A20005700E49120FF03C0E295EF703F5FEF7015
:103A30008E2F90E0EA30C0F0C7968D939D932F5F54
:103A4000243159F74FBF8091E800877F8093E800C9
:103A50006AE270E0CE0101960E94A8108091E80011
:103A60008B778093E8004FCFC096E7CF4091AD03AE
:103A70005091AE03292F33272330310509F448C074
:103A800080F52130310509F4EFC02230310509F00D
:103A90003ACF0BE310E0E0EBEE2EE7E1FE2E809153
:103AA000E800877F8093E8008091AF039091B00396
:103AB0000817190708F4C80140E0009709F0E9C0A9
:103AC0004111E7C08091E80082FDC8CF8091A70333
:103AD000882321F2853011F28091E80083FFF2CF34
:103AE000BDCF2132310509F4B1C02232310509F0D0
:103AF0000ACF4115510509F4C5C04130510509F0FF
:103B000002CF02E310E03AE3E32E37E1F32EC7CF12
:103B100099278130910509F45AC040F0029709F4C1
:103B200060C010E000E0F12CE12C09C0EFE1F8E109
:103B3000E4910E2F10E07FE1E72E78E1F72E20913F
:103B4000AF033091B0038091A1038F5F8093A103F5
:103B50003093A6032093A5032230310509F04BC012
:103B60009091A2039F5F9093A203833010F19091F4
:103B7000A403923038F04091A303411163C0891728
:103B800009F45EC04091A203853008F447C02F3F7E
:103B9000310509F04BC0992309F44AC083E0423053
:103BA00008F051C0411105C08091A303882309F496
:103BB00047C00E94221B90939F0380939E0381E045
:103BC00080939D030115110509F49DCE68CFEDE0AA
:103BD000F8E1E4910E2F10E06DE0E62E68E1F62E9C
:103BE000AECFEDEFF7E1E4910E2F10E05DEFE52EA3
:103BF00057E1F52EA4CF2430310531F49091A30381
:103C00009F5F9093A303B1CF2F3F310509F0ADCF54
:103C10009091A4039F5F9093A403A7CF843031F4C5
:103C20009111C0CF423021F484E00DC09111BACF80
:103C3000433009F0BECF8091A303813009F0B9CFA2
:103C400081E001C082E08093A003B3CF411551050C
:103C500091F04130510509F056CE09E010E04BEDEE
:103C6000E42E47E1F42E1BCF02E110E02BEEE22E12
:103C700027E1F22E14CF09E010E092ECE92E97E153
:103C8000F92E0DCF04E410E08CE6E82E87E1F82E43
:103C900006CF2091A703222309F4E0CE253009F4B2
:103CA000DDCE2091E80023FDD9CE2091E80022FD51
:103CB00009CF2091E80020FF00CF2091F300309140
:103CC000F200232732272327009719F028303105E7
:103CD00058F041E02830310509F040E02091E8003B
:103CE0002E772093E800E9CEF70144914093F1004C
:103CF000FFEFEF1AFF0A01972F5F3F4FE5CF8038A4
:103D000009F001CE8091E800877F8093E8008091E0
:103D1000A8038093F100ECCD8111F5CD1091AB0398
:103D2000123008F0F0CD8091E800877F8093E800A2
:103D30001093A8030E94FC0F1123F9F084E08093F4
:103D4000A70342E061EC81E00E941B1042E261ECBB
:103D500082E00E941B108091A7038430A1F482E0CE
:103D60008093500160914D0170914E0180914F01FF
:103D7000909150010E942E1BC6CD8091E30087FDDB
:103D8000DDCF81E0DCCF81E0EBCF1F920F920FB649
:103D90000F9211242F933F934F935F936F937F93D1
:103DA0008F939F93AF93BF93CF93EF93FF93C09164
:103DB000E900CF708091EC001092E9008091F00052
:103DC000877F8093F00078940E944A1B1092E9004C
:103DD0008091F00088608093F000C093E900FF912B
:103DE000EF91CF91BF91AF919F918F917F916F9103
:103DF0005F914F913F912F910F900FBE0F901F90A9
:103E000018951F920F920FB60F9211242F933F9384
:103E10004F935F936F937F938F939F93AF93BF93D2
:103E2000CF93EF93FF938091E10082FF09C08091CF
:103E3000E20082FF05C08091E1008B7F8093E1006A
:103E40008091DA0080FF24C08091D80080FF20C0DC
:103E50008091DA008E7F8093DA008091D90080FF14
:103E6000D2C080E189BD82E189BD09B400FEFDCFE9
:103E700081E08093A70380919203811109C00E9481
:103E8000AE0F0E944D108091E20084608093E200AA
:103E90008091E10080FF24C08091E20080FF20C07B
:103EA0008091E2008E7F8093E2008091E200806149
:103EB0008093E2008091D80080628093D80019BC82
:103EC00085E08093A70383E08093500160914D01CA
:103ED00070914E0180914F01909150010E942E1BD4
:103EE0008091E10084FF39C08091E20084FF35C0F9
:103EF00080E189BD82E189BD09B400FEFDCF8091DA
:103F0000D8008F7D8093D8008091E1008F7E8093D0
:103F1000E1008091E2008F7E8093E2008091E200D8
:103F200081608093E2008091A803882309F471C026
:103F300084E08093A7038091A703843009F471C0C3
:103F400081E08093500160914D0170914E0180910C
:103F50004F01909150010E942E1B8091E10083FF40
:103F600040C08091E20083FF3CC08091E100877FE8
:103F70008093E10082E08093A7031092A8038091D0
:103F8000E1008E7F8093E1008091E2008E7F80933C
:103F9000E2008091E20080618093E20042E060E014
:103FA00080E00E941B108091F00088608093F000F8
:103FB000C1E0C093500160914D0170914E0180911C
:103FC0004F01909150010E942E1BC0934F016091B0
:103FD0004D0170914E0180914F01909150010E94CE
:103FE0002E1BFF91EF91CF91BF91AF919F918F9138
:103FF0007F916F915F914F913F912F910F900FBEE5
:104000000F901F90189519BC1092A703109292035D
:104010003FCF8091E30087FD02C081E08ACF83E03B
:1040200088CF82E08ECFEF92FF920F931F93CF93B2
:10403000DF93C42FD22FFC0185818823A9F0409300
:1040400078030E94221B9093770380937603C770B6
:1040500081E001C0880FCA95EAF70E94D217CDB758
:10406000DEB7E6E00C94323310917803141337C0B6
:10407000E0907603F09077030E94221B8E199F092F
:10408000883C910560F5C0E2CD0F1D17C1F080E2BC
:10409000810F883048F4177081E0012E01C0880F2D
:1040A0000A94EAF70E94CB17C83000F581E09D2FF3
:1040B000977001C0880F9A95EAF70E94D21770E0B6
:1040C00060E0802F0E94AE18C83048F6D77081E0BB
:1040D00001C0880FDA95EAF70E94CB17C0CFC770EE
:1040E00081E001C0880FCA95EAF7F6CF70E060E082
:1040F000802F0E94AE18B3CFAFE0B0E0E2E8F0E26C
:104100000C940D338E010F5F1F4F8AE0F80111925E
:104110008A95E9F78FE0E82E82E0F82E680194E1B5
:10412000692E92E0792EAA24A394B12C3AE1832E31
:1041300032E0932EF70181917F018F3F09F440C057
:10414000F894E82FE295EF70F0E021A18F70A501BF
:1041500002C0440F551F8A95E2F7CA01922F982B8F
:1041600091A392A18095892382A3789400C0E4E171
:10417000F2E0512C31E021912F3F09F489C0A22FA8
:10418000A295AF70B0E090968C9190E02F7002C035
:10419000959587952A95E2F780FD7AC0832F582A56
:1041A000330F8E169F0639F7F701319780818F3FC5
:1041B00011F00E949E1150EA5A95F1F7F6015082D3
:1041C000FFEFCF1ADF0A6E147F0409F0B3CF4AE085
:1041D00050E0B80189E892E00E942534009741F050
:1041E0002AE0F801A9E8B2E001900D922A95E1F7E2
:1041F0000091940210E009561D4F892B09F44AC022
:1042000081E0809365020E94221B90936402809358
:104210006302F12CE0907D03EE2009F498C06E015A
:104220002BE0C20ED11C85E0F60111928A95E9F7C8
:10423000809184028A3008F053C04DE55AE1B601FE
:10424000C8010E942B16882309F46EC043E05AE18E
:10425000B601C8010E942B16882309F465C010928C
:1042600084028091930290E045E050E0B6018956C7
:104270009D4F0E94253421E020936C02892B09F088
:1042800046C0E12C8E2D8F292F96EFE00C94293318
:1042900080E085CFF0906502FF2009F4BACFC0908E
:1042A0006302D09064020E94221B8C199D0905971D
:1042B00008F4AFCF45E050E069E872E0C8010E9421
:1042C0002534892B59F085E0E9E8F2E0D801019026
:1042D0000D928A95E1F7109265029CCFF12CFBCFED
:1042E000A0906602B09067020E94221B8A199B0967
:1042F000843F914008F0A1CF80916C02882309F29D
:1043000085E0F60111928A95E9F710926C02A0916E
:104310009302B0E0A956BD4F85E0FE013B960190A7
:104320000D928A95E1F7AECF809184028F3F19F00C
:104330008F5F80938402809184028A3008F491CF49
:104340000E94221B9093670280936602D5CF85E07E
:10435000F801A7E7B2E001900D928A95E1F787E7AF
:1043600092E00E94970F8093760280907C0290905A
:104370007D02A0907E02B0907F02809168029091B1
:104380006902A0916A02B0916B0288169906AA068A
:10439000BB0609F477CF8092680290926902A092DE
:1043A0006A02B0926B020E940911861A970AA80A43
:1043B000B90A8092850290928602A0928702B092FA
:1043C000880260CFB0E0A0E0E8EEF1E20C94133395
:1043D000FC012481222309F45BC17C0161E00E947D
:1043E0003C15EC01F70185818823F1F080917B0376
:1043F00090917C030097C1F0C817D907A9F0E8E2B3
:10440000F1E0882311F0F0E0E0E0858184608583AD
:10441000D183C083CF010E9490171092790361E08D
:10442000C7010E943C15EC01F7012581222309F404
:1044300083C0CE019A9581159F4408F074C0CE01C7
:104440009927AC01445051094432510518F08B971B
:104450000E9780F4E091B402F0E0EE0FFF1FE754F6
:10446000FD4F808191818F3F3FE7930719F00196BF
:1044700091838083C1343EE7D30709F4F6C4C23484
:104480008EE7D80709F4ADC0C0349EE7D90709F01C
:1044900061C08091490380FF9EC084EB94E10E943B
:1044A000C618F7018581882309F4D3C410927803D4
:1044B0009E0130572332310508F0B3C484E090E008
:1044C0000E9452339093490380934803FE01E150C8
:1044D000F047E232F10508F004C1EF58FD4D0C94AD
:1044E000FD33AB232024B3237D238123B7238523EE
:1044F000BB23C723912319249523CB239923CF23AF
:10450000F7239D23D323FE23A323D923E123892348
:10451000BF238D23C323A723DD23ED2307241724E3
:104520007723AF232724CE01CF3FD10509F008F42C
:1045300088CF90E080E085CFC0348EE7D80750F078
:10454000C2349EE7D90708F4ACCFC234EEE7DE07E9
:1045500009F4A7CFCE0197558F3F910511F008F0D0
:104560006EC0C11186C080912D0120FB80F980931F
:104570002D01F7018581882309F440C00E94221B88
:104580009093AD028093AC0280912A018F5F80935B
:104590002A018091790390917A03892B80932B01D2
:1045A0008091580280932C0140912E0150912F014F
:1045B000609136017091370188E291E00E948D117F
:1045C00080912D0181FD17C09C2F8D2F90937B032F
:1045D00080937C0366CF8CEA94E161CF84EA94E116
:1045E0005ECF8091490380FF03C084E994E157CFF7
:1045F0008CE894E154CF90E080E0E8CF4091340122
:1046000050913501609136017091370188E291E057
:104610000E948D1180912D0181FF43CF88E291E0AE
:104620000E94771780917B0390917C03C817D9076C
:1046300009F037CF10927C0310927B0332CFFE013A
:10464000E851FC47E730F10508F02BCFE65DFC4D63
:104650000C94FD335323592331234D235F236523CA
:104660006B2306E221EE41EE6AE17CE7C7010E947E
:10467000132080915702877059F0F70185818823B4
:1046800039F08091490382FF03C082E00E94D11477
:10469000CDB7DEB7E9E00C942F3307E225EE45EE07
:1046A0006BE17CE7E3CF06E221EE40EE68E17CE7D8
:1046B000DDCF07E225EE44EE69E17CE7D7CF06E2E5
:1046C00021EE42EE6CE17CE7D1CF07E225EE46EE2B
:1046D0006DE17CE7CBCF08E221E045EE6EE17CE7BF
:1046E000C5CF8091480381608093480395C0809135
:1046F00049038860809349038FC08091480382609A
:10470000F3CF809148038460EFCF809148038860A5
:10471000EBCF809149038160EDCF809149038260A6
:10472000E9CF809148038061DFCF809148038062A8
:10473000DBCF809148038064D7CF0E944B178091D4
:1047400048038068D1CF809148038860DCCF809196
:1047500049038260E0CF809148038E7FC5CF80916E
:104760004903877FC7CF809148038D7FBDCF80915C
:1047700048038B7FB9CF80914803877FB5CF809165
:1047800049038E7FB7CF809149038D7FB3CF80914E
:1047900048038F7EA9CF809148038F7DA5CF80915C
:1047A00048038F7BA1CF0E944B17809148038F77DE
:1047B0009BCF80914803877FDCCF809149038D7F19
:1047C000E0CF8091480382FB992790F921E092275E
:1047D00090FB82F990FB83F987CF80914903982F52
:1047E000909591708E7F892B90FB81F983CF90916A
:1047F0004803892F8F7B96FF806476CF0E944B17EA
:1048000090914803892F97FB87F980586DCF61E01D
:104810008EE090E00E9468336091480370914903F4
:1048200084E090E00E9486330E944B1722CF60E024
:10483000EFCF90914803892F8F7E94FF806154CFF2
:1048400090914803892F8E7F90FF81604DCF90918A
:104850004903892F877F93FF88604CCF89E2E4E288
:10486000F2E09281891301C01282319622E0EA328D
:10487000F207B9F7EBC29E01205E324520323105C6
:10488000A8F4811125C0CF7181E090E0FC0102C045
:10489000EE0FFF1FCA95E2F7EF016E2F83E090E065
:1048A0000E946833CE010E941515E3CE882381F063
:1048B000C330FCE7DF0709F490C008F064C0C115FD
:1048C0003CE7D30709F46DC0C130DC4709F48BC065
:1048D000F7018581C081D181882309F492C0CE017E
:1048E0000E941014182F682FCE010E948414BE015C
:1048F000812F0E94C2120E94E012D82FC92FB82E19
:10490000F701D580C680C2948FE0C82280915702FB
:10491000877001F10D2DDD20F1F0892F807F80342B
:1049200069F080E28D0F8830A8F0892F807E803278
:1049300029F4F1E0FD1770F4CC2061F08091490377
:1049400082FF08C082E00E94D114809157028770D4
:1049500001E009F000E01C2F12951F701C3008F0D8
:1049600024C1E12FF0E0E954FB4D0C94FD33062502
:10497000062550255025CE25D525D525D525EE252E
:104980007B268C268C26CB359CE7D907C1F1CC350C
:10499000ECE7DE0751F1CA35DC4709F099CF81E039
:1049A0002BC00E944B172FEF34E38CE02150304096
:1049B0008040E1F700C0000087E797E79093010887
:1049C0008093000888E19AE00FB6F894A895809348
:1049D00060000FBE90936000FFCF6FEF7FEF90E01D
:1049E00080E00E9486330E9461178091490382FB18
:1049F000882780F991E089270E94EC1969CF80E02F
:104A0000FBCFCE010E945114182F71CF1C2F1F70A5
:104A1000C07F11F01295107F8D2FDD20B9F011238A
:104A200069F090E29D0F983010F0D11109C080918B
:104A30007A03182B10937A030E9411178D2F53C0FD
:104A400080917903182B10937903F6CF0E94DC171D
:104A5000112369F0D05E812FD83010F0B11003C05F
:104A60000E94FE1302C00E94F6130E941117002339
:104A700009F4EAC08091570280FDE6C0F701158273
:104A80008695869586950E94E814C7010E94E221CA
:104A9000809157028695869586950E94BF14D4C052
:104AA0001C2F1F70C07FC03211F01295107FBB20E9
:104AB00051F021E0B21609F451C0DD2009F45DC0C7
:104AC000CC2001F1BBCF8091490382FD17C0DD20CE
:104AD00069F0112339F080917A03182B10937A032F
:104AE0000E94111780E00E943018C1CF80E00E9420
:104AF000DC17112309F4BBCF812FB2CFDD20A1F049
:104B0000C11004C0812F0E94D217B1CF31E0C3126F
:104B1000AECF80915802912F9823191709F4A7CF8F
:104B2000182B10935802A3CFC110A1CF812F0E9440
:104B3000CB1790915802812F892329F0812F8095DE
:104B400089238093580280912F02912F982309F492
:104B50008ECF1095182310932F0289CFDD2029F0D6
:104B600085E08C1508F483CFCDCF94E09C1508F434
:104B70007ECF812F0E94CB177ACFCC20D1F3D933AF
:104B800049F4EFEFF7EE23E0E150F0402040E1F789
:104B900000C000008D2F0E94DC1769CF8C2F8695F6
:104BA0008695837039F0813079F01850143008F010
:104BB0005ECF48C08D2F9C2F9370D11002C080E033
:104BC00090E00E94571153CF8D2F9C2F9370D110DE
:104BD00002C080E090E00E94321149CF8C2F837098
:104BE00009F045C0D1102EC04D2F42954695477013
:104BF000440F440F2D2F2F7030E0042E02C0220FDF
:104C0000331F0A94E2F790E080E0D4FF09C08FE000
:104C100090E002C0880F991F4A95E2F78095909521
:104C2000C695C695C370C230C9F0A8F440919502EC
:104C300050919602C13069F0822B932B84239523E7
:104C40000E9415150E947C1160E0C7010E943C156E
:104C50001FCD242B352B822B932BF2CF822B932B22
:104C6000209195023091960282279327E9CF86956D
:104C7000DD2011F08C2F8170882321F34D2F429578
:104C800046954770440F440F2D2F2F7030E0042EAF
:104C900002C0220F331F0A94E2F790E080E0D4FFB5
:104CA00009C08FE090E002C0880F991F4A95E2F793
:104CB00080959095C695C695C370C23099F078F4EA
:104CC0004091030350910403C13039F0822B932BA0
:104CD000842395230E94BA14B5CF242B352B822B25
:104CE000932BF8CF822B932B209103033091040355
:104CF00082279327EFCFCF70DD2039F08C2F0E94D1
:104D0000E8148D2F0E94D2179DCF8D2F0E94CB17B4
:104D10008C2F0E94BF1496CF8D2F32EFB31609F45B
:104D20003FC03B1580F090EFB916F1F0E1EFBE16F1
:104D3000A1F0DD2009F461C0CC2009F45BC08D2F07
:104D40000E94301832CFF3EFBF1689F124EFB21270
:104D5000F0CF9091490392FD34C08C2F8F71DD20EC
:104D600019F10E94E81421CFDD20A9F034E03C15B0
:104D700008F41BCFCF7181E090E002C0880F991F2B
:104D8000CA95E2F720910303309104038227932709
:104D90000E94BA140ACF85E08C1508F406CFEACF3A
:104DA0008C2F8F71DD20E9F20E94BF14FECEDD2032
:104DB00029F08C2F8F710E94F814F7CE90E080E0DC
:104DC000E7CFDD2061F08C2F8F7192FFCACF98E082
:104DD000899F90011124236020935702C2CF81E064
:104DE0000E94D114E1E0EC1508F0DFCE82E00E94D1
:104DF000D114DBCE8C2F8F71B4CFCC2079F08933D6
:104E000049F4FFEF27EE33E0F15020403040E1F766
:104E100000C000008D2F0E94DC17C7CE8C2F8F7131
:104E2000C3CFC631FCE7DF0709F025CD80917A03B7
:104E30008A7A91E009F490E090932E0265E3811163
:104E400001C069E284E292E00E9418110E941117E9
:104E500010CCC6312CE7D20709F00DCD80912E027F
:104E6000882309F4FBCC85E3FACC8091490380FDCB
:104E7000B5CB8CE994E113CBB0E0A0E0E2E4F7E23B
:104E80000C94153380915602807F09F050C08091B8
:104E90005502882309F44BC0E091EA0387E0D82E3D
:104EA0008091B1038E1709F442C00E2F10E0ED9DE2
:104EB000F0011124EE54FC4F84818823E9F1D09E47
:104EC000E001D19ED00D1124FE01EE54FC4F9181E2
:104ED00080915102981330C09081809150029813B4
:104EE0002BC08581811128C0E280F380809152021D
:104EF00090915302E81AF90A60E080E592E00E947E
:104F00003C1588ECE816F104B8F4809156028F70D5
:104F1000806180935602C854DC4F88818F70806115
:104F2000888380E592E00E94E2210E940614CDB7BA
:104F3000DEB7E7E00C943133F8013196E770B0CF7B
:104F4000A4E1B0E0E6EAF7E20C940D338C0186E0D0
:104F5000F801DE011F9601900D928A95E1F7F801A4
:104F6000F480E58080E5882E82E0982E80915402BE
:104F700081112AC0F11003C0FF24F3941CC0EE205D
:104F8000F9F0C8010E941A15F82E8823C9F087E0AD
:104F9000F801A0E5B2E001900D928A95E1F78091C9
:104FA0005402813031F480915002909151020E945C
:104FB00044140E943C278F2D6496EFE00C94293313
:104FC000C8010E94E221D8CFC280D380B0905502A0
:104FD00080915202909153023601681A790ABB20DF
:104FE00009F4F7C05080A18060E080E592E00E9463
:104FF0003C15F8EC6F16710408F0A4C0FF2009F40A
:10500000BBCF80915602382F307F20915102F8019A
:105010009181311157C0FE2C291314C020915002E8
:10502000908129130FC0E11046C08F70806180937A
:10503000560280E592E00E94E22180915602F8013A
:105040008683B9CFE11037C06A2D852D0E94780F75
:105050006A2D852D0E94780FE82E8111ACCF5F86D6
:10506000A88A8F8598890E944414292F22952F7031
:10507000243058F49F70223080F0992391F0F80189
:105080009681907F71F4FE2C96CF2A50223068F0E2
:10509000C8010E94E221EB2CF6CF992311F088235E
:1050A00091F3805E8830A0F7EECF803F60F3815FA0
:1050B000833070F7E8CF809156028160809356026A
:1050C000F12C79CF291315C020915002908129131A
:1050D00010C0E1100EC08683C8010E94E22187E063
:1050E000F801A0E5B2E001900D928A95E1F7FB2C62
:1050F00062CFC8010E941A15882309F461CFEE20FF
:1051000009F45ECF80915602803288F020915002DF
:105110003091510239872887DB86CA8690915402E4
:105120009C871D868E87CE0108960E94E22187E02B
:10513000F801A0E5B2E001900D928A95E1F70E9496
:105140003C271ACF80915602982F907F51F480E52A
:1051500092E00E94E22187E0F40111928A95E9F73A
:10516000AFCFFF2009F408CF20915102F8019181BF
:10517000291311C020915002908129130CC0E11015
:105180000AC08683C8010E94E22187E0F4011192DF
:105190008A95E9F7ACCFC8010E941A15882309F453
:1051A0000FCFEE2009F40CCF80915602803208F424
:1051B000BECF20915002309151023A832983DC8284
:1051C000CB82909154029D831E828F83CE010196E3
:1051D000ACCF60E080E592E00E943C15F8EC6F16E1
:1051E000710408F0B8CFFF2009F4C6CEFE2CEE20E3
:1051F00009F4E6CE90915102F801818198132DC0F7
:10520000909150028081981328C080915202909111
:105210005302C81AD90AF8ECCF16D104A8F4909119
:10522000560290FD11C0907F79F080915602F801EE
:105230008683903F31F0982F907F905F8F70892BFD
:105240008683C8010E94E22187E0F801A0E5B2E070
:1052500001900D928A95E1F7AECEC8010E941A1511
:10526000811165CF80915602816080935602C801FA
:105270000E94E221A0CEABE1B0E0E1E4F9E20C94BF
:1052800019334E8B5F8B688F798F8A8F9B8F91112B
:10529000109279031D8A86E0FE017696DE011F9644
:1052A00001900D928A95E1F78B89882351F061E096
:1052B000CE010F960E943C1561E0CE010F960E9430
:1052C0003C1587E0FE013F96DE01189601900D9295
:1052D0008A95E1F7CE0108960E94A02781112AC085
:1052E00087E0FE013896DE01119601900D928A95B5
:1052F000E1F78C858823F1F02091B10330E0C901FA
:105300000196877099274091EA034817190659F1C9
:1053100097E0929FD001939FB00D1124AE54BC4FE3
:10532000FE01319601900D929A95E1F78093B103B9
:105330000E94061417E08091EA039091B103891747
:10534000F9F0819FC00111248E549C4F0E94A02728
:105350008823B1F08091EA0390E001968770992745
:105360008093EA03E8CF0E944B171092B10310928A
:10537000EA0387E0E0E5F2E0DF011D928A95E9F7B4
:105380006B96E3E00C943533A6E0B0E0EAECF9E28A
:105390000C9418330E94221B8C0180916102909121
:1053A00062028017910781F019821A820E94221BE3
:1053B000682F49815A81792F80E090E00E943B2933
:1053C00010936202009361022696E4E00C94343359
:1053D0001F920F920FB60F9211248F939F93AF934A
:1053E000BF9380918D03811113C080918E039091A2
:1053F0008F03A0919003B09191034196A11DB11D1F
:1054000080938E0390938F03A0939003B0939103A6
:10541000BF91AF919F918F910F900FBE0F901F90F2
:105420001895CF93DF93EC010E94221B8C1B9D0BE0
:10543000DF91CF910895ADE0B0E0E1E2FAE20C94A3
:105440000A3385B7806885BF85B7806885BF84B714
:10545000877F84BF0FB6F894A8958091600088611B
:1054600080936000109260000FBE80E890E00FB65D
:10547000F89480936100909361000FBE81E0809367
:10548000500160914D0170914E0180914F019091BA
:1054900050010E942E1B8CE991E19093230280938E
:1054A00022020E94AE0F0E944D108091E2008460A3
:1054B0008093E20078948091A703882399F010915B
:1054C000E9001F708091EC0080FFA4C180E8182BD8
:1054D0001092E9008091E80083FD0E944A1B1F7032
:1054E0001093E90082E084BD93E095BD9AEF97BDEB
:1054F00080936E00109285021092860210928702AD
:10550000109288028091D80080618093D8002AE1AF
:105510002A95F1F700C08091D900182F117080FDF5
:1055200004C00E94AE0F1092A70310937D03109346
:105530007E0310931D0111110E94933180911D0172
:1055400080911D0190E0811101C095E0909394023B
:1055500085E0891B809393020FE012E0D8018D91C2
:105560008D018F3F11F00E949E11B2E004311B07A4
:10557000A9F704E112E05AE1E52E52E0F52EF80118
:1055800081918F018F3F11F00E949E11E016F1066C
:10559000B1F78AE0E7E9F2E0DF01282F1D922A95B2
:1055A000E9F7E9E8F2E0DF011D928A95E9F790E07A
:1055B00080E00E945233853E9E4F09F461C065EE43
:1055C0007EEF90E080E00E94863360E082E090E031
:1055D0000E94683381E090E0909396028093950258
:1055E00061E083E090E00E94683360E074E184E071
:1055F00090E00E94863360E086E090E00E9468338D
:1056000060E087E090E00E94683340E050E0BA013B
:1056100088E090E00E947A3360E083E290E00E94AC
:10562000683360E08CE090E00E94683360E08DE0D9
:1056300090E00E94683319821A821B821C821D82AC
:105640001E821F82188648E050E067E170E0CE01BC
:1056500001960E94583340E050E0BA018FE190E09B
:105660000E947A3340E050E0BA018FE090E00E945F
:105670007A3340E050E0BA0183E190E00E947A334F
:1056800082E090E00E944A338093A10284E090E09F
:105690000E945233909349038093480383E090E043
:1056A0000E944A3390E00E94151580917D0381117C
:1056B000B3C082E080936A0380E88093EB030E948A
:1056C00031306BE070E08BE297E10E949C198823F7
:1056D000E9F180916A0365E070E081FD9FC086E298
:1056E00097E10E949C19882389F16DE070E084E1C4
:1056F00097E10E949C19882349F10E940911605A80
:1057000075418F4F9F4F6093700370937103809327
:10571000720390937303E4EFF3E080E092E0DF0123
:105720009C011D9221503040E1F7F093F505E09384
:10573000F4058FEF9FEF9093F3038093F20381E0E2
:10574000809375038093740310926B0380917D03A3
:10575000811102C00E9496318EE191E09093820304
:105760008093810344E6842E912CA12CB12C80914E
:10577000A70310E4853009F488C00E947C2002EA67
:1057800012E037E9E32E32E0F32ED701F8019191D0
:105790008D9122E0EC3AF20709F481C09817B9F331
:1057A00040907D03D12CD701CD907D01F80151901F
:1057B0008F015C1431F1712C662463945C24852D77
:1057C0008621B9F04420A9F07982DA820E94221B56
:1057D0009C838B83F1E0FD8391E0862D8C2109F47D
:1057E00090E09E8349815A816B817C818D810E94EA
:1057F0003B297394660C26E07212E1CFF8013197D1
:10580000C082D3943AE0D312CECF0E94B51141E0CA
:1058100049874AC080E05BCE80E04CCF81E297E1CF
:1058200060CF8091A703843029F10E94A9191092BA
:105830008D0348E150E00FB6F894A89540936000BE
:105840000FBE1093600083B7817F846083BF83B7EE
:10585000816083BF7894889583B78E7F83BF0FB6AE
:10586000F894A89580916000886180936000109200
:1058700060000FBE0E947C20E7E9F2E08191811177
:1058800088C352E0E13AF507C9F78091A703853054
:1058900009F4C7CF0E944B170E947C116ECF98135A
:1058A0007FCF0E94C429198680917D03882309F443
:1058B000DAC000917B0310917C0301151105B9F04A
:1058C000C090AC02D090AD020E94221B8C199D09A1
:1058D000893C910560F090E080E0011102C088E20F
:1058E00091E0DC0115962C9122FF0E949017C09048
:1058F000B902D090BA020D2C000CEE08FF081091EE
:105900003801212F30E0E9EBF2E081E090E03296BF
:10591000281739070CF0EDC04090B5025090B60240
:105920006090B7027090B8020E9409119B01AC010F
:10593000241935094609570929013A0139EC43165A
:1059400051046104710414F18091B40290E0019655
:1059500069E170E00E94A8338093B402880F991F18
:10596000FC01E754FD4F11821082812F183108F09D
:1059700087E18F5F809338010E9409116093B5021F
:105980007093B6028093B7029093B80242E0C416B7
:10599000D104E104F1045CF1A0E6BAEEA70196019E
:1059A0000E9403346B017C0158EC159F9001112477
:1059B000032E000C440B550B240D351D461D571DA1
:1059C000A5E0B0E00E9403349B01AC01C701B60121
:1059D0000E94BC33213F31054105510524F020EFE1
:1059E00030E040E050E029013A0177FE03C0412C4D
:1059F000512C3201C090B002D090B102E090B202BE
:105A0000F090B3020E9409119B01AC012C193D09D1
:105A10004E095F0969017A0135E6C316D104E10434
:105A2000F10484F00E9409116093B0027093B102F6
:105A30008093B2029093B30280913D038093AF02B2
:105A40004092AE021091AF02A091AE02A11BBB0B1F
:105A5000A70196010E940E34A50194010E94DE3335
:105A6000120F10933D0380917503882309F438C207
:105A700000916C0310916D030E94221B801B910BFF
:105A8000C29708F4B3C00E94221B90936D038093C9
:105A90006C0384EF93E09093F5058093F405809177
:105AA0007D03882309F4E0C08091030390910403EF
:105AB0008430910509F4C8C040F50097A1F165E66E
:105AC00071E08230910589F19F938F9383EA91E091
:105AD0009F938F931F9288E18F938BEE92E09F9319
