:100000000C949A0E0C94B70E0C94B70E0C94C3304B
:100010000C94B70E0C94B70E0C94B70E0C94B70E4C
:100020000C94B70E0C94B70E0C94D61D0C949A1D1C
:100030000C9406290C94B70E0C94B70E0C94B70EC2
:100040000C94B70E0C94B70E0C94B70E0C94B70E1C
:100050000C94B70E0C94D1190C94B70E0C94B70EE7
:100060000C94B70E0C94B70E0C94B70E0C94B70EFC
:100070000C94B70E0C94B70E0C94B70E0C94B70EEC
:100080000C94B70E0C94B70E0C94B70E0C94B70EDC
:100090000C94B70E0C94B70E0C94B70E0C94B70ECC
:1000A0000C94B70E0C94B70E0C94B70E0000000021
:1000B0000000000000000000000000000000000040
:1000C0000000000000000000000000000000000030
:1000D0000000000000000000000000000000000020
:1000E0000000000000000000000000000000808010
:1000F00080404020201008040204081010202040F6
:1001000040808000000000000000000000000000AF
:1001100000000000000000000000000000000000DF
:1001200000000000000000000000000000000000CF
:1001300000000000000000000000000000000000BF
:1001400000000000000000000000000000000000AF
:100150000000000000000000000000000000003F60
:10016000C1010102020404040402020101010000B1
:10017000000000008000004080804000003030001F
:10018000000000010264180412C2CA2488F08080B2
:10019000404040402020202010101010080808087F
:1001A0000404040402020202010101010000000033
:1001B000000000000000000000000000000000003F
:1001C000000000000000000000000000000000002F
:1001D0000000000000000000000000000000E01827
:1001E0000601000000000000000000000080838382
:1001F000404040402021212010101010080808081D
:1002000004040404020202020101010100000000D2
:1002100000000000000000000000000000000000DE
:1002200000000000000000000000000000000000CE
:1002300000000000000000000000000000000000BE
:1002400000000000000000000000000080808080AE
:10025000404040402020202010101010080F0808B7
:1002600004040404020408101020204040414224E9
:1002700098C088888C9C1C1E0E06000000000000A0
:10028000000000000000000000000000000000006E
:10029000000000000000000000000000000000005E
:1002A000000000000000000000000000000000004E
:1002B000000000000000000000000000000000003E
:1002C000000000000000000000000000000000002E
:1002D000000000000000000000000000000000001E
:1002E000000000000000000000000000000000000E
:1002F00000000000000000000000000000000000FE
:1003000000000000000000000000000000000000ED
:1003100000000000000000000000000000000000DD
:1003200000000000000000000000000000000000CD
:1003300000000000000000000000000000000000BD
:1003400000000000000000000000000000000000AD
:10035000000000000000000000000000000000009D
:10036000000000000000000000008080804040206D
:100370002010080402040810102020404080800053
:10038000000000000000000000000000000000006D
:10039000000000000000000000000000000000005D
:1003A000000000000000000000000000000000004D
:1003B000000000000000000000000000000000003D
:1003C000000000000000000000000000000000002D
:1003D00000000000000000000000003FC101010219
:1003E0000204844444428201010100000000000034
:1003F000800000408080400000303000000000019C
:100400000204040808102040808080804040404062
:1004100020202020101010100808080804040404EC
:1004200002020202010101010000000000000000C0
:1004300000000000000000000000000000000000BC
:1004400000000000000000000000000000000000AC
:1004500000000000000000000000E018060100009D
:100460000C03000218190005FE80838340404040C1
:10047000202121201010101008080808040404048A
:100480000408304080800000018698600000000071
:10049000000000000000000000000000000000005C
:1004A000000000000000000000000000000000004C
:1004B000000000000000000000000000000000003C
:1004C000000000000000000080808080404040402C
:1004D0002020202010101010080F08080404040425
:1004E0000202020201010101000000000000000000
:1004F0000000000000000000000000060F0F0703CE
:100500000361F0F8FC600101013C78F8F070000034
:1005100000000000000000000000000000000000DB
:1005200000000000000000000000000000000000CB
:1005300000000000000000000000000000000000BB
:1005400000000000000000000000000000000000AB
:10055000000000000000000000000000000000009B
:10056000000000000000000000000000000000008B
:10057000000000000000000000000000000000007B
:10058000000000000000000000000000000000006B
:10059000000000000000000000000000000000005B
:1005A000000000000000000000000000000000004B
:1005B000000000000000000000000000000000003B
:1005C000000000000000000000000000000000002B
:1005D000000000000000000000000000000000001B
:1005E00000000000000080808040402020100804AF
:1005F000020408101020204040808000000000000D
:1006000000000000000000000000000000000000EA
:1006100000000000000000000000000000000000DA
:1006200000000000000000000000000000000000CA
:1006300000000000000000000000000000000000BA
:1006400000000000000000000000000000000000AA
:10065000000000000000003FC101010202048444C8
:1006600044428201010100000000000080000040BF
:100670008080400000303000000000010264180457
:1006800012C2CA2488F080804040404020202020B0
:1006900010101010080808080404040402020202E2
:1006A0000101010100000000000000000000000046
:1006B000000000000000000000000000000000003A
:1006C000000000000000000000000000000000002A
:1006D000000000000000E018060100000C0300020A
:1006E00018190005FE8083834040404020212120CE
:1006F0001010101008080808040404040202020282
:1007000001010101000000000000000000000000E5
:1007100000000000000000000000000000000000D9
:1007200000000000000000000000000000000000C9
:1007300000000000000000000000000000000000B9
:100740000000000080808080404040402020202029
:1007500010101010080F080804040404020202021A
:100760000101010100000000000000000000000085
:100770000000000000000000000000000000000079
:100780000000000000000000000000000000000069
:100790000000000000000000000000000000000059
:1007A0000000000000000000000000000000000049
:1007B0000000000000000000000000000000000039
:1007C0000000000000000000000000000000000029
:1007D0000000000000000000000000000000000019
:1007E0000000000000000000000000000000000009
:1007F00000000000000000000000000000000000F9
:1008000000000000000000000000000000000000E8
:1008100000000000000000000000000000000000D8
:1008200000000000000000000000000000000000C8
:1008300000000000000000000000000000000000B8
:1008400000000000000000000000000000000000A8
:100850000000000000000000000000000000008018
:10086000804040402020202020180402010204087B
:1008700010202040408080000000000000000000A8
:100880000000000000000000000000000000000068
:100890000000000000000000000000000000000058
:1008A0000000000000000000000000000000000048
:1008B0000000000000000000000000000000000038
:1008C0000000000000000000000000000000000028
:1008D0000000003FC10101020204040404020201FD
:1008E0000000000000000000800000408080400008
:1008F000003030000000000102040408081020400D
:100900008080808040404040202020201010101027
:10091000080808080404040402020202010101019B
:1009200000000000000000000000000000000000C7
:1009300000000000000000000000000000000000B7
:1009400000000000000000000000000000000000A7
:100950000000E01806010000000000000000000098
:10096000008083834040404020212120101010103F
:1009700008080808040404040408304080800000CB
:1009800001869860000000000000000000000000E8
:100990000000000000000000000000000000000057
:1009A0000000000000000000000000000000000047
:1009B0000000000000000000000000000000000037
:1009C0008080808040404040202020201010101067
:1009D000080F080804040404020408101020204032
:1009E0004041422418000000000000000000000008
:1009F00000000000000000000000000000000101F5
:100A000001000000000000000000000000000000E5
:100A100000000000000000000000000000000000D6
:100A200000000000000000000000000000000000C6
:100A300000000000000000000000000000000000B6
:100A400000000000000000000000000000000000A6
:100A50000000000000000000000000000000000096
:100A60000000000000000000000000000000000086
:100A70000000000000000000000000000000000076
:100A80000000000000000000000000000000000066
:100A90000000000000000000000000000000000056
:100AA0000000000000000000000000000000000046
:100AB0000000000000000000000000000000000036
:100AC0000000000000000000000000000000000026
:100AD0000000000000000000000000000000808016
:100AE0004040402010080402010204081020408009
:100AF0008000000000000000000000000000000076
:100B000000000000000000000000000000000000E5
:100B100000000000000000000000000000000000D5
:100B200000000000000000000000000000000000C5
:100B300000000000000000000000000000000000B5
:100B40000000000000000000000000000000003F66
:100B5000C1010102020404040402020101010000B7
:100B600000000000000000800000800000606000C5
:100B700000010204040808101020204080808080BA
:100B80004040404020202020101010100808080885
:100B90000404040402020202010101010000000039
:100BA0000000000000000000000000000000000045
:100BB0000000000000000000000000000000000035
:100BC0000000000000000000000000000000C03035
:100BD0000C0300000000000000000000008086867A
:100BE000404040402122222011111010080808081E
:100BF00004040404040830408080000001869860EA
:100C000000000000000000000000000000000000E4
:100C100000000000000000000000000000000000D4
:100C200000000000000000000000000000000000C4
:100C300000000000000000000000000080808080B4
:100C4000404040402020202010101010080F0808BD
:100C500004040404020408101020204040414224EF
:100C6000180000000000000000000000000000006C
:100C70000000000000000000000001010100000071
:100C80000000000000000000000000000000000064
:100C90000000000000000000000000000000000054
:100CA0000000000000000000000000000000000044
:100CB0000000000000000000000000000000000034
:100CC0000000000000000000000000000000000024
:100CD0000000000000000000000000000000000014
:100CE0000000000000000000000000000000000004
:100CF00000000000000000000000000000000000F4
:100D000000000000000000000000000000000000E3
:100D100000000000000000000000000000000000D3
:100D200000000000000000000000000000000000C3
:100D300000000000000000000000000000000000B3
:100D400000000000000000000000000000000000A3
:100D50000000000000000000000080808080404013
:100D600020100804020408102040808000000000C9
:100D70000000000000000000000000000000000073
:100D80000000000000000000000000000000000063
:100D90000000000000000000000000000000000053
:100DA0000000000000000000000000000000000043
:100DB0000000000000000000000000000000000033
:100DC00000000000000000000000007E820202041B
:100DD00004080808080404020101000000000000E3
:100DE000000000800000800000606000010102043B
:100DF000040808101020204080808080404040403F
:100E000020202020101010100808080804040404F2
:100E100002020202010101010000000000000000C6
:100E200000000000000000000000000000000000C2
:100E300000000000000000000000000000000000B2
:100E400000000000000000000000C0300C030000A3
:100E50000000000000000000008086864040404006
:100E6000212222201111101008080808040404048B
:100E70000408304080800000018698600000000077
:100E80000000000000000000000000000000000062
:100E90000000000000000000000000000000000052
:100EA0000000000000000000000000000000000042
:100EB0000000000000000000808080804040404032
:100EC0002020202010101010080F0808040404042B
:100ED0000204081010202040404142241800000065
:100EE0000000000000000000000000000000000002
:100EF00000000000000001010100000000000000EF
:100F000000000000000000000000000000000000E1
:100F100000000000000000000000000000000000D1
:100F200000000000000000000000000000000000C1
:100F300000000000000000000000000000000000B1
:100F400000000000000000000000000000000000A1
:100F50000000000000000000000000000000000091
:100F60000000000000000000000000000000000081
:100F70000000000000000000000000000000000071
:100F80000000000000000000000000000000000061
:100F90000000000000000000000000000000000051
:100FA0000000000000000000000000000000000041
:100FB0000000000000000000000000000000000031
:100FC0000000000000000000000000000000000021
:100FD0000000000000008080808040402010080455
:100FE0000204081020408080000000000000000083
:100FF00000000000000000000000000000000000F1
:1010000000000000000000000000000000000000E0
:1010100000000000000000000000000000000000D0
:1010200000000000000000000000000000000000C0
:1010300000000000000000000000000000000000B0
:101040000000000000001C34C40404040808080860
:1010500008040402010100000000000080000040BC
:1010600080804000003030000101020204040408C6
:101070000810204080808080404040402020202078
:1010800010101010080808080404040402020202E8
:10109000010101010000000000000000000000004C
:1010A0000000000000000000000000000000000040
:1010B0000000000000000000000000000000000030
:1010C000000000000000E018060100000000000021
:1010D0000000000000808383404040402021212008
:1010E0001010101008080808040404040408304014
:1010F0008080000001869860000000000000000071
:1011000000000000000000000000000000000000DF
:1011100000000000000000000000000000000000CF
:1011200000000000000000000000000000000000BF
:10113000000000008080808040404040202020202F
:1011400010101010080F080804040404020408100A
:101150001020204040414224180000000000000000
:10116000000000000000000000000000000000007F
:10117000000001010100000000000000000000006C
:10118000000000000000000000000000000000005F
:10119000000000000000000000000000000000004F
:1011A000000000000000000000000000000000003F
:1011B000000000000000000000000000000000002F
:1011C000000000000000000000000000000000001F
:1011D000000000000000000000000000000000000F
:1011E00000000000000000000000000000000000FF
:1011F00000000000000000000000000000000000EF
:1012000000000000000000000000000000000000DE
:1012100000000000000000000000000000000000CE
:1012200000000000000000000000000000000000BE
:1012300000000000000000000000000000000000AE
:10124000000000000000000000000000000000801E
:101250008040404020202020201804020102040881
:1012600010202040408080000000000000000000AE
:10127000000000000000000000000000000000006E
:10128000000000000000000000000000000000005E
:10129000000000000000000000000000000000004E
:1012A000000000000000000000000000000000003E
:1012B000000000000000000000000000000000002E
:1012C00000060D31C1010101020202040402020103
:1012D000000000000000000080000040808040000E
:1012E0000030300000000001020404080810204013
:1012F000808080804040404020202020101010102E
:1013000008080808040404040202020201010101A1
:1013100000000000000000000000000000000000CD
:1013200000000000000000000000000000000000BD
:1013300000000000000000000000000000000000AD
:101340000000E0180601000000000000000000009E
:101350000080838340404040202121201010101045
:1013600008080808040404040408304080800000D1
:1013700001869860000000000000000000000000EE
:10138000000000000000000000000000000000005D
:10139000000000000000000000000000000000004D
:1013A000000000000000000000000000000000003D
:1013B000808080804040404020202020101010106D
:1013C000080F080804040404020408101020204038
:1013D000404142241800000000000000000000000E
:1013E00000000000000000000000000000000101FB
:1013F00001000000000000000000000000000000EC
:1014000000000000000000000000000000000000DC
:1014100000000000000000000000000000000000CC
:1014200000000000000000000000000000000000BC
:1014300000000000000000000000000000000000AC
:10144000000000000000000000000000000000009C
:10145000000000000000000000000000000000008C
:10146000000000000000000000000000000000007C
:10147000000000000000000000000000000000006C
:101480000000000000000000000000004A001E00F4
:101490001F00200021002200350014001A0008005F
:1014A00015001700292204221628072409210A43BF
:1014B00031001D001B00060019000500000052004D
:1014C000510021522B42AA004D0027002600250082
:1014D000240023002D00130012000C0018001C0033
:1014E000340033320F380E340D310B002E02380029
:1014F000370036001000110000004F00500022524B
:101500002C41A900000000000000000000000000C5
:1015100000000000000000000000000000001E02AB
:101520001F02200221022202000000000000000031
:101530000000000000000100010001002A004C0032
:101540000000000000000000000000000000300269
:101550002F020000000000003502270226022502AB
:1015600024022302000030022F02000000000000CD
:101570000000010001000100010001000000000066
:10158000000000000000000000000000000000005B
:101590000000000000001E001F00200021002200AB
:1015A000000000000000000000000000000001003A
:1015B0000100010001000100000000000000000027
:1015C000000000000000000000000000000000001B
:1015D0000000270026002500240023000000000052
:1015E00000000000000000000000010001000100F8
:1015F0002800A8000000000000000000000000001B
:101600000000000000000000000000000100E100F8
:10161000E300E200E0000100000000000000000024
:1016200000000000000001000100010001000100B5
:1016300000000000000000000000000000000000AA
:101640004E0052004B00000000004D004F005100C2
:1016500050004A00000000000000000000000000F0
:10166000000001000100010001007B7C000000007F
:101670000000000000000000000000001C700000DE
:10168000000000000000000000000000000000005A
:101690000000000000000000000000000000010049
:1016A0000100010001000000000000000000000037
:1016B000000000000000000000000000000000002A
:1016C000000000000000000000000000000000001A
:1016D000000000001B70000000000100010001007C
:1016E0000100000000DA0281FFD9F1DB20A4A62E60
:1016F000AF00A0C0D30000A1C8D30000AED580A821
:101700001F408D14200000AF00AE05010980A1012B
:10171000850319012AB700150126B7009501751038
:101720008100C0050C0901A101850419012AA0024C
:10173000150126A002950175108100C0050109065A
:10174000A101050719E029E7150025019508750194
:1017500081029501750881010507190029FF15000F
:1017600026FF009506750881000508190129051551
:10177000002501950575019102950175039101C040
:1017800009023B00020100A0FA0904000001030164
:10179000010009211101000122440007058103080D
:1017A00000010904010001030000000921110100EA
:1017B000012232000705820320000112010002000D
:1017C000000008D8042DEB0001010200010E034CBB
:1017D0000069006C00790035003800000010036CCF
:1017E0000069006C00690075006D00730000000462
:1017F0000309040000000000003E5B4F5B3E003E1A
:101800006B4F6B3E001C3E7C3E1C00183C7E3C181F
:10181000001C577D571C001C5E7F5E1C0000183C9E
:10182000180000FFE7C3E7FF00001824180000FFBE
:10183000E7DBE7FF0030483A060E00262979292623
:1018400000407F05050700407F05253F005A3CE723
:101850003C5A007F3E1C1C0800081C1C3E7F0014E4
:10186000227F2214005F5F005F5F0006097F017F17
:1018700000006689956A0060606060600094A2FF65
:10188000A2940008047E04080010207E20100008A6
:10189000082A1C0800081C2A0808001E1010101036
:1018A000000C1E0C1E0C0030383E383000060E3E78
:1018B0000E060000000000000000005F00000000B5
:1018C0000700070000147F147F1400242A7F2A12C7
:1018D00000231308646200364956205000000807B0
:1018E000030000001C224100000041221C00002ACD
:1018F0001C7F1C2A0008083E080800008070300089
:1019000000080808080800000060600000201008B7
:101910000402003E5149453E0000427F40000072F3
:1019200049494946002141494D33001814127F109E
:10193000002745454539003C4A49493100412111BC
:10194000090700364949493600464949291E000021
:101950000014000000004034000000000814224180
:101960000014141414140000412214080002015938
:101970000906003E415D594E007C1211127C007F29
:1019800049494936003E41414122007F4141413EA3
:10199000007F49494941007F09090901003E414151
:1019A0005173007F0808087F0000417F410000203C
:1019B00040413F01007F08142241007F40404040E9
:1019C000007F021C027F007F0408107F003E41411F
:1019D000413E007F09090906003E4151215E007F1A
:1019E000091929460026494949320003017F0103AC
:1019F000003F4040403F001F2040201F003F403834
:101A0000403F00631408146300030478040300617A
:101A100059494D4300007F41414100020408102014
:101A200000004141417F00040201020400404040A7
:101A30004040000003070800002054547840007F15
:101A40002844443800384444442800384444287F1B
:101A50000038545454180000087E09020018242449
:101A60001C78007F080404780000447D40000020BA
:101A700040403D00007F102844000000417F4000AE
:101A8000007C04780478007C08040478003844441E
:101A90004438007C1824241800182424187C007C66
:101AA000080404080048545454240004043F442407
:101AB000003C4040207C001C2040201C003C40306A
:101AC000403C004428102844004C9090907C0044F6
:101AD00064544C44000008364100000000770000C8
:101AE000000041360800000201020402003C2623E7
:101AF000263C000000000000808080800000000084
:101B00000080E070180C1830E080000010F8901091
:101B100030783010B8FC3810000000000000F8FCED
:101B2000F8000000000000000000000000001C9C05
:101B30001C00000000F8FCF80000000000001CFC85
:101B4000F8C000000000000080E0F87C1C000000ED
:101B5000F0FCFCFC1C1C1C1C1C1C1C1C00000000C1
:101B60000000C0F0F8381C1C1C1C1C1C3CF8F0E0E9
:101B700000E0F0F0F0E0ECEEF7F37020007C7C7C0D
:101B80007E007E7E7E7F7F7F000080C0E07E5B4F98
:101B90005BFEC00000C000DCD7DEDEDED7DC00C0AC
:101BA0000000000000000000000000000000000035
:101BB00000000000000000000FBCE08181818383F1
:101BC00082870C183060C000001FFE90B9FFBB91E7
:101BD000983C1811133F1100000000000000FFFFA7
:101BE000FF00000000000000000000000000FFFFF8
:101BF000FF00000000FFFFFF0000000000000000E9
:101C0000030F7FF8E080F0FC3F0F010000000000B0
:101C10003F3F3F1C1C1C1C1C3C78F8F0E08000007F
:101C20000000C3E7FF7E3C3878787070F8FFDF87EC
:101C3000000F1F3F7F7F7F7F7F3F1E0C001F1F1FF6
:101C40003F003F3F3F7F7F7F00307B7F7830202009
:101C500030787F3B0003000F7F0F0F0F7F0F0003D3
:101C60000000000000000000000000000000000074
:101C7000000000183C24666341C181808080808020
:101C80008081C14162386C4CC681818080808080B7
:101C900081C14362361C1800000000000000FFFFF5
:101CA000FFC0C0C0C0C0C0C0C0C0800000007FFF77
:101CB0007F000000007FFFFFC080000000E0E0C068
:101CC000C0C0E0F97F1F0700000000000000000016
:101CD00070F0E0E0C0C0C0C0E0F0F87F3F0F00004F
:101CE000000F3F7FF9E0E0C0C0C0C0C0E0F97F3F17
:101CF0001F000000000000000000000000000000C5
:101D000000000000000000000000000000000000D3
:101D100000000000000000000000000000000000C3
:101D200000000000000000000000000000000000B3
:101D30000000000011241FBECFEFDAE0DEBFCDBFF0
:101D400011E0A0E0B1E0E8EBFBE602C005900D92E7
:101D5000AC3FB107D9F725E0ACEFB1E001C01D926F
:101D6000AA3BB207E1F70E9439290C94DA350C94AA
:101D70000000FF920F931F93CF93DF932091B8053C
:101D80003091B905285B3340A90144585D4F41307B
:101D90005240E8F040E052E0421B530B6091B60322
:101DA0007091B703D901A854BC4F420F531F821B37
:101DB000930BC1E0D0E02417350760F07093B703B0
:101DC0006093B603CDB7DEB7E5E00C941D324CE767
:101DD00052E0E4CFFC01E20FF31FF490FD91FF16F7
:101DE000A1F08D0101501109F801F082F90115E00F
:101DF000F695E7951A95E1F78E0102C0000F111FC5
:101E0000EA95E2F7F801602B7F2B2F5F3F4FD3CF8E
:101E10008F929F92AF92BF92CF92DF92EF92FF92FA
:101E200090914401981305C09091AE03903309F44A
:101E300048C08093440190E39093AE03C82ED12C08
:101E4000F12CE12C1092AD03C701B6012AE030E07D
:101E500040E050E00E94A632605D603331F0C11472
:101E6000D104E104F10409F460E36093AC038AE077
:101E7000882E912CA12CB12CC701B601A50194018B
:101E80000E94A63260E3211531054105510539F064
:101E9000CA01B901A50194010E94A632605D609358
:101EA000AB03C701B60124E630E040E050E00E94F9
:101EB000A632211531054105510571F0205D2093B1
:101EC000AA038AEA93E0FF90EF90DF90CF90BF9053
:101ED000AF909F908F90089520E3F1CF482F2091ED
:101EE000A9039091700357E0291302C080E0089580
:101EF00030E0529FF001539FF00D1124EF58FC4F3A
:101F00008181681306C08081481303C085818111D7
:101F1000EECF2F5F3F4F2770E7CFFC01AC014B5F47
:101F20005F4F8FEF91E32191822728E030E087FF18
:101F300009C0880F892721503109C9F7E417F5072F
:101F400091F70895880FF7CFE8EDF0E080818E7F5C
:101F500080831092E2001092DA001092E100A0EE6D
:101F6000B0E08C9181608C9380818F77808319BCE5
:101F7000A7EDB0E08C918E7F8C9380818F7E8083E3
:101F80001092510308952091E4003091E50085E618
:101F90009091EC0090FF06C09091E80090FF06C081
:101FA00080E008959091E80092FDFACF9091660349
:101FB000992391F0953091F09091EB0095FD10C030
:101FC0004091E4005091E5002417350709F3815052
:101FD0009A01F1F684E0089582E0089583E008957F
:101FE00081E008958091680387FF13C08091E80025
:101FF00082FF06C08091E8008B778093E80004C0E0
:10200000809166038111F2CF089580916603882341
:10201000D9F38091E80080FFF8CF8091E8008E77B7
:10202000ECCF982F9093E900242F762F50E089175A
:1020300031F07091EC002091ED005091F00021FD05
:1020400007C09F5F973071F78093E90081E00895A2
:102050003091EB003E7F3093EB003091ED003D7FFF
:102060003093ED003091EB0031603093EB007093D2
:10207000EC002093ED005093F0002091EE0027FD3E
:10208000E0CF80E00895B0E0A0E0E9E4F0E10C9456
:10209000FE31C8EDD0E088818F7E8883E7EDF0E0E7
:1020A00080818160808384E082BF81E080935103DE
:1020B00088818E7F888302EE10E0F80110821092F2
:1020C000DA0081EEC82ED12CF601108288818F773C
:1020D000888388818068888388818F7D888319BC04
:1020E000109266031092670310925B0310925A03DA
:1020F00090EEE92EF12CF70180818B7F808388811F
:102100008160888342E060E080E00E941110F60167
:1021100080818E7F8083F8018081816080838081CF
:1021200088608083F70180818E7F808388818061D1
:102130008883CDB7DEB7E8E00C941A32FC018091B9
:102140006E0390916F0386179707A0F061157105D4
:1021500029F49091E8009E779093E80090E0611553
:10216000710551F4911108C08091E80082FF35C0DB
:1021700080E00895BC01F2CF809166038823C9F105
:102180008530C9F18091E80083FD31C08091E8007D
:1021900082FDEACF8091E80080FFE1CF2091F3003B
:1021A0008091F200322F282F6115710519F0283027
:1021B000310558F091E02830310509F090E0209188
:1021C000E8002E772093E800CACF81918093F10038
:1021D000615071092F5F3F4FE7CF809166038823DD
:1021E00041F0853041F08091E80083FFBDCF81E070
:1021F000089582E0089583E00895089508952FB723
:10220000F89460914D0370914E0380914F0390912B
:1022100050032FBF08958091410108959C01FC0156
:1022200032969FEF80E04191461751F09F3F19F49D
:10223000411101C0982F8F5F8630A9F79F3F09F4A5
:102240000895290F311D97FD3A95F901628308958C
:10225000A3E0B0E0EEE2F1E10C94043220914203FD
:102260003091430328173907A1F0909343038093DB
:102270004203E0914003F0914103309751F024E094
:1022800029839B838A830084F185E02DCE0101960A
:1022900009952396E2E00C942032A3E0B0E0E3E558
:1022A000F1E10C94043220913E0330913F03281752
:1022B0003907A1F090933F0380933E03E0914003E0
:1022C000F0914103309751F023E029839B838A8367
:1022D0000084F185E02DCE01019609952396E2E078
:1022E0000C94203280913C03882359F0E091400304
:1022F000F0914103309729F00190F081E02D09958C
:10230000089580E0089580E00895F894E82FE2951C
:10231000EF70F0E031A1282F2F7081E090E001C034
:10232000880F2A95EAF7982F9095932391A392A16D
:10233000892B82A3789408950F931F9380913C0377
:10234000882329F00E94FF101F910F9108950E9489
:10235000FF10009165021091660220916702309192
:102360006802600F711F821F931FEECF90910403CC
:1023700092FF10C041E0282F2471243009F040E082
:1023800031E0282F2871283009F030E0431711F090
:102390002CE0822793FF10C041E0282F24712431C4
:1023A00009F040E031E0282F2871283109F030E0B1
:1023B000431711F02CE082273091050330FF10C045
:1023C00051E0282F2171213009F050E041E0282F01
:1023D0002871283009F040E0541711F029E08227D5
:1023E00031FF10C041E0282F2171213109F040E078
:1023F00031E0282F2871283109F030E0431711F01F
:1024000029E0822794FD877E089582389105B9F1ED
:10241000B0F48133910509F47DC048F48932910507
:1024200009F46DC08A32910509F479C008958533A5
:10243000910509F45FC08933910509F10895833E40
:102440009105D9F138F4803E910529F1823E91053C
:1024500079F10895863E9105D9F1873E910509F4F9
:102460003EC0843E910541F52091050321FF24C023
:102470008091040384FD19C087EE90E008952091B7
:102480000403237009F056C02091050323FF14C0F4
:1024900089E290E008952091040320FD38C0309136
:1024A000050330FF09C024FF3FC090E080E008959D
:1024B0002091040322FDF7CF08952091040322FD0B
:1024C00036C03091050330FD35C024FDEECFF4CF8A
:1024D0002091040323FFF0CF24FDE7CFCDCF20913F
:1024E000040323FD2AC03091050331FFEECF84EEB3
:1024F00090E008952091040325FDCACF089520910E
:10250000040325FD1DC02091050323FFD5CF89E3DA
:1025100090E008952091040326FD15C008952091B0
:10252000040326FD13C0089583EE90E0089582EE23
:1025300090E0089580EE90E0089586EE90E0089592
:1025400085E390E008958AE290E0089581E390E0C9
:10255000B3CF7A30B8F46630A8F48530B0F4E62F03
:10256000F0E096E0799FE00DF11D11249CE3899F36
:10257000E00DF11D1124EE0FFF1FE457FB4E859176
:102580009491089580E090E0089581E0FCCF1F933E
:10259000CF93DF930E940512EC01C11580E5D807A7
:1025A000E8F5C11580E4D80708F09BC0C03ED1050E
:1025B00018F5CD3CD10508F081C0C83AD10570F4BA
:1025C000C53AD10508F072C0C130D10511F118F03B
:1025D000C430D105F0F4D0E0C0E01BC0C33CD1054D
:1025E000D0F7C85AD0E0CC0FDD1FC055DE4F0990A0
:1025F000D881C02DD4640DC0C11580E2D80708F081
:10260000CBC0C11581E0D80708F05AC0C83ED1053B
:1026100010F7CE01DF91CF911F910895C03682E56A
:10262000D80718F5C03482E5D80708F069C0C03271
:1026300082E5D80708F05DC0C11582E5D80708F427
:1026400093C02C2F2695269580E2289F9001112477
:102650008C2F8370C1E0D0E002C0CC0FDD1F8A95C3
:10266000E2F7C22BD32BDD68D4CFC03A82E5D8077E
:1026700060F4C03882E5D80708F457C0CF71D0E0C5
:10268000DC2FCC27C46FD06AC4CFC03C82E5D8070A
:1026900008F45EC0C03E82E5D80708F09CCFDC2F6E
:1026A000CC27CC27DF71C06FD06AB3CFC55AD0E03A
:1026B000C355DE4FC881D0E0D064ABCFD065A9CF81
:1026C0008D2F0E94B611182FCE0199270E94051256
:1026D000C12FD0E0DC2FCC27CC27DF71C82BD92B22
:1026E00098CFCE0199270E940512CC27DF70D06ABF
:1026F000F5CFCF71D0E0DC2FCC27C16FD06A89CF66
:102700002C2F26952695277080E2289F9001112472
:102710008C2F8370C1E0D0E002C0CC0FDD1F8A9502
:10272000E2F7DC68C22BD32B74CF2C2F269526958D
:10273000277080E2289F900111248C2F8370C1E0C4
:10274000D0E002C0CC0FDD1F8A95E2F7DA68EACF4D
:102750008C2F8F710E94B611C82FD0E0DC2FCC27B0
:10276000CC27DF71D06255CF8C2F8F710E94B611AC
:1027700055E0D695C7955A95E1F7CF70D0E0DC2F9C
:10278000CC27282F30E084FF05C044E0220F331F00
:102790004A95E1F7D069C6CF8D2F8F710E94B6118F
:1027A000182FCE0199270E940512C12FD0E0DC2FEF
:1027B000CC27CC27DF71906291CF982F9095809194
:1027C0003B02892380933B0208958091A903909155
:1027D0007003981301C008958F5F8770FACFB0E03F
:1027E000A0E0E5EFF3E10C94FD317C010091E10202
:1027F0001091E2028091750290917602082B192BBC
:10280000CFE0D0E0CC24C394D12CBC2EC6010C2E3A
:1028100002C0880F991F0A94E2F780239123892B25
:1028200049F4219790F7B12C8B2DCDB7DEB7E9E0B5
:102830000C941932B7018C2F0E94A9120E94C71262
:10284000019779F3F1CFCF93DF93EC010E94EF135F
:10285000BE010E94A9120E94C712DF91CF91089574
:102860009A3078F5863068F5E82FF0E086E0989F9A
:10287000E00DF11D11249E2F977083E0F695E795EA
:102880008A95E1F7EE0FFF1FEE0FFF1FE65FFD4F8A
:1028900050E040E080E0219130E0092E02C0369502
:1028A00027950A94E2F721703327042E01C0220FE6
:1028B0000A94EAF7822B4F5F5F4F4430510559F776
:1028C000089580E008959A3098F5863088F5E82FCD
:1028D000F0E086E0989FE00DF11D11248E2F8770A7
:1028E00041E001C0440F8A95EAF783E0F695E79549
:1028F0008A95E1F7EE0FFF1FEE0FFF1FE65FFD4F1A
:1029000030E020E070E05191DF011197CB01022E01
:1029100002C0969587950A94E2F781708195852784
:10292000842385278C932F5F3F4F2430310559F73F
:1029300008959C01267033272630310531F48061DB
:102940009093E2028093E10208958F7EF9CFE091A7
:10295000E102F091E20221E030E0D90102C0AA0FC9
:10296000BB1F8A95E2F7CD01D90102C0AA0FBB1F98
:102970006A95E2F7BD018A2B972B02C0220F331F05
:102980004A95E2F7AF01482359238417950731F49C
:102990002E2B3F2BC9010E94991408952095309544
:1029A0002E233F23F7CF21E030E002C0220F331F58
:1029B0008A95E2F7209530958091E1029091E202AC
:1029C000822393230E949914089590913203809555
:1029D000892380933203282F277069F4891759F0CF
:1029E0009091050392FF07C08695869586950E9473
:1029F000D31410923203089521E030E002C0220F78
:102A0000331F8A95E2F78091E1029091E202822BD6
:102A1000932B0E94991408950F931F93CF93DF93E4
:102A200001E010E0082E02C0000F111F0A94E2F727
:102A3000C0913703D09138039E0120233123232BEB
:102A400001F590913203969596959695891302C05B
:102A5000109232030E94FC140E94FF106093330313
:102A6000709334038093350390933603C027D127A6
:102A7000D0933803C0933703DF91CF911F910F910B
:102A800008950E94D314F2CF90937602809375023A
:102A90000895FC0124812223B9F0808191810E9454
:102AA000231492959F70963089F050F49250923092
:102AB00058F4803F19F030F4883E30F481E00895F6
:102AC0009A50F5CF843FD1F380E00895883EB0F36B
:102AD000813FD1F7F3CFA6E0B0E0E1E7F5E10C9458
:102AE000033226E0FC01DE01119601900D922A9539
:102AF000E1F7FC01258189819A81222399F06623DF
:102B000089F00E94EF13182F682F89819A810E9403
:102B1000631469817A81812F0E94A9122696E3E0CD
:102B20000C941F320E943014182FF3CF80910303AE
:102B30008531F8F48091070290E0019665E070E03D
:102B40000E9492328093070224E030E0281B390B68
:102B50004CE752E0249FC001259F900D349F900DBB
:102B60001124805E974F0E94B90E089584EA95E083
:102B7000FACF8832D8F38091060290E001968170F6
:102B800099278093060221E030E0281B390B4CE79F
:102B900052E0249FC001259F900D349F900D112479
:102BA00084559F4FE0CFCF93DF93682F81E06A3049
:102BB00019F06D3031F480E00E945416DF91CF910E
:102BC00008958091B8059091B90526E0FC01A0EB2D
:102BD000B3E001900D922A95E1F7603E08F459C0E8
:102BE00026E0FC0111922A95E9F7C091B805D09131
:102BF000B90546E050E0BE0180EB93E00E940F3340
:102C0000892B59F1CE01885B93409C0145E03695B4
:102C100027954A95E1F741E050E0BA0102C0660FFE
:102C2000771F2A95E2F79B016091B6037091B70375
:102C3000262B372B059665E0969587956A95E1F7E3
:102C4000FA0102C0EE0FFF1F8A95E2F7CF01822B37
:102C5000932B9093B7038093B6039E01225B33407E
:102C60004091AF03642F70E0C9010E94E031481B1E
:102C7000463010F4240F311D2115F2E03F0710F00B
:102C800030E020E028543C4F3093B9052093B8053C
:102C900095CFF6E06F9FB00111246D50784E46E05D
:102CA00050E00E942B32A1CFCF93382FE091B8058E
:102CB000F091B905E85BF3402091AF03622F70E01B
:102CC000CF010E94E031281B822F332361F066E0A0
:102CD0000E948632C82FC15010F4CF91089580E22F
:102CE0000E94D315F8CF9F01280F311D21153240C6
:102CF00018F080E0F0E0E0E08E0F9F2F911D8854E7
:102D00009C4F9093B9058093B805E7CF80913B0223
:102D100090913202892B90913102992351F0892BA5
:102D2000E0E0F2E027E090E0215029F591111092C7
:102D300031028093FE0148E050E063E372E08EEFE1
:102D400091E00E940F33892BA9F088E0EEEFF1E0CB
:102D5000A3E3B2E001900D928A95E1F7E091400380
:102D6000F0914103309731F00280F381E02D8EEF36
:102D700091E00995089531913323B1F29F5FD4CF4B
:102D800010923B02E0E0F2E086E0DF011D928A95BE
:102D9000E9F790E080E00E944D1190E080E00E9411
:102DA0002811109232020E9486160895882321F07D
:102DB0000E94DD130E9486160895882339F09091B1
:102DC0003B02892B80933B020E948616089588233C
:102DD00081F19CEF980F913A70F4EEEFF1E092815F
:102DE000891301C01282319692E0E430F907B9F7F5
:102DF0000E948616089590E2980F983050F48770DC
:102E000091E001C0990F8A95EAF7892F0E94DD139E
:102E1000EFCF9BE5980F933028F490E080E00E947C
:102E20004D110895885A8B3120F490E080E00E9483
:102E300028110895CF938823C1F0C82F8CEF8C0FF1
:102E4000813A10F5A0E0B2E0EEEFF1E086E092E02A
:102E50002D91C21761F08A179B07D1F76C2F8EEF67
:102E600091E00E940E110E948616CF91089584E091
:102E700092E02281C21301C0128231968E179F0701
:102E8000C1F70E948616EACF80E28C0F883068F482
:102E9000C77021E030E001C0220FCA95EAF78091A7
:102EA0003B02822B80933B02DECFEBE5EC0FE3305D
:102EB00040F4F0E0E355FE4F808190E00E944D1118
:102EC000D4CFC85ACB3188F6EC2FF0E0EE0FFF1FBD
:102ED000E055FE4F808191810E942811C6CF0F934B
:102EE0001F93CF93DF93EC01FC0101900020E9F7E1
:102EF0008F0101501109C017D10728F0DF91CF9140
:102F00001F910F91089589910E94D315F4CF0F93CB
:102F10001F93CF93DF938B01EA0190916603943066
:102F200061F58093E9008FEF9091E800815095FD65
:102F300006C095ED9A95F1F700008111F5CF8091CB
:102F4000E80085FF1AC00E94C30F811111C0809153
:102F5000E80085FD06C08091E8008E778093E80048
:102F6000F2CFF80181918F018093F100219779F7D9
:102F70008091E8008E778093E800DF91CF911F91D8
:102F80000F91089543E050E0BC0182E00E94871752
:102F90000895CF93DF93EC0148E050E0BC0181E05D
:102FA0000E94871788E0FE01A2E5B3E001900D9230
:102FB0008A95E1F7DF91CF910895B0E0A0E0E3EECC
:102FC000F7E10C94FC317C015B016A0180916402A1
:102FD00001E010E08A3010F40AE010E0C1E0D0E037
:102FE000B501C701F6010995811104C021960C179E
:102FF0001D072CF4CDB7DEB7EAE00C941832CC9F55
:103000009001CD9F300D300D112490E080E045E31C
:103010004A95F1F70000019682179307C1F7E0CFB8
:103020000E94C0162FEF84E39CE021508040904026
:10303000E1F700C0000088E19AE00FB6F894A89587
:10304000809360000FBE90936000FFCFAB0124E639
:1030500030E0BC0188E70E94932F21E0892B09F022
:1030600020E0822F089580913003909131039111D7
:1030700003C091E089270895882369F062E070E039
:1030800088E097E10E942618811103C080913003E7
:1030900008951092300380913003EBCFCF93C0910D
:1030A0003003809131038823D1F00E94FF10605AD1
:1030B00075418F4F9F4F60932C0370932D03809326
:1030C0002E0390932F03C11108C062E070E086E0E8
:1030D00097E10E942618811105C0C09130038C2F02
:1030E000CF91089581E080933003F7CF909105034D
:1030F00092FB222720F9281779F080FB92F9909310
:103100000503609104037091050384E090E00E9440
:10311000703282E00E94E5140895CF92DF92EF9220
:10312000FF921F93CF93DF9300D000D0CDB7DEB7CF
:10313000C0905102D0905202E0905302F09054029D
:103140000E94FF106C197D098E099F0911E06436F9
:1031500071058105910570F10E949C116E5F7F4F92
:103160008F4F9F4F69837A838B839C83809111015A
:10317000909112018B5A9D4F4091100150E04530C3
:10318000510510F044E050E0BE016F5F7F4F0E9498
:103190001C3382E090E00E946931182F882351F09F
:1031A0000E94FF1060935102709352028093530269
:1031B00090935402812F0F900F900F900F90DF91FA
:1031C000CF911F91FF90EF90DF90CF900895A1E0F5
:1031D000B0E0EDEEF8E10C94FE3110910303198399
:1031E00000915F02C0906002D0906102E0906202A4
:1031F000F09063020E94FF106C197D098E099F09EF
:10320000643671058105910510F4011749F180912B
:10321000190190911A018B5A9D4F4091180150E06D
:103220004115510511F041E050E0BE016F5F7F4F45
:103230000E941C3383E090E00E946931182F88239C
:1032400051F00E94FF1060936002709361028093BE
:10325000620290936302812F2196E8E00C941A3267
:1032600011E0F9CF8F929F92AF92BF92EF92FF92AF
:103270001F93CF93DF9300D000D000D0CDB7DEB73F
:103280007B0190E080E00E946931182F882309F4C7
:1032900064C04091030150E04115510511F041E037
:1032A00050E060910401709105016B5A7D4FCE0191
:1032B00006960E941C3380904D0290904E02A09082
:1032C0004F02B09050020E94FF10681979098A09D4
:1032D0009B09643671058105910538F486E592E015
:1032E0000E948D0F9E818917C1F181E090E00E94BC
:1032F0006931182F882391F040910B0150E046303E
:10330000510510F045E050E060910C0170910D0105
:103310006B5A7D4FCE0101960E941C3386E592E0E8
:103320000E948D0F91E02E81281390E0192301F166
:103330000E94FF1060934D0270934E0280934F02E3
:103340009093500285E0FE013196A8E4B2E001902E
:103350000D928A95E1F711E00BC085E0E6E5F2E019
:10336000DE01119601900D928A95E1F71111EACFD5
:1033700085E0E8E4F2E0D70101900D928A95E1F74B
:10338000812F26960FB6F894DEBF0FBECDBFDF911A
:10339000CF911F91FF90EF90BF90AF909F908F9033
:1033A000089578941F920F920FB60F9211248F9365
:1033B0009F93AF93BF9380914D0390914E03A09143
:1033C0004F03B09150030196A11DB11D80934D0391
:1033D00090934E03A0934F03B0935003BF91AF91CE
:1033E0009F918F910F900FBE0F901F9018952FB740
:1033F000F89480914D0390914E03A0914F03B091AA
:1034000050032FBF089530914B032091470332178B
:1034100020F42091470320934B036093440370935F
:10342000450380934603909347030E94F7199093B6
:103430005E0380935D0381E080935C030895AAE2BC
:10344000B0E0E5E2FAE10C940032E8E6F3E08091C6
:10345000F100819323E0E037F207C9F78091690317
:10346000833009F487C008F5813009F45EC08230EA
:1034700009F4E0C08091E80083FF1AC180916803DD
:10348000909169039A3008F013C1E92FF0E0E55BF1
:10349000F54E0C94E7322B1B511B581B511B581B2C
:1034A000A91BCB1B581B541D611D8A3009F4A7C0F2
:1034B0008B3009F47CC08930E9F680916803813251
:1034C000C9F680916C0390916D03029798F68091F4
:1034D000E800877F8093E8008091E80082FF45C084
:1034E0008091F3009091F20089279827892702970D
:1034F00031F48091F100813011F0863071F48091C7
:10350000F1008093410160914001709141018091EF
:103510004201909143010E94031A8091E8008B7749
:103520008093E8000E94F20FA5CF80916803813A52
:1035300009F0A0CF8091E800877F8093E800809118
:103540006C0390916D03892B61F060E090E080E066
:1035500070E00E949E108091E8008B778093E800D5
:1035600089CF68E082E593E0F3CF80916603811113
:10357000B3CF80CF80916803813A09F07BCF8091EF
:103580006C0390916D03892B09F074CF8091E80052
:10359000877F8093E8008091E80080FFFCCF8091D6
:1035A00042018093F1008091E8008E77B9CF80913D
:1035B0006803813209F05ECF80916C0390916D03B6
:1035C000892B09F057CF8091E800877F8093E8002E
:1035D0000E94F20F81E090916A03911101C080E096
:1035E00080934201609140017091410180914201BC
:1035F000909143010E94031A0E94C0163BCF809114
:103600006803813209F036CF8091E800877F80938C
:10361000E8000E94F20F80916B038093400160915B
:1036200040017091410180914201909143010E94BB
:10363000031A20CF80916803813A09F01BCF809153
:10364000E800877F8093E8008091E80080FFFCCF4E
:1036500080914001A6CF803889F0823849F5809169
:103660006C038F70873020F58093E9008091EB0028
:1036700085FB882780F91092E90006C080915A03E3
:1036800090915B03911182609091E800977F9093F5
:10369000E8008093F1001092F1008091E8008E77AD
:1036A00027C0282F2D7F21F48823A1F0823029F113
:1036B0008091E80083FF0AC08091E800877F8093B3
:1036C000E8008091EB0080628093EB00AA96E6E030
:1036D0000C941C3280916A03813051F7933009F0C9
:1036E00080E080935B031092E9008091E800877F7F
:1036F0008093E8000E94F20FDBCF80916A03811172
:10370000F2CF80916C038F702FEF280F263080F658
:103710008093E9002091EB0020FFE5CF933031F456
:103720008091EB0080628093EB00DDCF9091EB0005
:1037300090619093EB0021E030E001C0220F8A9568
:10374000EAF72093EA001092EA008091EB0088608B
:10375000EACF8111ADCF10916A031F778091E3000A
:103760008078812B8093E3008091E800877F8093AD
:10377000E8000E94F20F8091E80080FFFCCF80916A
:10378000E30080688093E30083E0111101C082E0D0
:10379000809366038DCF8058823008F089CF809166
:1037A0006A0390916B038C3D43E09407A1F583E09D
:1037B0008A838AE289834FB7F894DE01139620E06A
:1037C0003EE051E2E32FF0E050935700E49120FFF8
:1037D00003C0E295EF703F5FEF708E2F90E0EA300C
:1037E000C0F0C7968D939D932F5F243159F74FBF3B
:1037F0008091E800877F8093E8006AE270E0CE0164
:1038000001960E949E108091E8008B778093E800DB
:103810004FCFC096E7CF40916C0350916D03292F95
:1038200033272330310509F448C080F521303105B4
:1038300009F4EFC02230310509F03ACF0BE310E074
:10384000E0E8EE2EE7E1FE2E8091E800877F80938E
:10385000E80080916E0390916F030817190708F430
:10386000C80140E0009709F0E9C04111E7C080912C
:10387000E80082FDC8CF80916603882321F285305D
:1038800011F28091E80083FFF2CFBDCF21323105E4
:1038900009F4B1C02232310509F00ACF41155105B2
:1038A00009F4C5C04130510509F002CF02E310E030
:1038B0003AE0E32E37E1F32EC7CF99278130910507
:1038C00009F45AC040F0029709F460C010E000E02B
:1038D000F12CE12C09C0EFEEF7E1E4910E2F10E09E
:1038E0007FEEE72E77E1F72E20916E0330916F0384
:1038F000809160038F5F8093600330936503209312
:1039000064032230310509F04BC0909161039F5F41
:1039100090936103833010F190916303923038F0FB
:1039200040916203411163C0891709F45EC0409160
:103930006103853008F447C02F3F310509F04BC0C3
:10394000992309F44AC083E0423008F051C0411184
:1039500005C080916203882309F447C00E94F719CB
:1039600090935E0380935D0381E080935C03011577
:10397000110509F49DCE68CFEDEDF7E1E4910E2F2E
:1039800010E06DEDE62E67E1F62EAECFEDECF7E13F
:10399000E4910E2F10E05DECE52E57E1F52EA4CF5B
:1039A0002430310531F4909162039F5F909362035C
:1039B000B1CF2F3F310509F0ADCF909163039F5FE9
:1039C00090936303A7CF843031F49111C0CF42307C
:1039D00021F484E00DC09111BACF433009F0BECF7D
:1039E00080916203813009F0B9CF81E001C082E0AB
:1039F00080935F03B3CF4115510591F041305105DC
:103A000009F056CE09E010E04BEAE42E47E1F42E2F
:103A10001BCF02E110E02BEBE22E27E1F22E14CFB8
:103A200009E010E092E9E92E97E1F92E0DCF04E4C8
:103A300010E08CE3E82E87E1F82E06CF2091660394
:103A4000222309F4E0CE253009F4DDCE2091E800F0
:103A500023FDD9CE2091E80022FD09CF2091E80076
:103A600020FF00CF2091F3003091F200232732276E
:103A70002327009719F02830310558F041E028300D
:103A8000310509F040E02091E8002E772093E8000E
:103A9000E9CEF70144914093F100FFEFEF1AFF0ADE
:103AA00001972F5F3F4FE5CF803809F001CE80911D
:103AB000E800877F8093E800809167038093F1009E
:103AC000ECCD8111F5CD10916A03123008F0F0CDE4
:103AD0008091E800877F8093E800109367030E943D
:103AE000F20F1123F9F084E08093660342E061EC69
:103AF00081E00E94111042E261EC82E00E9411100C
:103B0000809166038430A1F482E080934301609148
:103B100040017091410180914201909143010E94C6
:103B2000031AC6CD8091E30087FDDDCF81E0DCCFB5
:103B300081E0EBCF1F920F920FB60F9211242F93BB
:103B40003F934F935F936F937F938F939F93AF9325
:103B5000BF93CF93EF93FF93C091E900CF70809113
:103B6000EC001092E9008091F000877F8093F000D4
:103B700078940E941F1A1092E9008091F0008860EA
:103B80008093F000C093E900FF91EF91CF91BF9136
:103B9000AF919F918F917F916F915F914F913F91E5
:103BA0002F910F900FBE0F901F9018951F920F929C
:103BB0000FB60F9211242F933F934F935F936F9300
:103BC0007F938F939F93AF93BF93CF93EF93FF9385
:103BD0008091E10082FF09C08091E20082FF05C070
:103BE0008091E1008B7F8093E1008091DA0080FF7B
:103BF00024C08091D80080FF20C08091DA008E7FA1
:103C00008093DA008091D90080FFD2C080E189BD25
:103C100082E189BD09B400FEFDCF81E08093660397
:103C200080915103811109C00E94A40F0E9443108A
:103C30008091E20084608093E2008091E10080FF47
:103C400024C08091E20080FF20C08091E2008E7F3E
:103C50008093E2008091E20080618093E200809195
:103C6000D80080628093D80019BC85E080936603F9
:103C700083E0809343016091400170914101809104
:103C80004201909143010E94031A8091E10084FF58
:103C900039C08091E20084FF35C080E189BD82E1B6
:103CA00089BD09B400FEFDCF8091D8008F7D80933F
:103CB000D8008091E1008F7E8093E1008091E20046
:103CC0008F7E8093E2008091E20081608093E20029
:103CD00080916703882309F471C084E080936603B0
:103CE00080916603843009F471C081E080934301C0
:103CF0006091400170914101809142019091430196
:103D00000E94031A8091E10083FF40C08091E2008D
:103D100083FF3CC08091E100877F8093E10082E0D7
:103D200080936603109267038091E1008E7F8093F9
:103D3000E1008091E2008E7F8093E2008091E200BA
:103D400080618093E20042E060E080E00E94111018
:103D50008091F00088608093F000C1E0C09343013F
:103D60006091400170914101809142019091430125
:103D70000E94031AC0934201609140017091410179
:103D800080914201909143010E94031AFF91EF91AB
:103D9000CF91BF91AF919F918F917F916F915F91E3
:103DA0004F913F912F910F900FBE0F901F9018953C
:103DB00019BC10926603109251033FCF8091E3002B
:103DC00087FD02C081E08ACF83E088CF82E08ECF7A
:103DD000EF92FF920F931F93CF93DF93C42FD22FB5
:103DE000FC0185818823A9F040933B030E94F719C9
:103DF00090933A0380933903C77081E001C0880F24
:103E0000CA95EAF70E94DD16CDB7DEB7E6E00C945E
:103E10001C3210913B03141338C0E0903903F0902A
:103E20003A030E94F7198E199F09883C910568F59D
:103E3000C0E2CD0F1D17C1F080E2810F883048F439
:103E4000177081E0012E01C0880F0A94EAF70E94E2
:103E5000D616C83008F581E09D2F977001C0880FF5
:103E60009A95EAF70E94DD16802F0E941A17802F7C
:103E70000E94E716C83040F6D77081E001C0880F75
:103E8000DA95EAF70E94D616BFCFC77081E001C06D
:103E9000880FCA95EAF7F6CF802F0E941A17802F55
:103EA0000E94E716B1CFB0E0A0E0E9E5FFE10C9495
:103EB000FD31FC012481222309F47CC07C0161E0F6
:103EC0000E946B15EC01F7012581FC01E851FC47CC
:103ED000222309F426C5AC015A95992741153FE4E0
:103EE000530738F0CE01CF3FD10519F010F090E024
:103EF00080E0BC01645071096432710518F08B9741
:103F00000E9788F4A0919202B0E0AA0FBB1FA956A9
:103F1000BD4F8D919C9111978F3F3FE7930719F00B
:103F200001968D939C9341155F4438F5CE019927F6
:103F30008C34910511F08A9789F4A0919202B0E037
:103F4000AA0FBB1FA956BD4F8D919C91119781154A
:103F500030E8930719F001978D939C93E730F105B2
:103F600008F051C0EA54F04E0C94E732E51FEB1F05
:103F7000C31FDF1FF11FF71FFD1FCF3FD10509F042
:103F800068F7CE01D5CF06E221EE41EE6AE17CE78B
:103F9000C7010E94E81E80913203877059F0F70133
:103FA0008581882339F08091050382FF03C082E078
:103FB0000E94E514CDB7DEB7E9E00C94193207E2B0
:103FC00025EE45EE6BE17CE7E3CF06E221EE40EE25
:103FD00068E17CE7DDCF07E225EE44EE69E17CE7AE
:103FE000D7CF06E221EE42EE6CE17CE7D1CF07E2CB
:103FF00025EE46EE6DE17CE7CBCF08E221E045EE11
:104000006EE17CE7C5CF10923B03CE0190578397BA
:1040100008F097C484E090E00E943C32909305033E
:1040200080930403FE01E150F047E232F10508F00D
:1040300026C0E35EFF4D0C94E7327920EE2081200C
:104040004B204F2085205320892095205F20E7209A
:104050006320992067209D20C5206B20A120CC20C3
:104060007120A720AF2057208D205B209120752044
:10407000AB20BB20D520E52045207D20F520809178
:10408000040381608093040395C0809105038860D8
:10409000809305038FC0809104038260F3CF8091E9
:1040A00004038460EFCF809104038860EBCF80919C
:1040B00005038160EDCF809105038260E9CF809197
:1040C00004038061DFCF809104038062DBCF8091A5
:1040D00004038064D7CF0E94C016809104038068D7
:1040E000D1CF809104038860DCCF8091050382608A
:1040F000E0CF809104038E7FC5CF80910503877F39
:10410000C7CF809104038D7FBDCF809104038B7F47
:10411000B9CF80910403877FB5CF809105038E7F4F
:10412000B7CF809105038D7FB3CF809104038F7E3D
:10413000A9CF809104038F7DA5CF809104038F7B4D
:10414000A1CF0E94C016809104038F779BCF8091EE
:104150000403877FDCCF809105038D7FE0CF8091C2
:10416000040382FB992790F921E0922790FB82F9C2
:1041700090FB83F987CF80910503982F90959170DC
:104180008E7F892B90FB81F983CF90910403892F37
:104190008F7B96FF806476CF0E94C01690910403B7
:1041A000892F97FB87F980586DCF61E08EE090E012
:1041B0000E945232609104037091050384E090E004
:1041C0000E9470320E94C016E6CE60E0EFCF909160
:1041D0000403892F8F7E94FF806154CF9091040354
:1041E000892F8E7F90FF81604DCF90910503892F9D
:1041F000877F93FF88604CCF89E2EEEFF1E024E007
:1042000032E09281891301C0128231962E173F0746
:10421000C1F7ABC381E00E94FC1443E062E081E09F
:104220000E94A714B8CE81E00E94D314F6CF2223B7
:1042300009F4CCC382E0EFCF0E94FF1060933303F8
:104240007093340380933503909336038091E10299
:104250009091E2022091370330913803AC014095F0
:10426000509542235323452B31F028233923309393
:10427000380320933703F7014581CB37FCE7DF078D
:1042800049F5442309F487CE292F33272115310519
:10429000F9F49C0180E0A90174E0569547957A9560
:1042A000E1F74115510511F08C5F9A01A90156956E
:1042B0004795569547954115510511F08E5F9A0126
:1042C00036952795232B09F08F5F0E940C1563CE3E
:1042D00088E0E1CFC11522E5D207F0F4C11530E541
:1042E000D307E8F5C11580E4D80708F055C044238A
:1042F00009F46BC0C330FCE7DF0709F4EBC008F03A
:10430000BFC0C1153CE7D30709F4C8C0C130DC47C2
:1043100009F05BC00E941018C03292E5D90738F34B
:10432000C034E2E5DE0728F0CE01805C924580973C
:10433000F0F68C2F8F7121E030E0082E02C0220FA2
:10434000331F0A94E2F760913703709138032623F4
:104350003723232B61F2442309F41DCEB6CFCE01BF
:1043600025E0969587952A95E1F78F7021E030E05A
:10437000082E02C0220F331F0A94E2F76091370320
:104380007091380326233723232B09F4B0CF411132
:104390009CCF10923B02E9C2F7018681807F09F031
:1043A000A6CF411112C02D2F2F7081E090E002C0E6
:1043B000880F991F2A95E2F720913703309138032F
:1043C00082239323892B09F0E6CDF7018581C081F3
:1043D000D181882309F491C0CE010E94EF13182FD8
:1043E000682FCE010E946314BE01812F0E94A91282
:1043F0000E94C712D82FC92FB82EF701D580C680CA
:10440000C2948FE0C82280913203877001F10D2D94
:10441000DD20F1F0892F807F803469F080E28D0FFC
:104420008830A8F0892F807E803229F4F1E0FD17D2
:1044300070F4CC2061F08091050382FF08C082E017
:104440000E94E51480913203877001E009F000E0DA
:104450001C2F12951F701C3008F024C1E12FF0E0D2
:10446000EC5CFD4D0C94E73282228222B822B82205
:104470004B235223522352236B23F823092409246C
:10448000CB359CE7D907B9F1CC35ECE7DE0749F12C
:10449000CA35DC4709F099CF81E02AC00E94C016D6
:1044A0002FEF34E38CE0215030408040E1F700C032
:1044B000000087E797E7909301088093000888E160
:1044C0009AE00FB6F894A895809360000FBE909381
:1044D0006000FFCF6FEF7FEF90E080E00E947032CE
:1044E00019CF8091050382FB882780F991E0892705
:1044F0000E9476186ACF80E0FBCFCE010E94301474
:10450000182F72CF1C2F1F70C07F11F01295107FD3
:104510008D2FDD20B9F0112369F090E29D0F9830C6
:1045200010F0D11109C080913B02182B10933B026F
:104530000E9486168D2F3FC080913202182B109357
:104540003202F6CF0E94E7161123E9F1D05ED8308F
:1045500010F0B11004C0812F0E94DD1306C0109529
:10456000809132021823109332020E9486162BC0CB
:104570001C2F1F70C07FC03211F01295107FBB201E
:1045800051F021E0B21609F466C0DD2009F472C0D2
:10459000CC20B1F1CFCF8091050382FD2DC0DD206D
:1045A00069F0112339F080913B02182B10933B02E4
:1045B0000E94861680E00E941A1705C080E00E94C3
:1045C000E7161111C8CF002309F4BBC08091320354
:1045D00080FDB7C0F70115828695869586950E9465
:1045E000FC14C7010E94531F809132038695869563
:1045F00086950E94D314A5C0DD2099F0C11004C097
:10460000812F0E94DD16DFCF31E0C312DCCF809115
:104610003102912F98231917B1F2182B1093310200
:10462000D2CFC110D0CF812F0E94D61690913102E7
:10463000812F892329F0812F80958923809331024E
:1046400080910902912F982309F4BDCF109518236A
:1046500010930902B8CFDD2029F085E08C1508F40D
:10466000B2CFCECF94E09C1508F4ADCF812F0E943D
:10467000D616A9CFCC20D1F3D93349F4EFEFF7EE1A
:1046800023E0E150F0402040E1F700C000008D2F12
:104690000E94E71698CF8C2F86958695837039F007
:1046A000813079F01850143008F08DCF48C08D2F2C
:1046B0009C2F9370D11002C080E090E00E944D11B9
:1046C00082CF8D2F9C2F9370D11002C080E090E09C
:1046D0000E94281178CF8C2F837009F045C0D1102B
:1046E0002EC04D2F429546954770440F440F2D2FF5
:1046F0002F7030E0042E02C0220F331F0A94E2F71D
:1047000090E080E0D4FF09C08FE090E002C0880F05
:10471000991F4A95E2F780959095C695C695C37006
:10472000C230C9F0A8F44091750250917602C130B0
:1047300069F0822B932B842395230E9444150E94B9
:10474000721160E0C7010E946B1534CC242B352B0D
:10475000822B932BF2CF822B932B209175023091D9
:10476000760282279327E9CF8695DD2011F08C2FE2
:104770008170882321F34D2F429546954770440F51
:10478000440F2D2F2F7030E0042E02C0220F331F54
:104790000A94E2F790E080E0D4FF09C08FE090E057
:1047A00002C0880F991F4A95E2F780959095C695AB
:1047B000C695C370C23099F078F44091E1025091EF
:1047C000E202C13039F0822B932B842395230E947F
:1047D0009914B5CF242B352B822B932BF8CF822B1A
:1047E000932B2091E1023091E20282279327EFCFB1
:1047F000CF70DD2039F08C2F0E94FC148D2F0E9489
:10480000DD169DCF8D2F0E94D6168C2F0E94D314BB
:1048100096CF8D2F32EFB31609F43FC03B1580F0D1
:1048200090EFB916F1F0E1EFBE16A1F0DD2009F42A
:1048300064C0CC2009F45EC08D2F0E941A1732CFBD
:10484000F3EFBF1689F124EFB212F0CF9091050378
:1048500092FD37C08C2F8F71DD2019F10E94FC145E
:1048600021CFDD20A9F034E03C1508F41BCFCF7137
:1048700081E090E002C0880F991FCA95E2F720916D
:10488000E1023091E202822793270E9499140ACF15
:1048900085E08C1508F406CFEACF8C2F8F71DD20D0
:1048A000E9F20E94D314FECE90E080E0DD2069F3AF
:1048B000CF7181E090E002C0880F991FCA95E2F79E
:1048C000E4CFDD2061F08C2F8F7192FFC7CF98E08D
:1048D000899F90011124236020933203BFCF81E090
:1048E0000E94E514E1E0EC1508F0DCCE82E00E94C5
:1048F000E514D8CE8C2F8F71B1CFCC2079F08933CD
:1049000049F4FFEF27EE33E0F15020403040E1F76B
:1049100000C000008D2F0E94E716C4CE8C2F8F712F
:10492000C0CFE730F10508F41DCBC6318CE7D807BE
:1049300009F043C080910802882309F45DCC85E327
:104940005CCCC631FCE7DF0799F480913B028A7AA0
:1049500091E009F490E09093080265E3811101C0B1
:1049600069E28EEF91E00E940E110E94861613CB31
:10497000C7373CE7D30709F44DCCC8378CE7D807D5
:1049800009F455CCCE01805E9245809708F054CC56
:10499000211152CCCF7181E090E0FC0102C0EE0FFA
:1049A000FF1FCA95E2F7EF016E2F83E090E00E94AF
:1049B0005232CE010E944415EECAC7379CE7D90790
:1049C00009F431CCC837ECE7DE07E1F682E02CCC05
:1049D000B0E0A0E0EEEEF4E20C94FF318091300202
:1049E000807F09F050C080912F02882309F44BC0CA
:1049F000E091A90387E0D82E809170038E1709F407
:104A000042C00E2F10E0ED9DF0011124EF58FC4F35
:104A100084818823E9F1D09EE001D19ED00D11243C
:104A2000FE01EF58FC4F918180912B02981330C00A
:104A3000908180912A0298132BC08581811128C012
:104A4000E280F38080912C0290912D02E81AF90AFD
:104A500060E08AE292E00E946B1588ECE816F104AF
:104A6000B8F4809130028F70806180933002C95811
:104A7000DC4F88818F70806188838AE292E00E9497
:104A8000531F0E94E513CDB7DEB7E7E00C941B324D
:104A9000F8013196E770B0CFA4E1B0E0E2E5F5E2CD
:104AA0000C94F7318C0186E0F801DE011F9601902D
:104AB0000D928A95E1F7F801F480E5808AE2882E6C
:104AC00082E0982E80912E0281112AC0F11003C03D
:104AD000FF24F3941CC0EE20F9F0C8010E94491590
:104AE000F82E8823C9F087E0F801AAE2B2E001902D
:104AF0000D928A95E1F780912E02813031F48091F8
:104B00002A0290912B020E9423140E94E8248F2DE8
:104B10006496EFE00C941332C8010E94531FD8CF63
:104B2000C280D380B0902F0280912C0290912D02F0
:104B30003601681A790ABB2009F4F7C05080A180B9
:104B400060E08AE292E00E946B15F8EC6F16710447
:104B500008F0A4C0FF2009F4BBCF80913002382FA9
:104B6000307F20912B02F8019181311157C0FE2C2A
:104B7000291314C020912A02908129130FC0E1103B
:104B800046C08F708061809330028AE292E00E947A
:104B9000531F80913002F8018683B9CFE11037C0EE
:104BA0006A2D852D0E946E0F6A2D852D0E946E0F35
:104BB000E82E8111ACCF5F86A88A8F8598890E94E4
:104BC0002314292F22952F70243058F49F702230FF
:104BD00080F0992391F0F8019681907F71F4FE2C7A
:104BE00096CF2A50223068F0C8010E94531FEB2C48
:104BF000F6CF992311F0882391F3805E8830A0F7D7
:104C0000EECF803F60F3815F833070F7E8CF809113
:104C10003002816080933002F12C79CF291315C0C6
:104C200020912A029081291310C0E1100EC08683C2
:104C3000C8010E94531F87E0F801AAE2B2E0019088
:104C40000D928A95E1F7FB2C62CFC8010E944915AD
:104C5000882309F461CFEE2009F45ECF8091300201
:104C6000803288F020912A0230912B0239872887E0
:104C7000DB86CA8690912E029C871D868E87CE0188
:104C800008960E94531F87E0F801AAE2B2E0019063
:104C90000D928A95E1F70E94E8241ACF80913002A4
:104CA000982F907F51F48AE292E00E94531F87E090
:104CB000F40111928A95E9F7AFCFFF2009F408CFEC
:104CC00020912B02F8019181291311C020912A0211
:104CD000908129130CC0E1100AC08683C8010E948C
:104CE000531F87E0F40111928A95E9F7ACCFC80110
:104CF0000E944915882309F40FCFEE2009F40CCF48
:104D000080913002803208F4BECF20912A02309187
:104D10002B023A832983DC82CB8290912E029D83E1
:104D20001E828F83CE010196ACCF60E08AE292E0D2
:104D30000E946B15F8EC6F16710408F0B8CFFF20D5
:104D400009F4C6CEFE2CEE2009F4E6CE90912B029B
:104D5000F801818198132DC090912A0280819813C7
:104D600028C080912C0290912D02C81AD90AF8EC23
:104D7000CF16D104A8F49091300290FD11C0907F1D
:104D800079F080913002F8018683903F31F0982FBE
:104D9000907F905F8F70892B8683C8010E94531F7C
:104DA00087E0F801AAE2B2E001900D928A95E1F75E
:104DB000AECEC8010E944915811165CF80913002A5
:104DC000816080933002C8010E94531FA0CEABE1E6
:104DD000B0E0EDEEF6E20C9403324E8B5F8B688F01
:104DE000798F8A8F9B8F9111109232021D8A86E0F3
:104DF000FE017696DE011F9601900D928A95E1F7ED
:104E00008B89882351F061E0CE010F960E946B15CB
:104E100061E0CE010F960E946B1587E0FE013F9680
:104E2000DE01189601900D928A95E1F7CE01089661
:104E30000E944C2581112AC087E0FE013896DE01D0
:104E4000119601900D928A95E1F78C858823F1F0F7
:104E50002091700330E0C901019687709927409135
:104E6000A9034817190659F197E0929FD001939F23
:104E7000B00D1124AF58BC4FFE01319601900D9238
:104E80009A95E1F7809370030E94E51317E08091F3
:104E9000A903909170038917F9F0819FC001112433
:104EA0008F589C4F0E944C258823B1F08091A90314
:104EB00090E00196877099278093A903E8CF0E941C
:104EC000C016109270031092A90387E0EAE2F2E0A4
:104ED000DF011D928A95E9F76B96E3E00C941F328F
:104EE000AFE0B0E0E6E7F7E20C94F7318E010F5F38
:104EF0001F4F8AE0F80111928A95E9F788EEE82EB3
:104F000081E0F82E68019DEE692E91E0792EAA24A9
:104F1000A394B12C33EF832E31E0932EF7018191CE
:104F20007F018F3F09F440C0F894E82FE295EF70BD
:104F3000F0E021A18F70A50102C0440F551F8A9592
:104F4000E2F7CA01922F982B91A392A18095892311
:104F500082A3789400C0EDEEF1E0512C31E0219174
:104F60002F3F09F492C0A22FA295AF70B0E09096A7
:104F70008C9190E02F7002C0959587952A95E2F765
:104F800080FD83C0832F582A330F8E169F0639F772
:104F9000F701319780818F3F11F00E94851150EA0F
:104FA0005A95F1F7F6015082FFEFCF1ADF0A6E141F
:104FB0007F0409F0B3CF4AE050E0B80189E692E0FF
:104FC0000E940F33009741F02AE0F801A9E6B2E011
:104FD00001900D922A95E1F70091740210E00958B2
:104FE0001D4F892B09F453C081E0809340020E9439
:104FF000F71990933F0280933E02D12CC0903C035E
:10500000CC2009F4A1C07E012BE0E20EF11C85E06A
:10501000F70111928A95E9F7809164028A3008F0CD
:105020005CC042E359E1B701C8010E94DD17882343
:1050300009F477C04DE858E1B701C8010E94DD17B7
:10504000882309F46EC047EE58E1B701C8010E94F9
:10505000DD17882309F465C0109264028091730201
:1050600090E045E050E0B70189589D4F0E940F3312
:1050700021E020934702892B09F046C0C12C8C2DDA
:105080008D292F96EFE00C94133280E07CCFD090E6
:105090004002DD2009F4B1CFE0903E02F0903F02E3
:1050A0000E94F7198E199F09059708F4A6CF45E0CD
:1050B00050E069E672E0C8010E940F33892B59F075
:1050C00085E0E9E6F2E0D80101900D928A95E1F7DA
:1050D0001092400293CFD12CFBCFA0904102B09010
:1050E00042020E94F7198A199B09843F914008F0F7
:1050F00098CF80914702882309F285E0F701119249
:105100008A95E9F710924702A0917302B0E0A9587E
:10511000BD4F85E0FE013B9601900D928A95E1F727
:10512000AECF809164028F3F19F08F5F809364024D
:10513000809164028A3008F491CF0E94F71990930D
:10514000420280934102D5CF85E0F801A6E5B2E0A6
:1051500001900D928A95E1F786E592E00E948D0F0D
:105160008093550280905B0290905C02A0905D025B
:10517000B0905E028091430290914402A09145025A
:10518000B091460288169906AA06BB06B1F0809235
:10519000430290924402A0924502B09246020E94BD
:1051A000FF10861A970AA80AB90A8092650290929F
:1051B0006602A0926702B092680280915F028093BB
:1051C00003035DCFA6E0B0E0E8EEF8E20C94023213
:1051D0000E94F7198C0180913C0290913D0280174A
:1051E000910781F019821A820E94F719682F49816C
:1051F0005A81792F80E090E00E94E72610933D02CB
:1052000000933C022696E4E00C941E321F920F920B
:105210000FB60F9211248F939F93AF93BF938091FA
:105220004C03811113C080914D0390914E03A091C6
:105230004F03B09150034196A11DB11D80934D03C2
:1052400090934E03A0934F03B0935003BF91AF913F
:105250009F918F910F900FBE0F901F901895CF9335
:10526000DF93EC010E94F7198C1B9D0BDF91CF910E
:105270000895ADE0B0E0EFE3F9E20C94F43185B7C6
:10528000806885BF85B7806885BF84B7877F84BF06
:105290000FB6F894A89580916000886180936000B3
:1052A000109260000FBE80E890E00FB6F8948093F3
:1052B0006100909361000FBE81E080934301609193
:1052C00040017091410180914201909143010E94FF
:1052D000031A83E891E19093FD018093FC010E9401
:1052E000A40F0E9443108091E20084608093E2004A
:1052F000789480916603882399F01091E9001F70DB
:105300008091EC0080FFA2C180E8182B1092E90088
:105310008091E80083FD0E941F1A1F701093E9001E
:1053200082E084BD93E095BD9AEF97BD80936E00B7
:105330001092650210926602109267021092680243
:105340008091D80080618093D8002AE12A95F1F7F6
:1053500000C08091D900182F117080FD04C00E94F8
:10536000A40F1092660310933C0310933D03109317
:10537000200111110E947D30809120018091200137
:1053800090E0811101C095E09093740285E0891B43
:105390008093730208EE11E0D8018D918D018F3F4B
:1053A00011F00E948511B1E00D3E1B07A9F70DEE2B
:1053B00011E0F80181918F018F3F11F00E9485115A
:1053C000F1E0033F1F07A9F78AE0E7E7F2E0DF011A
:1053D000282F1D922A95E9F7E9E6F2E0DF011D92F8
:1053E0008A95E9F790E080E00E943C32853E9E4F2E
:1053F00009F461C065EE7EEF90E080E00E947032BB
:1054000060E082E090E00E94523281E090E0909370
:1054100076028093750261E083E090E00E94523250
:1054200060E074E184E090E00E94703260E086E029
:1054300090E00E94523260E087E090E00E94523299
:1054400040E050E0BA0188E090E00E94643260E001
:1054500083E290E00E94523260E08CE090E00E9493
:10546000523260E08DE090E00E94523219821A823E
:105470001B821C821D821E821F82188648E050E01B
:1054800067E170E0CE0101960E94423240E050E0B8
:10549000BA018FE190E00E94643240E050E0BA012E
:1054A0008FE090E00E94643240E050E0BA0183E176
:1054B00090E00E94643282E090E00E943432809357
:1054C000810284E090E00E943C3290930503809337
:1054D000040383E090E00E94343290E00E9444157F
:1054E00080913C038111B4C082E08093260380E860
:1054F0008093AF030E941B2F6BE070E08BEF96E16F
:105500000E9426188823E9F18091260365E070E067
:1055100081FDA0C086EF96E10E942618882389F1BC
:105520006DE070E084EE96E10E942618882349F130
:105530000E94FF10605A75418F4F9F4F60932C035C
:1055400070932D0380932E0390932F03E8EBF3E0E9
:1055500080E092E0DF019C011D9221503040E1F794
:10556000F093B905E093B8058FEF9FEF9093B703E1
:105570008093B60381E080933103809330031092CF
:10558000270380913C03811102C00E94803081E298
:1055900091E0909341038093400344E6842E912C44
:1055A000A12CB12C8091660310E4853009F489C0E8
:1055B0000E94702702E812E037E7E32E32E0F32E74
:1055C000D701F80191918D912CE832E02E173F0719
:1055D00009F481C09817B1F340903C03D12CD70156
:1055E000CD907D01F80151908F015C1431F1712C47
:1055F000662463945C24852D8621B9F04420A9F0AB
:105600007982DA820E94F7199C838B83F1E0FD8313
:1056100091E08C2D862109F490E09E8349815A8186
:105620006B817C818D810E94E7267394660C26E055
:105630007212E1CFF8013197C082D3943AE0D312CD
:10564000CECF0E949C1141E049874AC080E05DCEE8
:1056500080E04BCF81EF96E15FCF8091660384308D
:1056600029F10E94331810924C0348E150E00FB624
:10567000F894A895409360000FBE1093600083B724
:10568000817F846083BF83B7816083BF789488956E
:1056900083B78E7F83BF0FB6F894A8958091600082
:1056A000886180936000109260000FBE0E94702796
:1056B000E7E7F2E08191811156C352E0E138F50746
:1056C000C9F780916603853009F4C7CF0E94C016E0
:1056D0000E9472116DCF98137FCF0E94E228198625
:1056E00000913C03002309F4EEC0C0909702D090D3
:1056F00098020D2C000CEE08FF0810912B01212FB1
:1057000030E0E7E9F2E081E090E0329628173907CF
:105710000CF01DC14090930250909402609095024D
:10572000709096020E94FF109B01AC01241935096C
:105730004609570929013A0139EC4316510461041D
:10574000710414F18091920290E0019669E170E099
:105750000E94923280939202880F991FFC01E956B1
:10576000FD4F11821082812F183108F087E18F5F81
:1057700080932B010E94FF10609393027093940218
:10578000809395029093960242E0C416D104E104FE
:10579000F1045CF1A0E6BAEEA70196010E94ED3299
:1057A0006B017C0158EC159F90011124032E000C15
:1057B000440B550B240D351D461D571DA5E0B0E0CB
:1057C0000E94ED329B01AC01C701B6010E94A632D6
:1057D000213F31054105510524F020EF30E040E044
:1057E00050E029013A0177FE03C0412C512C3201CF
:1057F000C0908E02D0908F02E0909002F0909102C3
:105800000E94FF109B01AC012C193D094E095F0954
:1058100069017A0135E6C316D104E104F10484F08C
:105820000E94FF1060938E0270938F02809390020B
:10583000909391028091030380938D0240928C0299
:1058400010918D02A0918C02A11BBB0BA7019601A8
:105850000E94F832A50194010E94C832120F1093E1
:105860000303C0903703D0903803C114D10459F119
:1058700040903303509034036090350370903603AA
:105880000E94FF10641975098609970961367A4EDE
:1058900081059105C0F0C094D0948091E10290916F
:1058A000E2028C219D210E949914109238031092DB
:1058B00037030E94FF106093330370933403809387
:1058C00035039093360380913103882309F4F2C1A4
:1058D000C0902803D09029030E94F7198C199D09C4
:1058E000C29708F48AC00E94F71990932903809305
:1058F000280388EB93E09093B9058093B8050023C3
:1059000009F4B6C08091E1029091E20284309105E1
:1059100009F4A1C040F50097A1F163E571E0823080
:10592000910589F19F938F9381E991E09F938F93E4
:105930001F9288E18F9389EC92E09F938F930E944E
:105940002C330FB6F894DEBF0FBECDBF20C0408110
:105950005181052E000C660B770BC40ED51EE61E7A
:10596000F71E0196D2CE8031910509F477C08631B9
:10597000910509F473C088309105A1F661E771E0E3
:1059800002C065E471E089EC92E00E94253389EC65
:1059900092E00E946F1781E00E94541680910503E7
:1059A00080FF5FC08FE291E09F938F938CE291E044
:1059B0009F938F9381EA91E09F938F931F9288E149
:1059C0008F9383EE92E09F938F930E942C330FB6B8
:1059D000F894DEBF0FBECDBF83EE92E00E946F173A
:1059E00081E00E94541687EA91E00E946F1780912F
:1059F00003030E94080F0E946F178091B6039091D5
:105A0000B703892B09F43DC180913103882309F440
:105A100038C180912703811134C10E944E18209112
:105A2000B6033091B7032115310509F42AC180E08E
:105A300041E050E0082F10E02A01082E02C0440C7B
:105A4000551C0A94E2F7B20162237323672B09F015
:105A50007BC08F5FEFCF62E671E095CF63E871E0C6
:105A600092CF85E391E09F938F9382E391E0A0CF63
:105A700080910303882391F10E944E184090FF0209
:105A80005090000360900103709002030E94FF1089
:105A90006419750986099709693C710581059105A5
:105AA00060F00E94FF106093FF02709300038093E8
:105AB0000103909302030E9496150E94FF106093C9
:105AC000FB027093FC028093FD029093FE0288EB30
:105AD00093E09093B9058093B80585CF4090FB0281
